{"abi":[{"type":"constructor","inputs":[{"name":"_expectedRecipient","type":"address","internalType":"address"},{"name":"_expectedAmount","type":"uint256","internalType":"uint256"},{"name":"_currentRewardAmount","type":"uint256","internalType":"uint256"},{"name":"_currentPaymentAmount","type":"uint256","internalType":"uint256"}],"stateMutability":"payable"},{"type":"function","name":"MAX_BLOCK_LOOKBACK","inputs":[],"outputs":[{"name":"","type":"uint256","internalType":"uint256"}],"stateMutability":"view"},{"type":"function","name":"bond","inputs":[],"outputs":[],"stateMutability":"payable"},{"type":"function","name":"bondAmount","inputs":[],"outputs":[{"name":"","type":"uint256","internalType":"uint256"}],"stateMutability":"view"},{"type":"function","name":"bondedExecutor","inputs":[],"outputs":[{"name":"","type":"address","internalType":"address"}],"stateMutability":"view"},{"type":"function","name":"cancelAndWithdraw","inputs":[],"outputs":[],"stateMutability":"nonpayable"},{"type":"function","name":"cancellationRequest","inputs":[],"outputs":[{"name":"","type":"bool","internalType":"bool"}],"stateMutability":"view"},{"type":"function","name":"collect","inputs":[{"name":"proof","type":"tuple","internalType":"struct EscrowNative.NativeTransferProof","components":[{"name":"blockHeader","type":"bytes","internalType":"bytes"},{"name":"transactionRlp","type":"bytes","internalType":"bytes"},{"name":"txProofNodes","type":"bytes","internalType":"bytes"},{"name":"receiptRlp","type":"bytes","internalType":"bytes"},{"name":"receiptProofNodes","type":"bytes","internalType":"bytes"},{"name":"path","type":"bytes","internalType":"bytes"}]},{"name":"targetBlockNumber","type":"uint256","internalType":"uint256"}],"outputs":[],"stateMutability":"nonpayable"},{"type":"function","name":"currentPaymentAmount","inputs":[],"outputs":[{"name":"","type":"uint256","internalType":"uint256"}],"stateMutability":"view"},{"type":"function","name":"currentRewardAmount","inputs":[],"outputs":[{"name":"","type":"uint256","internalType":"uint256"}],"stateMutability":"view"},{"type":"function","name":"executionDeadline","inputs":[],"outputs":[{"name":"","type":"uint256","internalType":"uint256"}],"stateMutability":"view"},{"type":"function","name":"expectedAmount","inputs":[],"outputs":[{"name":"","type":"uint256","internalType":"uint256"}],"stateMutability":"view"},{"type":"function","name":"expectedRecipient","inputs":[],"outputs":[{"name":"","type":"address","internalType":"address"}],"stateMutability":"view"},{"type":"function","name":"fund","inputs":[{"name":"_currentRewardAmount","type":"uint256","internalType":"uint256"},{"name":"_currentPaymentAmount","type":"uint256","internalType":"uint256"}],"outputs":[],"stateMutability":"payable"},{"type":"function","name":"funded","inputs":[],"outputs":[{"name":"","type":"bool","internalType":"bool"}],"stateMutability":"view"},{"type":"function","name":"is_bonded","inputs":[],"outputs":[{"name":"","type":"bool","internalType":"bool"}],"stateMutability":"view"},{"type":"function","name":"originalRewardAmount","inputs":[],"outputs":[{"name":"","type":"uint256","internalType":"uint256"}],"stateMutability":"view"},{"type":"function","name":"requestCancellation","inputs":[],"outputs":[],"stateMutability":"nonpayable"},{"type":"function","name":"resume","inputs":[],"outputs":[],"stateMutability":"nonpayable"},{"type":"function","name":"totalBondsDeposited","inputs":[],"outputs":[{"name":"","type":"uint256","internalType":"uint256"}],"stateMutability":"view"},{"type":"error","name":"AlreadyFunded","inputs":[]},{"type":"error","name":"AmountMismatch","inputs":[]},{"type":"error","name":"BlockHashUnavailable","inputs":[]},{"type":"error","name":"BlockHeaderMismatch","inputs":[]},{"type":"error","name":"BlockNumberMismatch","inputs":[]},{"type":"error","name":"BondActive","inputs":[]},{"type":"error","name":"CancellationRequested","inputs":[]},{"type":"error","name":"ETHTransferFailed","inputs":[]},{"type":"error","name":"ExecutorAlreadyBonded","inputs":[]},{"type":"error","name":"ExpectedRLPList","inputs":[]},{"type":"error","name":"IncorrectETHAmount","inputs":[]},{"type":"error","name":"InsufficientBond","inputs":[]},{"type":"error","name":"InvalidAddress","inputs":[]},{"type":"error","name":"InvalidNativeTransfer","inputs":[]},{"type":"error","name":"InvalidRLP","inputs":[]},{"type":"error","name":"InvalidRLPEncoding","inputs":[]},{"type":"error","name":"InvalidRLPList","inputs":[]},{"type":"error","name":"InvalidReceiptProof","inputs":[]},{"type":"error","name":"InvalidTxProof","inputs":[]},{"type":"error","name":"NoWithdrawableFunds","inputs":[]},{"type":"error","name":"NotFunded","inputs":[]},{"type":"error","name":"OnlyBondedExecutor","inputs":[]},{"type":"error","name":"OnlyDeployer","inputs":[]},{"type":"error","name":"RLPOffsetOutOfBounds","inputs":[]},{"type":"error","name":"ReceiptStatusNotSuccess","inputs":[]},{"type":"error","name":"RecipientMismatch","inputs":[]},{"type":"error","name":"TargetBlockInFuture","inputs":[]},{"type":"error","name":"TargetBlockTooOld","inputs":[]},{"type":"error","name":"TxFailed","inputs":[]},{"type":"error","name":"UnsupportedTxType","inputs":[]},{"type":"error","name":"ZeroPaymentAmount","inputs":[]},{"type":"error","name":"ZeroRewardAmount","inputs":[]}],"bytecode":{"object":"0x60e0601f611e5838819003918201601f19168301916001600160401b038311848410176101205780849260809460405283398101031261011c578051906001600160a01b038216820361011c576020810151606060408301519201519260a05260c0523360805280151580610113575b6100c1575b604051611d23908161013582396080518181816101560152818161051e015281816105de0152610690015260a0518181816103070152610630015260c0518181816102e5015261038d0152f35b8181018082116100ff5734036100f057805f5560025560015561010061ff001960075416176007555f80610074565b63201c04ab60e01b5f5260045ffd5b634e487b7160e01b5f52601160045260245ffd5b5081151561006f565b5f80fd5b634e487b7160e01b5f52604160045260245ffdfe60806040526004361015610011575f80fd5b5f3560e01c8063046f7da2146101445780631aa7c0ec1461013f57806323a8b41a1461013a5780632feef2ec14610135578063308657d71461013057806333ee5f351461012b5780633d2691bc146101265780635a4fd6451461012157806364c9ec6f1461011c5780636b892b221461011757806380f323a71461011257806381972d001461010d5780638677ab23146101085780638bd03d0a14610103578063a65e2cfd146100fe578063cb766a56146100f9578063d415b3f9146100f4578063f3a504f2146100ef5763fe03a460146100ea575f80fd5b6107b1565b61078c565b61076f565b61074b565b61067c565b61065f565b61061b565b6105cc565b6105af565b6104f4565b610427565b61040b565b6103ef565b6103d2565b6103b0565b610376565b6101cb565b6101a3565b3461019f575f36600319011261019f577f00000000000000000000000000000000000000000000000000000000000000006001600160a01b03163303610190576007805460ff19169055005b63618bbdd560e01b5f5260045ffd5b5f80fd5b3461019f575f36600319011261019f576003546040516001600160a01b039091168152602090f35b3461019f57604036600319011261019f5760043567ffffffffffffffff811161019f57806004019060c0600319823603011261019f5761021760243561021184806107ce565b9061093e565b61022a61022483806107ce565b90610aae565b602482019161026b61026761023f85876107ce565b61024f60448697939701896107ce565b60a48701979161025f898c6107ce565b949093610bb7565b1590565b610367576102676102b491608461028b61028588806107ce565b90610bde565b9161025f60648201966102ab6102a1898c6107ce565b959094018b6107ce565b9290918b6107ce565b610358576102676102c86102ce92856107ce565b90610c3f565b610349576102e26102679161032c936107ce565b907f0000000000000000000000000000000000000000000000000000000000000000917f000000000000000000000000000000000000000000000000000000000000000091610d0f565b61033a57610338610f2a565b005b633cff557560e11b5f5260045ffd5b632b96f51360e01b5f5260045ffd5b637b374dd160e01b5f5260045ffd5b63c89e37db60e01b5f5260045ffd5b3461019f575f36600319011261019f5760206040517f00000000000000000000000000000000000000000000000000000000000000008152f35b3461019f575f36600319011261019f57602060ff600754166040519015158152f35b3461019f575f36600319011261019f576020600454604051908152f35b3461019f575f36600319011261019f5760206040516101008152f35b3461019f575f36600319011261019f5760205f54604051908152f35b5f36600319011261019f5760045480151590816104ea575b506104b7575b60075460ff8160081c16156104a85760ff16610499576104636108d1565b61048a575f5460011c341061047b5761033834610f90565b63e92c469f60e01b5f5260045ffd5b63129f78e960e11b5f5260045ffd5b632479328960e01b5f5260045ffd5b636af784dd60e11b5f5260045ffd5b6005545f548181018091116104e5575f556006549081018091116104e5576006556104e0610fb8565b610445565b610886565b905042115f61043f565b3461019f575f36600319011261019f5760ff6001811960075416178060075560081c16156104a8577f00000000000000000000000000000000000000000000000000000000000000006001600160a01b0316330361019057610554610fb8565b61055c610fef565b61057361ff0019600754166007555f6001555f8055565b80156105a0575f80808093335af161058961085c565b501561059157005b63b12d13eb60e01b5f5260045ffd5b6353cd7f7960e01b5f5260045ffd5b3461019f575f36600319011261019f576020600554604051908152f35b3461019f575f36600319011261019f577f00000000000000000000000000000000000000000000000000000000000000006001600160a01b03163303610190576007805460ff19166001179055005b3461019f575f36600319011261019f576040517f00000000000000000000000000000000000000000000000000000000000000006001600160a01b03168152602090f35b3461019f575f36600319011261019f576020600154604051908152f35b604036600319011261019f576004356024357f00000000000000000000000000000000000000000000000000000000000000006001600160a01b031633036101905760075460081c60ff1661073c57811561072d57801561071e576106e181836108c4565b340361070f576106f6826106fb935f55600255565b600155565b61033861010061ff00196007541617600755565b63201c04ab60e01b5f5260045ffd5b63932ca0a360e01b5f5260045ffd5b63ea1083a760e01b5f5260045ffd5b635adf638760e01b5f5260045ffd5b3461019f575f36600319011261019f5760206107656108d1565b6040519015158152f35b3461019f575f36600319011261019f576020600254604051908152f35b3461019f575f36600319011261019f57602060ff60075460081c166040519015158152f35b3461019f575f36600319011261019f576020600654604051908152f35b903590601e198136030182121561019f570180359067ffffffffffffffff821161019f5760200191813603831361019f57565b634e487b7160e01b5f52604160045260245ffd5b6040519190601f01601f1916820167ffffffffffffffff81118382101761083b57604052565b610801565b67ffffffffffffffff811161083b57601f01601f191660200190565b3d15610881573d9061087561087083610840565b610815565b9182523d5f602084013e565b606090565b634e487b7160e01b5f52601160045260245ffd5b90600182018092116104e557565b90601582018092116104e557565b60010190816001116104e557565b919082018092116104e557565b60045480151590816108e1575090565b905042111590565b6001198101919082116104e557565b5f198101919082116104e557565b919082039182116104e557565b92919261092261087083610840565b938285528282011161019f57815f926020928387013784010152565b9061095261026760075460ff9060081c1690565b6104a8576003546001600160a01b03163314801590610a12575b610a03574383116109f4576101006109848443610906565b116109e557824080156109d65761099c368385610913565b60208151910120036109c7576109b191611001565b036109b857565b63048a12f560e11b5f5260045ffd5b63ff28378760e01b5f5260045ffd5b63bfc9f0d360e01b5f5260045ffd5b63c42a018560e01b5f5260045ffd5b63058968cf60e41b5f5260045ffd5b6337b5f20360e21b5f5260045ffd5b50610a1e6102676108d1565b61096c565b634e487b7160e01b5f52603260045260245ffd5b9015610a405790565b610a23565b90821015610a40570190565b60ff60f6199116019060ff82116104e557565b60ff607f199116019060ff82116104e557565b60ff60bf199116019060ff82116104e557565b60ff60b6199116019060ff82116104e557565b60ff166001019060ff82116104e557565b905f600360fe1b6001600160f81b0319610ad9610acb8587610a37565b356001600160f81b03191690565b1610610ba857601f60fb1b6001600160f81b0319610afa610acb8587610a37565b1610610b9f5780610b34610b2e610b29610b24610b1e610acb610b3a97898b610a45565b60f81c90565b610a51565b610a9d565b60ff1690565b906108c4565b905b5f5b60048110610b8a5750600560fd1b906001600160f81b031990610b6790610acb90859087610a45565b1603610b7b57610b769061089a565b013590565b633954003560e11b5f5260045ffd5b91610b9860019183866110b1565b9201610b3e565b50600190610b3c565b63c0098bd960e01b5f5260045ffd5b610bcd610bd592939495610bdb98973691610913565b923691610913565b90611239565b90565b90610be981836113f3565b905f5b60058110610c2a5750600560fd1b906001600160f81b031990610c1190849086610a45565b351603610b7b576001810181116104e557016001013590565b91610c3860019183866110b1565b9201610bec565b5f9082151580610cf3575b610cea575b60c060ff610c64610b1e610acb868887610a45565b1610610cdb57610b1e610acb82858560f860ff610c8e610b1e610acb839b60019d610cb89c610a45565b1610610cd25780610b34610b2e610b29610b24610b1e610acb610cb297898b610a45565b91610a45565b1603610cc357600190565b63e9dd8a9d60e01b5f5260045ffd5b610cb29061089a565b631bd5dcf760e31b5f5260045ffd5b60019150610c4f565b50608060ff610d08610b1e610acb8786610a37565b1610610c4a565b90916003905f84151580610f0e575b610ec6575b60c060ff610d38610b1e610acb858a8a610a45565b1610610cdb578060f860ff610d57610b1e610acb610d7d968b8b610a45565b1610610ebd5760ff610d76610b29610b24610b1e610acb868c8c610a45565b16906108c4565b915f905b808210610ea6575050609460ff610d9f610b1e610acb868989610a45565b1603610e97576001600160a01b03168282016001013560601c03610e8857610dc6906108a8565b91610dd8610b1e610acb858486610a45565b925f9260ff851694608086105f14610e095750505050505b03610dfa57600190565b6355e97b0d60e01b5f5260045ffd5b90919293946080145f14610e225750505050505f610df0565b610b2e610e3191939293610a64565b915f935b838510610e46575050505050610df0565b9091929394610e5760019160081b90565b610e7c610b2e610b1e610acb610e758b610e708b61089a565b6108c4565b8789610a45565b17950193929190610e35565b63c0ee95bb60e01b5f5260045ffd5b63e6c4247b60e01b5f5260045ffd5b9092610eb560019187876110b1565b930190610d81565b60ff6001610d76565b509050610ed9610b1e610acb8585610a37565b6001919060ff16808303610ef05750600491610d23565b600203610eff57600591610d23565b636fc3daa360e11b5f5260045ffd5b50608060ff610f23610b1e610acb8989610a37565b1610610d1e565b6005545f5481018091116104e55760015481018091116104e5575f808080936003546001600160601b0360a01b8116600355826005558260045561ff0019600754166007558260015582805560018060a01b03165af1610f8861085c565b501561059157565b336001600160601b0360a01b600354161760035561012c42018042116104e557600455600555565b610fc06108d1565b610fe0576001600160601b0360a01b600354166003555f6005555f600455565b639cbc1de160e01b5f5260045ffd5b60015460025481018091116104e55790565b61100b82826113f3565b915f5b6008811061109c5750611028610b1e610acb858486610a45565b925f9260ff851694608086105f1461104257505050505090565b6110539193949550610b2e90610a64565b915f935b83851061106657505050505090565b909192939461107760019160081b90565b611090610b2e610b1e610acb610e758b610e708b61089a565b17950193929190611057565b926110aa60019183856110b1565b930161100e565b91908082101561120c576110cc610b1e610acb848487610a45565b9060ff821660808110156110e757505050610bdb915061089a565b91929160b881101561110f575050610bdb9250610b2e611109610b349261089a565b92610a64565b90929060c08110156111855750610b2e61112b91949394610a8a565b915f935f915b84831061114c57505050610bdb9291610e70610e709261089a565b90919461115b60019160081b90565b61117b610b2e610b1e610acb6111748b610e708b61089a565b8888610a45565b1795019190611131565b90929060f811156111ab5750610bdb9250610b2e6111a5610b349261089a565b92610a77565b9291610b2e6111b991610a51565b915f935f915b8483106111da57505050610bdb9291610e70610e709261089a565b9091946111e960019160081b90565b611202610b2e610b1e610acb6111748b610e708b61089a565b17950191906111bf565b6318d76ae160e11b5f5260045ffd5b805115610a405760200190565b908151811015610a40570160200190565b919390929190600360fe1b6001600160f81b031961125a610acb8689610a37565b16106113e457601f60fb1b6001600160f81b031961127b610acb8689610a37565b16106113da5761129f61129a610b2e610b24610b1e610acb888b610a37565b6108b6565b9492905b945f5b8282106112b857505050505050505f90565b6112d66112cf836112ca36878a610913565b611550565b90936108c4565b96825160208401200361137857600360fe1b6113126113056112f78561121b565b516001600160f81b03191690565b6001600160f81b03191690565b10611378578590846001601f60fb1b6113306113056112f78861121b565b10156113bc575b61134181866116f7565b60118103611383575061135394611882565b94911561137857841561136c5793915b919590936112a6565b50505050505050600190565b505050505050505f90565b9093506002141590506113b05784879261139c9461173c565b94911561137857841561136c579391611363565b50505050505050505f90565b506113d561129a610b2e610b24610b1e6112f78961121b565b611337565b60019492906112a3565b63ebb47d1d60e01b5f5260045ffd5b5f600360fe1b6001600160f81b031961140f610acb8686610a37565b1610610ba857601f60fb1b6001600160f81b0319611430610acb8686610a37565b16106115025780610b34610b2e610b29610b24610b1e610acb611454978a8a610a45565b905b61a5bd461480156114f7575b61146d575b50905090565b5f5b600381106114e25750600360fe1b61148e611305610acb858786610a45565b10610ba857601f60fb1b6114a9611305610acb858786610a45565b106114d257610b2e610b29610b24610b1e610acb866114cb98610b3497610a45565b805f611467565b506114dd915061089a565b6114cb565b916114f060019185846110b1565b920161146f565b5061a5bf4614611462565b50600190611456565b60409061151782610815565b6001815291601f1901366020840137565b9061153561087083610840565b8281528092611546601f1991610840565b0190602036910137565b805182101561120c57611569610b1e6112f78484611228565b9160ff831660808110156115a25750505061158261150b565b9060f81b6001600160f81b0319165f1a61159b8261121b565b5390600190565b919392909160b881101561160c5750610b2e6115bd91610a64565b906115c782611528565b935f5b8381106115dd57505050610bdb906108b6565b806115f96112f76115f3600194610e708861089a565b85611228565b5f1a6116058289611228565b53016115ca565b60c011156116aa57610b2e61162091610a8a565b5f915f5b82811061167c575061163583611528565b945f5b84811061164f5750505090610e70610bdb926108b6565b806116696112f76115f3600194610e7089610e708a61089a565b5f1a611675828a611228565b5301611638565b9260019060081b6116a2610b2e610b1e6112f761169c89610e708961089a565b8b611228565b179301611624565b50916116b68382611997565b926116c084611528565b915f5b8581106116d1575050509190565b806116e46112f76115f3600194876108c4565b5f1a6116f08287611228565b53016116c3565b5f92915b81518110156117225761170e8183611997565b81018091116104e5576001909301926116fb565b5050565b908160011b91808304600214901517156104e557565b8394929161174a8183611550565b93906117696020611760610b1e6112f78561121b565b16151591611ac4565b9788911561180b575061177d9051876108c4565b6117878251611726565b1461179c575b505050505050505f905f905f90565b868660019282516117f9575b5050506117b6575b8061178d565b6117c9926117c3916108c4565b90611550565b50602081519101209060208151910120146117e757808080806117b0565b6117f29151906108c4565b6001915f90565b6118039350611c2f565b86865f6117a8565b61181c939495965061026792611c2f565b6118755761182d926117c3916108c4565b50908151602081145f146118555750602061184d920151925b51906108c4565b916001929190565b801561186957602061184d93012092611846565b505050505f905f905f90565b50505050505f905f905f90565b919092936118908251611726565b85101561193a5750610b1e6112f76118b2926118ac8760011c90565b90611228565b600184166119315760041c600f16915b905f925b60ff8116841061191157506118db9250611550565b50805180156119065761184d91602082036118fc576020915001519161089a565b602001209161089a565b5050505f905f905f90565b9091600161192582610b3460ff9487611997565b940193929190506118c6565b600f16916118c2565b9290509392935f915b6010831061197d576119559250611550565b50602081519101209060208151910120145f1461197457600191905f90565b5f915081908190565b9061198e81610b3460019385611997565b92019190611943565b90815181101561120c576119b1610b1e6112f78385611228565b9160ff831660808110156119c85750505050600190565b60b88110156119e357505050610b2e610b29610bdb92610a64565b60c0811015611a4f575091610b2e6119fa91610a8a565b905f925f915b838310611a175750505090610e70610bdb926108b6565b909193611a2660019160081b90565b611a45610b2e610b1e6112f7611a3f8a610e708961089a565b88611228565b1794019190611a00565b60f81115611a68575050610b2e610b29610bdb92610a77565b91610b2e611a7591610a51565b905f925f915b838310611a925750505090610e70610bdb926108b6565b909193611aa160019160081b90565b611aba610b2e610b1e6112f7611a3f8a610e708961089a565b1794019190611a7b565b90815115611c2d57611adb610b1e6112f78461121b565b6010811615611baa57611afe611af9611af48551611726565b6108f8565b611528565b9060f81b600f60f81b165f1a611b138261121b565b5360015b8351811015611ba55780611b52611b42611b39610b1e6112f76001968a611228565b60041c600f1690565b60f81b6001600160f81b03191690565b611b6b611b61611af484611726565b915f1a9185611228565b53611b92600f611b81610b1e6112f7858a611228565b1660f81b6001600160f81b03191690565b611b9e611b6183611726565b5301611b17565b509150565b50611bc0611af9611bbb8451611726565b6108e9565b60015b8351811015611ba55780611be5611b42611b39610b1e6112f76001968a611228565b611bf9611b61611bf4846108f8565b611726565b53611c0f600f611b81610b1e6112f7858a611228565b611c26611b61611c21611bf4856108f8565b61089a565b5301611bc3565b565b919091611c3d8251846108c4565b611c478251611726565b10611ce6575f5b8251811015611cdd57611c6a611c6482866108c4565b60011690565b611cbf57611c93611b39610b1e6112f7611c8d611c87868a6108c4565b60011c90565b86611228565b60ff611ca8610b2e610b1e6112f78689611228565b911603611cb757600101611c4e565b505050505f90565b600f611cd7610b1e6112f7611c8d611c87868a6108c4565b16611c93565b50505050600190565b5050505f9056fea2646970667358221220f4598e927f93dbeaa4a20f290936343400629961d598e1f51e8a971f4c36efcc64736f6c634300081e0033","linkReferences":{}},"methodIdentifiers":{"MAX_BLOCK_LOOKBACK()":"3d2691bc","bond()":"64c9ec6f","bondAmount()":"80f323a7","bondedExecutor()":"1aa7c0ec","cancelAndWithdraw()":"6b892b22","cancellationRequest()":"308657d7","collect((bytes,bytes,bytes,bytes,bytes,bytes),uint256)":"23a8b41a","currentPaymentAmount()":"8bd03d0a","currentRewardAmount()":"5a4fd645","executionDeadline()":"33ee5f35","expectedAmount()":"2feef2ec","expectedRecipient()":"8677ab23","fund(uint256,uint256)":"a65e2cfd","funded()":"f3a504f2","is_bonded()":"cb766a56","originalRewardAmount()":"d415b3f9","requestCancellation()":"81972d00","resume()":"046f7da2","totalBondsDeposited()":"fe03a460"},"storageLayout":{"storage":[{"astId":40185,"contract":"src/EscrowNative.sol:EscrowNative","label":"currentRewardAmount","offset":0,"slot":"0","type":"t_uint256"},{"astId":40187,"contract":"src/EscrowNative.sol:EscrowNative","label":"currentPaymentAmount","offset":0,"slot":"1","type":"t_uint256"},{"astId":40189,"contract":"src/EscrowNative.sol:EscrowNative","label":"originalRewardAmount","offset":0,"slot":"2","type":"t_uint256"},{"astId":40198,"contract":"src/EscrowNative.sol:EscrowNative","label":"bondedExecutor","offset":0,"slot":"3","type":"t_address"},{"astId":40200,"contract":"src/EscrowNative.sol:EscrowNative","label":"executionDeadline","offset":0,"slot":"4","type":"t_uint256"},{"astId":40202,"contract":"src/EscrowNative.sol:EscrowNative","label":"bondAmount","offset":0,"slot":"5","type":"t_uint256"},{"astId":40204,"contract":"src/EscrowNative.sol:EscrowNative","label":"totalBondsDeposited","offset":0,"slot":"6","type":"t_uint256"},{"astId":40206,"contract":"src/EscrowNative.sol:EscrowNative","label":"cancellationRequest","offset":0,"slot":"7","type":"t_bool"},{"astId":40208,"contract":"src/EscrowNative.sol:EscrowNative","label":"funded","offset":1,"slot":"7","type":"t_bool"}],"types":{"t_address":{"encoding":"inplace","label":"address","numberOfBytes":"20"},"t_bool":{"encoding":"inplace","label":"bool","numberOfBytes":"1"},"t_uint256":{"encoding":"inplace","label":"uint256","numberOfBytes":"32"}}},"id":23}