{"abi":[{"type":"constructor","inputs":[{"name":"_deployer","type":"address","internalType":"address"},{"name":"_expectedRecipient","type":"address","internalType":"address"},{"name":"_expectedAmount","type":"uint256","internalType":"uint256"},{"name":"_currentRewardAmount","type":"uint256","internalType":"uint256"},{"name":"_currentPaymentAmount","type":"uint256","internalType":"uint256"}],"stateMutability":"payable"},{"type":"function","name":"MAX_BLOCK_LOOKBACK","inputs":[],"outputs":[{"name":"","type":"uint256","internalType":"uint256"}],"stateMutability":"view"},{"type":"function","name":"bond","inputs":[],"outputs":[],"stateMutability":"payable"},{"type":"function","name":"bondAmount","inputs":[],"outputs":[{"name":"","type":"uint256","internalType":"uint256"}],"stateMutability":"view"},{"type":"function","name":"bondedExecutor","inputs":[],"outputs":[{"name":"","type":"address","internalType":"address"}],"stateMutability":"view"},{"type":"function","name":"cancelAndWithdraw","inputs":[],"outputs":[],"stateMutability":"nonpayable"},{"type":"function","name":"cancellationRequest","inputs":[],"outputs":[{"name":"","type":"bool","internalType":"bool"}],"stateMutability":"view"},{"type":"function","name":"collect","inputs":[{"name":"proof","type":"tuple","internalType":"struct EscrowNative.NativeTransferProof","components":[{"name":"blockHeader","type":"bytes","internalType":"bytes"},{"name":"transactionRlp","type":"bytes","internalType":"bytes"},{"name":"txProofNodes","type":"bytes","internalType":"bytes"},{"name":"receiptRlp","type":"bytes","internalType":"bytes"},{"name":"receiptProofNodes","type":"bytes","internalType":"bytes"},{"name":"path","type":"bytes","internalType":"bytes"}]},{"name":"targetBlockNumber","type":"uint256","internalType":"uint256"}],"outputs":[],"stateMutability":"nonpayable"},{"type":"function","name":"currentPaymentAmount","inputs":[],"outputs":[{"name":"","type":"uint256","internalType":"uint256"}],"stateMutability":"view"},{"type":"function","name":"currentRewardAmount","inputs":[],"outputs":[{"name":"","type":"uint256","internalType":"uint256"}],"stateMutability":"view"},{"type":"function","name":"deployerAddress","inputs":[],"outputs":[{"name":"","type":"address","internalType":"address"}],"stateMutability":"view"},{"type":"function","name":"executionDeadline","inputs":[],"outputs":[{"name":"","type":"uint256","internalType":"uint256"}],"stateMutability":"view"},{"type":"function","name":"expectedAmount","inputs":[],"outputs":[{"name":"","type":"uint256","internalType":"uint256"}],"stateMutability":"view"},{"type":"function","name":"expectedRecipient","inputs":[],"outputs":[{"name":"","type":"address","internalType":"address"}],"stateMutability":"view"},{"type":"function","name":"fund","inputs":[{"name":"_currentRewardAmount","type":"uint256","internalType":"uint256"},{"name":"_currentPaymentAmount","type":"uint256","internalType":"uint256"}],"outputs":[],"stateMutability":"payable"},{"type":"function","name":"funded","inputs":[],"outputs":[{"name":"","type":"bool","internalType":"bool"}],"stateMutability":"view"},{"type":"function","name":"is_bonded","inputs":[],"outputs":[{"name":"","type":"bool","internalType":"bool"}],"stateMutability":"view"},{"type":"function","name":"originalRewardAmount","inputs":[],"outputs":[{"name":"","type":"uint256","internalType":"uint256"}],"stateMutability":"view"},{"type":"function","name":"requestCancellation","inputs":[],"outputs":[],"stateMutability":"nonpayable"},{"type":"function","name":"resume","inputs":[],"outputs":[],"stateMutability":"nonpayable"},{"type":"function","name":"totalBondsDeposited","inputs":[],"outputs":[{"name":"","type":"uint256","internalType":"uint256"}],"stateMutability":"view"},{"type":"error","name":"AlreadyFunded","inputs":[]},{"type":"error","name":"AmountMismatch","inputs":[]},{"type":"error","name":"BlockHashUnavailable","inputs":[]},{"type":"error","name":"BlockHeaderMismatch","inputs":[]},{"type":"error","name":"BlockNumberMismatch","inputs":[]},{"type":"error","name":"BondActive","inputs":[]},{"type":"error","name":"CancellationRequested","inputs":[]},{"type":"error","name":"ETHTransferFailed","inputs":[]},{"type":"error","name":"ExecutorAlreadyBonded","inputs":[]},{"type":"error","name":"ExpectedRLPList","inputs":[]},{"type":"error","name":"IncorrectETHAmount","inputs":[]},{"type":"error","name":"InsufficientBond","inputs":[]},{"type":"error","name":"InvalidAddress","inputs":[]},{"type":"error","name":"InvalidNativeTransfer","inputs":[]},{"type":"error","name":"InvalidRLP","inputs":[]},{"type":"error","name":"InvalidRLPEncoding","inputs":[]},{"type":"error","name":"InvalidRLPList","inputs":[]},{"type":"error","name":"InvalidReceiptProof","inputs":[]},{"type":"error","name":"InvalidTxProof","inputs":[]},{"type":"error","name":"NoWithdrawableFunds","inputs":[]},{"type":"error","name":"NotFunded","inputs":[]},{"type":"error","name":"OnlyBondedExecutor","inputs":[]},{"type":"error","name":"OnlyDeployer","inputs":[]},{"type":"error","name":"RLPOffsetOutOfBounds","inputs":[]},{"type":"error","name":"ReceiptStatusNotSuccess","inputs":[]},{"type":"error","name":"RecipientMismatch","inputs":[]},{"type":"error","name":"TargetBlockInFuture","inputs":[]},{"type":"error","name":"TargetBlockTooOld","inputs":[]},{"type":"error","name":"TxFailed","inputs":[]},{"type":"error","name":"UnsupportedTxType","inputs":[]},{"type":"error","name":"ZeroDeployer","inputs":[]},{"type":"error","name":"ZeroPaymentAmount","inputs":[]},{"type":"error","name":"ZeroRewardAmount","inputs":[]}],"bytecode":{"object":"0x60e0601f611eeb38819003918201601f19168301916001600160401b0383118484101761014b5780849260a094604052833981010312610147576100428161015f565b9061004f6020820161015f565b60408201516060830151608090930151939091906001600160a01b038116156101385760805260a05260c0528015158061012f575b6100dd575b604051611d77908161017482396080518181816101660152818161052e015281816105ee015281816106a001526107b1015260a0518181816103170152610640015260c0518181816102f5015261039d0152f35b81810180821161011b57340361010c57805f5560025560015561010061ff001960075416176007555f80610089565b63201c04ab60e01b5f5260045ffd5b634e487b7160e01b5f52601160045260245ffd5b50811515610084565b63099c243360e31b5f5260045ffd5b5f80fd5b634e487b7160e01b5f52604160045260245ffd5b51906001600160a01b03821682036101475756fe60806040526004361015610011575f80fd5b5f3560e01c8063046f7da2146101545780631aa7c0ec1461014f57806323a8b41a1461014a5780632feef2ec14610145578063308657d71461014057806333ee5f351461013b5780633d2691bc146101365780635a4fd6451461013157806364c9ec6f1461012c5780636b892b221461012757806380f323a71461012257806381972d001461011d5780638677ab23146101185780638bd03d0a14610113578063a65e2cfd1461010e578063cb766a5614610109578063d415b3f914610104578063efdee94f146100ff578063f3a504f2146100fa5763fe03a460146100f5575f80fd5b610805565b6107e0565b61079c565b61077f565b61075b565b61068c565b61066f565b61062b565b6105dc565b6105bf565b610504565b610437565b61041b565b6103ff565b6103e2565b6103c0565b610386565b6101db565b6101b3565b346101af575f3660031901126101af577f00000000000000000000000000000000000000000000000000000000000000006001600160a01b031633036101a0576007805460ff19169055005b63618bbdd560e01b5f5260045ffd5b5f80fd5b346101af575f3660031901126101af576003546040516001600160a01b039091168152602090f35b346101af5760403660031901126101af5760043567ffffffffffffffff81116101af57806004019060c060031982360301126101af576102276024356102218480610822565b90610992565b61023a6102348380610822565b90610b02565b602482019161027b61027761024f8587610822565b61025f6044869793970189610822565b60a48701979161026f898c610822565b949093610c0b565b1590565b610377576102776102c491608461029b6102958880610822565b90610c32565b9161026f60648201966102bb6102b1898c610822565b959094018b610822565b9290918b610822565b610368576102776102d86102de9285610822565b90610c93565b610359576102f26102779161033c93610822565b907f0000000000000000000000000000000000000000000000000000000000000000917f000000000000000000000000000000000000000000000000000000000000000091610d63565b61034a57610348610f7e565b005b633cff557560e11b5f5260045ffd5b632b96f51360e01b5f5260045ffd5b637b374dd160e01b5f5260045ffd5b63c89e37db60e01b5f5260045ffd5b346101af575f3660031901126101af5760206040517f00000000000000000000000000000000000000000000000000000000000000008152f35b346101af575f3660031901126101af57602060ff600754166040519015158152f35b346101af575f3660031901126101af576020600454604051908152f35b346101af575f3660031901126101af5760206040516101008152f35b346101af575f3660031901126101af5760205f54604051908152f35b5f3660031901126101af5760045480151590816104fa575b506104c7575b60075460ff8160081c16156104b85760ff166104a957610473610925565b61049a575f5460011c341061048b5761034834610fe4565b63e92c469f60e01b5f5260045ffd5b63129f78e960e11b5f5260045ffd5b632479328960e01b5f5260045ffd5b636af784dd60e11b5f5260045ffd5b6005545f548181018091116104f5575f556006549081018091116104f5576006556104f061100c565b610455565b6108da565b905042115f61044f565b346101af575f3660031901126101af5760ff6001811960075416178060075560081c16156104b8577f00000000000000000000000000000000000000000000000000000000000000006001600160a01b031633036101a05761056461100c565b61056c611043565b61058361ff0019600754166007555f6001555f8055565b80156105b0575f80808093335af16105996108b0565b50156105a157005b63b12d13eb60e01b5f5260045ffd5b6353cd7f7960e01b5f5260045ffd5b346101af575f3660031901126101af576020600554604051908152f35b346101af575f3660031901126101af577f00000000000000000000000000000000000000000000000000000000000000006001600160a01b031633036101a0576007805460ff19166001179055005b346101af575f3660031901126101af576040517f00000000000000000000000000000000000000000000000000000000000000006001600160a01b03168152602090f35b346101af575f3660031901126101af576020600154604051908152f35b60403660031901126101af576004356024357f00000000000000000000000000000000000000000000000000000000000000006001600160a01b031633036101a05760075460081c60ff1661074c57811561073d57801561072e576106f18183610918565b340361071f576107068261070b935f55600255565b600155565b61034861010061ff00196007541617600755565b63201c04ab60e01b5f5260045ffd5b63932ca0a360e01b5f5260045ffd5b63ea1083a760e01b5f5260045ffd5b635adf638760e01b5f5260045ffd5b346101af575f3660031901126101af576020610775610925565b6040519015158152f35b346101af575f3660031901126101af576020600254604051908152f35b346101af575f3660031901126101af576040517f00000000000000000000000000000000000000000000000000000000000000006001600160a01b03168152602090f35b346101af575f3660031901126101af57602060ff60075460081c166040519015158152f35b346101af575f3660031901126101af576020600654604051908152f35b903590601e19813603018212156101af570180359067ffffffffffffffff82116101af576020019181360383136101af57565b634e487b7160e01b5f52604160045260245ffd5b6040519190601f01601f1916820167ffffffffffffffff81118382101761088f57604052565b610855565b67ffffffffffffffff811161088f57601f01601f191660200190565b3d156108d5573d906108c96108c483610894565b610869565b9182523d5f602084013e565b606090565b634e487b7160e01b5f52601160045260245ffd5b90600182018092116104f557565b90601582018092116104f557565b60010190816001116104f557565b919082018092116104f557565b6004548015159081610935575090565b905042111590565b6001198101919082116104f557565b5f198101919082116104f557565b919082039182116104f557565b9291926109766108c483610894565b93828552828201116101af57815f926020928387013784010152565b906109a661027760075460ff9060081c1690565b6104b8576003546001600160a01b03163314801590610a66575b610a5757438311610a48576101006109d8844361095a565b11610a395782408015610a2a576109f0368385610967565b6020815191012003610a1b57610a0591611055565b03610a0c57565b63048a12f560e11b5f5260045ffd5b63ff28378760e01b5f5260045ffd5b63bfc9f0d360e01b5f5260045ffd5b63c42a018560e01b5f5260045ffd5b63058968cf60e41b5f5260045ffd5b6337b5f20360e21b5f5260045ffd5b50610a72610277610925565b6109c0565b634e487b7160e01b5f52603260045260245ffd5b9015610a945790565b610a77565b90821015610a94570190565b60ff60f6199116019060ff82116104f557565b60ff607f199116019060ff82116104f557565b60ff60bf199116019060ff82116104f557565b60ff60b6199116019060ff82116104f557565b60ff166001019060ff82116104f557565b905f600360fe1b6001600160f81b0319610b2d610b1f8587610a8b565b356001600160f81b03191690565b1610610bfc57601f60fb1b6001600160f81b0319610b4e610b1f8587610a8b565b1610610bf35780610b88610b82610b7d610b78610b72610b1f610b8e97898b610a99565b60f81c90565b610aa5565b610af1565b60ff1690565b90610918565b905b5f5b60048110610bde5750600560fd1b906001600160f81b031990610bbb90610b1f90859087610a99565b1603610bcf57610bca906108ee565b013590565b633954003560e11b5f5260045ffd5b91610bec6001918386611105565b9201610b92565b50600190610b90565b63c0098bd960e01b5f5260045ffd5b610c21610c2992939495610c2f98973691610967565b923691610967565b9061128d565b90565b90610c3d8183611447565b905f5b60058110610c7e5750600560fd1b906001600160f81b031990610c6590849086610a99565b351603610bcf576001810181116104f557016001013590565b91610c8c6001918386611105565b9201610c40565b5f9082151580610d47575b610d3e575b60c060ff610cb8610b72610b1f868887610a99565b1610610d2f57610b72610b1f82858560f860ff610ce2610b72610b1f839b60019d610d0c9c610a99565b1610610d265780610b88610b82610b7d610b78610b72610b1f610d0697898b610a99565b91610a99565b1603610d1757600190565b63e9dd8a9d60e01b5f5260045ffd5b610d06906108ee565b631bd5dcf760e31b5f5260045ffd5b60019150610ca3565b50608060ff610d5c610b72610b1f8786610a8b565b1610610c9e565b90916003905f84151580610f62575b610f1a575b60c060ff610d8c610b72610b1f858a8a610a99565b1610610d2f578060f860ff610dab610b72610b1f610dd1968b8b610a99565b1610610f115760ff610dca610b7d610b78610b72610b1f868c8c610a99565b1690610918565b915f905b808210610efa575050609460ff610df3610b72610b1f868989610a99565b1603610eeb576001600160a01b03168282016001013560601c03610edc57610e1a906108fc565b91610e2c610b72610b1f858486610a99565b925f9260ff851694608086105f14610e5d5750505050505b03610e4e57600190565b6355e97b0d60e01b5f5260045ffd5b90919293946080145f14610e765750505050505f610e44565b610b82610e8591939293610ab8565b915f935b838510610e9a575050505050610e44565b9091929394610eab60019160081b90565b610ed0610b82610b72610b1f610ec98b610ec48b6108ee565b610918565b8789610a99565b17950193929190610e89565b63c0ee95bb60e01b5f5260045ffd5b63e6c4247b60e01b5f5260045ffd5b9092610f096001918787611105565b930190610dd5565b60ff6001610dca565b509050610f2d610b72610b1f8585610a8b565b6001919060ff16808303610f445750600491610d77565b600203610f5357600591610d77565b636fc3daa360e11b5f5260045ffd5b50608060ff610f77610b72610b1f8989610a8b565b1610610d72565b6005545f5481018091116104f55760015481018091116104f5575f808080936003546001600160601b0360a01b8116600355826005558260045561ff0019600754166007558260015582805560018060a01b03165af1610fdc6108b0565b50156105a157565b336001600160601b0360a01b600354161760035561012c42018042116104f557600455600555565b611014610925565b611034576001600160601b0360a01b600354166003555f6005555f600455565b639cbc1de160e01b5f5260045ffd5b60015460025481018091116104f55790565b61105f8282611447565b915f5b600881106110f0575061107c610b72610b1f858486610a99565b925f9260ff851694608086105f1461109657505050505090565b6110a79193949550610b8290610ab8565b915f935b8385106110ba57505050505090565b90919293946110cb60019160081b90565b6110e4610b82610b72610b1f610ec98b610ec48b6108ee565b179501939291906110ab565b926110fe6001918385611105565b9301611062565b91908082101561126057611120610b72610b1f848487610a99565b9060ff8216608081101561113b57505050610c2f91506108ee565b91929160b8811015611163575050610c2f9250610b8261115d610b88926108ee565b92610ab8565b90929060c08110156111d95750610b8261117f91949394610ade565b915f935f915b8483106111a057505050610c2f9291610ec4610ec4926108ee565b9091946111af60019160081b90565b6111cf610b82610b72610b1f6111c88b610ec48b6108ee565b8888610a99565b1795019190611185565b90929060f811156111ff5750610c2f9250610b826111f9610b88926108ee565b92610acb565b9291610b8261120d91610aa5565b915f935f915b84831061122e57505050610c2f9291610ec4610ec4926108ee565b90919461123d60019160081b90565b611256610b82610b72610b1f6111c88b610ec48b6108ee565b1795019190611213565b6318d76ae160e11b5f5260045ffd5b805115610a945760200190565b908151811015610a94570160200190565b919390929190600360fe1b6001600160f81b03196112ae610b1f8689610a8b565b161061143857601f60fb1b6001600160f81b03196112cf610b1f8689610a8b565b161061142e576112f36112ee610b82610b78610b72610b1f888b610a8b565b61090a565b9492905b945f5b82821061130c57505050505050505f90565b61132a6113238361131e36878a610967565b6115a4565b9093610918565b9682516020840120036113cc57600360fe1b61136661135961134b8561126f565b516001600160f81b03191690565b6001600160f81b03191690565b106113cc578590846001601f60fb1b61138461135961134b8861126f565b1015611410575b611395818661174b565b601181036113d757506113a7946118d6565b9491156113cc5784156113c05793915b919590936112fa565b50505050505050600190565b505050505050505f90565b909350600214159050611404578487926113f094611790565b9491156113cc5784156113c05793916113b7565b50505050505050505f90565b506114296112ee610b82610b78610b7261134b8961126f565b61138b565b60019492906112f7565b63ebb47d1d60e01b5f5260045ffd5b5f600360fe1b6001600160f81b0319611463610b1f8686610a8b565b1610610bfc57601f60fb1b6001600160f81b0319611484610b1f8686610a8b565b16106115565780610b88610b82610b7d610b78610b72610b1f6114a8978a8a610a99565b905b61a5bd4614801561154b575b6114c1575b50905090565b5f5b600381106115365750600360fe1b6114e2611359610b1f858786610a99565b10610bfc57601f60fb1b6114fd611359610b1f858786610a99565b1061152657610b82610b7d610b78610b72610b1f8661151f98610b8897610a99565b805f6114bb565b5061153191506108ee565b61151f565b916115446001918584611105565b92016114c3565b5061a5bf46146114b6565b506001906114aa565b60409061156b82610869565b6001815291601f1901366020840137565b906115896108c483610894565b828152809261159a601f1991610894565b0190602036910137565b8051821015611260576115bd610b7261134b848461127c565b9160ff831660808110156115f6575050506115d661155f565b9060f81b6001600160f81b0319165f1a6115ef8261126f565b5390600190565b919392909160b88110156116605750610b8261161191610ab8565b9061161b8261157c565b935f5b83811061163157505050610c2f9061090a565b8061164d61134b611647600194610ec4886108ee565b8561127c565b5f1a611659828961127c565b530161161e565b60c011156116fe57610b8261167491610ade565b5f915f5b8281106116d057506116898361157c565b945f5b8481106116a35750505090610ec4610c2f9261090a565b806116bd61134b611647600194610ec489610ec48a6108ee565b5f1a6116c9828a61127c565b530161168c565b9260019060081b6116f6610b82610b7261134b6116f089610ec4896108ee565b8b61127c565b179301611678565b509161170a83826119eb565b926117148461157c565b915f5b858110611725575050509190565b8061173861134b61164760019487610918565b5f1a611744828761127c565b5301611717565b5f92915b81518110156117765761176281836119eb565b81018091116104f55760019093019261174f565b5050565b908160011b91808304600214901517156104f557565b8394929161179e81836115a4565b93906117bd60206117b4610b7261134b8561126f565b16151591611b18565b9788911561185f57506117d1905187610918565b6117db825161177a565b146117f0575b505050505050505f905f905f90565b8686600192825161184d575b50505061180a575b806117e1565b61181d9261181791610918565b906115a4565b506020815191012090602081519101201461183b5780808080611804565b611846915190610918565b6001915f90565b6118579350611c83565b86865f6117fc565b611870939495965061027792611c83565b6118c9576118819261181791610918565b50908151602081145f146118a9575060206118a1920151925b5190610918565b916001929190565b80156118bd5760206118a19301209261189a565b505050505f905f905f90565b50505050505f905f905f90565b919092936118e4825161177a565b85101561198e5750610b7261134b611906926119008760011c90565b9061127c565b600184166119855760041c600f16915b905f925b60ff81168410611965575061192f92506115a4565b508051801561195a576118a1916020820361195057602091500151916108ee565b60200120916108ee565b5050505f905f905f90565b9091600161197982610b8860ff94876119eb565b9401939291905061191a565b600f1691611916565b9290509392935f915b601083106119d1576119a992506115a4565b50602081519101209060208151910120145f146119c857600191905f90565b5f915081908190565b906119e281610b88600193856119eb565b92019190611997565b90815181101561126057611a05610b7261134b838561127c565b9160ff83166080811015611a1c5750505050600190565b60b8811015611a3757505050610b82610b7d610c2f92610ab8565b60c0811015611aa3575091610b82611a4e91610ade565b905f925f915b838310611a6b5750505090610ec4610c2f9261090a565b909193611a7a60019160081b90565b611a99610b82610b7261134b611a938a610ec4896108ee565b8861127c565b1794019190611a54565b60f81115611abc575050610b82610b7d610c2f92610acb565b91610b82611ac991610aa5565b905f925f915b838310611ae65750505090610ec4610c2f9261090a565b909193611af560019160081b90565b611b0e610b82610b7261134b611a938a610ec4896108ee565b1794019190611acf565b90815115611c8157611b2f610b7261134b8461126f565b6010811615611bfe57611b52611b4d611b48855161177a565b61094c565b61157c565b9060f81b600f60f81b165f1a611b678261126f565b5360015b8351811015611bf95780611ba6611b96611b8d610b7261134b6001968a61127c565b60041c600f1690565b60f81b6001600160f81b03191690565b611bbf611bb5611b488461177a565b915f1a918561127c565b53611be6600f611bd5610b7261134b858a61127c565b1660f81b6001600160f81b03191690565b611bf2611bb58361177a565b5301611b6b565b509150565b50611c14611b4d611c0f845161177a565b61093d565b60015b8351811015611bf95780611c39611b96611b8d610b7261134b6001968a61127c565b611c4d611bb5611c488461094c565b61177a565b53611c63600f611bd5610b7261134b858a61127c565b611c7a611bb5611c75611c488561094c565b6108ee565b5301611c17565b565b919091611c91825184610918565b611c9b825161177a565b10611d3a575f5b8251811015611d3157611cbe611cb88286610918565b60011690565b611d1357611ce7611b8d610b7261134b611ce1611cdb868a610918565b60011c90565b8661127c565b60ff611cfc610b82610b7261134b868961127c565b911603611d0b57600101611ca2565b505050505f90565b600f611d2b610b7261134b611ce1611cdb868a610918565b16611ce7565b50505050600190565b5050505f9056fea26469706673582212208038ebddf930e6b05decddb580412f43675ddc495b10f5a3f4e52138c79ede7664736f6c634300081e0033","linkReferences":{}},"methodIdentifiers":{"MAX_BLOCK_LOOKBACK()":"3d2691bc","bond()":"64c9ec6f","bondAmount()":"80f323a7","bondedExecutor()":"1aa7c0ec","cancelAndWithdraw()":"6b892b22","cancellationRequest()":"308657d7","collect((bytes,bytes,bytes,bytes,bytes,bytes),uint256)":"23a8b41a","currentPaymentAmount()":"8bd03d0a","currentRewardAmount()":"5a4fd645","deployerAddress()":"efdee94f","executionDeadline()":"33ee5f35","expectedAmount()":"2feef2ec","expectedRecipient()":"8677ab23","fund(uint256,uint256)":"a65e2cfd","funded()":"f3a504f2","is_bonded()":"cb766a56","originalRewardAmount()":"d415b3f9","requestCancellation()":"81972d00","resume()":"046f7da2","totalBondsDeposited()":"fe03a460"},"id":23}