{"abi":[{"type":"constructor","inputs":[{"name":"_expectedRecipient","type":"address","internalType":"address"},{"name":"_expectedAmount","type":"uint256","internalType":"uint256"},{"name":"_blindedSigner","type":"address","internalType":"address"},{"name":"_currentRewardAmount","type":"uint256","internalType":"uint256"},{"name":"_currentPaymentAmount","type":"uint256","internalType":"uint256"},{"name":"_bondAmount","type":"uint256","internalType":"uint256"}],"stateMutability":"payable"},{"type":"function","name":"MAX_BLOCK_LOOKBACK","inputs":[],"outputs":[{"name":"","type":"uint256","internalType":"uint256"}],"stateMutability":"view"},{"type":"function","name":"blindedSigner","inputs":[],"outputs":[{"name":"","type":"address","internalType":"address"}],"stateMutability":"view"},{"type":"function","name":"bond","inputs":[{"name":"bondSig","type":"bytes","internalType":"bytes"}],"outputs":[],"stateMutability":"nonpayable"},{"type":"function","name":"bondPot","inputs":[],"outputs":[{"name":"","type":"uint256","internalType":"uint256"}],"stateMutability":"view"},{"type":"function","name":"bondedExecutor","inputs":[],"outputs":[{"name":"","type":"address","internalType":"address"}],"stateMutability":"view"},{"type":"function","name":"cancelAndWithdraw","inputs":[],"outputs":[],"stateMutability":"nonpayable"},{"type":"function","name":"cancellationRequest","inputs":[],"outputs":[{"name":"","type":"bool","internalType":"bool"}],"stateMutability":"view"},{"type":"function","name":"collect","inputs":[{"name":"proof","type":"tuple","internalType":"struct EscrowNative.NativeTransferProof","components":[{"name":"blockHeader","type":"bytes","internalType":"bytes"},{"name":"transactionRlp","type":"bytes","internalType":"bytes"},{"name":"txProofNodes","type":"bytes","internalType":"bytes"},{"name":"receiptRlp","type":"bytes","internalType":"bytes"},{"name":"receiptProofNodes","type":"bytes","internalType":"bytes"},{"name":"path","type":"bytes","internalType":"bytes"}]},{"name":"targetBlockNumber","type":"uint256","internalType":"uint256"}],"outputs":[],"stateMutability":"nonpayable"},{"type":"function","name":"currentPaymentAmount","inputs":[],"outputs":[{"name":"","type":"uint256","internalType":"uint256"}],"stateMutability":"view"},{"type":"function","name":"currentRewardAmount","inputs":[],"outputs":[{"name":"","type":"uint256","internalType":"uint256"}],"stateMutability":"view"},{"type":"function","name":"domainSeparator","inputs":[],"outputs":[{"name":"","type":"bytes32","internalType":"bytes32"}],"stateMutability":"view"},{"type":"function","name":"executionDeadline","inputs":[],"outputs":[{"name":"","type":"uint256","internalType":"uint256"}],"stateMutability":"view"},{"type":"function","name":"expectedAmount","inputs":[],"outputs":[{"name":"","type":"uint256","internalType":"uint256"}],"stateMutability":"view"},{"type":"function","name":"expectedRecipient","inputs":[],"outputs":[{"name":"","type":"address","internalType":"address"}],"stateMutability":"view"},{"type":"function","name":"fund","inputs":[{"name":"_currentRewardAmount","type":"uint256","internalType":"uint256"},{"name":"_currentPaymentAmount","type":"uint256","internalType":"uint256"},{"name":"_bondAmount","type":"uint256","internalType":"uint256"}],"outputs":[],"stateMutability":"payable"},{"type":"function","name":"funded","inputs":[],"outputs":[{"name":"","type":"bool","internalType":"bool"}],"stateMutability":"view"},{"type":"function","name":"is_bonded","inputs":[],"outputs":[{"name":"","type":"bool","internalType":"bool"}],"stateMutability":"view"},{"type":"function","name":"originalRewardAmount","inputs":[],"outputs":[{"name":"","type":"uint256","internalType":"uint256"}],"stateMutability":"view"},{"type":"function","name":"requestCancellation","inputs":[],"outputs":[],"stateMutability":"nonpayable"},{"type":"function","name":"resume","inputs":[],"outputs":[],"stateMutability":"nonpayable"},{"type":"error","name":"AlreadyFunded","inputs":[]},{"type":"error","name":"AmountMismatch","inputs":[]},{"type":"error","name":"BlockHashUnavailable","inputs":[]},{"type":"error","name":"BlockHeaderMismatch","inputs":[]},{"type":"error","name":"BlockNumberMismatch","inputs":[]},{"type":"error","name":"BondActive","inputs":[]},{"type":"error","name":"BondTransferFailed","inputs":[]},{"type":"error","name":"CancellationRequested","inputs":[]},{"type":"error","name":"ECDSAInvalidSignature","inputs":[]},{"type":"error","name":"ECDSAInvalidSignatureLength","inputs":[{"name":"length","type":"uint256","internalType":"uint256"}]},{"type":"error","name":"ECDSAInvalidSignatureS","inputs":[{"name":"s","type":"bytes32","internalType":"bytes32"}]},{"type":"error","name":"ETHTransferFailed","inputs":[]},{"type":"error","name":"ExecutorAlreadyBonded","inputs":[]},{"type":"error","name":"ExpectedRLPList","inputs":[]},{"type":"error","name":"IncorrectETHAmount","inputs":[]},{"type":"error","name":"InvalidAddress","inputs":[]},{"type":"error","name":"InvalidBondSignature","inputs":[]},{"type":"error","name":"InvalidNativeTransfer","inputs":[]},{"type":"error","name":"InvalidRLP","inputs":[]},{"type":"error","name":"InvalidRLPEncoding","inputs":[]},{"type":"error","name":"InvalidRLPList","inputs":[]},{"type":"error","name":"InvalidReceiptProof","inputs":[]},{"type":"error","name":"InvalidTxProof","inputs":[]},{"type":"error","name":"NoWithdrawableFunds","inputs":[]},{"type":"error","name":"NotFunded","inputs":[]},{"type":"error","name":"OnlyBondedExecutor","inputs":[]},{"type":"error","name":"OnlyDeployer","inputs":[]},{"type":"error","name":"RLPOffsetOutOfBounds","inputs":[]},{"type":"error","name":"ReceiptStatusNotSuccess","inputs":[]},{"type":"error","name":"RecipientMismatch","inputs":[]},{"type":"error","name":"TargetBlockInFuture","inputs":[]},{"type":"error","name":"TargetBlockTooOld","inputs":[]},{"type":"error","name":"TxFailed","inputs":[]},{"type":"error","name":"UnsupportedTxType","inputs":[]},{"type":"error","name":"ZeroBondAmount","inputs":[]},{"type":"error","name":"ZeroPaymentAmount","inputs":[]},{"type":"error","name":"ZeroRewardAmount","inputs":[]}],"bytecode":{"object":"0x6101208060405260c0816122c8803803809161001b82856101e0565b8339810103126101dc5761002e81610217565b90602081015161004060408301610217565b60608301519160a060808501519401519460e0526101005260c0523360a05260405160208101907f8b73c3c69bb8fe3d512ecc4cf759cc79239f7b179b0ffacaa9a75d522b39400f82527fa222588f33d25c694dfae6965a4e2410aa5c3f8d5d6c2f0a3100d528225c8a0860408201527fc89efdaa54c0f20c7adf612882df0950f5a951637e0307cdcb4c672f298b8bc660608201524660808201523060a082015260a081526100f160c0826101e0565b519020608052801515806101d3575b610173575b60405161207b908161024d82396080518181816108dc01526116a1015260a051818181610166015281816101d2015281816106c5015261077d015260c0518181816105ca0152610830015260e05181818161041201526107cf0152610100518181816103f001526104960152f35b82156101c45761018c83610187848461022b565b61022b565b34036101b557805f5560025560015560055561010061ff001960065416176006555f8080610105565b63201c04ab60e01b5f5260045ffd5b636edb2d2f60e11b5f5260045ffd5b50811515610100565b5f80fd5b601f909101601f19168101906001600160401b0382119082101761020357604052565b634e487b7160e01b5f52604160045260245ffd5b51906001600160a01b03821682036101dc57565b9190820180921161023857565b634e487b7160e01b5f52601160045260245ffdfe60806040526004361015610011575f80fd5b5f3560e01c8063046f7da214610154578063111d7d501461014f5780631aa7c0ec1461014a57806323a8b41a146101455780632feef2ec14610140578063308657d71461013b57806333ee5f35146101365780633d2691bc146101315780635a4fd6451461012c5780635c56f7ce146101275780636332cd85146101225780636b892b221461011d57806381972d00146101185780638677ab23146101135780638bd03d0a1461010e578063a967d93214610109578063cb766a5614610104578063d415b3f9146100ff578063f3a504f2146100fa5763f698da25146100f5575f80fd5b6108c5565b6108a0565b610883565b61085f565b61081b565b6107fe565b6107ba565b61076b565b61069b565b61067e565b610530565b610514565b6104f8565b6104db565b6104b9565b61047f565b6102d6565b6102ae565b6101b3565b346101af575f3660031901126101af577f00000000000000000000000000000000000000000000000000000000000000006001600160a01b031633036101a0576006805460ff19169055005b63618bbdd560e01b5f5260045ffd5b5f80fd5b60603660031901126101af576024356044356004356001600160a01b037f00000000000000000000000000000000000000000000000000000000000000001633036101a05760065460081c60ff1661029f5780156102905782156102815781156102725761022a826102258584610942565b610942565b34036102635761024d9261024382610248935f55600255565b600155565b600555565b61026161010061ff00196006541617600655565b005b63201c04ab60e01b5f5260045ffd5b636edb2d2f60e11b5f5260045ffd5b63932ca0a360e01b5f5260045ffd5b63ea1083a760e01b5f5260045ffd5b635adf638760e01b5f5260045ffd5b346101af575f3660031901126101af576003546040516001600160a01b039091168152602090f35b346101af5760403660031901126101af5760043567ffffffffffffffff81116101af57806004019060c060031982360301126101af5761032260243561031c848061094f565b90610a80565b61033561032f838061094f565b90610bf0565b602482019161037661037261034a858761094f565b61035a604486979397018961094f565b60a48701979161036a898c61094f565b949093610cf9565b1590565b610470576103726103bf916084610396610390888061094f565b90610d20565b9161036a60648201966103b66103ac898c61094f565b959094018b61094f565b9290918b61094f565b610461576103726103d36103d9928561094f565b90610d81565b610452576103ed610372916104379361094f565b907f0000000000000000000000000000000000000000000000000000000000000000917f000000000000000000000000000000000000000000000000000000000000000091610e51565b61044357610261611067565b633cff557560e11b5f5260045ffd5b632b96f51360e01b5f5260045ffd5b637b374dd160e01b5f5260045ffd5b63c89e37db60e01b5f5260045ffd5b346101af575f3660031901126101af5760206040517f00000000000000000000000000000000000000000000000000000000000000008152f35b346101af575f3660031901126101af57602060ff600654166040519015158152f35b346101af575f3660031901126101af576020600454604051908152f35b346101af575f3660031901126101af5760206040516101008152f35b346101af575f3660031901126101af5760205f54604051908152f35b346101af5760203660031901126101af5760043567ffffffffffffffff81116101af57366023820112156101af57806004013567ffffffffffffffff81116101af5736602482840101116101af576004548015159081610674575b50610667575b60065460ff8160081c16156106585760ff16610649576105af610a08565b61063a5760246105c0920133611639565b6001600160a01b037f0000000000000000000000000000000000000000000000000000000000000000811691160361062c576105fa6110c2565b5f80808060055461060a5f600555565b335af16106156109d9565b501561061d57005b6383e6cc6b60e01b5f5260045ffd5b62b8406360e61b5f5260045ffd5b63129f78e960e11b5f5260045ffd5b632479328960e01b5f5260045ffd5b636af784dd60e11b5f5260045ffd5b61066f6110ec565b610591565b905042115f61058b565b346101af575f3660031901126101af576020600554604051908152f35b346101af575f3660031901126101af5760ff6001811960065416178060065560081c1615610658577f00000000000000000000000000000000000000000000000000000000000000006001600160a01b031633036101a0576106fb6110ec565b61070f61070661111d565b60055490610942565b61072661ff0019600654166006555f6001555f8055565b61072f5f600555565b801561075c575f80808093335af16107456109d9565b501561074d57005b63b12d13eb60e01b5f5260045ffd5b6353cd7f7960e01b5f5260045ffd5b346101af575f3660031901126101af577f00000000000000000000000000000000000000000000000000000000000000006001600160a01b031633036101a0576006805460ff19166001179055005b346101af575f3660031901126101af576040517f00000000000000000000000000000000000000000000000000000000000000006001600160a01b03168152602090f35b346101af575f3660031901126101af576020600154604051908152f35b346101af575f3660031901126101af576040517f00000000000000000000000000000000000000000000000000000000000000006001600160a01b03168152602090f35b346101af575f3660031901126101af576020610879610a08565b6040519015158152f35b346101af575f3660031901126101af576020600254604051908152f35b346101af575f3660031901126101af57602060ff60065460081c166040519015158152f35b346101af575f3660031901126101af5760206040517f00000000000000000000000000000000000000000000000000000000000000008152f35b634e487b7160e01b5f52601160045260245ffd5b906001820180921161092157565b6108ff565b906015820180921161092157565b600101908160011161092157565b9190820180921161092157565b903590601e19813603018212156101af570180359067ffffffffffffffff82116101af576020019181360383136101af57565b634e487b7160e01b5f52604160045260245ffd5b90601f8019910116810190811067ffffffffffffffff8211176109b857604052565b610982565b67ffffffffffffffff81116109b857601f01601f191660200190565b3d15610a03573d906109ea826109bd565b916109f86040519384610996565b82523d5f602084013e565b606090565b6004548015159081610a18575090565b905042111590565b60011981019190821161092157565b5f1981019190821161092157565b9190820391821161092157565b929192610a56826109bd565b91610a646040519384610996565b8294818452818301116101af578281602093845f960137010152565b90610a9461037260065460ff9060081c1690565b610658576003546001600160a01b03163314801590610b54575b610b4557438311610b3657610100610ac68443610a3d565b11610b275782408015610b1857610ade368385610a4a565b6020815191012003610b0957610af39161112f565b03610afa57565b63048a12f560e11b5f5260045ffd5b63ff28378760e01b5f5260045ffd5b63bfc9f0d360e01b5f5260045ffd5b63c42a018560e01b5f5260045ffd5b63058968cf60e41b5f5260045ffd5b6337b5f20360e21b5f5260045ffd5b50610b60610372610a08565b610aae565b634e487b7160e01b5f52603260045260245ffd5b9015610b825790565b610b65565b90821015610b82570190565b60ff60f6199116019060ff821161092157565b60ff607f199116019060ff821161092157565b60ff60bf199116019060ff821161092157565b60ff60b6199116019060ff821161092157565b60ff166001019060ff821161092157565b905f600360fe1b6001600160f81b0319610c1b610c0d8587610b79565b356001600160f81b03191690565b1610610cea57601f60fb1b6001600160f81b0319610c3c610c0d8587610b79565b1610610ce15780610c76610c70610c6b610c66610c60610c0d610c7c97898b610b87565b60f81c90565b610b93565b610bdf565b60ff1690565b90610942565b905b5f5b60048110610ccc5750600560fd1b906001600160f81b031990610ca990610c0d90859087610b87565b1603610cbd57610cb890610913565b013590565b633954003560e11b5f5260045ffd5b91610cda60019183866111df565b9201610c80565b50600190610c7e565b63c0098bd960e01b5f5260045ffd5b610d0f610d1792939495610d1d98973691610a4a565b923691610a4a565b90611367565b90565b90610d2b8183611521565b905f5b60058110610d6c5750600560fd1b906001600160f81b031990610d5390849086610b87565b351603610cbd5760018101811161092157016001013590565b91610d7a60019183866111df565b9201610d2e565b5f9082151580610e35575b610e2c575b60c060ff610da6610c60610c0d868887610b87565b1610610e1d57610c60610c0d82858560f860ff610dd0610c60610c0d839b60019d610dfa9c610b87565b1610610e145780610c76610c70610c6b610c66610c60610c0d610df497898b610b87565b91610b87565b1603610e0557600190565b63e9dd8a9d60e01b5f5260045ffd5b610df490610913565b631bd5dcf760e31b5f5260045ffd5b60019150610d91565b50608060ff610e4a610c60610c0d8786610b79565b1610610d8c565b90916003905f8415158061104b575b611003575b60c060ff610e7a610c60610c0d858a8a610b87565b1610610e1d578060f860ff610e99610c60610c0d610ebf968b8b610b87565b1610610ffa5760ff610eb8610c6b610c66610c60610c0d868c8c610b87565b1690610942565b915f905b808210610fe3575050609460ff610ee1610c60610c0d868989610b87565b1603610fd4576001600160a01b03168282016001013560601c03610fc557610f0890610926565b91610f1a610c60610c0d858486610b87565b925f9260ff851694608086105f14610f4b5750505050505b03610f3c57600190565b6355e97b0d60e01b5f5260045ffd5b90919293946080145f14610f645750505050505f610f32565b610c70610f7391939293610ba6565b915f935b838510610f88575050505050610f32565b9091929394610f9960019160081b90565b610fb9610c70610c60610c0d610fb28b6102258b610913565b8789610b87565b17950193929190610f77565b63c0ee95bb60e01b5f5260045ffd5b63e6c4247b60e01b5f5260045ffd5b9092610ff260019187876111df565b930190610ec3565b60ff6001610eb8565b509050611016610c60610c0d8585610b79565b6001919060ff1680830361102d5750600491610e65565b60020361103c57600591610e65565b636fc3daa360e11b5f5260045ffd5b50608060ff611060610c60610c0d8989610b79565b1610610e60565b5f546001548101809111610921575f808080936003546bffffffffffffffffffffffff60a01b81166003558260045561ff0019600654166006558260015582805560018060a01b03165af16110ba6109d9565b501561074d57565b336bffffffffffffffffffffffff60a01b600354161760035561012c420180421161092157600455565b6110f4610a08565b61110e57600380546001600160a01b03191690555f600455565b639cbc1de160e01b5f5260045ffd5b60015460025481018091116109215790565b6111398282611521565b915f5b600881106111ca5750611156610c60610c0d858486610b87565b925f9260ff851694608086105f1461117057505050505090565b6111819193949550610c7090610ba6565b915f935b83851061119457505050505090565b90919293946111a560019160081b90565b6111be610c70610c60610c0d610fb28b6102258b610913565b17950193929190611185565b926111d860019183856111df565b930161113c565b91908082101561133a576111fa610c60610c0d848487610b87565b9060ff8216608081101561121557505050610d1d9150610913565b91929160b881101561123d575050610d1d9250610c70611237610c7692610913565b92610ba6565b90929060c08110156112b35750610c7061125991949394610bcc565b915f935f915b84831061127a57505050610d1d929161022561022592610913565b90919461128960019160081b90565b6112a9610c70610c60610c0d6112a28b6102258b610913565b8888610b87565b179501919061125f565b90929060f811156112d95750610d1d9250610c706112d3610c7692610913565b92610bb9565b9291610c706112e791610b93565b915f935f915b84831061130857505050610d1d929161022561022592610913565b90919461131760019160081b90565b611330610c70610c60610c0d6112a28b6102258b610913565b17950191906112ed565b6318d76ae160e11b5f5260045ffd5b805115610b825760200190565b908151811015610b82570160200190565b919390929190600360fe1b6001600160f81b0319611388610c0d8689610b79565b161061151257601f60fb1b6001600160f81b03196113a9610c0d8689610b79565b1610611508576113cd6113c8610c70610c66610c60610c0d888b610b79565b610934565b9492905b945f5b8282106113e657505050505050505f90565b6114046113fd836113f836878a610a4a565b611747565b9093610942565b9682516020840120036114a657600360fe1b61144061143361142585611349565b516001600160f81b03191690565b6001600160f81b03191690565b106114a6578590846001601f60fb1b61145e61143361142588611349565b10156114ea575b61146f81866118ee565b601181036114b1575061148194611a79565b9491156114a657841561149a5793915b919590936113d4565b50505050505050600190565b505050505050505f90565b9093506002141590506114de578487926114ca94611933565b9491156114a657841561149a579391611491565b50505050505050505f90565b506115036113c8610c70610c66610c6061142589611349565b611465565b60019492906113d1565b63ebb47d1d60e01b5f5260045ffd5b5f600360fe1b6001600160f81b031961153d610c0d8686610b79565b1610610cea57601f60fb1b6001600160f81b031961155e610c0d8686610b79565b16106116305780610c76610c70610c6b610c66610c60610c0d611582978a8a610b87565b905b61a5bd46148015611625575b61159b575b50905090565b5f5b600381106116105750600360fe1b6115bc611433610c0d858786610b87565b10610cea57601f60fb1b6115d7611433610c0d858786610b87565b1061160057610c70610c6b610c66610c60610c0d866115f998610c7697610b87565b805f611595565b5061160b9150610913565b6115f9565b9161161e60019185846111df565b920161159d565b5061a5bf4614611590565b50600190611584565b916116e46116ea92610d1d9460405160208101917f017ab2ce48f3ed2b84d1da9d31a578e8a2f60972b9bfce11127c1725944faa11835260018060a01b031660408201526040815261168c606082610996565b519020604051602081019161190160f01b83527f000000000000000000000000000000000000000000000000000000000000000060228301526042820152604281526116d9606282610996565b519020923691610a4a565b90611ee4565b90929192611f3c565b604080519091906117048382610996565b6001815291601f1901366020840137565b9061171f826109bd565b61172c6040519182610996565b828152809261173d601f19916109bd565b0190602036910137565b805182101561133a57611760610c606114258484611356565b9160ff83166080811015611799575050506117796116f3565b9060f81b6001600160f81b0319165f1a61179282611349565b5390600190565b919392909160b88110156118035750610c706117b491610ba6565b906117be82611715565b935f5b8381106117d457505050610d1d90610934565b806117f06114256117ea60019461022588610913565b85611356565b5f1a6117fc8289611356565b53016117c1565b60c011156118a157610c7061181791610bcc565b5f915f5b828110611873575061182c83611715565b945f5b8481106118465750505090610225610d1d92610934565b806118606114256117ea600194610225896102258a610913565b5f1a61186c828a611356565b530161182f565b9260019060081b611899610c70610c606114256118938961022589610913565b8b611356565b17930161181b565b50916118ad8382611b8e565b926118b784611715565b915f5b8581106118c8575050509190565b806118db6114256117ea60019487610942565b5f1a6118e78287611356565b53016118ba565b5f92915b8151811015611919576119058183611b8e565b8101809111610921576001909301926118f2565b5050565b908160011b918083046002149015171561092157565b839492916119418183611747565b93906119606020611957610c6061142585611349565b16151591611cbb565b97889115611a025750611974905187610942565b61197e825161191d565b14611993575b505050505050505f905f905f90565b868660019282516119f0575b5050506119ad575b80611984565b6119c0926119ba91610942565b90611747565b50602081519101209060208151910120146119de57808080806119a7565b6119e9915190610942565b6001915f90565b6119fa9350611e26565b86865f61199f565b611a13939495965061037292611e26565b611a6c57611a24926119ba91610942565b50908151602081145f14611a4c57506020611a44920151925b5190610942565b916001929190565b8015611a60576020611a4493012092611a3d565b505050505f905f905f90565b50505050505f905f905f90565b91909293611a87825161191d565b851015611b315750610c60611425611aa992611aa38760011c90565b90611356565b60018416611b285760041c600f16915b905f925b60ff81168410611b085750611ad29250611747565b5080518015611afd57611a449160208203611af35760209150015191610913565b6020012091610913565b5050505f905f905f90565b90916001611b1c82610c7660ff9487611b8e565b94019392919050611abd565b600f1691611ab9565b9290509392935f915b60108310611b7457611b4c9250611747565b50602081519101209060208151910120145f14611b6b57600191905f90565b5f915081908190565b90611b8581610c7660019385611b8e565b92019190611b3a565b90815181101561133a57611ba8610c606114258385611356565b9160ff83166080811015611bbf5750505050600190565b60b8811015611bda57505050610c70610c6b610d1d92610ba6565b60c0811015611c46575091610c70611bf191610bcc565b905f925f915b838310611c0e5750505090610225610d1d92610934565b909193611c1d60019160081b90565b611c3c610c70610c60611425611c368a61022589610913565b88611356565b1794019190611bf7565b60f81115611c5f575050610c70610c6b610d1d92610bb9565b91610c70611c6c91610b93565b905f925f915b838310611c895750505090610225610d1d92610934565b909193611c9860019160081b90565b611cb1610c70610c60611425611c368a61022589610913565b1794019190611c72565b90815115611e2457611cd2610c6061142584611349565b6010811615611da157611cf5611cf0611ceb855161191d565b610a2f565b611715565b9060f81b600f60f81b165f1a611d0a82611349565b5360015b8351811015611d9c5780611d49611d39611d30610c606114256001968a611356565b60041c600f1690565b60f81b6001600160f81b03191690565b611d62611d58611ceb8461191d565b915f1a9185611356565b53611d89600f611d78610c60611425858a611356565b1660f81b6001600160f81b03191690565b611d95611d588361191d565b5301611d0e565b509150565b50611db7611cf0611db2845161191d565b610a20565b60015b8351811015611d9c5780611ddc611d39611d30610c606114256001968a611356565b611df0611d58611deb84610a2f565b61191d565b53611e06600f611d78610c60611425858a611356565b611e1d611d58611e18611deb85610a2f565b610913565b5301611dba565b565b919091611e34825184610942565b611e3e825161191d565b10611edd575f5b8251811015611ed457611e61611e5b8286610942565b60011690565b611eb657611e8a611d30610c60611425611e84611e7e868a610942565b60011c90565b86611356565b60ff611e9f610c70610c606114258689611356565b911603611eae57600101611e45565b505050505f90565b600f611ece610c60611425611e84611e7e868a610942565b16611e8a565b50505050600190565b5050505f90565b8151919060418303611f1457611f0d9250602082015190606060408401519301515f1a90611fb8565b9192909190565b50505f9160029190565b60041115611f2857565b634e487b7160e01b5f52602160045260245ffd5b611f4581611f1e565b80611f4e575050565b611f5781611f1e565b60018103611f6e5763f645eedf60e01b5f5260045ffd5b611f7781611f1e565b60028103611f92575063fce698f760e01b5f5260045260245ffd5b80611f9e600392611f1e565b14611fa65750565b6335e2f38360e21b5f5260045260245ffd5b91907f7fffffffffffffffffffffffffffffff5d576e7357a4501ddfe92f46681b20a0841161203a579160209360809260ff5f9560405194855216868401526040830152606082015282805260015afa1561202f575f516001600160a01b0381161561202557905f905f90565b505f906001905f90565b6040513d5f823e3d90fd5b5050505f916003919056fea264697066735822122054edd4146a7197c5ff6189949cf135658d59821ec109dae8085fa65ecf0a9a0d64736f6c634300081e0033","linkReferences":{}},"methodIdentifiers":{"MAX_BLOCK_LOOKBACK()":"3d2691bc","blindedSigner()":"a967d932","bond(bytes)":"5c56f7ce","bondPot()":"6332cd85","bondedExecutor()":"1aa7c0ec","cancelAndWithdraw()":"6b892b22","cancellationRequest()":"308657d7","collect((bytes,bytes,bytes,bytes,bytes,bytes),uint256)":"23a8b41a","currentPaymentAmount()":"8bd03d0a","currentRewardAmount()":"5a4fd645","domainSeparator()":"f698da25","executionDeadline()":"33ee5f35","expectedAmount()":"2feef2ec","expectedRecipient()":"8677ab23","fund(uint256,uint256,uint256)":"111d7d50","funded()":"f3a504f2","is_bonded()":"cb766a56","originalRewardAmount()":"d415b3f9","requestCancellation()":"81972d00","resume()":"046f7da2"},"id":2}