{"abi":[{"type":"constructor","inputs":[{"name":"_expectedRecipient","type":"address","internalType":"address"},{"name":"_expectedAmount","type":"uint256","internalType":"uint256"},{"name":"_blindedSigner","type":"address","internalType":"address"},{"name":"_currentRewardAmount","type":"uint256","internalType":"uint256"},{"name":"_bondAmount","type":"uint256","internalType":"uint256"}],"stateMutability":"payable"},{"type":"function","name":"MAX_BLOCK_LOOKBACK","inputs":[],"outputs":[{"name":"","type":"uint256","internalType":"uint256"}],"stateMutability":"view"},{"type":"function","name":"blindedSigner","inputs":[],"outputs":[{"name":"","type":"address","internalType":"address"}],"stateMutability":"view"},{"type":"function","name":"bond","inputs":[{"name":"bondSig","type":"bytes","internalType":"bytes"}],"outputs":[],"stateMutability":"nonpayable"},{"type":"function","name":"bondPot","inputs":[],"outputs":[{"name":"","type":"uint256","internalType":"uint256"}],"stateMutability":"view"},{"type":"function","name":"bondStartBlock","inputs":[],"outputs":[{"name":"","type":"uint256","internalType":"uint256"}],"stateMutability":"view"},{"type":"function","name":"bondedExecutor","inputs":[],"outputs":[{"name":"","type":"address","internalType":"address"}],"stateMutability":"view"},{"type":"function","name":"cancelAndWithdraw","inputs":[],"outputs":[],"stateMutability":"nonpayable"},{"type":"function","name":"cancellationRequest","inputs":[],"outputs":[{"name":"","type":"bool","internalType":"bool"}],"stateMutability":"view"},{"type":"function","name":"collect","inputs":[{"name":"proof","type":"tuple","internalType":"struct EscrowNative.NativeTransferProof","components":[{"name":"blockHeader","type":"bytes","internalType":"bytes"},{"name":"transactionRlp","type":"bytes","internalType":"bytes"},{"name":"txProofNodes","type":"bytes","internalType":"bytes"},{"name":"receiptRlp","type":"bytes","internalType":"bytes"},{"name":"receiptProofNodes","type":"bytes","internalType":"bytes"},{"name":"path","type":"bytes","internalType":"bytes"}]},{"name":"targetBlockNumber","type":"uint256","internalType":"uint256"}],"outputs":[],"stateMutability":"nonpayable"},{"type":"function","name":"currentPaymentAmount","inputs":[],"outputs":[{"name":"","type":"uint256","internalType":"uint256"}],"stateMutability":"view"},{"type":"function","name":"currentRewardAmount","inputs":[],"outputs":[{"name":"","type":"uint256","internalType":"uint256"}],"stateMutability":"view"},{"type":"function","name":"domainSeparator","inputs":[],"outputs":[{"name":"","type":"bytes32","internalType":"bytes32"}],"stateMutability":"view"},{"type":"function","name":"executionDeadline","inputs":[],"outputs":[{"name":"","type":"uint256","internalType":"uint256"}],"stateMutability":"view"},{"type":"function","name":"expectedAmount","inputs":[],"outputs":[{"name":"","type":"uint256","internalType":"uint256"}],"stateMutability":"view"},{"type":"function","name":"expectedRecipient","inputs":[],"outputs":[{"name":"","type":"address","internalType":"address"}],"stateMutability":"view"},{"type":"function","name":"fund","inputs":[{"name":"_currentRewardAmount","type":"uint256","internalType":"uint256"},{"name":"_bondAmount","type":"uint256","internalType":"uint256"}],"outputs":[],"stateMutability":"payable"},{"type":"function","name":"funded","inputs":[],"outputs":[{"name":"","type":"bool","internalType":"bool"}],"stateMutability":"view"},{"type":"function","name":"is_bonded","inputs":[],"outputs":[{"name":"","type":"bool","internalType":"bool"}],"stateMutability":"view"},{"type":"function","name":"originalRewardAmount","inputs":[],"outputs":[{"name":"","type":"uint256","internalType":"uint256"}],"stateMutability":"view"},{"type":"function","name":"requestCancellation","inputs":[],"outputs":[],"stateMutability":"nonpayable"},{"type":"function","name":"resume","inputs":[],"outputs":[],"stateMutability":"nonpayable"},{"type":"error","name":"AlreadyFunded","inputs":[]},{"type":"error","name":"AmountMismatch","inputs":[]},{"type":"error","name":"BlockHashUnavailable","inputs":[]},{"type":"error","name":"BlockHeaderMismatch","inputs":[]},{"type":"error","name":"BlockNumberMismatch","inputs":[]},{"type":"error","name":"BondActive","inputs":[]},{"type":"error","name":"BondTransferFailed","inputs":[]},{"type":"error","name":"CancellationRequested","inputs":[]},{"type":"error","name":"ECDSAInvalidSignature","inputs":[]},{"type":"error","name":"ECDSAInvalidSignatureLength","inputs":[{"name":"length","type":"uint256","internalType":"uint256"}]},{"type":"error","name":"ECDSAInvalidSignatureS","inputs":[{"name":"s","type":"bytes32","internalType":"bytes32"}]},{"type":"error","name":"ETHTransferFailed","inputs":[]},{"type":"error","name":"ExecutorAlreadyBonded","inputs":[]},{"type":"error","name":"ExpectedRLPList","inputs":[]},{"type":"error","name":"IncorrectETHAmount","inputs":[]},{"type":"error","name":"InvalidAddress","inputs":[]},{"type":"error","name":"InvalidBondSignature","inputs":[]},{"type":"error","name":"InvalidNativeTransfer","inputs":[]},{"type":"error","name":"InvalidRLP","inputs":[]},{"type":"error","name":"InvalidRLPEncoding","inputs":[]},{"type":"error","name":"InvalidRLPList","inputs":[]},{"type":"error","name":"InvalidReceiptProof","inputs":[]},{"type":"error","name":"InvalidTxProof","inputs":[]},{"type":"error","name":"NoWithdrawableFunds","inputs":[]},{"type":"error","name":"NotFunded","inputs":[]},{"type":"error","name":"OnlyBondedExecutor","inputs":[]},{"type":"error","name":"OnlyDeployer","inputs":[]},{"type":"error","name":"ProofBeforeBond","inputs":[]},{"type":"error","name":"RLPOffsetOutOfBounds","inputs":[]},{"type":"error","name":"ReceiptStatusNotSuccess","inputs":[]},{"type":"error","name":"RecipientMismatch","inputs":[]},{"type":"error","name":"TargetBlockInFuture","inputs":[]},{"type":"error","name":"TargetBlockTooOld","inputs":[]},{"type":"error","name":"TxFailed","inputs":[]},{"type":"error","name":"UnsupportedTxType","inputs":[]},{"type":"error","name":"ZeroBlindedSigner","inputs":[]},{"type":"error","name":"ZeroBondAmount","inputs":[]},{"type":"error","name":"ZeroRewardAmount","inputs":[]}],"bytecode":{"object":"0x6101208060405260a081612331803803809161001b82856101f1565b8339810103126101ed5761002e81610228565b9060208101519061004160408201610228565b6060820151608090920151936001600160a01b038216156101de5760e052826101005260c0523360a05260405160208101907f8b73c3c69bb8fe3d512ecc4cf759cc79239f7b179b0ffacaa9a75d522b39400f82527fa222588f33d25c694dfae6965a4e2410aa5c3f8d5d6c2f0a3100d528225c8a0860408201527fc89efdaa54c0f20c7adf612882df0950f5a951637e0307cdcb4c672f298b8bc660608201524660808201523060a082015260a081526100fd60c0826101f1565b5190206080528061017e575b6040516120d3908161025e823960805181818161091701526116f9015260a051818181610176015281816105dc01528181610698015261074a015260c0518181816104e1015261084e015260e05181818161032701526106ea015261010051818181610305015281816103ad01526107930152f35b82156101cf5761019783610192848461023c565b61023c565b34036101c057805f5560025560015560065561010061ff001960075416176007555f8080610109565b63201c04ab60e01b5f5260045ffd5b636edb2d2f60e11b5f5260045ffd5b635f39711760e11b5f5260045ffd5b5f80fd5b601f909101601f19168101906001600160401b0382119082101761021457604052565b634e487b7160e01b5f52604160045260245ffd5b51906001600160a01b03821682036101ed57565b9190820180921161024957565b634e487b7160e01b5f52601160045260245ffdfe60806040526004361015610011575f80fd5b5f3560e01c8063046f7da2146101645780631aa7c0ec1461015f57806323a8b41a1461015a5780632feef2ec14610155578063308657d71461015057806333ee5f351461014b5780633d2691bc146101465780635a4fd645146101415780635c56f7ce1461013c5780636332cd85146101375780636b892b221461013257806381972d001461012d5780638677ab23146101285780638bd03d0a14610123578063a65e2cfd1461011e578063a967d93214610119578063b8740ffb14610114578063cb766a561461010f578063d415b3f91461010a578063f3a504f2146101055763f698da2514610100575f80fd5b610900565b6108db565b6108be565b61089a565b61087d565b610839565b610736565b610719565b6106d5565b610686565b6105b2565b610595565b610447565b61042b565b61040f565b6103f2565b6103d0565b610396565b6101eb565b6101c3565b346101bf575f3660031901126101bf577f00000000000000000000000000000000000000000000000000000000000000006001600160a01b031633036101b0576007805460ff19169055005b63618bbdd560e01b5f5260045ffd5b5f80fd5b346101bf575f3660031901126101bf576003546040516001600160a01b039091168152602090f35b346101bf5760403660031901126101bf5760043567ffffffffffffffff81116101bf57806004019060c060031982360301126101bf57610237602435610231848061093a565b90610abb565b61024a610244838061093a565b90610c44565b602482019161028b61028761025f858761093a565b61026f604486979397018961093a565b60a48701979161027f898c61093a565b949093610d4d565b1590565b610387576102876102d49160846102ab6102a5888061093a565b90610d74565b9161027f60648201966102cb6102c1898c61093a565b959094018b61093a565b9290918b61093a565b610378576102876102e86102ee928561093a565b90610dd5565b610369576103026102879161034c9361093a565b907f0000000000000000000000000000000000000000000000000000000000000000917f000000000000000000000000000000000000000000000000000000000000000091610ea5565b61035a576103586110bb565b005b633cff557560e11b5f5260045ffd5b632b96f51360e01b5f5260045ffd5b637b374dd160e01b5f5260045ffd5b63c89e37db60e01b5f5260045ffd5b346101bf575f3660031901126101bf5760206040517f00000000000000000000000000000000000000000000000000000000000000008152f35b346101bf575f3660031901126101bf57602060ff600754166040519015158152f35b346101bf575f3660031901126101bf576020600454604051908152f35b346101bf575f3660031901126101bf5760206040516101008152f35b346101bf575f3660031901126101bf5760205f54604051908152f35b346101bf5760203660031901126101bf5760043567ffffffffffffffff81116101bf57366023820112156101bf57806004013567ffffffffffffffff81116101bf5736602482840101116101bf57600454801515908161058b575b5061057e575b60075460ff8160081c161561056f5760ff16610560576104c6610a43565b6105515760246104d7920133611691565b6001600160a01b037f0000000000000000000000000000000000000000000000000000000000000000811691160361054357610511611115565b5f8080806006546105215f600655565b335af161052c6109c4565b501561053457005b6383e6cc6b60e01b5f5260045ffd5b62b8406360e61b5f5260045ffd5b63129f78e960e11b5f5260045ffd5b632479328960e01b5f5260045ffd5b636af784dd60e11b5f5260045ffd5b61058661113e565b6104a8565b905042115f6104a2565b346101bf575f3660031901126101bf576020600654604051908152f35b346101bf575f3660031901126101bf5760ff6001811960075416178060075560081c161561056f577f00000000000000000000000000000000000000000000000000000000000000006001600160a01b031633036101b05761061261113e565b61062661061d611175565b60065490610a36565b61064161ff0019600754166007555f6001555f80555f600555565b61064a5f600655565b8015610677575f80808093335af16106606109c4565b501561066857005b63b12d13eb60e01b5f5260045ffd5b6353cd7f7960e01b5f5260045ffd5b346101bf575f3660031901126101bf577f00000000000000000000000000000000000000000000000000000000000000006001600160a01b031633036101b0576007805460ff19166001179055005b346101bf575f3660031901126101bf576040517f00000000000000000000000000000000000000000000000000000000000000006001600160a01b03168152602090f35b346101bf575f3660031901126101bf576020600154604051908152f35b60403660031901126101bf576004356024357f00000000000000000000000000000000000000000000000000000000000000006001600160a01b031633036101b05760075460081c60ff1661082a57811561081b57801561080c577f0000000000000000000000000000000000000000000000000000000000000000916107c6826107c18584610a36565b610a36565b34036107fd576107e9926107df826107e4935f55600255565b600155565b600655565b61035861010061ff00196007541617600755565b63201c04ab60e01b5f5260045ffd5b636edb2d2f60e11b5f5260045ffd5b63ea1083a760e01b5f5260045ffd5b635adf638760e01b5f5260045ffd5b346101bf575f3660031901126101bf576040517f00000000000000000000000000000000000000000000000000000000000000006001600160a01b03168152602090f35b346101bf575f3660031901126101bf576020600554604051908152f35b346101bf575f3660031901126101bf5760206108b4610a43565b6040519015158152f35b346101bf575f3660031901126101bf576020600254604051908152f35b346101bf575f3660031901126101bf57602060ff60075460081c166040519015158152f35b346101bf575f3660031901126101bf5760206040517f00000000000000000000000000000000000000000000000000000000000000008152f35b903590601e19813603018212156101bf570180359067ffffffffffffffff82116101bf576020019181360383136101bf57565b634e487b7160e01b5f52604160045260245ffd5b90601f8019910116810190811067ffffffffffffffff8211176109a357604052565b61096d565b67ffffffffffffffff81116109a357601f01601f191660200190565b3d156109ee573d906109d5826109a8565b916109e36040519384610981565b82523d5f602084013e565b606090565b634e487b7160e01b5f52601160045260245ffd5b9060018201809211610a1557565b6109f3565b9060158201809211610a1557565b6001019081600111610a1557565b91908201809211610a1557565b6004548015159081610a53575090565b905042111590565b600119810191908211610a1557565b5f19810191908211610a1557565b91908203918211610a1557565b929192610a91826109a8565b91610a9f6040519384610981565b8294818452818301116101bf578281602093845f960137010152565b90610acf61028760075460ff9060081c1690565b61056f576003546001600160a01b03163314801590610ba8575b610b9957438311610b8a57610100610b018443610a78565b11610b7b57600554831115610b6c5782408015610b5d57610b23368385610a85565b6020815191012003610b4e57610b3891611187565b03610b3f57565b63048a12f560e11b5f5260045ffd5b63ff28378760e01b5f5260045ffd5b63bfc9f0d360e01b5f5260045ffd5b63067d020160e01b5f5260045ffd5b63c42a018560e01b5f5260045ffd5b63058968cf60e41b5f5260045ffd5b6337b5f20360e21b5f5260045ffd5b50610bb4610287610a43565b610ae9565b634e487b7160e01b5f52603260045260245ffd5b9015610bd65790565b610bb9565b90821015610bd6570190565b60ff60f6199116019060ff8211610a1557565b60ff607f199116019060ff8211610a1557565b60ff60bf199116019060ff8211610a1557565b60ff60b6199116019060ff8211610a1557565b60ff166001019060ff8211610a1557565b905f600360fe1b6001600160f81b0319610c6f610c618587610bcd565b356001600160f81b03191690565b1610610d3e57601f60fb1b6001600160f81b0319610c90610c618587610bcd565b1610610d355780610cca610cc4610cbf610cba610cb4610c61610cd097898b610bdb565b60f81c90565b610be7565b610c33565b60ff1690565b90610a36565b905b5f5b60048110610d205750600560fd1b906001600160f81b031990610cfd90610c6190859087610bdb565b1603610d1157610d0c90610a07565b013590565b633954003560e11b5f5260045ffd5b91610d2e6001918386611237565b9201610cd4565b50600190610cd2565b63c0098bd960e01b5f5260045ffd5b610d63610d6b92939495610d7198973691610a85565b923691610a85565b906113bf565b90565b90610d7f8183611579565b905f5b60058110610dc05750600560fd1b906001600160f81b031990610da790849086610bdb565b351603610d1157600181018111610a1557016001013590565b91610dce6001918386611237565b9201610d82565b5f9082151580610e89575b610e80575b60c060ff610dfa610cb4610c61868887610bdb565b1610610e7157610cb4610c6182858560f860ff610e24610cb4610c61839b60019d610e4e9c610bdb565b1610610e685780610cca610cc4610cbf610cba610cb4610c61610e4897898b610bdb565b91610bdb565b1603610e5957600190565b63e9dd8a9d60e01b5f5260045ffd5b610e4890610a07565b631bd5dcf760e31b5f5260045ffd5b60019150610de5565b50608060ff610e9e610cb4610c618786610bcd565b1610610de0565b90916003905f8415158061109f575b611057575b60c060ff610ece610cb4610c61858a8a610bdb565b1610610e71578060f860ff610eed610cb4610c61610f13968b8b610bdb565b161061104e5760ff610f0c610cbf610cba610cb4610c61868c8c610bdb565b1690610a36565b915f905b808210611037575050609460ff610f35610cb4610c61868989610bdb565b1603611028576001600160a01b03168282016001013560601c0361101957610f5c90610a1a565b91610f6e610cb4610c61858486610bdb565b925f9260ff851694608086105f14610f9f5750505050505b03610f9057600190565b6355e97b0d60e01b5f5260045ffd5b90919293946080145f14610fb85750505050505f610f86565b610cc4610fc791939293610bfa565b915f935b838510610fdc575050505050610f86565b9091929394610fed60019160081b90565b61100d610cc4610cb4610c616110068b6107c18b610a07565b8789610bdb565b17950193929190610fcb565b63c0ee95bb60e01b5f5260045ffd5b63e6c4247b60e01b5f5260045ffd5b90926110466001918787611237565b930190610f17565b60ff6001610f0c565b50905061106a610cb4610c618585610bcd565b6001919060ff168083036110815750600491610eb9565b60020361109057600591610eb9565b636fc3daa360e11b5f5260045ffd5b50608060ff6110b4610cb4610c618989610bcd565b1610610eb4565b5f546001548101809111610a15575f808080936003546001600160601b0360a01b8116600355826004558260055561ff0019600754166007558260015582805560018060a01b03165af161110d6109c4565b501561066857565b336001600160601b0360a01b600354161760035561012c4201804211610a155760045543600555565b611146610a43565b611166576001600160601b0360a01b600354166003555f6004555f600555565b639cbc1de160e01b5f5260045ffd5b6001546002548101809111610a155790565b6111918282611579565b915f5b6008811061122257506111ae610cb4610c61858486610bdb565b925f9260ff851694608086105f146111c857505050505090565b6111d99193949550610cc490610bfa565b915f935b8385106111ec57505050505090565b90919293946111fd60019160081b90565b611216610cc4610cb4610c616110068b6107c18b610a07565b179501939291906111dd565b926112306001918385611237565b9301611194565b91908082101561139257611252610cb4610c61848487610bdb565b9060ff8216608081101561126d57505050610d719150610a07565b91929160b8811015611295575050610d719250610cc461128f610cca92610a07565b92610bfa565b90929060c081101561130b5750610cc46112b191949394610c20565b915f935f915b8483106112d257505050610d7192916107c16107c192610a07565b9091946112e160019160081b90565b611301610cc4610cb4610c616112fa8b6107c18b610a07565b8888610bdb565b17950191906112b7565b90929060f811156113315750610d719250610cc461132b610cca92610a07565b92610c0d565b9291610cc461133f91610be7565b915f935f915b84831061136057505050610d7192916107c16107c192610a07565b90919461136f60019160081b90565b611388610cc4610cb4610c616112fa8b6107c18b610a07565b1795019190611345565b6318d76ae160e11b5f5260045ffd5b805115610bd65760200190565b908151811015610bd6570160200190565b919390929190600360fe1b6001600160f81b03196113e0610c618689610bcd565b161061156a57601f60fb1b6001600160f81b0319611401610c618689610bcd565b161061156057611425611420610cc4610cba610cb4610c61888b610bcd565b610a28565b9492905b945f5b82821061143e57505050505050505f90565b61145c6114558361145036878a610a85565b61179f565b9093610a36565b9682516020840120036114fe57600360fe1b61149861148b61147d856113a1565b516001600160f81b03191690565b6001600160f81b03191690565b106114fe578590846001601f60fb1b6114b661148b61147d886113a1565b1015611542575b6114c78186611946565b6011810361150957506114d994611ad1565b9491156114fe5784156114f25793915b9195909361142c565b50505050505050600190565b505050505050505f90565b909350600214159050611536578487926115229461198b565b9491156114fe5784156114f25793916114e9565b50505050505050505f90565b5061155b611420610cc4610cba610cb461147d896113a1565b6114bd565b6001949290611429565b63ebb47d1d60e01b5f5260045ffd5b5f600360fe1b6001600160f81b0319611595610c618686610bcd565b1610610d3e57601f60fb1b6001600160f81b03196115b6610c618686610bcd565b16106116885780610cca610cc4610cbf610cba610cb4610c616115da978a8a610bdb565b905b61a5bd4614801561167d575b6115f3575b50905090565b5f5b600381106116685750600360fe1b61161461148b610c61858786610bdb565b10610d3e57601f60fb1b61162f61148b610c61858786610bdb565b1061165857610cc4610cbf610cba610cb4610c618661165198610cca97610bdb565b805f6115ed565b506116639150610a07565b611651565b916116766001918584611237565b92016115f5565b5061a5bf46146115e8565b506001906115dc565b9161173c61174292610d719460405160208101917f017ab2ce48f3ed2b84d1da9d31a578e8a2f60972b9bfce11127c1725944faa11835260018060a01b03166040820152604081526116e4606082610981565b519020604051602081019161190160f01b83527f00000000000000000000000000000000000000000000000000000000000000006022830152604282015260428152611731606282610981565b519020923691610a85565b90611f3c565b90929192611f94565b6040805190919061175c8382610981565b6001815291601f1901366020840137565b90611777826109a8565b6117846040519182610981565b8281528092611795601f19916109a8565b0190602036910137565b8051821015611392576117b8610cb461147d84846113ae565b9160ff831660808110156117f1575050506117d161174b565b9060f81b6001600160f81b0319165f1a6117ea826113a1565b5390600190565b919392909160b881101561185b5750610cc461180c91610bfa565b906118168261176d565b935f5b83811061182c57505050610d7190610a28565b8061184861147d6118426001946107c188610a07565b856113ae565b5f1a61185482896113ae565b5301611819565b60c011156118f957610cc461186f91610c20565b5f915f5b8281106118cb57506118848361176d565b945f5b84811061189e57505050906107c1610d7192610a28565b806118b861147d6118426001946107c1896107c18a610a07565b5f1a6118c4828a6113ae565b5301611887565b9260019060081b6118f1610cc4610cb461147d6118eb896107c189610a07565b8b6113ae565b179301611873565b50916119058382611be6565b9261190f8461176d565b915f5b858110611920575050509190565b8061193361147d61184260019487610a36565b5f1a61193f82876113ae565b5301611912565b5f92915b81518110156119715761195d8183611be6565b8101809111610a155760019093019261194a565b5050565b908160011b9180830460021490151715610a1557565b83949291611999818361179f565b93906119b860206119af610cb461147d856113a1565b16151591611d13565b97889115611a5a57506119cc905187610a36565b6119d68251611975565b146119eb575b505050505050505f905f905f90565b86866001928251611a48575b505050611a05575b806119dc565b611a1892611a1291610a36565b9061179f565b5060208151910120906020815191012014611a3657808080806119ff565b611a41915190610a36565b6001915f90565b611a529350611e7e565b86865f6119f7565b611a6b939495965061028792611e7e565b611ac457611a7c92611a1291610a36565b50908151602081145f14611aa457506020611a9c920151925b5190610a36565b916001929190565b8015611ab8576020611a9c93012092611a95565b505050505f905f905f90565b50505050505f905f905f90565b91909293611adf8251611975565b851015611b895750610cb461147d611b0192611afb8760011c90565b906113ae565b60018416611b805760041c600f16915b905f925b60ff81168410611b605750611b2a925061179f565b5080518015611b5557611a9c9160208203611b4b5760209150015191610a07565b6020012091610a07565b5050505f905f905f90565b90916001611b7482610cca60ff9487611be6565b94019392919050611b15565b600f1691611b11565b9290509392935f915b60108310611bcc57611ba4925061179f565b50602081519101209060208151910120145f14611bc357600191905f90565b5f915081908190565b90611bdd81610cca60019385611be6565b92019190611b92565b90815181101561139257611c00610cb461147d83856113ae565b9160ff83166080811015611c175750505050600190565b60b8811015611c3257505050610cc4610cbf610d7192610bfa565b60c0811015611c9e575091610cc4611c4991610c20565b905f925f915b838310611c6657505050906107c1610d7192610a28565b909193611c7560019160081b90565b611c94610cc4610cb461147d611c8e8a6107c189610a07565b886113ae565b1794019190611c4f565b60f81115611cb7575050610cc4610cbf610d7192610c0d565b91610cc4611cc491610be7565b905f925f915b838310611ce157505050906107c1610d7192610a28565b909193611cf060019160081b90565b611d09610cc4610cb461147d611c8e8a6107c189610a07565b1794019190611cca565b90815115611e7c57611d2a610cb461147d846113a1565b6010811615611df957611d4d611d48611d438551611975565b610a6a565b61176d565b9060f81b600f60f81b165f1a611d62826113a1565b5360015b8351811015611df45780611da1611d91611d88610cb461147d6001968a6113ae565b60041c600f1690565b60f81b6001600160f81b03191690565b611dba611db0611d4384611975565b915f1a91856113ae565b53611de1600f611dd0610cb461147d858a6113ae565b1660f81b6001600160f81b03191690565b611ded611db083611975565b5301611d66565b509150565b50611e0f611d48611e0a8451611975565b610a5b565b60015b8351811015611df45780611e34611d91611d88610cb461147d6001968a6113ae565b611e48611db0611e4384610a6a565b611975565b53611e5e600f611dd0610cb461147d858a6113ae565b611e75611db0611e70611e4385610a6a565b610a07565b5301611e12565b565b919091611e8c825184610a36565b611e968251611975565b10611f35575f5b8251811015611f2c57611eb9611eb38286610a36565b60011690565b611f0e57611ee2611d88610cb461147d611edc611ed6868a610a36565b60011c90565b866113ae565b60ff611ef7610cc4610cb461147d86896113ae565b911603611f0657600101611e9d565b505050505f90565b600f611f26610cb461147d611edc611ed6868a610a36565b16611ee2565b50505050600190565b5050505f90565b8151919060418303611f6c57611f659250602082015190606060408401519301515f1a90612010565b9192909190565b50505f9160029190565b60041115611f8057565b634e487b7160e01b5f52602160045260245ffd5b611f9d81611f76565b80611fa6575050565b611faf81611f76565b60018103611fc65763f645eedf60e01b5f5260045ffd5b611fcf81611f76565b60028103611fea575063fce698f760e01b5f5260045260245ffd5b80611ff6600392611f76565b14611ffe5750565b6335e2f38360e21b5f5260045260245ffd5b91907f7fffffffffffffffffffffffffffffff5d576e7357a4501ddfe92f46681b20a08411612092579160209360809260ff5f9560405194855216868401526040830152606082015282805260015afa15612087575f516001600160a01b0381161561207d57905f905f90565b505f906001905f90565b6040513d5f823e3d90fd5b5050505f916003919056fea26469706673582212203c5f22a3b5cd16d5e6330c9e116828333c3ed647f83961f34c1e64fadedcf55464736f6c634300081e0033","linkReferences":{}},"methodIdentifiers":{"MAX_BLOCK_LOOKBACK()":"3d2691bc","blindedSigner()":"a967d932","bond(bytes)":"5c56f7ce","bondPot()":"6332cd85","bondStartBlock()":"b8740ffb","bondedExecutor()":"1aa7c0ec","cancelAndWithdraw()":"6b892b22","cancellationRequest()":"308657d7","collect((bytes,bytes,bytes,bytes,bytes,bytes),uint256)":"23a8b41a","currentPaymentAmount()":"8bd03d0a","currentRewardAmount()":"5a4fd645","domainSeparator()":"f698da25","executionDeadline()":"33ee5f35","expectedAmount()":"2feef2ec","expectedRecipient()":"8677ab23","fund(uint256,uint256)":"a65e2cfd","funded()":"f3a504f2","is_bonded()":"cb766a56","originalRewardAmount()":"d415b3f9","requestCancellation()":"81972d00","resume()":"046f7da2"},"storageLayout":{"storage":[{"astId":40214,"contract":"src/EscrowNative.sol:EscrowNative","label":"currentRewardAmount","offset":0,"slot":"0","type":"t_uint256"},{"astId":40216,"contract":"src/EscrowNative.sol:EscrowNative","label":"currentPaymentAmount","offset":0,"slot":"1","type":"t_uint256"},{"astId":40218,"contract":"src/EscrowNative.sol:EscrowNative","label":"originalRewardAmount","offset":0,"slot":"2","type":"t_uint256"},{"astId":40229,"contract":"src/EscrowNative.sol:EscrowNative","label":"bondedExecutor","offset":0,"slot":"3","type":"t_address"},{"astId":40231,"contract":"src/EscrowNative.sol:EscrowNative","label":"executionDeadline","offset":0,"slot":"4","type":"t_uint256"},{"astId":40233,"contract":"src/EscrowNative.sol:EscrowNative","label":"bondStartBlock","offset":0,"slot":"5","type":"t_uint256"},{"astId":40235,"contract":"src/EscrowNative.sol:EscrowNative","label":"bondPot","offset":0,"slot":"6","type":"t_uint256"},{"astId":40237,"contract":"src/EscrowNative.sol:EscrowNative","label":"cancellationRequest","offset":0,"slot":"7","type":"t_bool"},{"astId":40239,"contract":"src/EscrowNative.sol:EscrowNative","label":"funded","offset":1,"slot":"7","type":"t_bool"}],"types":{"t_address":{"encoding":"inplace","label":"address","numberOfBytes":"20"},"t_bool":{"encoding":"inplace","label":"bool","numberOfBytes":"1"},"t_uint256":{"encoding":"inplace","label":"uint256","numberOfBytes":"32"}}},"id":23}