{"abi":[{"type":"constructor","inputs":[{"name":"_commitment","type":"bytes32","internalType":"bytes32"}],"stateMutability":"payable"},{"type":"function","name":"MAX_BLOCK_LOOKBACK","inputs":[],"outputs":[{"name":"","type":"uint256","internalType":"uint256"}],"stateMutability":"view"},{"type":"function","name":"bond","inputs":[],"outputs":[],"stateMutability":"payable"},{"type":"function","name":"bondAmount","inputs":[],"outputs":[{"name":"","type":"uint256","internalType":"uint256"}],"stateMutability":"view"},{"type":"function","name":"bondedExecutor","inputs":[],"outputs":[{"name":"","type":"address","internalType":"address"}],"stateMutability":"view"},{"type":"function","name":"cancelAndWithdraw","inputs":[],"outputs":[],"stateMutability":"nonpayable"},{"type":"function","name":"cancellationRequest","inputs":[],"outputs":[{"name":"","type":"bool","internalType":"bool"}],"stateMutability":"view"},{"type":"function","name":"collect","inputs":[{"name":"proof","type":"tuple","internalType":"struct EscrowNative.NativeTransferProof","components":[{"name":"blockHeader","type":"bytes","internalType":"bytes"},{"name":"transactionRlp","type":"bytes","internalType":"bytes"},{"name":"txProofNodes","type":"bytes","internalType":"bytes"},{"name":"receiptRlp","type":"bytes","internalType":"bytes"},{"name":"receiptProofNodes","type":"bytes","internalType":"bytes"},{"name":"path","type":"bytes","internalType":"bytes"}]},{"name":"targetBlockNumber","type":"uint256","internalType":"uint256"},{"name":"salt","type":"bytes32","internalType":"bytes32"}],"outputs":[],"stateMutability":"nonpayable"},{"type":"function","name":"commitment","inputs":[],"outputs":[{"name":"","type":"bytes32","internalType":"bytes32"}],"stateMutability":"view"},{"type":"function","name":"deposit","inputs":[],"outputs":[{"name":"","type":"uint256","internalType":"uint256"}],"stateMutability":"view"},{"type":"function","name":"executionDeadline","inputs":[],"outputs":[{"name":"","type":"uint256","internalType":"uint256"}],"stateMutability":"view"},{"type":"function","name":"fund","inputs":[{"name":"_commitment","type":"bytes32","internalType":"bytes32"}],"outputs":[],"stateMutability":"payable"},{"type":"function","name":"funded","inputs":[],"outputs":[{"name":"","type":"bool","internalType":"bool"}],"stateMutability":"view"},{"type":"function","name":"is_bonded","inputs":[],"outputs":[{"name":"","type":"bool","internalType":"bool"}],"stateMutability":"view"},{"type":"function","name":"originalDeposit","inputs":[],"outputs":[{"name":"","type":"uint256","internalType":"uint256"}],"stateMutability":"view"},{"type":"function","name":"requestCancellation","inputs":[],"outputs":[],"stateMutability":"nonpayable"},{"type":"function","name":"resume","inputs":[],"outputs":[],"stateMutability":"nonpayable"},{"type":"function","name":"totalBondsDeposited","inputs":[],"outputs":[{"name":"","type":"uint256","internalType":"uint256"}],"stateMutability":"view"},{"type":"error","name":"AlreadyFunded","inputs":[]},{"type":"error","name":"BlockHashUnavailable","inputs":[]},{"type":"error","name":"BlockHeaderMismatch","inputs":[]},{"type":"error","name":"BlockNumberMismatch","inputs":[]},{"type":"error","name":"BondActive","inputs":[]},{"type":"error","name":"CancellationRequested","inputs":[]},{"type":"error","name":"CommitmentMismatch","inputs":[]},{"type":"error","name":"ETHTransferFailed","inputs":[]},{"type":"error","name":"ExecutorAlreadyBonded","inputs":[]},{"type":"error","name":"ExpectedRLPList","inputs":[]},{"type":"error","name":"InsufficientBond","inputs":[]},{"type":"error","name":"InvalidAddress","inputs":[]},{"type":"error","name":"InvalidRLP","inputs":[]},{"type":"error","name":"InvalidRLPEncoding","inputs":[]},{"type":"error","name":"InvalidRLPList","inputs":[]},{"type":"error","name":"InvalidReceiptProof","inputs":[]},{"type":"error","name":"InvalidTxProof","inputs":[]},{"type":"error","name":"NoWithdrawableFunds","inputs":[]},{"type":"error","name":"NotFunded","inputs":[]},{"type":"error","name":"OnlyBondedExecutor","inputs":[]},{"type":"error","name":"OnlyDeployer","inputs":[]},{"type":"error","name":"RLPOffsetOutOfBounds","inputs":[]},{"type":"error","name":"ReceiptStatusNotSuccess","inputs":[]},{"type":"error","name":"TargetBlockInFuture","inputs":[]},{"type":"error","name":"TargetBlockTooOld","inputs":[]},{"type":"error","name":"TxFailed","inputs":[]},{"type":"error","name":"UnsupportedTxType","inputs":[]},{"type":"error","name":"ZeroAmount","inputs":[]}],"bytecode":{"object":"0x60a0601f611cbc38819003918201601f19168301916001600160401b038311848410176100945780849260209460405283398101031261009057513360805234610071575b604051611c1390816100a982396080518181816101360152818161031d015281816103f901526105fa0152f35b345f553460015560025561010061ff001960075416176007555f610044565b5f80fd5b634e487b7160e01b5f52604160045260245ffdfe60806040526004361015610011575f80fd5b5f3560e01c8063046f7da2146101245780631303a4841461011f5780631aa7c0ec1461011a578063308657d71461011557806333ee5f35146101105780633d2691bc1461010b57806364c9ec6f146101065780636b892b22146101015780637fd0368b146100fc57806380f323a7146100f757806381972d00146100f2578063b39c1d4d146100ed578063bf14c119146100e8578063cb766a56146100e3578063d0e30db0146100de578063f3a504f2146100d95763fe03a460146100d4575f80fd5b6106dc565b6106b7565b61069b565b610677565b6105e9565b610436565b6103e7565b6103ca565b6103ad565b6102f3565b610223565b610207565b6101ea565b6101c8565b6101a0565b610183565b3461017f575f36600319011261017f577f00000000000000000000000000000000000000000000000000000000000000006001600160a01b03163303610170576007805460ff19169055005b63618bbdd560e01b5f5260045ffd5b5f80fd5b3461017f575f36600319011261017f576020600254604051908152f35b3461017f575f36600319011261017f576003546040516001600160a01b039091168152602090f35b3461017f575f36600319011261017f57602060ff600754166040519015158152f35b3461017f575f36600319011261017f576020600454604051908152f35b3461017f575f36600319011261017f5760206040516101008152f35b5f36600319011261017f5760045480151590816102e9575b506102b6575b60075460ff8160081c16156102a75760ff166102985761025f6107b2565b610289576101905f5404341061027a5761027834610815565b005b63e92c469f60e01b5f5260045ffd5b63129f78e960e11b5f5260045ffd5b632479328960e01b5f5260045ffd5b636af784dd60e11b5f5260045ffd5b6005545f548181018091116102e4575f556006549081018091116102e4576006556102df61083d565b610241565b6107ca565b905042115f61023b565b3461017f575f36600319011261017f5760ff6001811960075416178060075560081c16156102a7577f00000000000000000000000000000000000000000000000000000000000000006001600160a01b031633036101705761035361083d565b600154801561039e575f8080809361037c61ff0019600754166007555f80555f6001555f600255565b335af1610387610750565b501561038f57005b63b12d13eb60e01b5f5260045ffd5b6353cd7f7960e01b5f5260045ffd5b3461017f575f36600319011261017f576020600154604051908152f35b3461017f575f36600319011261017f576020600554604051908152f35b3461017f575f36600319011261017f577f00000000000000000000000000000000000000000000000000000000000000006001600160a01b03163303610170576007805460ff19166001179055005b3461017f57606036600319011261017f5760043567ffffffffffffffff811161017f57806004019060c0600319823603011261017f576044359061048661047d848061077f565b602435916108d4565b610499610493848061077f565b90610a44565b60248201916104da6104d66104ae858861077f565b6104be604486979397018a61077f565b60a4870197916104ce898d61077f565b949093610b4d565b1590565b6105da576104d66105239160846104fa6104f4898061077f565b90610b74565b916104ce606482019661051a610510898d61077f565b959094018c61077f565b9290918c61077f565b6105cb576104d661053761053d928661077f565b90610bd5565b6105bc576105516105579161059a9461077f565b90610ca5565b61058c60409492945193849260208401968791605493916001600160601b03199060601b168352601483015260348201520190565b03601f19810183528261070d565b519020600254036105ad57610278610e86565b635054097b60e01b5f5260045ffd5b632b96f51360e01b5f5260045ffd5b637b374dd160e01b5f5260045ffd5b63c89e37db60e01b5f5260045ffd5b602036600319011261017f576004357f00000000000000000000000000000000000000000000000000000000000000006001600160a01b031633036101705760ff60075460081c1661066857341561065957345f553460015560025561027861010061ff00196007541617600755565b631f2a200560e01b5f5260045ffd5b635adf638760e01b5f5260045ffd5b3461017f575f36600319011261017f5760206106916107b2565b6040519015158152f35b3461017f575f36600319011261017f5760205f54604051908152f35b3461017f575f36600319011261017f57602060ff60075460081c166040519015158152f35b3461017f575f36600319011261017f576020600654604051908152f35b634e487b7160e01b5f52604160045260245ffd5b90601f8019910116810190811067ffffffffffffffff82111761072f57604052565b6106f9565b67ffffffffffffffff811161072f57601f01601f191660200190565b3d1561077a573d9061076182610734565b9161076f604051938461070d565b82523d5f602084013e565b606090565b903590601e198136030182121561017f570180359067ffffffffffffffff821161017f5760200191813603831361017f57565b60045480151590816107c2575090565b905042111590565b634e487b7160e01b5f52601160045260245ffd5b90600182018092116102e457565b90601582018092116102e457565b60010190816001116102e457565b919082018092116102e457565b336001600160601b0360a01b600354161760035561012c42018042116102e457600455600555565b6108456107b2565b610865576001600160601b0360a01b600354166003555f6005555f600455565b639cbc1de160e01b5f5260045ffd5b6001198101919082116102e457565b5f198101919082116102e457565b919082039182116102e457565b9291926108aa82610734565b916108b8604051938461070d565b82948184528183011161017f578281602093845f960137010152565b906108e86104d660075460ff9060081c1690565b6102a7576003546001600160a01b031633148015906109a8575b6109995743831161098a5761010061091a8443610891565b1161097b578240801561096c5761093236838561089e565b602081519101200361095d5761094791610ee4565b0361094e57565b63048a12f560e11b5f5260045ffd5b63ff28378760e01b5f5260045ffd5b63bfc9f0d360e01b5f5260045ffd5b63c42a018560e01b5f5260045ffd5b63058968cf60e41b5f5260045ffd5b6337b5f20360e21b5f5260045ffd5b506109b46104d66107b2565b610902565b634e487b7160e01b5f52603260045260245ffd5b90156109d65790565b6109b9565b908210156109d6570190565b60ff60f6199116019060ff82116102e457565b60ff607f199116019060ff82116102e457565b60ff60bf199116019060ff82116102e457565b60ff60b6199116019060ff82116102e457565b60ff166001019060ff82116102e457565b905f600360fe1b6001600160f81b0319610a6f610a6185876109cd565b356001600160f81b03191690565b1610610b3e57601f60fb1b6001600160f81b0319610a90610a6185876109cd565b1610610b355780610aca610ac4610abf610aba610ab4610a61610ad097898b6109db565b60f81c90565b6109e7565b610a33565b60ff1690565b90610808565b905b5f5b60048110610b205750600560fd1b906001600160f81b031990610afd90610a61908590876109db565b1603610b1157610b0c906107de565b013590565b633954003560e11b5f5260045ffd5b91610b2e6001918386610f94565b9201610ad4565b50600190610ad2565b63c0098bd960e01b5f5260045ffd5b610b63610b6b92939495610b719897369161089e565b92369161089e565b9061111c565b90565b90610b7f81836112d6565b905f5b60058110610bc05750600560fd1b906001600160f81b031990610ba7908490866109db565b351603610b11576001810181116102e457016001013590565b91610bce6001918386610f94565b9201610b82565b5f9082151580610c89575b610c80575b60c060ff610bfa610ab4610a618688876109db565b1610610c7157610ab4610a6182858560f860ff610c24610ab4610a61839b60019d610c4e9c6109db565b1610610c685780610aca610ac4610abf610aba610ab4610a61610c4897898b6109db565b916109db565b1603610c5957600190565b63e9dd8a9d60e01b5f5260045ffd5b610c48906107de565b631bd5dcf760e31b5f5260045ffd5b60019150610be5565b50608060ff610c9e610ab4610a6187866109cd565b1610610be0565b600392915f908181151580610e6a575b610e22575b60c060ff610ccf610ab4610a6185878a6109db565b1610610c71578060f860ff610cee610ab4610a61610d1496888b6109db565b1610610e195760ff610d0d610abf610aba610ab4610a6186898c6109db565b1690610808565b945f905b808210610e02575050609460ff610d36610ab4610a618986896109db565b1603610df357610d4f6001868501013560601c956107ec565b610d60610ab4610a618385886109db565b60ff811694906080861015610d78575050505050905b565b9091929395946080145f14610d9057505f9450505050565b610ac4610d9f919392936109fa565b915f935b838510610db1575050505050565b9091929395610dc260019160081b90565b610de7610ac4610ab4610a61610de08c610ddb8b6107de565b610808565b87896109db565b17960193929190610da3565b63e6c4247b60e01b5f5260045ffd5b9095610e116001918487610f94565b960190610d18565b60ff6001610d0d565b509350610e35610ab4610a6186856109cd565b6001949060ff16808603610e4c5750600494610cba565b600203610e5b57600594610cba565b636fc3daa360e11b5f5260045ffd5b50608060ff610e7f610ab4610a6186896109cd565b1610610cb5565b6005545f5481018091116102e4575f808080936003546001600160601b0360a01b8116600355826005558260045561ff001960075416600755828055826001558260025560018060a01b03165af1610edc610750565b501561038f57565b610eee82826112d6565b915f5b60088110610f7f5750610f0b610ab4610a618584866109db565b925f9260ff851694608086105f14610f2557505050505090565b610f369193949550610ac4906109fa565b915f935b838510610f4957505050505090565b9091929394610f5a60019160081b90565b610f73610ac4610ab4610a61610de08b610ddb8b6107de565b17950193929190610f3a565b92610f8d6001918385610f94565b9301610ef1565b9190808210156110ef57610faf610ab4610a618484876109db565b9060ff82166080811015610fca57505050610b7191506107de565b91929160b8811015610ff2575050610b719250610ac4610fec610aca926107de565b926109fa565b90929060c08110156110685750610ac461100e91949394610a20565b915f935f915b84831061102f57505050610b719291610ddb610ddb926107de565b90919461103e60019160081b90565b61105e610ac4610ab4610a616110578b610ddb8b6107de565b88886109db565b1795019190611014565b90929060f8111561108e5750610b719250610ac4611088610aca926107de565b92610a0d565b9291610ac461109c916109e7565b915f935f915b8483106110bd57505050610b719291610ddb610ddb926107de565b9091946110cc60019160081b90565b6110e5610ac4610ab4610a616110578b610ddb8b6107de565b17950191906110a2565b6318d76ae160e11b5f5260045ffd5b8051156109d65760200190565b9081518110156109d6570160200190565b919390929190600360fe1b6001600160f81b031961113d610a6186896109cd565b16106112c757601f60fb1b6001600160f81b031961115e610a6186896109cd565b16106112bd5761118261117d610ac4610aba610ab4610a61888b6109cd565b6107fa565b9492905b945f5b82821061119b57505050505050505f90565b6111b96111b2836111ad36878a61089e565b611442565b9093610808565b96825160208401200361125b57600360fe1b6111f56111e86111da856110fe565b516001600160f81b03191690565b6001600160f81b03191690565b1061125b578590846001601f60fb1b6112136111e86111da886110fe565b101561129f575b61122481866115e9565b60118103611266575061123694611774565b94911561125b57841561124f5793915b91959093611189565b50505050505050600190565b505050505050505f90565b9093506002141590506112935784879261127f9461162e565b94911561125b57841561124f579391611246565b50505050505050505f90565b506112b861117d610ac4610aba610ab46111da896110fe565b61121a565b6001949290611186565b63ebb47d1d60e01b5f5260045ffd5b5f600360fe1b6001600160f81b03196112f2610a6186866109cd565b1610610b3e57601f60fb1b6001600160f81b0319611313610a6186866109cd565b16106113e55780610aca610ac4610abf610aba610ab4610a61611337978a8a6109db565b905b61a5bd461480156113da575b611350575b50905090565b5f5b600381106113c55750600360fe1b6113716111e8610a618587866109db565b10610b3e57601f60fb1b61138c6111e8610a618587866109db565b106113b557610ac4610abf610aba610ab4610a61866113ae98610aca976109db565b805f61134a565b506113c091506107de565b6113ae565b916113d36001918584610f94565b9201611352565b5061a5bf4614611345565b50600190611339565b604080519091906113ff838261070d565b6001815291601f1901366020840137565b9061141a82610734565b611427604051918261070d565b8281528092611438601f1991610734565b0190602036910137565b80518210156110ef5761145b610ab46111da848461110b565b9160ff83166080811015611494575050506114746113ee565b9060f81b6001600160f81b0319165f1a61148d826110fe565b5390600190565b919392909160b88110156114fe5750610ac46114af916109fa565b906114b982611410565b935f5b8381106114cf57505050610b71906107fa565b806114eb6111da6114e5600194610ddb886107de565b8561110b565b5f1a6114f7828961110b565b53016114bc565b60c0111561159c57610ac461151291610a20565b5f915f5b82811061156e575061152783611410565b945f5b8481106115415750505090610ddb610b71926107fa565b8061155b6111da6114e5600194610ddb89610ddb8a6107de565b5f1a611567828a61110b565b530161152a565b9260019060081b611594610ac4610ab46111da61158e89610ddb896107de565b8b61110b565b179301611516565b50916115a88382611889565b926115b284611410565b915f5b8581106115c3575050509190565b806115d66111da6114e560019487610808565b5f1a6115e2828761110b565b53016115b5565b5f92915b8151811015611614576116008183611889565b81018091116102e4576001909301926115ed565b5050565b908160011b91808304600214901517156102e457565b8394929161163c8183611442565b939061165b6020611652610ab46111da856110fe565b161515916119b6565b978891156116fd575061166f905187610808565b6116798251611618565b1461168e575b505050505050505f905f905f90565b868660019282516116eb575b5050506116a8575b8061167f565b6116bb926116b591610808565b90611442565b50602081519101209060208151910120146116d957808080806116a2565b6116e4915190610808565b6001915f90565b6116f59350611b1f565b86865f61169a565b61170e93949596506104d692611b1f565b6117675761171f926116b591610808565b50908151602081145f146117475750602061173f920151925b5190610808565b916001929190565b801561175b57602061173f93012092611738565b505050505f905f905f90565b50505050505f905f905f90565b919092936117828251611618565b85101561182c5750610ab46111da6117a49261179e8760011c90565b9061110b565b600184166118235760041c600f16915b905f925b60ff8116841061180357506117cd9250611442565b50805180156117f85761173f91602082036117ee57602091500151916107de565b60200120916107de565b5050505f905f905f90565b9091600161181782610aca60ff9487611889565b940193929190506117b8565b600f16916117b4565b9290509392935f915b6010831061186f576118479250611442565b50602081519101209060208151910120145f1461186657600191905f90565b5f915081908190565b9061188081610aca60019385611889565b92019190611835565b9081518110156110ef576118a3610ab46111da838561110b565b9160ff831660808110156118ba5750505050600190565b60b88110156118d557505050610ac4610abf610b71926109fa565b60c0811015611941575091610ac46118ec91610a20565b905f925f915b8383106119095750505090610ddb610b71926107fa565b90919361191860019160081b90565b611937610ac4610ab46111da6119318a610ddb896107de565b8861110b565b17940191906118f2565b60f8111561195a575050610ac4610abf610b7192610a0d565b91610ac4611967916109e7565b905f925f915b8383106119845750505090610ddb610b71926107fa565b90919361199360019160081b90565b6119ac610ac4610ab46111da6119318a610ddb896107de565b179401919061196d565b90815115610d76576119cd610ab46111da846110fe565b6010811615611a9c576119f06119eb6119e68551611618565b610883565b611410565b9060f81b600f60f81b165f1a611a05826110fe565b5360015b8351811015611a975780611a44611a34611a2b610ab46111da6001968a61110b565b60041c600f1690565b60f81b6001600160f81b03191690565b611a5d611a536119e684611618565b915f1a918561110b565b53611a84600f611a73610ab46111da858a61110b565b1660f81b6001600160f81b03191690565b611a90611a5383611618565b5301611a09565b509150565b50611ab26119eb611aad8451611618565b610874565b60015b8351811015611a975780611ad7611a34611a2b610ab46111da6001968a61110b565b611aeb611a53611ae684610883565b611618565b53611b01600f611a73610ab46111da858a61110b565b611b18611a53611b13611ae685610883565b6107de565b5301611ab5565b919091611b2d825184610808565b611b378251611618565b10611bd6575f5b8251811015611bcd57611b5a611b548286610808565b60011690565b611baf57611b83611a2b610ab46111da611b7d611b77868a610808565b60011c90565b8661110b565b60ff611b98610ac4610ab46111da868961110b565b911603611ba757600101611b3e565b505050505f90565b600f611bc7610ab46111da611b7d611b77868a610808565b16611b83565b50505050600190565b5050505f9056fea26469706673582212203fbc51bf11d5ef13346b16b585387480c9bf913d8748ff03e30cb5e3e3fe07ab64736f6c634300081e0033","linkReferences":{}},"methodIdentifiers":{"MAX_BLOCK_LOOKBACK()":"3d2691bc","bond()":"64c9ec6f","bondAmount()":"80f323a7","bondedExecutor()":"1aa7c0ec","cancelAndWithdraw()":"6b892b22","cancellationRequest()":"308657d7","collect((bytes,bytes,bytes,bytes,bytes,bytes),uint256,bytes32)":"b39c1d4d","commitment()":"1303a484","deposit()":"d0e30db0","executionDeadline()":"33ee5f35","fund(bytes32)":"bf14c119","funded()":"f3a504f2","is_bonded()":"cb766a56","originalDeposit()":"7fd0368b","requestCancellation()":"81972d00","resume()":"046f7da2","totalBondsDeposited()":"fe03a460"},"id":22}