{"abi":[{"type":"constructor","inputs":[{"name":"_expectedRecipient","type":"address","internalType":"address"},{"name":"_expectedAmount","type":"uint256","internalType":"uint256"},{"name":"_currentRewardAmount","type":"uint256","internalType":"uint256"},{"name":"_currentPaymentAmount","type":"uint256","internalType":"uint256"}],"stateMutability":"payable"},{"type":"function","name":"MAX_BLOCK_LOOKBACK","inputs":[],"outputs":[{"name":"","type":"uint256","internalType":"uint256"}],"stateMutability":"view"},{"type":"function","name":"cancelAndWithdraw","inputs":[],"outputs":[],"stateMutability":"nonpayable"},{"type":"function","name":"collect","inputs":[{"name":"proof","type":"tuple","internalType":"struct EscrowNative.NativeTransferProof","components":[{"name":"blockHeader","type":"bytes","internalType":"bytes"},{"name":"transactionRlp","type":"bytes","internalType":"bytes"},{"name":"txProofNodes","type":"bytes","internalType":"bytes"},{"name":"receiptRlp","type":"bytes","internalType":"bytes"},{"name":"receiptProofNodes","type":"bytes","internalType":"bytes"},{"name":"path","type":"bytes","internalType":"bytes"}]},{"name":"targetBlockNumber","type":"uint256","internalType":"uint256"},{"name":"payoutAddress","type":"address","internalType":"address"},{"name":"executionSig","type":"bytes","internalType":"bytes"}],"outputs":[],"stateMutability":"nonpayable"},{"type":"function","name":"collected","inputs":[],"outputs":[{"name":"","type":"bool","internalType":"bool"}],"stateMutability":"view"},{"type":"function","name":"currentPaymentAmount","inputs":[],"outputs":[{"name":"","type":"uint256","internalType":"uint256"}],"stateMutability":"view"},{"type":"function","name":"currentRewardAmount","inputs":[],"outputs":[{"name":"","type":"uint256","internalType":"uint256"}],"stateMutability":"view"},{"type":"function","name":"domainSeparator","inputs":[],"outputs":[{"name":"","type":"bytes32","internalType":"bytes32"}],"stateMutability":"view"},{"type":"function","name":"expectedAmount","inputs":[],"outputs":[{"name":"","type":"uint256","internalType":"uint256"}],"stateMutability":"view"},{"type":"function","name":"expectedRecipient","inputs":[],"outputs":[{"name":"","type":"address","internalType":"address"}],"stateMutability":"view"},{"type":"function","name":"fund","inputs":[{"name":"_currentRewardAmount","type":"uint256","internalType":"uint256"},{"name":"_currentPaymentAmount","type":"uint256","internalType":"uint256"}],"outputs":[],"stateMutability":"payable"},{"type":"function","name":"funded","inputs":[],"outputs":[{"name":"","type":"bool","internalType":"bool"}],"stateMutability":"view"},{"type":"function","name":"originalRewardAmount","inputs":[],"outputs":[{"name":"","type":"uint256","internalType":"uint256"}],"stateMutability":"view"},{"type":"error","name":"AlreadyCollected","inputs":[]},{"type":"error","name":"AlreadyFunded","inputs":[]},{"type":"error","name":"AmountMismatch","inputs":[]},{"type":"error","name":"BlockHashUnavailable","inputs":[]},{"type":"error","name":"BlockHeaderMismatch","inputs":[]},{"type":"error","name":"BlockNumberMismatch","inputs":[]},{"type":"error","name":"ECDSAInvalidSignature","inputs":[]},{"type":"error","name":"ECDSAInvalidSignatureLength","inputs":[{"name":"length","type":"uint256","internalType":"uint256"}]},{"type":"error","name":"ECDSAInvalidSignatureS","inputs":[{"name":"s","type":"bytes32","internalType":"bytes32"}]},{"type":"error","name":"ETHTransferFailed","inputs":[]},{"type":"error","name":"ExpectedRLPList","inputs":[]},{"type":"error","name":"IncorrectETHAmount","inputs":[]},{"type":"error","name":"InvalidAddress","inputs":[]},{"type":"error","name":"InvalidNativeTransfer","inputs":[]},{"type":"error","name":"InvalidRLP","inputs":[]},{"type":"error","name":"InvalidRLPEncoding","inputs":[]},{"type":"error","name":"InvalidRLPList","inputs":[]},{"type":"error","name":"InvalidReceiptProof","inputs":[]},{"type":"error","name":"InvalidSignatureV","inputs":[]},{"type":"error","name":"InvalidTxProof","inputs":[]},{"type":"error","name":"NoWithdrawableFunds","inputs":[]},{"type":"error","name":"NotFunded","inputs":[]},{"type":"error","name":"OnlyDeployer","inputs":[]},{"type":"error","name":"RLPOffsetOutOfBounds","inputs":[]},{"type":"error","name":"ReceiptStatusNotSuccess","inputs":[]},{"type":"error","name":"RecipientMismatch","inputs":[]},{"type":"error","name":"SignerNotTxSender","inputs":[]},{"type":"error","name":"TargetBlockInFuture","inputs":[]},{"type":"error","name":"TargetBlockTooOld","inputs":[]},{"type":"error","name":"TxFailed","inputs":[]},{"type":"error","name":"UnsupportedTxType","inputs":[]},{"type":"error","name":"ZeroPaymentAmount","inputs":[]},{"type":"error","name":"ZeroRewardAmount","inputs":[]}],"bytecode":{"object":"0x61010080604052608081612606803803809161001b82856101b1565b8339810103126101ad578051906001600160a01b03821682036101ad576020810151606060408301519201519260c05260e0523360a05260405160208101907f8b73c3c69bb8fe3d512ecc4cf759cc79239f7b179b0ffacaa9a75d522b39400f82527fa222588f33d25c694dfae6965a4e2410aa5c3f8d5d6c2f0a3100d528225c8a0860408201527fc89efdaa54c0f20c7adf612882df0950f5a951637e0307cdcb4c672f298b8bc660608201524660808201523060a082015260a081526100e460c0826101b1565b519020608052801515806101a4575b610154575b60405161241d90816101e98239608051818181610466015261105d015260a05181818161020b015261035a015260c0518181816102fa015281816105d80152610fe1015260e05181818160eb015281816105b601526110080152f35b81810180821161019057340361018157805f55600255600155600160ff1960035416176003555f806100f8565b63201c04ab60e01b5f5260045ffd5b634e487b7160e01b5f52601160045260245ffd5b508115156100f3565b5f80fd5b601f909101601f19168101906001600160401b038211908210176101d457604052565b634e487b7160e01b5f52604160045260245ffdfe60806040526004361015610011575f80fd5b5f3560e01c80632feef2ec146100d45780633d2691bc146100cf5780633fbcc464146100ca5780635a4fd645146100c55780636b892b22146100c057806384bcefd4146100bb5780638677ab23146100b65780638bd03d0a146100b1578063a65e2cfd146100ac578063d415b3f9146100a7578063f3a504f2146100a25763f698da251461009d575f80fd5b61044f565b61042d565b610410565b610346565b610329565b6102e5565b6102c0565b6101e3565b6101c7565b61012e565b610112565b3461010e575f36600319011261010e5760206040517f00000000000000000000000000000000000000000000000000000000000000008152f35b5f80fd5b3461010e575f36600319011261010e5760206040516101008152f35b3461010e57608036600319011261010e5760043567ffffffffffffffff811161010e5760c0600319823603011261010e57602435604435916001600160a01b038316830361010e576064359267ffffffffffffffff841161010e573660238501121561010e5783600401359267ffffffffffffffff841161010e57366024858701011161010e5760246101c59501926004016104bc565b005b3461010e575f36600319011261010e5760205f54604051908152f35b3461010e575f36600319011261010e5760035460ff8160081c166102b15760ff16156102a2577f00000000000000000000000000000000000000000000000000000000000000006001600160a01b0316330361029357610241611106565b61025760ff19600354166003555f6001555f8055565b8015610284575f80808093335af161026d6106ba565b501561027557005b63b12d13eb60e01b5f5260045ffd5b6353cd7f7960e01b5f5260045ffd5b63618bbdd560e01b5f5260045ffd5b636af784dd60e11b5f5260045ffd5b632340e67360e21b5f5260045ffd5b3461010e575f36600319011261010e57602060ff60035460081c166040519015158152f35b3461010e575f36600319011261010e576040517f00000000000000000000000000000000000000000000000000000000000000006001600160a01b03168152602090f35b3461010e575f36600319011261010e576020600154604051908152f35b604036600319011261010e576004356024357f00000000000000000000000000000000000000000000000000000000000000006001600160a01b031633036102935760035460ff166104015781156103f25780156103e3576103a88183610764565b34036103d4576103bd826103c2935f55600255565b600155565b6101c5600160ff196003541617600355565b63201c04ab60e01b5f5260045ffd5b63932ca0a360e01b5f5260045ffd5b63ea1083a760e01b5f5260045ffd5b635adf638760e01b5f5260045ffd5b3461010e575f36600319011261010e576020600254604051908152f35b3461010e575f36600319011261010e57602060ff600354166040519015158152f35b3461010e575f36600319011261010e5760206040517f00000000000000000000000000000000000000000000000000000000000000008152f35b903590601e198136030182121561010e570180359067ffffffffffffffff821161010e5760200191813603831361010e57565b919293906104d060035460ff9060081c1690565b6102b1576104e8906104e28480610489565b906107e0565b6104fb6104f58380610489565b90610912565b93602083019461053d6105396105118887610489565b6105216040899693960189610489565b60a08a019691610531888c610489565b949093610a1b565b1590565b6106545761058561053961055a6105548780610489565b90610a42565b610531606088019461056c868a610489565b92909161057c60808c018c610489565b9290918c610489565b6106455761053961059961059f9286610489565b90610aa3565b610636576105fd6105396105b38786610489565b907f0000000000000000000000000000000000000000000000000000000000000000917f000000000000000000000000000000000000000000000000000000000000000091610b73565b6106275761061a6106146106259661062095610489565b90610df3565b84610fa2565b6110c9565b565b633cff557560e11b5f5260045ffd5b632b96f51360e01b5f5260045ffd5b637b374dd160e01b5f5260045ffd5b63c89e37db60e01b5f5260045ffd5b634e487b7160e01b5f52604160045260245ffd5b90601f8019910116810190811067ffffffffffffffff82111761069957604052565b610663565b67ffffffffffffffff811161069957601f01601f191660200190565b3d156106e4573d906106cb8261069e565b916106d96040519384610677565b82523d5f602084013e565b606090565b634e487b7160e01b5f52601160045260245ffd5b906001820180921161070b57565b6106e9565b906015820180921161070b57565b601b019081601b1161070b57565b600101908160011161070b57565b60c001908160c01161070b57565b60f701908160f71161070b57565b608001908160801161070b57565b9190820180921161070b57565b60221981019190821161070b57565b60011981019190821161070b57565b5f1981019190821161070b57565b9190820391821161070b57565b9291926107b68261069e565b916107c46040519384610677565b82948184528183011161010e578281602093845f960137010152565b906107f061053960035460ff1690565b6102a25743831161087857610100610808844361079d565b11610869578240801561085a576108203683856107aa565b602081519101200361084b5761083591611118565b0361083c57565b63048a12f560e11b5f5260045ffd5b63ff28378760e01b5f5260045ffd5b63bfc9f0d360e01b5f5260045ffd5b63c42a018560e01b5f5260045ffd5b63058968cf60e41b5f5260045ffd5b634e487b7160e01b5f52603260045260245ffd5b90156108a45790565b610887565b908210156108a4570190565b60ff60f6199116019060ff821161070b57565b60ff607f199116019060ff821161070b57565b60ff60bf199116019060ff821161070b57565b60ff60b6199116019060ff821161070b57565b60ff166001019060ff821161070b57565b905f600360fe1b6001600160f81b031961093d61092f858761089b565b356001600160f81b03191690565b1610610a0c57601f60fb1b6001600160f81b031961095e61092f858761089b565b1610610a03578061099861099261098d61098861098261092f61099e97898b6108a9565b60f81c90565b6108b5565b610901565b60ff1690565b90610764565b905b5f5b600481106109ee5750600560fd1b906001600160f81b0319906109cb9061092f908590876108a9565b16036109df576109da906106fd565b013590565b633954003560e11b5f5260045ffd5b916109fc60019183866111c8565b92016109a2565b506001906109a0565b63c0098bd960e01b5f5260045ffd5b610a31610a3992939495610a3f989736916107aa565b9236916107aa565b90611350565b90565b90610a4d818361150a565b905f5b60058110610a8e5750600560fd1b906001600160f81b031990610a75908490866108a9565b3516036109df5760018101811161070b57016001013590565b91610a9c60019183866111c8565b9201610a50565b5f9082151580610b57575b610b4e575b60c060ff610ac861098261092f8688876108a9565b1610610b3f5761098261092f82858560f860ff610af261098261092f839b60019d610b1c9c6108a9565b1610610b36578061099861099261098d61098861098261092f610b1697898b6108a9565b916108a9565b1603610b2757600190565b63e9dd8a9d60e01b5f5260045ffd5b610b16906106fd565b631bd5dcf760e31b5f5260045ffd5b60019150610ab3565b50608060ff610b6c61098261092f878661089b565b1610610aae565b90916003905f84151580610d72575b610d2a575b60c060ff610b9c61098261092f858a8a6108a9565b1610610b3f578060f860ff610bbb61098261092f610be1968b8b6108a9565b1610610d215760ff610bda61098d61098861098261092f868c8c6108a9565b1690610764565b915f905b808210610d0a575050609460ff610c0361098261092f8689896108a9565b1603610cfb576001600160a01b03168282016001013560601c03610cec57610c2a90610710565b91610c3c61098261092f8584866108a9565b925f9260ff851694608086105f14610c6d5750505050505b03610c5e57600190565b6355e97b0d60e01b5f5260045ffd5b90919293946080145f14610c865750505050505f610c54565b610992610c95919392936108c8565b915f935b838510610caa575050505050610c54565b9091929394610cbb60019160081b90565b610ce061099261098261092f610cd98b610cd48b6106fd565b610764565b87896108a9565b17950193929190610c99565b63c0ee95bb60e01b5f5260045ffd5b63e6c4247b60e01b5f5260045ffd5b9092610d1960019187876111c8565b930190610be5565b60ff6001610bda565b509050610d3d61098261092f858561089b565b6001919060ff16808303610d545750600491610b87565b600203610d6357600591610b87565b636fc3daa360e11b5f5260045ffd5b50608060ff610d8761098261092f898961089b565b1610610b82565b9093929384831161010e57841161010e578101920390565b805191908290602001825e015f815290565b9093926106259281610dde60405197889560ff60f81b1660208701526021860190610da6565b918237015f815203601f198101845283610677565b5f9160068382151580610f86575b610f43575b610e11908385611622565b5080915f905b808210610f2c5750509181610e4a93610e36869484610e4099986117ad565b84869992996117ad565b84869792976117ad565b509560ff8116610ec2575086601b610a3f98148015610eb8575b15610e83579260ff610e77941694611946565b60208151910120611a2d565b9190610e7793610eb26109926001610eac610ea6610ea089610771565b60011c90565b97610771565b1661071e565b956119a6565b50601c8114610e64565b9181610ef99594610ede610ed9610ee4958561079d565b61187d565b95610d8e565b92909160f81b6001600160f81b031916610db8565b6020815191012060018411610f1d57610f17610992610a3f9561071e565b90611a2d565b63ff551e8960e01b5f5260045ffd5b9092610f3b60019186886111c8565b930190610e17565b50509150610f5761098261092f848461089b565b91600160ff8416808203610f745750610e116008915b9050610e06565b600203610d6357610e11600991610f6d565b50608060ff610f9b61098261092f878961089b565b1610610e01565b6110a6926110a09194929460405160208101917f87ae40aff7e7c4f7553e5328da929b50fa7f4fb802fe188b86d10b1a3ce9bc5d835260018060a01b037f00000000000000000000000000000000000000000000000000000000000000001660408301527f0000000000000000000000000000000000000000000000000000000000000000606083015260018060a01b031660808201526080815261104860a082610677565b519020604051602081019161190160f01b83527f00000000000000000000000000000000000000000000000000000000000000006022830152604282015260428152611095606282610677565b5190209236916107aa565b90612067565b6001600160a01b039182169116036110ba57565b637bd6876f60e01b5f5260045ffd5b5f5490600154820180921161070b575f808093819361010061ffff196003541617600355826001558280555af16110fe6106ba565b501561027557565b600154600254810180911161070b5790565b611122828261150a565b915f5b600881106111b3575061113f61098261092f8584866108a9565b925f9260ff851694608086105f1461115957505050505090565b61116a9193949550610992906108c8565b915f935b83851061117d57505050505090565b909192939461118e60019160081b90565b6111a761099261098261092f610cd98b610cd48b6106fd565b1795019392919061116e565b926111c160019183856111c8565b9301611125565b919080821015611323576111e361098261092f8484876108a9565b9060ff821660808110156111fe57505050610a3f91506106fd565b91929160b8811015611226575050610a3f9250610992611220610998926106fd565b926108c8565b90929060c081101561129c5750610992611242919493946108ee565b915f935f915b84831061126357505050610a3f9291610cd4610cd4926106fd565b90919461127260019160081b90565b61129261099261098261092f61128b8b610cd48b6106fd565b88886108a9565b1795019190611248565b90929060f811156112c25750610a3f92506109926112bc610998926106fd565b926108db565b92916109926112d0916108b5565b915f935f915b8483106112f157505050610a3f9291610cd4610cd4926106fd565b90919461130060019160081b90565b61131961099261098261092f61128b8b610cd48b6106fd565b17950191906112d6565b6318d76ae160e11b5f5260045ffd5b8051156108a45760200190565b9081518110156108a4570160200190565b919390929190600360fe1b6001600160f81b031961137161092f868961089b565b16106114fb57601f60fb1b6001600160f81b031961139261092f868961089b565b16106114f1576113b66113b161099261098861098261092f888b61089b565b61072c565b9492905b945f5b8282106113cf57505050505050505f90565b6113ed6113e6836113e136878a6107aa565b611a45565b9093610764565b96825160208401200361148f57600360fe1b61142961141c61140e85611332565b516001600160f81b03191690565b6001600160f81b03191690565b1061148f578590846001601f60fb1b61144761141c61140e88611332565b10156114d3575b6114588186611bec565b6011810361149a575061146a94611d61565b94911561148f5784156114835793915b919590936113bd565b50505050505050600190565b505050505050505f90565b9093506002141590506114c7578487926114b394611c1b565b94911561148f57841561148357939161147a565b50505050505050505f90565b506114ec6113b161099261098861098261140e89611332565b61144e565b60019492906113ba565b63ebb47d1d60e01b5f5260045ffd5b5f600360fe1b6001600160f81b031961152661092f868661089b565b1610610a0c57601f60fb1b6001600160f81b031961154761092f868661089b565b1610611619578061099861099261098d61098861098261092f61156b978a8a6108a9565b905b61a5bd4614801561160e575b611584575b50905090565b5f5b600381106115f95750600360fe1b6115a561141c61092f8587866108a9565b10610a0c57601f60fb1b6115c061141c61092f8587866108a9565b106115e95761099261098d61098861098261092f866115e298610998976108a9565b805f61157e565b506115f491506106fd565b6115e2565b9161160760019185846111c8565b9201611586565b5061a5bf4614611579565b5060019061156d565b929192818410156113235761163e61098261092f8685856108a9565b9160ff831660808110156116595750505050610a3f826106fd565b60b881101561168657505050611674610992610a3f926108c8565b610cd4611680856106fd565b946106fd565b60c081101561170157509161099261169d916108ee565b905f925f915b868484106116cf57610cd4935084610a3f96959350610cd49250610cd46116c9926106fd565b966106fd565b6116f761099261098261092f61128b88610cd46116f16001999a9b9d60081b90565b976106fd565b17940191906116a3565b60f8111561171a575050611674610992610a3f926108db565b91610992611727916108b5565b905f925f915b8684841061175357610cd4935084610a3f96959350610cd49250610cd46116c9926106fd565b61177561099261098261092f61128b88610cd46116f16001999a9b9d60081b90565b179401919061172d565b600381901b91906001600160fd1b0381160361070b57565b908160011b918083046002149015171561070b57565b92916117b99184611622565b92908084039184831161070b57602083116113235782602003926020841161070b578360031b93840460081490602014171561070b570135901c9190565b6040516001600160f81b031990911660208201526001815290610625602183610677565b5f19811461070b5760010190565b6040805190919061183a8382610677565b6001815291601f1901366020840137565b906118558261069e565b6118626040519182610677565b8281528092611873601f199161069e565b0190602036910137565b906038821061192e575f82805b61191457506118a061189b8261072c565b61184b565b906118c06118b061099283610748565b60f81b6001600160f81b03191690565b5f1a6118cb83611332565b535f5b8181106118dc575090925050565b806118f66118b0876118ef60019561177f565b1c60ff1690565b61190d611903838661079d565b915f1a918661133f565b53016118ce565b906119216119289161181b565b9160081c90565b8061188a565b906119416118b0610992610a3f9361073a565b6117f7565b90611952939291610d8e565b60405191611961602084610677565b5f83528161198b93610a3f936119796119989361187d565b93816040519788966020880190610da6565b91823701905f8252610da6565b03601f198101835282610677565b906119b2939291610d8e565b90915f1981036119ef57506040516119cb602082610677565b5f8152915b8251820180831161070b5761198b93610a3f936119796119989361187d565b611a276002611a00611a1093611e95565b6040519384916020830190610da6565b61010160f71b815203601d19810184520182610677565b916119d0565b91610a3f9391611a3c93611f40565b90929192611feb565b805182101561132357611a5e61098261140e848461133f565b9160ff83166080811015611a9757505050611a77611829565b9060f81b6001600160f81b0319165f1a611a9082611332565b5390600190565b919392909160b8811015611b015750610992611ab2916108c8565b90611abc8261184b565b935f5b838110611ad257505050610a3f9061072c565b80611aee61140e611ae8600194610cd4886106fd565b8561133f565b5f1a611afa828961133f565b5301611abf565b60c01115611b9f57610992611b15916108ee565b5f915f5b828110611b715750611b2a8361184b565b945f5b848110611b445750505090610cd4610a3f9261072c565b80611b5e61140e611ae8600194610cd489610cd48a6106fd565b5f1a611b6a828a61133f565b5301611b2d565b9260019060081b611b9761099261098261140e611b9189610cd4896106fd565b8b61133f565b179301611b19565b5091611bab8382612074565b92611bb58461184b565b915f5b858110611bc6575050509190565b80611bd961140e611ae860019487610764565b5f1a611be5828761133f565b5301611bb8565b5f92915b8151811015611c1757611c038183612074565b810180911161070b57600190930192611bf0565b5050565b83949291611c298183611a45565b9390611c486020611c3f61098261140e85611332565b161515916121a1565b97889115611cea5750611c5c905187610764565b611c668251611797565b14611c7b575b505050505050505f905f905f90565b86866001928251611cd8575b505050611c95575b80611c6c565b611ca892611ca291610764565b90611a45565b5060208151910120906020815191012014611cc65780808080611c8f565b611cd1915190610764565b6001915f90565b611ce293506122f5565b86865f611c87565b611cfb9394959650610539926122f5565b611d5457611d0c92611ca291610764565b50908151602081145f14611d3457506020611d2c920151925b5190610764565b916001929190565b8015611d48576020611d2c93012092611d25565b505050505f905f905f90565b50505050505f905f905f90565b91909293611d6f8251611797565b851015611e19575061098261140e611d9192611d8b8760011c90565b9061133f565b60018416611e105760041c600f16915b905f925b60ff81168410611df05750611dba9250611a45565b5080518015611de557611d2c9160208203611ddb57602091500151916106fd565b60200120916106fd565b5050505f905f905f90565b90916001611e048261099860ff9487612074565b94019392919050611da5565b600f1691611da1565b9290509392935f915b60108310611e5c57611e349250611a45565b50602081519101209060208151910120145f14611e5357600191905f90565b5f915081908190565b90611e6d8161099860019385612074565b92019190611e22565b60405190611e85604083610677565b60018252600160ff1b6020830152565b908115611f365760808210611f1f575f82805b611f0c5750611eb961189b8261072c565b90611ec96118b061099283610756565b5f1a611ed483611332565b535f5b818110611ee5575090925050565b80611ef86118b0876118ef60019561177f565b611f05611903838661079d565b5301611ed7565b90611921611f199161181b565b80611ea8565b90610a3f9060f81b6001600160f81b0319166117f7565b9050610a3f611e76565b91907f7fffffffffffffffffffffffffffffff5d576e7357a4501ddfe92f46681b20a08411611fc2579160209360809260ff5f9560405194855216868401526040830152606082015282805260015afa15611fb7575f516001600160a01b03811615611fad57905f905f90565b505f906001905f90565b6040513d5f823e3d90fd5b5050505f9160039190565b60041115611fd757565b634e487b7160e01b5f52602160045260245ffd5b611ff481611fcd565b80611ffd575050565b61200681611fcd565b6001810361201d5763f645eedf60e01b5f5260045ffd5b61202681611fcd565b60028103612041575063fce698f760e01b5f5260045260245ffd5b8061204d600392611fcd565b146120555750565b6335e2f38360e21b5f5260045260245ffd5b610a3f91611a3c916123ad565b9081518110156113235761208e61098261140e838561133f565b9160ff831660808110156120a55750505050600190565b60b88110156120c05750505061099261098d610a3f926108c8565b60c081101561212c5750916109926120d7916108ee565b905f925f915b8383106120f45750505090610cd4610a3f9261072c565b90919361210360019160081b90565b61212261099261098261140e61211c8a610cd4896106fd565b8861133f565b17940191906120dd565b60f8111561214557505061099261098d610a3f926108db565b91610992612152916108b5565b905f925f915b83831061216f5750505090610cd4610a3f9261072c565b90919361217e60019160081b90565b61219761099261098261140e61211c8a610cd4896106fd565b1794019190612158565b90815115610625576121b861098261140e84611332565b6010811615612272576121d661189b6121d18551611797565b61078f565b9060f81b600f60f81b165f1a6121eb82611332565b5360015b835181101561226d578061221a6118b061221161098261140e6001968a61133f565b60041c600f1690565b6122336122296121d184611797565b915f1a918561133f565b5361225a600f61224961098261140e858a61133f565b1660f81b6001600160f81b03191690565b61226661222983611797565b53016121ef565b509150565b5061228861189b6122838451611797565b610780565b60015b835181101561226d57806122ad6118b061221161098261140e6001968a61133f565b6122c16122296122bc8461078f565b611797565b536122d7600f61224961098261140e858a61133f565b6122ee6122296122e96122bc8561078f565b6106fd565b530161228b565b919091612303825184610764565b61230d8251611797565b106123a6575f5b825181101561239d5761233061232a8286610764565b60011690565b61237f5761235361221161098261140e61234d610ea0868a610764565b8661133f565b60ff61236861099261098261140e868961133f565b91160361237757600101612314565b505050505f90565b600f61239761098261140e61234d610ea0868a610764565b16612353565b50505050600190565b5050505f90565b81519190604183036123dd576123d69250602082015190606060408401519301515f1a90611f40565b9192909190565b50505f916002919056fea26469706673582212207bfa8e7afcbb77e8e0cc1a853549a4313fb9932b26c2880f76b3e2d7d009bf1b64736f6c634300081e0033","linkReferences":{}},"methodIdentifiers":{"MAX_BLOCK_LOOKBACK()":"3d2691bc","cancelAndWithdraw()":"6b892b22","collect((bytes,bytes,bytes,bytes,bytes,bytes),uint256,address,bytes)":"3fbcc464","collected()":"84bcefd4","currentPaymentAmount()":"8bd03d0a","currentRewardAmount()":"5a4fd645","domainSeparator()":"f698da25","expectedAmount()":"2feef2ec","expectedRecipient()":"8677ab23","fund(uint256,uint256)":"a65e2cfd","funded()":"f3a504f2","originalRewardAmount()":"d415b3f9"},"id":22}