{"abi":[{"type":"constructor","inputs":[{"name":"_expectedRecipient","type":"address","internalType":"address"},{"name":"_expectedAmount","type":"uint256","internalType":"uint256"},{"name":"_currentRewardAmount","type":"uint256","internalType":"uint256"},{"name":"_currentPaymentAmount","type":"uint256","internalType":"uint256"}],"stateMutability":"payable"},{"type":"function","name":"MAX_BLOCK_LOOKBACK","inputs":[],"outputs":[{"name":"","type":"uint256","internalType":"uint256"}],"stateMutability":"view"},{"type":"function","name":"bond","inputs":[],"outputs":[],"stateMutability":"payable"},{"type":"function","name":"bondAmount","inputs":[],"outputs":[{"name":"","type":"uint256","internalType":"uint256"}],"stateMutability":"view"},{"type":"function","name":"bondedExecutor","inputs":[],"outputs":[{"name":"","type":"address","internalType":"address"}],"stateMutability":"view"},{"type":"function","name":"cancelAndWithdraw","inputs":[],"outputs":[],"stateMutability":"nonpayable"},{"type":"function","name":"cancellationRequest","inputs":[],"outputs":[{"name":"","type":"bool","internalType":"bool"}],"stateMutability":"view"},{"type":"function","name":"collect","inputs":[{"name":"proof","type":"tuple","internalType":"struct EscrowNative.NativeTransferProof","components":[{"name":"blockHeader","type":"bytes","internalType":"bytes"},{"name":"transactionRlp","type":"bytes","internalType":"bytes"},{"name":"txProofNodes","type":"bytes","internalType":"bytes"},{"name":"receiptRlp","type":"bytes","internalType":"bytes"},{"name":"receiptProofNodes","type":"bytes","internalType":"bytes"},{"name":"path","type":"bytes","internalType":"bytes"}]},{"name":"targetBlockNumber","type":"uint256","internalType":"uint256"}],"outputs":[],"stateMutability":"nonpayable"},{"type":"function","name":"currentPaymentAmount","inputs":[],"outputs":[{"name":"","type":"uint256","internalType":"uint256"}],"stateMutability":"view"},{"type":"function","name":"currentRewardAmount","inputs":[],"outputs":[{"name":"","type":"uint256","internalType":"uint256"}],"stateMutability":"view"},{"type":"function","name":"executionDeadline","inputs":[],"outputs":[{"name":"","type":"uint256","internalType":"uint256"}],"stateMutability":"view"},{"type":"function","name":"expectedAmount","inputs":[],"outputs":[{"name":"","type":"uint256","internalType":"uint256"}],"stateMutability":"view"},{"type":"function","name":"expectedRecipient","inputs":[],"outputs":[{"name":"","type":"address","internalType":"address"}],"stateMutability":"view"},{"type":"function","name":"fund","inputs":[{"name":"_currentRewardAmount","type":"uint256","internalType":"uint256"},{"name":"_currentPaymentAmount","type":"uint256","internalType":"uint256"}],"outputs":[],"stateMutability":"payable"},{"type":"function","name":"funded","inputs":[],"outputs":[{"name":"","type":"bool","internalType":"bool"}],"stateMutability":"view"},{"type":"function","name":"is_bonded","inputs":[],"outputs":[{"name":"","type":"bool","internalType":"bool"}],"stateMutability":"view"},{"type":"function","name":"originalRewardAmount","inputs":[],"outputs":[{"name":"","type":"uint256","internalType":"uint256"}],"stateMutability":"view"},{"type":"function","name":"requestCancellation","inputs":[],"outputs":[],"stateMutability":"nonpayable"},{"type":"function","name":"resume","inputs":[],"outputs":[],"stateMutability":"nonpayable"},{"type":"function","name":"totalBondsDeposited","inputs":[],"outputs":[{"name":"","type":"uint256","internalType":"uint256"}],"stateMutability":"view"},{"type":"function","name":"withdraw","inputs":[],"outputs":[],"stateMutability":"nonpayable"},{"type":"error","name":"AlreadyFunded","inputs":[]},{"type":"error","name":"AmountMismatch","inputs":[]},{"type":"error","name":"BlockHashUnavailable","inputs":[]},{"type":"error","name":"BlockHeaderMismatch","inputs":[]},{"type":"error","name":"BlockNumberMismatch","inputs":[]},{"type":"error","name":"BondActive","inputs":[]},{"type":"error","name":"CancellationRequested","inputs":[]},{"type":"error","name":"ETHTransferFailed","inputs":[]},{"type":"error","name":"ExecutorAlreadyBonded","inputs":[]},{"type":"error","name":"ExpectedRLPList","inputs":[]},{"type":"error","name":"IncorrectETHAmount","inputs":[]},{"type":"error","name":"InsufficientBond","inputs":[]},{"type":"error","name":"InvalidAddress","inputs":[]},{"type":"error","name":"InvalidNativeTransfer","inputs":[]},{"type":"error","name":"InvalidRLP","inputs":[]},{"type":"error","name":"InvalidRLPEncoding","inputs":[]},{"type":"error","name":"InvalidRLPList","inputs":[]},{"type":"error","name":"InvalidReceiptProof","inputs":[]},{"type":"error","name":"InvalidTxProof","inputs":[]},{"type":"error","name":"NoWithdrawableFunds","inputs":[]},{"type":"error","name":"NotFunded","inputs":[]},{"type":"error","name":"OnlyBondedExecutor","inputs":[]},{"type":"error","name":"OnlyDeployer","inputs":[]},{"type":"error","name":"RLPOffsetOutOfBounds","inputs":[]},{"type":"error","name":"ReceiptStatusNotSuccess","inputs":[]},{"type":"error","name":"RecipientMismatch","inputs":[]},{"type":"error","name":"TargetBlockInFuture","inputs":[]},{"type":"error","name":"TargetBlockTooOld","inputs":[]},{"type":"error","name":"TxFailed","inputs":[]},{"type":"error","name":"UnsupportedTxType","inputs":[]},{"type":"error","name":"ZeroPaymentAmount","inputs":[]},{"type":"error","name":"ZeroRewardAmount","inputs":[]}],"bytecode":{"object":"0x60e0601f611e9538819003918201601f19168301916001600160401b038311848410176101205780849260809460405283398101031261011c578051906001600160a01b038216820361011c576020810151606060408301519201519260a05260c0523360805280151580610113575b6100c1575b604051611d6090816101358239608051818181610166015281816105db0152818161068d0152610f9d015260a051818181610317015261062d015260c0518181816102f5015261039d0152f35b8181018082116100ff5734036100f057805f5560025560015561010061ff001960075416176007555f80610074565b63201c04ab60e01b5f5260045ffd5b634e487b7160e01b5f52601160045260245ffd5b5081151561006f565b5f80fd5b634e487b7160e01b5f52604160045260245ffdfe60806040526004361015610011575f80fd5b5f3560e01c8063046f7da2146101545780631aa7c0ec1461014f57806323a8b41a1461014a5780632feef2ec14610145578063308657d71461014057806333ee5f351461013b5780633ccfd60b146101365780633d2691bc146101315780635a4fd6451461012c57806364c9ec6f146101275780636b892b221461012257806380f323a71461011d57806381972d00146101185780638677ab23146101135780638bd03d0a1461010e578063a65e2cfd14610109578063cb766a5614610104578063d415b3f9146100ff578063f3a504f2146100fa5763fe03a460146100f5575f80fd5b6107ae565b610789565b61076c565b610748565b610679565b61065c565b610618565b6105c9565b6105ac565b61057f565b6104b2565b610496565b61047a565b6103ff565b6103e2565b6103c0565b610386565b6101db565b6101b3565b346101af575f3660031901126101af577f00000000000000000000000000000000000000000000000000000000000000006001600160a01b031633036101a0576007805460ff19169055005b63618bbdd560e01b5f5260045ffd5b5f80fd5b346101af575f3660031901126101af576003546040516001600160a01b039091168152602090f35b346101af5760403660031901126101af5760043567ffffffffffffffff81116101af57806004019060c060031982360301126101af5761022760243561022184806107cb565b9061093b565b61023a61023483806107cb565b90610aab565b602482019161027b61027761024f85876107cb565b61025f60448697939701896107cb565b60a48701979161026f898c6107cb565b949093610bb4565b1590565b610377576102776102c491608461029b61029588806107cb565b90610bdb565b9161026f60648201966102bb6102b1898c6107cb565b959094018b6107cb565b9290918b6107cb565b610368576102776102d86102de92856107cb565b90610c3c565b610359576102f26102779161033c936107cb565b907f0000000000000000000000000000000000000000000000000000000000000000917f000000000000000000000000000000000000000000000000000000000000000091610d0c565b61034a57610348610f27565b005b633cff557560e11b5f5260045ffd5b632b96f51360e01b5f5260045ffd5b637b374dd160e01b5f5260045ffd5b63c89e37db60e01b5f5260045ffd5b346101af575f3660031901126101af5760206040517f00000000000000000000000000000000000000000000000000000000000000008152f35b346101af575f3660031901126101af57602060ff600754166040519015158152f35b346101af575f3660031901126101af576020600454604051908152f35b346101af575f3660031901126101af57610417610f8d565b61041f610fcd565b610427611004565b61043e61ff0019600754166007555f6001555f8055565b801561046b575f80808093335af1610454610859565b501561045c57005b63b12d13eb60e01b5f5260045ffd5b6353cd7f7960e01b5f5260045ffd5b346101af575f3660031901126101af5760206040516101008152f35b346101af575f3660031901126101af5760205f54604051908152f35b5f3660031901126101af576004548015159081610575575b50610542575b60075460ff8160081c16156105335760ff16610524576104ee6108ce565b610515575f5460011c34106105065761034834611016565b63e92c469f60e01b5f5260045ffd5b63129f78e960e11b5f5260045ffd5b632479328960e01b5f5260045ffd5b636af784dd60e11b5f5260045ffd5b6005545f54818101809111610570575f556006549081018091116105705760065561056b610fcd565b6104d0565b610883565b905042115f6104ca565b346101af575f3660031901126101af57610597610f8d565b600160ff19600754161760075561041f610fcd565b346101af575f3660031901126101af576020600554604051908152f35b346101af575f3660031901126101af577f00000000000000000000000000000000000000000000000000000000000000006001600160a01b031633036101a0576007805460ff19166001179055005b346101af575f3660031901126101af576040517f00000000000000000000000000000000000000000000000000000000000000006001600160a01b03168152602090f35b346101af575f3660031901126101af576020600154604051908152f35b60403660031901126101af576004356024357f00000000000000000000000000000000000000000000000000000000000000006001600160a01b031633036101a05760075460081c60ff1661073957811561072a57801561071b576106de81836108c1565b340361070c576106f3826106f8935f55600255565b600155565b61034861010061ff00196007541617600755565b63201c04ab60e01b5f5260045ffd5b63932ca0a360e01b5f5260045ffd5b63ea1083a760e01b5f5260045ffd5b635adf638760e01b5f5260045ffd5b346101af575f3660031901126101af5760206107626108ce565b6040519015158152f35b346101af575f3660031901126101af576020600254604051908152f35b346101af575f3660031901126101af57602060ff60075460081c166040519015158152f35b346101af575f3660031901126101af576020600654604051908152f35b903590601e19813603018212156101af570180359067ffffffffffffffff82116101af576020019181360383136101af57565b634e487b7160e01b5f52604160045260245ffd5b6040519190601f01601f1916820167ffffffffffffffff81118382101761083857604052565b6107fe565b67ffffffffffffffff811161083857601f01601f191660200190565b3d1561087e573d9061087261086d8361083d565b610812565b9182523d5f602084013e565b606090565b634e487b7160e01b5f52601160045260245ffd5b906001820180921161057057565b906015820180921161057057565b600101908160011161057057565b9190820180921161057057565b60045480151590816108de575090565b905042111590565b60011981019190821161057057565b5f1981019190821161057057565b9190820391821161057057565b92919261091f61086d8361083d565b93828552828201116101af57815f926020928387013784010152565b9061094f61027760075460ff9060081c1690565b610533576003546001600160a01b03163314801590610a0f575b610a00574383116109f1576101006109818443610903565b116109e257824080156109d357610999368385610910565b60208151910120036109c4576109ae9161103e565b036109b557565b63048a12f560e11b5f5260045ffd5b63ff28378760e01b5f5260045ffd5b63bfc9f0d360e01b5f5260045ffd5b63c42a018560e01b5f5260045ffd5b63058968cf60e41b5f5260045ffd5b6337b5f20360e21b5f5260045ffd5b50610a1b6102776108ce565b610969565b634e487b7160e01b5f52603260045260245ffd5b9015610a3d5790565b610a20565b90821015610a3d570190565b60ff60f6199116019060ff821161057057565b60ff607f199116019060ff821161057057565b60ff60bf199116019060ff821161057057565b60ff60b6199116019060ff821161057057565b60ff166001019060ff821161057057565b905f600360fe1b6001600160f81b0319610ad6610ac88587610a34565b356001600160f81b03191690565b1610610ba557601f60fb1b6001600160f81b0319610af7610ac88587610a34565b1610610b9c5780610b31610b2b610b26610b21610b1b610ac8610b3797898b610a42565b60f81c90565b610a4e565b610a9a565b60ff1690565b906108c1565b905b5f5b60048110610b875750600560fd1b906001600160f81b031990610b6490610ac890859087610a42565b1603610b7857610b7390610897565b013590565b633954003560e11b5f5260045ffd5b91610b9560019183866110ee565b9201610b3b565b50600190610b39565b63c0098bd960e01b5f5260045ffd5b610bca610bd292939495610bd898973691610910565b923691610910565b90611276565b90565b90610be68183611430565b905f5b60058110610c275750600560fd1b906001600160f81b031990610c0e90849086610a42565b351603610b785760018101811161057057016001013590565b91610c3560019183866110ee565b9201610be9565b5f9082151580610cf0575b610ce7575b60c060ff610c61610b1b610ac8868887610a42565b1610610cd857610b1b610ac882858560f860ff610c8b610b1b610ac8839b60019d610cb59c610a42565b1610610ccf5780610b31610b2b610b26610b21610b1b610ac8610caf97898b610a42565b91610a42565b1603610cc057600190565b63e9dd8a9d60e01b5f5260045ffd5b610caf90610897565b631bd5dcf760e31b5f5260045ffd5b60019150610c4c565b50608060ff610d05610b1b610ac88786610a34565b1610610c47565b90916003905f84151580610f0b575b610ec3575b60c060ff610d35610b1b610ac8858a8a610a42565b1610610cd8578060f860ff610d54610b1b610ac8610d7a968b8b610a42565b1610610eba5760ff610d73610b26610b21610b1b610ac8868c8c610a42565b16906108c1565b915f905b808210610ea3575050609460ff610d9c610b1b610ac8868989610a42565b1603610e94576001600160a01b03168282016001013560601c03610e8557610dc3906108a5565b91610dd5610b1b610ac8858486610a42565b925f9260ff851694608086105f14610e065750505050505b03610df757600190565b6355e97b0d60e01b5f5260045ffd5b90919293946080145f14610e1f5750505050505f610ded565b610b2b610e2e91939293610a61565b915f935b838510610e43575050505050610ded565b9091929394610e5460019160081b90565b610e79610b2b610b1b610ac8610e728b610e6d8b610897565b6108c1565b8789610a42565b17950193929190610e32565b63c0ee95bb60e01b5f5260045ffd5b63e6c4247b60e01b5f5260045ffd5b9092610eb260019187876110ee565b930190610d7e565b60ff6001610d73565b509050610ed6610b1b610ac88585610a34565b6001919060ff16808303610eed5750600491610d20565b600203610efc57600591610d20565b636fc3daa360e11b5f5260045ffd5b50608060ff610f20610b1b610ac88989610a34565b1610610d1b565b6005545f548101809111610570576001548101809111610570575f808080936003546001600160601b0360a01b8116600355826005558260045561ff0019600754166007558260015582805560018060a01b03165af1610f85610859565b501561045c57565b60ff60075460081c1615610533577f00000000000000000000000000000000000000000000000000000000000000006001600160a01b031633036101a057565b610fd56108ce565b610ff5576001600160601b0360a01b600354166003555f6005555f600455565b639cbc1de160e01b5f5260045ffd5b60015460025481018091116105705790565b336001600160601b0360a01b600354161760035561012c420180421161057057600455600555565b6110488282611430565b915f5b600881106110d95750611065610b1b610ac8858486610a42565b925f9260ff851694608086105f1461107f57505050505090565b6110909193949550610b2b90610a61565b915f935b8385106110a357505050505090565b90919293946110b460019160081b90565b6110cd610b2b610b1b610ac8610e728b610e6d8b610897565b17950193929190611094565b926110e760019183856110ee565b930161104b565b91908082101561124957611109610b1b610ac8848487610a42565b9060ff8216608081101561112457505050610bd89150610897565b91929160b881101561114c575050610bd89250610b2b611146610b3192610897565b92610a61565b90929060c08110156111c25750610b2b61116891949394610a87565b915f935f915b84831061118957505050610bd89291610e6d610e6d92610897565b90919461119860019160081b90565b6111b8610b2b610b1b610ac86111b18b610e6d8b610897565b8888610a42565b179501919061116e565b90929060f811156111e85750610bd89250610b2b6111e2610b3192610897565b92610a74565b9291610b2b6111f691610a4e565b915f935f915b84831061121757505050610bd89291610e6d610e6d92610897565b90919461122660019160081b90565b61123f610b2b610b1b610ac86111b18b610e6d8b610897565b17950191906111fc565b6318d76ae160e11b5f5260045ffd5b805115610a3d5760200190565b908151811015610a3d570160200190565b919390929190600360fe1b6001600160f81b0319611297610ac88689610a34565b161061142157601f60fb1b6001600160f81b03196112b8610ac88689610a34565b1610611417576112dc6112d7610b2b610b21610b1b610ac8888b610a34565b6108b3565b9492905b945f5b8282106112f557505050505050505f90565b61131361130c8361130736878a610910565b61158d565b90936108c1565b9682516020840120036113b557600360fe1b61134f61134261133485611258565b516001600160f81b03191690565b6001600160f81b03191690565b106113b5578590846001601f60fb1b61136d61134261133488611258565b10156113f9575b61137e8186611734565b601181036113c05750611390946118bf565b9491156113b55784156113a95793915b919590936112e3565b50505050505050600190565b505050505050505f90565b9093506002141590506113ed578487926113d994611779565b9491156113b55784156113a95793916113a0565b50505050505050505f90565b506114126112d7610b2b610b21610b1b61133489611258565b611374565b60019492906112e0565b63ebb47d1d60e01b5f5260045ffd5b5f600360fe1b6001600160f81b031961144c610ac88686610a34565b1610610ba557601f60fb1b6001600160f81b031961146d610ac88686610a34565b161061153f5780610b31610b2b610b26610b21610b1b610ac8611491978a8a610a42565b905b61a5bd46148015611534575b6114aa575b50905090565b5f5b6003811061151f5750600360fe1b6114cb611342610ac8858786610a42565b10610ba557601f60fb1b6114e6611342610ac8858786610a42565b1061150f57610b2b610b26610b21610b1b610ac88661150898610b3197610a42565b805f6114a4565b5061151a9150610897565b611508565b9161152d60019185846110ee565b92016114ac565b5061a5bf461461149f565b50600190611493565b60409061155482610812565b6001815291601f1901366020840137565b9061157261086d8361083d565b8281528092611583601f199161083d565b0190602036910137565b8051821015611249576115a6610b1b6113348484611265565b9160ff831660808110156115df575050506115bf611548565b9060f81b6001600160f81b0319165f1a6115d882611258565b5390600190565b919392909160b88110156116495750610b2b6115fa91610a61565b9061160482611565565b935f5b83811061161a57505050610bd8906108b3565b80611636611334611630600194610e6d88610897565b85611265565b5f1a6116428289611265565b5301611607565b60c011156116e757610b2b61165d91610a87565b5f915f5b8281106116b9575061167283611565565b945f5b84811061168c5750505090610e6d610bd8926108b3565b806116a6611334611630600194610e6d89610e6d8a610897565b5f1a6116b2828a611265565b5301611675565b9260019060081b6116df610b2b610b1b6113346116d989610e6d89610897565b8b611265565b179301611661565b50916116f383826119d4565b926116fd84611565565b915f5b85811061170e575050509190565b80611721611334611630600194876108c1565b5f1a61172d8287611265565b5301611700565b5f92915b815181101561175f5761174b81836119d4565b810180911161057057600190930192611738565b5050565b908160011b918083046002149015171561057057565b83949291611787818361158d565b93906117a6602061179d610b1b61133485611258565b16151591611b01565b9788911561184857506117ba9051876108c1565b6117c48251611763565b146117d9575b505050505050505f905f905f90565b86866001928251611836575b5050506117f3575b806117ca565b61180692611800916108c1565b9061158d565b506020815191012090602081519101201461182457808080806117ed565b61182f9151906108c1565b6001915f90565b6118409350611c6c565b86865f6117e5565b611859939495965061027792611c6c565b6118b25761186a92611800916108c1565b50908151602081145f146118925750602061188a920151925b51906108c1565b916001929190565b80156118a657602061188a93012092611883565b505050505f905f905f90565b50505050505f905f905f90565b919092936118cd8251611763565b8510156119775750610b1b6113346118ef926118e98760011c90565b90611265565b6001841661196e5760041c600f16915b905f925b60ff8116841061194e5750611918925061158d565b50805180156119435761188a91602082036119395760209150015191610897565b6020012091610897565b5050505f905f905f90565b9091600161196282610b3160ff94876119d4565b94019392919050611903565b600f16916118ff565b9290509392935f915b601083106119ba57611992925061158d565b50602081519101209060208151910120145f146119b157600191905f90565b5f915081908190565b906119cb81610b31600193856119d4565b92019190611980565b908151811015611249576119ee610b1b6113348385611265565b9160ff83166080811015611a055750505050600190565b60b8811015611a2057505050610b2b610b26610bd892610a61565b60c0811015611a8c575091610b2b611a3791610a87565b905f925f915b838310611a545750505090610e6d610bd8926108b3565b909193611a6360019160081b90565b611a82610b2b610b1b611334611a7c8a610e6d89610897565b88611265565b1794019190611a3d565b60f81115611aa5575050610b2b610b26610bd892610a74565b91610b2b611ab291610a4e565b905f925f915b838310611acf5750505090610e6d610bd8926108b3565b909193611ade60019160081b90565b611af7610b2b610b1b611334611a7c8a610e6d89610897565b1794019190611ab8565b90815115611c6a57611b18610b1b61133484611258565b6010811615611be757611b3b611b36611b318551611763565b6108f5565b611565565b9060f81b600f60f81b165f1a611b5082611258565b5360015b8351811015611be25780611b8f611b7f611b76610b1b6113346001968a611265565b60041c600f1690565b60f81b6001600160f81b03191690565b611ba8611b9e611b3184611763565b915f1a9185611265565b53611bcf600f611bbe610b1b611334858a611265565b1660f81b6001600160f81b03191690565b611bdb611b9e83611763565b5301611b54565b509150565b50611bfd611b36611bf88451611763565b6108e6565b60015b8351811015611be25780611c22611b7f611b76610b1b6113346001968a611265565b611c36611b9e611c31846108f5565b611763565b53611c4c600f611bbe610b1b611334858a611265565b611c63611b9e611c5e611c31856108f5565b610897565b5301611c00565b565b919091611c7a8251846108c1565b611c848251611763565b10611d23575f5b8251811015611d1a57611ca7611ca182866108c1565b60011690565b611cfc57611cd0611b76610b1b611334611cca611cc4868a6108c1565b60011c90565b86611265565b60ff611ce5610b2b610b1b6113348689611265565b911603611cf457600101611c8b565b505050505f90565b600f611d14610b1b611334611cca611cc4868a6108c1565b16611cd0565b50505050600190565b5050505f9056fea264697066735822122089d6356b3548477346cc4282f267bd777502206b21c29d3e8d7b8247db476ba664736f6c634300081e0033","linkReferences":{}},"methodIdentifiers":{"MAX_BLOCK_LOOKBACK()":"3d2691bc","bond()":"64c9ec6f","bondAmount()":"80f323a7","bondedExecutor()":"1aa7c0ec","cancelAndWithdraw()":"6b892b22","cancellationRequest()":"308657d7","collect((bytes,bytes,bytes,bytes,bytes,bytes),uint256)":"23a8b41a","currentPaymentAmount()":"8bd03d0a","currentRewardAmount()":"5a4fd645","executionDeadline()":"33ee5f35","expectedAmount()":"2feef2ec","expectedRecipient()":"8677ab23","fund(uint256,uint256)":"a65e2cfd","funded()":"f3a504f2","is_bonded()":"cb766a56","originalRewardAmount()":"d415b3f9","requestCancellation()":"81972d00","resume()":"046f7da2","totalBondsDeposited()":"fe03a460","withdraw()":"3ccfd60b"},"id":22}