{"abi":[{"type":"constructor","inputs":[{"name":"_expectedRecipient","type":"address","internalType":"address"},{"name":"_expectedAmount","type":"uint256","internalType":"uint256"},{"name":"_blindedSigner","type":"address","internalType":"address"},{"name":"_currentRewardAmount","type":"uint256","internalType":"uint256"},{"name":"_bondAmount","type":"uint256","internalType":"uint256"}],"stateMutability":"payable"},{"type":"function","name":"MAX_BLOCK_LOOKBACK","inputs":[],"outputs":[{"name":"","type":"uint256","internalType":"uint256"}],"stateMutability":"view"},{"type":"function","name":"blindedSigner","inputs":[],"outputs":[{"name":"","type":"address","internalType":"address"}],"stateMutability":"view"},{"type":"function","name":"bond","inputs":[{"name":"bondSig","type":"bytes","internalType":"bytes"}],"outputs":[],"stateMutability":"nonpayable"},{"type":"function","name":"bondPot","inputs":[],"outputs":[{"name":"","type":"uint256","internalType":"uint256"}],"stateMutability":"view"},{"type":"function","name":"bondedExecutor","inputs":[],"outputs":[{"name":"","type":"address","internalType":"address"}],"stateMutability":"view"},{"type":"function","name":"cancelAndWithdraw","inputs":[],"outputs":[],"stateMutability":"nonpayable"},{"type":"function","name":"cancellationRequest","inputs":[],"outputs":[{"name":"","type":"bool","internalType":"bool"}],"stateMutability":"view"},{"type":"function","name":"collect","inputs":[{"name":"proof","type":"tuple","internalType":"struct EscrowNative.NativeTransferProof","components":[{"name":"blockHeader","type":"bytes","internalType":"bytes"},{"name":"transactionRlp","type":"bytes","internalType":"bytes"},{"name":"txProofNodes","type":"bytes","internalType":"bytes"},{"name":"receiptRlp","type":"bytes","internalType":"bytes"},{"name":"receiptProofNodes","type":"bytes","internalType":"bytes"},{"name":"path","type":"bytes","internalType":"bytes"}]},{"name":"targetBlockNumber","type":"uint256","internalType":"uint256"}],"outputs":[],"stateMutability":"nonpayable"},{"type":"function","name":"currentPaymentAmount","inputs":[],"outputs":[{"name":"","type":"uint256","internalType":"uint256"}],"stateMutability":"view"},{"type":"function","name":"currentRewardAmount","inputs":[],"outputs":[{"name":"","type":"uint256","internalType":"uint256"}],"stateMutability":"view"},{"type":"function","name":"domainSeparator","inputs":[],"outputs":[{"name":"","type":"bytes32","internalType":"bytes32"}],"stateMutability":"view"},{"type":"function","name":"executionDeadline","inputs":[],"outputs":[{"name":"","type":"uint256","internalType":"uint256"}],"stateMutability":"view"},{"type":"function","name":"expectedAmount","inputs":[],"outputs":[{"name":"","type":"uint256","internalType":"uint256"}],"stateMutability":"view"},{"type":"function","name":"expectedRecipient","inputs":[],"outputs":[{"name":"","type":"address","internalType":"address"}],"stateMutability":"view"},{"type":"function","name":"fund","inputs":[{"name":"_currentRewardAmount","type":"uint256","internalType":"uint256"},{"name":"_bondAmount","type":"uint256","internalType":"uint256"}],"outputs":[],"stateMutability":"payable"},{"type":"function","name":"funded","inputs":[],"outputs":[{"name":"","type":"bool","internalType":"bool"}],"stateMutability":"view"},{"type":"function","name":"is_bonded","inputs":[],"outputs":[{"name":"","type":"bool","internalType":"bool"}],"stateMutability":"view"},{"type":"function","name":"originalRewardAmount","inputs":[],"outputs":[{"name":"","type":"uint256","internalType":"uint256"}],"stateMutability":"view"},{"type":"function","name":"requestCancellation","inputs":[],"outputs":[],"stateMutability":"nonpayable"},{"type":"function","name":"resume","inputs":[],"outputs":[],"stateMutability":"nonpayable"},{"type":"error","name":"AlreadyFunded","inputs":[]},{"type":"error","name":"AmountMismatch","inputs":[]},{"type":"error","name":"BlockHashUnavailable","inputs":[]},{"type":"error","name":"BlockHeaderMismatch","inputs":[]},{"type":"error","name":"BlockNumberMismatch","inputs":[]},{"type":"error","name":"BondActive","inputs":[]},{"type":"error","name":"BondTransferFailed","inputs":[]},{"type":"error","name":"CancellationRequested","inputs":[]},{"type":"error","name":"ECDSAInvalidSignature","inputs":[]},{"type":"error","name":"ECDSAInvalidSignatureLength","inputs":[{"name":"length","type":"uint256","internalType":"uint256"}]},{"type":"error","name":"ECDSAInvalidSignatureS","inputs":[{"name":"s","type":"bytes32","internalType":"bytes32"}]},{"type":"error","name":"ETHTransferFailed","inputs":[]},{"type":"error","name":"ExecutorAlreadyBonded","inputs":[]},{"type":"error","name":"ExpectedRLPList","inputs":[]},{"type":"error","name":"IncorrectETHAmount","inputs":[]},{"type":"error","name":"InvalidAddress","inputs":[]},{"type":"error","name":"InvalidBondSignature","inputs":[]},{"type":"error","name":"InvalidNativeTransfer","inputs":[]},{"type":"error","name":"InvalidRLP","inputs":[]},{"type":"error","name":"InvalidRLPEncoding","inputs":[]},{"type":"error","name":"InvalidRLPList","inputs":[]},{"type":"error","name":"InvalidReceiptProof","inputs":[]},{"type":"error","name":"InvalidTxProof","inputs":[]},{"type":"error","name":"NoWithdrawableFunds","inputs":[]},{"type":"error","name":"NotFunded","inputs":[]},{"type":"error","name":"OnlyBondedExecutor","inputs":[]},{"type":"error","name":"OnlyDeployer","inputs":[]},{"type":"error","name":"RLPOffsetOutOfBounds","inputs":[]},{"type":"error","name":"ReceiptStatusNotSuccess","inputs":[]},{"type":"error","name":"RecipientMismatch","inputs":[]},{"type":"error","name":"TargetBlockInFuture","inputs":[]},{"type":"error","name":"TargetBlockTooOld","inputs":[]},{"type":"error","name":"TxFailed","inputs":[]},{"type":"error","name":"UnsupportedTxType","inputs":[]},{"type":"error","name":"ZeroBlindedSigner","inputs":[]},{"type":"error","name":"ZeroBondAmount","inputs":[]},{"type":"error","name":"ZeroRewardAmount","inputs":[]}],"bytecode":{"object":"0x6101208060405260a0816122e3803803809161001b82856101f1565b8339810103126101ed5761002e81610228565b9060208101519061004160408201610228565b6060820151608090920151936001600160a01b038216156101de5760e052826101005260c0523360a05260405160208101907f8b73c3c69bb8fe3d512ecc4cf759cc79239f7b179b0ffacaa9a75d522b39400f82527fa222588f33d25c694dfae6965a4e2410aa5c3f8d5d6c2f0a3100d528225c8a0860408201527fc89efdaa54c0f20c7adf612882df0950f5a951637e0307cdcb4c672f298b8bc660608201524660808201523060a082015260a081526100fd60c0826101f1565b5190206080528061017e575b604051612085908161025e82396080518181816108e601526116ab015260a051818181610166015281816105cc015281816106840152610736015260c0518181816104d1015261083a015260e05181818161031701526106d60152610100518181816102f50152818161039d015261077f0152f35b82156101cf5761019783610192848461023c565b61023c565b34036101c057805f5560025560015560055561010061ff001960065416176006555f8080610109565b63201c04ab60e01b5f5260045ffd5b636edb2d2f60e11b5f5260045ffd5b635f39711760e11b5f5260045ffd5b5f80fd5b601f909101601f19168101906001600160401b0382119082101761021457604052565b634e487b7160e01b5f52604160045260245ffd5b51906001600160a01b03821682036101ed57565b9190820180921161024957565b634e487b7160e01b5f52601160045260245ffdfe60806040526004361015610011575f80fd5b5f3560e01c8063046f7da2146101545780631aa7c0ec1461014f57806323a8b41a1461014a5780632feef2ec14610145578063308657d71461014057806333ee5f351461013b5780633d2691bc146101365780635a4fd645146101315780635c56f7ce1461012c5780636332cd85146101275780636b892b221461012257806381972d001461011d5780638677ab23146101185780638bd03d0a14610113578063a65e2cfd1461010e578063a967d93214610109578063cb766a5614610104578063d415b3f9146100ff578063f3a504f2146100fa5763f698da25146100f5575f80fd5b6108cf565b6108aa565b61088d565b610869565b610825565b610722565b610705565b6106c1565b610672565b6105a2565b610585565b610437565b61041b565b6103ff565b6103e2565b6103c0565b610386565b6101db565b6101b3565b346101af575f3660031901126101af577f00000000000000000000000000000000000000000000000000000000000000006001600160a01b031633036101a0576006805460ff19169055005b63618bbdd560e01b5f5260045ffd5b5f80fd5b346101af575f3660031901126101af576003546040516001600160a01b039091168152602090f35b346101af5760403660031901126101af5760043567ffffffffffffffff81116101af57806004019060c060031982360301126101af576102276024356102218480610909565b90610a8a565b61023a6102348380610909565b90610bfa565b602482019161027b61027761024f8587610909565b61025f6044869793970189610909565b60a48701979161026f898c610909565b949093610d03565b1590565b610377576102776102c491608461029b6102958880610909565b90610d2a565b9161026f60648201966102bb6102b1898c610909565b959094018b610909565b9290918b610909565b610368576102776102d86102de9285610909565b90610d8b565b610359576102f26102779161033c93610909565b907f0000000000000000000000000000000000000000000000000000000000000000917f000000000000000000000000000000000000000000000000000000000000000091610e5b565b61034a57610348611071565b005b633cff557560e11b5f5260045ffd5b632b96f51360e01b5f5260045ffd5b637b374dd160e01b5f5260045ffd5b63c89e37db60e01b5f5260045ffd5b346101af575f3660031901126101af5760206040517f00000000000000000000000000000000000000000000000000000000000000008152f35b346101af575f3660031901126101af57602060ff600654166040519015158152f35b346101af575f3660031901126101af576020600454604051908152f35b346101af575f3660031901126101af5760206040516101008152f35b346101af575f3660031901126101af5760205f54604051908152f35b346101af5760203660031901126101af5760043567ffffffffffffffff81116101af57366023820112156101af57806004013567ffffffffffffffff81116101af5736602482840101116101af57600454801515908161057b575b5061056e575b60065460ff8160081c161561055f5760ff16610550576104b6610a12565b6105415760246104c7920133611643565b6001600160a01b037f00000000000000000000000000000000000000000000000000000000000000008116911603610533576105016110cc565b5f8080806005546105115f600555565b335af161051c610993565b501561052457005b6383e6cc6b60e01b5f5260045ffd5b62b8406360e61b5f5260045ffd5b63129f78e960e11b5f5260045ffd5b632479328960e01b5f5260045ffd5b636af784dd60e11b5f5260045ffd5b6105766110f6565b610498565b905042115f610492565b346101af575f3660031901126101af576020600554604051908152f35b346101af575f3660031901126101af5760ff6001811960065416178060065560081c161561055f577f00000000000000000000000000000000000000000000000000000000000000006001600160a01b031633036101a0576106026110f6565b61061661060d611127565b60055490610a05565b61062d61ff0019600654166006555f6001555f8055565b6106365f600555565b8015610663575f80808093335af161064c610993565b501561065457005b63b12d13eb60e01b5f5260045ffd5b6353cd7f7960e01b5f5260045ffd5b346101af575f3660031901126101af577f00000000000000000000000000000000000000000000000000000000000000006001600160a01b031633036101a0576006805460ff19166001179055005b346101af575f3660031901126101af576040517f00000000000000000000000000000000000000000000000000000000000000006001600160a01b03168152602090f35b346101af575f3660031901126101af576020600154604051908152f35b60403660031901126101af576004356024357f00000000000000000000000000000000000000000000000000000000000000006001600160a01b031633036101a05760065460081c60ff166108165781156108075780156107f8577f0000000000000000000000000000000000000000000000000000000000000000916107b2826107ad8584610a05565b610a05565b34036107e9576107d5926107cb826107d0935f55600255565b600155565b600555565b61034861010061ff00196006541617600655565b63201c04ab60e01b5f5260045ffd5b636edb2d2f60e11b5f5260045ffd5b63ea1083a760e01b5f5260045ffd5b635adf638760e01b5f5260045ffd5b346101af575f3660031901126101af576040517f00000000000000000000000000000000000000000000000000000000000000006001600160a01b03168152602090f35b346101af575f3660031901126101af576020610883610a12565b6040519015158152f35b346101af575f3660031901126101af576020600254604051908152f35b346101af575f3660031901126101af57602060ff60065460081c166040519015158152f35b346101af575f3660031901126101af5760206040517f00000000000000000000000000000000000000000000000000000000000000008152f35b903590601e19813603018212156101af570180359067ffffffffffffffff82116101af576020019181360383136101af57565b634e487b7160e01b5f52604160045260245ffd5b90601f8019910116810190811067ffffffffffffffff82111761097257604052565b61093c565b67ffffffffffffffff811161097257601f01601f191660200190565b3d156109bd573d906109a482610977565b916109b26040519384610950565b82523d5f602084013e565b606090565b634e487b7160e01b5f52601160045260245ffd5b90600182018092116109e457565b6109c2565b90601582018092116109e457565b60010190816001116109e457565b919082018092116109e457565b6004548015159081610a22575090565b905042111590565b6001198101919082116109e457565b5f198101919082116109e457565b919082039182116109e457565b929192610a6082610977565b91610a6e6040519384610950565b8294818452818301116101af578281602093845f960137010152565b90610a9e61027760065460ff9060081c1690565b61055f576003546001600160a01b03163314801590610b5e575b610b4f57438311610b4057610100610ad08443610a47565b11610b315782408015610b2257610ae8368385610a54565b6020815191012003610b1357610afd91611139565b03610b0457565b63048a12f560e11b5f5260045ffd5b63ff28378760e01b5f5260045ffd5b63bfc9f0d360e01b5f5260045ffd5b63c42a018560e01b5f5260045ffd5b63058968cf60e41b5f5260045ffd5b6337b5f20360e21b5f5260045ffd5b50610b6a610277610a12565b610ab8565b634e487b7160e01b5f52603260045260245ffd5b9015610b8c5790565b610b6f565b90821015610b8c570190565b60ff60f6199116019060ff82116109e457565b60ff607f199116019060ff82116109e457565b60ff60bf199116019060ff82116109e457565b60ff60b6199116019060ff82116109e457565b60ff166001019060ff82116109e457565b905f600360fe1b6001600160f81b0319610c25610c178587610b83565b356001600160f81b03191690565b1610610cf457601f60fb1b6001600160f81b0319610c46610c178587610b83565b1610610ceb5780610c80610c7a610c75610c70610c6a610c17610c8697898b610b91565b60f81c90565b610b9d565b610be9565b60ff1690565b90610a05565b905b5f5b60048110610cd65750600560fd1b906001600160f81b031990610cb390610c1790859087610b91565b1603610cc757610cc2906109d6565b013590565b633954003560e11b5f5260045ffd5b91610ce460019183866111e9565b9201610c8a565b50600190610c88565b63c0098bd960e01b5f5260045ffd5b610d19610d2192939495610d2798973691610a54565b923691610a54565b90611371565b90565b90610d35818361152b565b905f5b60058110610d765750600560fd1b906001600160f81b031990610d5d90849086610b91565b351603610cc7576001810181116109e457016001013590565b91610d8460019183866111e9565b9201610d38565b5f9082151580610e3f575b610e36575b60c060ff610db0610c6a610c17868887610b91565b1610610e2757610c6a610c1782858560f860ff610dda610c6a610c17839b60019d610e049c610b91565b1610610e1e5780610c80610c7a610c75610c70610c6a610c17610dfe97898b610b91565b91610b91565b1603610e0f57600190565b63e9dd8a9d60e01b5f5260045ffd5b610dfe906109d6565b631bd5dcf760e31b5f5260045ffd5b60019150610d9b565b50608060ff610e54610c6a610c178786610b83565b1610610d96565b90916003905f84151580611055575b61100d575b60c060ff610e84610c6a610c17858a8a610b91565b1610610e27578060f860ff610ea3610c6a610c17610ec9968b8b610b91565b16106110045760ff610ec2610c75610c70610c6a610c17868c8c610b91565b1690610a05565b915f905b808210610fed575050609460ff610eeb610c6a610c17868989610b91565b1603610fde576001600160a01b03168282016001013560601c03610fcf57610f12906109e9565b91610f24610c6a610c17858486610b91565b925f9260ff851694608086105f14610f555750505050505b03610f4657600190565b6355e97b0d60e01b5f5260045ffd5b90919293946080145f14610f6e5750505050505f610f3c565b610c7a610f7d91939293610bb0565b915f935b838510610f92575050505050610f3c565b9091929394610fa360019160081b90565b610fc3610c7a610c6a610c17610fbc8b6107ad8b6109d6565b8789610b91565b17950193929190610f81565b63c0ee95bb60e01b5f5260045ffd5b63e6c4247b60e01b5f5260045ffd5b9092610ffc60019187876111e9565b930190610ecd565b60ff6001610ec2565b509050611020610c6a610c178585610b83565b6001919060ff168083036110375750600491610e6f565b60020361104657600591610e6f565b636fc3daa360e11b5f5260045ffd5b50608060ff61106a610c6a610c178989610b83565b1610610e6a565b5f5460015481018091116109e4575f808080936003546bffffffffffffffffffffffff60a01b81166003558260045561ff0019600654166006558260015582805560018060a01b03165af16110c4610993565b501561065457565b336bffffffffffffffffffffffff60a01b600354161760035561012c42018042116109e457600455565b6110fe610a12565b61111857600380546001600160a01b03191690555f600455565b639cbc1de160e01b5f5260045ffd5b60015460025481018091116109e45790565b611143828261152b565b915f5b600881106111d45750611160610c6a610c17858486610b91565b925f9260ff851694608086105f1461117a57505050505090565b61118b9193949550610c7a90610bb0565b915f935b83851061119e57505050505090565b90919293946111af60019160081b90565b6111c8610c7a610c6a610c17610fbc8b6107ad8b6109d6565b1795019392919061118f565b926111e260019183856111e9565b9301611146565b91908082101561134457611204610c6a610c17848487610b91565b9060ff8216608081101561121f57505050610d2791506109d6565b91929160b8811015611247575050610d279250610c7a611241610c80926109d6565b92610bb0565b90929060c08110156112bd5750610c7a61126391949394610bd6565b915f935f915b84831061128457505050610d2792916107ad6107ad926109d6565b90919461129360019160081b90565b6112b3610c7a610c6a610c176112ac8b6107ad8b6109d6565b8888610b91565b1795019190611269565b90929060f811156112e35750610d279250610c7a6112dd610c80926109d6565b92610bc3565b9291610c7a6112f191610b9d565b915f935f915b84831061131257505050610d2792916107ad6107ad926109d6565b90919461132160019160081b90565b61133a610c7a610c6a610c176112ac8b6107ad8b6109d6565b17950191906112f7565b6318d76ae160e11b5f5260045ffd5b805115610b8c5760200190565b908151811015610b8c570160200190565b919390929190600360fe1b6001600160f81b0319611392610c178689610b83565b161061151c57601f60fb1b6001600160f81b03196113b3610c178689610b83565b1610611512576113d76113d2610c7a610c70610c6a610c17888b610b83565b6109f7565b9492905b945f5b8282106113f057505050505050505f90565b61140e6114078361140236878a610a54565b611751565b9093610a05565b9682516020840120036114b057600360fe1b61144a61143d61142f85611353565b516001600160f81b03191690565b6001600160f81b03191690565b106114b0578590846001601f60fb1b61146861143d61142f88611353565b10156114f4575b61147981866118f8565b601181036114bb575061148b94611a83565b9491156114b05784156114a45793915b919590936113de565b50505050505050600190565b505050505050505f90565b9093506002141590506114e8578487926114d49461193d565b9491156114b05784156114a457939161149b565b50505050505050505f90565b5061150d6113d2610c7a610c70610c6a61142f89611353565b61146f565b60019492906113db565b63ebb47d1d60e01b5f5260045ffd5b5f600360fe1b6001600160f81b0319611547610c178686610b83565b1610610cf457601f60fb1b6001600160f81b0319611568610c178686610b83565b161061163a5780610c80610c7a610c75610c70610c6a610c1761158c978a8a610b91565b905b61a5bd4614801561162f575b6115a5575b50905090565b5f5b6003811061161a5750600360fe1b6115c661143d610c17858786610b91565b10610cf457601f60fb1b6115e161143d610c17858786610b91565b1061160a57610c7a610c75610c70610c6a610c178661160398610c8097610b91565b805f61159f565b5061161591506109d6565b611603565b9161162860019185846111e9565b92016115a7565b5061a5bf461461159a565b5060019061158e565b916116ee6116f492610d279460405160208101917f017ab2ce48f3ed2b84d1da9d31a578e8a2f60972b9bfce11127c1725944faa11835260018060a01b0316604082015260408152611696606082610950565b519020604051602081019161190160f01b83527f000000000000000000000000000000000000000000000000000000000000000060228301526042820152604281526116e3606282610950565b519020923691610a54565b90611eee565b90929192611f46565b6040805190919061170e8382610950565b6001815291601f1901366020840137565b9061172982610977565b6117366040519182610950565b8281528092611747601f1991610977565b0190602036910137565b80518210156113445761176a610c6a61142f8484611360565b9160ff831660808110156117a3575050506117836116fd565b9060f81b6001600160f81b0319165f1a61179c82611353565b5390600190565b919392909160b881101561180d5750610c7a6117be91610bb0565b906117c88261171f565b935f5b8381106117de57505050610d27906109f7565b806117fa61142f6117f46001946107ad886109d6565b85611360565b5f1a6118068289611360565b53016117cb565b60c011156118ab57610c7a61182191610bd6565b5f915f5b82811061187d57506118368361171f565b945f5b84811061185057505050906107ad610d27926109f7565b8061186a61142f6117f46001946107ad896107ad8a6109d6565b5f1a611876828a611360565b5301611839565b9260019060081b6118a3610c7a610c6a61142f61189d896107ad896109d6565b8b611360565b179301611825565b50916118b78382611b98565b926118c18461171f565b915f5b8581106118d2575050509190565b806118e561142f6117f460019487610a05565b5f1a6118f18287611360565b53016118c4565b5f92915b81518110156119235761190f8183611b98565b81018091116109e4576001909301926118fc565b5050565b908160011b91808304600214901517156109e457565b8394929161194b8183611751565b939061196a6020611961610c6a61142f85611353565b16151591611cc5565b97889115611a0c575061197e905187610a05565b6119888251611927565b1461199d575b505050505050505f905f905f90565b868660019282516119fa575b5050506119b7575b8061198e565b6119ca926119c491610a05565b90611751565b50602081519101209060208151910120146119e857808080806119b1565b6119f3915190610a05565b6001915f90565b611a049350611e30565b86865f6119a9565b611a1d939495965061027792611e30565b611a7657611a2e926119c491610a05565b50908151602081145f14611a5657506020611a4e920151925b5190610a05565b916001929190565b8015611a6a576020611a4e93012092611a47565b505050505f905f905f90565b50505050505f905f905f90565b91909293611a918251611927565b851015611b3b5750610c6a61142f611ab392611aad8760011c90565b90611360565b60018416611b325760041c600f16915b905f925b60ff81168410611b125750611adc9250611751565b5080518015611b0757611a4e9160208203611afd57602091500151916109d6565b60200120916109d6565b5050505f905f905f90565b90916001611b2682610c8060ff9487611b98565b94019392919050611ac7565b600f1691611ac3565b9290509392935f915b60108310611b7e57611b569250611751565b50602081519101209060208151910120145f14611b7557600191905f90565b5f915081908190565b90611b8f81610c8060019385611b98565b92019190611b44565b90815181101561134457611bb2610c6a61142f8385611360565b9160ff83166080811015611bc95750505050600190565b60b8811015611be457505050610c7a610c75610d2792610bb0565b60c0811015611c50575091610c7a611bfb91610bd6565b905f925f915b838310611c1857505050906107ad610d27926109f7565b909193611c2760019160081b90565b611c46610c7a610c6a61142f611c408a6107ad896109d6565b88611360565b1794019190611c01565b60f81115611c69575050610c7a610c75610d2792610bc3565b91610c7a611c7691610b9d565b905f925f915b838310611c9357505050906107ad610d27926109f7565b909193611ca260019160081b90565b611cbb610c7a610c6a61142f611c408a6107ad896109d6565b1794019190611c7c565b90815115611e2e57611cdc610c6a61142f84611353565b6010811615611dab57611cff611cfa611cf58551611927565b610a39565b61171f565b9060f81b600f60f81b165f1a611d1482611353565b5360015b8351811015611da65780611d53611d43611d3a610c6a61142f6001968a611360565b60041c600f1690565b60f81b6001600160f81b03191690565b611d6c611d62611cf584611927565b915f1a9185611360565b53611d93600f611d82610c6a61142f858a611360565b1660f81b6001600160f81b03191690565b611d9f611d6283611927565b5301611d18565b509150565b50611dc1611cfa611dbc8451611927565b610a2a565b60015b8351811015611da65780611de6611d43611d3a610c6a61142f6001968a611360565b611dfa611d62611df584610a39565b611927565b53611e10600f611d82610c6a61142f858a611360565b611e27611d62611e22611df585610a39565b6109d6565b5301611dc4565b565b919091611e3e825184610a05565b611e488251611927565b10611ee7575f5b8251811015611ede57611e6b611e658286610a05565b60011690565b611ec057611e94611d3a610c6a61142f611e8e611e88868a610a05565b60011c90565b86611360565b60ff611ea9610c7a610c6a61142f8689611360565b911603611eb857600101611e4f565b505050505f90565b600f611ed8610c6a61142f611e8e611e88868a610a05565b16611e94565b50505050600190565b5050505f90565b8151919060418303611f1e57611f179250602082015190606060408401519301515f1a90611fc2565b9192909190565b50505f9160029190565b60041115611f3257565b634e487b7160e01b5f52602160045260245ffd5b611f4f81611f28565b80611f58575050565b611f6181611f28565b60018103611f785763f645eedf60e01b5f5260045ffd5b611f8181611f28565b60028103611f9c575063fce698f760e01b5f5260045260245ffd5b80611fa8600392611f28565b14611fb05750565b6335e2f38360e21b5f5260045260245ffd5b91907f7fffffffffffffffffffffffffffffff5d576e7357a4501ddfe92f46681b20a08411612044579160209360809260ff5f9560405194855216868401526040830152606082015282805260015afa15612039575f516001600160a01b0381161561202f57905f905f90565b505f906001905f90565b6040513d5f823e3d90fd5b5050505f916003919056fea2646970667358221220807d64c78c5b9f26d66fc157c6790b3d48d1f91471b47ee39a78fa83469e23f464736f6c634300081e0033","linkReferences":{}},"methodIdentifiers":{"MAX_BLOCK_LOOKBACK()":"3d2691bc","blindedSigner()":"a967d932","bond(bytes)":"5c56f7ce","bondPot()":"6332cd85","bondedExecutor()":"1aa7c0ec","cancelAndWithdraw()":"6b892b22","cancellationRequest()":"308657d7","collect((bytes,bytes,bytes,bytes,bytes,bytes),uint256)":"23a8b41a","currentPaymentAmount()":"8bd03d0a","currentRewardAmount()":"5a4fd645","domainSeparator()":"f698da25","executionDeadline()":"33ee5f35","expectedAmount()":"2feef2ec","expectedRecipient()":"8677ab23","fund(uint256,uint256)":"a65e2cfd","funded()":"f3a504f2","is_bonded()":"cb766a56","originalRewardAmount()":"d415b3f9","requestCancellation()":"81972d00","resume()":"046f7da2"},"storageLayout":{"storage":[{"astId":40212,"contract":"src/EscrowNative.sol:EscrowNative","label":"currentRewardAmount","offset":0,"slot":"0","type":"t_uint256"},{"astId":40214,"contract":"src/EscrowNative.sol:EscrowNative","label":"currentPaymentAmount","offset":0,"slot":"1","type":"t_uint256"},{"astId":40216,"contract":"src/EscrowNative.sol:EscrowNative","label":"originalRewardAmount","offset":0,"slot":"2","type":"t_uint256"},{"astId":40227,"contract":"src/EscrowNative.sol:EscrowNative","label":"bondedExecutor","offset":0,"slot":"3","type":"t_address"},{"astId":40229,"contract":"src/EscrowNative.sol:EscrowNative","label":"executionDeadline","offset":0,"slot":"4","type":"t_uint256"},{"astId":40231,"contract":"src/EscrowNative.sol:EscrowNative","label":"bondPot","offset":0,"slot":"5","type":"t_uint256"},{"astId":40233,"contract":"src/EscrowNative.sol:EscrowNative","label":"cancellationRequest","offset":0,"slot":"6","type":"t_bool"},{"astId":40235,"contract":"src/EscrowNative.sol:EscrowNative","label":"funded","offset":1,"slot":"6","type":"t_bool"}],"types":{"t_address":{"encoding":"inplace","label":"address","numberOfBytes":"20"},"t_bool":{"encoding":"inplace","label":"bool","numberOfBytes":"1"},"t_uint256":{"encoding":"inplace","label":"uint256","numberOfBytes":"32"}}},"id":23}