{"abi":[{"type":"constructor","inputs":[{"name":"_expectedRecipient","type":"address","internalType":"address"},{"name":"_expectedAmount","type":"uint256","internalType":"uint256"},{"name":"_currentRewardAmount","type":"uint256","internalType":"uint256"},{"name":"_currentPaymentAmount","type":"uint256","internalType":"uint256"}],"stateMutability":"payable"},{"type":"function","name":"MAX_BLOCK_LOOKBACK","inputs":[],"outputs":[{"name":"","type":"uint256","internalType":"uint256"}],"stateMutability":"view"},{"type":"function","name":"bond","inputs":[],"outputs":[],"stateMutability":"payable"},{"type":"function","name":"bondAmount","inputs":[],"outputs":[{"name":"","type":"uint256","internalType":"uint256"}],"stateMutability":"view"},{"type":"function","name":"bondedExecutor","inputs":[],"outputs":[{"name":"","type":"address","internalType":"address"}],"stateMutability":"view"},{"type":"function","name":"cancellationRequest","inputs":[],"outputs":[{"name":"","type":"bool","internalType":"bool"}],"stateMutability":"view"},{"type":"function","name":"collect","inputs":[{"name":"proof","type":"tuple","internalType":"struct EscrowNative.NativeTransferProof","components":[{"name":"blockHeader","type":"bytes","internalType":"bytes"},{"name":"transactionRlp","type":"bytes","internalType":"bytes"},{"name":"txProofNodes","type":"bytes","internalType":"bytes"},{"name":"receiptRlp","type":"bytes","internalType":"bytes"},{"name":"receiptProofNodes","type":"bytes","internalType":"bytes"},{"name":"path","type":"bytes","internalType":"bytes"}]},{"name":"targetBlockNumber","type":"uint256","internalType":"uint256"}],"outputs":[],"stateMutability":"nonpayable"},{"type":"function","name":"currentPaymentAmount","inputs":[],"outputs":[{"name":"","type":"uint256","internalType":"uint256"}],"stateMutability":"view"},{"type":"function","name":"currentRewardAmount","inputs":[],"outputs":[{"name":"","type":"uint256","internalType":"uint256"}],"stateMutability":"view"},{"type":"function","name":"executionDeadline","inputs":[],"outputs":[{"name":"","type":"uint256","internalType":"uint256"}],"stateMutability":"view"},{"type":"function","name":"expectedAmount","inputs":[],"outputs":[{"name":"","type":"uint256","internalType":"uint256"}],"stateMutability":"view"},{"type":"function","name":"expectedRecipient","inputs":[],"outputs":[{"name":"","type":"address","internalType":"address"}],"stateMutability":"view"},{"type":"function","name":"fund","inputs":[{"name":"_currentRewardAmount","type":"uint256","internalType":"uint256"},{"name":"_currentPaymentAmount","type":"uint256","internalType":"uint256"}],"outputs":[],"stateMutability":"payable"},{"type":"function","name":"funded","inputs":[],"outputs":[{"name":"","type":"bool","internalType":"bool"}],"stateMutability":"view"},{"type":"function","name":"is_bonded","inputs":[],"outputs":[{"name":"","type":"bool","internalType":"bool"}],"stateMutability":"view"},{"type":"function","name":"originalRewardAmount","inputs":[],"outputs":[{"name":"","type":"uint256","internalType":"uint256"}],"stateMutability":"view"},{"type":"function","name":"requestCancellation","inputs":[],"outputs":[],"stateMutability":"nonpayable"},{"type":"function","name":"resume","inputs":[],"outputs":[],"stateMutability":"nonpayable"},{"type":"function","name":"totalBondsDeposited","inputs":[],"outputs":[{"name":"","type":"uint256","internalType":"uint256"}],"stateMutability":"view"},{"type":"function","name":"withdraw","inputs":[],"outputs":[],"stateMutability":"nonpayable"},{"type":"error","name":"AlreadyFunded","inputs":[]},{"type":"error","name":"AmountMismatch","inputs":[]},{"type":"error","name":"BlockHashUnavailable","inputs":[]},{"type":"error","name":"BlockHeaderMismatch","inputs":[]},{"type":"error","name":"BlockNumberMismatch","inputs":[]},{"type":"error","name":"BondActive","inputs":[]},{"type":"error","name":"CancellationRequested","inputs":[]},{"type":"error","name":"ETHTransferFailed","inputs":[]},{"type":"error","name":"ExecutorAlreadyBonded","inputs":[]},{"type":"error","name":"ExpectedRLPList","inputs":[]},{"type":"error","name":"ExpectedStringItem","inputs":[]},{"type":"error","name":"IncorrectETHAmount","inputs":[]},{"type":"error","name":"InsufficientBond","inputs":[]},{"type":"error","name":"InvalidAddress","inputs":[]},{"type":"error","name":"InvalidNativeTransfer","inputs":[]},{"type":"error","name":"InvalidRLP","inputs":[]},{"type":"error","name":"InvalidRLPEncoding","inputs":[]},{"type":"error","name":"InvalidRLPList","inputs":[]},{"type":"error","name":"InvalidReceiptProof","inputs":[]},{"type":"error","name":"InvalidTxProof","inputs":[]},{"type":"error","name":"NoWithdrawableFunds","inputs":[]},{"type":"error","name":"NotFunded","inputs":[]},{"type":"error","name":"OnlyBondedExecutor","inputs":[]},{"type":"error","name":"OnlyDeployer","inputs":[]},{"type":"error","name":"RLPOffsetOutOfBounds","inputs":[]},{"type":"error","name":"RLPOffsetOutOfBounds","inputs":[]},{"type":"error","name":"ReceiptStatusNotSuccess","inputs":[]},{"type":"error","name":"RecipientMismatch","inputs":[]},{"type":"error","name":"TargetBlockInFuture","inputs":[]},{"type":"error","name":"TargetBlockTooOld","inputs":[]},{"type":"error","name":"TxFailed","inputs":[]},{"type":"error","name":"UnsupportedTxType","inputs":[]},{"type":"error","name":"ZeroPaymentAmount","inputs":[]},{"type":"error","name":"ZeroRewardAmount","inputs":[]}],"bytecode":{"object":"0x60e0601f611f5738819003918201601f19168301916001600160401b038311848410176101205780849260809460405283398101031261011c578051906001600160a01b038216820361011c576020810151606060408301519201519260a05260c0523360805280151580610113575b6100c1575b604051611e22908161013582396080518181816101560152818161040f015281816105d40152610686015260a0518181816103070152610626015260c0518181816102e5015261038d0152f35b8181018082116100ff5734036100f057805f5560025560015561010061ff001960075416176007555f80610074565b63201c04ab60e01b5f5260045ffd5b634e487b7160e01b5f52601160045260245ffd5b5081151561006f565b5f80fd5b634e487b7160e01b5f52604160045260245ffdfe60806040526004361015610011575f80fd5b5f3560e01c8063046f7da2146101445780631aa7c0ec1461013f57806323a8b41a1461013a5780632feef2ec14610135578063308657d71461013057806333ee5f351461012b5780633ccfd60b146101265780633d2691bc146101215780635a4fd6451461011c57806364c9ec6f1461011757806380f323a71461011257806381972d001461010d5780638677ab23146101085780638bd03d0a14610103578063a65e2cfd146100fe578063cb766a56146100f9578063d415b3f9146100f4578063f3a504f2146100ef5763fe03a460146100ea575f80fd5b6107a7565b610782565b610765565b610741565b610672565b610655565b610611565b6105c2565b6105a5565b6104e7565b6104cb565b6104af565b6103ef565b6103d2565b6103b0565b610376565b6101cb565b6101a3565b3461019f575f36600319011261019f577f00000000000000000000000000000000000000000000000000000000000000006001600160a01b03163303610190576007805460ff19169055005b63618bbdd560e01b5f5260045ffd5b5f80fd5b3461019f575f36600319011261019f576003546040516001600160a01b039091168152602090f35b3461019f57604036600319011261019f5760043567ffffffffffffffff811161019f57806004019060c0600319823603011261019f5761021760243561021184806107c4565b90610934565b61022a61022483806107c4565b90610aa4565b602482019161026b61026761023f85876107c4565b61024f60448697939701896107c4565b60a48701979161025f898c6107c4565b949093610bad565b1590565b610367576102676102b491608461028b61028588806107c4565b90610bd4565b9161025f60648201966102ab6102a1898c6107c4565b959094018b6107c4565b9290918b6107c4565b610358576102676102c86102ce92856107c4565b90610c35565b610349576102e26102679161032c936107c4565b907f0000000000000000000000000000000000000000000000000000000000000000917f000000000000000000000000000000000000000000000000000000000000000091610d05565b61033a57610338610f20565b005b633cff557560e11b5f5260045ffd5b632b96f51360e01b5f5260045ffd5b637b374dd160e01b5f5260045ffd5b63c89e37db60e01b5f5260045ffd5b3461019f575f36600319011261019f5760206040517f00000000000000000000000000000000000000000000000000000000000000008152f35b3461019f575f36600319011261019f57602060ff600754166040519015158152f35b3461019f575f36600319011261019f576020600454604051908152f35b3461019f575f36600319011261019f5760ff60075460081c16156104a0577f00000000000000000000000000000000000000000000000000000000000000006001600160a01b0316330361019057610445610f86565b61044d610fbd565b61046461ff0019600754166007555f6001555f8055565b8015610491575f80808093335af161047a610852565b501561048257005b63b12d13eb60e01b5f5260045ffd5b6353cd7f7960e01b5f5260045ffd5b636af784dd60e11b5f5260045ffd5b3461019f575f36600319011261019f5760206040516101008152f35b3461019f575f36600319011261019f5760205f54604051908152f35b5f36600319011261019f57600454801515908161059b575b50610568575b60075460ff8160081c16156104a05760ff16610559576105236108c7565b61054a575f5460011c341061053b5761033834610fcf565b63e92c469f60e01b5f5260045ffd5b63129f78e960e11b5f5260045ffd5b632479328960e01b5f5260045ffd5b6005545f54818101809111610596575f5560065490810180911161059657600655610591610f86565b610505565b61087c565b905042115f6104ff565b3461019f575f36600319011261019f576020600554604051908152f35b3461019f575f36600319011261019f577f00000000000000000000000000000000000000000000000000000000000000006001600160a01b03163303610190576007805460ff19166001179055005b3461019f575f36600319011261019f576040517f00000000000000000000000000000000000000000000000000000000000000006001600160a01b03168152602090f35b3461019f575f36600319011261019f576020600154604051908152f35b604036600319011261019f576004356024357f00000000000000000000000000000000000000000000000000000000000000006001600160a01b031633036101905760075460081c60ff16610732578115610723578015610714576106d781836108ba565b3403610705576106ec826106f1935f55600255565b600155565b61033861010061ff00196007541617600755565b63201c04ab60e01b5f5260045ffd5b63932ca0a360e01b5f5260045ffd5b63ea1083a760e01b5f5260045ffd5b635adf638760e01b5f5260045ffd5b3461019f575f36600319011261019f57602061075b6108c7565b6040519015158152f35b3461019f575f36600319011261019f576020600254604051908152f35b3461019f575f36600319011261019f57602060ff60075460081c166040519015158152f35b3461019f575f36600319011261019f576020600654604051908152f35b903590601e198136030182121561019f570180359067ffffffffffffffff821161019f5760200191813603831361019f57565b634e487b7160e01b5f52604160045260245ffd5b6040519190601f01601f1916820167ffffffffffffffff81118382101761083157604052565b6107f7565b67ffffffffffffffff811161083157601f01601f191660200190565b3d15610877573d9061086b61086683610836565b61080b565b9182523d5f602084013e565b606090565b634e487b7160e01b5f52601160045260245ffd5b906001820180921161059657565b906015820180921161059657565b600101908160011161059657565b9190820180921161059657565b60045480151590816108d7575090565b905042111590565b60011981019190821161059657565b5f1981019190821161059657565b9190820391821161059657565b92919261091861086683610836565b938285528282011161019f57815f926020928387013784010152565b9061094861026760075460ff9060081c1690565b6104a0576003546001600160a01b03163314801590610a08575b6109f9574383116109ea5761010061097a84436108fc565b116109db57824080156109cc57610992368385610909565b60208151910120036109bd576109a791611015565b036109ae57565b63048a12f560e11b5f5260045ffd5b63ff28378760e01b5f5260045ffd5b63bfc9f0d360e01b5f5260045ffd5b63c42a018560e01b5f5260045ffd5b63058968cf60e41b5f5260045ffd5b6337b5f20360e21b5f5260045ffd5b50610a146102676108c7565b610962565b634e487b7160e01b5f52603260045260245ffd5b9015610a365790565b610a19565b90821015610a36570190565b60ff60f6199116019060ff821161059657565b60ff607f199116019060ff821161059657565b60ff60bf199116019060ff821161059657565b60ff60b6199116019060ff821161059657565b60ff166001019060ff821161059657565b905f600360fe1b6001600160f81b0319610acf610ac18587610a2d565b356001600160f81b03191690565b1610610b9e57601f60fb1b6001600160f81b0319610af0610ac18587610a2d565b1610610b955780610b2a610b24610b1f610b1a610b14610ac1610b3097898b610a3b565b60f81c90565b610a47565b610a93565b60ff1690565b906108ba565b905b5f5b60048110610b805750600560fd1b906001600160f81b031990610b5d90610ac190859087610a3b565b1603610b7157610b6c90610890565b013590565b633954003560e11b5f5260045ffd5b91610b8e600191838661107d565b9201610b34565b50600190610b32565b63c0098bd960e01b5f5260045ffd5b610bc3610bcb92939495610bd198973691610909565b923691610909565b906111e7565b90565b90610bdf81836113a1565b905f5b60058110610c205750600560fd1b906001600160f81b031990610c0790849086610a3b565b351603610b715760018101811161059657016001013590565b91610c2e600191838661107d565b9201610be2565b5f9082151580610ce9575b610ce0575b60c060ff610c5a610b14610ac1868887610a3b565b1610610cd157610b14610ac182858560f860ff610c84610b14610ac1839b60019d610cae9c610a3b565b1610610cc85780610b2a610b24610b1f610b1a610b14610ac1610ca897898b610a3b565b91610a3b565b1603610cb957600190565b63e9dd8a9d60e01b5f5260045ffd5b610ca890610890565b631bd5dcf760e31b5f5260045ffd5b60019150610c45565b50608060ff610cfe610b14610ac18786610a2d565b1610610c40565b90916003905f84151580610f04575b610ebc575b60c060ff610d2e610b14610ac1858a8a610a3b565b1610610cd1578060f860ff610d4d610b14610ac1610d73968b8b610a3b565b1610610eb35760ff610d6c610b1f610b1a610b14610ac1868c8c610a3b565b16906108ba565b915f905b808210610e9c575050609460ff610d95610b14610ac1868989610a3b565b1603610e8d576001600160a01b03168282016001013560601c03610e7e57610dbc9061089e565b91610dce610b14610ac1858486610a3b565b925f9260ff851694608086105f14610dff5750505050505b03610df057600190565b6355e97b0d60e01b5f5260045ffd5b90919293946080145f14610e185750505050505f610de6565b610b24610e2791939293610a5a565b915f935b838510610e3c575050505050610de6565b9091929394610e4d60019160081b90565b610e72610b24610b14610ac1610e6b8b610e668b610890565b6108ba565b8789610a3b565b17950193929190610e2b565b63c0ee95bb60e01b5f5260045ffd5b63e6c4247b60e01b5f5260045ffd5b9092610eab600191878761107d565b930190610d77565b60ff6001610d6c565b509050610ecf610b14610ac18585610a2d565b6001919060ff16808303610ee65750600491610d19565b600203610ef557600591610d19565b636fc3daa360e11b5f5260045ffd5b50608060ff610f19610b14610ac18989610a2d565b1610610d14565b6005545f548101809111610596576001548101809111610596575f808080936003546001600160601b0360a01b8116600355826005558260045561ff0019600754166007558260015582805560018060a01b03165af1610f7e610852565b501561048257565b610f8e6108c7565b610fae576001600160601b0360a01b600354166003555f6005555f600455565b639cbc1de160e01b5f5260045ffd5b60015460025481018091116105965790565b336001600160601b0360a01b600354161760035561012c420180421161059657600455600555565b805115610a365760200190565b908151811015610a36570160200190565b919061102181846113a1565b905f5b60088110611068575061103792936114fe565b50905f805b8351821015611063576001906110528386611004565b5160f81c9060081b1791019061103c565b925050565b91611076600191838761107d565b9201611024565b9190808210156111d857611098610b14610ac1848487610a3b565b9060ff821660808110156110b357505050610bd19150610890565b91929160b88110156110db575050610bd19250610b246110d5610b2a92610890565b92610a5a565b90929060c08110156111515750610b246110f791949394610a80565b915f935f915b84831061111857505050610bd19291610e66610e6692610890565b90919461112760019160081b90565b611147610b24610b14610ac16111408b610e668b610890565b8888610a3b565b17950191906110fd565b90929060f811156111775750610bd19250610b24611171610b2a92610890565b92610a6d565b9291610b2461118591610a47565b915f935f915b8483106111a657505050610bd19291610e66610e6692610890565b9091946111b560019160081b90565b6111ce610b24610b14610ac16111408b610e668b610890565b179501919061118b565b6318d76ae160e11b5f5260045ffd5b919390929190600360fe1b6001600160f81b0319611208610ac18689610a2d565b161061139257601f60fb1b6001600160f81b0319611229610ac18689610a2d565b16106113885761124d611248610b24610b1a610b14610ac1888b610a2d565b6108ac565b9492905b945f5b82821061126657505050505050505f90565b61128461127d8361127836878a610909565b61166f565b90936108ba565b96825160208401200361132657600360fe1b6112c06112b36112a585610ff7565b516001600160f81b03191690565b6001600160f81b03191690565b10611326578590846001601f60fb1b6112de6112b36112a588610ff7565b101561136a575b6112ef81866117f6565b60118103611331575061130194611981565b94911561132657841561131a5793915b91959093611254565b50505050505050600190565b505050505050505f90565b90935060021415905061135e5784879261134a9461183b565b94911561132657841561131a579391611311565b50505050505050505f90565b50611383611248610b24610b1a610b146112a589610ff7565b6112e5565b6001949290611251565b63ebb47d1d60e01b5f5260045ffd5b5f600360fe1b6001600160f81b03196113bd610ac18686610a2d565b1610610b9e57601f60fb1b6001600160f81b03196113de610ac18686610a2d565b16106114b05780610b2a610b24610b1f610b1a610b14610ac1611402978a8a610a3b565b905b61a5bd461480156114a5575b61141b575b50905090565b5f5b600381106114905750600360fe1b61143c6112b3610ac1858786610a3b565b10610b9e57601f60fb1b6114576112b3610ac1858786610a3b565b1061148057610b24610b1f610b1a610b14610ac18661147998610b2a97610a3b565b805f611415565b5061148b9150610890565b611479565b9161149e600191858461107d565b920161141d565b5061a5bf4614611410565b50600190611404565b6040906114c58261080b565b6001815291601f1901366020840137565b906114e361086683610836565b82815280926114f4601f1991610836565b0190602036910137565b818310156111d857611517610b14610ac1858585610a3b565b9260ff8416608081101561155157505050506115316114b9565b9060f81b6001600160f81b0319165f1a61154a82610ff7565b5390600190565b60b881969592939496105f146115bf5750610b2461156e91610a5a565b91611578836114d6565b945f5b84811061158f5750505050610bd1906108ac565b806115ac610ac16115a5600194610e6689610890565b8587610a3b565b5f1a6115b8828a611004565b530161157b565b60c0111561166057610b246115d391610a80565b905f925f5b83811061163157506115e9846114d6565b955f5b858110611604575050505090610e66610bd1926108ac565b8061161e610ac16115a5600194610e668a610e668b610890565b5f1a61162a828b611004565b53016115ec565b9360019060081b611658610b24610b14610ac16116518a610e668a610890565b8c88610a3b565b1794016115d8565b636b2e9c5f60e11b5f5260045ffd5b80518210156111d857611688610b146112a58484611004565b9160ff831660808110156116a1575050506115316114b9565b919392909160b881101561170b5750610b246116bc91610a5a565b906116c6826114d6565b935f5b8381106116dc57505050610bd1906108ac565b806116f86112a56116f2600194610e6688610890565b85611004565b5f1a6117048289611004565b53016116c9565b60c011156117a957610b2461171f91610a80565b5f915f5b82811061177b5750611734836114d6565b945f5b84811061174e5750505090610e66610bd1926108ac565b806117686112a56116f2600194610e6689610e668a610890565b5f1a611774828a611004565b5301611737565b9260019060081b6117a1610b24610b146112a561179b89610e6689610890565b8b611004565b179301611723565b50916117b58382611a96565b926117bf846114d6565b915f5b8581106117d0575050509190565b806117e36112a56116f2600194876108ba565b5f1a6117ef8287611004565b53016117c2565b5f92915b81518110156118215761180d8183611a96565b8101809111610596576001909301926117fa565b5050565b908160011b918083046002149015171561059657565b83949291611849818361166f565b9390611868602061185f610b146112a585610ff7565b16151591611bc3565b9788911561190a575061187c9051876108ba565b6118868251611825565b1461189b575b505050505050505f905f905f90565b868660019282516118f8575b5050506118b5575b8061188c565b6118c8926118c2916108ba565b9061166f565b50602081519101209060208151910120146118e657808080806118af565b6118f19151906108ba565b6001915f90565b6119029350611d2e565b86865f6118a7565b61191b939495965061026792611d2e565b6119745761192c926118c2916108ba565b50908151602081145f146119545750602061194c920151925b51906108ba565b916001929190565b801561196857602061194c93012092611945565b505050505f905f905f90565b50505050505f905f905f90565b9190929361198f8251611825565b851015611a395750610b146112a56119b1926119ab8760011c90565b90611004565b60018416611a305760041c600f16915b905f925b60ff81168410611a1057506119da925061166f565b5080518015611a055761194c91602082036119fb5760209150015191610890565b6020012091610890565b5050505f905f905f90565b90916001611a2482610b2a60ff9487611a96565b940193929190506119c5565b600f16916119c1565b9290509392935f915b60108310611a7c57611a54925061166f565b50602081519101209060208151910120145f14611a7357600191905f90565b5f915081908190565b90611a8d81610b2a60019385611a96565b92019190611a42565b9081518110156111d857611ab0610b146112a58385611004565b9160ff83166080811015611ac75750505050600190565b60b8811015611ae257505050610b24610b1f610bd192610a5a565b60c0811015611b4e575091610b24611af991610a80565b905f925f915b838310611b165750505090610e66610bd1926108ac565b909193611b2560019160081b90565b611b44610b24610b146112a5611b3e8a610e6689610890565b88611004565b1794019190611aff565b60f81115611b67575050610b24610b1f610bd192610a6d565b91610b24611b7491610a47565b905f925f915b838310611b915750505090610e66610bd1926108ac565b909193611ba060019160081b90565b611bb9610b24610b146112a5611b3e8a610e6689610890565b1794019190611b7a565b90815115611d2c57611bda610b146112a584610ff7565b6010811615611ca957611bfd611bf8611bf38551611825565b6108ee565b6114d6565b9060f81b600f60f81b165f1a611c1282610ff7565b5360015b8351811015611ca45780611c51611c41611c38610b146112a56001968a611004565b60041c600f1690565b60f81b6001600160f81b03191690565b611c6a611c60611bf384611825565b915f1a9185611004565b53611c91600f611c80610b146112a5858a611004565b1660f81b6001600160f81b03191690565b611c9d611c6083611825565b5301611c16565b509150565b50611cbf611bf8611cba8451611825565b6108df565b60015b8351811015611ca45780611ce4611c41611c38610b146112a56001968a611004565b611cf8611c60611cf3846108ee565b611825565b53611d0e600f611c80610b146112a5858a611004565b611d25611c60611d20611cf3856108ee565b610890565b5301611cc2565b565b919091611d3c8251846108ba565b611d468251611825565b10611de5575f5b8251811015611ddc57611d69611d6382866108ba565b60011690565b611dbe57611d92611c38610b146112a5611d8c611d86868a6108ba565b60011c90565b86611004565b60ff611da7610b24610b146112a58689611004565b911603611db657600101611d4d565b505050505f90565b600f611dd6610b146112a5611d8c611d86868a6108ba565b16611d92565b50505050600190565b5050505f9056fea2646970667358221220290b4349508c088a1ee4b25b8002172ad42ab21d1e2ad16b6e9456f82cd5a8db64736f6c634300081e0033","linkReferences":{}},"methodIdentifiers":{"MAX_BLOCK_LOOKBACK()":"3d2691bc","bond()":"64c9ec6f","bondAmount()":"80f323a7","bondedExecutor()":"1aa7c0ec","cancellationRequest()":"308657d7","collect((bytes,bytes,bytes,bytes,bytes,bytes),uint256)":"23a8b41a","currentPaymentAmount()":"8bd03d0a","currentRewardAmount()":"5a4fd645","executionDeadline()":"33ee5f35","expectedAmount()":"2feef2ec","expectedRecipient()":"8677ab23","fund(uint256,uint256)":"a65e2cfd","funded()":"f3a504f2","is_bonded()":"cb766a56","originalRewardAmount()":"d415b3f9","requestCancellation()":"81972d00","resume()":"046f7da2","totalBondsDeposited()":"fe03a460","withdraw()":"3ccfd60b"},"id":22}