{"abi":[{"type":"constructor","inputs":[{"name":"_tokenContract","type":"address","internalType":"address"},{"name":"_expectedRecipient","type":"address","internalType":"address"},{"name":"_expectedAmount","type":"uint256","internalType":"uint256"},{"name":"_currentRewardAmount","type":"uint256","internalType":"uint256"},{"name":"_currentPaymentAmount","type":"uint256","internalType":"uint256"}],"stateMutability":"nonpayable"},{"type":"function","name":"bond","inputs":[{"name":"_bondAmount","type":"uint256","internalType":"uint256"}],"outputs":[],"stateMutability":"nonpayable"},{"type":"function","name":"bondAmount","inputs":[],"outputs":[{"name":"","type":"uint256","internalType":"uint256"}],"stateMutability":"view"},{"type":"function","name":"bondedExecutor","inputs":[],"outputs":[{"name":"","type":"address","internalType":"address"}],"stateMutability":"view"},{"type":"function","name":"cancellationRequest","inputs":[],"outputs":[{"name":"","type":"bool","internalType":"bool"}],"stateMutability":"view"},{"type":"function","name":"collect","inputs":[{"name":"proof","type":"tuple","internalType":"struct Escrow.ReceiptProof","components":[{"name":"blockHeader","type":"bytes","internalType":"bytes"},{"name":"receiptRlp","type":"bytes","internalType":"bytes"},{"name":"proofNodes","type":"bytes","internalType":"bytes"},{"name":"receiptPath","type":"bytes","internalType":"bytes"},{"name":"logIndex","type":"uint256","internalType":"uint256"}]},{"name":"targetBlockNumber","type":"uint256","internalType":"uint256"}],"outputs":[],"stateMutability":"nonpayable"},{"type":"function","name":"collectNative","inputs":[{"name":"proof","type":"tuple","internalType":"struct Escrow.TransactionProof","components":[{"name":"blockHeader","type":"bytes","internalType":"bytes"},{"name":"transactionRlp","type":"bytes","internalType":"bytes"},{"name":"proofNodes","type":"bytes","internalType":"bytes"},{"name":"transactionPath","type":"bytes","internalType":"bytes"}]},{"name":"targetBlockNumber","type":"uint256","internalType":"uint256"}],"outputs":[],"stateMutability":"nonpayable"},{"type":"function","name":"currentPaymentAmount","inputs":[],"outputs":[{"name":"","type":"uint256","internalType":"uint256"}],"stateMutability":"view"},{"type":"function","name":"currentRewardAmount","inputs":[],"outputs":[{"name":"","type":"uint256","internalType":"uint256"}],"stateMutability":"view"},{"type":"function","name":"executionDeadline","inputs":[],"outputs":[{"name":"","type":"uint256","internalType":"uint256"}],"stateMutability":"view"},{"type":"function","name":"expectedAmount","inputs":[],"outputs":[{"name":"","type":"uint256","internalType":"uint256"}],"stateMutability":"view"},{"type":"function","name":"expectedRecipient","inputs":[],"outputs":[{"name":"","type":"address","internalType":"address"}],"stateMutability":"view"},{"type":"function","name":"fund","inputs":[{"name":"_currentRewardAmount","type":"uint256","internalType":"uint256"},{"name":"_currentPaymentAmount","type":"uint256","internalType":"uint256"}],"outputs":[],"stateMutability":"nonpayable"},{"type":"function","name":"funded","inputs":[],"outputs":[{"name":"","type":"bool","internalType":"bool"}],"stateMutability":"view"},{"type":"function","name":"is_bonded","inputs":[],"outputs":[{"name":"","type":"bool","internalType":"bool"}],"stateMutability":"view"},{"type":"function","name":"maxBlockLookback","inputs":[],"outputs":[{"name":"","type":"uint256","internalType":"uint256"}],"stateMutability":"view"},{"type":"function","name":"originalRewardAmount","inputs":[],"outputs":[{"name":"","type":"uint256","internalType":"uint256"}],"stateMutability":"view"},{"type":"function","name":"requestCancellation","inputs":[],"outputs":[],"stateMutability":"nonpayable"},{"type":"function","name":"resume","inputs":[],"outputs":[],"stateMutability":"nonpayable"},{"type":"function","name":"totalBondsDeposited","inputs":[],"outputs":[{"name":"","type":"uint256","internalType":"uint256"}],"stateMutability":"view"},{"type":"function","name":"withdraw","inputs":[],"outputs":[],"stateMutability":"nonpayable"}],"bytecode":{"object":"0x61012080604052346101b55760a08161347b803803809161002082856102b8565b8339810103126101b557610033816102ef565b90610040602082016102ef565b604082015190608060608401519301519360a05260c05260e05233608052610100805280158015806102af575b610103575b6040516131779081610304823960805181818161016a01528181610282015281816103d40152610603015260a05181818161032001528181610525015281816106ae01528181610a8b01526118db015260c051818181610426015281816108ca0152610a69015260e0518181816101e7015281816108a80152610a4701526101005181818161094e01526113700152f35b60ff60075460081c1661026a576102255781156101e057805f55806002558160015560018060a01b0360a051169181018091116101cc575f91606460209260405194859384926323b872dd60e01b845233600485015230602485015260448401525af180156101c157610189575b5061010061ff001960075416176007555f8080610072565b6020813d6020116101b9575b816101a2602093836102b8565b810103126101b557518015158114610171575b5f80fd5b3d9150610195565b6040513d5f823e3d90fd5b634e487b7160e01b5f52601160045260245ffd5b60405162461bcd60e51b815260206004820152601f60248201527f5061796d656e7420616d6f756e74206d757374206265206e6f6e2d7a65726f006044820152606490fd5b60405162461bcd60e51b815260206004820152601e60248201527f52657761726420616d6f756e74206d757374206265206e6f6e2d7a65726f00006044820152606490fd5b60405162461bcd60e51b815260206004820152601760248201527f436f6e747261637420616c72656164792066756e6465640000000000000000006044820152606490fd5b5082151561006d565b601f909101601f19168101906001600160401b038211908210176102db57604052565b634e487b7160e01b5f52604160045260245ffd5b51906001600160a01b03821682036101b55756fe60806040526004361015610011575f80fd5b5f3560e01c8063046f7da2146101545780631aa7c0ec1461014f5780632feef2ec1461014a578063308657d71461014557806333ee5f35146101405780633ccfd60b1461013b5780635a4fd6451461013657806380f323a71461013157806381972d001461012c5780638677ab23146101275780638bd03d0a146101225780639940686e1461011d578063a65e2cfd14610118578063cb766a5614610113578063d26e35c81461010e578063d415b3f914610109578063d4899a6214610104578063ede7f6a3146100ff578063f3a504f2146100fa5763fe03a460146100f5575f80fd5b610b43565b610b1e565b610971565b610937565b61091a565b610738565b610714565b6105d9565b610472565b610455565b610411565b6103be565b6103a1565b610385565b610249565b61022c565b61020a565b6101d0565b6101a8565b346101a4575f3660031901126101a457610198337f00000000000000000000000000000000000000000000000000000000000000006001600160a01b031614610b60565b6007805460ff19169055005b5f80fd5b346101a4575f3660031901126101a4576003546040516001600160a01b039091168152602090f35b346101a4575f3660031901126101a45760206040517f00000000000000000000000000000000000000000000000000000000000000008152f35b346101a4575f3660031901126101a457602060ff600754166040519015158152f35b346101a4575f3660031901126101a4576020600454604051908152f35b346101a4575f3660031901126101a4576102b1600161026e60075460ff9060081c1690565b61027781610bac565b6102a9828060a01b037f0000000000000000000000000000000000000000000000000000000000000000163314610b60565b151514610bee565b6102b96110b5565b61031b60206102cd60015460025490610cb2565b6102dd61ff001960075416600755565b6102e65f600155565b5f80556102f4811515610cbf565b60405163a9059cbb60e01b8152336004820152602481019190915291829081906044820190565b03815f7f00000000000000000000000000000000000000000000000000000000000000006001600160a01b03165af180156103805761035657005b6103779060203d602011610379575b61036f8183610d17565b810190610d3e565b005b503d610365565b610d56565b346101a4575f3660031901126101a45760205f54604051908152f35b346101a4575f3660031901126101a4576020600554604051908152f35b346101a4575f3660031901126101a457610402337f00000000000000000000000000000000000000000000000000000000000000006001600160a01b031614610b60565b6007805460ff19166001179055005b346101a4575f3660031901126101a4576040517f00000000000000000000000000000000000000000000000000000000000000006001600160a01b03168152602090f35b346101a4575f3660031901126101a4576020600154604051908152f35b346101a45760203660031901126101a4576004356104b76104b26104ae6007546104a86104a38260ff9060081c1690565b610bac565b60ff1690565b1590565b610d61565b60045480151590816105cf575b5061059d575b6104dd6104d86104ae610f41565b610da6565b6104f36104eb5f5460011c90565b821015610dfd565b6040516323b872dd60e01b815233600482015230602482015260448101829052906020826064815f6001600160a01b037f0000000000000000000000000000000000000000000000000000000000000000165af19182156103805761037792610580575b50600380546001600160a01b0319163317905561057b61057642610c74565b600455565b600555565b6105989060203d6020116103795761036f8183610d17565b610557565b6105aa6005545f54610cb2565b5f556105c26105bd600554600654610cb2565b600655565b6105ca6110b5565b6104ca565b905042115f6104c4565b346101a45760403660031901126101a45761066860243561066360043561062a6001600160a01b037f0000000000000000000000000000000000000000000000000000000000000000163314610b60565b6106456106406104ae60075460ff9060081c1690565b610e5d565b610650811515610ea9565b61065b831515610ef5565b805f55600255565b600155565b6106a9602061067c60025460015490610cb2565b6040516323b872dd60e01b8152336004820152306024820152604481019190915291829081906064820190565b03815f7f00000000000000000000000000000000000000000000000000000000000000006001600160a01b03165af18015610380576106f7575b61037761010061ff00196007541617600755565b61070f9060203d6020116103795761036f8183610d17565b6106e3565b346101a4575f3660031901126101a457602061072e610f41565b6040519015158152f35b346101a45760403660031901126101a45760043567ffffffffffffffff81116101a45780600401608060031983360301126101a4576107846024355b61077e8380610f59565b90611320565b61078e8180610f59565b5f6107c3600360fe1b6001600160f81b03196107bb6107ad8688611431565b356001600160f81b03191690565b16101561144b565b601f60fb1b6001600160f81b03196107de6107ad8587611431565b161061091157806108126104a861080d6108086108026107ad61081897898b61143f565b60f81c90565b61148a565b6114d6565b90610cb2565b905b5f5b600481106108fc576108f46108ef6108a588886108a061089b8a6108638b61085e8c600560fd1b906108576107ad8560ff60f81b938961143f565b16146114e7565b610c88565b0135606460248601956108768787610f59565b929091610893610889604483018a610f59565b9390920189610f59565b949093611541565b610f8c565b610f59565b907f0000000000000000000000000000000000000000000000000000000000000000917f000000000000000000000000000000000000000000000000000000000000000091611665565b610fd8565b610377611834565b9161090a6001918386611c26565b920161081c565b5060019061081a565b346101a4575f3660031901126101a4576020600254604051908152f35b346101a4575f3660031901126101a45760206040517f00000000000000000000000000000000000000000000000000000000000000008152f35b346101a45760403660031901126101a45760043567ffffffffffffffff81116101a4578060040160a060031983360301126101a4576109b1602435610774565b6109bb8180610f59565b92906109c78482611fd6565b935f5b60058110610b095750600560fd1b906001600160f81b0319906109ef9087908561143f565b351603610aba57610a45610ab593608492610a0c6108f497610c88565b0135906108a0610a406024870193610a248585610f59565b90610a3260448b0187610f59565b9061089360648d0189610f59565b611024565b7f0000000000000000000000000000000000000000000000000000000000000000937f0000000000000000000000000000000000000000000000000000000000000000937f00000000000000000000000000000000000000000000000000000000000000009391013591906119eb565b611070565b60405162461bcd60e51b815260206004820152602160248201527f496e76616c6964207265636569707473526f6f7420524c5020656e636f64696e6044820152606760f81b6064820152608490fd5b94610b176001918385611c26565b95016109ca565b346101a4575f3660031901126101a457602060ff60075460081c166040519015158152f35b346101a4575f3660031901126101a4576020600654604051908152f35b15610b6757565b60405162461bcd60e51b815260206004820152601d60248201527f4f6e6c792063616c6c61626c6520627920746865206465706c6f7965720000006044820152606490fd5b15610bb357565b60405162461bcd60e51b815260206004820152601360248201527210dbdb9d1c9858dd081b9bdd08199d5b991959606a1b6044820152606490fd5b15610bf557565b60405162461bcd60e51b815260206004820152603760248201527f54686520636f6e747261637420776173206e6f742066756e646564206f72206860448201527f6173206265656e20647261696e656420616c72656164790000000000000000006064820152608490fd5b634e487b7160e01b5f52601160045260245ffd5b9061012c8201809211610c8357565b610c60565b9060018201809211610c8357565b9060158201809211610c8357565b6001019081600111610c8357565b91908201809211610c8357565b15610cc657565b60405162461bcd60e51b81526020600482015260156024820152744e6f20776974686472617761626c652066756e647360581b6044820152606490fd5b634e487b7160e01b5f52604160045260245ffd5b90601f8019910116810190811067ffffffffffffffff821117610d3957604052565b610d03565b908160209103126101a4575180151581036101a45790565b6040513d5f823e3d90fd5b15610d6857565b60405162461bcd60e51b815260206004820152601660248201527510d85b98d95b1b185d1a5bdb881c995c5d595cdd195960521b6044820152606490fd5b15610dad57565b60405162461bcd60e51b815260206004820152602260248201527f416e6f74686572206578656375746f7220697320616c726561647920626f6e64604482015261195960f21b6064820152608490fd5b15610e0457565b60405162461bcd60e51b815260206004820152602b60248201527f426f6e64206d757374206265206174206c656173742068616c66206f6620726560448201526a1dd85c9908185b5bdd5b9d60aa1b6064820152608490fd5b15610e6457565b60405162461bcd60e51b815260206004820152601760248201527f436f6e747261637420616c72656164792066756e6465640000000000000000006044820152606490fd5b15610eb057565b60405162461bcd60e51b815260206004820152601e60248201527f52657761726420616d6f756e74206d757374206265206e6f6e2d7a65726f00006044820152606490fd5b15610efc57565b60405162461bcd60e51b815260206004820152601f60248201527f5061796d656e7420616d6f756e74206d757374206265206e6f6e2d7a65726f006044820152606490fd5b6004548015159081610f51575090565b905042111590565b903590601e19813603018212156101a4570180359067ffffffffffffffff82116101a4576020019181360383136101a457565b15610f9357565b60405162461bcd60e51b815260206004820152601d60248201527f496e76616c6964207472616e73616374696f6e204d50542070726f6f660000006044820152606490fd5b15610fdf57565b60405162461bcd60e51b815260206004820152601760248201527f496e76616c6964206e6174697665207472616e736665720000000000000000006044820152606490fd5b1561102b57565b60405162461bcd60e51b815260206004820152601960248201527f496e76616c69642072656365697074204d50542070726f6f66000000000000006044820152606490fd5b1561107757565b60405162461bcd60e51b8152602060048201526016602482015275125b9d985b1a5908151c985b9cd9995c88195d995b9d60521b6044820152606490fd5b6110bd610f41565b6110e2576bffffffffffffffffffffffff60a01b600354166003555f6005555f600455565b60405162461bcd60e51b815260206004820152602160248201527f43616e6e6f74207265736574207768696c6520626f6e642069732061637469766044820152606560f81b6064820152608490fd5b1561113857565b60405162461bcd60e51b815260206004820152601d60248201527f54617267657420626c6f636b20697320696e20746865206675747572650000006044820152606490fd5b600119810191908211610c8357565b5f19810191908211610c8357565b91908203918211610c8357565b156111ae57565b60405162461bcd60e51b815260206004820152601460248201527315185c99d95d08189b1bd8dac81d1bdbc81bdb1960621b6044820152606490fd5b156111f157565b60405162461bcd60e51b815260206004820152601d60248201527f556e61626c6520746f20726574726965766520626c6f636b20686173680000006044820152606490fd5b67ffffffffffffffff8111610d3957601f01601f191660200190565b92919261125e82611236565b9161126c6040519384610d17565b8294818452818301116101a4578281602093845f960137010152565b1561128f57565b60405162461bcd60e51b815260206004820152601a60248201527f426c6f636b206865616465722068617368206d69736d617463680000000000006044820152606490fd5b156112db57565b60405162461bcd60e51b815260206004820152601c60248201527f48656164657220626c6f636b206e756d626572206d69736d61746368000000006044820152606490fd5b91909161133460ff60075460081c16610bac565b6003546001600160a01b031633148061140f575b156113cb576113c9926113c39161136143851115611131565b61139661136e854361119a565b7f000000000000000000000000000000000000000000000000000000000000000010156111a7565b6113be84406113a68115156111ea565b6113b1368585611252565b6020815191012014611288565b611b72565b146112d4565b565b606460405162461bcd60e51b815260206004820152602060248201527f4f6e6c7920626f6e646564206578656375746f722063616e20636f6c6c6563746044820152fd5b50611418610f41565b611348565b634e487b7160e01b5f52603260045260245ffd5b901561143a5790565b61141d565b9082101561143a570190565b1561145257565b60405162461bcd60e51b815260206004820152601060248201526f125b9d985b1a5908149314081b1a5cdd60821b6044820152606490fd5b60ff60f6199116019060ff8211610c8357565b60ff607f199116019060ff8211610c8357565b60ff60bf199116019060ff8211610c8357565b60ff60b6199116019060ff8211610c8357565b60ff166001019060ff8211610c8357565b156114ee57565b60405162461bcd60e51b815260206004820152602560248201527f496e76616c6964207472616e73616374696f6e73526f6f7420524c5020656e636044820152646f64696e6760d81b6064820152608490fd5b61155761155f9293949561156598973691611252565b923691611252565b90611dda565b90565b1561156f57565b60405162461bcd60e51b815260206004820152600e60248201526d0496e76616c696420747820524c560941b6044820152606490fd5b156115ac57565b60405162461bcd60e51b8152602060048201526012602482015271496e76616c696420746f206164647265737360701b6044820152606490fd5b156115ed57565b60405162461bcd60e51b81526020600482015260126024820152710a4cac6d2e0d2cadce840dad2e6dac2e8c6d60731b6044820152606490fd5b1561162e57565b60405162461bcd60e51b815260206004820152600f60248201526e082dadeeadce840dad2e6dac2e8c6d608b1b6044820152606490fd5b90916003905f84151580611818575b61180c575b8061169d60c060ff6116956108026107ad6116d8978c8c61143f565b161015611568565b60f860ff6116b26108026107ad858b8b61143f565b16106118035760ff6116d161080d6108086108026107ad868c8c61143f565b1690610cb2565b915f905b8082106117ec5750509061172561172a9261170c609460ff6117056108026107ad888c8c61143f565b16146115a5565b6001600160a01b03166001838601013560601c146115e6565b610c96565b9161173c6108026107ad85848661143f565b925f9260ff851694608086105f146117645750505050509061175f915b14611627565b600190565b90919293946080145f1461178157505050505061175f905f611759565b6104a86117909193929361149d565b915f935b8385106117aa5750505050509061175f91611759565b90919293946117bb60019160081b90565b6117e06104a86108026107ad6117d98b6117d48b610c88565b610cb2565b878961143f565b17950193929190611794565b90926117fb6001918787611c26565b9301906116dc565b60ff60016116d1565b50600491506001611679565b50608060ff61182d6108026107ad8989611431565b1610611674565b61184e6118456005545f5490610cb2565b60015490610cb2565b6003546001600160a01b0316600380546001600160a01b03191690556118735f600555565b61187c5f600455565b61188c61ff001960075416600755565b6118955f600155565b5f805560014614801561195f575b1561192d5760405163a9059cbb60e01b81526001600160a01b039091166004820152602481019190915260208180604481015b03815f7f00000000000000000000000000000000000000000000000000000000000000006001600160a01b03165af18015610380576119125750565b61192a9060203d6020116103795761036f8183610d17565b50565b604051633419e74d60e21b81526001600160a01b039091166004820152602481019190915260208180604481016118d6565b5061a5bd46146118a3565b1561197157565b60405162461bcd60e51b81526020600482015260136024820152720496e76616c6964207265636569707420524c5606c1b6044820152606490fd5b156119b357565b60405162461bcd60e51b815260206004820152601060248201526f0496e76616c6964206c6f677320524c560841b6044820152606490fd5b959493929190805f818981151580611b38575b611b2f575b60ff611a1b6108026107ad86611a239660c09661143f565b16101561196a565b8860f860ff611a396108026107ad86888761143f565b1610611b1d576104a861080d6108086108026107ad86611a5c986108129761143f565b81905b885f5b60038110611b04575060c0611a846104a86108026107ad8688611a8b9761143f565b10156119ac565b8860f8611aa26104a86108026107ad86888761143f565b10611af3576104a861080d6108086108026107ad86611ac4986108129761143f565b915b5f905b808210611adc57505061156595966121ab565b9092611aeb600191848b611c26565b930190611ac9565b50611afe9150610c88565b91611ac6565b9291600192611b1292611c26565b910190888392611a62565b50611b289150610c88565b8190611a5f565b60019250611a03565b50608060ff611b4d6108026107ad8686611431565b16106119fe565b80511561143a5760200190565b90815181101561143a570160200190565b9190611b7e8184611fd6565b905f5b60088110611bc55750611b9492936122d6565b50905f805b8351821015611bc057600190611baf8386611b61565b5160f81c9060081b17910190611b99565b925050565b91611bd36001918387611c26565b9201611b81565b15611be157565b60405162461bcd60e51b815260206004820152601860248201527f524c50206f6666736574206f7574206f6620626f756e647300000000000000006044820152606490fd5b9190611c33818310611bda565b611c446108026107ad84848761143f565b9060ff82166080811015611c5f575050506115659150610c88565b91929160b8811015611c8757505061156592506104a8611c8161081292610c88565b9261149d565b90929060c0811015611cfd57506104a8611ca3919493946114c3565b915f935f915b848310611cc45750505061156592916117d46117d492610c88565b909194611cd360019160081b90565b611cf36104a86108026107ad611cec8b6117d48b610c88565b888861143f565b1795019190611ca9565b90929060f81115611d23575061156592506104a8611d1d61081292610c88565b926114b0565b92916104a8611d319161148a565b915f935f915b848310611d525750505061156592916117d46117d492610c88565b909194611d6160019160081b90565b611d7a6104a86108026107ad611cec8b6117d48b610c88565b1795019190611d37565b15611d8b57565b60405162461bcd60e51b815260206004820152602160248201527f457870656374656420524c50206c69737420666f722070726f6f66206e6f64656044820152607360f81b6064820152608490fd5b919390929190611e06600360fe1b6001600160f81b0319611dfe6107ad878a611431565b161015611d84565b601f60fb1b6001600160f81b0319611e216107ad8689611431565b1610611f8057611e45611e406104a86108086108026107ad888b611431565b610ca4565b9492905b945f5b828210611e5e57505050505050505f90565b611e7c611e7583611e7036878a611252565b612480565b9093610cb2565b968251602084012003611f1e57600360fe1b611eb8611eab611e9d85611b54565b516001600160f81b03191690565b6001600160f81b03191690565b10611f1e578590846001601f60fb1b611ed6611eab611e9d88611b54565b1015611f62575b611ee7818661260a565b60118103611f295750611ef99461279c565b949115611f1e578415611f125793915b91959093611e4c565b50505050505050600190565b505050505050505f90565b909350600214159050611f5657848792611f4294612656565b949115611f1e578415611f12579391611f09565b50505050505050505f90565b50611f7b611e406104a8610808610802611e9d89611b54565b611edd565b6001949290611e49565b15611f9157565b60405162461bcd60e51b815260206004820152601d60248201527f496e76616c696420696e6e65722068656164657220524c50206c6973740000006044820152606490fd5b5f611ff5600360fe1b6001600160f81b03196107bb6107ad8787611431565b601f60fb1b6001600160f81b03196120106107ad8686611431565b16106120d557806108126104a861080d6108086108026107ad612034978a8a61143f565b905b61a5bd4614612046575b50905090565b5f5b600381106120c05750612071600360fe1b61206a611eab6107ad86888761143f565b1015611f8a565b601f60fb1b612087611eab6107ad85878661143f565b106120b0576104a861080d6108086108026107ad866120a9986108129761143f565b805f612040565b506120bb9150610c88565b6120a9565b916120ce6001918584611c26565b9201612048565b50600190612036565b156120e557565b60405162461bcd60e51b815260206004820152600f60248201526e0496e76616c6964206c6f6720524c5608c1b6044820152606490fd5b1561212357565b60405162461bcd60e51b815260206004820152601e60248201527f496e76616c696420656d69747465722061646472657373206c656e67746800006044820152606490fd5b1561216f57565b60405162461bcd60e51b815260206004820152601460248201527315dc9bdb99c81d1bdad95b8818dbdb9d1c9858dd60621b6044820152606490fd5b9160146115659695946117d4846122479487816121de60c060ff6121d66108026107ad868a8961143f565b1610156120de565b60f860ff6121f36108026107ad85898861143f565b161061224d57506104a861080d6108086108026107ad86612217986108129761143f565b915b6122248387896128b1565b94906122328282511461211c565b01516001600160a01b03908116911614612168565b91612abb565b91505061225a9150610c88565b91612219565b604080519091906122718382610d17565b6001815291601f1901366020840137565b604080519091906122938382610d17565b6014815291601f1901366020840137565b906122ae82611236565b6122bb6040519182610d17565b82815280926122cc601f1991611236565b0190602036910137565b6122e1828410611bda565b6122f26108026107ad85858561143f565b9260ff8416608081101561232c575050505061230c612260565b9060f81b6001600160f81b0319165f1a61232582611b54565b5390600190565b60b881969592939496105f1461239a57506104a86123499161149d565b91612353836122a4565b945f5b84811061236a575050505061156590610ca4565b806123876107ad6123806001946117d489610c88565b858761143f565b5f1a612393828a611b61565b5301612356565b60c0111561243b576104a86123ae916114c3565b905f925f5b83811061240c57506123c4846122a4565b955f5b8581106123df5750505050906117d461156592610ca4565b806123f96107ad6123806001946117d48a6117d48b610c88565b5f1a612405828b611b61565b53016123c7565b9360019060081b6124336104a86108026107ad61242c8a6117d48a610c88565b8c8861143f565b1794016123b3565b60405162461bcd60e51b815260206004820152601e60248201527f457870656374656420737472696e67206974656d2c20676f74206c69737400006044820152606490fd5b61248c81518310611bda565b61249c610802611e9d8484611b61565b9160ff831660808110156124b55750505061230c612260565b919392909160b881101561251f57506104a86124d09161149d565b906124da826122a4565b935f5b8381106124f05750505061156590610ca4565b8061250c611e9d6125066001946117d488610c88565b85611b61565b5f1a6125188289611b61565b53016124dd565b60c011156125bd576104a8612533916114c3565b5f915f5b82811061258f5750612548836122a4565b945f5b84811061256257505050906117d461156592610ca4565b8061257c611e9d6125066001946117d4896117d48a610c88565b5f1a612588828a611b61565b530161254b565b9260019060081b6125b56104a8610802611e9d6125af896117d489610c88565b8b611b61565b179301612537565b50916125c98382612c01565b926125d3846122a4565b915f5b8581106125e4575050509190565b806125f7611e9d61250660019487610cb2565b5f1a6126038287611b61565b53016125d6565b5f915b815181101561263b576126208183612c01565b8101809111610c8357915f198114610c83576001019161260d565b505090565b908160011b9180830460021490151715610c8357565b839492916126648183612480565b9390612683602061267a610802611e9d85611b54565b16151591612d31565b978891156127255750612697905187610cb2565b6126a18251612640565b146126b6575b505050505050505f905f905f90565b86866001928251612713575b5050506126d0575b806126a7565b6126e3926126dd91610cb2565b90612480565b506020815191012090602081519101201461270157808080806126ca565b61270c915190610cb2565b6001915f90565b61271d9350612e95565b86865f6126c2565b61273693949596506104ae92612e95565b61278f57612747926126dd91610cb2565b50908151602081145f1461276f57506020612767920151925b5190610cb2565b916001929190565b801561278357602061276793012092612760565b505050505f905f905f90565b50505050505f905f905f90565b919092936127aa8251612640565b8510156128545750610802611e9d6127cc926127c68760011c90565b90611b61565b6001841661284b5760041c600f16915b905f925b60ff8116841061282b57506127f59250612480565b50805180156128205761276791602082036128165760209150015191610c88565b6020012091610c88565b5050505f905f905f90565b9091600161283f8261081260ff9487612c01565b940193929190506127e0565b600f16916127dc565b9290509392935f915b601083106128975761286f9250612480565b50602081519101209060208151910120145f1461288e57600191905f90565b5f915081908190565b906128a88161081260019385612c01565b9201919061285d565b9190916128bf838310611bda565b609460ff6128d46108026107ad86888761143f565b1603612920576128e2612282565b925f5b601481106128f7575050505090601590565b8061290d6107ad6123806001946117d489610c88565b5f1a6129198288611b61565b53016128e5565b60405162461bcd60e51b815260206004820152601c60248201527f496e76616c6964206164647265737320524c5020656e636f64696e67000000006044820152606490fd5b1561296c57565b60405162461bcd60e51b81526020600482015260126024820152710496e76616c696420746f7069637320524c560741b6044820152606490fd5b156129ad57565b60405162461bcd60e51b815260206004820152601560248201527457726f6e67206576656e74207369676e617475726560581b6044820152606490fd5b156129f157565b60405162461bcd60e51b81526020600482015260136024820152720a8de40c2c8c8e4cae6e640dad2e6dac2e8c6d606b1b6044820152606490fd5b15612a3357565b60405162461bcd60e51b8152602060048201526014602482015273416d6f756e74206461746120746f6f206c6f6e6760601b6044820152606490fd5b15612a7657565b60405162461bcd60e51b815260206004820152601860248201527f5472616e7366657220616d6f756e74206d69736d6174636800000000000000006044820152606490fd5b9180612b9d612baa95612b8a612b7e612b7e612b77612b7089612b697fddf252ad1be2c89b69c2b068fc378daa952ba7f163c4a11628f55a4df523b3ef612b638e8060f8612ba49f612b376108026107ad83612b3060c060ff612b288f6107ad839a61080292819e61143f565b161015612965565b8b8861143f565b1610612bf757806108126104a861080d6108086108026107ad612b5b978d8a61143f565b948591612f53565b146129a6565b8a8c611c26565b898b611c26565b888a612f53565b6001600160a01b031690565b6001600160a01b039081169116146129ea565b8284611c26565b91612fc5565b50612bb9602082511115612a2c565b5f92835b8251851015612be85760019060081b612bdf6104a8610802611e9d8988611b61565b17940193612bbd565b90935061175f92915014612a6f565b50612b5b8d610c88565b90612c0e82518210611bda565b612c1e610802611e9d8385611b61565b9160ff83166080811015612c355750505050600190565b60b8811015612c50575050506104a861080d6115659261149d565b60c0811015612cbc5750916104a8612c67916114c3565b905f925f915b838310612c8457505050906117d461156592610ca4565b909193612c9360019160081b90565b612cb26104a8610802611e9d612cac8a6117d489610c88565b88611b61565b1794019190612c6d565b60f81115612cd55750506104a861080d611565926114b0565b916104a8612ce29161148a565b905f925f915b838310612cff57505050906117d461156592610ca4565b909193612d0e60019160081b90565b612d276104a8610802611e9d612cac8a6117d489610c88565b1794019190612ce8565b908151156113c957612d48610802611e9d84611b54565b6010811615612e1757612d6b612d66612d618551612640565b61118c565b6122a4565b9060f81b600f60f81b165f1a612d8082611b54565b5360015b8351811015612e125780612dbf612daf612da6610802611e9d6001968a611b61565b60041c600f1690565b60f81b6001600160f81b03191690565b612dd8612dce612d6184612640565b915f1a9185611b61565b53612dff600f612dee610802611e9d858a611b61565b1660f81b6001600160f81b03191690565b612e0b612dce83612640565b5301612d84565b509150565b50612e2d612d66612e288451612640565b61117d565b60015b8351811015612e125780612e52612daf612da6610802611e9d6001968a611b61565b612e66612dce612e618461118c565b612640565b53612e7c600f612dee610802611e9d858a611b61565b612e8e612dce61085e612e618561118c565b5301612e30565b919091612ea3825184610cb2565b612ead8251612640565b10612f4c575f5b8251811015612f4357612ed0612eca8286610cb2565b60011690565b612f2557612ef9612da6610802611e9d612ef3612eed868a610cb2565b60011c90565b86611b61565b60ff612f0e6104a8610802611e9d8689611b61565b911603612f1d57600101612eb4565b505050505f90565b600f612f3d610802611e9d612ef3612eed868a610cb2565b16612ef9565b50505050600190565b5050505f90565b9190600560fd1b906001600160f81b031990612f719084908661143f565b351603612f8057016001013590565b60405162461bcd60e51b815260206004820152601760248201527f45787065637465642033322d6279746520737472696e670000000000000000006044820152606490fd5b612fd0828410611bda565b612fe16108026107ad85858561143f565b9260ff84166080811015612ffb575050505061230c612260565b60b881969592939496105f1461306257506104a86130189161149d565b91613022836122a4565b945f5b848110613039575050505061156590610ca4565b8061304f6107ad6123806001946117d489610c88565b5f1a61305b828a611b61565b5301613025565b60c011156130fc576104a8613076916114c3565b905f925f5b8381106130d4575061308c846122a4565b955f5b8581106130a75750505050906117d461156592610ca4565b806130c16107ad6123806001946117d48a6117d48b610c88565b5f1a6130cd828b611b61565b530161308f565b9360019060081b6130f46104a86108026107ad61242c8a6117d48a610c88565b17940161307b565b60405162461bcd60e51b815260206004820152601e60248201527f457870656374656420737472696e6720646174612c20676f74206c69737400006044820152606490fdfea2646970667358221220671ad5b4a29c9f10bda1c41ca176ad3aec4635317d26322d70de2f872813506f64736f6c634300081e0033","linkReferences":{}},"methodIdentifiers":{"bond(uint256)":"9940686e","bondAmount()":"80f323a7","bondedExecutor()":"1aa7c0ec","cancellationRequest()":"308657d7","collect((bytes,bytes,bytes,bytes,uint256),uint256)":"ede7f6a3","collectNative((bytes,bytes,bytes,bytes),uint256)":"d26e35c8","currentPaymentAmount()":"8bd03d0a","currentRewardAmount()":"5a4fd645","executionDeadline()":"33ee5f35","expectedAmount()":"2feef2ec","expectedRecipient()":"8677ab23","fund(uint256,uint256)":"a65e2cfd","funded()":"f3a504f2","is_bonded()":"cb766a56","maxBlockLookback()":"d4899a62","originalRewardAmount()":"d415b3f9","requestCancellation()":"81972d00","resume()":"046f7da2","totalBondsDeposited()":"fe03a460","withdraw()":"3ccfd60b"},"id":20}