{"abi":[{"type":"constructor","inputs":[{"name":"_tokenContract","type":"address","internalType":"address"},{"name":"_taskId","type":"bytes32","internalType":"bytes32"}],"stateMutability":"nonpayable"},{"type":"function","name":"bond","inputs":[{"name":"_bondAmount","type":"uint256","internalType":"uint256"}],"outputs":[],"stateMutability":"nonpayable"},{"type":"function","name":"bondAmount","inputs":[],"outputs":[{"name":"","type":"uint256","internalType":"uint256"}],"stateMutability":"view"},{"type":"function","name":"bondedExecutor","inputs":[],"outputs":[{"name":"","type":"address","internalType":"address"}],"stateMutability":"view"},{"type":"function","name":"cancellationRequest","inputs":[],"outputs":[{"name":"","type":"bool","internalType":"bool"}],"stateMutability":"view"},{"type":"function","name":"collect","inputs":[{"name":"proof","type":"tuple","internalType":"struct Escrow.ReceiptProof","components":[{"name":"blockHeader","type":"bytes","internalType":"bytes"},{"name":"receiptRlp","type":"bytes","internalType":"bytes"},{"name":"proofNodes","type":"bytes","internalType":"bytes"},{"name":"receiptPath","type":"bytes","internalType":"bytes"},{"name":"logIndex","type":"uint256","internalType":"uint256"}]},{"name":"targetBlockNumber","type":"uint256","internalType":"uint256"}],"outputs":[],"stateMutability":"nonpayable"},{"type":"function","name":"currentPaymentAmount","inputs":[],"outputs":[{"name":"","type":"uint256","internalType":"uint256"}],"stateMutability":"view"},{"type":"function","name":"currentRewardAmount","inputs":[],"outputs":[{"name":"","type":"uint256","internalType":"uint256"}],"stateMutability":"view"},{"type":"function","name":"executionDeadline","inputs":[],"outputs":[{"name":"","type":"uint256","internalType":"uint256"}],"stateMutability":"view"},{"type":"function","name":"fund","inputs":[{"name":"_currentRewardAmount","type":"uint256","internalType":"uint256"},{"name":"_currentPaymentAmount","type":"uint256","internalType":"uint256"}],"outputs":[],"stateMutability":"nonpayable"},{"type":"function","name":"funded","inputs":[],"outputs":[{"name":"","type":"bool","internalType":"bool"}],"stateMutability":"view"},{"type":"function","name":"is_bonded","inputs":[],"outputs":[{"name":"","type":"bool","internalType":"bool"}],"stateMutability":"view"},{"type":"function","name":"maxBlockLookback","inputs":[],"outputs":[{"name":"","type":"uint256","internalType":"uint256"}],"stateMutability":"view"},{"type":"function","name":"originalRewardAmount","inputs":[],"outputs":[{"name":"","type":"uint256","internalType":"uint256"}],"stateMutability":"view"},{"type":"function","name":"requestCancellation","inputs":[],"outputs":[],"stateMutability":"nonpayable"},{"type":"function","name":"resume","inputs":[],"outputs":[],"stateMutability":"nonpayable"},{"type":"function","name":"taskId","inputs":[],"outputs":[{"name":"","type":"bytes32","internalType":"bytes32"}],"stateMutability":"view"},{"type":"function","name":"totalBondsDeposited","inputs":[],"outputs":[{"name":"","type":"uint256","internalType":"uint256"}],"stateMutability":"view"},{"type":"function","name":"withdraw","inputs":[],"outputs":[],"stateMutability":"nonpayable"}],"bytecode":{"object":"0x610100346100ca57601f61286b38819003918201601f19168301916001600160401b038311848410176100ce5780849260409485528339810103126100ca578051906001600160a01b03821682036100ca57602001519060a0523360805260c05261010060e05260405161278890816100e3823960805181818161014a01528181610262015281816103b4015261058e015260a051818181610300015281816104b00152610623015260c0518181816101e90152610875015260e0518181816106e101526107a70152f35b5f80fd5b634e487b7160e01b5f52604160045260245ffdfe60806040526004361015610011575f80fd5b5f3560e01c8063046f7da2146101345780631aa7c0ec1461012f578063308657d71461012a5780633322b23d1461012557806333ee5f35146101205780633ccfd60b1461011b5780635a4fd6451461011657806380f323a71461011157806381972d001461010c5780638bd03d0a146101075780639940686e14610102578063a65e2cfd146100fd578063cb766a56146100f8578063d415b3f9146100f3578063d4899a62146100ee578063ede7f6a3146100e9578063f3a504f2146100e45763fe03a460146100df575f80fd5b610961565b61093c565b610704565b6106ca565b6106ad565b610689565b610564565b61040e565b6103f1565b61039e565b610381565b610365565b610229565b61020c565b6101d2565b6101b0565b610188565b34610184575f36600319011261018457610178337f00000000000000000000000000000000000000000000000000000000000000006001600160a01b03161461097e565b6007805460ff19169055005b5f80fd5b34610184575f366003190112610184576003546040516001600160a01b039091168152602090f35b34610184575f36600319011261018457602060ff600754166040519015158152f35b34610184575f3660031901126101845760206040517f00000000000000000000000000000000000000000000000000000000000000008152f35b34610184575f366003190112610184576020600454604051908152f35b34610184575f36600319011261018457610291600161024e60075460ff9060081c1690565b610257816109ca565b610289828060a01b037f000000000000000000000000000000000000000000000000000000000000000016331461097e565b151514610a0c565b610299610f7f565b6102fb60206102ad60015460025490610ac2565b6102bd61ff001960075416600755565b6102c65f600155565b5f80556102d4811515610acf565b60405163a9059cbb60e01b8152336004820152602481019190915291829081906044820190565b03815f7f00000000000000000000000000000000000000000000000000000000000000006001600160a01b03165af180156103605761033657005b6103579060203d602011610359575b61034f8183610b27565b810190610b4e565b005b503d610345565b610b66565b34610184575f3660031901126101845760205f54604051908152f35b34610184575f366003190112610184576020600554604051908152f35b34610184575f366003190112610184576103e2337f00000000000000000000000000000000000000000000000000000000000000006001600160a01b03161461097e565b6007805460ff19166001179055005b34610184575f366003190112610184576020600154604051908152f35b346101845760203660031901126101845760043561045361044e61044a60075461044461043f8260ff9060081c1690565b6109ca565b60ff1690565b1590565b610b71565b5f5461046a6104628260011c90565b831015610bb6565b600454801515908161055a575b50610528575b506040516323b872dd60e01b815233600482015230602482015260448101829052906020826064815f6001600160a01b037f0000000000000000000000000000000000000000000000000000000000000000165af1918215610360576103579261050b575b50600380546001600160a01b0319163317905561050661050142610a92565b600455565b600555565b6105239060203d6020116103595761034f8183610b27565b6104e2565b60055461053491610ac2565b5f5561054c610547600554600654610ac2565b600655565b610554610f7f565b5f61047d565b905042115f610477565b34610184576040366003190112610184576105dd6024356105d86004356105b56001600160a01b037f000000000000000000000000000000000000000000000000000000000000000016331461097e565b6105d06105cb61044a60075460ff9060081c1690565b610c16565b805f55600255565b600155565b61061e60206105f160025460015490610ac2565b6040516323b872dd60e01b8152336004820152306024820152604481019190915291829081906064820190565b03815f7f00000000000000000000000000000000000000000000000000000000000000006001600160a01b03165af180156103605761066c575b61035761010061ff00196007541617600755565b6106849060203d6020116103595761034f8183610b27565b610658565b34610184575f3660031901126101845760206106a3610c62565b6040519015158152f35b34610184575f366003190112610184576020600254604051908152f35b34610184575f3660031901126101845760206040517f00000000000000000000000000000000000000000000000000000000000000008152f35b346101845760403660031901126101845760043567ffffffffffffffff8111610184578060040160a060031983360301126101845761081661089f61089a6020936102fb95608461086d61075760243590565b9361076b61043f60075460ff9060081c1690565b6003546001600160a01b031697889533871480610929575b61078c90610c7a565b61079843821115610cc5565b6107cd6107a58243610d2e565b7f00000000000000000000000000000000000000000000000000000000000000001015610d3b565b6107fd81406107dd811515610d7e565b6107f16107ea8680610dca565b3691610e19565b8d815191012014610e4f565b61081061080a8480610dca565b906110e3565b14610e9b565b6108296108238280610dca565b9061123e565b90610868610863602487019361083f8585610dca565b9061084d60448b0187610dca565b9061085b60648d0189610dca565b9490936112fa565b610ee7565b610dca565b9190920135907f0000000000000000000000000000000000000000000000000000000000000000926113a2565b610f33565b6108b96108b06005545f5490610ac2565b60015490610ac2565b600380546001600160a01b0319169055906108d35f600555565b6108dc5f600455565b6108ec61ff001960075416600755565b6108f55f600155565b5f805560405163a9059cbb60e01b81526001600160a01b039091166004820152602481019190915291829081906044820190565b5061078c610935610c62565b9050610783565b34610184575f36600319011261018457602060ff60075460081c166040519015158152f35b34610184575f366003190112610184576020600654604051908152f35b1561098557565b60405162461bcd60e51b815260206004820152601d60248201527f4f6e6c792063616c6c61626c6520627920746865206465706c6f7965720000006044820152606490fd5b156109d157565b60405162461bcd60e51b815260206004820152601360248201527210dbdb9d1c9858dd081b9bdd08199d5b991959606a1b6044820152606490fd5b15610a1357565b60405162461bcd60e51b815260206004820152603760248201527f54686520636f6e747261637420776173206e6f742066756e646564206f72206860448201527f6173206265656e20647261696e656420616c72656164790000000000000000006064820152608490fd5b634e487b7160e01b5f52601160045260245ffd5b9061012c8201809211610aa157565b610a7e565b9060018201809211610aa157565b6001019081600111610aa157565b91908201809211610aa157565b15610ad657565b60405162461bcd60e51b81526020600482015260156024820152744e6f20776974686472617761626c652066756e647360581b6044820152606490fd5b634e487b7160e01b5f52604160045260245ffd5b90601f8019910116810190811067ffffffffffffffff821117610b4957604052565b610b13565b90816020910312610184575180151581036101845790565b6040513d5f823e3d90fd5b15610b7857565b60405162461bcd60e51b815260206004820152601660248201527510d85b98d95b1b185d1a5bdb881c995c5d595cdd195960521b6044820152606490fd5b15610bbd57565b60405162461bcd60e51b815260206004820152602b60248201527f426f6e64206d757374206265206174206c656173742068616c66206f6620726560448201526a1dd85c9908185b5bdd5b9d60aa1b6064820152608490fd5b15610c1d57565b60405162461bcd60e51b815260206004820152601760248201527f436f6e747261637420616c72656164792066756e6465640000000000000000006044820152606490fd5b6004548015159081610c72575090565b905042111590565b15610c8157565b606460405162461bcd60e51b815260206004820152602060248201527f4f6e6c7920626f6e646564206578656375746f722063616e20636f6c6c6563746044820152fd5b15610ccc57565b60405162461bcd60e51b815260206004820152601d60248201527f54617267657420626c6f636b20697320696e20746865206675747572650000006044820152606490fd5b600119810191908211610aa157565b5f19810191908211610aa157565b91908203918211610aa157565b15610d4257565b60405162461bcd60e51b815260206004820152601460248201527315185c99d95d08189b1bd8dac81d1bdbc81bdb1960621b6044820152606490fd5b15610d8557565b60405162461bcd60e51b815260206004820152601d60248201527f556e61626c6520746f20726574726965766520626c6f636b20686173680000006044820152606490fd5b903590601e1981360301821215610184570180359067ffffffffffffffff82116101845760200191813603831361018457565b67ffffffffffffffff8111610b4957601f01601f191660200190565b929192610e2582610dfd565b91610e336040519384610b27565b829481845281830111610184578281602093845f960137010152565b15610e5657565b60405162461bcd60e51b815260206004820152601a60248201527f426c6f636b206865616465722068617368206d69736d617463680000000000006044820152606490fd5b15610ea257565b60405162461bcd60e51b815260206004820152601c60248201527f48656164657220626c6f636b206e756d626572206d69736d61746368000000006044820152606490fd5b15610eee57565b60405162461bcd60e51b815260206004820152601960248201527f496e76616c69642072656365697074204d50542070726f6f66000000000000006044820152606490fd5b15610f3a57565b60405162461bcd60e51b815260206004820152601b60248201527f496e76616c6964207461736b20636f6d706c6574696f6e206c6f6700000000006044820152606490fd5b610f87610c62565b610fac576bffffffffffffffffffffffff60a01b600354166003555f6005555f600455565b60405162461bcd60e51b815260206004820152602160248201527f43616e6e6f74207265736574207768696c6520626f6e642069732061637469766044820152606560f81b6064820152608490fd5b634e487b7160e01b5f52603260045260245ffd5b90156110185790565b610ffb565b90821015611018570190565b1561103057565b60405162461bcd60e51b815260206004820152601060248201526f125b9d985b1a5908149314081b1a5cdd60821b6044820152606490fd5b60ff60f6199116019060ff8211610aa157565b60ff60bf199116019060ff8211610aa157565b60ff60b6199116019060ff8211610aa157565b60ff607f199116019060ff8211610aa157565b60ff166001019060ff8211610aa157565b8051156110185760200190565b908151811015611018570160200190565b91905f61111a600360fe1b6001600160f81b0319611112611104868961100f565b356001600160f81b03191690565b161015611029565b601f60fb1b6001600160f81b0319611135611104858861100f565b16106111df578061116961044461116461115f61115961110461116f97898c61101d565b60f81c90565b611068565b6110b4565b90610ac2565b905b5f5b600881106111ca57506111869293611733565b505f9190825b81518410156111c55760019060081b6111bc6104446111596111ae88876110d2565b516001600160f81b03191690565b1793019261118c565b925050565b916111d8600191838761155a565b9201611173565b50600190611171565b156111ef57565b60405162461bcd60e51b815260206004820152602160248201527f496e76616c6964207265636569707473526f6f7420524c5020656e636f64696e6044820152606760f81b6064820152608490fd5b9091905f611260600360fe1b6001600160f81b0319611112611104888761100f565b601f60fb1b6001600160f81b031961127b611104878661100f565b16106112f2578061116961044461116461115f61115961110461129f978b8a61101d565b5f5b600581106112dd57506112d36112d8929394600560fd1b906112cc6111048560ff60f81b938961101d565b16146111e8565b610aa6565b013590565b906112eb600191868561155a565b91016112a1565b50600161129f565b6113106113189293949561131e98973691610e19565b923691610e19565b906118f3565b90565b1561132857565b60405162461bcd60e51b81526020600482015260136024820152720496e76616c6964207265636569707420524c5606c1b6044820152606490fd5b1561136a57565b60405162461bcd60e51b815260206004820152601060248201526f0496e76616c6964206c6f677320524c560841b6044820152606490fd5b9493929190805f87821515806114f2575b6114e4575b60c060ff6113d061115961110486886113d89761101d565b161015611321565b8760f860ff6113ee61115961110486888761101d565b16106114d25761044461116461115f61115961110486611411986111699761101d565b81905b875f5b600381106114b9575060c061143961044461115961110486886114409761101d565b1015611363565b8760f861145761044461115961110486888761101d565b106114a85761044461116461115f61115961110486611479986111699761101d565b915b5f905b80821061149157505061131e9495611a84565b90926114a0600191848a61155a565b93019061147e565b506114b39150610aa6565b9161147b565b92916001926114c79261155a565b910190878392611417565b506114dd9150610aa6565b8190611414565b5082915060019050876113b8565b50608060ff611507611159611104878661100f565b16106113b3565b1561151557565b60405162461bcd60e51b815260206004820152601860248201527f524c50206f6666736574206f7574206f6620626f756e647300000000000000006044820152606490fd5b919061156781831061150e565b61157861115961110484848761101d565b9060ff821660808110156115935750505061131e9150610aa6565b91929160b88110156115bb57505061131e92506104446115b561116992610aa6565b926110a1565b90929060c081101561163657506104446115d79194939461108e565b915f935f915b8483106115fd5750505061131e92916115f86115f892610aa6565b610ac2565b90919461160c60019160081b90565b61162c6104446111596111046116258b6115f88b610aa6565b888861101d565b17950191906115dd565b90929060f8111561165c575061131e925061044461165661116992610aa6565b9261107b565b929161044461166a91611068565b915f935f915b84831061168b5750505061131e92916115f86115f892610aa6565b90919461169a60019160081b90565b6116b36104446111596111046116258b6115f88b610aa6565b1795019190611670565b604080519091906116ce8382610b27565b6001815291601f1901366020840137565b604080519091906116f08382610b27565b6014815291601f1901366020840137565b9061170b82610dfd565b6117186040519182610b27565b8281528092611729601f1991610dfd565b0190602036910137565b61173e82841061150e565b61174f61115961110485858561101d565b9260ff8416608081101561178957505050506117696116bd565b9060f81b6001600160f81b0319165f1a611782826110c5565b5390600190565b60b881969592939496105f146117f757506104446117a6916110a1565b916117b083611701565b945f5b8481106117c7575050505061131e90610ab4565b806117e46111046117dd6001946115f889610aa6565b858761101d565b5f1a6117f0828a6110d2565b53016117b3565b60c011156118985761044461180b9161108e565b905f925f5b838110611869575061182184611701565b955f5b85811061183c5750505050906115f861131e92610ab4565b806118566111046117dd6001946115f88a6115f88b610aa6565b5f1a611862828b6110d2565b5301611824565b9360019060081b6118906104446111596111046118898a6115f88a610aa6565b8c8861101d565b179401611810565b60405162461bcd60e51b815260206004820152601e60248201527f457870656374656420737472696e67206974656d2c20676f74206c69737400006044820152606490fd5b908160011b9180830460021490151715610aa157565b90925f5f5b82821080611a26575b156119bf5761192461191d8361191836878a610e19565b611b4f565b9093610ac2565b9682516020840120036119bf57600360fe1b6119526119456111ae856110c5565b6001600160f81b03191690565b106119bf578590846001601f60fb1b6001600160f81b03196119766111ae886110c5565b161015611a03575b6119888186611cd9565b601181036119ca575061199a94611e26565b9491156119bf5784156119b35793915b919590936118f8565b50505050505050600190565b505050505050505f90565b9093506002141590506119f7578487926119e394611d0f565b9491156119bf5784156119b35793916119aa565b50505050505050505f90565b50611a21611a1c61044461115f6111596111ae896110c5565b610ab4565b61197e565b50611a3184516118dd565b8110611901565b15611a3f57565b60405162461bcd60e51b815260206004820152601e60248201527f496e76616c696420656d69747465722061646472657373206c656e67746800006044820152606490fd5b90939291938460c060ff611a9988858761101d565b358160f81b1660f81c1610611b18576014611b03918760f860ff611ac761115961110461131e9d8a8c61101d565b1610611b0957508061116961044461116461115f611159611104611aec978b8d61101d565b6115f8611afa828688611f3b565b93905114611a38565b916120f3565b611b139150610aa6565b611aec565b60405162461bcd60e51b815260206004820152600f60248201526e0496e76616c6964206c6f6720524c5608c1b6044820152606490fd5b611b5b8151831061150e565b611b6b6111596111ae84846110d2565b9160ff83166080811015611b84575050506117696116bd565b919392909160b8811015611bee5750610444611b9f916110a1565b90611ba982611701565b935f5b838110611bbf5750505061131e90610ab4565b80611bdb6111ae611bd56001946115f888610aa6565b856110d2565b5f1a611be782896110d2565b5301611bac565b60c01115611c8c57610444611c029161108e565b5f915f5b828110611c5e5750611c1783611701565b945f5b848110611c3157505050906115f861131e92610ab4565b80611c4b6111ae611bd56001946115f8896115f88a610aa6565b5f1a611c57828a6110d2565b5301611c1a565b9260019060081b611c846104446111596111ae611c7e896115f889610aa6565b8b6110d2565b179301611c06565b5091611c988382612210565b92611ca284611701565b915f5b858110611cb3575050509190565b80611cc66111ae611bd560019487610ac2565b5f1a611cd282876110d2565b5301611ca5565b5f915b8151811015611d0a57611cef8183612210565b8101809111610aa157915f198114610aa15760010191611cdc565b505090565b939193611d1c8282611b4f565b929095611d3c6020611d336111596111ae8b6110c5565b16151597612340565b80975f14611dc757611d4f905187610ac2565b611d5982516118dd565b14611d6e575b505050505050505f905f905f90565b8686611d79926124a6565b611d84575b80611d5f565b611d9792611d9191610ac2565b90611b4f565b5060208151910120906020815191012014611db55780808080611d7e565b611dc0915190610ac2565b6001915f90565b86611dd89397965061044a926124a6565b611e1957611d91611dec92611e0795610ac2565b5080519060208203611e0f57602091500151925b5190610ac2565b916001929190565b6020012092611e00565b50505050505f905f905f90565b91909293611e3482516118dd565b851015611ede57506111596111ae611e5692611e508760011c90565b906110d2565b60018416611ed55760041c600f16915b905f925b60ff81168410611eb55750611e7f9250611b4f565b5080518015611eaa57611e079160208203611ea05760209150015191610aa6565b6020012091610aa6565b5050505f905f905f90565b90916001611ec98261116960ff9487612210565b94019392919050611e6a565b600f1691611e66565b9290509392935f915b60108310611f2157611ef99250611b4f565b50602081519101209060208151910120145f14611f1857600191905f90565b5f915081908190565b90611f328161116960019385612210565b92019190611ee7565b919091611f4983831061150e565b609460ff611f5e61115961110486888761101d565b1603611faa57611f6c6116df565b925f5b60148110611f81575050505090601590565b80611f976111046117dd6001946115f889610aa6565b5f1a611fa382886110d2565b5301611f6f565b60405162461bcd60e51b815260206004820152601c60248201527f496e76616c6964206164647265737320524c5020656e636f64696e67000000006044820152606490fd5b15611ff657565b60405162461bcd60e51b81526020600482015260126024820152710496e76616c696420746f7069637320524c560741b6044820152606490fd5b1561203757565b60405162461bcd60e51b815260206004820152601560248201527457726f6e67206576656e74207369676e617475726560581b6044820152606490fd5b1561207b57565b60405162461bcd60e51b815260206004820152601060248201526f0a8c2e6d640928840dad2e6dac2e8c6d60831b6044820152606490fd5b156120ba57565b60405162461bcd60e51b815260206004820152601160248201527008af0cac6eae8dee440dad2e6dac2e8c6d607b1b6044820152606490fd5b92916121e56121f2956121d26121c66121c66121bf876121b8819a828d8060f860ff6121ec9f8f6111048161162560c08661213c611159611104611159986121449a819e61101d565b161015611fef565b16106121f95761216e8161116961044461116461115f6111596111046121aa986121b29b8b61101d565b6121a37f9bca35f525b07252258e17831eacb3e24cf656de77e9630c6ab288375bff543261219d838a87612564565b14612030565b868361155a565b948591612564565b14612074565b898b61155a565b888a612564565b6001600160a01b031690565b6001600160a01b039081169116146120b3565b828461155a565b916125d6565b5050600190565b506121b291506121aa61220b8d610aa6565b61216e565b9061221d8251821061150e565b61222d6111596111ae83856110d2565b9160ff831660808110156122445750505050600190565b60b881101561225f5750505061044461116461131e926110a1565b60c08110156122cb5750916104446122769161108e565b905f925f915b83831061229357505050906115f861131e92610ab4565b9091936122a260019160081b90565b6122c16104446111596111ae6122bb8a6115f889610aa6565b886110d2565b179401919061227c565b60f811156122e457505061044461116461131e9261107b565b916104446122f191611068565b905f925f915b83831061230e57505050906115f861131e92610ab4565b90919361231d60019160081b90565b6123366104446111596111ae6122bb8a6115f889610aa6565b17940191906122f7565b908151156124a4576123576111596111ae846110c5565b60108116156124265761237a61237561237085516118dd565b610d20565b611701565b9060f81b600f60f81b165f1a61238f826110c5565b5360015b835181101561242157806123ce6123be6123b56111596111ae6001968a6110d2565b60041c600f1690565b60f81b6001600160f81b03191690565b6123e76123dd612370846118dd565b915f1a91856110d2565b5361240e600f6123fd6111596111ae858a6110d2565b1660f81b6001600160f81b03191690565b61241a6123dd836118dd565b5301612393565b509150565b5061243c61237561243784516118dd565b610d11565b60015b835181101561242157806124616123be6123b56111596111ae6001968a6110d2565b6124756123dd61247084610d20565b6118dd565b5361248b600f6123fd6111596111ae858a6110d2565b61249d6123dd6112d361247085610d20565b530161243f565b565b9190916124b4825184610ac2565b6124be82516118dd565b1061255d575f5b8251811015612554576124e16124db8286610ac2565b60011690565b6125365761250a6123b56111596111ae6125046124fe868a610ac2565b60011c90565b866110d2565b60ff61251f6104446111596111ae86896110d2565b91160361252e576001016124c5565b505050505f90565b600f61254e6111596111ae6125046124fe868a610ac2565b1661250a565b50505050600190565b5050505f90565b9190600560fd1b906001600160f81b0319906125829084908661101d565b35160361259157016001013590565b60405162461bcd60e51b815260206004820152601760248201527f45787065637465642033322d6279746520737472696e670000000000000000006044820152606490fd5b6125e182841061150e565b6125f261115961110485858561101d565b9260ff8416608081101561260c57505050506117696116bd565b60b881969592939496105f146126735750610444612629916110a1565b9161263383611701565b945f5b84811061264a575050505061131e90610ab4565b806126606111046117dd6001946115f889610aa6565b5f1a61266c828a6110d2565b5301612636565b60c0111561270d576104446126879161108e565b905f925f5b8381106126e5575061269d84611701565b955f5b8581106126b85750505050906115f861131e92610ab4565b806126d26111046117dd6001946115f88a6115f88b610aa6565b5f1a6126de828b6110d2565b53016126a0565b9360019060081b6127056104446111596111046118898a6115f88a610aa6565b17940161268c565b60405162461bcd60e51b815260206004820152601e60248201527f457870656374656420737472696e6720646174612c20676f74206c69737400006044820152606490fdfea2646970667358221220c99a135a08dc6d133dfde2aa9f5d116f692d813f0d9cb9bb0346e9f35b39f8be64736f6c634300081c0033","linkReferences":{}},"methodIdentifiers":{"bond(uint256)":"9940686e","bondAmount()":"80f323a7","bondedExecutor()":"1aa7c0ec","cancellationRequest()":"308657d7","collect((bytes,bytes,bytes,bytes,uint256),uint256)":"ede7f6a3","currentPaymentAmount()":"8bd03d0a","currentRewardAmount()":"5a4fd645","executionDeadline()":"33ee5f35","fund(uint256,uint256)":"a65e2cfd","funded()":"f3a504f2","is_bonded()":"cb766a56","maxBlockLookback()":"d4899a62","originalRewardAmount()":"d415b3f9","requestCancellation()":"81972d00","resume()":"046f7da2","taskId()":"3322b23d","totalBondsDeposited()":"fe03a460","withdraw()":"3ccfd60b"},"id":22}