{"abi":[{"type":"constructor","inputs":[{"name":"_tokenContract","type":"address","internalType":"address"},{"name":"_expectedRecipient","type":"address","internalType":"address"},{"name":"_expectedAmount","type":"uint256","internalType":"uint256"},{"name":"_currentRewardAmount","type":"uint256","internalType":"uint256"},{"name":"_currentPaymentAmount","type":"uint256","internalType":"uint256"}],"stateMutability":"nonpayable"},{"type":"function","name":"bond","inputs":[{"name":"_bondAmount","type":"uint256","internalType":"uint256"}],"outputs":[],"stateMutability":"nonpayable"},{"type":"function","name":"bondAmount","inputs":[],"outputs":[{"name":"","type":"uint256","internalType":"uint256"}],"stateMutability":"view"},{"type":"function","name":"bondNative","inputs":[],"outputs":[],"stateMutability":"payable"},{"type":"function","name":"bondedExecutor","inputs":[],"outputs":[{"name":"","type":"address","internalType":"address"}],"stateMutability":"view"},{"type":"function","name":"cancellationRequest","inputs":[],"outputs":[{"name":"","type":"bool","internalType":"bool"}],"stateMutability":"view"},{"type":"function","name":"collect","inputs":[{"name":"proof","type":"tuple","internalType":"struct Escrow.ReceiptProof","components":[{"name":"blockHeader","type":"bytes","internalType":"bytes"},{"name":"receiptRlp","type":"bytes","internalType":"bytes"},{"name":"proofNodes","type":"bytes","internalType":"bytes"},{"name":"receiptPath","type":"bytes","internalType":"bytes"},{"name":"logIndex","type":"uint256","internalType":"uint256"}]},{"name":"targetBlockNumber","type":"uint256","internalType":"uint256"}],"outputs":[],"stateMutability":"nonpayable"},{"type":"function","name":"collectNative","inputs":[{"name":"proof","type":"tuple","internalType":"struct Escrow.TransactionProof","components":[{"name":"blockHeader","type":"bytes","internalType":"bytes"},{"name":"transactionRlp","type":"bytes","internalType":"bytes"},{"name":"proofNodes","type":"bytes","internalType":"bytes"},{"name":"transactionPath","type":"bytes","internalType":"bytes"}]},{"name":"targetBlockNumber","type":"uint256","internalType":"uint256"}],"outputs":[],"stateMutability":"nonpayable"},{"type":"function","name":"currentPaymentAmount","inputs":[],"outputs":[{"name":"","type":"uint256","internalType":"uint256"}],"stateMutability":"view"},{"type":"function","name":"currentRewardAmount","inputs":[],"outputs":[{"name":"","type":"uint256","internalType":"uint256"}],"stateMutability":"view"},{"type":"function","name":"executionDeadline","inputs":[],"outputs":[{"name":"","type":"uint256","internalType":"uint256"}],"stateMutability":"view"},{"type":"function","name":"expectedAmount","inputs":[],"outputs":[{"name":"","type":"uint256","internalType":"uint256"}],"stateMutability":"view"},{"type":"function","name":"expectedRecipient","inputs":[],"outputs":[{"name":"","type":"address","internalType":"address"}],"stateMutability":"view"},{"type":"function","name":"fund","inputs":[{"name":"_currentRewardAmount","type":"uint256","internalType":"uint256"},{"name":"_currentPaymentAmount","type":"uint256","internalType":"uint256"}],"outputs":[],"stateMutability":"nonpayable"},{"type":"function","name":"fundNative","inputs":[{"name":"_currentRewardAmount","type":"uint256","internalType":"uint256"},{"name":"_currentPaymentAmount","type":"uint256","internalType":"uint256"}],"outputs":[],"stateMutability":"payable"},{"type":"function","name":"funded","inputs":[],"outputs":[{"name":"","type":"bool","internalType":"bool"}],"stateMutability":"view"},{"type":"function","name":"is_bonded","inputs":[],"outputs":[{"name":"","type":"bool","internalType":"bool"}],"stateMutability":"view"},{"type":"function","name":"maxBlockLookback","inputs":[],"outputs":[{"name":"","type":"uint256","internalType":"uint256"}],"stateMutability":"view"},{"type":"function","name":"originalRewardAmount","inputs":[],"outputs":[{"name":"","type":"uint256","internalType":"uint256"}],"stateMutability":"view"},{"type":"function","name":"requestCancellation","inputs":[],"outputs":[],"stateMutability":"nonpayable"},{"type":"function","name":"resume","inputs":[],"outputs":[],"stateMutability":"nonpayable"},{"type":"function","name":"totalBondsDeposited","inputs":[],"outputs":[{"name":"","type":"uint256","internalType":"uint256"}],"stateMutability":"view"},{"type":"function","name":"withdraw","inputs":[],"outputs":[],"stateMutability":"nonpayable"},{"type":"function","name":"withdrawNative","inputs":[],"outputs":[],"stateMutability":"nonpayable"}],"bytecode":{"object":"0x61012080604052346101f05760a081613b7880380380916100208285610338565b8339810103126101f0576100338161036f565b906100406020820161036f565b604082015190608060608401519301519360a05260c05260e052336080526101008052801580158061032f575b61012d575b6040516137f49081610384823960805181818161019a015281816102e10152818161040b0152818161051c015281816107550152610b6f015260a0518181816102a8015281816103d9015281816105e3015281816107a0015281816108a7015281816109c801528181610bb101528181610c870152612142015260c05181818161056e01528181610a910152610d44015260e05181818161021701528181610a6f0152610d22015261010051818181610b3401526117800152f35b60ff60075460081c166102ea5760a0516001600160a01b0316156102a55761026057811561021b57805f55806002558160015560018060a01b0360a05116918101809111610207575f91606460209260405194859384926323b872dd60e01b845233600485015230602485015260448401525af180156101fc576101c4575b5061010061ff001960075416176007555f8080610072565b6020813d6020116101f4575b816101dd60209383610338565b810103126101f0575180151581146101ac575b5f80fd5b3d91506101d0565b6040513d5f823e3d90fd5b634e487b7160e01b5f52601160045260245ffd5b60405162461bcd60e51b815260206004820152601f60248201527f5061796d656e7420616d6f756e74206d757374206265206e6f6e2d7a65726f006044820152606490fd5b60405162461bcd60e51b815260206004820152601e60248201527f52657761726420616d6f756e74206d757374206265206e6f6e2d7a65726f00006044820152606490fd5b60405162461bcd60e51b815260206004820152601d60248201527f5573652066756e644e617469766520666f72206e6174697665204554480000006044820152606490fd5b60405162461bcd60e51b815260206004820152601760248201527f436f6e747261637420616c72656164792066756e6465640000000000000000006044820152606490fd5b5082151561006d565b601f909101601f19168101906001600160401b0382119082101761035b57604052565b634e487b7160e01b5f52604160045260245ffd5b51906001600160a01b03821682036101f05756fe60806040526004361015610011575f80fd5b5f3560e01c8063046f7da2146101845780631aa7c0ec1461017f5780632feef2ec1461017a578063308657d71461017557806333ee5f35146101705780633ccfd60b1461016b57806350431ce4146101665780635a4fd6451461016157806380f323a71461015c57806381972d00146101575780638677ab23146101525780638bd03d0a1461014d5780639940686e14610148578063a65e2cfd14610143578063ae6c3fcf1461013e578063cb766a5614610139578063d26e35c814610134578063d415b3f91461012f578063d4899a621461012a578063df23579414610125578063ede7f6a314610120578063f3a504f21461011b5763fe03a46014610116575f80fd5b610de2565b610dbd565b610c50565b610b57565b610b1d565b610b00565b61098e565b61096a565b61087a565b61072f565b6105ba565b61059d565b610559565b610506565b6104e9565b6104cd565b6103b6565b610279565b61025c565b61023a565b610200565b6101d8565b346101d4575f3660031901126101d4576101c8337f00000000000000000000000000000000000000000000000000000000000000006001600160a01b031614610dff565b6007805460ff19169055005b5f80fd5b346101d4575f3660031901126101d4576003546040516001600160a01b039091168152602090f35b346101d4575f3660031901126101d45760206040517f00000000000000000000000000000000000000000000000000000000000000008152f35b346101d4575f3660031901126101d457602060ff600754166040519015158152f35b346101d4575f3660031901126101d4576020600454604051908152f35b346101d4575f3660031901126101d4576007546102a09060081c60ff16610e4b565b610e4b565b5f60206103777f00000000000000000000000000000000000000000000000000000000000000006001600160a01b03166102db811515610e8d565b61030f337f00000000000000000000000000000000000000000000000000000000000000006001600160a01b031614610dff565b6103176114e1565b61032660015460025490610f35565b61033661ff001960075416600755565b61033f5f600155565b84805561034d811515610f42565b60405163a9059cbb60e01b8152336004820152602481019190915293849283919082906044820190565b03925af180156103b15761038757005b6103a89060203d6020116103aa575b6103a08183610f9a565b810190610fc1565b005b503d610396565b610fd9565b346101d4575f3660031901126101d4576103d760ff60075460081c16610e4b565b7f00000000000000000000000000000000000000000000000000000000000000006001600160a01b031661048f57610439337f00000000000000000000000000000000000000000000000000000000000000006001600160a01b031614610dff565b6104416114e1565b6103a85f80808061045760015460025490610f35565b61046761ff001960075416600755565b6104705f600155565b81805561047e811515610f42565b335af1610489611000565b5061102f565b60405162461bcd60e51b8152602060048201526016602482015275055736520776974686472617720666f722045524332360541b6044820152606490fd5b346101d4575f3660031901126101d45760205f54604051908152f35b346101d4575f3660031901126101d4576020600554604051908152f35b346101d4575f3660031901126101d45761054a337f00000000000000000000000000000000000000000000000000000000000000006001600160a01b031614610dff565b6007805460ff19166001179055005b346101d4575f3660031901126101d4576040517f00000000000000000000000000000000000000000000000000000000000000006001600160a01b03168152602090f35b346101d4575f3660031901126101d4576020600154604051908152f35b346101d45760203660031901126101d4576007546004356105e160ff600884901c16610e4b565b7f00000000000000000000000000000000000000000000000000000000000000006001600160a01b0316916106329061062d9061062990610623861515611071565b60ff1690565b1590565b6110bd565b6004548015159081610725575b506106f3575b61065861065361062961132a565b611102565b61066e6106665f5460011c90565b821015611159565b6040516323b872dd60e01b81523360048201523060248201526044810182905291602090839060649082905f905af19182156103b1576103a8926106d6575b50600380546001600160a01b031916331790556106d16106cc42610ef7565b600455565b600555565b6106ee9060203d6020116103aa576103a08183610f9a565b6106ad565b6107006005545f54610f35565b5f55610718610713600554600654610f35565b600655565b6107206114e1565b610645565b905042115f61063f565b346101d45760403660031901126101d4575f602061083a6004356107fb602435610783337f00000000000000000000000000000000000000000000000000000000000000006001600160a01b031614610dff565b61079e61079961062960075460ff9060081c1690565b6111b9565b7f00000000000000000000000000000000000000000000000000000000000000006001600160a01b0316926107f6906107d8851515611205565b6107e3811515611251565b6107ee83151561129d565b808855600255565b600155565b61080a60025460015490610f35565b6040516323b872dd60e01b8152336004820152306024820152604481019190915293849283919082906064820190565b03925af180156103b15761085d575b6103a861010061ff00196007541617600755565b6108759060203d6020116103aa576103a08183610f9a565b610849565b5f3660031901126101d4576108d561062d6106296007546108a261029b8260ff9060081c1690565b6106237f00000000000000000000000000000000000000000000000000000000000000006001600160a01b0316156112e9565b6004548015159081610960575b50610933575b6108f661065361062961132a565b61090c6109045f5460011c90565b341015611159565b600380546001600160a01b0319163317905561092a6106cc42610ef7565b6103a834600555565b6109406005545f54610f35565b5f55610953610713600554600654610f35565b61095b6114e1565b6108e8565b905042115f6108e2565b346101d4575f3660031901126101d457602061098461132a565b6040519015158152f35b346101d45760403660031901126101d45760043567ffffffffffffffff81116101d45780600401608060031983360301126101d4576024357f00000000000000000000000000000000000000000000000000000000000000006001600160a01b0316610ac357610abb9282610a13610a6c93610a0d83610ab697611342565b90611730565b610a67610a62610a2c610a268480611342565b90611951565b60646024860195610a3d8787611342565b929091610a5a610a50604483018a611342565b9390920189611342565b949093611a39565b611375565b611342565b907f0000000000000000000000000000000000000000000000000000000000000000917f000000000000000000000000000000000000000000000000000000000000000091611b5d565b6113c1565b6103a8611d9d565b60405162461bcd60e51b8152602060048201526015602482015274055736520636f6c6c65637420666f7220455243323605c1b6044820152606490fd5b346101d4575f3660031901126101d4576020600254604051908152f35b346101d4575f3660031901126101d45760206040517f00000000000000000000000000000000000000000000000000000000000000008152f35b60403660031901126101d457600435602435610b9d337f00000000000000000000000000000000000000000000000000000000000000006001600160a01b031614610dff565b610baf60ff60075460081c16156111b9565b7f00000000000000000000000000000000000000000000000000000000000000006001600160a01b0316610c16576107f682610bef610849941515611251565b610bfa83151561129d565b610c0e610c078483610f35565b341461140d565b805f55600255565b60405162461bcd60e51b815260206004820152601260248201527105573652066756e6420666f722045524332360741b6044820152606490fd5b346101d45760403660031901126101d45760043567ffffffffffffffff81116101d4578060040160a060031983360301126101d4577f00000000000000000000000000000000000000000000000000000000000000009160243591906001600160a01b03841615610d7957610d7193610d2083610cd6610d6c96610a0d83608498611342565b610ce9610ce38280611342565b90611e0a565b90610a67610d1b6024870193610cff8585611342565b90610d0d60448b0187611342565b90610a5a60648d0189611342565b611450565b7f0000000000000000000000000000000000000000000000000000000000000000947f000000000000000000000000000000000000000000000000000000000000000094013591611f32565b61149c565b6103a861209b565b606460405162461bcd60e51b815260206004820152602060248201527f55736520636f6c6c6563744e617469766520666f72206e6174697665204554486044820152fd5b346101d4575f3660031901126101d457602060ff60075460081c166040519015158152f35b346101d4575f3660031901126101d4576020600654604051908152f35b15610e0657565b60405162461bcd60e51b815260206004820152601d60248201527f4f6e6c792063616c6c61626c6520627920746865206465706c6f7965720000006044820152606490fd5b15610e5257565b60405162461bcd60e51b815260206004820152601360248201527210dbdb9d1c9858dd081b9bdd08199d5b991959606a1b6044820152606490fd5b15610e9457565b60405162461bcd60e51b815260206004820152602160248201527f5573652077697468647261774e617469766520666f72206e61746976652045546044820152600960fb1b6064820152608490fd5b634e487b7160e01b5f52601160045260245ffd5b9061012c8201809211610f0657565b610ee3565b9060018201809211610f0657565b9060158201809211610f0657565b6001019081600111610f0657565b91908201809211610f0657565b15610f4957565b60405162461bcd60e51b81526020600482015260156024820152744e6f20776974686472617761626c652066756e647360581b6044820152606490fd5b634e487b7160e01b5f52604160045260245ffd5b90601f8019910116810190811067ffffffffffffffff821117610fbc57604052565b610f86565b908160209103126101d4575180151581036101d45790565b6040513d5f823e3d90fd5b67ffffffffffffffff8111610fbc57601f01601f191660200190565b3d1561102a573d9061101182610fe4565b9161101f6040519384610f9a565b82523d5f602084013e565b606090565b1561103657565b60405162461bcd60e51b8152602060048201526013602482015272115512081d1c985b9cd9995c8819985a5b1959606a1b6044820152606490fd5b1561107857565b60405162461bcd60e51b815260206004820152601d60248201527f55736520626f6e644e617469766520666f72206e6174697665204554480000006044820152606490fd5b156110c457565b60405162461bcd60e51b815260206004820152601660248201527510d85b98d95b1b185d1a5bdb881c995c5d595cdd195960521b6044820152606490fd5b1561110957565b60405162461bcd60e51b815260206004820152602260248201527f416e6f74686572206578656375746f7220697320616c726561647920626f6e64604482015261195960f21b6064820152608490fd5b1561116057565b60405162461bcd60e51b815260206004820152602b60248201527f426f6e64206d757374206265206174206c656173742068616c66206f6620726560448201526a1dd85c9908185b5bdd5b9d60aa1b6064820152608490fd5b156111c057565b60405162461bcd60e51b815260206004820152601760248201527f436f6e747261637420616c72656164792066756e6465640000000000000000006044820152606490fd5b1561120c57565b60405162461bcd60e51b815260206004820152601d60248201527f5573652066756e644e617469766520666f72206e6174697665204554480000006044820152606490fd5b1561125857565b60405162461bcd60e51b815260206004820152601e60248201527f52657761726420616d6f756e74206d757374206265206e6f6e2d7a65726f00006044820152606490fd5b156112a457565b60405162461bcd60e51b815260206004820152601f60248201527f5061796d656e7420616d6f756e74206d757374206265206e6f6e2d7a65726f006044820152606490fd5b156112f057565b60405162461bcd60e51b8152602060048201526012602482015271055736520626f6e6420666f722045524332360741b6044820152606490fd5b600454801515908161133a575090565b905042111590565b903590601e19813603018212156101d4570180359067ffffffffffffffff82116101d4576020019181360383136101d457565b1561137c57565b60405162461bcd60e51b815260206004820152601d60248201527f496e76616c6964207472616e73616374696f6e204d50542070726f6f660000006044820152606490fd5b156113c857565b60405162461bcd60e51b815260206004820152601760248201527f496e76616c6964206e6174697665207472616e736665720000000000000000006044820152606490fd5b1561141457565b60405162461bcd60e51b8152602060048201526014602482015273125b98dbdc9c9958dd0811551208185b5bdd5b9d60621b6044820152606490fd5b1561145757565b60405162461bcd60e51b815260206004820152601960248201527f496e76616c69642072656365697074204d50542070726f6f66000000000000006044820152606490fd5b156114a357565b60405162461bcd60e51b8152602060048201526016602482015275125b9d985b1a5908151c985b9cd9995c88195d995b9d60521b6044820152606490fd5b6114e961132a565b61150e576bffffffffffffffffffffffff60a01b600354166003555f6005555f600455565b60405162461bcd60e51b815260206004820152602160248201527f43616e6e6f74207265736574207768696c6520626f6e642069732061637469766044820152606560f81b6064820152608490fd5b1561156457565b60405162461bcd60e51b815260206004820152601d60248201527f54617267657420626c6f636b20697320696e20746865206675747572650000006044820152606490fd5b600119810191908211610f0657565b5f19810191908211610f0657565b91908203918211610f0657565b156115da57565b60405162461bcd60e51b815260206004820152601460248201527315185c99d95d08189b1bd8dac81d1bdbc81bdb1960621b6044820152606490fd5b1561161d57565b60405162461bcd60e51b815260206004820152601d60248201527f556e61626c6520746f20726574726965766520626c6f636b20686173680000006044820152606490fd5b92919261166e82610fe4565b9161167c6040519384610f9a565b8294818452818301116101d4578281602093845f960137010152565b1561169f57565b60405162461bcd60e51b815260206004820152601a60248201527f426c6f636b206865616465722068617368206d69736d617463680000000000006044820152606490fd5b156116eb57565b60405162461bcd60e51b815260206004820152601c60248201527f48656164657220626c6f636b206e756d626572206d69736d61746368000000006044820152606490fd5b91909161174460ff60075460081c16610e4b565b6003546001600160a01b031633148061181f575b156117db576117d9926117d3916117714385111561155d565b6117a661177e85436115c6565b7f000000000000000000000000000000000000000000000000000000000000000010156115d3565b6117ce84406117b6811515611616565b6117c1368585611662565b6020815191012014611698565b6121ef565b146116e4565b565b606460405162461bcd60e51b815260206004820152602060248201527f4f6e6c7920626f6e646564206578656375746f722063616e20636f6c6c6563746044820152fd5b5061182861132a565b611758565b634e487b7160e01b5f52603260045260245ffd5b901561184a5790565b61182d565b9082101561184a570190565b1561186257565b60405162461bcd60e51b815260206004820152601060248201526f125b9d985b1a5908149314081b1a5cdd60821b6044820152606490fd5b60ff60f6199116019060ff8211610f0657565b60ff607f199116019060ff8211610f0657565b60ff60bf199116019060ff8211610f0657565b60ff60b6199116019060ff8211610f0657565b60ff166001019060ff8211610f0657565b156118fe57565b60405162461bcd60e51b815260206004820152602560248201527f496e76616c6964207472616e73616374696f6e73526f6f7420524c5020656e636044820152646f64696e6760d81b6064820152608490fd5b9091905f611989600360fe1b6001600160f81b03196119816119738887611841565b356001600160f81b03191690565b16101561185b565b601f60fb1b6001600160f81b03196119a46119738786611841565b1610611a3157806119d86106236119d36119ce6119c86119736119de978b8a61184f565b60f81c90565b61189a565b6118e6565b90610f35565b5f5b60048110611a1c5750611a12611a17929394600560fd1b90611a0b6119738560ff60f81b938961184f565b16146118f7565b610f0b565b013590565b90611a2a60019186856122a3565b91016119e0565b5060016119de565b611a4f611a5792939495611a5d98973691611662565b923691611662565b90612457565b90565b15611a6757565b60405162461bcd60e51b815260206004820152600e60248201526d0496e76616c696420747820524c560941b6044820152606490fd5b15611aa457565b60405162461bcd60e51b8152602060048201526012602482015271496e76616c696420746f206164647265737360701b6044820152606490fd5b15611ae557565b60405162461bcd60e51b81526020600482015260126024820152710a4cac6d2e0d2cadce840dad2e6dac2e8c6d60731b6044820152606490fd5b15611b2657565b60405162461bcd60e51b815260206004820152600f60248201526e082dadeeadce840dad2e6dac2e8c6d608b1b6044820152606490fd5b90916003905f84151580611d81575b611d04575b80611b9560c060ff611b8d6119c8611973611bd0978c8c61184f565b161015611a60565b60f860ff611baa6119c8611973858b8b61184f565b1610611cfb5760ff611bc96119d36119ce6119c8611973868c8c61184f565b1690610f35565b915f905b808210611ce457505090611c1d611c2292611c04609460ff611bfd6119c8611973888c8c61184f565b1614611a9d565b6001600160a01b03166001838601013560601c14611ade565b610f19565b91611c346119c861197385848661184f565b925f9260ff851694608086105f14611c5c57505050505090611c57915b14611b1f565b600190565b90919293946080145f14611c79575050505050611c57905f611c51565b610623611c88919392936118ad565b915f935b838510611ca257505050505090611c5791611c51565b9091929394611cb360019160081b90565b611cd86106236119c8611973611cd18b611ccc8b610f0b565b610f35565b878961184f565b17950193929190611c8c565b9092611cf360019187876122a3565b930190611bd4565b60ff6001611bc9565b509050611d176119c86119738585611841565b6001919060ff16808303611d345750611bd06004925b9050611b71565b600203611d4657611bd0600592611d2d565b60405162461bcd60e51b8152602060048201526013602482015272556e737570706f72746564207478207479706560681b6044820152606490fd5b50608060ff611d966119c86119738989611841565b1610611b6c565b6005545f548101809111610f06576001548101809111610f06575f8080806117d9946003546bffffffffffffffffffffffff60a01b81166003558260055582600455611def61ff001960075416600755565b60018390558280556001600160a01b03165af1610489611000565b90611e158183612653565b905f5b60058110611e9c5750600560fd1b906001600160f81b031990611e3d9084908661184f565b351603611e4d57611a1790610f0b565b60405162461bcd60e51b815260206004820152602160248201527f496e76616c6964207265636569707473526f6f7420524c5020656e636f64696e6044820152606760f81b6064820152608490fd5b91611eaa60019183866122a3565b9201611e18565b15611eb857565b60405162461bcd60e51b81526020600482015260136024820152720496e76616c6964207265636569707420524c5606c1b6044820152606490fd5b15611efa57565b60405162461bcd60e51b815260206004820152601060248201526f0496e76616c6964206c6f677320524c560841b6044820152606490fd5b959493929190805f81898115158061207f575b612076575b60ff611f626119c861197386611f6a9660c09661184f565b161015611eb1565b8860f860ff611f806119c861197386888761184f565b1610612064576106236119d36119ce6119c861197386611fa3986119d89761184f565b81905b885f5b6003811061204b575060c0611fcb6106236119c86119738688611fd29761184f565b1015611ef3565b8860f8611fe96106236119c861197386888761184f565b1061203a576106236119d36119ce6119c86119738661200b986119d89761184f565b915b5f905b808210612023575050611a5d9596612828565b9092612032600191848b6122a3565b930190612010565b506120459150610f0b565b9161200d565b9291600192612059926122a3565b910190888392611fa9565b5061206f9150610f0b565b8190611fa6565b60019250611f4a565b50608060ff6120946119c86119738686611841565b1610611f45565b6120b56120ac6005545f5490610f35565b60015490610f35565b6003546001600160a01b0316600380546001600160a01b03191690556120da5f600555565b6120e35f600455565b6120f361ff001960075416600755565b6120fc5f600155565b5f80556001461480156121c6575b156121945760405163a9059cbb60e01b81526001600160a01b039091166004820152602481019190915260208180604481015b03815f7f00000000000000000000000000000000000000000000000000000000000000006001600160a01b03165af180156103b1576121795750565b6121919060203d6020116103aa576103a08183610f9a565b50565b604051633419e74d60e21b81526001600160a01b0390911660048201526024810191909152602081806044810161213d565b5061a5bd461461210a565b80511561184a5760200190565b90815181101561184a570160200190565b91906121fb8184612653565b905f5b6008811061224257506122119293612953565b50905f805b835182101561223d5760019061222c83866121de565b5160f81c9060081b17910190612216565b925050565b9161225060019183876122a3565b92016121fe565b1561225e57565b60405162461bcd60e51b815260206004820152601860248201527f524c50206f6666736574206f7574206f6620626f756e647300000000000000006044820152606490fd5b91906122b0818310612257565b6122c16119c861197384848761184f565b9060ff821660808110156122dc57505050611a5d9150610f0b565b91929160b8811015612304575050611a5d92506106236122fe6119d892610f0b565b926118ad565b90929060c081101561237a5750610623612320919493946118d3565b915f935f915b84831061234157505050611a5d9291611ccc611ccc92610f0b565b90919461235060019160081b90565b6123706106236119c86119736123698b611ccc8b610f0b565b888861184f565b1795019190612326565b90929060f811156123a05750611a5d925061062361239a6119d892610f0b565b926118c0565b92916106236123ae9161189a565b915f935f915b8483106123cf57505050611a5d9291611ccc611ccc92610f0b565b9091946123de60019160081b90565b6123f76106236119c86119736123698b611ccc8b610f0b565b17950191906123b4565b1561240857565b60405162461bcd60e51b815260206004820152602160248201527f457870656374656420524c50206c69737420666f722070726f6f66206e6f64656044820152607360f81b6064820152608490fd5b919390929190612483600360fe1b6001600160f81b031961247b611973878a611841565b161015612401565b601f60fb1b6001600160f81b031961249e6119738689611841565b16106125fd576124c26124bd6106236119ce6119c8611973888b611841565b610f27565b9492905b945f5b8282106124db57505050505050505f90565b6124f96124f2836124ed36878a611662565b612afd565b9093610f35565b96825160208401200361259b57600360fe1b61253561252861251a856121d1565b516001600160f81b03191690565b6001600160f81b03191690565b1061259b578590846001601f60fb1b61255361252861251a886121d1565b10156125df575b6125648186612c87565b601181036125a6575061257694612e19565b94911561259b57841561258f5793915b919590936124c9565b50505050505050600190565b505050505050505f90565b9093506002141590506125d3578487926125bf94612cd3565b94911561259b57841561258f579391612586565b50505050505050505f90565b506125f86124bd6106236119ce6119c861251a896121d1565b61255a565b60019492906124c6565b1561260e57565b60405162461bcd60e51b815260206004820152601d60248201527f496e76616c696420696e6e65722068656164657220524c50206c6973740000006044820152606490fd5b5f612672600360fe1b6001600160f81b03196119816119738787611841565b601f60fb1b6001600160f81b031961268d6119738686611841565b161061275257806119d86106236119d36119ce6119c86119736126b1978a8a61184f565b905b61a5bd46146126c3575b50905090565b5f5b6003811061273d57506126ee600360fe1b6126e761252861197386888761184f565b1015612607565b601f60fb1b61270461252861197385878661184f565b1061272d576106236119d36119ce6119c861197386612726986119d89761184f565b805f6126bd565b506127389150610f0b565b612726565b9161274b60019185846122a3565b92016126c5565b506001906126b3565b1561276257565b60405162461bcd60e51b815260206004820152600f60248201526e0496e76616c6964206c6f6720524c5608c1b6044820152606490fd5b156127a057565b60405162461bcd60e51b815260206004820152601e60248201527f496e76616c696420656d69747465722061646472657373206c656e67746800006044820152606490fd5b156127ec57565b60405162461bcd60e51b815260206004820152601460248201527315dc9bdb99c81d1bdad95b8818dbdb9d1c9858dd60621b6044820152606490fd5b916014611a5d969594611ccc846128c494878161285b60c060ff6128536119c8611973868a8961184f565b16101561275b565b60f860ff6128706119c861197385898861184f565b16106128ca57506106236119d36119ce6119c861197386612894986119d89761184f565b915b6128a1838789612f2e565b94906128af82825114612799565b01516001600160a01b039081169116146127e5565b91613138565b9150506128d79150610f0b565b91612896565b604080519091906128ee8382610f9a565b6001815291601f1901366020840137565b604080519091906129108382610f9a565b6014815291601f1901366020840137565b9061292b82610fe4565b6129386040519182610f9a565b8281528092612949601f1991610fe4565b0190602036910137565b61295e828410612257565b61296f6119c861197385858561184f565b9260ff841660808110156129a957505050506129896128dd565b9060f81b6001600160f81b0319165f1a6129a2826121d1565b5390600190565b60b881969592939496105f14612a1757506106236129c6916118ad565b916129d083612921565b945f5b8481106129e75750505050611a5d90610f27565b80612a046119736129fd600194611ccc89610f0b565b858761184f565b5f1a612a10828a6121de565b53016129d3565b60c01115612ab857610623612a2b916118d3565b905f925f5b838110612a895750612a4184612921565b955f5b858110612a5c575050505090611ccc611a5d92610f27565b80612a766119736129fd600194611ccc8a611ccc8b610f0b565b5f1a612a82828b6121de565b5301612a44565b9360019060081b612ab06106236119c8611973612aa98a611ccc8a610f0b565b8c8861184f565b179401612a30565b60405162461bcd60e51b815260206004820152601e60248201527f457870656374656420737472696e67206974656d2c20676f74206c69737400006044820152606490fd5b612b0981518310612257565b612b196119c861251a84846121de565b9160ff83166080811015612b32575050506129896128dd565b919392909160b8811015612b9c5750610623612b4d916118ad565b90612b5782612921565b935f5b838110612b6d57505050611a5d90610f27565b80612b8961251a612b83600194611ccc88610f0b565b856121de565b5f1a612b9582896121de565b5301612b5a565b60c01115612c3a57610623612bb0916118d3565b5f915f5b828110612c0c5750612bc583612921565b945f5b848110612bdf5750505090611ccc611a5d92610f27565b80612bf961251a612b83600194611ccc89611ccc8a610f0b565b5f1a612c05828a6121de565b5301612bc8565b9260019060081b612c326106236119c861251a612c2c89611ccc89610f0b565b8b6121de565b179301612bb4565b5091612c46838261327e565b92612c5084612921565b915f5b858110612c61575050509190565b80612c7461251a612b8360019487610f35565b5f1a612c8082876121de565b5301612c53565b5f915b8151811015612cb857612c9d818361327e565b8101809111610f0657915f198114610f065760010191612c8a565b505090565b908160011b9180830460021490151715610f0657565b83949291612ce18183612afd565b9390612d006020612cf76119c861251a856121d1565b161515916133ae565b97889115612da25750612d14905187610f35565b612d1e8251612cbd565b14612d33575b505050505050505f905f905f90565b86866001928251612d90575b505050612d4d575b80612d24565b612d6092612d5a91610f35565b90612afd565b5060208151910120906020815191012014612d7e5780808080612d47565b612d89915190610f35565b6001915f90565b612d9a9350613512565b86865f612d3f565b612db3939495965061062992613512565b612e0c57612dc492612d5a91610f35565b50908151602081145f14612dec57506020612de4920151925b5190610f35565b916001929190565b8015612e00576020612de493012092612ddd565b505050505f905f905f90565b50505050505f905f905f90565b91909293612e278251612cbd565b851015612ed157506119c861251a612e4992612e438760011c90565b906121de565b60018416612ec85760041c600f16915b905f925b60ff81168410612ea85750612e729250612afd565b5080518015612e9d57612de49160208203612e935760209150015191610f0b565b6020012091610f0b565b5050505f905f905f90565b90916001612ebc826119d860ff948761327e565b94019392919050612e5d565b600f1691612e59565b9290509392935f915b60108310612f1457612eec9250612afd565b50602081519101209060208151910120145f14612f0b57600191905f90565b5f915081908190565b90612f25816119d86001938561327e565b92019190612eda565b919091612f3c838310612257565b609460ff612f516119c861197386888761184f565b1603612f9d57612f5f6128ff565b925f5b60148110612f74575050505090601590565b80612f8a6119736129fd600194611ccc89610f0b565b5f1a612f9682886121de565b5301612f62565b60405162461bcd60e51b815260206004820152601c60248201527f496e76616c6964206164647265737320524c5020656e636f64696e67000000006044820152606490fd5b15612fe957565b60405162461bcd60e51b81526020600482015260126024820152710496e76616c696420746f7069637320524c560741b6044820152606490fd5b1561302a57565b60405162461bcd60e51b815260206004820152601560248201527457726f6e67206576656e74207369676e617475726560581b6044820152606490fd5b1561306e57565b60405162461bcd60e51b81526020600482015260136024820152720a8de40c2c8c8e4cae6e640dad2e6dac2e8c6d606b1b6044820152606490fd5b156130b057565b60405162461bcd60e51b8152602060048201526014602482015273416d6f756e74206461746120746f6f206c6f6e6760601b6044820152606490fd5b156130f357565b60405162461bcd60e51b815260206004820152601860248201527f5472616e7366657220616d6f756e74206d69736d6174636800000000000000006044820152606490fd5b918061321a613227956132076131fb6131fb6131f46131ed896131e67fddf252ad1be2c89b69c2b068fc378daa952ba7f163c4a11628f55a4df523b3ef6131e08e8060f86132219f6131b46119c8611973836131ad60c060ff6131a58f611973839a6119c892819e61184f565b161015612fe2565b8b8861184f565b161061327457806119d86106236119d36119ce6119c86119736131d8978d8a61184f565b9485916135d0565b14613023565b8a8c6122a3565b898b6122a3565b888a6135d0565b6001600160a01b031690565b6001600160a01b03908116911614613067565b82846122a3565b91613642565b506132366020825111156130a9565b5f92835b82518510156132655760019060081b61325c6106236119c861251a89886121de565b1794019361323a565b909350611c57929150146130ec565b506131d88d610f0b565b9061328b82518210612257565b61329b6119c861251a83856121de565b9160ff831660808110156132b25750505050600190565b60b88110156132cd575050506106236119d3611a5d926118ad565b60c08110156133395750916106236132e4916118d3565b905f925f915b8383106133015750505090611ccc611a5d92610f27565b90919361331060019160081b90565b61332f6106236119c861251a6133298a611ccc89610f0b565b886121de565b17940191906132ea565b60f811156133525750506106236119d3611a5d926118c0565b9161062361335f9161189a565b905f925f915b83831061337c5750505090611ccc611a5d92610f27565b90919361338b60019160081b90565b6133a46106236119c861251a6133298a611ccc89610f0b565b1794019190613365565b908151156117d9576133c56119c861251a846121d1565b6010811615613494576133e86133e36133de8551612cbd565b6115b8565b612921565b9060f81b600f60f81b165f1a6133fd826121d1565b5360015b835181101561348f578061343c61342c6134236119c861251a6001968a6121de565b60041c600f1690565b60f81b6001600160f81b03191690565b61345561344b6133de84612cbd565b915f1a91856121de565b5361347c600f61346b6119c861251a858a6121de565b1660f81b6001600160f81b03191690565b61348861344b83612cbd565b5301613401565b509150565b506134aa6133e36134a58451612cbd565b6115a9565b60015b835181101561348f57806134cf61342c6134236119c861251a6001968a6121de565b6134e361344b6134de846115b8565b612cbd565b536134f9600f61346b6119c861251a858a6121de565b61350b61344b611a126134de856115b8565b53016134ad565b919091613520825184610f35565b61352a8251612cbd565b106135c9575f5b82518110156135c05761354d6135478286610f35565b60011690565b6135a2576135766134236119c861251a61357061356a868a610f35565b60011c90565b866121de565b60ff61358b6106236119c861251a86896121de565b91160361359a57600101613531565b505050505f90565b600f6135ba6119c861251a61357061356a868a610f35565b16613576565b50505050600190565b5050505f90565b9190600560fd1b906001600160f81b0319906135ee9084908661184f565b3516036135fd57016001013590565b60405162461bcd60e51b815260206004820152601760248201527f45787065637465642033322d6279746520737472696e670000000000000000006044820152606490fd5b61364d828410612257565b61365e6119c861197385858561184f565b9260ff8416608081101561367857505050506129896128dd565b60b881969592939496105f146136df5750610623613695916118ad565b9161369f83612921565b945f5b8481106136b65750505050611a5d90610f27565b806136cc6119736129fd600194611ccc89610f0b565b5f1a6136d8828a6121de565b53016136a2565b60c01115613779576106236136f3916118d3565b905f925f5b838110613751575061370984612921565b955f5b858110613724575050505090611ccc611a5d92610f27565b8061373e6119736129fd600194611ccc8a611ccc8b610f0b565b5f1a61374a828b6121de565b530161370c565b9360019060081b6137716106236119c8611973612aa98a611ccc8a610f0b565b1794016136f8565b60405162461bcd60e51b815260206004820152601e60248201527f457870656374656420737472696e6720646174612c20676f74206c69737400006044820152606490fdfea2646970667358221220d3f2c1ae7afe5d6a3ebe42abb5d993ddd85e980a164b31cad4a28af48aa49b6c64736f6c634300081e0033","linkReferences":{}},"methodIdentifiers":{"bond(uint256)":"9940686e","bondAmount()":"80f323a7","bondNative()":"ae6c3fcf","bondedExecutor()":"1aa7c0ec","cancellationRequest()":"308657d7","collect((bytes,bytes,bytes,bytes,uint256),uint256)":"ede7f6a3","collectNative((bytes,bytes,bytes,bytes),uint256)":"d26e35c8","currentPaymentAmount()":"8bd03d0a","currentRewardAmount()":"5a4fd645","executionDeadline()":"33ee5f35","expectedAmount()":"2feef2ec","expectedRecipient()":"8677ab23","fund(uint256,uint256)":"a65e2cfd","fundNative(uint256,uint256)":"df235794","funded()":"f3a504f2","is_bonded()":"cb766a56","maxBlockLookback()":"d4899a62","originalRewardAmount()":"d415b3f9","requestCancellation()":"81972d00","resume()":"046f7da2","totalBondsDeposited()":"fe03a460","withdraw()":"3ccfd60b","withdrawNative()":"50431ce4"},"id":20}