{"abi":[{"type":"constructor","inputs":[{"name":"_tokenContract","type":"address","internalType":"address"}],"stateMutability":"nonpayable"},{"type":"function","name":"bond","inputs":[{"name":"_bondAmount","type":"uint256","internalType":"uint256"}],"outputs":[],"stateMutability":"nonpayable"},{"type":"function","name":"bondAmount","inputs":[],"outputs":[{"name":"","type":"uint256","internalType":"uint256"}],"stateMutability":"view"},{"type":"function","name":"bondedExecutor","inputs":[],"outputs":[{"name":"","type":"address","internalType":"address"}],"stateMutability":"view"},{"type":"function","name":"cancellationRequest","inputs":[],"outputs":[{"name":"","type":"bool","internalType":"bool"}],"stateMutability":"view"},{"type":"function","name":"collect","inputs":[],"outputs":[],"stateMutability":"nonpayable"},{"type":"function","name":"currentPaymentAmount","inputs":[],"outputs":[{"name":"","type":"uint256","internalType":"uint256"}],"stateMutability":"view"},{"type":"function","name":"currentRewardAmount","inputs":[],"outputs":[{"name":"","type":"uint256","internalType":"uint256"}],"stateMutability":"view"},{"type":"function","name":"executionDeadline","inputs":[],"outputs":[{"name":"","type":"uint256","internalType":"uint256"}],"stateMutability":"view"},{"type":"function","name":"fund","inputs":[{"name":"_currentRewardAmount","type":"uint256","internalType":"uint256"},{"name":"_currentPaymentAmount","type":"uint256","internalType":"uint256"}],"outputs":[],"stateMutability":"nonpayable"},{"type":"function","name":"funded","inputs":[],"outputs":[{"name":"","type":"bool","internalType":"bool"}],"stateMutability":"view"},{"type":"function","name":"is_bonded","inputs":[],"outputs":[{"name":"","type":"bool","internalType":"bool"}],"stateMutability":"view"},{"type":"function","name":"originalRewardAmount","inputs":[],"outputs":[{"name":"","type":"uint256","internalType":"uint256"}],"stateMutability":"view"},{"type":"function","name":"requestCancellation","inputs":[],"outputs":[],"stateMutability":"nonpayable"},{"type":"function","name":"resume","inputs":[],"outputs":[],"stateMutability":"nonpayable"},{"type":"function","name":"totalBondsDeposited","inputs":[],"outputs":[{"name":"","type":"uint256","internalType":"uint256"}],"stateMutability":"view"},{"type":"function","name":"withdraw","inputs":[],"outputs":[],"stateMutability":"nonpayable"}],"bytecode":{"object":"0x60c060405234801561000f575f80fd5b5060405161162b38038061162b833981810160405281019061003191906100fd565b8073ffffffffffffffffffffffffffffffffffffffff1660a08173ffffffffffffffffffffffffffffffffffffffff16815250503373ffffffffffffffffffffffffffffffffffffffff1660808173ffffffffffffffffffffffffffffffffffffffff168152505050610128565b5f80fd5b5f73ffffffffffffffffffffffffffffffffffffffff82169050919050565b5f6100cc826100a3565b9050919050565b6100dc816100c2565b81146100e6575f80fd5b50565b5f815190506100f7816100d3565b92915050565b5f602082840312156101125761011161009f565b5b5f61011f848285016100e9565b91505092915050565b60805160a0516114b86101735f395f818161052d015281816107c8015281816109b60152610c4801525f8181610290015281816103c5015281816105d701526108c401526114b85ff3fe608060405234801561000f575f80fd5b50600436106100fe575f3560e01c80638bd03d0a11610095578063d415b3f911610064578063d415b3f91461022a578063e522538114610248578063f3a504f214610252578063fe03a46014610270576100fe565b80638bd03d0a146101b65780639940686e146101d4578063a65e2cfd146101f0578063cb766a561461020c576100fe565b80633ccfd60b116100d15780633ccfd60b146101665780635a4fd6451461017057806380f323a71461018e57806381972d00146101ac576100fe565b8063046f7da2146101025780631aa7c0ec1461010c578063308657d71461012a57806333ee5f3514610148575b5f80fd5b61010a61028e565b005b610114610337565b6040516101219190610dd6565b60405180910390f35b61013261035c565b60405161013f9190610e09565b60405180910390f35b61015061036e565b60405161015d9190610e3a565b60405180910390f35b61016e610374565b005b6101786105ca565b6040516101859190610e3a565b60405180910390f35b6101966105cf565b6040516101a39190610e3a565b60405180910390f35b6101b46105d5565b005b6101be61067f565b6040516101cb9190610e3a565b60405180910390f35b6101ee60048036038101906101e99190610e81565b610685565b005b61020a60048036038101906102059190610eac565b6108c2565b005b610214610a80565b6040516102219190610e09565b60405180910390f35b610232610a99565b60405161023f9190610e3a565b60405180910390f35b610250610a9f565b005b61025a610ce6565b6040516102679190610e09565b60405180910390f35b610278610cf9565b6040516102859190610e3a565b60405180910390f35b7f000000000000000000000000000000000000000000000000000000000000000073ffffffffffffffffffffffffffffffffffffffff163373ffffffffffffffffffffffffffffffffffffffff161461031c576040517f08c379a000000000000000000000000000000000000000000000000000000000815260040161031390610f44565b60405180910390fd5b5f60075f6101000a81548160ff021916908315150217905550565b60035f9054906101000a900473ffffffffffffffffffffffffffffffffffffffff1681565b60075f9054906101000a900460ff1681565b60045481565b600760019054906101000a900460ff166103c3576040517f08c379a00000000000000000000000000000000000000000000000000000000081526004016103ba90610fac565b60405180910390fd5b7f000000000000000000000000000000000000000000000000000000000000000073ffffffffffffffffffffffffffffffffffffffff163373ffffffffffffffffffffffffffffffffffffffff1614610451576040517f08c379a000000000000000000000000000000000000000000000000000000000815260040161044890610f44565b60405180910390fd5b60011515600760019054906101000a900460ff161515146104a7576040517f08c379a000000000000000000000000000000000000000000000000000000000815260040161049e9061103a565b60405180910390fd5b6104af610cff565b5f6002546001546104c09190611085565b90505f600760016101000a81548160ff0219169083151502179055505f6001819055505f80819055505f811161052b576040517f08c379a000000000000000000000000000000000000000000000000000000000815260040161052290611102565b60405180910390fd5b7f000000000000000000000000000000000000000000000000000000000000000073ffffffffffffffffffffffffffffffffffffffff1663a9059cbb33836040518363ffffffff1660e01b8152600401610586929190611120565b6020604051808303815f875af11580156105a2573d5f803e3d5ffd5b505050506040513d601f19601f820116820180604052508101906105c69190611171565b5050565b5f5481565b60055481565b7f000000000000000000000000000000000000000000000000000000000000000073ffffffffffffffffffffffffffffffffffffffff163373ffffffffffffffffffffffffffffffffffffffff1614610663576040517f08c379a000000000000000000000000000000000000000000000000000000000815260040161065a90610f44565b60405180910390fd5b600160075f6101000a81548160ff021916908315150217905550565b60015481565b600760019054906101000a900460ff166106d4576040517f08c379a00000000000000000000000000000000000000000000000000000000081526004016106cb90610fac565b60405180910390fd5b60075f9054906101000a900460ff1615610723576040517f08c379a000000000000000000000000000000000000000000000000000000000815260040161071a906111e6565b60405180910390fd5b60025f546107319190611231565b811015610773576040517f08c379a000000000000000000000000000000000000000000000000000000000815260040161076a906112d1565b60405180910390fd5b5f600454118015610785575060045442115b156107c6576005545f8082825461079c9190611085565b9250508190555060055460065f8282546107b69190611085565b925050819055506107c5610cff565b5b7f000000000000000000000000000000000000000000000000000000000000000073ffffffffffffffffffffffffffffffffffffffff166323b872dd3330846040518463ffffffff1660e01b8152600401610823939291906112ef565b6020604051808303815f875af115801561083f573d5f803e3d5ffd5b505050506040513d601f19601f820116820180604052508101906108639190611171565b503360035f6101000a81548173ffffffffffffffffffffffffffffffffffffffff021916908373ffffffffffffffffffffffffffffffffffffffff16021790555061012c426108b29190611085565b6004819055508060058190555050565b7f000000000000000000000000000000000000000000000000000000000000000073ffffffffffffffffffffffffffffffffffffffff163373ffffffffffffffffffffffffffffffffffffffff1614610950576040517f08c379a000000000000000000000000000000000000000000000000000000000815260040161094790610f44565b60405180910390fd5b600760019054906101000a900460ff16156109a0576040517f08c379a00000000000000000000000000000000000000000000000000000000081526004016109979061136e565b60405180910390fd5b815f8190555081600281905550806001819055507f000000000000000000000000000000000000000000000000000000000000000073ffffffffffffffffffffffffffffffffffffffff166323b872dd3330600154600254610a029190611085565b6040518463ffffffff1660e01b8152600401610a20939291906112ef565b6020604051808303815f875af1158015610a3c573d5f803e3d5ffd5b505050506040513d601f19601f82011682018060405250810190610a609190611171565b506001600760016101000a81548160ff0219169083151502179055505050565b5f80600454118015610a9457506004544211155b905090565b60025481565b600760019054906101000a900460ff16610aee576040517f08c379a0000000000000000000000000000000000000000000000000000000008152600401610ae590610fac565b60405180910390fd5b60035f9054906101000a900473ffffffffffffffffffffffffffffffffffffffff1673ffffffffffffffffffffffffffffffffffffffff163373ffffffffffffffffffffffffffffffffffffffff16148015610b4e5750610b4d610a80565b5b610b8d576040517f08c379a0000000000000000000000000000000000000000000000000000000008152600401610b84906113d6565b60405180910390fd5b5f6001545f54600554610ba09190611085565b610baa9190611085565b90505f60035f9054906101000a900473ffffffffffffffffffffffffffffffffffffffff1690505f60035f6101000a81548173ffffffffffffffffffffffffffffffffffffffff021916908373ffffffffffffffffffffffffffffffffffffffff1602179055505f6005819055505f6004819055505f600760016101000a81548160ff0219169083151502179055505f6001819055505f80819055507f000000000000000000000000000000000000000000000000000000000000000073ffffffffffffffffffffffffffffffffffffffff1663a9059cbb82846040518363ffffffff1660e01b8152600401610ca1929190611120565b6020604051808303815f875af1158015610cbd573d5f803e3d5ffd5b505050506040513d601f19601f82011682018060405250810190610ce19190611171565b505050565b600760019054906101000a900460ff1681565b60065481565b610d07610a80565b15610d47576040517f08c379a0000000000000000000000000000000000000000000000000000000008152600401610d3e90611464565b60405180910390fd5b5f60035f6101000a81548173ffffffffffffffffffffffffffffffffffffffff021916908373ffffffffffffffffffffffffffffffffffffffff1602179055505f6005819055505f600481905550565b5f73ffffffffffffffffffffffffffffffffffffffff82169050919050565b5f610dc082610d97565b9050919050565b610dd081610db6565b82525050565b5f602082019050610de95f830184610dc7565b92915050565b5f8115159050919050565b610e0381610def565b82525050565b5f602082019050610e1c5f830184610dfa565b92915050565b5f819050919050565b610e3481610e22565b82525050565b5f602082019050610e4d5f830184610e2b565b92915050565b5f80fd5b610e6081610e22565b8114610e6a575f80fd5b50565b5f81359050610e7b81610e57565b92915050565b5f60208284031215610e9657610e95610e53565b5b5f610ea384828501610e6d565b91505092915050565b5f8060408385031215610ec257610ec1610e53565b5b5f610ecf85828601610e6d565b9250506020610ee085828601610e6d565b9150509250929050565b5f82825260208201905092915050565b7f4f6e6c792063616c6c61626c6520627920746865206465706c6f7965720000005f82015250565b5f610f2e601d83610eea565b9150610f3982610efa565b602082019050919050565b5f6020820190508181035f830152610f5b81610f22565b9050919050565b7f436f6e7472616374206e6f742066756e646564000000000000000000000000005f82015250565b5f610f96601383610eea565b9150610fa182610f62565b602082019050919050565b5f6020820190508181035f830152610fc381610f8a565b9050919050565b7f54686520636f6e747261637420776173206e6f742066756e646564206f7220685f8201527f6173206265656e20647261696e656420616c7265616479000000000000000000602082015250565b5f611024603783610eea565b915061102f82610fca565b604082019050919050565b5f6020820190508181035f83015261105181611018565b9050919050565b7f4e487b71000000000000000000000000000000000000000000000000000000005f52601160045260245ffd5b5f61108f82610e22565b915061109a83610e22565b92508282019050808211156110b2576110b1611058565b5b92915050565b7f4e6f20776974686472617761626c652066756e647300000000000000000000005f82015250565b5f6110ec601583610eea565b91506110f7826110b8565b602082019050919050565b5f6020820190508181035f830152611119816110e0565b9050919050565b5f6040820190506111335f830185610dc7565b6111406020830184610e2b565b9392505050565b61115081610def565b811461115a575f80fd5b50565b5f8151905061116b81611147565b92915050565b5f6020828403121561118657611185610e53565b5b5f6111938482850161115d565b91505092915050565b7f43616e63656c6c6174696f6e20726571756573746564000000000000000000005f82015250565b5f6111d0601683610eea565b91506111db8261119c565b602082019050919050565b5f6020820190508181035f8301526111fd816111c4565b9050919050565b7f4e487b71000000000000000000000000000000000000000000000000000000005f52601260045260245ffd5b5f61123b82610e22565b915061124683610e22565b92508261125657611255611204565b5b828204905092915050565b7f426f6e64206d757374206265206174206c656173742068616c66206f662072655f8201527f7761726420616d6f756e74000000000000000000000000000000000000000000602082015250565b5f6112bb602b83610eea565b91506112c682611261565b604082019050919050565b5f6020820190508181035f8301526112e8816112af565b9050919050565b5f6060820190506113025f830186610dc7565b61130f6020830185610dc7565b61131c6040830184610e2b565b949350505050565b7f436f6e747261637420616c72656164792066756e6465640000000000000000005f82015250565b5f611358601783610eea565b915061136382611324565b602082019050919050565b5f6020820190508181035f8301526113858161134c565b9050919050565b7f4f6e6c7920626f6e646564206578656375746f722063616e20636f6c6c6563745f82015250565b5f6113c0602083610eea565b91506113cb8261138c565b602082019050919050565b5f6020820190508181035f8301526113ed816113b4565b9050919050565b7f43616e6e6f74207265736574207768696c6520626f6e642069732061637469765f8201527f6500000000000000000000000000000000000000000000000000000000000000602082015250565b5f61144e602183610eea565b9150611459826113f4565b604082019050919050565b5f6020820190508181035f83015261147b81611442565b905091905056fea2646970667358221220dd923716ac21fa24ad849d9d892afc6e0f6de109f464a09e98deba79b8ba293564736f6c634300081a0033","linkReferences":{}},"methodIdentifiers":{"bond(uint256)":"9940686e","bondAmount()":"80f323a7","bondedExecutor()":"1aa7c0ec","cancellationRequest()":"308657d7","collect()":"e5225381","currentPaymentAmount()":"8bd03d0a","currentRewardAmount()":"5a4fd645","executionDeadline()":"33ee5f35","fund(uint256,uint256)":"a65e2cfd","funded()":"f3a504f2","is_bonded()":"cb766a56","originalRewardAmount()":"d415b3f9","requestCancellation()":"81972d00","resume()":"046f7da2","totalBondsDeposited()":"fe03a460","withdraw()":"3ccfd60b"},"id":21}