{"abi":[{"type":"constructor","inputs":[{"name":"_tokenContract","type":"address","internalType":"address"},{"name":"_expectedRecipient","type":"address","internalType":"address"},{"name":"_expectedAmount","type":"uint256","internalType":"uint256"},{"name":"_currentRewardAmount","type":"uint256","internalType":"uint256"},{"name":"_currentPaymentAmount","type":"uint256","internalType":"uint256"}],"stateMutability":"payable"},{"type":"function","name":"bond","inputs":[{"name":"_bondAmount","type":"uint256","internalType":"uint256"}],"outputs":[],"stateMutability":"nonpayable"},{"type":"function","name":"bondAmount","inputs":[],"outputs":[{"name":"","type":"uint256","internalType":"uint256"}],"stateMutability":"view"},{"type":"function","name":"bondNative","inputs":[],"outputs":[],"stateMutability":"payable"},{"type":"function","name":"bondedExecutor","inputs":[],"outputs":[{"name":"","type":"address","internalType":"address"}],"stateMutability":"view"},{"type":"function","name":"cancellationRequest","inputs":[],"outputs":[{"name":"","type":"bool","internalType":"bool"}],"stateMutability":"view"},{"type":"function","name":"collect","inputs":[{"name":"proof","type":"tuple","internalType":"struct Escrow.ReceiptProof","components":[{"name":"blockHeader","type":"bytes","internalType":"bytes"},{"name":"receiptRlp","type":"bytes","internalType":"bytes"},{"name":"proofNodes","type":"bytes","internalType":"bytes"},{"name":"receiptPath","type":"bytes","internalType":"bytes"},{"name":"logIndex","type":"uint256","internalType":"uint256"}]},{"name":"targetBlockNumber","type":"uint256","internalType":"uint256"}],"outputs":[],"stateMutability":"nonpayable"},{"type":"function","name":"collectNative","inputs":[{"name":"proof","type":"tuple","internalType":"struct Escrow.NativeTransferProof","components":[{"name":"blockHeader","type":"bytes","internalType":"bytes"},{"name":"transactionRlp","type":"bytes","internalType":"bytes"},{"name":"txProofNodes","type":"bytes","internalType":"bytes"},{"name":"receiptRlp","type":"bytes","internalType":"bytes"},{"name":"receiptProofNodes","type":"bytes","internalType":"bytes"},{"name":"path","type":"bytes","internalType":"bytes"}]},{"name":"targetBlockNumber","type":"uint256","internalType":"uint256"}],"outputs":[],"stateMutability":"nonpayable"},{"type":"function","name":"currentPaymentAmount","inputs":[],"outputs":[{"name":"","type":"uint256","internalType":"uint256"}],"stateMutability":"view"},{"type":"function","name":"currentRewardAmount","inputs":[],"outputs":[{"name":"","type":"uint256","internalType":"uint256"}],"stateMutability":"view"},{"type":"function","name":"executionDeadline","inputs":[],"outputs":[{"name":"","type":"uint256","internalType":"uint256"}],"stateMutability":"view"},{"type":"function","name":"expectedAmount","inputs":[],"outputs":[{"name":"","type":"uint256","internalType":"uint256"}],"stateMutability":"view"},{"type":"function","name":"expectedRecipient","inputs":[],"outputs":[{"name":"","type":"address","internalType":"address"}],"stateMutability":"view"},{"type":"function","name":"fund","inputs":[{"name":"_currentRewardAmount","type":"uint256","internalType":"uint256"},{"name":"_currentPaymentAmount","type":"uint256","internalType":"uint256"}],"outputs":[],"stateMutability":"nonpayable"},{"type":"function","name":"fundNative","inputs":[{"name":"_currentRewardAmount","type":"uint256","internalType":"uint256"},{"name":"_currentPaymentAmount","type":"uint256","internalType":"uint256"}],"outputs":[],"stateMutability":"payable"},{"type":"function","name":"funded","inputs":[],"outputs":[{"name":"","type":"bool","internalType":"bool"}],"stateMutability":"view"},{"type":"function","name":"is_bonded","inputs":[],"outputs":[{"name":"","type":"bool","internalType":"bool"}],"stateMutability":"view"},{"type":"function","name":"maxBlockLookback","inputs":[],"outputs":[{"name":"","type":"uint256","internalType":"uint256"}],"stateMutability":"view"},{"type":"function","name":"originalRewardAmount","inputs":[],"outputs":[{"name":"","type":"uint256","internalType":"uint256"}],"stateMutability":"view"},{"type":"function","name":"requestCancellation","inputs":[],"outputs":[],"stateMutability":"nonpayable"},{"type":"function","name":"resume","inputs":[],"outputs":[],"stateMutability":"nonpayable"},{"type":"function","name":"totalBondsDeposited","inputs":[],"outputs":[{"name":"","type":"uint256","internalType":"uint256"}],"stateMutability":"view"},{"type":"function","name":"withdraw","inputs":[],"outputs":[],"stateMutability":"nonpayable"},{"type":"function","name":"withdrawNative","inputs":[],"outputs":[],"stateMutability":"nonpayable"}],"bytecode":{"object":"0x610120806040525f9060a081613da3803803809161001d82856103ab565b83398101031261027757610030816103e2565b9161003d602083016103e2565b92604083015160806060850151940151948260a05260c05260e0523360805261010080528215908115806103a2575b61012c575b60405161398b9081610418823960805181818161019a015281816102e10152818161040b015281816106f10152818161092a0152610bd2015260a0518181816102a8015281816103d901528181610508015281816107b80152818161097501528181610a7c01528181610c1401528181610cea01526122d9015260c051818181610633015281816107430152610d9c015260e051818181610217015281816106110152610d7a015261010051818181610b9701526118230152f35b6001600160a01b03166101b2575061014483836103f6565b340361016d5781905560025560015561010061ff001960075416176007555b5f80808080610071565b60405162461bcd60e51b815260206004820152601460248201527f496e636f72726563742045544820616d6f756e740000000000000000000000006044820152606490fd5b60075492939290915060081c60ff1661035d5760a0516001600160a01b031615610318576102d357801561028e578160646102066020935f958655836002558060015560018060a01b0360a05116936103f6565b60405194859384926323b872dd60e01b845233600485015230602485015260448401525af180156102835761024b575b5061010061ff00196007541617600755610163565b6020813d60201161027b575b81610264602093836103ab565b8101031261027757518015158114610236575b5f80fd5b3d9150610257565b6040513d5f823e3d90fd5b60405162461bcd60e51b815260206004820152601f60248201527f5061796d656e7420616d6f756e74206d757374206265206e6f6e2d7a65726f006044820152606490fd5b60405162461bcd60e51b815260206004820152601e60248201527f52657761726420616d6f756e74206d757374206265206e6f6e2d7a65726f00006044820152606490fd5b60405162461bcd60e51b815260206004820152601d60248201527f5573652066756e644e617469766520666f72206e6174697665204554480000006044820152606490fd5b60405162461bcd60e51b815260206004820152601760248201527f436f6e747261637420616c72656164792066756e6465640000000000000000006044820152606490fd5b5084151561006c565b601f909101601f19168101906001600160401b038211908210176103ce57604052565b634e487b7160e01b5f52604160045260245ffd5b51906001600160a01b038216820361027757565b9190820180921161040357565b634e487b7160e01b5f52601160045260245ffdfe60806040526004361015610011575f80fd5b5f3560e01c8063046f7da2146101845780631aa7c0ec1461017f5780632feef2ec1461017a578063308657d71461017557806333ee5f35146101705780633ccfd60b1461016b57806350431ce4146101665780635922e8f8146101615780635a4fd6451461015c57806380f323a71461015757806381972d00146101525780638677ab231461014d5780638bd03d0a146101485780639940686e14610143578063a65e2cfd1461013e578063ae6c3fcf14610139578063cb766a5614610134578063d415b3f91461012f578063d4899a621461012a578063df23579414610125578063ede7f6a314610120578063f3a504f21461011b5763fe03a46014610116575f80fd5b610e3a565b610e15565b610cb3565b610bba565b610b80565b610b63565b610b3f565b610a4f565b610904565b61078f565b610772565b61072e565b6106db565b6106be565b6106a2565b6104cd565b6103b6565b610279565b61025c565b61023a565b610200565b6101d8565b346101d4575f3660031901126101d4576101c8337f00000000000000000000000000000000000000000000000000000000000000006001600160a01b031614610e57565b6007805460ff19169055005b5f80fd5b346101d4575f3660031901126101d4576003546040516001600160a01b039091168152602090f35b346101d4575f3660031901126101d45760206040517f00000000000000000000000000000000000000000000000000000000000000008152f35b346101d4575f3660031901126101d457602060ff600754166040519015158152f35b346101d4575f3660031901126101d4576020600454604051908152f35b346101d4575f3660031901126101d4576007546102a09060081c60ff16610ea3565b610ea3565b5f60206103777f00000000000000000000000000000000000000000000000000000000000000006001600160a01b03166102db811515610ee5565b61030f337f00000000000000000000000000000000000000000000000000000000000000006001600160a01b031614610e57565b610317611584565b61032660015460025490610f8d565b61033661ff001960075416600755565b61033f5f600155565b84805561034d811515610f9a565b60405163a9059cbb60e01b8152336004820152602481019190915293849283919082906044820190565b03925af180156103b15761038757005b6103a89060203d6020116103aa575b6103a08183610ff2565b810190611019565b005b503d610396565b611031565b346101d4575f3660031901126101d4576103d760ff60075460081c16610ea3565b7f00000000000000000000000000000000000000000000000000000000000000006001600160a01b031661048f57610439337f00000000000000000000000000000000000000000000000000000000000000006001600160a01b031614610e57565b610441611584565b6103a85f80808061045760015460025490610f8d565b61046761ff001960075416600755565b6104705f600155565b81805561047e811515610f9a565b335af1610489611058565b50611087565b60405162461bcd60e51b8152602060048201526016602482015275055736520776974686472617720666f722045524332360541b6044820152606490fd5b346101d45760403660031901126101d45760043567ffffffffffffffff81116101d4578060040160c060031983360301126101d457602435917f00000000000000000000000000000000000000000000000000000000000000006001600160a01b03166106655761058e826106096106046105fe836105f86105f382608461060e9a61056961065d9e6105636106589f806110c9565b906117d3565b6105b86105b361058261057c86806110c9565b906119f4565b602484019d8e876110c9565b9061059c60448701896110c9565b906105ab60a48901809b6110c9565b949093611adc565b6110fc565b6105ab6105ce6105c888806110c9565b90611b03565b936105ea6105e060648501809a6110c9565b959094018d6110c9565b9290918d6110c9565b611148565b846110c9565b90611c38565b611194565b6110c9565b907f0000000000000000000000000000000000000000000000000000000000000000917f000000000000000000000000000000000000000000000000000000000000000091611dea565b6111df565b6103a8612025565b60405162461bcd60e51b8152602060048201526015602482015274055736520636f6c6c65637420666f7220455243323605c1b6044820152606490fd5b346101d4575f3660031901126101d45760205f54604051908152f35b346101d4575f3660031901126101d4576020600554604051908152f35b346101d4575f3660031901126101d45761071f337f00000000000000000000000000000000000000000000000000000000000000006001600160a01b031614610e57565b6007805460ff19166001179055005b346101d4575f3660031901126101d4576040517f00000000000000000000000000000000000000000000000000000000000000006001600160a01b03168152602090f35b346101d4575f3660031901126101d4576020600154604051908152f35b346101d45760203660031901126101d4576007546004356107b660ff600884901c16610ea3565b7f00000000000000000000000000000000000000000000000000000000000000006001600160a01b03169161080790610802906107fe906107f886151561122b565b60ff1690565b1590565b611277565b60045480151590816108fa575b506108c8575b61082d6108286107fe6114e4565b6112bc565b61084361083b5f5460011c90565b821015611313565b6040516323b872dd60e01b81523360048201523060248201526044810182905291602090839060649082905f905af19182156103b1576103a8926108ab575b50600380546001600160a01b031916331790556108a66108a142610f4f565b600455565b600555565b6108c39060203d6020116103aa576103a08183610ff2565b610882565b6108d56005545f54610f8d565b5f556108ed6108e8600554600654610f8d565b600655565b6108f5611584565b61081a565b905042115f610814565b346101d45760403660031901126101d4575f6020610a0f6004356109d0602435610958337f00000000000000000000000000000000000000000000000000000000000000006001600160a01b031614610e57565b61097361096e6107fe60075460ff9060081c1690565b611373565b7f00000000000000000000000000000000000000000000000000000000000000006001600160a01b0316926109cb906109ad8515156113bf565b6109b881151561140b565b6109c3831515611457565b808855600255565b600155565b6109df60025460015490610f8d565b6040516323b872dd60e01b8152336004820152306024820152604481019190915293849283919082906064820190565b03925af180156103b157610a32575b6103a861010061ff00196007541617600755565b610a4a9060203d6020116103aa576103a08183610ff2565b610a1e565b5f3660031901126101d457610aaa6108026107fe600754610a7761029b8260ff9060081c1690565b6107f87f00000000000000000000000000000000000000000000000000000000000000006001600160a01b0316156114a3565b6004548015159081610b35575b50610b08575b610acb6108286107fe6114e4565b610ae1610ad95f5460011c90565b341015611313565b600380546001600160a01b03191633179055610aff6108a142610f4f565b6103a834600555565b610b156005545f54610f8d565b5f55610b286108e8600554600654610f8d565b610b30611584565b610abd565b905042115f610ab7565b346101d4575f3660031901126101d4576020610b596114e4565b6040519015158152f35b346101d4575f3660031901126101d4576020600254604051908152f35b346101d4575f3660031901126101d45760206040517f00000000000000000000000000000000000000000000000000000000000000008152f35b60403660031901126101d457600435602435610c00337f00000000000000000000000000000000000000000000000000000000000000006001600160a01b031614610e57565b610c1260ff60075460081c1615611373565b7f00000000000000000000000000000000000000000000000000000000000000006001600160a01b0316610c79576109cb82610c52610a1e94151561140b565b610c5d831515611457565b610c71610c6a8483610f8d565b34146114fc565b805f55600255565b60405162461bcd60e51b815260206004820152601260248201527105573652066756e6420666f722045524332360741b6044820152606490fd5b346101d45760403660031901126101d45760043567ffffffffffffffff81116101d4578060040160a060031983360301126101d4577f00000000000000000000000000000000000000000000000000000000000000009160243591906001600160a01b03841615610dd157610dc993610d7883610d39610dc496610563836084986110c9565b610d466105c882806110c9565b906106096105f36024870193610d5c85856110c9565b90610d6a60448b01876110c9565b906105ab60648d01896110c9565b7f0000000000000000000000000000000000000000000000000000000000000000947f0000000000000000000000000000000000000000000000000000000000000000940135916120d1565b61153f565b6103a8612232565b606460405162461bcd60e51b815260206004820152602060248201527f55736520636f6c6c6563744e617469766520666f72206e6174697665204554486044820152fd5b346101d4575f3660031901126101d457602060ff60075460081c166040519015158152f35b346101d4575f3660031901126101d4576020600654604051908152f35b15610e5e57565b60405162461bcd60e51b815260206004820152601d60248201527f4f6e6c792063616c6c61626c6520627920746865206465706c6f7965720000006044820152606490fd5b15610eaa57565b60405162461bcd60e51b815260206004820152601360248201527210dbdb9d1c9858dd081b9bdd08199d5b991959606a1b6044820152606490fd5b15610eec57565b60405162461bcd60e51b815260206004820152602160248201527f5573652077697468647261774e617469766520666f72206e61746976652045546044820152600960fb1b6064820152608490fd5b634e487b7160e01b5f52601160045260245ffd5b9061012c8201809211610f5e57565b610f3b565b9060018201809211610f5e57565b9060158201809211610f5e57565b6001019081600111610f5e57565b91908201809211610f5e57565b15610fa157565b60405162461bcd60e51b81526020600482015260156024820152744e6f20776974686472617761626c652066756e647360581b6044820152606490fd5b634e487b7160e01b5f52604160045260245ffd5b90601f8019910116810190811067ffffffffffffffff82111761101457604052565b610fde565b908160209103126101d4575180151581036101d45790565b6040513d5f823e3d90fd5b67ffffffffffffffff811161101457601f01601f191660200190565b3d15611082573d906110698261103c565b916110776040519384610ff2565b82523d5f602084013e565b606090565b1561108e57565b60405162461bcd60e51b8152602060048201526013602482015272115512081d1c985b9cd9995c8819985a5b1959606a1b6044820152606490fd5b903590601e19813603018212156101d4570180359067ffffffffffffffff82116101d4576020019181360383136101d457565b1561110357565b60405162461bcd60e51b815260206004820152601d60248201527f496e76616c6964207472616e73616374696f6e204d50542070726f6f660000006044820152606490fd5b1561114f57565b60405162461bcd60e51b815260206004820152601960248201527f496e76616c69642072656365697074204d50542070726f6f66000000000000006044820152606490fd5b1561119b57565b606460405162461bcd60e51b815260206004820152602060248201527f5472616e73616374696f6e206661696c6564202873746174757320213d2031296044820152fd5b156111e657565b60405162461bcd60e51b815260206004820152601760248201527f496e76616c6964206e6174697665207472616e736665720000000000000000006044820152606490fd5b1561123257565b60405162461bcd60e51b815260206004820152601d60248201527f55736520626f6e644e617469766520666f72206e6174697665204554480000006044820152606490fd5b1561127e57565b60405162461bcd60e51b815260206004820152601660248201527510d85b98d95b1b185d1a5bdb881c995c5d595cdd195960521b6044820152606490fd5b156112c357565b60405162461bcd60e51b815260206004820152602260248201527f416e6f74686572206578656375746f7220697320616c726561647920626f6e64604482015261195960f21b6064820152608490fd5b1561131a57565b60405162461bcd60e51b815260206004820152602b60248201527f426f6e64206d757374206265206174206c656173742068616c66206f6620726560448201526a1dd85c9908185b5bdd5b9d60aa1b6064820152608490fd5b1561137a57565b60405162461bcd60e51b815260206004820152601760248201527f436f6e747261637420616c72656164792066756e6465640000000000000000006044820152606490fd5b156113c657565b60405162461bcd60e51b815260206004820152601d60248201527f5573652066756e644e617469766520666f72206e6174697665204554480000006044820152606490fd5b1561141257565b60405162461bcd60e51b815260206004820152601e60248201527f52657761726420616d6f756e74206d757374206265206e6f6e2d7a65726f00006044820152606490fd5b1561145e57565b60405162461bcd60e51b815260206004820152601f60248201527f5061796d656e7420616d6f756e74206d757374206265206e6f6e2d7a65726f006044820152606490fd5b156114aa57565b60405162461bcd60e51b8152602060048201526012602482015271055736520626f6e6420666f722045524332360741b6044820152606490fd5b60045480151590816114f4575090565b905042111590565b1561150357565b60405162461bcd60e51b8152602060048201526014602482015273125b98dbdc9c9958dd0811551208185b5bdd5b9d60621b6044820152606490fd5b1561154657565b60405162461bcd60e51b8152602060048201526016602482015275125b9d985b1a5908151c985b9cd9995c88195d995b9d60521b6044820152606490fd5b61158c6114e4565b6115b1576bffffffffffffffffffffffff60a01b600354166003555f6005555f600455565b60405162461bcd60e51b815260206004820152602160248201527f43616e6e6f74207265736574207768696c6520626f6e642069732061637469766044820152606560f81b6064820152608490fd5b1561160757565b60405162461bcd60e51b815260206004820152601d60248201527f54617267657420626c6f636b20697320696e20746865206675747572650000006044820152606490fd5b600119810191908211610f5e57565b5f19810191908211610f5e57565b91908203918211610f5e57565b1561167d57565b60405162461bcd60e51b815260206004820152601460248201527315185c99d95d08189b1bd8dac81d1bdbc81bdb1960621b6044820152606490fd5b156116c057565b60405162461bcd60e51b815260206004820152601d60248201527f556e61626c6520746f20726574726965766520626c6f636b20686173680000006044820152606490fd5b9291926117118261103c565b9161171f6040519384610ff2565b8294818452818301116101d4578281602093845f960137010152565b1561174257565b60405162461bcd60e51b815260206004820152601a60248201527f426c6f636b206865616465722068617368206d69736d617463680000000000006044820152606490fd5b1561178e57565b60405162461bcd60e51b815260206004820152601c60248201527f48656164657220626c6f636b206e756d626572206d69736d61746368000000006044820152606490fd5b9190916117e760ff60075460081c16610ea3565b6003546001600160a01b03163314806118c2575b1561187e5761187c926118769161181443851115611600565b6118496118218543611669565b7f00000000000000000000000000000000000000000000000000000000000000001015611676565b61187184406118598115156116b9565b611864368585611705565b602081519101201461173b565b612386565b14611787565b565b606460405162461bcd60e51b815260206004820152602060248201527f4f6e6c7920626f6e646564206578656375746f722063616e20636f6c6c6563746044820152fd5b506118cb6114e4565b6117fb565b634e487b7160e01b5f52603260045260245ffd5b90156118ed5790565b6118d0565b908210156118ed570190565b1561190557565b60405162461bcd60e51b815260206004820152601060248201526f125b9d985b1a5908149314081b1a5cdd60821b6044820152606490fd5b60ff60f6199116019060ff8211610f5e57565b60ff607f199116019060ff8211610f5e57565b60ff60bf199116019060ff8211610f5e57565b60ff60b6199116019060ff8211610f5e57565b60ff166001019060ff8211610f5e57565b156119a157565b60405162461bcd60e51b815260206004820152602560248201527f496e76616c6964207472616e73616374696f6e73526f6f7420524c5020656e636044820152646f64696e6760d81b6064820152608490fd5b9091905f611a2c600360fe1b6001600160f81b0319611a24611a1688876118e4565b356001600160f81b03191690565b1610156118fe565b601f60fb1b6001600160f81b0319611a47611a1687866118e4565b1610611ad45780611a7b6107f8611a76611a71611a6b611a16611a81978b8a6118f2565b60f81c90565b61193d565b611989565b90610f8d565b5f5b60048110611abf5750611ab5611aba929394600560fd1b90611aae611a168560ff60f81b93896118f2565b161461199a565b610f63565b013590565b90611acd600191868561243a565b9101611a83565b506001611a81565b611af2611afa92939495611b0098973691611705565b923691611705565b906125ee565b90565b90611b0e81836127ea565b905f5b60058110611b955750600560fd1b906001600160f81b031990611b36908490866118f2565b351603611b4657611aba90610f63565b60405162461bcd60e51b815260206004820152602160248201527f496e76616c6964207265636569707473526f6f7420524c5020656e636f64696e6044820152606760f81b6064820152608490fd5b91611ba3600191838661243a565b9201611b11565b15611bb157565b60405162461bcd60e51b81526020600482015260136024820152720496e76616c6964207265636569707420524c5606c1b6044820152606490fd5b15611bf357565b60405162461bcd60e51b815260206004820152601d60248201527f5265636569707420737461747573206973206e6f7420737563636573730000006044820152606490fd5b60ff611cb6611a6b611a16600194611cbd965f81151580611cd2575b611ccb575b611c7860c088611c70611a6b611a1686888a6118f2565b161015611baa565b60f887611c8c611a6b611a168587896118f2565b1610611cc25780611a7b6107f8611a76611a71611a6b611a16611cb097898b6118f2565b916118f2565b1614611bec565b600190565b611cb090610f63565b5086611c59565b50608087611ce6611a6b611a1686886118e4565b1610611c54565b15611cf457565b60405162461bcd60e51b815260206004820152600e60248201526d0496e76616c696420747820524c560941b6044820152606490fd5b15611d3157565b60405162461bcd60e51b8152602060048201526012602482015271496e76616c696420746f206164647265737360701b6044820152606490fd5b15611d7257565b60405162461bcd60e51b81526020600482015260126024820152710a4cac6d2e0d2cadce840dad2e6dac2e8c6d60731b6044820152606490fd5b15611db357565b60405162461bcd60e51b815260206004820152600f60248201526e082dadeeadce840dad2e6dac2e8c6d608b1b6044820152606490fd5b90916003905f84151580612009575b611f8c575b80611e2260c060ff611e1a611a6b611a16611e5d978c8c6118f2565b161015611ced565b60f860ff611e37611a6b611a16858b8b6118f2565b1610611f835760ff611e56611a76611a71611a6b611a16868c8c6118f2565b1690610f8d565b915f905b808210611f6c57505090611eaa611eaf92611e91609460ff611e8a611a6b611a16888c8c6118f2565b1614611d2a565b6001600160a01b03166001838601013560601c14611d6b565b610f71565b91611ec1611a6b611a168584866118f2565b925f9260ff851694608086105f14611ee457505050505090611cbd915b14611dac565b90919293946080145f14611f01575050505050611cbd905f611ede565b6107f8611f1091939293611950565b915f935b838510611f2a57505050505090611cbd91611ede565b9091929394611f3b60019160081b90565b611f606107f8611a6b611a16611f598b611f548b610f63565b610f8d565b87896118f2565b17950193929190611f14565b9092611f7b600191878761243a565b930190611e61565b60ff6001611e56565b509050611f9f611a6b611a1685856118e4565b6001919060ff16808303611fbc5750611e5d6004925b9050611dfe565b600203611fce57611e5d600592611fb5565b60405162461bcd60e51b8152602060048201526013602482015272556e737570706f72746564207478207479706560681b6044820152606490fd5b50608060ff61201e611a6b611a1689896118e4565b1610611df9565b6005545f548101809111610f5e576001548101809111610f5e575f80808061187c946003546bffffffffffffffffffffffff60a01b8116600355826005558260045561207761ff001960075416600755565b60018390558280556001600160a01b03165af1610489611058565b1561209957565b60405162461bcd60e51b815260206004820152601060248201526f0496e76616c6964206c6f677320524c560841b6044820152606490fd5b959493929190805f818981151580612216575b61220d575b60ff611c70611a6b611a16866121019660c0966118f2565b8860f860ff612117611a6b611a168688876118f2565b16106121fb576107f8611a76611a71611a6b611a168661213a98611a7b976118f2565b81905b885f5b600381106121e2575060c06121626107f8611a6b611a168688612169976118f2565b1015612092565b8860f86121806107f8611a6b611a168688876118f2565b106121d1576107f8611a76611a71611a6b611a16866121a298611a7b976118f2565b915b5f905b8082106121ba575050611b0095966129bf565b90926121c9600191848b61243a565b9301906121a7565b506121dc9150610f63565b916121a4565b92916001926121f09261243a565b910190888392612140565b506122069150610f63565b819061213d565b600192506120e9565b50608060ff61222b611a6b611a1686866118e4565b16106120e4565b61224c6122436005545f5490610f8d565b60015490610f8d565b6003546001600160a01b0316600380546001600160a01b03191690556122715f600555565b61227a5f600455565b61228a61ff001960075416600755565b6122935f600155565b5f805560014614801561235d575b1561232b5760405163a9059cbb60e01b81526001600160a01b039091166004820152602481019190915260208180604481015b03815f7f00000000000000000000000000000000000000000000000000000000000000006001600160a01b03165af180156103b1576123105750565b6123289060203d6020116103aa576103a08183610ff2565b50565b604051633419e74d60e21b81526001600160a01b039091166004820152602481019190915260208180604481016122d4565b5061a5bd46146122a1565b8051156118ed5760200190565b9081518110156118ed570160200190565b919061239281846127ea565b905f5b600881106123d957506123a89293612aea565b50905f805b83518210156123d4576001906123c38386612375565b5160f81c9060081b179101906123ad565b925050565b916123e7600191838761243a565b9201612395565b156123f557565b60405162461bcd60e51b815260206004820152601860248201527f524c50206f6666736574206f7574206f6620626f756e647300000000000000006044820152606490fd5b91906124478183106123ee565b612458611a6b611a168484876118f2565b9060ff8216608081101561247357505050611b009150610f63565b91929160b881101561249b575050611b0092506107f8612495611a7b92610f63565b92611950565b90929060c081101561251157506107f86124b791949394611976565b915f935f915b8483106124d857505050611b009291611f54611f5492610f63565b9091946124e760019160081b90565b6125076107f8611a6b611a166125008b611f548b610f63565b88886118f2565b17950191906124bd565b90929060f811156125375750611b0092506107f8612531611a7b92610f63565b92611963565b92916107f86125459161193d565b915f935f915b84831061256657505050611b009291611f54611f5492610f63565b90919461257560019160081b90565b61258e6107f8611a6b611a166125008b611f548b610f63565b179501919061254b565b1561259f57565b60405162461bcd60e51b815260206004820152602160248201527f457870656374656420524c50206c69737420666f722070726f6f66206e6f64656044820152607360f81b6064820152608490fd5b91939092919061261a600360fe1b6001600160f81b0319612612611a16878a6118e4565b161015612598565b601f60fb1b6001600160f81b0319612635611a1686896118e4565b1610612794576126596126546107f8611a71611a6b611a16888b6118e4565b610f7f565b9492905b945f5b82821061267257505050505050505f90565b6126906126898361268436878a611705565b612c94565b9093610f8d565b96825160208401200361273257600360fe1b6126cc6126bf6126b185612368565b516001600160f81b03191690565b6001600160f81b03191690565b10612732578590846001601f60fb1b6126ea6126bf6126b188612368565b1015612776575b6126fb8186612e1e565b6011810361273d575061270d94612fb0565b9491156127325784156127265793915b91959093612660565b50505050505050600190565b505050505050505f90565b90935060021415905061276a5784879261275694612e6a565b94911561273257841561272657939161271d565b50505050505050505f90565b5061278f6126546107f8611a71611a6b6126b189612368565b6126f1565b600194929061265d565b156127a557565b60405162461bcd60e51b815260206004820152601d60248201527f496e76616c696420696e6e65722068656164657220524c50206c6973740000006044820152606490fd5b5f612809600360fe1b6001600160f81b0319611a24611a1687876118e4565b601f60fb1b6001600160f81b0319612824611a1686866118e4565b16106128e95780611a7b6107f8611a76611a71611a6b611a16612848978a8a6118f2565b905b61a5bf461461285a575b50905090565b5f5b600381106128d45750612885600360fe1b61287e6126bf611a168688876118f2565b101561279e565b601f60fb1b61289b6126bf611a168587866118f2565b106128c4576107f8611a76611a71611a6b611a16866128bd98611a7b976118f2565b805f612854565b506128cf9150610f63565b6128bd565b916128e2600191858461243a565b920161285c565b5060019061284a565b156128f957565b60405162461bcd60e51b815260206004820152600f60248201526e0496e76616c6964206c6f6720524c5608c1b6044820152606490fd5b1561293757565b60405162461bcd60e51b815260206004820152601e60248201527f496e76616c696420656d69747465722061646472657373206c656e67746800006044820152606490fd5b1561298357565b60405162461bcd60e51b815260206004820152601460248201527315dc9bdb99c81d1bdad95b8818dbdb9d1c9858dd60621b6044820152606490fd5b916014611b00969594611f5484612a5b9487816129f260c060ff6129ea611a6b611a16868a896118f2565b1610156128f2565b60f860ff612a07611a6b611a168589886118f2565b1610612a6157506107f8611a76611a71611a6b611a1686612a2b98611a7b976118f2565b915b612a388387896130c5565b9490612a4682825114612930565b01516001600160a01b0390811691161461297c565b916132cf565b915050612a6e9150610f63565b91612a2d565b60408051909190612a858382610ff2565b6001815291601f1901366020840137565b60408051909190612aa78382610ff2565b6014815291601f1901366020840137565b90612ac28261103c565b612acf6040519182610ff2565b8281528092612ae0601f199161103c565b0190602036910137565b612af58284106123ee565b612b06611a6b611a168585856118f2565b9260ff84166080811015612b405750505050612b20612a74565b9060f81b6001600160f81b0319165f1a612b3982612368565b5390600190565b60b881969592939496105f14612bae57506107f8612b5d91611950565b91612b6783612ab8565b945f5b848110612b7e5750505050611b0090610f7f565b80612b9b611a16612b94600194611f5489610f63565b85876118f2565b5f1a612ba7828a612375565b5301612b6a565b60c01115612c4f576107f8612bc291611976565b905f925f5b838110612c205750612bd884612ab8565b955f5b858110612bf3575050505090611f54611b0092610f7f565b80612c0d611a16612b94600194611f548a611f548b610f63565b5f1a612c19828b612375565b5301612bdb565b9360019060081b612c476107f8611a6b611a16612c408a611f548a610f63565b8c886118f2565b179401612bc7565b60405162461bcd60e51b815260206004820152601e60248201527f457870656374656420737472696e67206974656d2c20676f74206c69737400006044820152606490fd5b612ca0815183106123ee565b612cb0611a6b6126b18484612375565b9160ff83166080811015612cc957505050612b20612a74565b919392909160b8811015612d3357506107f8612ce491611950565b90612cee82612ab8565b935f5b838110612d0457505050611b0090610f7f565b80612d206126b1612d1a600194611f5488610f63565b85612375565b5f1a612d2c8289612375565b5301612cf1565b60c01115612dd1576107f8612d4791611976565b5f915f5b828110612da35750612d5c83612ab8565b945f5b848110612d765750505090611f54611b0092610f7f565b80612d906126b1612d1a600194611f5489611f548a610f63565b5f1a612d9c828a612375565b5301612d5f565b9260019060081b612dc96107f8611a6b6126b1612dc389611f5489610f63565b8b612375565b179301612d4b565b5091612ddd8382613415565b92612de784612ab8565b915f5b858110612df8575050509190565b80612e0b6126b1612d1a60019487610f8d565b5f1a612e178287612375565b5301612dea565b5f915b8151811015612e4f57612e348183613415565b8101809111610f5e57915f198114610f5e5760010191612e21565b505090565b908160011b9180830460021490151715610f5e57565b83949291612e788183612c94565b9390612e976020612e8e611a6b6126b185612368565b16151591613545565b97889115612f395750612eab905187610f8d565b612eb58251612e54565b14612eca575b505050505050505f905f905f90565b86866001928251612f27575b505050612ee4575b80612ebb565b612ef792612ef191610f8d565b90612c94565b5060208151910120906020815191012014612f155780808080612ede565b612f20915190610f8d565b6001915f90565b612f3193506136a9565b86865f612ed6565b612f4a93949596506107fe926136a9565b612fa357612f5b92612ef191610f8d565b50908151602081145f14612f8357506020612f7b920151925b5190610f8d565b916001929190565b8015612f97576020612f7b93012092612f74565b505050505f905f905f90565b50505050505f905f905f90565b91909293612fbe8251612e54565b8510156130685750611a6b6126b1612fe092612fda8760011c90565b90612375565b6001841661305f5760041c600f16915b905f925b60ff8116841061303f57506130099250612c94565b508051801561303457612f7b916020820361302a5760209150015191610f63565b6020012091610f63565b5050505f905f905f90565b9091600161305382611a7b60ff9487613415565b94019392919050612ff4565b600f1691612ff0565b9290509392935f915b601083106130ab576130839250612c94565b50602081519101209060208151910120145f146130a257600191905f90565b5f915081908190565b906130bc81611a7b60019385613415565b92019190613071565b9190916130d38383106123ee565b609460ff6130e8611a6b611a168688876118f2565b1603613134576130f6612a96565b925f5b6014811061310b575050505090601590565b80613121611a16612b94600194611f5489610f63565b5f1a61312d8288612375565b53016130f9565b60405162461bcd60e51b815260206004820152601c60248201527f496e76616c6964206164647265737320524c5020656e636f64696e67000000006044820152606490fd5b1561318057565b60405162461bcd60e51b81526020600482015260126024820152710496e76616c696420746f7069637320524c560741b6044820152606490fd5b156131c157565b60405162461bcd60e51b815260206004820152601560248201527457726f6e67206576656e74207369676e617475726560581b6044820152606490fd5b1561320557565b60405162461bcd60e51b81526020600482015260136024820152720a8de40c2c8c8e4cae6e640dad2e6dac2e8c6d606b1b6044820152606490fd5b1561324757565b60405162461bcd60e51b8152602060048201526014602482015273416d6f756e74206461746120746f6f206c6f6e6760601b6044820152606490fd5b1561328a57565b60405162461bcd60e51b815260206004820152601860248201527f5472616e7366657220616d6f756e74206d69736d6174636800000000000000006044820152606490fd5b91806133b16133be9561339e61339261339261338b6133848961337d7fddf252ad1be2c89b69c2b068fc378daa952ba7f163c4a11628f55a4df523b3ef6133778e8060f86133b89f61334b611a6b611a168361334460c060ff61333c8f611a16839a611a6b92819e6118f2565b161015613179565b8b886118f2565b161061340b5780611a7b6107f8611a76611a71611a6b611a1661336f978d8a6118f2565b948591613767565b146131ba565b8a8c61243a565b898b61243a565b888a613767565b6001600160a01b031690565b6001600160a01b039081169116146131fe565b828461243a565b916137d9565b506133cd602082511115613240565b5f92835b82518510156133fc5760019060081b6133f36107f8611a6b6126b18988612375565b179401936133d1565b909350611cbd92915014613283565b5061336f8d610f63565b90613422825182106123ee565b613432611a6b6126b18385612375565b9160ff831660808110156134495750505050600190565b60b8811015613464575050506107f8611a76611b0092611950565b60c08110156134d05750916107f861347b91611976565b905f925f915b8383106134985750505090611f54611b0092610f7f565b9091936134a760019160081b90565b6134c66107f8611a6b6126b16134c08a611f5489610f63565b88612375565b1794019190613481565b60f811156134e95750506107f8611a76611b0092611963565b916107f86134f69161193d565b905f925f915b8383106135135750505090611f54611b0092610f7f565b90919361352260019160081b90565b61353b6107f8611a6b6126b16134c08a611f5489610f63565b17940191906134fc565b9081511561187c5761355c611a6b6126b184612368565b601081161561362b5761357f61357a6135758551612e54565b61165b565b612ab8565b9060f81b600f60f81b165f1a61359482612368565b5360015b835181101561362657806135d36135c36135ba611a6b6126b16001968a612375565b60041c600f1690565b60f81b6001600160f81b03191690565b6135ec6135e261357584612e54565b915f1a9185612375565b53613613600f613602611a6b6126b1858a612375565b1660f81b6001600160f81b03191690565b61361f6135e283612e54565b5301613598565b509150565b5061364161357a61363c8451612e54565b61164c565b60015b835181101561362657806136666135c36135ba611a6b6126b16001968a612375565b61367a6135e26136758461165b565b612e54565b53613690600f613602611a6b6126b1858a612375565b6136a26135e2611ab56136758561165b565b5301613644565b9190916136b7825184610f8d565b6136c18251612e54565b10613760575f5b8251811015613757576136e46136de8286610f8d565b60011690565b6137395761370d6135ba611a6b6126b1613707613701868a610f8d565b60011c90565b86612375565b60ff6137226107f8611a6b6126b18689612375565b911603613731576001016136c8565b505050505f90565b600f613751611a6b6126b1613707613701868a610f8d565b1661370d565b50505050600190565b5050505f90565b9190600560fd1b906001600160f81b031990613785908490866118f2565b35160361379457016001013590565b60405162461bcd60e51b815260206004820152601760248201527f45787065637465642033322d6279746520737472696e670000000000000000006044820152606490fd5b6137e48284106123ee565b6137f5611a6b611a168585856118f2565b9260ff8416608081101561380f5750505050612b20612a74565b60b881969592939496105f1461387657506107f861382c91611950565b9161383683612ab8565b945f5b84811061384d5750505050611b0090610f7f565b80613863611a16612b94600194611f5489610f63565b5f1a61386f828a612375565b5301613839565b60c01115613910576107f861388a91611976565b905f925f5b8381106138e857506138a084612ab8565b955f5b8581106138bb575050505090611f54611b0092610f7f565b806138d5611a16612b94600194611f548a611f548b610f63565b5f1a6138e1828b612375565b53016138a3565b9360019060081b6139086107f8611a6b611a16612c408a611f548a610f63565b17940161388f565b60405162461bcd60e51b815260206004820152601e60248201527f457870656374656420737472696e6720646174612c20676f74206c69737400006044820152606490fdfea26469706673582212207f4154ab40bc8c236dc597f1c0370a1a380e1cd9c81729a9f0005c8d22bb795264736f6c634300081e0033","linkReferences":{}},"methodIdentifiers":{"bond(uint256)":"9940686e","bondAmount()":"80f323a7","bondNative()":"ae6c3fcf","bondedExecutor()":"1aa7c0ec","cancellationRequest()":"308657d7","collect((bytes,bytes,bytes,bytes,uint256),uint256)":"ede7f6a3","collectNative((bytes,bytes,bytes,bytes,bytes,bytes),uint256)":"5922e8f8","currentPaymentAmount()":"8bd03d0a","currentRewardAmount()":"5a4fd645","executionDeadline()":"33ee5f35","expectedAmount()":"2feef2ec","expectedRecipient()":"8677ab23","fund(uint256,uint256)":"a65e2cfd","fundNative(uint256,uint256)":"df235794","funded()":"f3a504f2","is_bonded()":"cb766a56","maxBlockLookback()":"d4899a62","originalRewardAmount()":"d415b3f9","requestCancellation()":"81972d00","resume()":"046f7da2","totalBondsDeposited()":"fe03a460","withdraw()":"3ccfd60b","withdrawNative()":"50431ce4"},"id":20}