{"abi":[{"type":"constructor","inputs":[{"name":"_tokenContract","type":"address","internalType":"address"},{"name":"_expectedRecipient","type":"address","internalType":"address"},{"name":"_expectedAmount","type":"uint256","internalType":"uint256"}],"stateMutability":"nonpayable"},{"type":"function","name":"bond","inputs":[{"name":"_bondAmount","type":"uint256","internalType":"uint256"}],"outputs":[],"stateMutability":"nonpayable"},{"type":"function","name":"bondAmount","inputs":[],"outputs":[{"name":"","type":"uint256","internalType":"uint256"}],"stateMutability":"view"},{"type":"function","name":"bondedExecutor","inputs":[],"outputs":[{"name":"","type":"address","internalType":"address"}],"stateMutability":"view"},{"type":"function","name":"cancellationRequest","inputs":[],"outputs":[{"name":"","type":"bool","internalType":"bool"}],"stateMutability":"view"},{"type":"function","name":"collect","inputs":[{"name":"proof","type":"tuple","internalType":"struct Escrow.ReceiptProof","components":[{"name":"blockHeader","type":"bytes","internalType":"bytes"},{"name":"receiptRlp","type":"bytes","internalType":"bytes"},{"name":"proofNodes","type":"bytes","internalType":"bytes"},{"name":"receiptPath","type":"bytes","internalType":"bytes"},{"name":"logIndex","type":"uint256","internalType":"uint256"}]},{"name":"targetBlockNumber","type":"uint256","internalType":"uint256"},{"name":"executorEOA2","type":"address","internalType":"address"}],"outputs":[],"stateMutability":"nonpayable"},{"type":"function","name":"currentPaymentAmount","inputs":[],"outputs":[{"name":"","type":"uint256","internalType":"uint256"}],"stateMutability":"view"},{"type":"function","name":"currentRewardAmount","inputs":[],"outputs":[{"name":"","type":"uint256","internalType":"uint256"}],"stateMutability":"view"},{"type":"function","name":"executionDeadline","inputs":[],"outputs":[{"name":"","type":"uint256","internalType":"uint256"}],"stateMutability":"view"},{"type":"function","name":"expectedAmount","inputs":[],"outputs":[{"name":"","type":"uint256","internalType":"uint256"}],"stateMutability":"view"},{"type":"function","name":"expectedRecipient","inputs":[],"outputs":[{"name":"","type":"address","internalType":"address"}],"stateMutability":"view"},{"type":"function","name":"fund","inputs":[{"name":"_currentRewardAmount","type":"uint256","internalType":"uint256"},{"name":"_currentPaymentAmount","type":"uint256","internalType":"uint256"}],"outputs":[],"stateMutability":"nonpayable"},{"type":"function","name":"funded","inputs":[],"outputs":[{"name":"","type":"bool","internalType":"bool"}],"stateMutability":"view"},{"type":"function","name":"is_bonded","inputs":[],"outputs":[{"name":"","type":"bool","internalType":"bool"}],"stateMutability":"view"},{"type":"function","name":"maxBlockLookback","inputs":[],"outputs":[{"name":"","type":"uint256","internalType":"uint256"}],"stateMutability":"view"},{"type":"function","name":"originalRewardAmount","inputs":[],"outputs":[{"name":"","type":"uint256","internalType":"uint256"}],"stateMutability":"view"},{"type":"function","name":"requestCancellation","inputs":[],"outputs":[],"stateMutability":"nonpayable"},{"type":"function","name":"resume","inputs":[],"outputs":[],"stateMutability":"nonpayable"},{"type":"function","name":"totalBondsDeposited","inputs":[],"outputs":[{"name":"","type":"uint256","internalType":"uint256"}],"stateMutability":"view"},{"type":"function","name":"withdraw","inputs":[],"outputs":[],"stateMutability":"nonpayable"}],"bytecode":{"object":"0x610120346100e957601f612ab638819003918201601f19168301916001600160401b038311848410176100ed578084926060946040528339810103126100e95761004881610101565b90604061005760208301610101565b9101519160a05260c05260e0523360805261010080526040516129a09081610116823960805181818161015a01528181610272015281816103c401526105e2015260a0518181816103100152818161050401528181610677015261085a015260c051818181610416015261089f015260e0518181816101d7015261087d01526101005181818161078c01526109da0152f35b5f80fd5b634e487b7160e01b5f52604160045260245ffd5b51906001600160a01b03821682036100e95756fe60806040526004361015610011575f80fd5b5f3560e01c8063046f7da2146101445780631aa7c0ec1461013f5780632feef2ec1461013a578063308657d71461013557806333ee5f35146101305780633ccfd60b1461012b5780635a4fd6451461012657806380f323a71461012157806381972d001461011c5780638677ab23146101175780638bd03d0a146101125780639940686e1461010d578063a65e2cfd14610108578063b10b33dd14610103578063cb766a56146100fe578063d415b3f9146100f9578063d4899a62146100f4578063f3a504f2146100ef5763fe03a460146100ea575f80fd5b610a22565b6109fd565b6109c3565b6109a6565b610982565b6106dd565b6105b8565b610462565b610445565b610401565b6103ae565b610391565b610375565b610239565b61021c565b6101fa565b6101c0565b610198565b34610194575f36600319011261019457610188337f00000000000000000000000000000000000000000000000000000000000000006001600160a01b031614610a3f565b6007805460ff19169055005b5f80fd5b34610194575f366003190112610194576003546040516001600160a01b039091168152602090f35b34610194575f3660031901126101945760206040517f00000000000000000000000000000000000000000000000000000000000000008152f35b34610194575f36600319011261019457602060ff600754166040519015158152f35b34610194575f366003190112610194576020600454604051908152f35b34610194575f366003190112610194576102a1600161025e60075460ff9060081c1690565b61026781610a8b565b610299828060a01b037f0000000000000000000000000000000000000000000000000000000000000000163314610a3f565b151514610acd565b6102a9611039565b61030b60206102bd60015460025490610b83565b6102cd61ff001960075416600755565b6102d65f600155565b5f80556102e4811515610b90565b60405163a9059cbb60e01b8152336004820152602481019190915291829081906044820190565b03815f7f00000000000000000000000000000000000000000000000000000000000000006001600160a01b03165af180156103705761034657005b6103679060203d602011610369575b61035f8183610be8565b810190610c0f565b005b503d610355565b610c27565b34610194575f3660031901126101945760205f54604051908152f35b34610194575f366003190112610194576020600554604051908152f35b34610194575f366003190112610194576103f2337f00000000000000000000000000000000000000000000000000000000000000006001600160a01b031614610a3f565b6007805460ff19166001179055005b34610194575f366003190112610194576040517f00000000000000000000000000000000000000000000000000000000000000006001600160a01b03168152602090f35b34610194575f366003190112610194576020600154604051908152f35b34610194576020366003190112610194576004356104a76104a261049e6007546104986104938260ff9060081c1690565b610a8b565b60ff1690565b1590565b610c32565b5f546104be6104b68260011c90565b831015610c77565b60045480151590816105ae575b5061057c575b506040516323b872dd60e01b815233600482015230602482015260448101829052906020826064815f6001600160a01b037f0000000000000000000000000000000000000000000000000000000000000000165af1918215610370576103679261055f575b50600380546001600160a01b0319163317905561055a61055542610b53565b600455565b600555565b6105779060203d6020116103695761035f8183610be8565b610536565b60055461058891610b83565b5f556105a061059b600554600654610b83565b600655565b6105a8611039565b5f6104d1565b905042115f6104cb565b346101945760403660031901126101945761063160243561062c6004356106096001600160a01b037f0000000000000000000000000000000000000000000000000000000000000000163314610a3f565b61062461061f61049e60075460ff9060081c1690565b610cd7565b805f55600255565b600155565b610672602061064560025460015490610b83565b6040516323b872dd60e01b8152336004820152306024820152604481019190915291829081906064820190565b03815f7f00000000000000000000000000000000000000000000000000000000000000006001600160a01b03165af18015610370576106c0575b61036761010061ff00196007541617600755565b6106d89060203d6020116103695761035f8183610be8565b6106ac565b346101945760603660031901126101945760043567ffffffffffffffff811161019457806004019060a06003198236030112610194576024356044356001600160a01b0381168103610194576108c96108c460846020956108526109569861074e61049360075460ff9060081c1690565b6003546001600160a01b0316976107fb90338a148061096f575b61077190610d23565b61077d43821115610d6e565b6107b261078a8243610dd7565b7f00000000000000000000000000000000000000000000000000000000000000001015610de4565b6107e281406107c2811515610e27565b6107d66107cf8680610e73565b3691610ec2565b8d815191012014610ef8565b6107f56107ef8480610e73565b9061119d565b14610f44565b61080e6108088280610e73565b906112f8565b9061084d61084860248601936108248585610e73565b9061083260448a0187610e73565b9061084060648c0189610e73565b9490936113b4565b610f90565b610e73565b9290910135947f000000000000000000000000000000000000000000000000000000000000000080967f0000000000000000000000000000000000000000000000000000000000000000947f00000000000000000000000000000000000000000000000000000000000000009461145c565b610fdc565b6108e36108da6005545f5490610b83565b60015490610b83565b600380546001600160a01b0319169055916108fd5f600555565b6109065f600455565b61091661ff001960075416600755565b61091f5f600155565b5f80805560405163a9059cbb60e01b81526001600160a01b0390921660048301526024820193909352938492839182906044820190565b03926001600160a01b03165af180156103705761034657005b5061077161097b611021565b9050610768565b34610194575f36600319011261019457602061099c611021565b6040519015158152f35b34610194575f366003190112610194576020600254604051908152f35b34610194575f3660031901126101945760206040517f00000000000000000000000000000000000000000000000000000000000000008152f35b34610194575f36600319011261019457602060ff60075460081c166040519015158152f35b34610194575f366003190112610194576020600654604051908152f35b15610a4657565b60405162461bcd60e51b815260206004820152601d60248201527f4f6e6c792063616c6c61626c6520627920746865206465706c6f7965720000006044820152606490fd5b15610a9257565b60405162461bcd60e51b815260206004820152601360248201527210dbdb9d1c9858dd081b9bdd08199d5b991959606a1b6044820152606490fd5b15610ad457565b60405162461bcd60e51b815260206004820152603760248201527f54686520636f6e747261637420776173206e6f742066756e646564206f72206860448201527f6173206265656e20647261696e656420616c72656164790000000000000000006064820152608490fd5b634e487b7160e01b5f52601160045260245ffd5b9061012c8201809211610b6257565b610b3f565b9060018201809211610b6257565b6001019081600111610b6257565b91908201809211610b6257565b15610b9757565b60405162461bcd60e51b81526020600482015260156024820152744e6f20776974686472617761626c652066756e647360581b6044820152606490fd5b634e487b7160e01b5f52604160045260245ffd5b90601f8019910116810190811067ffffffffffffffff821117610c0a57604052565b610bd4565b90816020910312610194575180151581036101945790565b6040513d5f823e3d90fd5b15610c3957565b60405162461bcd60e51b815260206004820152601660248201527510d85b98d95b1b185d1a5bdb881c995c5d595cdd195960521b6044820152606490fd5b15610c7e57565b60405162461bcd60e51b815260206004820152602b60248201527f426f6e64206d757374206265206174206c656173742068616c66206f6620726560448201526a1dd85c9908185b5bdd5b9d60aa1b6064820152608490fd5b15610cde57565b60405162461bcd60e51b815260206004820152601760248201527f436f6e747261637420616c72656164792066756e6465640000000000000000006044820152606490fd5b15610d2a57565b606460405162461bcd60e51b815260206004820152602060248201527f4f6e6c7920626f6e646564206578656375746f722063616e20636f6c6c6563746044820152fd5b15610d7557565b60405162461bcd60e51b815260206004820152601d60248201527f54617267657420626c6f636b20697320696e20746865206675747572650000006044820152606490fd5b600119810191908211610b6257565b5f19810191908211610b6257565b91908203918211610b6257565b15610deb57565b60405162461bcd60e51b815260206004820152601460248201527315185c99d95d08189b1bd8dac81d1bdbc81bdb1960621b6044820152606490fd5b15610e2e57565b60405162461bcd60e51b815260206004820152601d60248201527f556e61626c6520746f20726574726965766520626c6f636b20686173680000006044820152606490fd5b903590601e1981360301821215610194570180359067ffffffffffffffff82116101945760200191813603831361019457565b67ffffffffffffffff8111610c0a57601f01601f191660200190565b929192610ece82610ea6565b91610edc6040519384610be8565b829481845281830111610194578281602093845f960137010152565b15610eff57565b60405162461bcd60e51b815260206004820152601a60248201527f426c6f636b206865616465722068617368206d69736d617463680000000000006044820152606490fd5b15610f4b57565b60405162461bcd60e51b815260206004820152601c60248201527f48656164657220626c6f636b206e756d626572206d69736d61746368000000006044820152606490fd5b15610f9757565b60405162461bcd60e51b815260206004820152601960248201527f496e76616c69642072656365697074204d50542070726f6f66000000000000006044820152606490fd5b15610fe357565b60405162461bcd60e51b8152602060048201526016602482015275125b9d985b1a5908151c985b9cd9995c88195d995b9d60521b6044820152606490fd5b6004548015159081611031575090565b905042111590565b611041611021565b611066576bffffffffffffffffffffffff60a01b600354166003555f6005555f600455565b60405162461bcd60e51b815260206004820152602160248201527f43616e6e6f74207265736574207768696c6520626f6e642069732061637469766044820152606560f81b6064820152608490fd5b634e487b7160e01b5f52603260045260245ffd5b90156110d25790565b6110b5565b908210156110d2570190565b156110ea57565b60405162461bcd60e51b815260206004820152601060248201526f125b9d985b1a5908149314081b1a5cdd60821b6044820152606490fd5b60ff60f6199116019060ff8211610b6257565b60ff60bf199116019060ff8211610b6257565b60ff60b6199116019060ff8211610b6257565b60ff607f199116019060ff8211610b6257565b60ff166001019060ff8211610b6257565b8051156110d25760200190565b9081518110156110d2570160200190565b91905f6111d4600360fe1b6001600160f81b03196111cc6111be86896110c9565b356001600160f81b03191690565b1610156110e3565b601f60fb1b6001600160f81b03196111ef6111be85886110c9565b1610611299578061122361049861121e6112196112136111be61122997898c6110d7565b60f81c90565b611122565b61116e565b90610b83565b905b5f5b60088110611284575061124092936117eb565b505f9190825b815184101561127f5760019060081b611276610498611213611268888761118c565b516001600160f81b03191690565b17930192611246565b925050565b916112926001918387611612565b920161122d565b5060019061122b565b156112a957565b60405162461bcd60e51b815260206004820152602160248201527f496e76616c6964207265636569707473526f6f7420524c5020656e636f64696e6044820152606760f81b6064820152608490fd5b9091905f61131a600360fe1b6001600160f81b03196111cc6111be88876110c9565b601f60fb1b6001600160f81b03196113356111be87866110c9565b16106113ac578061122361049861121e6112196112136111be611359978b8a6110d7565b5f5b60058110611397575061138d611392929394600560fd1b906113866111be8560ff60f81b93896110d7565b16146112a2565b610b67565b013590565b906113a56001918685611612565b910161135b565b506001611359565b6113ca6113d2929394956113d898973691610ec2565b923691610ec2565b906119ab565b90565b156113e257565b60405162461bcd60e51b81526020600482015260136024820152720496e76616c6964207265636569707420524c5606c1b6044820152606490fd5b1561142457565b60405162461bcd60e51b815260206004820152601060248201526f0496e76616c6964206c6f677320524c560841b6044820152606490fd5b96959493929190805f818a811515806115aa575b6115a1575b60ff61148d6112136111be866114959660c0966110d7565b1610156113db565b8960f860ff6114ab6112136111be8688876110d7565b161061158f5761049861121e6112196112136111be866114ce98611223976110d7565b81905b895f5b60038110611576575060c06114f66104986112136111be86886114fd976110d7565b101561141d565b8960f86115146104986112136111be8688876110d7565b106115655761049861121e6112196112136111be8661153698611223976110d7565b915b5f905b80821061154e5750506113d89697611bbd565b909261155d600191848c611612565b93019061153b565b506115709150610b67565b91611538565b929160019261158492611612565b9101908983926114d4565b5061159a9150610b67565b81906114d1565b60019250611475565b50608060ff6115bf6112136111be86866110c9565b1610611470565b156115cd57565b60405162461bcd60e51b815260206004820152601860248201527f524c50206f6666736574206f7574206f6620626f756e647300000000000000006044820152606490fd5b919061161f8183106115c6565b6116306112136111be8484876110d7565b9060ff8216608081101561164b575050506113d89150610b67565b91929160b88110156116735750506113d8925061049861166d61122392610b67565b9261115b565b90929060c08110156116ee575061049861168f91949394611148565b915f935f915b8483106116b5575050506113d892916116b06116b092610b67565b610b83565b9091946116c460019160081b90565b6116e46104986112136111be6116dd8b6116b08b610b67565b88886110d7565b1795019190611695565b90929060f8111561171457506113d8925061049861170e61122392610b67565b92611135565b929161049861172291611122565b915f935f915b848310611743575050506113d892916116b06116b092610b67565b90919461175260019160081b90565b61176b6104986112136111be6116dd8b6116b08b610b67565b1795019190611728565b604080519091906117868382610be8565b6001815291601f1901366020840137565b604080519091906117a88382610be8565b6014815291601f1901366020840137565b906117c382610ea6565b6117d06040519182610be8565b82815280926117e1601f1991610ea6565b0190602036910137565b6117f68284106115c6565b6118076112136111be8585856110d7565b9260ff841660808110156118415750505050611821611775565b9060f81b6001600160f81b0319165f1a61183a8261117f565b5390600190565b60b881969592939496105f146118af575061049861185e9161115b565b91611868836117b9565b945f5b84811061187f57505050506113d890610b75565b8061189c6111be6118956001946116b089610b67565b85876110d7565b5f1a6118a8828a61118c565b530161186b565b60c01115611950576104986118c391611148565b905f925f5b83811061192157506118d9846117b9565b955f5b8581106118f45750505050906116b06113d892610b75565b8061190e6111be6118956001946116b08a6116b08b610b67565b5f1a61191a828b61118c565b53016118dc565b9360019060081b6119486104986112136111be6119418a6116b08a610b67565b8c886110d7565b1794016118c8565b60405162461bcd60e51b815260206004820152601e60248201527f457870656374656420737472696e67206974656d2c20676f74206c69737400006044820152606490fd5b908160011b9180830460021490151715610b6257565b90925f5f5b82821080611ade575b15611a77576119dc6119d5836119d036878a610ec2565b611c73565b9093610b83565b968251602084012003611a7757600360fe1b611a0a6119fd6112688561117f565b6001600160f81b03191690565b10611a77578590846001601f60fb1b6001600160f81b0319611a2e6112688861117f565b161015611abb575b611a408186611dfd565b60118103611a825750611a5294611f4a565b949115611a77578415611a6b5793915b919590936119b0565b50505050505050600190565b505050505050505f90565b909350600214159050611aaf57848792611a9b94611e33565b949115611a77578415611a6b579391611a62565b50505050505050505f90565b50611ad9611ad46104986112196112136112688961117f565b610b75565b611a36565b50611ae98451611995565b81106119b9565b15611af757565b60405162461bcd60e51b815260206004820152600f60248201526e0496e76616c6964206c6f6720524c5608c1b6044820152606490fd5b15611b3557565b60405162461bcd60e51b815260206004820152601e60248201527f496e76616c696420656d69747465722061646472657373206c656e67746800006044820152606490fd5b15611b8157565b60405162461bcd60e51b815260206004820152601460248201527315dc9bdb99c81d1bdad95b8818dbdb9d1c9858dd60621b6044820152606490fd5b9160146113d8979695946116b084611c5a948781611bf160c060ff611be96112136111be868a896110d7565b161015611af0565b60f860ff611c066112136111be8589886110d7565b1610611c60575061049861121e6112196112136111be86611c2a98611223976110d7565b915b611c3783878961205f565b9490611c4582825114611b2e565b01516001600160a01b03908116911614611b7a565b916122ad565b915050611c6d9150610b67565b91611c2c565b611c7f815183106115c6565b611c8f611213611268848461118c565b9160ff83166080811015611ca857505050611821611775565b919392909160b8811015611d125750610498611cc39161115b565b90611ccd826117b9565b935f5b838110611ce3575050506113d890610b75565b80611cff611268611cf96001946116b088610b67565b8561118c565b5f1a611d0b828961118c565b5301611cd0565b60c01115611db057610498611d2691611148565b5f915f5b828110611d825750611d3b836117b9565b945f5b848110611d5557505050906116b06113d892610b75565b80611d6f611268611cf96001946116b0896116b08a610b67565b5f1a611d7b828a61118c565b5301611d3e565b9260019060081b611da8610498611213611268611da2896116b089610b67565b8b61118c565b179301611d2a565b5091611dbc8382612428565b92611dc6846117b9565b915f5b858110611dd7575050509190565b80611dea611268611cf960019487610b83565b5f1a611df6828761118c565b5301611dc9565b5f915b8151811015611e2e57611e138183612428565b8101809111610b6257915f198114610b625760010191611e00565b505090565b939193611e408282611c73565b929095611e606020611e576112136112688b61117f565b16151597612558565b80975f14611eeb57611e73905187610b83565b611e7d8251611995565b14611e92575b505050505050505f905f905f90565b8686611e9d926126be565b611ea8575b80611e83565b611ebb92611eb591610b83565b90611c73565b5060208151910120906020815191012014611ed95780808080611ea2565b611ee4915190610b83565b6001915f90565b86611efc9397965061049e926126be565b611f3d57611eb5611f1092611f2b95610b83565b5080519060208203611f3357602091500151925b5190610b83565b916001929190565b6020012092611f24565b50505050505f905f905f90565b91909293611f588251611995565b8510156120025750611213611268611f7a92611f748760011c90565b9061118c565b60018416611ff95760041c600f16915b905f925b60ff81168410611fd95750611fa39250611c73565b5080518015611fce57611f2b9160208203611fc45760209150015191610b67565b6020012091610b67565b5050505f905f905f90565b90916001611fed8261122360ff9487612428565b94019392919050611f8e565b600f1691611f8a565b9290509392935f915b601083106120455761201d9250611c73565b50602081519101209060208151910120145f1461203c57600191905f90565b5f915081908190565b906120568161122360019385612428565b9201919061200b565b91909161206d8383106115c6565b609460ff6120826112136111be8688876110d7565b16036120ce57612090611797565b925f5b601481106120a5575050505090601590565b806120bb6111be6118956001946116b089610b67565b5f1a6120c7828861118c565b5301612093565b60405162461bcd60e51b815260206004820152601c60248201527f496e76616c6964206164647265737320524c5020656e636f64696e67000000006044820152606490fd5b1561211a57565b60405162461bcd60e51b81526020600482015260126024820152710496e76616c696420746f7069637320524c560741b6044820152606490fd5b1561215b57565b60405162461bcd60e51b815260206004820152601560248201527457726f6e67206576656e74207369676e617475726560581b6044820152606490fd5b1561219f57565b60405162461bcd60e51b815260206004820152601560248201527408ce4deda40c2c8c8e4cae6e640dad2e6dac2e8c6d605b1b6044820152606490fd5b156121e357565b60405162461bcd60e51b81526020600482015260136024820152720a8de40c2c8c8e4cae6e640dad2e6dac2e8c6d606b1b6044820152606490fd5b1561222557565b60405162461bcd60e51b8152602060048201526014602482015273416d6f756e74206461746120746f6f206c6f6e6760601b6044820152606490fd5b1561226857565b60405162461bcd60e51b815260206004820152601860248201527f5472616e7366657220616d6f756e74206d69736d6174636800000000000000006044820152606490fd5b92916123b86123c5956123a561237861237861239e87612397819a6123846123786123788f6123706123bf9f8f806122fb60c060ff6122f36112136111be86898c6110d7565b161015612113565b60f860ff6123106112136111be85888b6110d7565b1610612417575061122361049861121e6112196112136111be86612334988b6110d7565b6123697fddf252ad1be2c89b69c2b068fc378daa952ba7f163c4a11628f55a4df523b3ef612363838c8761277c565b14612154565b8883611612565b96879161277c565b6001600160a01b031690565b6001600160a01b03908116911614612198565b898b611612565b888a61277c565b6001600160a01b039081169116146121dc565b8284611612565b916127ee565b506123d460208251111561221e565b5f92835b82518510156124035760019060081b6123fa610498611213611268898861118c565b179401936123d8565b90935061241292915014612261565b600190565b90506124239150610b67565b612334565b90612435825182106115c6565b612445611213611268838561118c565b9160ff8316608081101561245c5750505050600190565b60b88110156124775750505061049861121e6113d89261115b565b60c08110156124e357509161049861248e91611148565b905f925f915b8383106124ab57505050906116b06113d892610b75565b9091936124ba60019160081b90565b6124d96104986112136112686124d38a6116b089610b67565b8861118c565b1794019190612494565b60f811156124fc57505061049861121e6113d892611135565b9161049861250991611122565b905f925f915b83831061252657505050906116b06113d892610b75565b90919361253560019160081b90565b61254e6104986112136112686124d38a6116b089610b67565b179401919061250f565b908151156126bc5761256f6112136112688461117f565b601081161561263e5761259261258d6125888551611995565b610dc9565b6117b9565b9060f81b600f60f81b165f1a6125a78261117f565b5360015b835181101561263957806125e66125d66125cd6112136112686001968a61118c565b60041c600f1690565b60f81b6001600160f81b03191690565b6125ff6125f561258884611995565b915f1a918561118c565b53612626600f612615611213611268858a61118c565b1660f81b6001600160f81b03191690565b6126326125f583611995565b53016125ab565b509150565b5061265461258d61264f8451611995565b610dba565b60015b835181101561263957806126796125d66125cd6112136112686001968a61118c565b61268d6125f561268884610dc9565b611995565b536126a3600f612615611213611268858a61118c565b6126b56125f561138d61268885610dc9565b5301612657565b565b9190916126cc825184610b83565b6126d68251611995565b10612775575f5b825181101561276c576126f96126f38286610b83565b60011690565b61274e576127226125cd61121361126861271c612716868a610b83565b60011c90565b8661118c565b60ff612737610498611213611268868961118c565b911603612746576001016126dd565b505050505f90565b600f61276661121361126861271c612716868a610b83565b16612722565b50505050600190565b5050505f90565b9190600560fd1b906001600160f81b03199061279a908490866110d7565b3516036127a957016001013590565b60405162461bcd60e51b815260206004820152601760248201527f45787065637465642033322d6279746520737472696e670000000000000000006044820152606490fd5b6127f98284106115c6565b61280a6112136111be8585856110d7565b9260ff841660808110156128245750505050611821611775565b60b881969592939496105f1461288b57506104986128419161115b565b9161284b836117b9565b945f5b84811061286257505050506113d890610b75565b806128786111be6118956001946116b089610b67565b5f1a612884828a61118c565b530161284e565b60c011156129255761049861289f91611148565b905f925f5b8381106128fd57506128b5846117b9565b955f5b8581106128d05750505050906116b06113d892610b75565b806128ea6111be6118956001946116b08a6116b08b610b67565b5f1a6128f6828b61118c565b53016128b8565b9360019060081b61291d6104986112136111be6119418a6116b08a610b67565b1794016128a4565b60405162461bcd60e51b815260206004820152601e60248201527f457870656374656420737472696e6720646174612c20676f74206c69737400006044820152606490fdfea26469706673582212205659c736486bb555aa1eb0a2096ecca84724dd1a4cd3acaa6e9def9a903b918864736f6c634300081c0033","linkReferences":{}},"methodIdentifiers":{"bond(uint256)":"9940686e","bondAmount()":"80f323a7","bondedExecutor()":"1aa7c0ec","cancellationRequest()":"308657d7","collect((bytes,bytes,bytes,bytes,uint256),uint256,address)":"b10b33dd","currentPaymentAmount()":"8bd03d0a","currentRewardAmount()":"5a4fd645","executionDeadline()":"33ee5f35","expectedAmount()":"2feef2ec","expectedRecipient()":"8677ab23","fund(uint256,uint256)":"a65e2cfd","funded()":"f3a504f2","is_bonded()":"cb766a56","maxBlockLookback()":"d4899a62","originalRewardAmount()":"d415b3f9","requestCancellation()":"81972d00","resume()":"046f7da2","totalBondsDeposited()":"fe03a460","withdraw()":"3ccfd60b"},"id":20}