{"abi":[{"type":"constructor","inputs":[{"name":"_tokenContract","type":"address","internalType":"address"},{"name":"_expectedRecipient","type":"address","internalType":"address"},{"name":"_expectedAmount","type":"uint256","internalType":"uint256"}],"stateMutability":"nonpayable"},{"type":"function","name":"bond","inputs":[{"name":"_bondAmount","type":"uint256","internalType":"uint256"}],"outputs":[],"stateMutability":"nonpayable"},{"type":"function","name":"bondAmount","inputs":[],"outputs":[{"name":"","type":"uint256","internalType":"uint256"}],"stateMutability":"view"},{"type":"function","name":"bondedExecutor","inputs":[],"outputs":[{"name":"","type":"address","internalType":"address"}],"stateMutability":"view"},{"type":"function","name":"cancellationRequest","inputs":[],"outputs":[{"name":"","type":"bool","internalType":"bool"}],"stateMutability":"view"},{"type":"function","name":"collect","inputs":[{"name":"proof","type":"tuple","internalType":"struct Escrow.ReceiptProof","components":[{"name":"blockHeader","type":"bytes","internalType":"bytes"},{"name":"receiptRlp","type":"bytes","internalType":"bytes"},{"name":"proofNodes","type":"bytes","internalType":"bytes"},{"name":"receiptPath","type":"bytes","internalType":"bytes"},{"name":"logIndex","type":"uint256","internalType":"uint256"}]},{"name":"targetBlockNumber","type":"uint256","internalType":"uint256"}],"outputs":[],"stateMutability":"nonpayable"},{"type":"function","name":"currentPaymentAmount","inputs":[],"outputs":[{"name":"","type":"uint256","internalType":"uint256"}],"stateMutability":"view"},{"type":"function","name":"currentRewardAmount","inputs":[],"outputs":[{"name":"","type":"uint256","internalType":"uint256"}],"stateMutability":"view"},{"type":"function","name":"executionDeadline","inputs":[],"outputs":[{"name":"","type":"uint256","internalType":"uint256"}],"stateMutability":"view"},{"type":"function","name":"expectedAmount","inputs":[],"outputs":[{"name":"","type":"uint256","internalType":"uint256"}],"stateMutability":"view"},{"type":"function","name":"expectedRecipient","inputs":[],"outputs":[{"name":"","type":"address","internalType":"address"}],"stateMutability":"view"},{"type":"function","name":"fund","inputs":[{"name":"_currentRewardAmount","type":"uint256","internalType":"uint256"},{"name":"_currentPaymentAmount","type":"uint256","internalType":"uint256"}],"outputs":[],"stateMutability":"nonpayable"},{"type":"function","name":"funded","inputs":[],"outputs":[{"name":"","type":"bool","internalType":"bool"}],"stateMutability":"view"},{"type":"function","name":"is_bonded","inputs":[],"outputs":[{"name":"","type":"bool","internalType":"bool"}],"stateMutability":"view"},{"type":"function","name":"maxBlockLookback","inputs":[],"outputs":[{"name":"","type":"uint256","internalType":"uint256"}],"stateMutability":"view"},{"type":"function","name":"originalRewardAmount","inputs":[],"outputs":[{"name":"","type":"uint256","internalType":"uint256"}],"stateMutability":"view"},{"type":"function","name":"requestCancellation","inputs":[],"outputs":[],"stateMutability":"nonpayable"},{"type":"function","name":"resume","inputs":[],"outputs":[],"stateMutability":"nonpayable"},{"type":"function","name":"totalBondsDeposited","inputs":[],"outputs":[{"name":"","type":"uint256","internalType":"uint256"}],"stateMutability":"view"},{"type":"function","name":"withdraw","inputs":[],"outputs":[],"stateMutability":"nonpayable"}],"bytecode":{"object":"0x610120346100e957601f612a3038819003918201601f19168301916001600160401b038311848410176100ed578084926060946040528339810103126100e95761004881610101565b90604061005760208301610101565b9101519160a05260c05260e05233608052610100805260405161291a9081610116823960805181818161015a01528181610272015281816103c401526105e2015260a051818181610310015281816105040152818161067701526108c5015260c051818181610416015261090a015260e0518181816101d701526108e801526101005181818161073501526107f50152f35b5f80fd5b634e487b7160e01b5f52604160045260245ffd5b51906001600160a01b03821682036100e95756fe60806040526004361015610011575f80fd5b5f3560e01c8063046f7da2146101445780631aa7c0ec1461013f5780632feef2ec1461013a578063308657d71461013557806333ee5f35146101305780633ccfd60b1461012b5780635a4fd6451461012657806380f323a71461012157806381972d001461011c5780638677ab23146101175780638bd03d0a146101125780639940686e1461010d578063a65e2cfd14610108578063cb766a5614610103578063d415b3f9146100fe578063d4899a62146100f9578063ede7f6a3146100f4578063f3a504f2146100ef5763fe03a460146100ea575f80fd5b610a12565b6109ed565b610758565b61071e565b610701565b6106dd565b6105b8565b610462565b610445565b610401565b6103ae565b610391565b610375565b610239565b61021c565b6101fa565b6101c0565b610198565b34610194575f36600319011261019457610188337f00000000000000000000000000000000000000000000000000000000000000006001600160a01b031614610a2f565b6007805460ff19169055005b5f80fd5b34610194575f366003190112610194576003546040516001600160a01b039091168152602090f35b34610194575f3660031901126101945760206040517f00000000000000000000000000000000000000000000000000000000000000008152f35b34610194575f36600319011261019457602060ff600754166040519015158152f35b34610194575f366003190112610194576020600454604051908152f35b34610194575f366003190112610194576102a1600161025e60075460ff9060081c1690565b61026781610a7b565b610299828060a01b037f0000000000000000000000000000000000000000000000000000000000000000163314610a2f565b151514610abd565b6102a9611029565b61030b60206102bd60015460025490610b73565b6102cd61ff001960075416600755565b6102d65f600155565b5f80556102e4811515610b80565b60405163a9059cbb60e01b8152336004820152602481019190915291829081906044820190565b03815f7f00000000000000000000000000000000000000000000000000000000000000006001600160a01b03165af180156103705761034657005b6103679060203d602011610369575b61035f8183610bd8565b810190610bff565b005b503d610355565b610c17565b34610194575f3660031901126101945760205f54604051908152f35b34610194575f366003190112610194576020600554604051908152f35b34610194575f366003190112610194576103f2337f00000000000000000000000000000000000000000000000000000000000000006001600160a01b031614610a2f565b6007805460ff19166001179055005b34610194575f366003190112610194576040517f00000000000000000000000000000000000000000000000000000000000000006001600160a01b03168152602090f35b34610194575f366003190112610194576020600154604051908152f35b34610194576020366003190112610194576004356104a76104a261049e6007546104986104938260ff9060081c1690565b610a7b565b60ff1690565b1590565b610c22565b5f546104be6104b68260011c90565b831015610c67565b60045480151590816105ae575b5061057c575b506040516323b872dd60e01b815233600482015230602482015260448101829052906020826064815f6001600160a01b037f0000000000000000000000000000000000000000000000000000000000000000165af1918215610370576103679261055f575b50600380546001600160a01b0319163317905561055a61055542610b43565b600455565b600555565b6105779060203d6020116103695761035f8183610bd8565b610536565b60055461058891610b73565b5f556105a061059b600554600654610b73565b600655565b6105a8611029565b5f6104d1565b905042115f6104cb565b346101945760403660031901126101945761063160243561062c6004356106096001600160a01b037f0000000000000000000000000000000000000000000000000000000000000000163314610a2f565b61062461061f61049e60075460ff9060081c1690565b610cc7565b805f55600255565b600155565b610672602061064560025460015490610b73565b6040516323b872dd60e01b8152336004820152306024820152604481019190915291829081906064820190565b03815f7f00000000000000000000000000000000000000000000000000000000000000006001600160a01b03165af18015610370576106c0575b61036761010061ff00196007541617600755565b6106d89060203d6020116103695761035f8183610bd8565b6106ac565b34610194575f3660031901126101945760206106f7610d13565b6040519015158152f35b34610194575f366003190112610194576020600254604051908152f35b34610194575f3660031901126101945760206040517f00000000000000000000000000000000000000000000000000000000000000008152f35b346101945760403660031901126101945760043567ffffffffffffffff811161019457806004019060a06003198236030112610194576109c19160209161093461092f60846108bd602435956107b761049360075460ff9060081c1690565b6003546001600160a01b03169661086490338914806109da575b6107da90610d2b565b6107e643821115610d76565b61081b6107f38243610ddf565b7f00000000000000000000000000000000000000000000000000000000000000001015610dec565b61084b814061082b811515610e2f565b61083f6108388680610e7b565b3691610eca565b8c815191012014610f00565b61085e6108588480610e7b565b9061118d565b14610f4c565b6108776108718280610e7b565b906112e8565b906108b86108b3602489019361088d8585610e7b565b9060648c6108ab6108a1604483018a610e7b565b9390920189610e7b565b9490936113a4565b610f98565b610e7b565b9190940135937f000000000000000000000000000000000000000000000000000000000000000080957f0000000000000000000000000000000000000000000000000000000000000000937f00000000000000000000000000000000000000000000000000000000000000009361144c565b610fe4565b61094e6109456005545f5490610b73565b60015490610b73565b600380546001600160a01b0319169055916109685f600555565b6109715f600455565b61098161ff001960075416600755565b61098a5f600155565b5f80805560405163a9059cbb60e01b81526001600160a01b0390921660048301526024820193909352938492839182906044820190565b03926001600160a01b03165af180156103705761034657005b506107da6109e6610d13565b90506107d1565b34610194575f36600319011261019457602060ff60075460081c166040519015158152f35b34610194575f366003190112610194576020600654604051908152f35b15610a3657565b60405162461bcd60e51b815260206004820152601d60248201527f4f6e6c792063616c6c61626c6520627920746865206465706c6f7965720000006044820152606490fd5b15610a8257565b60405162461bcd60e51b815260206004820152601360248201527210dbdb9d1c9858dd081b9bdd08199d5b991959606a1b6044820152606490fd5b15610ac457565b60405162461bcd60e51b815260206004820152603760248201527f54686520636f6e747261637420776173206e6f742066756e646564206f72206860448201527f6173206265656e20647261696e656420616c72656164790000000000000000006064820152608490fd5b634e487b7160e01b5f52601160045260245ffd5b9061012c8201809211610b5257565b610b2f565b9060018201809211610b5257565b6001019081600111610b5257565b91908201809211610b5257565b15610b8757565b60405162461bcd60e51b81526020600482015260156024820152744e6f20776974686472617761626c652066756e647360581b6044820152606490fd5b634e487b7160e01b5f52604160045260245ffd5b90601f8019910116810190811067ffffffffffffffff821117610bfa57604052565b610bc4565b90816020910312610194575180151581036101945790565b6040513d5f823e3d90fd5b15610c2957565b60405162461bcd60e51b815260206004820152601660248201527510d85b98d95b1b185d1a5bdb881c995c5d595cdd195960521b6044820152606490fd5b15610c6e57565b60405162461bcd60e51b815260206004820152602b60248201527f426f6e64206d757374206265206174206c656173742068616c66206f6620726560448201526a1dd85c9908185b5bdd5b9d60aa1b6064820152608490fd5b15610cce57565b60405162461bcd60e51b815260206004820152601760248201527f436f6e747261637420616c72656164792066756e6465640000000000000000006044820152606490fd5b6004548015159081610d23575090565b905042111590565b15610d3257565b606460405162461bcd60e51b815260206004820152602060248201527f4f6e6c7920626f6e646564206578656375746f722063616e20636f6c6c6563746044820152fd5b15610d7d57565b60405162461bcd60e51b815260206004820152601d60248201527f54617267657420626c6f636b20697320696e20746865206675747572650000006044820152606490fd5b600119810191908211610b5257565b5f19810191908211610b5257565b91908203918211610b5257565b15610df357565b60405162461bcd60e51b815260206004820152601460248201527315185c99d95d08189b1bd8dac81d1bdbc81bdb1960621b6044820152606490fd5b15610e3657565b60405162461bcd60e51b815260206004820152601d60248201527f556e61626c6520746f20726574726965766520626c6f636b20686173680000006044820152606490fd5b903590601e1981360301821215610194570180359067ffffffffffffffff82116101945760200191813603831361019457565b67ffffffffffffffff8111610bfa57601f01601f191660200190565b929192610ed682610eae565b91610ee46040519384610bd8565b829481845281830111610194578281602093845f960137010152565b15610f0757565b60405162461bcd60e51b815260206004820152601a60248201527f426c6f636b206865616465722068617368206d69736d617463680000000000006044820152606490fd5b15610f5357565b60405162461bcd60e51b815260206004820152601c60248201527f48656164657220626c6f636b206e756d626572206d69736d61746368000000006044820152606490fd5b15610f9f57565b60405162461bcd60e51b815260206004820152601960248201527f496e76616c69642072656365697074204d50542070726f6f66000000000000006044820152606490fd5b15610feb57565b60405162461bcd60e51b8152602060048201526016602482015275125b9d985b1a5908151c985b9cd9995c88195d995b9d60521b6044820152606490fd5b611031610d13565b611056576bffffffffffffffffffffffff60a01b600354166003555f6005555f600455565b60405162461bcd60e51b815260206004820152602160248201527f43616e6e6f74207265736574207768696c6520626f6e642069732061637469766044820152606560f81b6064820152608490fd5b634e487b7160e01b5f52603260045260245ffd5b90156110c25790565b6110a5565b908210156110c2570190565b156110da57565b60405162461bcd60e51b815260206004820152601060248201526f125b9d985b1a5908149314081b1a5cdd60821b6044820152606490fd5b60ff60f6199116019060ff8211610b5257565b60ff60bf199116019060ff8211610b5257565b60ff60b6199116019060ff8211610b5257565b60ff607f199116019060ff8211610b5257565b60ff166001019060ff8211610b5257565b8051156110c25760200190565b9081518110156110c2570160200190565b91905f6111c4600360fe1b6001600160f81b03196111bc6111ae86896110b9565b356001600160f81b03191690565b1610156110d3565b601f60fb1b6001600160f81b03196111df6111ae85886110b9565b1610611289578061121361049861120e6112096112036111ae61121997898c6110c7565b60f81c90565b611112565b61115e565b90610b73565b905b5f5b60088110611274575061123092936117da565b505f9190825b815184101561126f5760019060081b611266610498611203611258888761117c565b516001600160f81b03191690565b17930192611236565b925050565b916112826001918387611601565b920161121d565b5060019061121b565b1561129957565b60405162461bcd60e51b815260206004820152602160248201527f496e76616c6964207265636569707473526f6f7420524c5020656e636f64696e6044820152606760f81b6064820152608490fd5b9091905f61130a600360fe1b6001600160f81b03196111bc6111ae88876110b9565b601f60fb1b6001600160f81b03196113256111ae87866110b9565b161061139c578061121361049861120e6112096112036111ae611349978b8a6110c7565b5f5b60058110611387575061137d611382929394600560fd1b906113766111ae8560ff60f81b93896110c7565b1614611292565b610b57565b013590565b906113956001918685611601565b910161134b565b506001611349565b6113ba6113c2929394956113c898973691610eca565b923691610eca565b9061199a565b90565b156113d257565b60405162461bcd60e51b81526020600482015260136024820152720496e76616c6964207265636569707420524c5606c1b6044820152606490fd5b1561141457565b60405162461bcd60e51b815260206004820152601060248201526f0496e76616c6964206c6f677320524c560841b6044820152606490fd5b959493929190805f818981151580611599575b611590575b60ff61147c6112036111ae866114849660c0966110c7565b1610156113cb565b8860f860ff61149a6112036111ae8688876110c7565b161061157e5761049861120e6112096112036111ae866114bd98611213976110c7565b81905b885f5b60038110611565575060c06114e56104986112036111ae86886114ec976110c7565b101561140d565b8860f86115036104986112036111ae8688876110c7565b106115545761049861120e6112096112036111ae8661152598611213976110c7565b915b5f905b80821061153d5750506113c89596611bac565b909261154c600191848b611601565b93019061152a565b5061155f9150610b57565b91611527565b929160019261157392611601565b9101908883926114c3565b506115899150610b57565b81906114c0565b60019250611464565b50608060ff6115ae6112036111ae86866110b9565b161061145f565b156115bc57565b60405162461bcd60e51b815260206004820152601860248201527f524c50206f6666736574206f7574206f6620626f756e647300000000000000006044820152606490fd5b919061160e8183106115b5565b61161f6112036111ae8484876110c7565b9060ff8216608081101561163a575050506113c89150610b57565b91929160b88110156116625750506113c8925061049861165c61121392610b57565b9261114b565b90929060c08110156116dd575061049861167e91949394611138565b915f935f915b8483106116a4575050506113c8929161169f61169f92610b57565b610b73565b9091946116b360019160081b90565b6116d36104986112036111ae6116cc8b61169f8b610b57565b88886110c7565b1795019190611684565b90929060f8111561170357506113c892506104986116fd61121392610b57565b92611125565b929161049861171191611112565b915f935f915b848310611732575050506113c8929161169f61169f92610b57565b90919461174160019160081b90565b61175a6104986112036111ae6116cc8b61169f8b610b57565b1795019190611717565b604080519091906117758382610bd8565b6001815291601f1901366020840137565b604080519091906117978382610bd8565b6014815291601f1901366020840137565b906117b282610eae565b6117bf6040519182610bd8565b82815280926117d0601f1991610eae565b0190602036910137565b6117e58284106115b5565b6117f66112036111ae8585856110c7565b9260ff841660808110156118305750505050611810611764565b9060f81b6001600160f81b0319165f1a6118298261116f565b5390600190565b60b881969592939496105f1461189e575061049861184d9161114b565b91611857836117a8565b945f5b84811061186e57505050506113c890610b65565b8061188b6111ae61188460019461169f89610b57565b85876110c7565b5f1a611897828a61117c565b530161185a565b60c0111561193f576104986118b291611138565b905f925f5b83811061191057506118c8846117a8565b955f5b8581106118e357505050509061169f6113c892610b65565b806118fd6111ae61188460019461169f8a61169f8b610b57565b5f1a611909828b61117c565b53016118cb565b9360019060081b6119376104986112036111ae6119308a61169f8a610b57565b8c886110c7565b1794016118b7565b60405162461bcd60e51b815260206004820152601e60248201527f457870656374656420737472696e67206974656d2c20676f74206c69737400006044820152606490fd5b908160011b9180830460021490151715610b5257565b90925f5f5b82821080611acd575b15611a66576119cb6119c4836119bf36878a610eca565b611c61565b9093610b73565b968251602084012003611a6657600360fe1b6119f96119ec6112588561116f565b6001600160f81b03191690565b10611a66578590846001601f60fb1b6001600160f81b0319611a1d6112588861116f565b161015611aaa575b611a2f8186611deb565b60118103611a715750611a4194611f38565b949115611a66578415611a5a5793915b9195909361199f565b50505050505050600190565b505050505050505f90565b909350600214159050611a9e57848792611a8a94611e21565b949115611a66578415611a5a579391611a51565b50505050505050505f90565b50611ac8611ac36104986112096112036112588961116f565b610b65565b611a25565b50611ad88451611984565b81106119a8565b15611ae657565b60405162461bcd60e51b815260206004820152600f60248201526e0496e76616c6964206c6f6720524c5608c1b6044820152606490fd5b15611b2457565b60405162461bcd60e51b815260206004820152601e60248201527f496e76616c696420656d69747465722061646472657373206c656e67746800006044820152606490fd5b15611b7057565b60405162461bcd60e51b815260206004820152601460248201527315dc9bdb99c81d1bdad95b8818dbdb9d1c9858dd60621b6044820152606490fd5b9160146113c896959461169f84611c48948781611bdf60c060ff611bd76112036111ae868a896110c7565b161015611adf565b60f860ff611bf46112036111ae8589886110c7565b1610611c4e575061049861120e6112096112036111ae86611c1898611213976110c7565b915b611c2583878961204d565b9490611c3382825114611b1d565b01516001600160a01b03908116911614611b69565b91612257565b915050611c5b9150610b57565b91611c1a565b611c6d815183106115b5565b611c7d611203611258848461117c565b9160ff83166080811015611c9657505050611810611764565b919392909160b8811015611d005750610498611cb19161114b565b90611cbb826117a8565b935f5b838110611cd1575050506113c890610b65565b80611ced611258611ce760019461169f88610b57565b8561117c565b5f1a611cf9828961117c565b5301611cbe565b60c01115611d9e57610498611d1491611138565b5f915f5b828110611d705750611d29836117a8565b945f5b848110611d43575050509061169f6113c892610b65565b80611d5d611258611ce760019461169f8961169f8a610b57565b5f1a611d69828a61117c565b5301611d2c565b9260019060081b611d96610498611203611258611d908961169f89610b57565b8b61117c565b179301611d18565b5091611daa83826123a2565b92611db4846117a8565b915f5b858110611dc5575050509190565b80611dd8611258611ce760019487610b73565b5f1a611de4828761117c565b5301611db7565b5f915b8151811015611e1c57611e0181836123a2565b8101809111610b5257915f198114610b525760010191611dee565b505090565b939193611e2e8282611c61565b929095611e4e6020611e456112036112588b61116f565b161515976124d2565b80975f14611ed957611e61905187610b73565b611e6b8251611984565b14611e80575b505050505050505f905f905f90565b8686611e8b92612638565b611e96575b80611e71565b611ea992611ea391610b73565b90611c61565b5060208151910120906020815191012014611ec75780808080611e90565b611ed2915190610b73565b6001915f90565b86611eea9397965061049e92612638565b611f2b57611ea3611efe92611f1995610b73565b5080519060208203611f2157602091500151925b5190610b73565b916001929190565b6020012092611f12565b50505050505f905f905f90565b91909293611f468251611984565b851015611ff05750611203611258611f6892611f628760011c90565b9061117c565b60018416611fe75760041c600f16915b905f925b60ff81168410611fc75750611f919250611c61565b5080518015611fbc57611f199160208203611fb25760209150015191610b57565b6020012091610b57565b5050505f905f905f90565b90916001611fdb8261121360ff94876123a2565b94019392919050611f7c565b600f1691611f78565b9290509392935f915b601083106120335761200b9250611c61565b50602081519101209060208151910120145f1461202a57600191905f90565b5f915081908190565b9061204481611213600193856123a2565b92019190611ff9565b91909161205b8383106115b5565b609460ff6120706112036111ae8688876110c7565b16036120bc5761207e611786565b925f5b60148110612093575050505090601590565b806120a96111ae61188460019461169f89610b57565b5f1a6120b5828861117c565b5301612081565b60405162461bcd60e51b815260206004820152601c60248201527f496e76616c6964206164647265737320524c5020656e636f64696e67000000006044820152606490fd5b1561210857565b60405162461bcd60e51b81526020600482015260126024820152710496e76616c696420746f7069637320524c560741b6044820152606490fd5b1561214957565b60405162461bcd60e51b815260206004820152601560248201527457726f6e67206576656e74207369676e617475726560581b6044820152606490fd5b1561218d57565b60405162461bcd60e51b81526020600482015260136024820152720a8de40c2c8c8e4cae6e640dad2e6dac2e8c6d606b1b6044820152606490fd5b156121cf57565b60405162461bcd60e51b8152602060048201526014602482015273416d6f756e74206461746120746f6f206c6f6e6760601b6044820152606490fd5b1561221257565b60405162461bcd60e51b815260206004820152601860248201527f5472616e7366657220616d6f756e74206d69736d6174636800000000000000006044820152606490fd5b91806123396123469561232661231a61231a61231361230c896123057fddf252ad1be2c89b69c2b068fc378daa952ba7f163c4a11628f55a4df523b3ef6122ff8e8060f86123409f6122d36112036111ae836122cc60c060ff6122c48f6111ae839a61120392819e6110c7565b161015612101565b8b886110c7565b1610612398578061121361049861120e6112096112036111ae6122f7978d8a6110c7565b9485916126f6565b14612142565b8a8c611601565b898b611601565b888a6126f6565b6001600160a01b031690565b6001600160a01b03908116911614612186565b8284611601565b91612768565b506123556020825111156121c8565b5f92835b82518510156123845760019060081b61237b610498611203611258898861117c565b17940193612359565b9093506123939291501461220b565b600190565b506122f78d610b57565b906123af825182106115b5565b6123bf611203611258838561117c565b9160ff831660808110156123d65750505050600190565b60b88110156123f15750505061049861120e6113c89261114b565b60c081101561245d57509161049861240891611138565b905f925f915b838310612425575050509061169f6113c892610b65565b90919361243460019160081b90565b61245361049861120361125861244d8a61169f89610b57565b8861117c565b179401919061240e565b60f8111561247657505061049861120e6113c892611125565b9161049861248391611112565b905f925f915b8383106124a0575050509061169f6113c892610b65565b9091936124af60019160081b90565b6124c861049861120361125861244d8a61169f89610b57565b1794019190612489565b90815115612636576124e96112036112588461116f565b60108116156125b85761250c6125076125028551611984565b610dd1565b6117a8565b9060f81b600f60f81b165f1a6125218261116f565b5360015b83518110156125b357806125606125506125476112036112586001968a61117c565b60041c600f1690565b60f81b6001600160f81b03191690565b61257961256f61250284611984565b915f1a918561117c565b536125a0600f61258f611203611258858a61117c565b1660f81b6001600160f81b03191690565b6125ac61256f83611984565b5301612525565b509150565b506125ce6125076125c98451611984565b610dc2565b60015b83518110156125b357806125f36125506125476112036112586001968a61117c565b61260761256f61260284610dd1565b611984565b5361261d600f61258f611203611258858a61117c565b61262f61256f61137d61260285610dd1565b53016125d1565b565b919091612646825184610b73565b6126508251611984565b106126ef575f5b82518110156126e65761267361266d8286610b73565b60011690565b6126c85761269c612547611203611258612696612690868a610b73565b60011c90565b8661117c565b60ff6126b1610498611203611258868961117c565b9116036126c057600101612657565b505050505f90565b600f6126e0611203611258612696612690868a610b73565b1661269c565b50505050600190565b5050505f90565b9190600560fd1b906001600160f81b031990612714908490866110c7565b35160361272357016001013590565b60405162461bcd60e51b815260206004820152601760248201527f45787065637465642033322d6279746520737472696e670000000000000000006044820152606490fd5b6127738284106115b5565b6127846112036111ae8585856110c7565b9260ff8416608081101561279e5750505050611810611764565b60b881969592939496105f1461280557506104986127bb9161114b565b916127c5836117a8565b945f5b8481106127dc57505050506113c890610b65565b806127f26111ae61188460019461169f89610b57565b5f1a6127fe828a61117c565b53016127c8565b60c0111561289f5761049861281991611138565b905f925f5b838110612877575061282f846117a8565b955f5b85811061284a57505050509061169f6113c892610b65565b806128646111ae61188460019461169f8a61169f8b610b57565b5f1a612870828b61117c565b5301612832565b9360019060081b6128976104986112036111ae6119308a61169f8a610b57565b17940161281e565b60405162461bcd60e51b815260206004820152601e60248201527f457870656374656420737472696e6720646174612c20676f74206c69737400006044820152606490fdfea2646970667358221220b0d05ab45459119077937474da08c8bccd6c2c9cc37813e38e98be4bef7fcb9f64736f6c634300081c0033","linkReferences":{}},"methodIdentifiers":{"bond(uint256)":"9940686e","bondAmount()":"80f323a7","bondedExecutor()":"1aa7c0ec","cancellationRequest()":"308657d7","collect((bytes,bytes,bytes,bytes,uint256),uint256)":"ede7f6a3","currentPaymentAmount()":"8bd03d0a","currentRewardAmount()":"5a4fd645","executionDeadline()":"33ee5f35","expectedAmount()":"2feef2ec","expectedRecipient()":"8677ab23","fund(uint256,uint256)":"a65e2cfd","funded()":"f3a504f2","is_bonded()":"cb766a56","maxBlockLookback()":"d4899a62","originalRewardAmount()":"d415b3f9","requestCancellation()":"81972d00","resume()":"046f7da2","totalBondsDeposited()":"fe03a460","withdraw()":"3ccfd60b"},"id":22}