{"abi":[{"type":"constructor","inputs":[{"name":"_tokenContract","type":"address","internalType":"address"},{"name":"_expectedRecipient","type":"address","internalType":"address"},{"name":"_expectedAmount","type":"uint256","internalType":"uint256"},{"name":"_currentRewardAmount","type":"uint256","internalType":"uint256"}],"stateMutability":"nonpayable"},{"type":"function","name":"MAX_BLOCK_LOOKBACK","inputs":[],"outputs":[{"name":"","type":"uint256","internalType":"uint256"}],"stateMutability":"view"},{"type":"function","name":"bond","inputs":[{"name":"_bondAmount","type":"uint256","internalType":"uint256"}],"outputs":[],"stateMutability":"nonpayable"},{"type":"function","name":"bondAmount","inputs":[],"outputs":[{"name":"","type":"uint256","internalType":"uint256"}],"stateMutability":"view"},{"type":"function","name":"bondedExecutor","inputs":[],"outputs":[{"name":"","type":"address","internalType":"address"}],"stateMutability":"view"},{"type":"function","name":"cancelAndWithdraw","inputs":[],"outputs":[],"stateMutability":"nonpayable"},{"type":"function","name":"cancellationRequest","inputs":[],"outputs":[{"name":"","type":"bool","internalType":"bool"}],"stateMutability":"view"},{"type":"function","name":"collect","inputs":[{"name":"proof","type":"tuple","internalType":"struct EscrowERC20Delayed.ReceiptProof","components":[{"name":"blockHeader","type":"bytes","internalType":"bytes"},{"name":"receiptRlp","type":"bytes","internalType":"bytes"},{"name":"proofNodes","type":"bytes","internalType":"bytes"},{"name":"receiptPath","type":"bytes","internalType":"bytes"},{"name":"logIndex","type":"uint256","internalType":"uint256"}]},{"name":"targetBlockNumber","type":"uint256","internalType":"uint256"}],"outputs":[],"stateMutability":"nonpayable"},{"type":"function","name":"currentRewardAmount","inputs":[],"outputs":[{"name":"","type":"uint256","internalType":"uint256"}],"stateMutability":"view"},{"type":"function","name":"executionDeadline","inputs":[],"outputs":[{"name":"","type":"uint256","internalType":"uint256"}],"stateMutability":"view"},{"type":"function","name":"expectedAmount","inputs":[],"outputs":[{"name":"","type":"uint256","internalType":"uint256"}],"stateMutability":"view"},{"type":"function","name":"expectedRecipient","inputs":[],"outputs":[{"name":"","type":"address","internalType":"address"}],"stateMutability":"view"},{"type":"function","name":"funded","inputs":[],"outputs":[{"name":"","type":"uint8","internalType":"uint8"}],"stateMutability":"view"},{"type":"function","name":"is_bonded","inputs":[],"outputs":[{"name":"","type":"bool","internalType":"bool"}],"stateMutability":"view"},{"type":"function","name":"originalRewardAmount","inputs":[],"outputs":[{"name":"","type":"uint256","internalType":"uint256"}],"stateMutability":"view"},{"type":"function","name":"reinit","inputs":[{"name":"_expectedRecipient","type":"address","internalType":"address"},{"name":"_expectedAmount","type":"uint256","internalType":"uint256"},{"name":"_currentRewardAmount","type":"uint256","internalType":"uint256"}],"outputs":[],"stateMutability":"nonpayable"},{"type":"function","name":"requestCancellation","inputs":[],"outputs":[],"stateMutability":"nonpayable"},{"type":"function","name":"resume","inputs":[],"outputs":[],"stateMutability":"nonpayable"},{"type":"function","name":"tokenContract","inputs":[],"outputs":[{"name":"","type":"address","internalType":"address"}],"stateMutability":"view"},{"type":"function","name":"totalBondsDeposited","inputs":[],"outputs":[{"name":"","type":"uint256","internalType":"uint256"}],"stateMutability":"view"},{"type":"error","name":"AlreadyArmed","inputs":[]},{"type":"error","name":"AmountMismatch","inputs":[]},{"type":"error","name":"BlockHashUnavailable","inputs":[]},{"type":"error","name":"BlockHeaderMismatch","inputs":[]},{"type":"error","name":"BlockNumberMismatch","inputs":[]},{"type":"error","name":"BondActive","inputs":[]},{"type":"error","name":"CancellationRequested","inputs":[]},{"type":"error","name":"ExecutorAlreadyBonded","inputs":[]},{"type":"error","name":"ExpectedBytes32","inputs":[]},{"type":"error","name":"ExpectedRLPList","inputs":[]},{"type":"error","name":"InsufficientBond","inputs":[]},{"type":"error","name":"InvalidAddress","inputs":[]},{"type":"error","name":"InvalidRLP","inputs":[]},{"type":"error","name":"InvalidRLPEncoding","inputs":[]},{"type":"error","name":"InvalidRLPList","inputs":[]},{"type":"error","name":"InvalidReceiptProof","inputs":[]},{"type":"error","name":"InvalidTransferEvent","inputs":[]},{"type":"error","name":"NoWithdrawableFunds","inputs":[]},{"type":"error","name":"NotFunded","inputs":[]},{"type":"error","name":"OnlyBondedExecutor","inputs":[]},{"type":"error","name":"OnlyDeployer","inputs":[]},{"type":"error","name":"RLPOffsetOutOfBounds","inputs":[]},{"type":"error","name":"TargetBlockInFuture","inputs":[]},{"type":"error","name":"TargetBlockTooOld","inputs":[]},{"type":"error","name":"ToAddressMismatch","inputs":[]},{"type":"error","name":"TokenTransferFailed","inputs":[]},{"type":"error","name":"WrongEventSignature","inputs":[]},{"type":"error","name":"WrongTokenContract","inputs":[]},{"type":"error","name":"ZeroAddress","inputs":[]},{"type":"error","name":"ZeroAmount","inputs":[]},{"type":"error","name":"ZeroRewardAmount","inputs":[]}],"bytecode":{"object":"0x60c03461014057601f61232838819003918201601f19168301916001600160401b03831184841017610144578084926080946040528339810103126101405761004781610158565b9061005460208201610158565b604082015160609092015192906001600160a01b03821615610131576001600160a01b0316908115610131578215610122578315610113573360805260a05260018060a01b03195f5416175f556001558060025560035561010061ff001960085416176008556040516121bb908161016d823960805181818161015601528181610272015281816103f8015261060c015260a05181818161039a01528181610499015281816108ad01528181610ca301528181610db20152610e960152f35b63ea1083a760e01b5f5260045ffd5b631f2a200560e01b5f5260045ffd5b63d92e233d60e01b5f5260045ffd5b5f80fd5b634e487b7160e01b5f52604160045260245ffd5b51906001600160a01b03821682036101405756fe60806040526004361015610011575f80fd5b5f3560e01c8063046f7da2146101445780631aa7c0ec1461013f5780632feef2ec1461013a578063308657d71461013557806333ee5f35146101305780633d2691bc1461012b57806352a2ecfb1461012657806355a373d6146101215780635a4fd6451461011c5780636b892b221461011757806380f323a71461011257806381972d001461010d5780638677ab23146101085780639940686e14610103578063cb766a56146100fe578063d415b3f9146100f9578063ede7f6a3146100f4578063f3a504f2146100ef5763fe03a460146100ea575f80fd5b610aac565b610a87565b61077d565b610760565b61073c565b610670565b610649565b6105fa565b6105dd565b6103e6565b6103c9565b610385565b610243565b610227565b61020a565b6101e8565b6101cb565b6101a3565b3461019f575f36600319011261019f577f00000000000000000000000000000000000000000000000000000000000000006001600160a01b03163303610190576008805460ff19169055005b63618bbdd560e01b5f5260045ffd5b5f80fd5b3461019f575f36600319011261019f576004546040516001600160a01b039091168152602090f35b3461019f575f36600319011261019f576020600154604051908152f35b3461019f575f36600319011261019f57602060ff600854166040519015158152f35b3461019f575f36600319011261019f576020600554604051908152f35b3461019f575f36600319011261019f5760206040516101008152f35b3461019f57606036600319011261019f576004356001600160a01b03811680820361019f5760243591604435917f00000000000000000000000000000000000000000000000000000000000000006001600160a01b0316330361019057600260ff6102b460085460ff9060081c1690565b1614610376576102c2610b95565b610367571561035857821561034957811561033a57610315926103026103079260018060a01b03166bffffffffffffffffffffffff60a01b5f5416175f55565b600155565b61031081600255565b600355565b61032460ff1960085416600855565b61033861010061ff00196008541617600855565b005b63ea1083a760e01b5f5260045ffd5b631f2a200560e01b5f5260045ffd5b63d92e233d60e01b5f5260045ffd5b639cbc1de160e01b5f5260045ffd5b631315071960e31b5f5260045ffd5b3461019f575f36600319011261019f576040517f00000000000000000000000000000000000000000000000000000000000000006001600160a01b03168152602090f35b3461019f575f36600319011261019f576020600254604051908152f35b3461019f575f36600319011261019f577f00000000000000000000000000000000000000000000000000000000000000006001600160a01b031633036101905760088054901c60ff16156105ce5761043c610d01565b610444610b95565b6103675761045a600160ff196008541617600855565b600480546001600160a01b03191690556104735f600655565b61047c5f600555565b6040516370a0823160e01b81523060048201526001600160a01b037f000000000000000000000000000000000000000000000000000000000000000016602082602481845afa918215610589575f9261059d575b50811561058e576105316020915f936104ef61ff001960085416600855565b6104f85f600255565b61050760ff1960085416600855565b60405163a9059cbb60e01b8152336004820152602481019190915293849283919082906044820190565b03925af1908115610589575f9161055a575b501561054b57005b63022e258160e11b5f5260045ffd5b61057c915060203d602011610582575b6105748183610add565b810190610b1e565b5f610543565b503d61056a565b610b13565b6353cd7f7960e01b5f5260045ffd5b6105c091925060203d6020116105c7575b6105b88183610add565b810190610b04565b905f6104d0565b503d6105ae565b636af784dd60e11b5f5260045ffd5b3461019f575f36600319011261019f576020600654604051908152f35b3461019f575f36600319011261019f577f00000000000000000000000000000000000000000000000000000000000000006001600160a01b03163303610190576008805460ff19166001179055005b3461019f575f36600319011261019f575f546040516001600160a01b039091168152602090f35b3461019f57602036600319011261019f5760043561068c610d01565b610694610d63565b600854600260ff6106a98360ff9060081c1690565b16036105ce5760ff1661072d576106be610b95565b61071e5760025460011c811061070f576106df6106db8233610e4d565b1590565b61054b57600480546001600160a01b031916331790556103389061070a61070542610b4a565b600555565b600655565b63e92c469f60e01b5f5260045ffd5b63129f78e960e11b5f5260045ffd5b632479328960e01b5f5260045ffd5b3461019f575f36600319011261019f576020610756610b95565b6040519015158152f35b3461019f575f36600319011261019f576020600354604051908152f35b3461019f57604036600319011261019f5760043567ffffffffffffffff811161019f57806004019060a0600319823603011261019f5760243591600260ff6107cb60085460ff9060081c1690565b16036105ce576004546001600160a01b031692338414801590610a76575b610a6757438111610a58576101006108018243610bca565b11610a495780408015610a3a5761082261081b8480610bd7565b3691610c26565b6020815191012003610a2b5761084161083b8380610bd7565b90610f68565b03610a1c576108596108538280610bd7565b90611039565b906108936106db602485019361086f8585610bd7565b9061087d6044890187610bd7565b9061088b60648b0189610bd7565b9490936110a9565b610a0d576106db6108a96084936108eb93610bd7565b5f547f0000000000000000000000000000000000000000000000000000000000000000969195909101359086906001600160a01b0316916001549687946110de565b6109fe576109079061090260065460025490610b88565b610b88565b600480546001600160a01b0319169055916109215f600655565b61092a5f600555565b61093a61ff001960085416600855565b6109435f600255565b4662aa36a70361099757604051633419e74d60e21b81526001600160a01b0391821660048201526024810193909352602091839160449183915f91165af1908115610589575f9161055a57505b1561054b57005b60405163a9059cbb60e01b81526001600160a01b0391821660048201526024810193909352602091839160449183915f91165af1908115610589575f916109df575b50610990565b6109f8915060203d602011610582576105748183610add565b5f6109d9565b6364fa89e160e11b5f5260045ffd5b637b374dd160e01b5f5260045ffd5b63048a12f560e11b5f5260045ffd5b63ff28378760e01b5f5260045ffd5b63bfc9f0d360e01b5f5260045ffd5b63c42a018560e01b5f5260045ffd5b63058968cf60e41b5f5260045ffd5b6337b5f20360e21b5f5260045ffd5b50610a826106db610b95565b6107e9565b3461019f575f36600319011261019f576020610aa1610c5c565b60ff60405191168152f35b3461019f575f36600319011261019f576020600754604051908152f35b634e487b7160e01b5f52604160045260245ffd5b90601f8019910116810190811067ffffffffffffffff821117610aff57604052565b610ac9565b9081602091031261019f575190565b6040513d5f823e3d90fd5b9081602091031261019f5751801515810361019f5790565b634e487b7160e01b5f52601160045260245ffd5b9061012c8201809211610b5957565b610b36565b9060018201809211610b5957565b6001019081600111610b5957565b9060158201809211610b5957565b91908201809211610b5957565b6005548015159081610ba5575090565b905042111590565b600119810191908211610b5957565b5f19810191908211610b5957565b91908203918211610b5957565b903590601e198136030182121561019f570180359067ffffffffffffffff821161019f5760200191813603831361019f57565b67ffffffffffffffff8111610aff57601f01601f191660200190565b929192610c3282610c0a565b91610c406040519384610add565b82948184528183011161019f578281602093845f960137010152565b6008805460ff911c1660018114610c705790565b50610c8060025460015490610b88565b6040516370a0823160e01b81523060048201526020816024816001600160a01b037f0000000000000000000000000000000000000000000000000000000000000000165afa908115610589575f91610ce2575b5010610cde57600290565b5f90565b610cfb915060203d6020116105c7576105b88183610add565b5f610cd3565b6005548015159081610d59575b50610d1557565b600654600254818101809111610b5957600255600754908101809111610b59576007556bffffffffffffffffffffffff60a01b600454166004555f6006555f600555565b905042115f610d0e565b600160ff610d7760085460ff9060081c1690565b1614610d80575b565b610d8f60025460015490610b88565b6040516370a0823160e01b81523060048201526020816024816001600160a01b037f0000000000000000000000000000000000000000000000000000000000000000165afa908115610589575f91610dff575b501015610deb57565b610d7e61020061ff00196008541617600855565b610e18915060203d6020116105c7576105b88183610add565b5f610de2565b3d15610e48573d90610e2f82610c0a565b91610e3d6040519384610add565b82523d5f602084013e565b606090565b6040516323b872dd60e01b602082019081526001600160a01b0390921660248201523060448201526064808201939093529182525f91829190610e91608482610add565b5190827f00000000000000000000000000000000000000000000000000000000000000005af1610ebf610e1e565b9015610ee9578051908115610ee257602080610edf938301019101610b1e565b90565b5050600190565b505f90565b634e487b7160e01b5f52603260045260245ffd5b9015610f0b5790565b610eee565b90821015610f0b570190565b60ff607f199116019060ff8211610b5957565b60ff60f6199116019060ff8211610b5957565b60ff60bf199116019060ff8211610b5957565b60ff60b6199116019060ff8211610b5957565b610f72828261125e565b915f5b600881106110245750610fa3610f9d610f8f858486610f10565b356001600160f81b03191690565b60f81c90565b925f9260ff851694608086105f14610fbd57505050505090565b610fd49193949550610fce90610f1c565b60ff1690565b915f935b838510610fe757505050505090565b9091929394610ff860019160081b90565b611018610fce610f9d610f8f6110118b6109028b610b5e565b8789610f10565b17950193929190610fd8565b926110326001918385611392565b9301610f75565b90611044818361125e565b905f5b600581106110945750600560fd1b906001600160f81b03199061106c90849086610f10565b35160361108557600181018111610b5957016001013590565b633954003560e11b5f5260045ffd5b916110a26001918386611392565b9201611047565b6110bf6110c792939495610edf98973691610c26565b923691610c26565b9061151a565b60ff166001019060ff8211610b5957565b9594939291905f818881151580611242575b611234575b61110a610f9d610f8f8560c09560ff95610f10565b16106111fe57808860f860ff611128610f9d610f8f88978887610f10565b161061122457610fce61115061114b610f9d610f8f8661115b9861115597610f10565b610f2f565b6110cd565b90610b88565b81885f5b6003811061120d5750610fce610f9d610f8f8560c09561117e95610f10565b106111fe57808860f861119c610fce610f9d610f8f88978887610f10565b106111ed57610fce61115061114b610f9d610f8f866111be9861115597610f10565b915b5f905b8082106111d6575050610edf95966116c7565b90926111e5600191848b611392565b9301906111c3565b506111f89150610b5e565b916111c0565b631bd5dcf760e31b5f5260045ffd5b9260019261121a92611392565b910188839161115f565b5061122f9150610b5e565b61115b565b5060019150829050886110f5565b50608060ff611257610f9d610f8f8686610f02565b16106110f0565b5f600360fe1b6001600160f81b031961127a610f8f8686610f02565b161061135a57601f60fb1b6001600160f81b031961129b610f8f8686610f02565b16106113895780611155610fce61115061114b610f9d610f8f6112bf978a8a610f10565b905b61a5bd4614801561137e575b6112d8575b50905090565b5f5b600381106113695750600360fe1b6113066112f9610f8f858786610f10565b6001600160f81b03191690565b1061135a57601f60fb1b6113216112f9610f8f858786610f10565b1061134a57610fce61115061114b610f9d610f8f866113439861115597610f10565b805f6112d2565b506113559150610b5e565b611343565b63c0098bd960e01b5f5260045ffd5b916113776001918584611392565b92016112da565b5061a5bf46146112cd565b506001906112c1565b9190808210156114ed576113ad610f9d610f8f848487610f10565b9060ff821660808110156113c857505050610edf9150610b5e565b91929160b88110156113f0575050610edf9250610fce6113ea61115592610b5e565b92610f1c565b90929060c08110156114665750610fce61140c91949394610f55565b915f935f915b84831061142d57505050610edf929161090261090292610b5e565b90919461143c60019160081b90565b61145c610fce610f9d610f8f6114558b6109028b610b5e565b8888610f10565b1795019190611412565b90929060f8111561148c5750610edf9250610fce61148661115592610b5e565b92610f42565b9291610fce61149a91610f2f565b915f935f915b8483106114bb57505050610edf929161090261090292610b5e565b9091946114ca60019160081b90565b6114e3610fce610f9d610f8f6114558b6109028b610b5e565b17950191906114a0565b6318d76ae160e11b5f5260045ffd5b805115610f0b5760200190565b908151811015610f0b570160200190565b919390929190600360fe1b6001600160f81b031961153b610f8f8689610f02565b16106116b857601f60fb1b6001600160f81b031961155c610f8f8689610f02565b16106116ae5761158061157b610fce61114b610f9d610f8f888b610f02565b610b6c565b9492905b945f5b82821061159957505050505050505f90565b6115b76115b0836115ab36878a610c26565b6117eb565b9093610b88565b96825160208401200361164c57600360fe1b6115e66112f96115d8856114fc565b516001600160f81b03191690565b1061164c578590846001601f60fb1b6116046112f96115d8886114fc565b1015611690575b6116158186611992565b60118103611657575061162794611b1d565b94911561164c5784156116405793915b91959093611587565b50505050505050600190565b505050505050505f90565b90935060021415905061168457848792611670946119d7565b94911561164c578415611640579391611637565b50505050505050505f90565b506116a961157b610fce61114b610f9d6115d8896114fc565b61160b565b6001949290611584565b63ebb47d1d60e01b5f5260045ffd5b91949392948060c060ff6116e2610f9d610f8f85888a610f10565b16106111fe5760f860ff6116fd610f9d610f8f85888a610f10565b1610611787575080611155610fce61115061114b610f9d610f8f61172297898b610f10565b945b609460ff611739610f9d610f8f8a8789610f10565b1603611778576001600160a01b03168286016001013560601c0361176957611763610edf95610b7a565b91611c32565b63a087f96f60e01b5f5260045ffd5b63e6c4247b60e01b5f5260045ffd5b6117919150610b5e565b94611724565b604080519091906117a88382610add565b6001815291601f1901366020840137565b906117c382610c0a565b6117d06040519182610add565b82815280926117e1601f1991610c0a565b0190602036910137565b80518210156114ed57611804610f9d6115d88484611509565b9160ff8316608081101561183d5750505061181d611797565b9060f81b6001600160f81b0319165f1a611836826114fc565b5390600190565b919392909160b88110156118a75750610fce61185891610f1c565b90611862826117b9565b935f5b83811061187857505050610edf90610b6c565b806118946115d861188e60019461090288610b5e565b85611509565b5f1a6118a08289611509565b5301611865565b60c0111561194557610fce6118bb91610f55565b5f915f5b82811061191757506118d0836117b9565b945f5b8481106118ea5750505090610902610edf92610b6c565b806119046115d861188e600194610902896109028a610b5e565b5f1a611910828a611509565b53016118d3565b9260019060081b61193d610fce610f9d6115d86119378961090289610b5e565b8b611509565b1793016118bf565b50916119518382611df5565b9261195b846117b9565b915f5b85811061196c575050509190565b8061197f6115d861188e60019487610b88565b5f1a61198b8287611509565b530161195e565b5f92915b81518110156119bd576119a98183611df5565b8101809111610b5957600190930192611996565b5050565b908160011b9180830460021490151715610b5957565b839492916119e581836117eb565b9390611a0460206119fb610f9d6115d8856114fc565b16151591611f22565b97889115611aa65750611a18905187610b88565b611a2282516119c1565b14611a37575b505050505050505f905f905f90565b86866001928251611a94575b505050611a51575b80611a28565b611a6492611a5e91610b88565b906117eb565b5060208151910120906020815191012014611a825780808080611a4b565b611a8d915190610b88565b6001915f90565b611a9e935061208b565b86865f611a43565b611ab793949596506106db9261208b565b611b1057611ac892611a5e91610b88565b50908151602081145f14611af057506020611ae8920151925b5190610b88565b916001929190565b8015611b04576020611ae893012092611ae1565b505050505f905f905f90565b50505050505f905f905f90565b91909293611b2b82516119c1565b851015611bd55750610f9d6115d8611b4d92611b478760011c90565b90611509565b60018416611bcc5760041c600f16915b905f925b60ff81168410611bac5750611b7692506117eb565b5080518015611ba157611ae89160208203611b975760209150015191610b5e565b6020012091610b5e565b5050505f905f905f90565b90916001611bc08261115560ff9487611df5565b94019392919050611b61565b600f1691611b5d565b9290509392935f915b60108310611c1857611bf092506117eb565b50602081519101209060208151910120145f14611c0f57600191905f90565b5f915081908190565b90611c298161115560019385611df5565b92019190611bde565b929190918160c060ff611c4c610f9d610f8f87898b610f10565b16106111fe5760f860ff611c67610f9d610f8f87898b610f10565b1610611de65780611155610fce61115061114b610f9d610f8f611c8b978b8d610f10565b7fddf252ad1be2c89b69c2b068fc378daa952ba7f163c4a11628f55a4df523b3ef611cb7828688612149565b03611dd757611ce1611ce1611cda611cd3611ced94888a611392565b8789611392565b8688612149565b6001600160a01b031690565b6001600160a01b03918216911603611dc857611d0a908284611392565b905f91611d1e610f9d610f8f838588610f10565b60ff811694906080861015611d4c5750505050505b03611d3d57600190565b6355e97b0d60e01b5f5260045ffd5b9091929394608081145f14611d67575050505050505f611d33565b60a0106111fe57610fce611d7d91939293610f1c565b915f935b838510611d92575050505050611d33565b9091929394611da360019160081b90565b611dbc610fce610f9d610f8f6110118b6109028b610b5e565b17950193929190611d81565b634cd4b7b160e01b5f5260045ffd5b6324da545d60e11b5f5260045ffd5b50611df082610b5e565b611c8b565b9081518110156114ed57611e0f610f9d6115d88385611509565b9160ff83166080811015611e265750505050600190565b60b8811015611e4157505050610fce611150610edf92610f1c565b60c0811015611ead575091610fce611e5891610f55565b905f925f915b838310611e755750505090610902610edf92610b6c565b909193611e8460019160081b90565b611ea3610fce610f9d6115d8611e9d8a61090289610b5e565b88611509565b1794019190611e5e565b60f81115611ec6575050610fce611150610edf92610f42565b91610fce611ed391610f2f565b905f925f915b838310611ef05750505090610902610edf92610b6c565b909193611eff60019160081b90565b611f18610fce610f9d6115d8611e9d8a61090289610b5e565b1794019190611ed9565b90815115610d7e57611f39610f9d6115d8846114fc565b601081161561200857611f5c611f57611f5285516119c1565b610bbc565b6117b9565b9060f81b600f60f81b165f1a611f71826114fc565b5360015b83518110156120035780611fb0611fa0611f97610f9d6115d86001968a611509565b60041c600f1690565b60f81b6001600160f81b03191690565b611fc9611fbf611f52846119c1565b915f1a9185611509565b53611ff0600f611fdf610f9d6115d8858a611509565b1660f81b6001600160f81b03191690565b611ffc611fbf836119c1565b5301611f75565b509150565b5061201e611f5761201984516119c1565b610bad565b60015b83518110156120035780612043611fa0611f97610f9d6115d86001968a611509565b612057611fbf61205284610bbc565b6119c1565b5361206d600f611fdf610f9d6115d8858a611509565b612084611fbf61207f61205285610bbc565b610b5e565b5301612021565b919091612099825184610b88565b6120a382516119c1565b10612142575f5b8251811015612139576120c66120c08286610b88565b60011690565b61211b576120ef611f97610f9d6115d86120e96120e3868a610b88565b60011c90565b86611509565b60ff612104610fce610f9d6115d88689611509565b911603612113576001016120aa565b505050505f90565b600f612133610f9d6115d86120e96120e3868a610b88565b166120ef565b50505050600190565b5050505f90565b9190600560fd1b906001600160f81b03199061216790849086610f10565b35160361217657016001013590565b63f0ff325b60e01b5f5260045ffdfea264697066735822122038aeda9c2e4afcd0ea2f38ba623d4a76597f1e3cedc5644effcbe2db56dc0baf64736f6c634300081e0033","linkReferences":{}},"methodIdentifiers":{"MAX_BLOCK_LOOKBACK()":"3d2691bc","bond(uint256)":"9940686e","bondAmount()":"80f323a7","bondedExecutor()":"1aa7c0ec","cancelAndWithdraw()":"6b892b22","cancellationRequest()":"308657d7","collect((bytes,bytes,bytes,bytes,uint256),uint256)":"ede7f6a3","currentRewardAmount()":"5a4fd645","executionDeadline()":"33ee5f35","expectedAmount()":"2feef2ec","expectedRecipient()":"8677ab23","funded()":"f3a504f2","is_bonded()":"cb766a56","originalRewardAmount()":"d415b3f9","reinit(address,uint256,uint256)":"52a2ecfb","requestCancellation()":"81972d00","resume()":"046f7da2","tokenContract()":"55a373d6","totalBondsDeposited()":"fe03a460"},"id":22}