{"abi":[{"type":"constructor","inputs":[{"name":"_tokenContract","type":"address","internalType":"address"},{"name":"_expectedRecipient","type":"address","internalType":"address"},{"name":"_expectedAmount","type":"uint256","internalType":"uint256"},{"name":"_currentRewardAmount","type":"uint256","internalType":"uint256"},{"name":"_currentPaymentAmount","type":"uint256","internalType":"uint256"}],"stateMutability":"nonpayable"},{"type":"function","name":"MAX_BLOCK_LOOKBACK","inputs":[],"outputs":[{"name":"","type":"uint256","internalType":"uint256"}],"stateMutability":"view"},{"type":"function","name":"bond","inputs":[{"name":"_bondAmount","type":"uint256","internalType":"uint256"}],"outputs":[],"stateMutability":"nonpayable"},{"type":"function","name":"bondAmount","inputs":[],"outputs":[{"name":"","type":"uint256","internalType":"uint256"}],"stateMutability":"view"},{"type":"function","name":"bondedExecutor","inputs":[],"outputs":[{"name":"","type":"address","internalType":"address"}],"stateMutability":"view"},{"type":"function","name":"cancelAndWithdraw","inputs":[],"outputs":[],"stateMutability":"nonpayable"},{"type":"function","name":"cancellationRequest","inputs":[],"outputs":[{"name":"","type":"bool","internalType":"bool"}],"stateMutability":"view"},{"type":"function","name":"collect","inputs":[{"name":"proof","type":"tuple","internalType":"struct EscrowERC20.ReceiptProof","components":[{"name":"blockHeader","type":"bytes","internalType":"bytes"},{"name":"receiptRlp","type":"bytes","internalType":"bytes"},{"name":"proofNodes","type":"bytes","internalType":"bytes"},{"name":"receiptPath","type":"bytes","internalType":"bytes"},{"name":"logIndex","type":"uint256","internalType":"uint256"}]},{"name":"targetBlockNumber","type":"uint256","internalType":"uint256"}],"outputs":[],"stateMutability":"nonpayable"},{"type":"function","name":"currentPaymentAmount","inputs":[],"outputs":[{"name":"","type":"uint256","internalType":"uint256"}],"stateMutability":"view"},{"type":"function","name":"currentRewardAmount","inputs":[],"outputs":[{"name":"","type":"uint256","internalType":"uint256"}],"stateMutability":"view"},{"type":"function","name":"executionDeadline","inputs":[],"outputs":[{"name":"","type":"uint256","internalType":"uint256"}],"stateMutability":"view"},{"type":"function","name":"expectedAmount","inputs":[],"outputs":[{"name":"","type":"uint256","internalType":"uint256"}],"stateMutability":"view"},{"type":"function","name":"expectedRecipient","inputs":[],"outputs":[{"name":"","type":"address","internalType":"address"}],"stateMutability":"view"},{"type":"function","name":"fund","inputs":[{"name":"_currentRewardAmount","type":"uint256","internalType":"uint256"},{"name":"_currentPaymentAmount","type":"uint256","internalType":"uint256"}],"outputs":[],"stateMutability":"nonpayable"},{"type":"function","name":"funded","inputs":[],"outputs":[{"name":"","type":"bool","internalType":"bool"}],"stateMutability":"view"},{"type":"function","name":"is_bonded","inputs":[],"outputs":[{"name":"","type":"bool","internalType":"bool"}],"stateMutability":"view"},{"type":"function","name":"originalRewardAmount","inputs":[],"outputs":[{"name":"","type":"uint256","internalType":"uint256"}],"stateMutability":"view"},{"type":"function","name":"requestCancellation","inputs":[],"outputs":[],"stateMutability":"nonpayable"},{"type":"function","name":"resume","inputs":[],"outputs":[],"stateMutability":"nonpayable"},{"type":"function","name":"tokenContract","inputs":[],"outputs":[{"name":"","type":"address","internalType":"address"}],"stateMutability":"view"},{"type":"function","name":"totalBondsDeposited","inputs":[],"outputs":[{"name":"","type":"uint256","internalType":"uint256"}],"stateMutability":"view"},{"type":"function","name":"withdraw","inputs":[],"outputs":[],"stateMutability":"nonpayable"},{"type":"error","name":"AlreadyFunded","inputs":[]},{"type":"error","name":"AmountMismatch","inputs":[]},{"type":"error","name":"BlockHashUnavailable","inputs":[]},{"type":"error","name":"BlockHeaderMismatch","inputs":[]},{"type":"error","name":"BlockNumberMismatch","inputs":[]},{"type":"error","name":"BondActive","inputs":[]},{"type":"error","name":"CancellationRequested","inputs":[]},{"type":"error","name":"ExecutorAlreadyBonded","inputs":[]},{"type":"error","name":"ExpectedBytes32","inputs":[]},{"type":"error","name":"ExpectedRLPList","inputs":[]},{"type":"error","name":"InsufficientBond","inputs":[]},{"type":"error","name":"InvalidAddress","inputs":[]},{"type":"error","name":"InvalidRLP","inputs":[]},{"type":"error","name":"InvalidRLPEncoding","inputs":[]},{"type":"error","name":"InvalidRLPList","inputs":[]},{"type":"error","name":"InvalidReceiptProof","inputs":[]},{"type":"error","name":"InvalidTransferEvent","inputs":[]},{"type":"error","name":"NoWithdrawableFunds","inputs":[]},{"type":"error","name":"NotFunded","inputs":[]},{"type":"error","name":"OnlyBondedExecutor","inputs":[]},{"type":"error","name":"OnlyDeployer","inputs":[]},{"type":"error","name":"RLPOffsetOutOfBounds","inputs":[]},{"type":"error","name":"TargetBlockInFuture","inputs":[]},{"type":"error","name":"TargetBlockTooOld","inputs":[]},{"type":"error","name":"ToAddressMismatch","inputs":[]},{"type":"error","name":"TokenTransferFailed","inputs":[]},{"type":"error","name":"WrongEventSignature","inputs":[]},{"type":"error","name":"WrongTokenContract","inputs":[]},{"type":"error","name":"ZeroAddress","inputs":[]},{"type":"error","name":"ZeroPaymentAmount","inputs":[]},{"type":"error","name":"ZeroRewardAmount","inputs":[]}],"bytecode":{"object":"0x61010080604052346101c15760a08161234380380380916100208285610231565b8339810103126101c15761003381610268565b9061004060208201610268565b6040820151608060608401519301519160a05260c0523360805260018060a01b0383169283156102225760e0528115801580610219575b6100fc575b6040516120c6908161027d823960805181818161017601528181610434015281816105a10152610aaf015260a0518181816104860152610874015260c0518181816102020152610852015260e0518181816102d50152818161039001528181610528015281816106420152818161089601528181610fad015261103f0152f35b60ff60075460081c1661020a576101fb5780156101ec57815f55816002558060015581018091116101d8575f91606460209260405194859384926323b872dd60e01b845233600485015230602485015260448401525af19081156101cd575f9161018e575b501561017f5761010061ff001960075416176007555f80808061007c565b63022e258160e11b5f5260045ffd5b90506020813d6020116101c5575b816101a960209383610231565b810103126101c1575180151581036101c1575f610161565b5f80fd5b3d915061019c565b6040513d5f823e3d90fd5b634e487b7160e01b5f52601160045260245ffd5b63932ca0a360e01b5f5260045ffd5b63ea1083a760e01b5f5260045ffd5b635adf638760e01b5f5260045ffd5b50811515610077565b63d92e233d60e01b5f5260045ffd5b601f909101601f19168101906001600160401b0382119082101761025457604052565b634e487b7160e01b5f52604160045260245ffd5b51906001600160a01b03821682036101c15756fe60806040526004361015610011575f80fd5b5f3560e01c8063046f7da2146101645780631aa7c0ec1461015f5780632feef2ec1461015a578063308657d71461015557806333ee5f35146101505780633ccfd60b1461014b5780633d2691bc1461014657806355a373d6146101415780635a4fd6451461013c5780636b892b221461013757806380f323a71461013257806381972d001461012d5780638677ab23146101285780638bd03d0a146101235780639940686e1461011e578063a65e2cfd14610119578063cb766a5614610114578063d415b3f91461010f578063ede7f6a31461010a578063f3a504f2146101055763fe03a46014610100575f80fd5b610989565b610964565b610721565b610704565b6106e0565b610588565b6104d2565b6104b5565b610471565b610422565b610405565b6103db565b6103bf565b61037b565b61035f565b610264565b610247565b610225565b6101eb565b6101c3565b346101bf575f3660031901126101bf577f00000000000000000000000000000000000000000000000000000000000000006001600160a01b031633036101b0576007805460ff19169055005b63618bbdd560e01b5f5260045ffd5b5f80fd5b346101bf575f3660031901126101bf576003546040516001600160a01b039091168152602090f35b346101bf575f3660031901126101bf5760206040517f00000000000000000000000000000000000000000000000000000000000000008152f35b346101bf575f3660031901126101bf57602060ff600754166040519015158152f35b346101bf575f3660031901126101bf576020600454604051908152f35b346101bf575f3660031901126101bf5761027c610a9f565b610284610adf565b61028c610b16565b6102a361ff0019600754166007555f6001555f8055565b80156103505760405163a9059cbb60e01b815233600482015260248101919091526020816044815f6001600160a01b037f0000000000000000000000000000000000000000000000000000000000000000165af190811561034b575f9161031c575b501561030d57005b63022e258160e11b5f5260045ffd5b61033e915060203d602011610344575b61033681836109ba565b8101906109e1565b5f610305565b503d61032c565b6109f9565b6353cd7f7960e01b5f5260045ffd5b346101bf575f3660031901126101bf5760206040516101008152f35b346101bf575f3660031901126101bf576040517f00000000000000000000000000000000000000000000000000000000000000006001600160a01b03168152602090f35b346101bf575f3660031901126101bf5760205f54604051908152f35b346101bf575f3660031901126101bf576103f3610a9f565b61027c600160ff196007541617600755565b346101bf575f3660031901126101bf576020600554604051908152f35b346101bf575f3660031901126101bf577f00000000000000000000000000000000000000000000000000000000000000006001600160a01b031633036101b0576007805460ff19166001179055005b346101bf575f3660031901126101bf576040517f00000000000000000000000000000000000000000000000000000000000000006001600160a01b03168152602090f35b346101bf575f3660031901126101bf576020600154604051908152f35b346101bf5760203660031901126101bf576004356104ee610b28565b6104f781610b71565b6040516323b872dd60e01b8152336004820152306024820152604481018290526020816064815f6001600160a01b037f0000000000000000000000000000000000000000000000000000000000000000165af190811561034b575f91610569575b501561030d5761056790610bcc565b005b610582915060203d6020116103445761033681836109ba565b5f610558565b346101bf5760403660031901126101bf576004356024357f00000000000000000000000000000000000000000000000000000000000000006001600160a01b031633036101b05760075460081c60ff166106d15781156106c25780156106b3576105f7826105fc935f55600255565b600155565b61063d602061061060025460015490610a47565b6040516323b872dd60e01b8152336004820152306024820152604481019190915291829081906064820190565b03815f7f00000000000000000000000000000000000000000000000000000000000000006001600160a01b03165af190811561034b575f91610694575b501561030d5761056761010061ff00196007541617600755565b6106ad915060203d6020116103445761033681836109ba565b5f61067a565b63932ca0a360e01b5f5260045ffd5b63ea1083a760e01b5f5260045ffd5b635adf638760e01b5f5260045ffd5b346101bf575f3660031901126101bf5760206106fa610a54565b6040519015158152f35b346101bf575f3660031901126101bf576020600254604051908152f35b346101bf5760403660031901126101bf5760043567ffffffffffffffff81116101bf578060040160a060031983360301126101bf576024356107638280610a6c565b6007546107789060081c60ff161590565b1590565b61095557600354610799906001600160a01b03165b6001600160a01b031690565b3314801590610944575b61093557438311610926576101006107bb8443610c11565b116109175782408015610908576107d3368385610c3a565b60208151910120036108f9576107e89161109c565b036108ea576108006107fa8280610a6c565b90610c9e565b9161083a61077460248301946108168686610a6c565b906108246044870188610a6c565b90610832606489018a610a6c565b949093610d0e565b6108db5760846108506108c09461077494610a6c565b7f0000000000000000000000000000000000000000000000000000000000000000937f0000000000000000000000000000000000000000000000000000000000000000937f0000000000000000000000000000000000000000000000000000000000000000939101359190610d92565b6108cc57610567610f2c565b6364fa89e160e11b5f5260045ffd5b637b374dd160e01b5f5260045ffd5b63048a12f560e11b5f5260045ffd5b63ff28378760e01b5f5260045ffd5b63bfc9f0d360e01b5f5260045ffd5b63c42a018560e01b5f5260045ffd5b63058968cf60e41b5f5260045ffd5b6337b5f20360e21b5f5260045ffd5b50610950610774610a54565b6107a3565b636af784dd60e11b5f5260045ffd5b346101bf575f3660031901126101bf57602060ff60075460081c166040519015158152f35b346101bf575f3660031901126101bf576020600654604051908152f35b634e487b7160e01b5f52604160045260245ffd5b90601f8019910116810190811067ffffffffffffffff8211176109dc57604052565b6109a6565b908160209103126101bf575180151581036101bf5790565b6040513d5f823e3d90fd5b634e487b7160e01b5f52601160045260245ffd5b9060018201809211610a2657565b610a04565b6001019081600111610a2657565b9060158201809211610a2657565b91908201809211610a2657565b6004548015159081610a64575090565b905042111590565b903590601e19813603018212156101bf570180359067ffffffffffffffff82116101bf576020019181360383136101bf57565b60ff60075460081c1615610955577f00000000000000000000000000000000000000000000000000000000000000006001600160a01b031633036101b057565b610ae7610a54565b610b07576001600160601b0360a01b600354166003555f6005555f600455565b639cbc1de160e01b5f5260045ffd5b6001546002548101809111610a265790565b6004548015159081610b67575b50610b3c57565b6005545f54818101809111610a26575f55600654908101809111610a2657600655610b65610adf565b565b905042115f610b35565b60075460ff8160081c16156109555760ff16610bbd57610b8f610a54565b610bae575f5460011c11610b9f57565b63e92c469f60e01b5f5260045ffd5b63129f78e960e11b5f5260045ffd5b632479328960e01b5f5260045ffd5b336001600160601b0360a01b600354161760035561012c4201804211610a2657600455600555565b600119810191908211610a2657565b5f19810191908211610a2657565b91908203918211610a2657565b67ffffffffffffffff81116109dc57601f01601f191660200190565b929192610c4682610c1e565b91610c5460405193846109ba565b8294818452818301116101bf578281602093845f960137010152565b634e487b7160e01b5f52603260045260245ffd5b9015610c8d5790565b610c70565b90821015610c8d570190565b90610ca98183611158565b905f5b60058110610cf95750600560fd1b906001600160f81b031990610cd190849086610c92565b351603610cea57600181018111610a2657016001013590565b633954003560e11b5f5260045ffd5b91610d07600191838661128c565b9201610cac565b610d24610d2c92939495610d3298973691610c3a565b923691610c3a565b90611414565b90565b60ff60f6199116019060ff8211610a2657565b60ff607f199116019060ff8211610a2657565b60ff60bf199116019060ff8211610a2657565b60ff60b6199116019060ff8211610a2657565b60ff166001019060ff8211610a2657565b9594939291905f818881151580610f10575b610f02575b610dd2610dcc610dbe8560c09560ff95610c92565b356001600160f81b03191690565b60f81c90565b1610610ecc57808860f860ff610df0610dcc610dbe88978887610c92565b1610610ef257610e1d610e18610e13610dcc610dbe86610e2998610e2397610c92565b610d35565b610d81565b60ff1690565b90610a47565b81885f5b60038110610edb5750610e1d610dcc610dbe8560c095610e4c95610c92565b10610ecc57808860f8610e6a610e1d610dcc610dbe88978887610c92565b10610ebb57610e1d610e18610e13610dcc610dbe86610e8c98610e2397610c92565b915b5f905b808210610ea4575050610d3295966115c1565b9092610eb3600191848b61128c565b930190610e91565b50610ec69150610a18565b91610e8e565b631bd5dcf760e31b5f5260045ffd5b92600192610ee89261128c565b9101888391610e2d565b50610efd9150610a18565b610e29565b506001915082905088610da9565b50608060ff610f25610dcc610dbe8686610c84565b1610610da4565b610f34611691565b6003546001600160a01b0316610f716001600160601b0360a01b600354166003555f6005555f60045561ff0019600754166007555f6001555f8055565b4662aa36a70361100d57604051633419e74d60e21b81526001600160a01b0390911660048201526024810191909152602081806044810103815f7f00000000000000000000000000000000000000000000000000000000000000006001600160a01b03165af190811561034b575f91610fee575b505b1561030d57565b611007915060203d6020116103445761033681836109ba565b5f610fe5565b60405163a9059cbb60e01b81526001600160a01b0390911660048201526024810191909152602081806044810103815f7f00000000000000000000000000000000000000000000000000000000000000006001600160a01b03165af190811561034b575f9161107d575b50610fe7565b611096915060203d6020116103445761033681836109ba565b5f611077565b6110a68282611158565b915f5b6008811061114357506110c3610dcc610dbe858486610c92565b925f9260ff851694608086105f146110dd57505050505090565b6110ee9193949550610e1d90610d48565b915f935b83851061110157505050505090565b909192939461111260019160081b90565b611137610e1d610dcc610dbe6111308b61112b8b610a18565b610a47565b8789610c92565b179501939291906110f2565b92611151600191838561128c565b93016110a9565b5f600360fe1b6001600160f81b0319611174610dbe8686610c84565b161061125457601f60fb1b6001600160f81b0319611195610dbe8686610c84565b16106112835780610e23610e1d610e18610e13610dcc610dbe6111b9978a8a610c92565b905b61a5bd46148015611278575b6111d2575b50905090565b5f5b600381106112635750600360fe1b6112006111f3610dbe858786610c92565b6001600160f81b03191690565b1061125457601f60fb1b61121b6111f3610dbe858786610c92565b1061124457610e1d610e18610e13610dcc610dbe8661123d98610e2397610c92565b805f6111cc565b5061124f9150610a18565b61123d565b63c0098bd960e01b5f5260045ffd5b91611271600191858461128c565b92016111d4565b5061a5bf46146111c7565b506001906111bb565b9190808210156113e7576112a7610dcc610dbe848487610c92565b9060ff821660808110156112c257505050610d329150610a18565b91929160b88110156112ea575050610d329250610e1d6112e4610e2392610a18565b92610d48565b90929060c08110156113605750610e1d61130691949394610d6e565b915f935f915b84831061132757505050610d32929161112b61112b92610a18565b90919461133660019160081b90565b611356610e1d610dcc610dbe61134f8b61112b8b610a18565b8888610c92565b179501919061130c565b90929060f811156113865750610d329250610e1d611380610e2392610a18565b92610d5b565b9291610e1d61139491610d35565b915f935f915b8483106113b557505050610d32929161112b61112b92610a18565b9091946113c460019160081b90565b6113dd610e1d610dcc610dbe61134f8b61112b8b610a18565b179501919061139a565b6318d76ae160e11b5f5260045ffd5b805115610c8d5760200190565b908151811015610c8d570160200190565b919390929190600360fe1b6001600160f81b0319611435610dbe8689610c84565b16106115b257601f60fb1b6001600160f81b0319611456610dbe8689610c84565b16106115a85761147a611475610e1d610e13610dcc610dbe888b610c84565b610a2b565b9492905b945f5b82821061149357505050505050505f90565b6114b16114aa836114a536878a610c3a565b611702565b9093610a47565b96825160208401200361154657600360fe1b6114e06111f36114d2856113f6565b516001600160f81b03191690565b10611546578590846001601f60fb1b6114fe6111f36114d2886113f6565b101561158a575b61150f81866118a9565b60118103611551575061152194611a34565b94911561154657841561153a5793915b91959093611481565b50505050505050600190565b505050505050505f90565b90935060021415905061157e5784879261156a946118ee565b94911561154657841561153a579391611531565b50505050505050505f90565b506115a3611475610e1d610e13610dcc6114d2896113f6565b611505565b600194929061147e565b63ebb47d1d60e01b5f5260045ffd5b91949392948060c060ff6115dc610dcc610dbe85888a610c92565b1610610ecc5760f860ff6115f7610dcc610dbe85888a610c92565b1610611681575080610e23610e1d610e18610e13610dcc610dbe61161c97898b610c92565b945b609460ff611633610dcc610dbe8a8789610c92565b1603611672576001600160a01b03168286016001013560601c036116635761165d610d3295610a39565b91611b49565b63a087f96f60e01b5f5260045ffd5b63e6c4247b60e01b5f5260045ffd5b61168b9150610a18565b9461161e565b6005545f548101809111610a26576001548101809111610a265790565b604080519091906116bf83826109ba565b6001815291601f1901366020840137565b906116da82610c1e565b6116e760405191826109ba565b82815280926116f8601f1991610c1e565b0190602036910137565b80518210156113e75761171b610dcc6114d28484611403565b9160ff83166080811015611754575050506117346116ae565b9060f81b6001600160f81b0319165f1a61174d826113f6565b5390600190565b919392909160b88110156117be5750610e1d61176f91610d48565b90611779826116d0565b935f5b83811061178f57505050610d3290610a2b565b806117ab6114d26117a560019461112b88610a18565b85611403565b5f1a6117b78289611403565b530161177c565b60c0111561185c57610e1d6117d291610d6e565b5f915f5b82811061182e57506117e7836116d0565b945f5b848110611801575050509061112b610d3292610a2b565b8061181b6114d26117a560019461112b8961112b8a610a18565b5f1a611827828a611403565b53016117ea565b9260019060081b611854610e1d610dcc6114d261184e8961112b89610a18565b8b611403565b1793016117d6565b50916118688382611d00565b92611872846116d0565b915f5b858110611883575050509190565b806118966114d26117a560019487610a47565b5f1a6118a28287611403565b5301611875565b5f92915b81518110156118d4576118c08183611d00565b8101809111610a26576001909301926118ad565b5050565b908160011b9180830460021490151715610a2657565b839492916118fc8183611702565b939061191b6020611912610dcc6114d2856113f6565b16151591611e2d565b978891156119bd575061192f905187610a47565b61193982516118d8565b1461194e575b505050505050505f905f905f90565b868660019282516119ab575b505050611968575b8061193f565b61197b9261197591610a47565b90611702565b50602081519101209060208151910120146119995780808080611962565b6119a4915190610a47565b6001915f90565b6119b59350611f96565b86865f61195a565b6119ce939495965061077492611f96565b611a27576119df9261197591610a47565b50908151602081145f14611a07575060206119ff920151925b5190610a47565b916001929190565b8015611a1b5760206119ff930120926119f8565b505050505f905f905f90565b50505050505f905f905f90565b91909293611a4282516118d8565b851015611aec5750610dcc6114d2611a6492611a5e8760011c90565b90611403565b60018416611ae35760041c600f16915b905f925b60ff81168410611ac35750611a8d9250611702565b5080518015611ab8576119ff9160208203611aae5760209150015191610a18565b6020012091610a18565b5050505f905f905f90565b90916001611ad782610e2360ff9487611d00565b94019392919050611a78565b600f1691611a74565b9290509392935f915b60108310611b2f57611b079250611702565b50602081519101209060208151910120145f14611b2657600191905f90565b5f915081908190565b90611b4081610e2360019385611d00565b92019190611af5565b929190918160c060ff611b63610dcc610dbe87898b610c92565b1610610ecc5760f860ff611b7e610dcc610dbe87898b610c92565b1610611cf15780610e23610e1d610e18610e13610dcc610dbe611ba2978b8d610c92565b7fddf252ad1be2c89b69c2b068fc378daa952ba7f163c4a11628f55a4df523b3ef611bce828688612054565b03611ce25761078d61078d611bf1611bea611bf894888a61128c565b878961128c565b8688612054565b6001600160a01b03918216911603611cd357611c1590828461128c565b905f91611c29610dcc610dbe838588610c92565b60ff811694906080861015611c575750505050505b03611c4857600190565b6355e97b0d60e01b5f5260045ffd5b9091929394608081145f14611c72575050505050505f611c3e565b60a010610ecc57610e1d611c8891939293610d48565b915f935b838510611c9d575050505050611c3e565b9091929394611cae60019160081b90565b611cc7610e1d610dcc610dbe6111308b61112b8b610a18565b17950193929190611c8c565b634cd4b7b160e01b5f5260045ffd5b6324da545d60e11b5f5260045ffd5b50611cfb82610a18565b611ba2565b9081518110156113e757611d1a610dcc6114d28385611403565b9160ff83166080811015611d315750505050600190565b60b8811015611d4c57505050610e1d610e18610d3292610d48565b60c0811015611db8575091610e1d611d6391610d6e565b905f925f915b838310611d80575050509061112b610d3292610a2b565b909193611d8f60019160081b90565b611dae610e1d610dcc6114d2611da88a61112b89610a18565b88611403565b1794019190611d69565b60f81115611dd1575050610e1d610e18610d3292610d5b565b91610e1d611dde91610d35565b905f925f915b838310611dfb575050509061112b610d3292610a2b565b909193611e0a60019160081b90565b611e23610e1d610dcc6114d2611da88a61112b89610a18565b1794019190611de4565b90815115610b6557611e44610dcc6114d2846113f6565b6010811615611f1357611e67611e62611e5d85516118d8565b610c03565b6116d0565b9060f81b600f60f81b165f1a611e7c826113f6565b5360015b8351811015611f0e5780611ebb611eab611ea2610dcc6114d26001968a611403565b60041c600f1690565b60f81b6001600160f81b03191690565b611ed4611eca611e5d846118d8565b915f1a9185611403565b53611efb600f611eea610dcc6114d2858a611403565b1660f81b6001600160f81b03191690565b611f07611eca836118d8565b5301611e80565b509150565b50611f29611e62611f2484516118d8565b610bf4565b60015b8351811015611f0e5780611f4e611eab611ea2610dcc6114d26001968a611403565b611f62611eca611f5d84610c03565b6118d8565b53611f78600f611eea610dcc6114d2858a611403565b611f8f611eca611f8a611f5d85610c03565b610a18565b5301611f2c565b919091611fa4825184610a47565b611fae82516118d8565b1061204d575f5b825181101561204457611fd1611fcb8286610a47565b60011690565b61202657611ffa611ea2610dcc6114d2611ff4611fee868a610a47565b60011c90565b86611403565b60ff61200f610e1d610dcc6114d28689611403565b91160361201e57600101611fb5565b505050505f90565b600f61203e610dcc6114d2611ff4611fee868a610a47565b16611ffa565b50505050600190565b5050505f90565b9190600560fd1b906001600160f81b03199061207290849086610c92565b35160361208157016001013590565b63f0ff325b60e01b5f5260045ffdfea264697066735822122098a67e6f268efe7a8299f4678905aa9384904d8e51fa72ebc0925592a4ddaeaa64736f6c634300081e0033","linkReferences":{}},"methodIdentifiers":{"MAX_BLOCK_LOOKBACK()":"3d2691bc","bond(uint256)":"9940686e","bondAmount()":"80f323a7","bondedExecutor()":"1aa7c0ec","cancelAndWithdraw()":"6b892b22","cancellationRequest()":"308657d7","collect((bytes,bytes,bytes,bytes,uint256),uint256)":"ede7f6a3","currentPaymentAmount()":"8bd03d0a","currentRewardAmount()":"5a4fd645","executionDeadline()":"33ee5f35","expectedAmount()":"2feef2ec","expectedRecipient()":"8677ab23","fund(uint256,uint256)":"a65e2cfd","funded()":"f3a504f2","is_bonded()":"cb766a56","originalRewardAmount()":"d415b3f9","requestCancellation()":"81972d00","resume()":"046f7da2","tokenContract()":"55a373d6","totalBondsDeposited()":"fe03a460","withdraw()":"3ccfd60b"},"id":21}