{"abi":[{"type":"constructor","inputs":[{"name":"_deployer","type":"address","internalType":"address"},{"name":"_tokenContract","type":"address","internalType":"address"},{"name":"_expectedRecipient","type":"address","internalType":"address"},{"name":"_expectedAmount","type":"uint256","internalType":"uint256"},{"name":"_currentRewardAmount","type":"uint256","internalType":"uint256"},{"name":"_currentPaymentAmount","type":"uint256","internalType":"uint256"}],"stateMutability":"nonpayable"},{"type":"function","name":"MAX_BLOCK_LOOKBACK","inputs":[],"outputs":[{"name":"","type":"uint256","internalType":"uint256"}],"stateMutability":"view"},{"type":"function","name":"bond","inputs":[{"name":"_bondAmount","type":"uint256","internalType":"uint256"}],"outputs":[],"stateMutability":"nonpayable"},{"type":"function","name":"bondAmount","inputs":[],"outputs":[{"name":"","type":"uint256","internalType":"uint256"}],"stateMutability":"view"},{"type":"function","name":"bondedExecutor","inputs":[],"outputs":[{"name":"","type":"address","internalType":"address"}],"stateMutability":"view"},{"type":"function","name":"cancelAndWithdraw","inputs":[],"outputs":[],"stateMutability":"nonpayable"},{"type":"function","name":"cancellationRequest","inputs":[],"outputs":[{"name":"","type":"bool","internalType":"bool"}],"stateMutability":"view"},{"type":"function","name":"collect","inputs":[{"name":"proof","type":"tuple","internalType":"struct EscrowERC20.ReceiptProof","components":[{"name":"blockHeader","type":"bytes","internalType":"bytes"},{"name":"receiptRlp","type":"bytes","internalType":"bytes"},{"name":"proofNodes","type":"bytes","internalType":"bytes"},{"name":"receiptPath","type":"bytes","internalType":"bytes"},{"name":"logIndex","type":"uint256","internalType":"uint256"}]},{"name":"targetBlockNumber","type":"uint256","internalType":"uint256"}],"outputs":[],"stateMutability":"nonpayable"},{"type":"function","name":"currentPaymentAmount","inputs":[],"outputs":[{"name":"","type":"uint256","internalType":"uint256"}],"stateMutability":"view"},{"type":"function","name":"currentRewardAmount","inputs":[],"outputs":[{"name":"","type":"uint256","internalType":"uint256"}],"stateMutability":"view"},{"type":"function","name":"deployerAddress","inputs":[],"outputs":[{"name":"","type":"address","internalType":"address"}],"stateMutability":"view"},{"type":"function","name":"executionDeadline","inputs":[],"outputs":[{"name":"","type":"uint256","internalType":"uint256"}],"stateMutability":"view"},{"type":"function","name":"expectedAmount","inputs":[],"outputs":[{"name":"","type":"uint256","internalType":"uint256"}],"stateMutability":"view"},{"type":"function","name":"expectedRecipient","inputs":[],"outputs":[{"name":"","type":"address","internalType":"address"}],"stateMutability":"view"},{"type":"function","name":"fund","inputs":[{"name":"_currentRewardAmount","type":"uint256","internalType":"uint256"},{"name":"_currentPaymentAmount","type":"uint256","internalType":"uint256"}],"outputs":[],"stateMutability":"nonpayable"},{"type":"function","name":"funded","inputs":[],"outputs":[{"name":"","type":"bool","internalType":"bool"}],"stateMutability":"view"},{"type":"function","name":"is_bonded","inputs":[],"outputs":[{"name":"","type":"bool","internalType":"bool"}],"stateMutability":"view"},{"type":"function","name":"originalRewardAmount","inputs":[],"outputs":[{"name":"","type":"uint256","internalType":"uint256"}],"stateMutability":"view"},{"type":"function","name":"requestCancellation","inputs":[],"outputs":[],"stateMutability":"nonpayable"},{"type":"function","name":"resume","inputs":[],"outputs":[],"stateMutability":"nonpayable"},{"type":"function","name":"tokenContract","inputs":[],"outputs":[{"name":"","type":"address","internalType":"address"}],"stateMutability":"view"},{"type":"function","name":"totalBondsDeposited","inputs":[],"outputs":[{"name":"","type":"uint256","internalType":"uint256"}],"stateMutability":"view"},{"type":"error","name":"AlreadyFunded","inputs":[]},{"type":"error","name":"AmountMismatch","inputs":[]},{"type":"error","name":"BlockHashUnavailable","inputs":[]},{"type":"error","name":"BlockHeaderMismatch","inputs":[]},{"type":"error","name":"BlockNumberMismatch","inputs":[]},{"type":"error","name":"BondActive","inputs":[]},{"type":"error","name":"CancellationRequested","inputs":[]},{"type":"error","name":"ExecutorAlreadyBonded","inputs":[]},{"type":"error","name":"ExpectedBytes32","inputs":[]},{"type":"error","name":"ExpectedRLPList","inputs":[]},{"type":"error","name":"InsufficientBond","inputs":[]},{"type":"error","name":"InvalidAddress","inputs":[]},{"type":"error","name":"InvalidRLP","inputs":[]},{"type":"error","name":"InvalidRLPEncoding","inputs":[]},{"type":"error","name":"InvalidRLPList","inputs":[]},{"type":"error","name":"InvalidReceiptProof","inputs":[]},{"type":"error","name":"InvalidTransferEvent","inputs":[]},{"type":"error","name":"NoWithdrawableFunds","inputs":[]},{"type":"error","name":"NotFunded","inputs":[]},{"type":"error","name":"OnlyBondedExecutor","inputs":[]},{"type":"error","name":"OnlyDeployer","inputs":[]},{"type":"error","name":"RLPOffsetOutOfBounds","inputs":[]},{"type":"error","name":"TargetBlockInFuture","inputs":[]},{"type":"error","name":"TargetBlockTooOld","inputs":[]},{"type":"error","name":"ToAddressMismatch","inputs":[]},{"type":"error","name":"TokenTransferFailed","inputs":[]},{"type":"error","name":"WrongEventSignature","inputs":[]},{"type":"error","name":"WrongTokenContract","inputs":[]},{"type":"error","name":"ZeroAddress","inputs":[]},{"type":"error","name":"ZeroDeployer","inputs":[]},{"type":"error","name":"ZeroPaymentAmount","inputs":[]},{"type":"error","name":"ZeroRewardAmount","inputs":[]}],"bytecode":{"object":"0x61010080604052346101f05760c0816123bc8038038091610020828561027e565b8339810103126101f057610033816102b5565b90610040602082016102b5565b9161004d604083016102b5565b6060830151608084015160a090940151926001600160a01b0381169290831561026f5760805260a05260c0526001600160a01b0384169384156102605760e052821590811580610257575b610124575b6040516120f290816102ca82396080518181816101760152818161041c01528181610589015281816109610152610adb015260a05181818161046e015261085c015260c051818181610202015261083a015260e05181818161029501528181610363015281816105100152818161062a0152818161087e01528181610fd9015261106b0152f35b33036102485760ff60075460081c166102395761022a57801561021b57815f5581600255806001558101809111610207575f91606460209260405194859384926323b872dd60e01b845233600485015230602485015260448401525af19081156101fc575f916101bd575b50156101ae5761010061ff001960075416176007555f8080808061009d565b63022e258160e11b5f5260045ffd5b90506020813d6020116101f4575b816101d86020938361027e565b810103126101f0575180151581036101f0575f61018f565b5f80fd5b3d91506101cb565b6040513d5f823e3d90fd5b634e487b7160e01b5f52601160045260245ffd5b63932ca0a360e01b5f5260045ffd5b63ea1083a760e01b5f5260045ffd5b635adf638760e01b5f5260045ffd5b63618bbdd560e01b5f5260045ffd5b50821515610098565b63d92e233d60e01b5f5260045ffd5b63099c243360e31b5f5260045ffd5b601f909101601f19168101906001600160401b038211908210176102a157604052565b634e487b7160e01b5f52604160045260245ffd5b51906001600160a01b03821682036101f05756fe60806040526004361015610011575f80fd5b5f3560e01c8063046f7da2146101645780631aa7c0ec1461015f5780632feef2ec1461015a578063308657d71461015557806333ee5f35146101505780633d2691bc1461014b57806355a373d6146101465780635a4fd645146101415780636b892b221461013c57806380f323a71461013757806381972d00146101325780638677ab231461012d5780638bd03d0a146101285780639940686e14610123578063a65e2cfd1461011e578063cb766a5614610119578063d415b3f914610114578063ede7f6a31461010f578063efdee94f1461010a578063f3a504f2146101055763fe03a46014610100575f80fd5b6109b5565b610990565b61094c565b610709565b6106ec565b6106c8565b610570565b6104ba565b61049d565b610459565b61040a565b6103ed565b6102e0565b6102c4565b610280565b610264565b610247565b610225565b6101eb565b6101c3565b346101bf575f3660031901126101bf577f00000000000000000000000000000000000000000000000000000000000000006001600160a01b031633036101b0576007805460ff19169055005b63618bbdd560e01b5f5260045ffd5b5f80fd5b346101bf575f3660031901126101bf576003546040516001600160a01b039091168152602090f35b346101bf575f3660031901126101bf5760206040517f00000000000000000000000000000000000000000000000000000000000000008152f35b346101bf575f3660031901126101bf57602060ff600754166040519015158152f35b346101bf575f3660031901126101bf576020600454604051908152f35b346101bf575f3660031901126101bf5760206040516101008152f35b346101bf575f3660031901126101bf576040517f00000000000000000000000000000000000000000000000000000000000000006001600160a01b03168152602090f35b346101bf575f3660031901126101bf5760205f54604051908152f35b346101bf575f3660031901126101bf57610302600160ff196007541617600755565b61030a610acb565b610312610b0b565b61031a610b42565b61033161ff0019600754166007555f6001555f8055565b80156103de5760405163a9059cbb60e01b815233600482015260248101919091526020816044815f6001600160a01b037f0000000000000000000000000000000000000000000000000000000000000000165af19081156103d9575f916103aa575b501561039b57005b63022e258160e11b5f5260045ffd5b6103cc915060203d6020116103d2575b6103c481836109e6565b810190610a0d565b5f610393565b503d6103ba565b610a25565b6353cd7f7960e01b5f5260045ffd5b346101bf575f3660031901126101bf576020600554604051908152f35b346101bf575f3660031901126101bf577f00000000000000000000000000000000000000000000000000000000000000006001600160a01b031633036101b0576007805460ff19166001179055005b346101bf575f3660031901126101bf576040517f00000000000000000000000000000000000000000000000000000000000000006001600160a01b03168152602090f35b346101bf575f3660031901126101bf576020600154604051908152f35b346101bf5760203660031901126101bf576004356104d6610b54565b6104df81610b9d565b6040516323b872dd60e01b8152336004820152306024820152604481018290526020816064815f6001600160a01b037f0000000000000000000000000000000000000000000000000000000000000000165af19081156103d9575f91610551575b501561039b5761054f90610bf8565b005b61056a915060203d6020116103d2576103c481836109e6565b5f610540565b346101bf5760403660031901126101bf576004356024357f00000000000000000000000000000000000000000000000000000000000000006001600160a01b031633036101b05760075460081c60ff166106b95781156106aa57801561069b576105df826105e4935f55600255565b600155565b61062560206105f860025460015490610a73565b6040516323b872dd60e01b8152336004820152306024820152604481019190915291829081906064820190565b03815f7f00000000000000000000000000000000000000000000000000000000000000006001600160a01b03165af19081156103d9575f9161067c575b501561039b5761054f61010061ff00196007541617600755565b610695915060203d6020116103d2576103c481836109e6565b5f610662565b63932ca0a360e01b5f5260045ffd5b63ea1083a760e01b5f5260045ffd5b635adf638760e01b5f5260045ffd5b346101bf575f3660031901126101bf5760206106e2610a80565b6040519015158152f35b346101bf575f3660031901126101bf576020600254604051908152f35b346101bf5760403660031901126101bf5760043567ffffffffffffffff81116101bf578060040160a060031983360301126101bf5760243561074b8280610a98565b6007546107609060081c60ff161590565b1590565b61093d57600354610781906001600160a01b03165b6001600160a01b031690565b331480159061092c575b61091d5743831161090e576101006107a38443610c3d565b116108ff57824080156108f0576107bb368385610c66565b60208151910120036108e1576107d0916110c8565b036108d2576107e86107e28280610a98565b90610cca565b9161082261075c60248301946107fe8686610a98565b9061080c6044870188610a98565b9061081a606489018a610a98565b949093610d3a565b6108c35760846108386108a89461075c94610a98565b7f0000000000000000000000000000000000000000000000000000000000000000937f0000000000000000000000000000000000000000000000000000000000000000937f0000000000000000000000000000000000000000000000000000000000000000939101359190610dbe565b6108b45761054f610f58565b6364fa89e160e11b5f5260045ffd5b637b374dd160e01b5f5260045ffd5b63048a12f560e11b5f5260045ffd5b63ff28378760e01b5f5260045ffd5b63bfc9f0d360e01b5f5260045ffd5b63c42a018560e01b5f5260045ffd5b63058968cf60e41b5f5260045ffd5b6337b5f20360e21b5f5260045ffd5b5061093861075c610a80565b61078b565b636af784dd60e11b5f5260045ffd5b346101bf575f3660031901126101bf576040517f00000000000000000000000000000000000000000000000000000000000000006001600160a01b03168152602090f35b346101bf575f3660031901126101bf57602060ff60075460081c166040519015158152f35b346101bf575f3660031901126101bf576020600654604051908152f35b634e487b7160e01b5f52604160045260245ffd5b90601f8019910116810190811067ffffffffffffffff821117610a0857604052565b6109d2565b908160209103126101bf575180151581036101bf5790565b6040513d5f823e3d90fd5b634e487b7160e01b5f52601160045260245ffd5b9060018201809211610a5257565b610a30565b6001019081600111610a5257565b9060158201809211610a5257565b91908201809211610a5257565b6004548015159081610a90575090565b905042111590565b903590601e19813603018212156101bf570180359067ffffffffffffffff82116101bf576020019181360383136101bf57565b60ff60075460081c161561093d577f00000000000000000000000000000000000000000000000000000000000000006001600160a01b031633036101b057565b610b13610a80565b610b33576001600160601b0360a01b600354166003555f6005555f600455565b639cbc1de160e01b5f5260045ffd5b6001546002548101809111610a525790565b6004548015159081610b93575b50610b6857565b6005545f54818101809111610a52575f55600654908101809111610a5257600655610b91610b0b565b565b905042115f610b61565b60075460ff8160081c161561093d5760ff16610be957610bbb610a80565b610bda575f5460011c11610bcb57565b63e92c469f60e01b5f5260045ffd5b63129f78e960e11b5f5260045ffd5b632479328960e01b5f5260045ffd5b336001600160601b0360a01b600354161760035561012c4201804211610a5257600455600555565b600119810191908211610a5257565b5f19810191908211610a5257565b91908203918211610a5257565b67ffffffffffffffff8111610a0857601f01601f191660200190565b929192610c7282610c4a565b91610c8060405193846109e6565b8294818452818301116101bf578281602093845f960137010152565b634e487b7160e01b5f52603260045260245ffd5b9015610cb95790565b610c9c565b90821015610cb9570190565b90610cd58183611184565b905f5b60058110610d255750600560fd1b906001600160f81b031990610cfd90849086610cbe565b351603610d1657600181018111610a5257016001013590565b633954003560e11b5f5260045ffd5b91610d3360019183866112b8565b9201610cd8565b610d50610d5892939495610d5e98973691610c66565b923691610c66565b90611440565b90565b60ff60f6199116019060ff8211610a5257565b60ff607f199116019060ff8211610a5257565b60ff60bf199116019060ff8211610a5257565b60ff60b6199116019060ff8211610a5257565b60ff166001019060ff8211610a5257565b9594939291905f818881151580610f3c575b610f2e575b610dfe610df8610dea8560c09560ff95610cbe565b356001600160f81b03191690565b60f81c90565b1610610ef857808860f860ff610e1c610df8610dea88978887610cbe565b1610610f1e57610e49610e44610e3f610df8610dea86610e5598610e4f97610cbe565b610d61565b610dad565b60ff1690565b90610a73565b81885f5b60038110610f075750610e49610df8610dea8560c095610e7895610cbe565b10610ef857808860f8610e96610e49610df8610dea88978887610cbe565b10610ee757610e49610e44610e3f610df8610dea86610eb898610e4f97610cbe565b915b5f905b808210610ed0575050610d5e95966115ed565b9092610edf600191848b6112b8565b930190610ebd565b50610ef29150610a44565b91610eba565b631bd5dcf760e31b5f5260045ffd5b92600192610f14926112b8565b9101888391610e59565b50610f299150610a44565b610e55565b506001915082905088610dd5565b50608060ff610f51610df8610dea8686610cb0565b1610610dd0565b610f606116bd565b6003546001600160a01b0316610f9d6001600160601b0360a01b600354166003555f6005555f60045561ff0019600754166007555f6001555f8055565b4662aa36a70361103957604051633419e74d60e21b81526001600160a01b0390911660048201526024810191909152602081806044810103815f7f00000000000000000000000000000000000000000000000000000000000000006001600160a01b03165af19081156103d9575f9161101a575b505b1561039b57565b611033915060203d6020116103d2576103c481836109e6565b5f611011565b60405163a9059cbb60e01b81526001600160a01b0390911660048201526024810191909152602081806044810103815f7f00000000000000000000000000000000000000000000000000000000000000006001600160a01b03165af19081156103d9575f916110a9575b50611013565b6110c2915060203d6020116103d2576103c481836109e6565b5f6110a3565b6110d28282611184565b915f5b6008811061116f57506110ef610df8610dea858486610cbe565b925f9260ff851694608086105f1461110957505050505090565b61111a9193949550610e4990610d74565b915f935b83851061112d57505050505090565b909192939461113e60019160081b90565b611163610e49610df8610dea61115c8b6111578b610a44565b610a73565b8789610cbe565b1795019392919061111e565b9261117d60019183856112b8565b93016110d5565b5f600360fe1b6001600160f81b03196111a0610dea8686610cb0565b161061128057601f60fb1b6001600160f81b03196111c1610dea8686610cb0565b16106112af5780610e4f610e49610e44610e3f610df8610dea6111e5978a8a610cbe565b905b61a5bd461480156112a4575b6111fe575b50905090565b5f5b6003811061128f5750600360fe1b61122c61121f610dea858786610cbe565b6001600160f81b03191690565b1061128057601f60fb1b61124761121f610dea858786610cbe565b1061127057610e49610e44610e3f610df8610dea8661126998610e4f97610cbe565b805f6111f8565b5061127b9150610a44565b611269565b63c0098bd960e01b5f5260045ffd5b9161129d60019185846112b8565b9201611200565b5061a5bf46146111f3565b506001906111e7565b919080821015611413576112d3610df8610dea848487610cbe565b9060ff821660808110156112ee57505050610d5e9150610a44565b91929160b8811015611316575050610d5e9250610e49611310610e4f92610a44565b92610d74565b90929060c081101561138c5750610e4961133291949394610d9a565b915f935f915b84831061135357505050610d5e929161115761115792610a44565b90919461136260019160081b90565b611382610e49610df8610dea61137b8b6111578b610a44565b8888610cbe565b1795019190611338565b90929060f811156113b25750610d5e9250610e496113ac610e4f92610a44565b92610d87565b9291610e496113c091610d61565b915f935f915b8483106113e157505050610d5e929161115761115792610a44565b9091946113f060019160081b90565b611409610e49610df8610dea61137b8b6111578b610a44565b17950191906113c6565b6318d76ae160e11b5f5260045ffd5b805115610cb95760200190565b908151811015610cb9570160200190565b919390929190600360fe1b6001600160f81b0319611461610dea8689610cb0565b16106115de57601f60fb1b6001600160f81b0319611482610dea8689610cb0565b16106115d4576114a66114a1610e49610e3f610df8610dea888b610cb0565b610a57565b9492905b945f5b8282106114bf57505050505050505f90565b6114dd6114d6836114d136878a610c66565b61172e565b9093610a73565b96825160208401200361157257600360fe1b61150c61121f6114fe85611422565b516001600160f81b03191690565b10611572578590846001601f60fb1b61152a61121f6114fe88611422565b10156115b6575b61153b81866118d5565b6011810361157d575061154d94611a60565b9491156115725784156115665793915b919590936114ad565b50505050505050600190565b505050505050505f90565b9093506002141590506115aa578487926115969461191a565b94911561157257841561156657939161155d565b50505050505050505f90565b506115cf6114a1610e49610e3f610df86114fe89611422565b611531565b60019492906114aa565b63ebb47d1d60e01b5f5260045ffd5b91949392948060c060ff611608610df8610dea85888a610cbe565b1610610ef85760f860ff611623610df8610dea85888a610cbe565b16106116ad575080610e4f610e49610e44610e3f610df8610dea61164897898b610cbe565b945b609460ff61165f610df8610dea8a8789610cbe565b160361169e576001600160a01b03168286016001013560601c0361168f57611689610d5e95610a65565b91611b75565b63a087f96f60e01b5f5260045ffd5b63e6c4247b60e01b5f5260045ffd5b6116b79150610a44565b9461164a565b6005545f548101809111610a52576001548101809111610a525790565b604080519091906116eb83826109e6565b6001815291601f1901366020840137565b9061170682610c4a565b61171360405191826109e6565b8281528092611724601f1991610c4a565b0190602036910137565b805182101561141357611747610df86114fe848461142f565b9160ff83166080811015611780575050506117606116da565b9060f81b6001600160f81b0319165f1a61177982611422565b5390600190565b919392909160b88110156117ea5750610e4961179b91610d74565b906117a5826116fc565b935f5b8381106117bb57505050610d5e90610a57565b806117d76114fe6117d160019461115788610a44565b8561142f565b5f1a6117e3828961142f565b53016117a8565b60c0111561188857610e496117fe91610d9a565b5f915f5b82811061185a5750611813836116fc565b945f5b84811061182d5750505090611157610d5e92610a57565b806118476114fe6117d1600194611157896111578a610a44565b5f1a611853828a61142f565b5301611816565b9260019060081b611880610e49610df86114fe61187a8961115789610a44565b8b61142f565b179301611802565b50916118948382611d2c565b9261189e846116fc565b915f5b8581106118af575050509190565b806118c26114fe6117d160019487610a73565b5f1a6118ce828761142f565b53016118a1565b5f92915b8151811015611900576118ec8183611d2c565b8101809111610a52576001909301926118d9565b5050565b908160011b9180830460021490151715610a5257565b83949291611928818361172e565b9390611947602061193e610df86114fe85611422565b16151591611e59565b978891156119e9575061195b905187610a73565b6119658251611904565b1461197a575b505050505050505f905f905f90565b868660019282516119d7575b505050611994575b8061196b565b6119a7926119a191610a73565b9061172e565b50602081519101209060208151910120146119c5578080808061198e565b6119d0915190610a73565b6001915f90565b6119e19350611fc2565b86865f611986565b6119fa939495965061075c92611fc2565b611a5357611a0b926119a191610a73565b50908151602081145f14611a3357506020611a2b920151925b5190610a73565b916001929190565b8015611a47576020611a2b93012092611a24565b505050505f905f905f90565b50505050505f905f905f90565b91909293611a6e8251611904565b851015611b185750610df86114fe611a9092611a8a8760011c90565b9061142f565b60018416611b0f5760041c600f16915b905f925b60ff81168410611aef5750611ab9925061172e565b5080518015611ae457611a2b9160208203611ada5760209150015191610a44565b6020012091610a44565b5050505f905f905f90565b90916001611b0382610e4f60ff9487611d2c565b94019392919050611aa4565b600f1691611aa0565b9290509392935f915b60108310611b5b57611b33925061172e565b50602081519101209060208151910120145f14611b5257600191905f90565b5f915081908190565b90611b6c81610e4f60019385611d2c565b92019190611b21565b929190918160c060ff611b8f610df8610dea87898b610cbe565b1610610ef85760f860ff611baa610df8610dea87898b610cbe565b1610611d1d5780610e4f610e49610e44610e3f610df8610dea611bce978b8d610cbe565b7fddf252ad1be2c89b69c2b068fc378daa952ba7f163c4a11628f55a4df523b3ef611bfa828688612080565b03611d0e57610775610775611c1d611c16611c2494888a6112b8565b87896112b8565b8688612080565b6001600160a01b03918216911603611cff57611c419082846112b8565b905f91611c55610df8610dea838588610cbe565b60ff811694906080861015611c835750505050505b03611c7457600190565b6355e97b0d60e01b5f5260045ffd5b9091929394608081145f14611c9e575050505050505f611c6a565b60a010610ef857610e49611cb491939293610d74565b915f935b838510611cc9575050505050611c6a565b9091929394611cda60019160081b90565b611cf3610e49610df8610dea61115c8b6111578b610a44565b17950193929190611cb8565b634cd4b7b160e01b5f5260045ffd5b6324da545d60e11b5f5260045ffd5b50611d2782610a44565b611bce565b90815181101561141357611d46610df86114fe838561142f565b9160ff83166080811015611d5d5750505050600190565b60b8811015611d7857505050610e49610e44610d5e92610d74565b60c0811015611de4575091610e49611d8f91610d9a565b905f925f915b838310611dac5750505090611157610d5e92610a57565b909193611dbb60019160081b90565b611dda610e49610df86114fe611dd48a61115789610a44565b8861142f565b1794019190611d95565b60f81115611dfd575050610e49610e44610d5e92610d87565b91610e49611e0a91610d61565b905f925f915b838310611e275750505090611157610d5e92610a57565b909193611e3660019160081b90565b611e4f610e49610df86114fe611dd48a61115789610a44565b1794019190611e10565b90815115610b9157611e70610df86114fe84611422565b6010811615611f3f57611e93611e8e611e898551611904565b610c2f565b6116fc565b9060f81b600f60f81b165f1a611ea882611422565b5360015b8351811015611f3a5780611ee7611ed7611ece610df86114fe6001968a61142f565b60041c600f1690565b60f81b6001600160f81b03191690565b611f00611ef6611e8984611904565b915f1a918561142f565b53611f27600f611f16610df86114fe858a61142f565b1660f81b6001600160f81b03191690565b611f33611ef683611904565b5301611eac565b509150565b50611f55611e8e611f508451611904565b610c20565b60015b8351811015611f3a5780611f7a611ed7611ece610df86114fe6001968a61142f565b611f8e611ef6611f8984610c2f565b611904565b53611fa4600f611f16610df86114fe858a61142f565b611fbb611ef6611fb6611f8985610c2f565b610a44565b5301611f58565b919091611fd0825184610a73565b611fda8251611904565b10612079575f5b825181101561207057611ffd611ff78286610a73565b60011690565b61205257612026611ece610df86114fe61202061201a868a610a73565b60011c90565b8661142f565b60ff61203b610e49610df86114fe868961142f565b91160361204a57600101611fe1565b505050505f90565b600f61206a610df86114fe61202061201a868a610a73565b16612026565b50505050600190565b5050505f90565b9190600560fd1b906001600160f81b03199061209e90849086610cbe565b3516036120ad57016001013590565b63f0ff325b60e01b5f5260045ffdfea26469706673582212204e43a9f5fcf2d757173829adf3a36ab4fd8be9cc7dc8151bc8492a5a15332e1564736f6c634300081e0033","linkReferences":{}},"methodIdentifiers":{"MAX_BLOCK_LOOKBACK()":"3d2691bc","bond(uint256)":"9940686e","bondAmount()":"80f323a7","bondedExecutor()":"1aa7c0ec","cancelAndWithdraw()":"6b892b22","cancellationRequest()":"308657d7","collect((bytes,bytes,bytes,bytes,uint256),uint256)":"ede7f6a3","currentPaymentAmount()":"8bd03d0a","currentRewardAmount()":"5a4fd645","deployerAddress()":"efdee94f","executionDeadline()":"33ee5f35","expectedAmount()":"2feef2ec","expectedRecipient()":"8677ab23","fund(uint256,uint256)":"a65e2cfd","funded()":"f3a504f2","is_bonded()":"cb766a56","originalRewardAmount()":"d415b3f9","requestCancellation()":"81972d00","resume()":"046f7da2","tokenContract()":"55a373d6","totalBondsDeposited()":"fe03a460"},"id":21}