{"abi":[{"type":"constructor","inputs":[{"name":"_tokenContract","type":"address","internalType":"address"},{"name":"_expectedRecipient","type":"address","internalType":"address"},{"name":"_expectedAmount","type":"uint256","internalType":"uint256"},{"name":"_blindedSigner","type":"address","internalType":"address"},{"name":"_currentRewardAmount","type":"uint256","internalType":"uint256"}],"stateMutability":"payable"},{"type":"function","name":"MAX_BLOCK_LOOKBACK","inputs":[],"outputs":[{"name":"","type":"uint256","internalType":"uint256"}],"stateMutability":"view"},{"type":"function","name":"blindedSigner","inputs":[],"outputs":[{"name":"","type":"address","internalType":"address"}],"stateMutability":"view"},{"type":"function","name":"bond","inputs":[{"name":"bondSig","type":"bytes","internalType":"bytes"}],"outputs":[],"stateMutability":"nonpayable"},{"type":"function","name":"bondPot","inputs":[],"outputs":[{"name":"","type":"uint256","internalType":"uint256"}],"stateMutability":"view"},{"type":"function","name":"bondedExecutor","inputs":[],"outputs":[{"name":"","type":"address","internalType":"address"}],"stateMutability":"view"},{"type":"function","name":"cancelAndWithdraw","inputs":[],"outputs":[],"stateMutability":"nonpayable"},{"type":"function","name":"cancellationRequest","inputs":[],"outputs":[{"name":"","type":"bool","internalType":"bool"}],"stateMutability":"view"},{"type":"function","name":"collect","inputs":[{"name":"proof","type":"tuple","internalType":"struct EscrowERC20.ReceiptProof","components":[{"name":"blockHeader","type":"bytes","internalType":"bytes"},{"name":"receiptRlp","type":"bytes","internalType":"bytes"},{"name":"proofNodes","type":"bytes","internalType":"bytes"},{"name":"receiptPath","type":"bytes","internalType":"bytes"},{"name":"logIndex","type":"uint256","internalType":"uint256"}]},{"name":"targetBlockNumber","type":"uint256","internalType":"uint256"}],"outputs":[],"stateMutability":"nonpayable"},{"type":"function","name":"currentPaymentAmount","inputs":[],"outputs":[{"name":"","type":"uint256","internalType":"uint256"}],"stateMutability":"view"},{"type":"function","name":"currentRewardAmount","inputs":[],"outputs":[{"name":"","type":"uint256","internalType":"uint256"}],"stateMutability":"view"},{"type":"function","name":"domainSeparator","inputs":[],"outputs":[{"name":"","type":"bytes32","internalType":"bytes32"}],"stateMutability":"view"},{"type":"function","name":"executionDeadline","inputs":[],"outputs":[{"name":"","type":"uint256","internalType":"uint256"}],"stateMutability":"view"},{"type":"function","name":"expectedAmount","inputs":[],"outputs":[{"name":"","type":"uint256","internalType":"uint256"}],"stateMutability":"view"},{"type":"function","name":"expectedRecipient","inputs":[],"outputs":[{"name":"","type":"address","internalType":"address"}],"stateMutability":"view"},{"type":"function","name":"fund","inputs":[{"name":"_currentRewardAmount","type":"uint256","internalType":"uint256"}],"outputs":[],"stateMutability":"payable"},{"type":"function","name":"funded","inputs":[],"outputs":[{"name":"","type":"bool","internalType":"bool"}],"stateMutability":"view"},{"type":"function","name":"is_bonded","inputs":[],"outputs":[{"name":"","type":"bool","internalType":"bool"}],"stateMutability":"view"},{"type":"function","name":"originalRewardAmount","inputs":[],"outputs":[{"name":"","type":"uint256","internalType":"uint256"}],"stateMutability":"view"},{"type":"function","name":"requestCancellation","inputs":[],"outputs":[],"stateMutability":"nonpayable"},{"type":"function","name":"resume","inputs":[],"outputs":[],"stateMutability":"nonpayable"},{"type":"function","name":"tokenContract","inputs":[],"outputs":[{"name":"","type":"address","internalType":"address"}],"stateMutability":"view"},{"type":"error","name":"AlreadyFunded","inputs":[]},{"type":"error","name":"AmountMismatch","inputs":[]},{"type":"error","name":"BlockHashUnavailable","inputs":[]},{"type":"error","name":"BlockHeaderMismatch","inputs":[]},{"type":"error","name":"BlockNumberMismatch","inputs":[]},{"type":"error","name":"BondActive","inputs":[]},{"type":"error","name":"BondTransferFailed","inputs":[]},{"type":"error","name":"CancellationRequested","inputs":[]},{"type":"error","name":"ECDSAInvalidSignature","inputs":[]},{"type":"error","name":"ECDSAInvalidSignatureLength","inputs":[{"name":"length","type":"uint256","internalType":"uint256"}]},{"type":"error","name":"ECDSAInvalidSignatureS","inputs":[{"name":"s","type":"bytes32","internalType":"bytes32"}]},{"type":"error","name":"ExecutorAlreadyBonded","inputs":[]},{"type":"error","name":"ExpectedBytes32","inputs":[]},{"type":"error","name":"ExpectedRLPList","inputs":[]},{"type":"error","name":"InvalidAddress","inputs":[]},{"type":"error","name":"InvalidBondSignature","inputs":[]},{"type":"error","name":"InvalidRLP","inputs":[]},{"type":"error","name":"InvalidRLPEncoding","inputs":[]},{"type":"error","name":"InvalidRLPList","inputs":[]},{"type":"error","name":"InvalidReceiptProof","inputs":[]},{"type":"error","name":"InvalidTransferEvent","inputs":[]},{"type":"error","name":"NoWithdrawableFunds","inputs":[]},{"type":"error","name":"NotFunded","inputs":[]},{"type":"error","name":"OnlyBondedExecutor","inputs":[]},{"type":"error","name":"OnlyDeployer","inputs":[]},{"type":"error","name":"RLPOffsetOutOfBounds","inputs":[]},{"type":"error","name":"TargetBlockInFuture","inputs":[]},{"type":"error","name":"TargetBlockTooOld","inputs":[]},{"type":"error","name":"ToAddressMismatch","inputs":[]},{"type":"error","name":"TokenTransferFailed","inputs":[]},{"type":"error","name":"WrongEventSignature","inputs":[]},{"type":"error","name":"WrongTokenContract","inputs":[]},{"type":"error","name":"ZeroAddress","inputs":[]},{"type":"error","name":"ZeroBlindedSigner","inputs":[]},{"type":"error","name":"ZeroBondAmount","inputs":[]},{"type":"error","name":"ZeroRewardAmount","inputs":[]}],"bytecode":{"object":"0x6101408060405260a0816126e3803803809161001b828561032b565b8339810103126102a65761002e81610362565b9061003b60208201610362565b906040810151608061004f60608401610362565b920151926001600160a01b0383161561031c5760e0526101005260c0523360a05260405160208101907f8b73c3c69bb8fe3d512ecc4cf759cc79239f7b179b0ffacaa9a75d522b39400f82527fa222588f33d25c694dfae6965a4e2410aa5c3f8d5d6c2f0a3100d528225c8a0860408201527fc89efdaa54c0f20c7adf612882df0950f5a951637e0307cdcb4c672f298b8bc660608201524660808201523060a082015260a0815261010260c08261032b565b5190206080526001600160a01b03821691821561030d5761012052801580156101c8575b60405161236c90816103778239608051818181610a9b01526111a4015260a0518181816101760152818161058c0152818161067f0152610c3c015260c05181818161037a015261063f015260e0518181816105de015261097e015261010051818181610202015281816106d7015261095c015261012051818181610295015281816104db0152818161074a015281816109a00152818161104d01526110df0152f35b60a0516001600160a01b031633036102fe5760ff60065460081c166102ef576102e05734156102d157805f558060025561010051806001553460055581018091116102bd575f91606460209260405194859384926323b872dd60e01b845233600485015230602485015260448401525af19081156102b2575f91610273575b50156102645761010061ff001960065416176006555f8080610126565b63022e258160e11b5f5260045ffd5b90506020813d6020116102aa575b8161028e6020938361032b565b810103126102a6575180151581036102a6575f610247565b5f80fd5b3d9150610281565b6040513d5f823e3d90fd5b634e487b7160e01b5f52601160045260245ffd5b636edb2d2f60e11b5f5260045ffd5b63ea1083a760e01b5f5260045ffd5b635adf638760e01b5f5260045ffd5b63618bbdd560e01b5f5260045ffd5b63d92e233d60e01b5f5260045ffd5b635f39711760e11b5f5260045ffd5b601f909101601f19168101906001600160401b0382119082101761034e57604052565b634e487b7160e01b5f52604160045260245ffd5b51906001600160a01b03821682036102a65756fe60806040526004361015610011575f80fd5b5f3560e01c8063046f7da2146101645780631aa7c0ec1461015f5780632feef2ec1461015a578063308657d71461015557806333ee5f35146101505780633d2691bc1461014b57806355a373d6146101465780635a4fd645146101415780635c56f7ce1461013c5780636332cd85146101375780636b892b221461013257806381972d001461012d5780638677ab23146101285780638bd03d0a14610123578063a967d9321461011e578063ca1d209d14610119578063cb766a5614610114578063d415b3f91461010f578063ede7f6a31461010a578063f3a504f2146101055763f698da2514610100575f80fd5b610a84565b610a5f565b61082b565b61080e565b6107ea565b61066e565b61062a565b61060d565b6105c9565b61057a565b61044b565b61042e565b6102e0565b6102c4565b610280565b610264565b610247565b610225565b6101eb565b6101c3565b346101bf575f3660031901126101bf577f00000000000000000000000000000000000000000000000000000000000000006001600160a01b031633036101b0576006805460ff19169055005b63618bbdd560e01b5f5260045ffd5b5f80fd5b346101bf575f3660031901126101bf576003546040516001600160a01b039091168152602090f35b346101bf575f3660031901126101bf5760206040517f00000000000000000000000000000000000000000000000000000000000000008152f35b346101bf575f3660031901126101bf57602060ff600654166040519015158152f35b346101bf575f3660031901126101bf576020600454604051908152f35b346101bf575f3660031901126101bf5760206040516101008152f35b346101bf575f3660031901126101bf576040517f00000000000000000000000000000000000000000000000000000000000000006001600160a01b03168152602090f35b346101bf575f3660031901126101bf5760205f54604051908152f35b346101bf5760203660031901126101bf5760043567ffffffffffffffff81116101bf57366023820112156101bf57806004013567ffffffffffffffff81116101bf5736602482840101116101bf576004548015159081610424575b50610417575b60065460ff8160081c16156104085760ff166103f95761035f610bb7565b6103ea57602461037092013361113c565b6001600160a01b037f000000000000000000000000000000000000000000000000000000000000000081169116036103dc576103aa610c02565b5f8080806005546103ba5f600555565b335af16103c5610b15565b50156103cd57005b6383e6cc6b60e01b5f5260045ffd5b62b8406360e61b5f5260045ffd5b63129f78e960e11b5f5260045ffd5b632479328960e01b5f5260045ffd5b636af784dd60e11b5f5260045ffd5b61041f610c6c565b610341565b905042115f61033b565b346101bf575f3660031901126101bf576020600554604051908152f35b346101bf575f3660031901126101bf5761046d600160ff196006541617600655565b610475610c2c565b61047d610c6c565b610485610c9d565b600554906104a061ff0019600654166006555f6001555f8055565b6104a95f600555565b801561056b5760405163a9059cbb60e01b815233600482015260248101919091526020816044815f6001600160a01b037f0000000000000000000000000000000000000000000000000000000000000000165af1908115610566575f91610537575b5015610528578061051857005b5f80808093335af16103c5610b15565b63022e258160e11b5f5260045ffd5b610559915060203d60201161055f575b6105518183610ad2565b810190610b44565b5f61050b565b503d610547565b610b5c565b6353cd7f7960e01b5f5260045ffd5b346101bf575f3660031901126101bf577f00000000000000000000000000000000000000000000000000000000000000006001600160a01b031633036101b0576006805460ff19166001179055005b346101bf575f3660031901126101bf576040517f00000000000000000000000000000000000000000000000000000000000000006001600160a01b03168152602090f35b346101bf575f3660031901126101bf576020600154604051908152f35b346101bf575f3660031901126101bf576040517f00000000000000000000000000000000000000000000000000000000000000006001600160a01b03168152602090f35b60203660031901126101bf576004357f00000000000000000000000000000000000000000000000000000000000000006001600160a01b031633036101b05760065460081c60ff166107db5780156107cc5734156107bd57806106d2915f55600255565b6106fb7f0000000000000000000000000000000000000000000000000000000000000000600155565b61070434600555565b610745602061071860025460015490610baa565b6040516323b872dd60e01b8152336004820152306024820152604481019190915291829081906064820190565b03815f7f00000000000000000000000000000000000000000000000000000000000000006001600160a01b03165af1908115610566575f9161079e575b50156105285761079c61010061ff00196006541617600655565b005b6107b7915060203d60201161055f576105518183610ad2565b5f610782565b636edb2d2f60e11b5f5260045ffd5b63ea1083a760e01b5f5260045ffd5b635adf638760e01b5f5260045ffd5b346101bf575f3660031901126101bf576020610804610bb7565b6040519015158152f35b346101bf575f3660031901126101bf576020600254604051908152f35b346101bf5760403660031901126101bf5760043567ffffffffffffffff81116101bf578060040160a060031983360301126101bf5760243561086d8280610bcf565b6006546108829060081c60ff161590565b1590565b610408576003546108a3906001600160a01b03165b6001600160a01b031690565b3314801590610a4e575b610a3f57438311610a30576101006108c58443610ccc565b11610a215782408015610a12576108dd368385610cd9565b6020815191012003610a03576108f2916111f6565b036109f45761090a6109048280610bcf565b90610d3d565b9161094461087e60248301946109208686610bcf565b9061092e6044870188610bcf565b9061093c606489018a610bcf565b949093610dad565b6109e557608461095a6109ca9461087e94610bcf565b7f0000000000000000000000000000000000000000000000000000000000000000937f0000000000000000000000000000000000000000000000000000000000000000937f0000000000000000000000000000000000000000000000000000000000000000939101359190610e31565b6109d65761079c610fcb565b6364fa89e160e11b5f5260045ffd5b637b374dd160e01b5f5260045ffd5b63048a12f560e11b5f5260045ffd5b63ff28378760e01b5f5260045ffd5b63bfc9f0d360e01b5f5260045ffd5b63c42a018560e01b5f5260045ffd5b63058968cf60e41b5f5260045ffd5b6337b5f20360e21b5f5260045ffd5b50610a5a61087e610bb7565b6108ad565b346101bf575f3660031901126101bf57602060ff60065460081c166040519015158152f35b346101bf575f3660031901126101bf5760206040517f00000000000000000000000000000000000000000000000000000000000000008152f35b634e487b7160e01b5f52604160045260245ffd5b90601f8019910116810190811067ffffffffffffffff821117610af457604052565b610abe565b67ffffffffffffffff8111610af457601f01601f191660200190565b3d15610b3f573d90610b2682610af9565b91610b346040519384610ad2565b82523d5f602084013e565b606090565b908160209103126101bf575180151581036101bf5790565b6040513d5f823e3d90fd5b634e487b7160e01b5f52601160045260245ffd5b9060018201809211610b8957565b610b67565b6001019081600111610b8957565b9060158201809211610b8957565b91908201809211610b8957565b6004548015159081610bc7575090565b905042111590565b903590601e19813603018212156101bf570180359067ffffffffffffffff82116101bf576020019181360383136101bf57565b336bffffffffffffffffffffffff60a01b600354161760035561012c4201804211610b8957600455565b60ff60065460081c1615610408577f00000000000000000000000000000000000000000000000000000000000000006001600160a01b031633036101b057565b610c74610bb7565b610c8e57600380546001600160a01b03191690555f600455565b639cbc1de160e01b5f5260045ffd5b6001546002548101809111610b895790565b600119810191908211610b8957565b5f19810191908211610b8957565b91908203918211610b8957565b929192610ce582610af9565b91610cf36040519384610ad2565b8294818452818301116101bf578281602093845f960137010152565b634e487b7160e01b5f52603260045260245ffd5b9015610d2c5790565b610d0f565b90821015610d2c570190565b90610d4881836112b2565b905f5b60058110610d985750600560fd1b906001600160f81b031990610d7090849086610d31565b351603610d8957600181018111610b8957016001013590565b633954003560e11b5f5260045ffd5b91610da660019183866113e6565b9201610d4b565b610dc3610dcb92939495610dd198973691610cd9565b923691610cd9565b9061156e565b90565b60ff60f6199116019060ff8211610b8957565b60ff607f199116019060ff8211610b8957565b60ff60bf199116019060ff8211610b8957565b60ff60b6199116019060ff8211610b8957565b60ff166001019060ff8211610b8957565b9594939291905f818881151580610faf575b610fa1575b610e71610e6b610e5d8560c09560ff95610d31565b356001600160f81b03191690565b60f81c90565b1610610f6b57808860f860ff610e8f610e6b610e5d88978887610d31565b1610610f9157610ebc610eb7610eb2610e6b610e5d86610ec898610ec297610d31565b610dd4565b610e20565b60ff1690565b90610baa565b81885f5b60038110610f7a5750610ebc610e6b610e5d8560c095610eeb95610d31565b10610f6b57808860f8610f09610ebc610e6b610e5d88978887610d31565b10610f5a57610ebc610eb7610eb2610e6b610e5d86610f2b98610ec297610d31565b915b5f905b808210610f43575050610dd1959661171b565b9092610f52600191848b6113e6565b930190610f30565b50610f659150610b7b565b91610f2d565b631bd5dcf760e31b5f5260045ffd5b92600192610f87926113e6565b9101888391610ecc565b50610f9c9150610b7b565b610ec8565b506001915082905088610e48565b50608060ff610fc4610e6b610e5d8686610d23565b1610610e43565b610fd36117eb565b6003546001600160a01b03166110116bffffffffffffffffffffffff60a01b600354166003555f60045561ff0019600654166006555f6001555f8055565b4662aa36a7036110ad57604051633419e74d60e21b81526001600160a01b0390911660048201526024810191909152602081806044810103815f7f00000000000000000000000000000000000000000000000000000000000000006001600160a01b03165af1908115610566575f9161108e575b505b1561052857565b6110a7915060203d60201161055f576105518183610ad2565b5f611085565b60405163a9059cbb60e01b81526001600160a01b0390911660048201526024810191909152602081806044810103815f7f00000000000000000000000000000000000000000000000000000000000000006001600160a01b03165af1908115610566575f9161111d575b50611087565b611136915060203d60201161055f576105518183610ad2565b5f611117565b916111e76111ed92610dd19460405160208101917f017ab2ce48f3ed2b84d1da9d31a578e8a2f60972b9bfce11127c1725944faa11835260018060a01b031660408201526040815261118f606082610ad2565b519020604051602081019161190160f01b83527f000000000000000000000000000000000000000000000000000000000000000060228301526042820152604281526111dc606282610ad2565b519020923691610cd9565b90611e4e565b90929192611ea6565b61120082826112b2565b915f5b6008811061129d575061121d610e6b610e5d858486610d31565b925f9260ff851694608086105f1461123757505050505090565b6112489193949550610ebc90610de7565b915f935b83851061125b57505050505090565b909192939461126c60019160081b90565b611291610ebc610e6b610e5d61128a8b6112858b610b7b565b610baa565b8789610d31565b1795019392919061124c565b926112ab60019183856113e6565b9301611203565b5f600360fe1b6001600160f81b03196112ce610e5d8686610d23565b16106113ae57601f60fb1b6001600160f81b03196112ef610e5d8686610d23565b16106113dd5780610ec2610ebc610eb7610eb2610e6b610e5d611313978a8a610d31565b905b61a5bd461480156113d2575b61132c575b50905090565b5f5b600381106113bd5750600360fe1b61135a61134d610e5d858786610d31565b6001600160f81b03191690565b106113ae57601f60fb1b61137561134d610e5d858786610d31565b1061139e57610ebc610eb7610eb2610e6b610e5d8661139798610ec297610d31565b805f611326565b506113a99150610b7b565b611397565b63c0098bd960e01b5f5260045ffd5b916113cb60019185846113e6565b920161132e565b5061a5bf4614611321565b50600190611315565b91908082101561154157611401610e6b610e5d848487610d31565b9060ff8216608081101561141c57505050610dd19150610b7b565b91929160b8811015611444575050610dd19250610ebc61143e610ec292610b7b565b92610de7565b90929060c08110156114ba5750610ebc61146091949394610e0d565b915f935f915b84831061148157505050610dd1929161128561128592610b7b565b90919461149060019160081b90565b6114b0610ebc610e6b610e5d6114a98b6112858b610b7b565b8888610d31565b1795019190611466565b90929060f811156114e05750610dd19250610ebc6114da610ec292610b7b565b92610dfa565b9291610ebc6114ee91610dd4565b915f935f915b84831061150f57505050610dd1929161128561128592610b7b565b90919461151e60019160081b90565b611537610ebc610e6b610e5d6114a98b6112858b610b7b565b17950191906114f4565b6318d76ae160e11b5f5260045ffd5b805115610d2c5760200190565b908151811015610d2c570160200190565b919390929190600360fe1b6001600160f81b031961158f610e5d8689610d23565b161061170c57601f60fb1b6001600160f81b03196115b0610e5d8689610d23565b1610611702576115d46115cf610ebc610eb2610e6b610e5d888b610d23565b610b8e565b9492905b945f5b8282106115ed57505050505050505f90565b61160b611604836115ff36878a610cd9565b611850565b9093610baa565b9682516020840120036116a057600360fe1b61163a61134d61162c85611550565b516001600160f81b03191690565b106116a0578590846001601f60fb1b61165861134d61162c88611550565b10156116e4575b61166981866119f7565b601181036116ab575061167b94611b82565b9491156116a05784156116945793915b919590936115db565b50505050505050600190565b505050505050505f90565b9093506002141590506116d8578487926116c494611a3c565b9491156116a057841561169457939161168b565b50505050505050505f90565b506116fd6115cf610ebc610eb2610e6b61162c89611550565b61165f565b60019492906115d8565b63ebb47d1d60e01b5f5260045ffd5b91949392948060c060ff611736610e6b610e5d85888a610d31565b1610610f6b5760f860ff611751610e6b610e5d85888a610d31565b16106117db575080610ec2610ebc610eb7610eb2610e6b610e5d61177697898b610d31565b945b609460ff61178d610e6b610e5d8a8789610d31565b16036117cc576001600160a01b03168286016001013560601c036117bd576117b7610dd195610b9c565b91611c97565b63a087f96f60e01b5f5260045ffd5b63e6c4247b60e01b5f5260045ffd5b6117e59150610b7b565b94611778565b5f546001548101809111610b895790565b6040805190919061180d8382610ad2565b6001815291601f1901366020840137565b9061182882610af9565b6118356040519182610ad2565b8281528092611846601f1991610af9565b0190602036910137565b805182101561154157611869610e6b61162c848461155d565b9160ff831660808110156118a2575050506118826117fc565b9060f81b6001600160f81b0319165f1a61189b82611550565b5390600190565b919392909160b881101561190c5750610ebc6118bd91610de7565b906118c78261181e565b935f5b8381106118dd57505050610dd190610b8e565b806118f961162c6118f360019461128588610b7b565b8561155d565b5f1a611905828961155d565b53016118ca565b60c011156119aa57610ebc61192091610e0d565b5f915f5b82811061197c57506119358361181e565b945f5b84811061194f5750505090611285610dd192610b8e565b8061196961162c6118f3600194611285896112858a610b7b565b5f1a611975828a61155d565b5301611938565b9260019060081b6119a2610ebc610e6b61162c61199c8961128589610b7b565b8b61155d565b179301611924565b50916119b68382611f22565b926119c08461181e565b915f5b8581106119d1575050509190565b806119e461162c6118f360019487610baa565b5f1a6119f0828761155d565b53016119c3565b5f92915b8151811015611a2257611a0e8183611f22565b8101809111610b89576001909301926119fb565b5050565b908160011b9180830460021490151715610b8957565b83949291611a4a8183611850565b9390611a696020611a60610e6b61162c85611550565b1615159161204f565b97889115611b0b5750611a7d905187610baa565b611a878251611a26565b14611a9c575b505050505050505f905f905f90565b86866001928251611af9575b505050611ab6575b80611a8d565b611ac992611ac391610baa565b90611850565b5060208151910120906020815191012014611ae75780808080611ab0565b611af2915190610baa565b6001915f90565b611b0393506121ba565b86865f611aa8565b611b1c939495965061087e926121ba565b611b7557611b2d92611ac391610baa565b50908151602081145f14611b5557506020611b4d920151925b5190610baa565b916001929190565b8015611b69576020611b4d93012092611b46565b505050505f905f905f90565b50505050505f905f905f90565b91909293611b908251611a26565b851015611c3a5750610e6b61162c611bb292611bac8760011c90565b9061155d565b60018416611c315760041c600f16915b905f925b60ff81168410611c115750611bdb9250611850565b5080518015611c0657611b4d9160208203611bfc5760209150015191610b7b565b6020012091610b7b565b5050505f905f905f90565b90916001611c2582610ec260ff9487611f22565b94019392919050611bc6565b600f1691611bc2565b9290509392935f915b60108310611c7d57611c559250611850565b50602081519101209060208151910120145f14611c7457600191905f90565b5f915081908190565b90611c8e81610ec260019385611f22565b92019190611c43565b929190918160c060ff611cb1610e6b610e5d87898b610d31565b1610610f6b5760f860ff611ccc610e6b610e5d87898b610d31565b1610611e3f5780610ec2610ebc610eb7610eb2610e6b610e5d611cf0978b8d610d31565b7fddf252ad1be2c89b69c2b068fc378daa952ba7f163c4a11628f55a4df523b3ef611d1c828688612278565b03611e3057610897610897611d3f611d38611d4694888a6113e6565b87896113e6565b8688612278565b6001600160a01b03918216911603611e2157611d639082846113e6565b905f91611d77610e6b610e5d838588610d31565b60ff811694906080861015611da55750505050505b03611d9657600190565b6355e97b0d60e01b5f5260045ffd5b9091929394608081145f14611dc0575050505050505f611d8c565b60a010610f6b57610ebc611dd691939293610de7565b915f935b838510611deb575050505050611d8c565b9091929394611dfc60019160081b90565b611e15610ebc610e6b610e5d61128a8b6112858b610b7b565b17950193929190611dda565b634cd4b7b160e01b5f5260045ffd5b6324da545d60e11b5f5260045ffd5b50611e4982610b7b565b611cf0565b8151919060418303611e7e57611e779250602082015190606060408401519301515f1a906122b4565b9192909190565b50505f9160029190565b60041115611e9257565b634e487b7160e01b5f52602160045260245ffd5b611eaf81611e88565b80611eb8575050565b611ec181611e88565b60018103611ed85763f645eedf60e01b5f5260045ffd5b611ee181611e88565b60028103611efc575063fce698f760e01b5f5260045260245ffd5b80611f08600392611e88565b14611f105750565b6335e2f38360e21b5f5260045260245ffd5b90815181101561154157611f3c610e6b61162c838561155d565b9160ff83166080811015611f535750505050600190565b60b8811015611f6e57505050610ebc610eb7610dd192610de7565b60c0811015611fda575091610ebc611f8591610e0d565b905f925f915b838310611fa25750505090611285610dd192610b8e565b909193611fb160019160081b90565b611fd0610ebc610e6b61162c611fca8a61128589610b7b565b8861155d565b1794019190611f8b565b60f81115611ff3575050610ebc610eb7610dd192610dfa565b91610ebc61200091610dd4565b905f925f915b83831061201d5750505090611285610dd192610b8e565b90919361202c60019160081b90565b612045610ebc610e6b61162c611fca8a61128589610b7b565b1794019190612006565b908151156121b857612066610e6b61162c84611550565b60108116156121355761208961208461207f8551611a26565b610cbe565b61181e565b9060f81b600f60f81b165f1a61209e82611550565b5360015b835181101561213057806120dd6120cd6120c4610e6b61162c6001968a61155d565b60041c600f1690565b60f81b6001600160f81b03191690565b6120f66120ec61207f84611a26565b915f1a918561155d565b5361211d600f61210c610e6b61162c858a61155d565b1660f81b6001600160f81b03191690565b6121296120ec83611a26565b53016120a2565b509150565b5061214b6120846121468451611a26565b610caf565b60015b835181101561213057806121706120cd6120c4610e6b61162c6001968a61155d565b6121846120ec61217f84610cbe565b611a26565b5361219a600f61210c610e6b61162c858a61155d565b6121b16120ec6121ac61217f85610cbe565b610b7b565b530161214e565b565b9190916121c8825184610baa565b6121d28251611a26565b10612271575f5b8251811015612268576121f56121ef8286610baa565b60011690565b61224a5761221e6120c4610e6b61162c612218612212868a610baa565b60011c90565b8661155d565b60ff612233610ebc610e6b61162c868961155d565b911603612242576001016121d9565b505050505f90565b600f612262610e6b61162c612218612212868a610baa565b1661221e565b50505050600190565b5050505f90565b9190600560fd1b906001600160f81b03199061229690849086610d31565b3516036122a557016001013590565b63f0ff325b60e01b5f5260045ffd5b91907f7fffffffffffffffffffffffffffffff5d576e7357a4501ddfe92f46681b20a0841161232b579160209360809260ff5f9560405194855216868401526040830152606082015282805260015afa15610566575f516001600160a01b0381161561232157905f905f90565b505f906001905f90565b5050505f916003919056fea26469706673582212204d0eb1c8f0c8d2ddee5a16115ec63f41ccc740dc56578582c6f2588f3a326b0364736f6c634300081e0033","linkReferences":{}},"methodIdentifiers":{"MAX_BLOCK_LOOKBACK()":"3d2691bc","blindedSigner()":"a967d932","bond(bytes)":"5c56f7ce","bondPot()":"6332cd85","bondedExecutor()":"1aa7c0ec","cancelAndWithdraw()":"6b892b22","cancellationRequest()":"308657d7","collect((bytes,bytes,bytes,bytes,uint256),uint256)":"ede7f6a3","currentPaymentAmount()":"8bd03d0a","currentRewardAmount()":"5a4fd645","domainSeparator()":"f698da25","executionDeadline()":"33ee5f35","expectedAmount()":"2feef2ec","expectedRecipient()":"8677ab23","fund(uint256)":"ca1d209d","funded()":"f3a504f2","is_bonded()":"cb766a56","originalRewardAmount()":"d415b3f9","requestCancellation()":"81972d00","resume()":"046f7da2","tokenContract()":"55a373d6"},"id":22}