{"abi":[{"type":"constructor","inputs":[{"name":"_tokenContract","type":"address","internalType":"address"},{"name":"_expectedRecipient","type":"address","internalType":"address"},{"name":"_expectedAmount","type":"uint256","internalType":"uint256"},{"name":"_currentRewardAmount","type":"uint256","internalType":"uint256"},{"name":"_currentPaymentAmount","type":"uint256","internalType":"uint256"}],"stateMutability":"nonpayable"},{"type":"function","name":"MAX_BLOCK_LOOKBACK","inputs":[],"outputs":[{"name":"","type":"uint256","internalType":"uint256"}],"stateMutability":"view"},{"type":"function","name":"bond","inputs":[{"name":"_bondAmount","type":"uint256","internalType":"uint256"}],"outputs":[],"stateMutability":"nonpayable"},{"type":"function","name":"bondAmount","inputs":[],"outputs":[{"name":"","type":"uint256","internalType":"uint256"}],"stateMutability":"view"},{"type":"function","name":"bondedExecutor","inputs":[],"outputs":[{"name":"","type":"address","internalType":"address"}],"stateMutability":"view"},{"type":"function","name":"cancelAndWithdraw","inputs":[],"outputs":[],"stateMutability":"nonpayable"},{"type":"function","name":"cancellationRequest","inputs":[],"outputs":[{"name":"","type":"bool","internalType":"bool"}],"stateMutability":"view"},{"type":"function","name":"collect","inputs":[{"name":"proof","type":"tuple","internalType":"struct EscrowERC20.ReceiptProof","components":[{"name":"blockHeader","type":"bytes","internalType":"bytes"},{"name":"receiptRlp","type":"bytes","internalType":"bytes"},{"name":"proofNodes","type":"bytes","internalType":"bytes"},{"name":"receiptPath","type":"bytes","internalType":"bytes"},{"name":"logIndex","type":"uint256","internalType":"uint256"}]},{"name":"targetBlockNumber","type":"uint256","internalType":"uint256"}],"outputs":[],"stateMutability":"nonpayable"},{"type":"function","name":"currentPaymentAmount","inputs":[],"outputs":[{"name":"","type":"uint256","internalType":"uint256"}],"stateMutability":"view"},{"type":"function","name":"currentRewardAmount","inputs":[],"outputs":[{"name":"","type":"uint256","internalType":"uint256"}],"stateMutability":"view"},{"type":"function","name":"executionDeadline","inputs":[],"outputs":[{"name":"","type":"uint256","internalType":"uint256"}],"stateMutability":"view"},{"type":"function","name":"expectedAmount","inputs":[],"outputs":[{"name":"","type":"uint256","internalType":"uint256"}],"stateMutability":"view"},{"type":"function","name":"expectedRecipient","inputs":[],"outputs":[{"name":"","type":"address","internalType":"address"}],"stateMutability":"view"},{"type":"function","name":"fund","inputs":[{"name":"_currentRewardAmount","type":"uint256","internalType":"uint256"},{"name":"_currentPaymentAmount","type":"uint256","internalType":"uint256"}],"outputs":[],"stateMutability":"nonpayable"},{"type":"function","name":"funded","inputs":[],"outputs":[{"name":"","type":"bool","internalType":"bool"}],"stateMutability":"view"},{"type":"function","name":"is_bonded","inputs":[],"outputs":[{"name":"","type":"bool","internalType":"bool"}],"stateMutability":"view"},{"type":"function","name":"originalRewardAmount","inputs":[],"outputs":[{"name":"","type":"uint256","internalType":"uint256"}],"stateMutability":"view"},{"type":"function","name":"requestCancellation","inputs":[],"outputs":[],"stateMutability":"nonpayable"},{"type":"function","name":"resume","inputs":[],"outputs":[],"stateMutability":"nonpayable"},{"type":"function","name":"tokenContract","inputs":[],"outputs":[{"name":"","type":"address","internalType":"address"}],"stateMutability":"view"},{"type":"function","name":"totalBondsDeposited","inputs":[],"outputs":[{"name":"","type":"uint256","internalType":"uint256"}],"stateMutability":"view"},{"type":"error","name":"AlreadyFunded","inputs":[]},{"type":"error","name":"AmountMismatch","inputs":[]},{"type":"error","name":"BlockHashUnavailable","inputs":[]},{"type":"error","name":"BlockHeaderMismatch","inputs":[]},{"type":"error","name":"BlockNumberMismatch","inputs":[]},{"type":"error","name":"BondActive","inputs":[]},{"type":"error","name":"CancellationRequested","inputs":[]},{"type":"error","name":"ExecutorAlreadyBonded","inputs":[]},{"type":"error","name":"ExpectedBytes32","inputs":[]},{"type":"error","name":"ExpectedRLPList","inputs":[]},{"type":"error","name":"InsufficientBond","inputs":[]},{"type":"error","name":"InvalidAddress","inputs":[]},{"type":"error","name":"InvalidRLP","inputs":[]},{"type":"error","name":"InvalidRLPEncoding","inputs":[]},{"type":"error","name":"InvalidRLPList","inputs":[]},{"type":"error","name":"InvalidReceiptProof","inputs":[]},{"type":"error","name":"InvalidTransferEvent","inputs":[]},{"type":"error","name":"NoWithdrawableFunds","inputs":[]},{"type":"error","name":"NotFunded","inputs":[]},{"type":"error","name":"OnlyBondedExecutor","inputs":[]},{"type":"error","name":"OnlyDeployer","inputs":[]},{"type":"error","name":"RLPOffsetOutOfBounds","inputs":[]},{"type":"error","name":"TargetBlockInFuture","inputs":[]},{"type":"error","name":"TargetBlockTooOld","inputs":[]},{"type":"error","name":"ToAddressMismatch","inputs":[]},{"type":"error","name":"TokenTransferFailed","inputs":[]},{"type":"error","name":"WrongEventSignature","inputs":[]},{"type":"error","name":"WrongTokenContract","inputs":[]},{"type":"error","name":"ZeroAddress","inputs":[]},{"type":"error","name":"ZeroPaymentAmount","inputs":[]},{"type":"error","name":"ZeroRewardAmount","inputs":[]}],"bytecode":{"object":"0x61010080604052346101c15760a08161231b80380380916100208285610231565b8339810103126101c15761003381610268565b9061004060208201610268565b6040820151608060608401519301519160a05260c0523360805260018060a01b0383169283156102225760e0528115801580610219575b6100fc575b60405161209e908161027d82396080518181816101660152818161040c015281816105790152610a87015260a05181818161045e015261084c015260c0518181816101f2015261082a015260e05181818161028501528181610353015281816105000152818161061a0152818161086e01528181610f8501526110170152f35b60ff60075460081c1661020a576101fb5780156101ec57815f55816002558060015581018091116101d8575f91606460209260405194859384926323b872dd60e01b845233600485015230602485015260448401525af19081156101cd575f9161018e575b501561017f5761010061ff001960075416176007555f80808061007c565b63022e258160e11b5f5260045ffd5b90506020813d6020116101c5575b816101a960209383610231565b810103126101c1575180151581036101c1575f610161565b5f80fd5b3d915061019c565b6040513d5f823e3d90fd5b634e487b7160e01b5f52601160045260245ffd5b63932ca0a360e01b5f5260045ffd5b63ea1083a760e01b5f5260045ffd5b635adf638760e01b5f5260045ffd5b50811515610077565b63d92e233d60e01b5f5260045ffd5b601f909101601f19168101906001600160401b0382119082101761025457604052565b634e487b7160e01b5f52604160045260245ffd5b51906001600160a01b03821682036101c15756fe60806040526004361015610011575f80fd5b5f3560e01c8063046f7da2146101545780631aa7c0ec1461014f5780632feef2ec1461014a578063308657d71461014557806333ee5f35146101405780633d2691bc1461013b57806355a373d6146101365780635a4fd645146101315780636b892b221461012c57806380f323a71461012757806381972d00146101225780638677ab231461011d5780638bd03d0a146101185780639940686e14610113578063a65e2cfd1461010e578063cb766a5614610109578063d415b3f914610104578063ede7f6a3146100ff578063f3a504f2146100fa5763fe03a460146100f5575f80fd5b610961565b61093c565b6106f9565b6106dc565b6106b8565b610560565b6104aa565b61048d565b610449565b6103fa565b6103dd565b6102d0565b6102b4565b610270565b610254565b610237565b610215565b6101db565b6101b3565b346101af575f3660031901126101af577f00000000000000000000000000000000000000000000000000000000000000006001600160a01b031633036101a0576007805460ff19169055005b63618bbdd560e01b5f5260045ffd5b5f80fd5b346101af575f3660031901126101af576003546040516001600160a01b039091168152602090f35b346101af575f3660031901126101af5760206040517f00000000000000000000000000000000000000000000000000000000000000008152f35b346101af575f3660031901126101af57602060ff600754166040519015158152f35b346101af575f3660031901126101af576020600454604051908152f35b346101af575f3660031901126101af5760206040516101008152f35b346101af575f3660031901126101af576040517f00000000000000000000000000000000000000000000000000000000000000006001600160a01b03168152602090f35b346101af575f3660031901126101af5760205f54604051908152f35b346101af575f3660031901126101af576102f2600160ff196007541617600755565b6102fa610a77565b610302610ab7565b61030a610aee565b61032161ff0019600754166007555f6001555f8055565b80156103ce5760405163a9059cbb60e01b815233600482015260248101919091526020816044815f6001600160a01b037f0000000000000000000000000000000000000000000000000000000000000000165af19081156103c9575f9161039a575b501561038b57005b63022e258160e11b5f5260045ffd5b6103bc915060203d6020116103c2575b6103b48183610992565b8101906109b9565b5f610383565b503d6103aa565b6109d1565b6353cd7f7960e01b5f5260045ffd5b346101af575f3660031901126101af576020600554604051908152f35b346101af575f3660031901126101af577f00000000000000000000000000000000000000000000000000000000000000006001600160a01b031633036101a0576007805460ff19166001179055005b346101af575f3660031901126101af576040517f00000000000000000000000000000000000000000000000000000000000000006001600160a01b03168152602090f35b346101af575f3660031901126101af576020600154604051908152f35b346101af5760203660031901126101af576004356104c6610b00565b6104cf81610b49565b6040516323b872dd60e01b8152336004820152306024820152604481018290526020816064815f6001600160a01b037f0000000000000000000000000000000000000000000000000000000000000000165af19081156103c9575f91610541575b501561038b5761053f90610ba4565b005b61055a915060203d6020116103c2576103b48183610992565b5f610530565b346101af5760403660031901126101af576004356024357f00000000000000000000000000000000000000000000000000000000000000006001600160a01b031633036101a05760075460081c60ff166106a957811561069a57801561068b576105cf826105d4935f55600255565b600155565b61061560206105e860025460015490610a1f565b6040516323b872dd60e01b8152336004820152306024820152604481019190915291829081906064820190565b03815f7f00000000000000000000000000000000000000000000000000000000000000006001600160a01b03165af19081156103c9575f9161066c575b501561038b5761053f61010061ff00196007541617600755565b610685915060203d6020116103c2576103b48183610992565b5f610652565b63932ca0a360e01b5f5260045ffd5b63ea1083a760e01b5f5260045ffd5b635adf638760e01b5f5260045ffd5b346101af575f3660031901126101af5760206106d2610a2c565b6040519015158152f35b346101af575f3660031901126101af576020600254604051908152f35b346101af5760403660031901126101af5760043567ffffffffffffffff81116101af578060040160a060031983360301126101af5760243561073b8280610a44565b6007546107509060081c60ff161590565b1590565b61092d57600354610771906001600160a01b03165b6001600160a01b031690565b331480159061091c575b61090d574383116108fe576101006107938443610be9565b116108ef57824080156108e0576107ab368385610c12565b60208151910120036108d1576107c091611074565b036108c2576107d86107d28280610a44565b90610c76565b9161081261074c60248301946107ee8686610a44565b906107fc6044870188610a44565b9061080a606489018a610a44565b949093610ce6565b6108b35760846108286108989461074c94610a44565b7f0000000000000000000000000000000000000000000000000000000000000000937f0000000000000000000000000000000000000000000000000000000000000000937f0000000000000000000000000000000000000000000000000000000000000000939101359190610d6a565b6108a45761053f610f04565b6364fa89e160e11b5f5260045ffd5b637b374dd160e01b5f5260045ffd5b63048a12f560e11b5f5260045ffd5b63ff28378760e01b5f5260045ffd5b63bfc9f0d360e01b5f5260045ffd5b63c42a018560e01b5f5260045ffd5b63058968cf60e41b5f5260045ffd5b6337b5f20360e21b5f5260045ffd5b5061092861074c610a2c565b61077b565b636af784dd60e11b5f5260045ffd5b346101af575f3660031901126101af57602060ff60075460081c166040519015158152f35b346101af575f3660031901126101af576020600654604051908152f35b634e487b7160e01b5f52604160045260245ffd5b90601f8019910116810190811067ffffffffffffffff8211176109b457604052565b61097e565b908160209103126101af575180151581036101af5790565b6040513d5f823e3d90fd5b634e487b7160e01b5f52601160045260245ffd5b90600182018092116109fe57565b6109dc565b60010190816001116109fe57565b90601582018092116109fe57565b919082018092116109fe57565b6004548015159081610a3c575090565b905042111590565b903590601e19813603018212156101af570180359067ffffffffffffffff82116101af576020019181360383136101af57565b60ff60075460081c161561092d577f00000000000000000000000000000000000000000000000000000000000000006001600160a01b031633036101a057565b610abf610a2c565b610adf576001600160601b0360a01b600354166003555f6005555f600455565b639cbc1de160e01b5f5260045ffd5b60015460025481018091116109fe5790565b6004548015159081610b3f575b50610b1457565b6005545f548181018091116109fe575f556006549081018091116109fe57600655610b3d610ab7565b565b905042115f610b0d565b60075460ff8160081c161561092d5760ff16610b9557610b67610a2c565b610b86575f5460011c11610b7757565b63e92c469f60e01b5f5260045ffd5b63129f78e960e11b5f5260045ffd5b632479328960e01b5f5260045ffd5b336001600160601b0360a01b600354161760035561012c42018042116109fe57600455600555565b6001198101919082116109fe57565b5f198101919082116109fe57565b919082039182116109fe57565b67ffffffffffffffff81116109b457601f01601f191660200190565b929192610c1e82610bf6565b91610c2c6040519384610992565b8294818452818301116101af578281602093845f960137010152565b634e487b7160e01b5f52603260045260245ffd5b9015610c655790565b610c48565b90821015610c65570190565b90610c818183611130565b905f5b60058110610cd15750600560fd1b906001600160f81b031990610ca990849086610c6a565b351603610cc2576001810181116109fe57016001013590565b633954003560e11b5f5260045ffd5b91610cdf6001918386611264565b9201610c84565b610cfc610d0492939495610d0a98973691610c12565b923691610c12565b906113ec565b90565b60ff60f6199116019060ff82116109fe57565b60ff607f199116019060ff82116109fe57565b60ff60bf199116019060ff82116109fe57565b60ff60b6199116019060ff82116109fe57565b60ff166001019060ff82116109fe57565b9594939291905f818881151580610ee8575b610eda575b610daa610da4610d968560c09560ff95610c6a565b356001600160f81b03191690565b60f81c90565b1610610ea457808860f860ff610dc8610da4610d9688978887610c6a565b1610610eca57610df5610df0610deb610da4610d9686610e0198610dfb97610c6a565b610d0d565b610d59565b60ff1690565b90610a1f565b81885f5b60038110610eb35750610df5610da4610d968560c095610e2495610c6a565b10610ea457808860f8610e42610df5610da4610d9688978887610c6a565b10610e9357610df5610df0610deb610da4610d9686610e6498610dfb97610c6a565b915b5f905b808210610e7c575050610d0a9596611599565b9092610e8b600191848b611264565b930190610e69565b50610e9e91506109f0565b91610e66565b631bd5dcf760e31b5f5260045ffd5b92600192610ec092611264565b9101888391610e05565b50610ed591506109f0565b610e01565b506001915082905088610d81565b50608060ff610efd610da4610d968686610c5c565b1610610d7c565b610f0c611669565b6003546001600160a01b0316610f496001600160601b0360a01b600354166003555f6005555f60045561ff0019600754166007555f6001555f8055565b4662aa36a703610fe557604051633419e74d60e21b81526001600160a01b0390911660048201526024810191909152602081806044810103815f7f00000000000000000000000000000000000000000000000000000000000000006001600160a01b03165af19081156103c9575f91610fc6575b505b1561038b57565b610fdf915060203d6020116103c2576103b48183610992565b5f610fbd565b60405163a9059cbb60e01b81526001600160a01b0390911660048201526024810191909152602081806044810103815f7f00000000000000000000000000000000000000000000000000000000000000006001600160a01b03165af19081156103c9575f91611055575b50610fbf565b61106e915060203d6020116103c2576103b48183610992565b5f61104f565b61107e8282611130565b915f5b6008811061111b575061109b610da4610d96858486610c6a565b925f9260ff851694608086105f146110b557505050505090565b6110c69193949550610df590610d20565b915f935b8385106110d957505050505090565b90919293946110ea60019160081b90565b61110f610df5610da4610d966111088b6111038b6109f0565b610a1f565b8789610c6a565b179501939291906110ca565b926111296001918385611264565b9301611081565b5f600360fe1b6001600160f81b031961114c610d968686610c5c565b161061122c57601f60fb1b6001600160f81b031961116d610d968686610c5c565b161061125b5780610dfb610df5610df0610deb610da4610d96611191978a8a610c6a565b905b61a5bd46148015611250575b6111aa575b50905090565b5f5b6003811061123b5750600360fe1b6111d86111cb610d96858786610c6a565b6001600160f81b03191690565b1061122c57601f60fb1b6111f36111cb610d96858786610c6a565b1061121c57610df5610df0610deb610da4610d968661121598610dfb97610c6a565b805f6111a4565b5061122791506109f0565b611215565b63c0098bd960e01b5f5260045ffd5b916112496001918584611264565b92016111ac565b5061a5bf461461119f565b50600190611193565b9190808210156113bf5761127f610da4610d96848487610c6a565b9060ff8216608081101561129a57505050610d0a91506109f0565b91929160b88110156112c2575050610d0a9250610df56112bc610dfb926109f0565b92610d20565b90929060c08110156113385750610df56112de91949394610d46565b915f935f915b8483106112ff57505050610d0a9291611103611103926109f0565b90919461130e60019160081b90565b61132e610df5610da4610d966113278b6111038b6109f0565b8888610c6a565b17950191906112e4565b90929060f8111561135e5750610d0a9250610df5611358610dfb926109f0565b92610d33565b9291610df561136c91610d0d565b915f935f915b84831061138d57505050610d0a9291611103611103926109f0565b90919461139c60019160081b90565b6113b5610df5610da4610d966113278b6111038b6109f0565b1795019190611372565b6318d76ae160e11b5f5260045ffd5b805115610c655760200190565b908151811015610c65570160200190565b919390929190600360fe1b6001600160f81b031961140d610d968689610c5c565b161061158a57601f60fb1b6001600160f81b031961142e610d968689610c5c565b16106115805761145261144d610df5610deb610da4610d96888b610c5c565b610a03565b9492905b945f5b82821061146b57505050505050505f90565b6114896114828361147d36878a610c12565b6116da565b9093610a1f565b96825160208401200361151e57600360fe1b6114b86111cb6114aa856113ce565b516001600160f81b03191690565b1061151e578590846001601f60fb1b6114d66111cb6114aa886113ce565b1015611562575b6114e78186611881565b6011810361152957506114f994611a0c565b94911561151e5784156115125793915b91959093611459565b50505050505050600190565b505050505050505f90565b90935060021415905061155657848792611542946118c6565b94911561151e578415611512579391611509565b50505050505050505f90565b5061157b61144d610df5610deb610da46114aa896113ce565b6114dd565b6001949290611456565b63ebb47d1d60e01b5f5260045ffd5b91949392948060c060ff6115b4610da4610d9685888a610c6a565b1610610ea45760f860ff6115cf610da4610d9685888a610c6a565b1610611659575080610dfb610df5610df0610deb610da4610d966115f497898b610c6a565b945b609460ff61160b610da4610d968a8789610c6a565b160361164a576001600160a01b03168286016001013560601c0361163b57611635610d0a95610a11565b91611b21565b63a087f96f60e01b5f5260045ffd5b63e6c4247b60e01b5f5260045ffd5b61166391506109f0565b946115f6565b6005545f5481018091116109fe5760015481018091116109fe5790565b604080519091906116978382610992565b6001815291601f1901366020840137565b906116b282610bf6565b6116bf6040519182610992565b82815280926116d0601f1991610bf6565b0190602036910137565b80518210156113bf576116f3610da46114aa84846113db565b9160ff8316608081101561172c5750505061170c611686565b9060f81b6001600160f81b0319165f1a611725826113ce565b5390600190565b919392909160b88110156117965750610df561174791610d20565b90611751826116a8565b935f5b83811061176757505050610d0a90610a03565b806117836114aa61177d600194611103886109f0565b856113db565b5f1a61178f82896113db565b5301611754565b60c0111561183457610df56117aa91610d46565b5f915f5b82811061180657506117bf836116a8565b945f5b8481106117d95750505090611103610d0a92610a03565b806117f36114aa61177d600194611103896111038a6109f0565b5f1a6117ff828a6113db565b53016117c2565b9260019060081b61182c610df5610da46114aa61182689611103896109f0565b8b6113db565b1793016117ae565b50916118408382611cd8565b9261184a846116a8565b915f5b85811061185b575050509190565b8061186e6114aa61177d60019487610a1f565b5f1a61187a82876113db565b530161184d565b5f92915b81518110156118ac576118988183611cd8565b81018091116109fe57600190930192611885565b5050565b908160011b91808304600214901517156109fe57565b839492916118d481836116da565b93906118f360206118ea610da46114aa856113ce565b16151591611e05565b978891156119955750611907905187610a1f565b61191182516118b0565b14611926575b505050505050505f905f905f90565b86866001928251611983575b505050611940575b80611917565b6119539261194d91610a1f565b906116da565b5060208151910120906020815191012014611971578080808061193a565b61197c915190610a1f565b6001915f90565b61198d9350611f6e565b86865f611932565b6119a6939495965061074c92611f6e565b6119ff576119b79261194d91610a1f565b50908151602081145f146119df575060206119d7920151925b5190610a1f565b916001929190565b80156119f35760206119d7930120926119d0565b505050505f905f905f90565b50505050505f905f905f90565b91909293611a1a82516118b0565b851015611ac45750610da46114aa611a3c92611a368760011c90565b906113db565b60018416611abb5760041c600f16915b905f925b60ff81168410611a9b5750611a6592506116da565b5080518015611a90576119d79160208203611a8657602091500151916109f0565b60200120916109f0565b5050505f905f905f90565b90916001611aaf82610dfb60ff9487611cd8565b94019392919050611a50565b600f1691611a4c565b9290509392935f915b60108310611b0757611adf92506116da565b50602081519101209060208151910120145f14611afe57600191905f90565b5f915081908190565b90611b1881610dfb60019385611cd8565b92019190611acd565b929190918160c060ff611b3b610da4610d9687898b610c6a565b1610610ea45760f860ff611b56610da4610d9687898b610c6a565b1610611cc95780610dfb610df5610df0610deb610da4610d96611b7a978b8d610c6a565b7fddf252ad1be2c89b69c2b068fc378daa952ba7f163c4a11628f55a4df523b3ef611ba682868861202c565b03611cba57610765610765611bc9611bc2611bd094888a611264565b8789611264565b868861202c565b6001600160a01b03918216911603611cab57611bed908284611264565b905f91611c01610da4610d96838588610c6a565b60ff811694906080861015611c2f5750505050505b03611c2057600190565b6355e97b0d60e01b5f5260045ffd5b9091929394608081145f14611c4a575050505050505f611c16565b60a010610ea457610df5611c6091939293610d20565b915f935b838510611c75575050505050611c16565b9091929394611c8660019160081b90565b611c9f610df5610da4610d966111088b6111038b6109f0565b17950193929190611c64565b634cd4b7b160e01b5f5260045ffd5b6324da545d60e11b5f5260045ffd5b50611cd3826109f0565b611b7a565b9081518110156113bf57611cf2610da46114aa83856113db565b9160ff83166080811015611d095750505050600190565b60b8811015611d2457505050610df5610df0610d0a92610d20565b60c0811015611d90575091610df5611d3b91610d46565b905f925f915b838310611d585750505090611103610d0a92610a03565b909193611d6760019160081b90565b611d86610df5610da46114aa611d808a611103896109f0565b886113db565b1794019190611d41565b60f81115611da9575050610df5610df0610d0a92610d33565b91610df5611db691610d0d565b905f925f915b838310611dd35750505090611103610d0a92610a03565b909193611de260019160081b90565b611dfb610df5610da46114aa611d808a611103896109f0565b1794019190611dbc565b90815115610b3d57611e1c610da46114aa846113ce565b6010811615611eeb57611e3f611e3a611e3585516118b0565b610bdb565b6116a8565b9060f81b600f60f81b165f1a611e54826113ce565b5360015b8351811015611ee65780611e93611e83611e7a610da46114aa6001968a6113db565b60041c600f1690565b60f81b6001600160f81b03191690565b611eac611ea2611e35846118b0565b915f1a91856113db565b53611ed3600f611ec2610da46114aa858a6113db565b1660f81b6001600160f81b03191690565b611edf611ea2836118b0565b5301611e58565b509150565b50611f01611e3a611efc84516118b0565b610bcc565b60015b8351811015611ee65780611f26611e83611e7a610da46114aa6001968a6113db565b611f3a611ea2611f3584610bdb565b6118b0565b53611f50600f611ec2610da46114aa858a6113db565b611f67611ea2611f62611f3585610bdb565b6109f0565b5301611f04565b919091611f7c825184610a1f565b611f8682516118b0565b10612025575f5b825181101561201c57611fa9611fa38286610a1f565b60011690565b611ffe57611fd2611e7a610da46114aa611fcc611fc6868a610a1f565b60011c90565b866113db565b60ff611fe7610df5610da46114aa86896113db565b911603611ff657600101611f8d565b505050505f90565b600f612016610da46114aa611fcc611fc6868a610a1f565b16611fd2565b50505050600190565b5050505f90565b9190600560fd1b906001600160f81b03199061204a90849086610c6a565b35160361205957016001013590565b63f0ff325b60e01b5f5260045ffdfea264697066735822122028c96b0e3c2075e4a273041c863c4e813c898fa651607c92e57dad2760f392cd64736f6c634300081e0033","linkReferences":{}},"methodIdentifiers":{"MAX_BLOCK_LOOKBACK()":"3d2691bc","bond(uint256)":"9940686e","bondAmount()":"80f323a7","bondedExecutor()":"1aa7c0ec","cancelAndWithdraw()":"6b892b22","cancellationRequest()":"308657d7","collect((bytes,bytes,bytes,bytes,uint256),uint256)":"ede7f6a3","currentPaymentAmount()":"8bd03d0a","currentRewardAmount()":"5a4fd645","executionDeadline()":"33ee5f35","expectedAmount()":"2feef2ec","expectedRecipient()":"8677ab23","fund(uint256,uint256)":"a65e2cfd","funded()":"f3a504f2","is_bonded()":"cb766a56","originalRewardAmount()":"d415b3f9","requestCancellation()":"81972d00","resume()":"046f7da2","tokenContract()":"55a373d6","totalBondsDeposited()":"fe03a460"},"id":22}