{"abi":[{"type":"constructor","inputs":[{"name":"_tokenContract","type":"address","internalType":"address"},{"name":"_expectedRecipient","type":"address","internalType":"address"},{"name":"_expectedAmount","type":"uint256","internalType":"uint256"},{"name":"_currentRewardAmount","type":"uint256","internalType":"uint256"},{"name":"_currentPaymentAmount","type":"uint256","internalType":"uint256"}],"stateMutability":"nonpayable"},{"type":"function","name":"MAX_BLOCK_LOOKBACK","inputs":[],"outputs":[{"name":"","type":"uint256","internalType":"uint256"}],"stateMutability":"view"},{"type":"function","name":"bond","inputs":[{"name":"_bondAmount","type":"uint256","internalType":"uint256"}],"outputs":[],"stateMutability":"nonpayable"},{"type":"function","name":"bondAmount","inputs":[],"outputs":[{"name":"","type":"uint256","internalType":"uint256"}],"stateMutability":"view"},{"type":"function","name":"bondedExecutor","inputs":[],"outputs":[{"name":"","type":"address","internalType":"address"}],"stateMutability":"view"},{"type":"function","name":"cancellationRequest","inputs":[],"outputs":[{"name":"","type":"bool","internalType":"bool"}],"stateMutability":"view"},{"type":"function","name":"collect","inputs":[{"name":"proof","type":"tuple","internalType":"struct EscrowERC20.ReceiptProof","components":[{"name":"blockHeader","type":"bytes","internalType":"bytes"},{"name":"receiptRlp","type":"bytes","internalType":"bytes"},{"name":"proofNodes","type":"bytes","internalType":"bytes"},{"name":"receiptPath","type":"bytes","internalType":"bytes"},{"name":"logIndex","type":"uint256","internalType":"uint256"}]},{"name":"targetBlockNumber","type":"uint256","internalType":"uint256"}],"outputs":[],"stateMutability":"nonpayable"},{"type":"function","name":"currentPaymentAmount","inputs":[],"outputs":[{"name":"","type":"uint256","internalType":"uint256"}],"stateMutability":"view"},{"type":"function","name":"currentRewardAmount","inputs":[],"outputs":[{"name":"","type":"uint256","internalType":"uint256"}],"stateMutability":"view"},{"type":"function","name":"executionDeadline","inputs":[],"outputs":[{"name":"","type":"uint256","internalType":"uint256"}],"stateMutability":"view"},{"type":"function","name":"expectedAmount","inputs":[],"outputs":[{"name":"","type":"uint256","internalType":"uint256"}],"stateMutability":"view"},{"type":"function","name":"expectedRecipient","inputs":[],"outputs":[{"name":"","type":"address","internalType":"address"}],"stateMutability":"view"},{"type":"function","name":"fund","inputs":[{"name":"_currentRewardAmount","type":"uint256","internalType":"uint256"},{"name":"_currentPaymentAmount","type":"uint256","internalType":"uint256"}],"outputs":[],"stateMutability":"nonpayable"},{"type":"function","name":"funded","inputs":[],"outputs":[{"name":"","type":"bool","internalType":"bool"}],"stateMutability":"view"},{"type":"function","name":"is_bonded","inputs":[],"outputs":[{"name":"","type":"bool","internalType":"bool"}],"stateMutability":"view"},{"type":"function","name":"originalRewardAmount","inputs":[],"outputs":[{"name":"","type":"uint256","internalType":"uint256"}],"stateMutability":"view"},{"type":"function","name":"requestCancellation","inputs":[],"outputs":[],"stateMutability":"nonpayable"},{"type":"function","name":"resume","inputs":[],"outputs":[],"stateMutability":"nonpayable"},{"type":"function","name":"tokenContract","inputs":[],"outputs":[{"name":"","type":"address","internalType":"address"}],"stateMutability":"view"},{"type":"function","name":"totalBondsDeposited","inputs":[],"outputs":[{"name":"","type":"uint256","internalType":"uint256"}],"stateMutability":"view"},{"type":"function","name":"withdraw","inputs":[],"outputs":[],"stateMutability":"nonpayable"},{"type":"error","name":"AlreadyFunded","inputs":[]},{"type":"error","name":"AmountMismatch","inputs":[]},{"type":"error","name":"BlockHashUnavailable","inputs":[]},{"type":"error","name":"BlockHeaderMismatch","inputs":[]},{"type":"error","name":"BlockNumberMismatch","inputs":[]},{"type":"error","name":"BondActive","inputs":[]},{"type":"error","name":"CancellationRequested","inputs":[]},{"type":"error","name":"ExecutorAlreadyBonded","inputs":[]},{"type":"error","name":"ExpectedBytes32","inputs":[]},{"type":"error","name":"ExpectedRLPList","inputs":[]},{"type":"error","name":"InsufficientBond","inputs":[]},{"type":"error","name":"InvalidAddress","inputs":[]},{"type":"error","name":"InvalidRLP","inputs":[]},{"type":"error","name":"InvalidRLPEncoding","inputs":[]},{"type":"error","name":"InvalidRLPList","inputs":[]},{"type":"error","name":"InvalidReceiptProof","inputs":[]},{"type":"error","name":"InvalidTransferEvent","inputs":[]},{"type":"error","name":"NoWithdrawableFunds","inputs":[]},{"type":"error","name":"NotFunded","inputs":[]},{"type":"error","name":"OnlyBondedExecutor","inputs":[]},{"type":"error","name":"OnlyDeployer","inputs":[]},{"type":"error","name":"RLPOffsetOutOfBounds","inputs":[]},{"type":"error","name":"TargetBlockInFuture","inputs":[]},{"type":"error","name":"TargetBlockTooOld","inputs":[]},{"type":"error","name":"ToAddressMismatch","inputs":[]},{"type":"error","name":"TokenTransferFailed","inputs":[]},{"type":"error","name":"WrongEventSignature","inputs":[]},{"type":"error","name":"WrongTokenContract","inputs":[]},{"type":"error","name":"ZeroAddress","inputs":[]},{"type":"error","name":"ZeroPaymentAmount","inputs":[]},{"type":"error","name":"ZeroRewardAmount","inputs":[]}],"bytecode":{"object":"0x61010080604052346101c15760a08161230980380380916100208285610231565b8339810103126101c15761003381610268565b9061004060208201610268565b6040820151608060608401519301519160a05260c0523360805260018060a01b0383169283156102225760e0528115801580610219575b6100fc575b60405161208c908161027d8239608051818181610166015281816103fa015281816105670152610a75015260a05181818161044c015261083a015260c0518181816101f20152610818015260e0518181816102c501528181610380015281816104ee015281816106080152818161085c01528181610f7301526110050152f35b60ff60075460081c1661020a576101fb5780156101ec57815f55816002558060015581018091116101d8575f91606460209260405194859384926323b872dd60e01b845233600485015230602485015260448401525af19081156101cd575f9161018e575b501561017f5761010061ff001960075416176007555f80808061007c565b63022e258160e11b5f5260045ffd5b90506020813d6020116101c5575b816101a960209383610231565b810103126101c1575180151581036101c1575f610161565b5f80fd5b3d915061019c565b6040513d5f823e3d90fd5b634e487b7160e01b5f52601160045260245ffd5b63932ca0a360e01b5f5260045ffd5b63ea1083a760e01b5f5260045ffd5b635adf638760e01b5f5260045ffd5b50811515610077565b63d92e233d60e01b5f5260045ffd5b601f909101601f19168101906001600160401b0382119082101761025457604052565b634e487b7160e01b5f52604160045260245ffd5b51906001600160a01b03821682036101c15756fe60806040526004361015610011575f80fd5b5f3560e01c8063046f7da2146101545780631aa7c0ec1461014f5780632feef2ec1461014a578063308657d71461014557806333ee5f35146101405780633ccfd60b1461013b5780633d2691bc1461013657806355a373d6146101315780635a4fd6451461012c57806380f323a71461012757806381972d00146101225780638677ab231461011d5780638bd03d0a146101185780639940686e14610113578063a65e2cfd1461010e578063cb766a5614610109578063d415b3f914610104578063ede7f6a3146100ff578063f3a504f2146100fa5763fe03a460146100f5575f80fd5b61094f565b61092a565b6106e7565b6106ca565b6106a6565b61054e565b610498565b61047b565b610437565b6103e8565b6103cb565b6103af565b61036b565b61034f565b610254565b610237565b610215565b6101db565b6101b3565b346101af575f3660031901126101af577f00000000000000000000000000000000000000000000000000000000000000006001600160a01b031633036101a0576007805460ff19169055005b63618bbdd560e01b5f5260045ffd5b5f80fd5b346101af575f3660031901126101af576003546040516001600160a01b039091168152602090f35b346101af575f3660031901126101af5760206040517f00000000000000000000000000000000000000000000000000000000000000008152f35b346101af575f3660031901126101af57602060ff600754166040519015158152f35b346101af575f3660031901126101af576020600454604051908152f35b346101af575f3660031901126101af5761026c610a65565b610274610aa5565b61027c610adc565b61029361ff0019600754166007555f6001555f8055565b80156103405760405163a9059cbb60e01b815233600482015260248101919091526020816044815f6001600160a01b037f0000000000000000000000000000000000000000000000000000000000000000165af190811561033b575f9161030c575b50156102fd57005b63022e258160e11b5f5260045ffd5b61032e915060203d602011610334575b6103268183610980565b8101906109a7565b5f6102f5565b503d61031c565b6109bf565b6353cd7f7960e01b5f5260045ffd5b346101af575f3660031901126101af5760206040516101008152f35b346101af575f3660031901126101af576040517f00000000000000000000000000000000000000000000000000000000000000006001600160a01b03168152602090f35b346101af575f3660031901126101af5760205f54604051908152f35b346101af575f3660031901126101af576020600554604051908152f35b346101af575f3660031901126101af577f00000000000000000000000000000000000000000000000000000000000000006001600160a01b031633036101a0576007805460ff19166001179055005b346101af575f3660031901126101af576040517f00000000000000000000000000000000000000000000000000000000000000006001600160a01b03168152602090f35b346101af575f3660031901126101af576020600154604051908152f35b346101af5760203660031901126101af576004356104b4610aee565b6104bd81610b37565b6040516323b872dd60e01b8152336004820152306024820152604481018290526020816064815f6001600160a01b037f0000000000000000000000000000000000000000000000000000000000000000165af190811561033b575f9161052f575b50156102fd5761052d90610b92565b005b610548915060203d602011610334576103268183610980565b5f61051e565b346101af5760403660031901126101af576004356024357f00000000000000000000000000000000000000000000000000000000000000006001600160a01b031633036101a05760075460081c60ff16610697578115610688578015610679576105bd826105c2935f55600255565b600155565b61060360206105d660025460015490610a0d565b6040516323b872dd60e01b8152336004820152306024820152604481019190915291829081906064820190565b03815f7f00000000000000000000000000000000000000000000000000000000000000006001600160a01b03165af190811561033b575f9161065a575b50156102fd5761052d61010061ff00196007541617600755565b610673915060203d602011610334576103268183610980565b5f610640565b63932ca0a360e01b5f5260045ffd5b63ea1083a760e01b5f5260045ffd5b635adf638760e01b5f5260045ffd5b346101af575f3660031901126101af5760206106c0610a1a565b6040519015158152f35b346101af575f3660031901126101af576020600254604051908152f35b346101af5760403660031901126101af5760043567ffffffffffffffff81116101af578060040160a060031983360301126101af576024356107298280610a32565b60075461073e9060081c60ff161590565b1590565b61091b5760035461075f906001600160a01b03165b6001600160a01b031690565b331480159061090a575b6108fb574383116108ec576101006107818443610bd7565b116108dd57824080156108ce57610799368385610c00565b60208151910120036108bf576107ae91611062565b036108b0576107c66107c08280610a32565b90610c64565b9161080061073a60248301946107dc8686610a32565b906107ea6044870188610a32565b906107f8606489018a610a32565b949093610cd4565b6108a15760846108166108869461073a94610a32565b7f0000000000000000000000000000000000000000000000000000000000000000937f0000000000000000000000000000000000000000000000000000000000000000937f0000000000000000000000000000000000000000000000000000000000000000939101359190610d58565b6108925761052d610ef2565b6364fa89e160e11b5f5260045ffd5b637b374dd160e01b5f5260045ffd5b63048a12f560e11b5f5260045ffd5b63ff28378760e01b5f5260045ffd5b63bfc9f0d360e01b5f5260045ffd5b63c42a018560e01b5f5260045ffd5b63058968cf60e41b5f5260045ffd5b6337b5f20360e21b5f5260045ffd5b5061091661073a610a1a565b610769565b636af784dd60e11b5f5260045ffd5b346101af575f3660031901126101af57602060ff60075460081c166040519015158152f35b346101af575f3660031901126101af576020600654604051908152f35b634e487b7160e01b5f52604160045260245ffd5b90601f8019910116810190811067ffffffffffffffff8211176109a257604052565b61096c565b908160209103126101af575180151581036101af5790565b6040513d5f823e3d90fd5b634e487b7160e01b5f52601160045260245ffd5b90600182018092116109ec57565b6109ca565b60010190816001116109ec57565b90601582018092116109ec57565b919082018092116109ec57565b6004548015159081610a2a575090565b905042111590565b903590601e19813603018212156101af570180359067ffffffffffffffff82116101af576020019181360383136101af57565b60ff60075460081c161561091b577f00000000000000000000000000000000000000000000000000000000000000006001600160a01b031633036101a057565b610aad610a1a565b610acd576001600160601b0360a01b600354166003555f6005555f600455565b639cbc1de160e01b5f5260045ffd5b60015460025481018091116109ec5790565b6004548015159081610b2d575b50610b0257565b6005545f548181018091116109ec575f556006549081018091116109ec57600655610b2b610aa5565b565b905042115f610afb565b60075460ff8160081c161561091b5760ff16610b8357610b55610a1a565b610b74575f5460011c11610b6557565b63e92c469f60e01b5f5260045ffd5b63129f78e960e11b5f5260045ffd5b632479328960e01b5f5260045ffd5b336001600160601b0360a01b600354161760035561012c42018042116109ec57600455600555565b6001198101919082116109ec57565b5f198101919082116109ec57565b919082039182116109ec57565b67ffffffffffffffff81116109a257601f01601f191660200190565b929192610c0c82610be4565b91610c1a6040519384610980565b8294818452818301116101af578281602093845f960137010152565b634e487b7160e01b5f52603260045260245ffd5b9015610c535790565b610c36565b90821015610c53570190565b90610c6f818361111e565b905f5b60058110610cbf5750600560fd1b906001600160f81b031990610c9790849086610c58565b351603610cb0576001810181116109ec57016001013590565b633954003560e11b5f5260045ffd5b91610ccd6001918386611252565b9201610c72565b610cea610cf292939495610cf898973691610c00565b923691610c00565b906113da565b90565b60ff60f6199116019060ff82116109ec57565b60ff607f199116019060ff82116109ec57565b60ff60bf199116019060ff82116109ec57565b60ff60b6199116019060ff82116109ec57565b60ff166001019060ff82116109ec57565b9594939291905f818881151580610ed6575b610ec8575b610d98610d92610d848560c09560ff95610c58565b356001600160f81b03191690565b60f81c90565b1610610e9257808860f860ff610db6610d92610d8488978887610c58565b1610610eb857610de3610dde610dd9610d92610d8486610def98610de997610c58565b610cfb565b610d47565b60ff1690565b90610a0d565b81885f5b60038110610ea15750610de3610d92610d848560c095610e1295610c58565b10610e9257808860f8610e30610de3610d92610d8488978887610c58565b10610e8157610de3610dde610dd9610d92610d8486610e5298610de997610c58565b915b5f905b808210610e6a575050610cf89596611587565b9092610e79600191848b611252565b930190610e57565b50610e8c91506109de565b91610e54565b631bd5dcf760e31b5f5260045ffd5b92600192610eae92611252565b9101888391610df3565b50610ec391506109de565b610def565b506001915082905088610d6f565b50608060ff610eeb610d92610d848686610c4a565b1610610d6a565b610efa611657565b6003546001600160a01b0316610f376001600160601b0360a01b600354166003555f6005555f60045561ff0019600754166007555f6001555f8055565b4662aa36a703610fd357604051633419e74d60e21b81526001600160a01b0390911660048201526024810191909152602081806044810103815f7f00000000000000000000000000000000000000000000000000000000000000006001600160a01b03165af190811561033b575f91610fb4575b505b156102fd57565b610fcd915060203d602011610334576103268183610980565b5f610fab565b60405163a9059cbb60e01b81526001600160a01b0390911660048201526024810191909152602081806044810103815f7f00000000000000000000000000000000000000000000000000000000000000006001600160a01b03165af190811561033b575f91611043575b50610fad565b61105c915060203d602011610334576103268183610980565b5f61103d565b61106c828261111e565b915f5b600881106111095750611089610d92610d84858486610c58565b925f9260ff851694608086105f146110a357505050505090565b6110b49193949550610de390610d0e565b915f935b8385106110c757505050505090565b90919293946110d860019160081b90565b6110fd610de3610d92610d846110f68b6110f18b6109de565b610a0d565b8789610c58565b179501939291906110b8565b926111176001918385611252565b930161106f565b5f600360fe1b6001600160f81b031961113a610d848686610c4a565b161061121a57601f60fb1b6001600160f81b031961115b610d848686610c4a565b16106112495780610de9610de3610dde610dd9610d92610d8461117f978a8a610c58565b905b61a5bd4614801561123e575b611198575b50905090565b5f5b600381106112295750600360fe1b6111c66111b9610d84858786610c58565b6001600160f81b03191690565b1061121a57601f60fb1b6111e16111b9610d84858786610c58565b1061120a57610de3610dde610dd9610d92610d848661120398610de997610c58565b805f611192565b5061121591506109de565b611203565b63c0098bd960e01b5f5260045ffd5b916112376001918584611252565b920161119a565b5061a5bf461461118d565b50600190611181565b9190808210156113ad5761126d610d92610d84848487610c58565b9060ff8216608081101561128857505050610cf891506109de565b91929160b88110156112b0575050610cf89250610de36112aa610de9926109de565b92610d0e565b90929060c08110156113265750610de36112cc91949394610d34565b915f935f915b8483106112ed57505050610cf892916110f16110f1926109de565b9091946112fc60019160081b90565b61131c610de3610d92610d846113158b6110f18b6109de565b8888610c58565b17950191906112d2565b90929060f8111561134c5750610cf89250610de3611346610de9926109de565b92610d21565b9291610de361135a91610cfb565b915f935f915b84831061137b57505050610cf892916110f16110f1926109de565b90919461138a60019160081b90565b6113a3610de3610d92610d846113158b6110f18b6109de565b1795019190611360565b6318d76ae160e11b5f5260045ffd5b805115610c535760200190565b908151811015610c53570160200190565b919390929190600360fe1b6001600160f81b03196113fb610d848689610c4a565b161061157857601f60fb1b6001600160f81b031961141c610d848689610c4a565b161061156e5761144061143b610de3610dd9610d92610d84888b610c4a565b6109f1565b9492905b945f5b82821061145957505050505050505f90565b6114776114708361146b36878a610c00565b6116c8565b9093610a0d565b96825160208401200361150c57600360fe1b6114a66111b9611498856113bc565b516001600160f81b03191690565b1061150c578590846001601f60fb1b6114c46111b9611498886113bc565b1015611550575b6114d5818661186f565b6011810361151757506114e7946119fa565b94911561150c5784156115005793915b91959093611447565b50505050505050600190565b505050505050505f90565b90935060021415905061154457848792611530946118b4565b94911561150c5784156115005793916114f7565b50505050505050505f90565b5061156961143b610de3610dd9610d92611498896113bc565b6114cb565b6001949290611444565b63ebb47d1d60e01b5f5260045ffd5b91949392948060c060ff6115a2610d92610d8485888a610c58565b1610610e925760f860ff6115bd610d92610d8485888a610c58565b1610611647575080610de9610de3610dde610dd9610d92610d846115e297898b610c58565b945b609460ff6115f9610d92610d848a8789610c58565b1603611638576001600160a01b03168286016001013560601c0361162957611623610cf8956109ff565b91611b0f565b63a087f96f60e01b5f5260045ffd5b63e6c4247b60e01b5f5260045ffd5b61165191506109de565b946115e4565b6005545f5481018091116109ec5760015481018091116109ec5790565b604080519091906116858382610980565b6001815291601f1901366020840137565b906116a082610be4565b6116ad6040519182610980565b82815280926116be601f1991610be4565b0190602036910137565b80518210156113ad576116e1610d9261149884846113c9565b9160ff8316608081101561171a575050506116fa611674565b9060f81b6001600160f81b0319165f1a611713826113bc565b5390600190565b919392909160b88110156117845750610de361173591610d0e565b9061173f82611696565b935f5b83811061175557505050610cf8906109f1565b8061177161149861176b6001946110f1886109de565b856113c9565b5f1a61177d82896113c9565b5301611742565b60c0111561182257610de361179891610d34565b5f915f5b8281106117f457506117ad83611696565b945f5b8481106117c757505050906110f1610cf8926109f1565b806117e161149861176b6001946110f1896110f18a6109de565b5f1a6117ed828a6113c9565b53016117b0565b9260019060081b61181a610de3610d92611498611814896110f1896109de565b8b6113c9565b17930161179c565b509161182e8382611cc6565b9261183884611696565b915f5b858110611849575050509190565b8061185c61149861176b60019487610a0d565b5f1a61186882876113c9565b530161183b565b5f92915b815181101561189a576118868183611cc6565b81018091116109ec57600190930192611873565b5050565b908160011b91808304600214901517156109ec57565b839492916118c281836116c8565b93906118e160206118d8610d92611498856113bc565b16151591611df3565b9788911561198357506118f5905187610a0d565b6118ff825161189e565b14611914575b505050505050505f905f905f90565b86866001928251611971575b50505061192e575b80611905565b6119419261193b91610a0d565b906116c8565b506020815191012090602081519101201461195f5780808080611928565b61196a915190610a0d565b6001915f90565b61197b9350611f5c565b86865f611920565b611994939495965061073a92611f5c565b6119ed576119a59261193b91610a0d565b50908151602081145f146119cd575060206119c5920151925b5190610a0d565b916001929190565b80156119e15760206119c5930120926119be565b505050505f905f905f90565b50505050505f905f905f90565b91909293611a08825161189e565b851015611ab25750610d92611498611a2a92611a248760011c90565b906113c9565b60018416611aa95760041c600f16915b905f925b60ff81168410611a895750611a5392506116c8565b5080518015611a7e576119c59160208203611a7457602091500151916109de565b60200120916109de565b5050505f905f905f90565b90916001611a9d82610de960ff9487611cc6565b94019392919050611a3e565b600f1691611a3a565b9290509392935f915b60108310611af557611acd92506116c8565b50602081519101209060208151910120145f14611aec57600191905f90565b5f915081908190565b90611b0681610de960019385611cc6565b92019190611abb565b929190918160c060ff611b29610d92610d8487898b610c58565b1610610e925760f860ff611b44610d92610d8487898b610c58565b1610611cb75780610de9610de3610dde610dd9610d92610d84611b68978b8d610c58565b7fddf252ad1be2c89b69c2b068fc378daa952ba7f163c4a11628f55a4df523b3ef611b9482868861201a565b03611ca857610753610753611bb7611bb0611bbe94888a611252565b8789611252565b868861201a565b6001600160a01b03918216911603611c9957611bdb908284611252565b905f91611bef610d92610d84838588610c58565b60ff811694906080861015611c1d5750505050505b03611c0e57600190565b6355e97b0d60e01b5f5260045ffd5b9091929394608081145f14611c38575050505050505f611c04565b60a010610e9257610de3611c4e91939293610d0e565b915f935b838510611c63575050505050611c04565b9091929394611c7460019160081b90565b611c8d610de3610d92610d846110f68b6110f18b6109de565b17950193929190611c52565b634cd4b7b160e01b5f5260045ffd5b6324da545d60e11b5f5260045ffd5b50611cc1826109de565b611b68565b9081518110156113ad57611ce0610d9261149883856113c9565b9160ff83166080811015611cf75750505050600190565b60b8811015611d1257505050610de3610dde610cf892610d0e565b60c0811015611d7e575091610de3611d2991610d34565b905f925f915b838310611d4657505050906110f1610cf8926109f1565b909193611d5560019160081b90565b611d74610de3610d92611498611d6e8a6110f1896109de565b886113c9565b1794019190611d2f565b60f81115611d97575050610de3610dde610cf892610d21565b91610de3611da491610cfb565b905f925f915b838310611dc157505050906110f1610cf8926109f1565b909193611dd060019160081b90565b611de9610de3610d92611498611d6e8a6110f1896109de565b1794019190611daa565b90815115610b2b57611e0a610d92611498846113bc565b6010811615611ed957611e2d611e28611e23855161189e565b610bc9565b611696565b9060f81b600f60f81b165f1a611e42826113bc565b5360015b8351811015611ed45780611e81611e71611e68610d926114986001968a6113c9565b60041c600f1690565b60f81b6001600160f81b03191690565b611e9a611e90611e238461189e565b915f1a91856113c9565b53611ec1600f611eb0610d92611498858a6113c9565b1660f81b6001600160f81b03191690565b611ecd611e908361189e565b5301611e46565b509150565b50611eef611e28611eea845161189e565b610bba565b60015b8351811015611ed45780611f14611e71611e68610d926114986001968a6113c9565b611f28611e90611f2384610bc9565b61189e565b53611f3e600f611eb0610d92611498858a6113c9565b611f55611e90611f50611f2385610bc9565b6109de565b5301611ef2565b919091611f6a825184610a0d565b611f74825161189e565b10612013575f5b825181101561200a57611f97611f918286610a0d565b60011690565b611fec57611fc0611e68610d92611498611fba611fb4868a610a0d565b60011c90565b866113c9565b60ff611fd5610de3610d9261149886896113c9565b911603611fe457600101611f7b565b505050505f90565b600f612004610d92611498611fba611fb4868a610a0d565b16611fc0565b50505050600190565b5050505f90565b9190600560fd1b906001600160f81b03199061203890849086610c58565b35160361204757016001013590565b63f0ff325b60e01b5f5260045ffdfea26469706673582212209a126280f4165fa90c369d1d37a2ccf7a3b954b2d3507912d0882b0a958f5f3a64736f6c634300081e0033","linkReferences":{}},"methodIdentifiers":{"MAX_BLOCK_LOOKBACK()":"3d2691bc","bond(uint256)":"9940686e","bondAmount()":"80f323a7","bondedExecutor()":"1aa7c0ec","cancellationRequest()":"308657d7","collect((bytes,bytes,bytes,bytes,uint256),uint256)":"ede7f6a3","currentPaymentAmount()":"8bd03d0a","currentRewardAmount()":"5a4fd645","executionDeadline()":"33ee5f35","expectedAmount()":"2feef2ec","expectedRecipient()":"8677ab23","fund(uint256,uint256)":"a65e2cfd","funded()":"f3a504f2","is_bonded()":"cb766a56","originalRewardAmount()":"d415b3f9","requestCancellation()":"81972d00","resume()":"046f7da2","tokenContract()":"55a373d6","totalBondsDeposited()":"fe03a460","withdraw()":"3ccfd60b"},"id":21}