{"abi":[{"type":"constructor","inputs":[{"name":"_tokenContract","type":"address","internalType":"address"},{"name":"_expectedRecipient","type":"address","internalType":"address"},{"name":"_expectedAmount","type":"uint256","internalType":"uint256"},{"name":"_blindedSigner","type":"address","internalType":"address"},{"name":"_currentRewardAmount","type":"uint256","internalType":"uint256"}],"stateMutability":"payable"},{"type":"function","name":"MAX_BLOCK_LOOKBACK","inputs":[],"outputs":[{"name":"","type":"uint256","internalType":"uint256"}],"stateMutability":"view"},{"type":"function","name":"blindedSigner","inputs":[],"outputs":[{"name":"","type":"address","internalType":"address"}],"stateMutability":"view"},{"type":"function","name":"bond","inputs":[{"name":"bondSig","type":"bytes","internalType":"bytes"}],"outputs":[],"stateMutability":"nonpayable"},{"type":"function","name":"bondPot","inputs":[],"outputs":[{"name":"","type":"uint256","internalType":"uint256"}],"stateMutability":"view"},{"type":"function","name":"bondedExecutor","inputs":[],"outputs":[{"name":"","type":"address","internalType":"address"}],"stateMutability":"view"},{"type":"function","name":"cancelAndWithdraw","inputs":[],"outputs":[],"stateMutability":"nonpayable"},{"type":"function","name":"cancellationRequest","inputs":[],"outputs":[{"name":"","type":"bool","internalType":"bool"}],"stateMutability":"view"},{"type":"function","name":"collect","inputs":[{"name":"proof","type":"tuple","internalType":"struct EscrowERC20.ReceiptProof","components":[{"name":"blockHeader","type":"bytes","internalType":"bytes"},{"name":"receiptRlp","type":"bytes","internalType":"bytes"},{"name":"proofNodes","type":"bytes","internalType":"bytes"},{"name":"receiptPath","type":"bytes","internalType":"bytes"},{"name":"logIndex","type":"uint256","internalType":"uint256"}]},{"name":"targetBlockNumber","type":"uint256","internalType":"uint256"}],"outputs":[],"stateMutability":"nonpayable"},{"type":"function","name":"currentPaymentAmount","inputs":[],"outputs":[{"name":"","type":"uint256","internalType":"uint256"}],"stateMutability":"view"},{"type":"function","name":"currentRewardAmount","inputs":[],"outputs":[{"name":"","type":"uint256","internalType":"uint256"}],"stateMutability":"view"},{"type":"function","name":"domainSeparator","inputs":[],"outputs":[{"name":"","type":"bytes32","internalType":"bytes32"}],"stateMutability":"view"},{"type":"function","name":"executionDeadline","inputs":[],"outputs":[{"name":"","type":"uint256","internalType":"uint256"}],"stateMutability":"view"},{"type":"function","name":"expectedAmount","inputs":[],"outputs":[{"name":"","type":"uint256","internalType":"uint256"}],"stateMutability":"view"},{"type":"function","name":"expectedRecipient","inputs":[],"outputs":[{"name":"","type":"address","internalType":"address"}],"stateMutability":"view"},{"type":"function","name":"fund","inputs":[{"name":"_currentRewardAmount","type":"uint256","internalType":"uint256"}],"outputs":[],"stateMutability":"payable"},{"type":"function","name":"funded","inputs":[],"outputs":[{"name":"","type":"bool","internalType":"bool"}],"stateMutability":"view"},{"type":"function","name":"is_bonded","inputs":[],"outputs":[{"name":"","type":"bool","internalType":"bool"}],"stateMutability":"view"},{"type":"function","name":"originalRewardAmount","inputs":[],"outputs":[{"name":"","type":"uint256","internalType":"uint256"}],"stateMutability":"view"},{"type":"function","name":"requestCancellation","inputs":[],"outputs":[],"stateMutability":"nonpayable"},{"type":"function","name":"resume","inputs":[],"outputs":[],"stateMutability":"nonpayable"},{"type":"function","name":"tokenContract","inputs":[],"outputs":[{"name":"","type":"address","internalType":"address"}],"stateMutability":"view"},{"type":"error","name":"AlreadyFunded","inputs":[]},{"type":"error","name":"AmountMismatch","inputs":[]},{"type":"error","name":"BlockHashUnavailable","inputs":[]},{"type":"error","name":"BlockHeaderMismatch","inputs":[]},{"type":"error","name":"BlockNumberMismatch","inputs":[]},{"type":"error","name":"BondActive","inputs":[]},{"type":"error","name":"BondTransferFailed","inputs":[]},{"type":"error","name":"CancellationRequested","inputs":[]},{"type":"error","name":"ECDSAInvalidSignature","inputs":[]},{"type":"error","name":"ECDSAInvalidSignatureLength","inputs":[{"name":"length","type":"uint256","internalType":"uint256"}]},{"type":"error","name":"ECDSAInvalidSignatureS","inputs":[{"name":"s","type":"bytes32","internalType":"bytes32"}]},{"type":"error","name":"ExecutorAlreadyBonded","inputs":[]},{"type":"error","name":"ExpectedBytes32","inputs":[]},{"type":"error","name":"ExpectedRLPList","inputs":[]},{"type":"error","name":"InvalidAddress","inputs":[]},{"type":"error","name":"InvalidBondSignature","inputs":[]},{"type":"error","name":"InvalidRLP","inputs":[]},{"type":"error","name":"InvalidRLPEncoding","inputs":[]},{"type":"error","name":"InvalidRLPList","inputs":[]},{"type":"error","name":"InvalidReceiptProof","inputs":[]},{"type":"error","name":"InvalidTransferEvent","inputs":[]},{"type":"error","name":"NoWithdrawableFunds","inputs":[]},{"type":"error","name":"NotFunded","inputs":[]},{"type":"error","name":"OnlyBondedExecutor","inputs":[]},{"type":"error","name":"OnlyDeployer","inputs":[]},{"type":"error","name":"RLPOffsetOutOfBounds","inputs":[]},{"type":"error","name":"TargetBlockInFuture","inputs":[]},{"type":"error","name":"TargetBlockTooOld","inputs":[]},{"type":"error","name":"ToAddressMismatch","inputs":[]},{"type":"error","name":"TokenTransferFailed","inputs":[]},{"type":"error","name":"WrongEventSignature","inputs":[]},{"type":"error","name":"WrongTokenContract","inputs":[]},{"type":"error","name":"ZeroAddress","inputs":[]},{"type":"error","name":"ZeroBlindedSigner","inputs":[]},{"type":"error","name":"ZeroBondAmount","inputs":[]},{"type":"error","name":"ZeroRewardAmount","inputs":[]}],"bytecode":{"object":"0x6101408060405260a081612692803803809161001b82856102e4565b8339810103126102e05761002e8161031b565b9061003b6020820161031b565b906040810151608061004f6060840161031b565b920151926001600160a01b038316156102d15760e0526101005260c0523360a05260405160208101907f8b73c3c69bb8fe3d512ecc4cf759cc79239f7b179b0ffacaa9a75d522b39400f82527fa222588f33d25c694dfae6965a4e2410aa5c3f8d5d6c2f0a3100d528225c8a0860408201527fc89efdaa54c0f20c7adf612882df0950f5a951637e0307cdcb4c672f298b8bc660608201524660808201523060a082015260a0815261010260c0826102e4565b5190206080526001600160a01b0382169182156102c25761012052801580156101c8575b6040516122d490816103be82396080518181816109d50152611082015260a0518181816101760152818161052c0152818161061f0152610b53015260c05181818161037a01526105df015260e05181818161057e01526108b8015261010051818181610202015281816106770152610896015261012051818181610295015281816104b9015281816106bd015281816108da01528181610fc00152610ff10152f35b60a0516001600160a01b031633036102b35760ff60065460081c166102a45761029557341561028657805f558060025561010051806001553460055581018091116102725761024791604051916323b872dd60e01b60208401523360248401523060448401526064830152606482526102426084836102e4565b61032f565b156102635761010061ff001960065416176006555f8080610126565b63022e258160e11b5f5260045ffd5b634e487b7160e01b5f52601160045260245ffd5b636edb2d2f60e11b5f5260045ffd5b63ea1083a760e01b5f5260045ffd5b635adf638760e01b5f5260045ffd5b63618bbdd560e01b5f5260045ffd5b63d92e233d60e01b5f5260045ffd5b635f39711760e11b5f5260045ffd5b5f80fd5b601f909101601f19168101906001600160401b0382119082101761030757604052565b634e487b7160e01b5f52604160045260245ffd5b51906001600160a01b03821682036102e057565b803b156103b757815f92918360208194519301915af13d156103af573d906001600160401b0382116103075760405191610373601f8201601f1916602001846102e4565b82523d5f602084013e5b156103a757805180156103a05760201161039b576020015160011490565b505f90565b5050600190565b602081519101fd5b60609061037d565b50505f9056fe60806040526004361015610011575f80fd5b5f3560e01c8063046f7da2146101645780631aa7c0ec1461015f5780632feef2ec1461015a578063308657d71461015557806333ee5f35146101505780633d2691bc1461014b57806355a373d6146101465780635a4fd645146101415780635c56f7ce1461013c5780636332cd85146101375780636b892b221461013257806381972d001461012d5780638677ab23146101285780638bd03d0a14610123578063a967d9321461011e578063ca1d209d14610119578063cb766a5614610114578063d415b3f91461010f578063ede7f6a31461010a578063f3a504f2146101055763f698da2514610100575f80fd5b6109be565b610999565b610769565b61074c565b610728565b61060e565b6105ca565b6105ad565b610569565b61051a565b61044b565b61042e565b6102e0565b6102c4565b610280565b610264565b610247565b610225565b6101eb565b6101c3565b346101bf575f3660031901126101bf577f00000000000000000000000000000000000000000000000000000000000000006001600160a01b031633036101b0576006805460ff19169055005b63618bbdd560e01b5f5260045ffd5b5f80fd5b346101bf575f3660031901126101bf576003546040516001600160a01b039091168152602090f35b346101bf575f3660031901126101bf5760206040517f00000000000000000000000000000000000000000000000000000000000000008152f35b346101bf575f3660031901126101bf57602060ff600654166040519015158152f35b346101bf575f3660031901126101bf576020600454604051908152f35b346101bf575f3660031901126101bf5760206040516101008152f35b346101bf575f3660031901126101bf576040517f00000000000000000000000000000000000000000000000000000000000000006001600160a01b03168152602090f35b346101bf575f3660031901126101bf5760205f54604051908152f35b346101bf5760203660031901126101bf5760043567ffffffffffffffff81116101bf57366023820112156101bf57806004013567ffffffffffffffff81116101bf5736602482840101116101bf576004548015159081610424575b50610417575b60065460ff8160081c16156104085760ff166103f95761035f610ace565b6103ea57602461037092013361101a565b6001600160a01b037f000000000000000000000000000000000000000000000000000000000000000081169116036103dc576103aa610b19565b5f8080806005546103ba5f600555565b335af16103c5610a4f565b50156103cd57005b6383e6cc6b60e01b5f5260045ffd5b62b8406360e61b5f5260045ffd5b63129f78e960e11b5f5260045ffd5b632479328960e01b5f5260045ffd5b636af784dd60e11b5f5260045ffd5b61041f610b83565b610341565b905042115f61033b565b346101bf575f3660031901126101bf576020600554604051908152f35b346101bf575f3660031901126101bf5761046d600160ff196006541617600655565b610475610b43565b61047d610b83565b610485610bb4565b600554906104a061ff0019600654166006555f6001555f8055565b6104a95f600555565b801561050b576104dd6104e191337f0000000000000000000000000000000000000000000000000000000000000000610bc6565b1590565b6104fc57806104ec57005b5f80808093335af16103c5610a4f565b63022e258160e11b5f5260045ffd5b6353cd7f7960e01b5f5260045ffd5b346101bf575f3660031901126101bf577f00000000000000000000000000000000000000000000000000000000000000006001600160a01b031633036101b0576006805460ff19166001179055005b346101bf575f3660031901126101bf576040517f00000000000000000000000000000000000000000000000000000000000000006001600160a01b03168152602090f35b346101bf575f3660031901126101bf576020600154604051908152f35b346101bf575f3660031901126101bf576040517f00000000000000000000000000000000000000000000000000000000000000006001600160a01b03168152602090f35b60203660031901126101bf576004357f00000000000000000000000000000000000000000000000000000000000000006001600160a01b031633036101b05760065460081c60ff1661071957801561070a5734156106fb5780610672915f55600255565b61069b7f0000000000000000000000000000000000000000000000000000000000000000600155565b6106a434600555565b6106e16104dd6106b960025460015490610ac1565b30337f0000000000000000000000000000000000000000000000000000000000000000610c11565b6104fc576106f961010061ff00196006541617600655565b005b636edb2d2f60e11b5f5260045ffd5b63ea1083a760e01b5f5260045ffd5b635adf638760e01b5f5260045ffd5b346101bf575f3660031901126101bf576020610742610ace565b6040519015158152f35b346101bf575f3660031901126101bf576020600254604051908152f35b346101bf5760403660031901126101bf5760043567ffffffffffffffff81116101bf578060040160a060031983360301126101bf576024356107ab8280610ae6565b6006546107bc9060081c60ff161590565b610408576003546107dd906001600160a01b03165b6001600160a01b031690565b3314801590610988575b6109795743831161096a576101006107ff8443610c72565b1161095b578240801561094c57610817368385610c7f565b602081519101200361093d5761082c9161112b565b0361092e5761084461083e8280610ae6565b90610ce3565b9161087e6104dd602483019461085a8686610ae6565b906108686044870188610ae6565b90610876606489018a610ae6565b949093610d53565b61091f576084610894610904946104dd94610ae6565b7f0000000000000000000000000000000000000000000000000000000000000000937f0000000000000000000000000000000000000000000000000000000000000000937f0000000000000000000000000000000000000000000000000000000000000000939101359190610dd4565b610910576106f9610f6e565b6364fa89e160e11b5f5260045ffd5b637b374dd160e01b5f5260045ffd5b63048a12f560e11b5f5260045ffd5b63ff28378760e01b5f5260045ffd5b63bfc9f0d360e01b5f5260045ffd5b63c42a018560e01b5f5260045ffd5b63058968cf60e41b5f5260045ffd5b6337b5f20360e21b5f5260045ffd5b506109946104dd610ace565b6107e7565b346101bf575f3660031901126101bf57602060ff60065460081c166040519015158152f35b346101bf575f3660031901126101bf5760206040517f00000000000000000000000000000000000000000000000000000000000000008152f35b634e487b7160e01b5f52604160045260245ffd5b90601f8019910116810190811067ffffffffffffffff821117610a2e57604052565b6109f8565b67ffffffffffffffff8111610a2e57601f01601f191660200190565b3d15610a79573d90610a6082610a33565b91610a6e6040519384610a0c565b82523d5f602084013e565b606090565b634e487b7160e01b5f52601160045260245ffd5b9060018201809211610aa057565b610a7e565b6001019081600111610aa057565b9060158201809211610aa057565b91908201809211610aa057565b6004548015159081610ade575090565b905042111590565b903590601e19813603018212156101bf570180359067ffffffffffffffff82116101bf576020019181360383136101bf57565b336bffffffffffffffffffffffff60a01b600354161760035561012c4201804211610aa057600455565b60ff60065460081c1615610408577f00000000000000000000000000000000000000000000000000000000000000006001600160a01b031633036101b057565b610b8b610ace565b610ba557600380546001600160a01b03191690555f600455565b639cbc1de160e01b5f5260045ffd5b6001546002548101809111610aa05790565b60405163a9059cbb60e01b60208201526001600160a01b0390921660248301526044820192909252610c0e91610c0982606481015b03601f198101845283610a0c565b6110d4565b90565b6040516323b872dd60e01b60208201526001600160a01b039283166024820152929091166044830152606480830193909352918152610c0e91610c09608483610a0c565b600119810191908211610aa057565b5f19810191908211610aa057565b91908203918211610aa057565b929192610c8b82610a33565b91610c996040519384610a0c565b8294818452818301116101bf578281602093845f960137010152565b634e487b7160e01b5f52603260045260245ffd5b9015610cd25790565b610cb5565b90821015610cd2570190565b90610cee81836111e7565b905f5b60058110610d3e5750600560fd1b906001600160f81b031990610d1690849086610cd7565b351603610d2f57600181018111610aa057016001013590565b633954003560e11b5f5260045ffd5b91610d4c600191838661131b565b9201610cf1565b610d69610d7192939495610c0e98973691610c7f565b923691610c7f565b906114a3565b60ff60f6199116019060ff8211610aa057565b60ff607f199116019060ff8211610aa057565b60ff60bf199116019060ff8211610aa057565b60ff60b6199116019060ff8211610aa057565b60ff166001019060ff8211610aa057565b9594939291905f818881151580610f52575b610f44575b610e14610e0e610e008560c09560ff95610cd7565b356001600160f81b03191690565b60f81c90565b1610610f0e57808860f860ff610e32610e0e610e0088978887610cd7565b1610610f3457610e5f610e5a610e55610e0e610e0086610e6b98610e6597610cd7565b610d77565b610dc3565b60ff1690565b90610ac1565b81885f5b60038110610f1d5750610e5f610e0e610e008560c095610e8e95610cd7565b10610f0e57808860f8610eac610e5f610e0e610e0088978887610cd7565b10610efd57610e5f610e5a610e55610e0e610e0086610ece98610e6597610cd7565b915b5f905b808210610ee6575050610c0e9596611650565b9092610ef5600191848b61131b565b930190610ed3565b50610f089150610a92565b91610ed0565b631bd5dcf760e31b5f5260045ffd5b92600192610f2a9261131b565b9101888391610e6f565b50610f3f9150610a92565b610e6b565b506001915082905088610deb565b50608060ff610f67610e0e610e008686610cc9565b1610610de6565b5f546001548101809111610aa057600380546001600160a01b031981169091555f60048190556006805461ff0019169055600181905580556001600160a01b0316904662aa36a703610feb57610fe4917f0000000000000000000000000000000000000000000000000000000000000000611720565b156104fc57565b611015917f0000000000000000000000000000000000000000000000000000000000000000610bc6565b610fe4565b916110c56110cb92610c0e9460405160208101917f017ab2ce48f3ed2b84d1da9d31a578e8a2f60972b9bfce11127c1725944faa11835260018060a01b031660408201526040815261106d606082610a0c565b519020604051602081019161190160f01b83527f000000000000000000000000000000000000000000000000000000000000000060228301526042820152604281526110ba606282610a0c565b519020923691610c7f565b90611dab565b90929192611e03565b803b1561112557815f92918360208194519301915af16110f2610a4f565b901561111d578051801561111657602011611111576020015160011490565b505f90565b5050600190565b602081519101fd5b50505f90565b61113582826111e7565b915f5b600881106111d25750611152610e0e610e00858486610cd7565b925f9260ff851694608086105f1461116c57505050505090565b61117d9193949550610e5f90610d8a565b915f935b83851061119057505050505090565b90919293946111a160019160081b90565b6111c6610e5f610e0e610e006111bf8b6111ba8b610a92565b610ac1565b8789610cd7565b17950193929190611181565b926111e0600191838561131b565b9301611138565b5f600360fe1b6001600160f81b0319611203610e008686610cc9565b16106112e357601f60fb1b6001600160f81b0319611224610e008686610cc9565b16106113125780610e65610e5f610e5a610e55610e0e610e00611248978a8a610cd7565b905b61a5bd46148015611307575b611261575b50905090565b5f5b600381106112f25750600360fe1b61128f611282610e00858786610cd7565b6001600160f81b03191690565b106112e357601f60fb1b6112aa611282610e00858786610cd7565b106112d357610e5f610e5a610e55610e0e610e00866112cc98610e6597610cd7565b805f61125b565b506112de9150610a92565b6112cc565b63c0098bd960e01b5f5260045ffd5b91611300600191858461131b565b9201611263565b5061a5bf4614611256565b5060019061124a565b91908082101561147657611336610e0e610e00848487610cd7565b9060ff8216608081101561135157505050610c0e9150610a92565b91929160b8811015611379575050610c0e9250610e5f611373610e6592610a92565b92610d8a565b90929060c08110156113ef5750610e5f61139591949394610db0565b915f935f915b8483106113b657505050610c0e92916111ba6111ba92610a92565b9091946113c560019160081b90565b6113e5610e5f610e0e610e006113de8b6111ba8b610a92565b8888610cd7565b179501919061139b565b90929060f811156114155750610c0e9250610e5f61140f610e6592610a92565b92610d9d565b9291610e5f61142391610d77565b915f935f915b84831061144457505050610c0e92916111ba6111ba92610a92565b90919461145360019160081b90565b61146c610e5f610e0e610e006113de8b6111ba8b610a92565b1795019190611429565b6318d76ae160e11b5f5260045ffd5b805115610cd25760200190565b908151811015610cd2570160200190565b919390929190600360fe1b6001600160f81b03196114c4610e008689610cc9565b161061164157601f60fb1b6001600160f81b03196114e5610e008689610cc9565b161061163757611509611504610e5f610e55610e0e610e00888b610cc9565b610aa5565b9492905b945f5b82821061152257505050505050505f90565b6115406115398361153436878a610c7f565b6117ad565b9093610ac1565b9682516020840120036115d557600360fe1b61156f61128261156185611485565b516001600160f81b03191690565b106115d5578590846001601f60fb1b61158d61128261156188611485565b1015611619575b61159e8186611954565b601181036115e057506115b094611adf565b9491156115d55784156115c95793915b91959093611510565b50505050505050600190565b505050505050505f90565b90935060021415905061160d578487926115f994611999565b9491156115d55784156115c95793916115c0565b50505050505050505f90565b50611632611504610e5f610e55610e0e61156189611485565b611594565b600194929061150d565b63ebb47d1d60e01b5f5260045ffd5b91949392948060c060ff61166b610e0e610e0085888a610cd7565b1610610f0e5760f860ff611686610e0e610e0085888a610cd7565b1610611710575080610e65610e5f610e5a610e55610e0e610e006116ab97898b610cd7565b945b609460ff6116c2610e0e610e008a8789610cd7565b1603611701576001600160a01b03168286016001013560601c036116f2576116ec610c0e95610ab3565b91611bf4565b63a087f96f60e01b5f5260045ffd5b63e6c4247b60e01b5f5260045ffd5b61171a9150610a92565b946116ad565b604051633419e74d60e21b60208201526001600160a01b0390921660248301526044820192909252610c0e91610c098260648101610bfb565b6040805190919061176a8382610a0c565b6001815291601f1901366020840137565b9061178582610a33565b6117926040519182610a0c565b82815280926117a3601f1991610a33565b0190602036910137565b8051821015611476576117c6610e0e6115618484611492565b9160ff831660808110156117ff575050506117df611759565b9060f81b6001600160f81b0319165f1a6117f882611485565b5390600190565b919392909160b88110156118695750610e5f61181a91610d8a565b906118248261177b565b935f5b83811061183a57505050610c0e90610aa5565b806118566115616118506001946111ba88610a92565b85611492565b5f1a6118628289611492565b5301611827565b60c0111561190757610e5f61187d91610db0565b5f915f5b8281106118d957506118928361177b565b945f5b8481106118ac57505050906111ba610c0e92610aa5565b806118c66115616118506001946111ba896111ba8a610a92565b5f1a6118d2828a611492565b5301611895565b9260019060081b6118ff610e5f610e0e6115616118f9896111ba89610a92565b8b611492565b179301611881565b50916119138382611e7f565b9261191d8461177b565b915f5b85811061192e575050509190565b8061194161156161185060019487610ac1565b5f1a61194d8287611492565b5301611920565b5f92915b815181101561197f5761196b8183611e7f565b8101809111610aa057600190930192611958565b5050565b908160011b9180830460021490151715610aa057565b839492916119a781836117ad565b93906119c660206119bd610e0e61156185611485565b16151591611fac565b97889115611a6857506119da905187610ac1565b6119e48251611983565b146119f9575b505050505050505f905f905f90565b86866001928251611a56575b505050611a13575b806119ea565b611a2692611a2091610ac1565b906117ad565b5060208151910120906020815191012014611a445780808080611a0d565b611a4f915190610ac1565b6001915f90565b611a609350612117565b86865f611a05565b611a7993949596506104dd92612117565b611ad257611a8a92611a2091610ac1565b50908151602081145f14611ab257506020611aaa920151925b5190610ac1565b916001929190565b8015611ac6576020611aaa93012092611aa3565b505050505f905f905f90565b50505050505f905f905f90565b91909293611aed8251611983565b851015611b975750610e0e611561611b0f92611b098760011c90565b90611492565b60018416611b8e5760041c600f16915b905f925b60ff81168410611b6e5750611b3892506117ad565b5080518015611b6357611aaa9160208203611b595760209150015191610a92565b6020012091610a92565b5050505f905f905f90565b90916001611b8282610e6560ff9487611e7f565b94019392919050611b23565b600f1691611b1f565b9290509392935f915b60108310611bda57611bb292506117ad565b50602081519101209060208151910120145f14611bd157600191905f90565b5f915081908190565b90611beb81610e6560019385611e7f565b92019190611ba0565b929190918160c060ff611c0e610e0e610e0087898b610cd7565b1610610f0e5760f860ff611c29610e0e610e0087898b610cd7565b1610611d9c5780610e65610e5f610e5a610e55610e0e610e00611c4d978b8d610cd7565b7fddf252ad1be2c89b69c2b068fc378daa952ba7f163c4a11628f55a4df523b3ef611c798286886121d5565b03611d8d576107d16107d1611c9c611c95611ca394888a61131b565b878961131b565b86886121d5565b6001600160a01b03918216911603611d7e57611cc090828461131b565b905f91611cd4610e0e610e00838588610cd7565b60ff811694906080861015611d025750505050505b03611cf357600190565b6355e97b0d60e01b5f5260045ffd5b9091929394608081145f14611d1d575050505050505f611ce9565b60a010610f0e57610e5f611d3391939293610d8a565b915f935b838510611d48575050505050611ce9565b9091929394611d5960019160081b90565b611d72610e5f610e0e610e006111bf8b6111ba8b610a92565b17950193929190611d37565b634cd4b7b160e01b5f5260045ffd5b6324da545d60e11b5f5260045ffd5b50611da682610a92565b611c4d565b8151919060418303611ddb57611dd49250602082015190606060408401519301515f1a90612211565b9192909190565b50505f9160029190565b60041115611def57565b634e487b7160e01b5f52602160045260245ffd5b611e0c81611de5565b80611e15575050565b611e1e81611de5565b60018103611e355763f645eedf60e01b5f5260045ffd5b611e3e81611de5565b60028103611e59575063fce698f760e01b5f5260045260245ffd5b80611e65600392611de5565b14611e6d5750565b6335e2f38360e21b5f5260045260245ffd5b90815181101561147657611e99610e0e6115618385611492565b9160ff83166080811015611eb05750505050600190565b60b8811015611ecb57505050610e5f610e5a610c0e92610d8a565b60c0811015611f37575091610e5f611ee291610db0565b905f925f915b838310611eff57505050906111ba610c0e92610aa5565b909193611f0e60019160081b90565b611f2d610e5f610e0e611561611f278a6111ba89610a92565b88611492565b1794019190611ee8565b60f81115611f50575050610e5f610e5a610c0e92610d9d565b91610e5f611f5d91610d77565b905f925f915b838310611f7a57505050906111ba610c0e92610aa5565b909193611f8960019160081b90565b611fa2610e5f610e0e611561611f278a6111ba89610a92565b1794019190611f63565b9081511561211557611fc3610e0e61156184611485565b601081161561209257611fe6611fe1611fdc8551611983565b610c64565b61177b565b9060f81b600f60f81b165f1a611ffb82611485565b5360015b835181101561208d578061203a61202a612021610e0e6115616001968a611492565b60041c600f1690565b60f81b6001600160f81b03191690565b612053612049611fdc84611983565b915f1a9185611492565b5361207a600f612069610e0e611561858a611492565b1660f81b6001600160f81b03191690565b61208661204983611983565b5301611fff565b509150565b506120a8611fe16120a38451611983565b610c55565b60015b835181101561208d57806120cd61202a612021610e0e6115616001968a611492565b6120e16120496120dc84610c64565b611983565b536120f7600f612069610e0e611561858a611492565b61210e6120496121096120dc85610c64565b610a92565b53016120ab565b565b919091612125825184610ac1565b61212f8251611983565b106121ce575f5b82518110156121c55761215261214c8286610ac1565b60011690565b6121a75761217b612021610e0e61156161217561216f868a610ac1565b60011c90565b86611492565b60ff612190610e5f610e0e6115618689611492565b91160361219f57600101612136565b505050505f90565b600f6121bf610e0e61156161217561216f868a610ac1565b1661217b565b50505050600190565b5050505f90565b9190600560fd1b906001600160f81b0319906121f390849086610cd7565b35160361220257016001013590565b63f0ff325b60e01b5f5260045ffd5b91907f7fffffffffffffffffffffffffffffff5d576e7357a4501ddfe92f46681b20a08411612293579160209360809260ff5f9560405194855216868401526040830152606082015282805260015afa15612288575f516001600160a01b0381161561227e57905f905f90565b505f906001905f90565b6040513d5f823e3d90fd5b5050505f916003919056fea2646970667358221220f45f8a3b45ebc455ecbe0f506569c4ba1dffd83172091bec3974f61da5ca656f64736f6c634300081e0033","linkReferences":{}},"methodIdentifiers":{"MAX_BLOCK_LOOKBACK()":"3d2691bc","blindedSigner()":"a967d932","bond(bytes)":"5c56f7ce","bondPot()":"6332cd85","bondedExecutor()":"1aa7c0ec","cancelAndWithdraw()":"6b892b22","cancellationRequest()":"308657d7","collect((bytes,bytes,bytes,bytes,uint256),uint256)":"ede7f6a3","currentPaymentAmount()":"8bd03d0a","currentRewardAmount()":"5a4fd645","domainSeparator()":"f698da25","executionDeadline()":"33ee5f35","expectedAmount()":"2feef2ec","expectedRecipient()":"8677ab23","fund(uint256)":"ca1d209d","funded()":"f3a504f2","is_bonded()":"cb766a56","originalRewardAmount()":"d415b3f9","requestCancellation()":"81972d00","resume()":"046f7da2","tokenContract()":"55a373d6"},"storageLayout":{"storage":[{"astId":40212,"contract":"src/EscrowERC20.sol:EscrowERC20","label":"currentRewardAmount","offset":0,"slot":"0","type":"t_uint256"},{"astId":40214,"contract":"src/EscrowERC20.sol:EscrowERC20","label":"currentPaymentAmount","offset":0,"slot":"1","type":"t_uint256"},{"astId":40216,"contract":"src/EscrowERC20.sol:EscrowERC20","label":"originalRewardAmount","offset":0,"slot":"2","type":"t_uint256"},{"astId":40227,"contract":"src/EscrowERC20.sol:EscrowERC20","label":"bondedExecutor","offset":0,"slot":"3","type":"t_address"},{"astId":40229,"contract":"src/EscrowERC20.sol:EscrowERC20","label":"executionDeadline","offset":0,"slot":"4","type":"t_uint256"},{"astId":40231,"contract":"src/EscrowERC20.sol:EscrowERC20","label":"bondPot","offset":0,"slot":"5","type":"t_uint256"},{"astId":40233,"contract":"src/EscrowERC20.sol:EscrowERC20","label":"cancellationRequest","offset":0,"slot":"6","type":"t_bool"},{"astId":40235,"contract":"src/EscrowERC20.sol:EscrowERC20","label":"funded","offset":1,"slot":"6","type":"t_bool"}],"types":{"t_address":{"encoding":"inplace","label":"address","numberOfBytes":"20"},"t_bool":{"encoding":"inplace","label":"bool","numberOfBytes":"1"},"t_uint256":{"encoding":"inplace","label":"uint256","numberOfBytes":"32"}}},"id":22}