{"abi":[{"type":"constructor","inputs":[{"name":"_tokenContract","type":"address","internalType":"address"},{"name":"_expectedRecipient","type":"address","internalType":"address"},{"name":"_expectedAmount","type":"uint256","internalType":"uint256"},{"name":"_blindedSigner","type":"address","internalType":"address"},{"name":"_currentRewardAmount","type":"uint256","internalType":"uint256"}],"stateMutability":"payable"},{"type":"function","name":"MAX_BLOCK_LOOKBACK","inputs":[],"outputs":[{"name":"","type":"uint256","internalType":"uint256"}],"stateMutability":"view"},{"type":"function","name":"blindedSigner","inputs":[],"outputs":[{"name":"","type":"address","internalType":"address"}],"stateMutability":"view"},{"type":"function","name":"bond","inputs":[{"name":"bondSig","type":"bytes","internalType":"bytes"}],"outputs":[],"stateMutability":"nonpayable"},{"type":"function","name":"bondPot","inputs":[],"outputs":[{"name":"","type":"uint256","internalType":"uint256"}],"stateMutability":"view"},{"type":"function","name":"bondStartBlock","inputs":[],"outputs":[{"name":"","type":"uint256","internalType":"uint256"}],"stateMutability":"view"},{"type":"function","name":"bondedExecutor","inputs":[],"outputs":[{"name":"","type":"address","internalType":"address"}],"stateMutability":"view"},{"type":"function","name":"cancelAndWithdraw","inputs":[],"outputs":[],"stateMutability":"nonpayable"},{"type":"function","name":"cancellationRequest","inputs":[],"outputs":[{"name":"","type":"bool","internalType":"bool"}],"stateMutability":"view"},{"type":"function","name":"collect","inputs":[{"name":"proof","type":"tuple","internalType":"struct EscrowERC20.ReceiptProof","components":[{"name":"blockHeader","type":"bytes","internalType":"bytes"},{"name":"receiptRlp","type":"bytes","internalType":"bytes"},{"name":"proofNodes","type":"bytes","internalType":"bytes"},{"name":"receiptPath","type":"bytes","internalType":"bytes"},{"name":"logIndex","type":"uint256","internalType":"uint256"}]},{"name":"targetBlockNumber","type":"uint256","internalType":"uint256"}],"outputs":[],"stateMutability":"nonpayable"},{"type":"function","name":"currentPaymentAmount","inputs":[],"outputs":[{"name":"","type":"uint256","internalType":"uint256"}],"stateMutability":"view"},{"type":"function","name":"currentRewardAmount","inputs":[],"outputs":[{"name":"","type":"uint256","internalType":"uint256"}],"stateMutability":"view"},{"type":"function","name":"domainSeparator","inputs":[],"outputs":[{"name":"","type":"bytes32","internalType":"bytes32"}],"stateMutability":"view"},{"type":"function","name":"executionDeadline","inputs":[],"outputs":[{"name":"","type":"uint256","internalType":"uint256"}],"stateMutability":"view"},{"type":"function","name":"expectedAmount","inputs":[],"outputs":[{"name":"","type":"uint256","internalType":"uint256"}],"stateMutability":"view"},{"type":"function","name":"expectedRecipient","inputs":[],"outputs":[{"name":"","type":"address","internalType":"address"}],"stateMutability":"view"},{"type":"function","name":"fund","inputs":[{"name":"_currentRewardAmount","type":"uint256","internalType":"uint256"}],"outputs":[],"stateMutability":"payable"},{"type":"function","name":"funded","inputs":[],"outputs":[{"name":"","type":"bool","internalType":"bool"}],"stateMutability":"view"},{"type":"function","name":"is_bonded","inputs":[],"outputs":[{"name":"","type":"bool","internalType":"bool"}],"stateMutability":"view"},{"type":"function","name":"originalRewardAmount","inputs":[],"outputs":[{"name":"","type":"uint256","internalType":"uint256"}],"stateMutability":"view"},{"type":"function","name":"requestCancellation","inputs":[],"outputs":[],"stateMutability":"nonpayable"},{"type":"function","name":"resume","inputs":[],"outputs":[],"stateMutability":"nonpayable"},{"type":"function","name":"tokenContract","inputs":[],"outputs":[{"name":"","type":"address","internalType":"address"}],"stateMutability":"view"},{"type":"error","name":"AlreadyFunded","inputs":[]},{"type":"error","name":"AmountMismatch","inputs":[]},{"type":"error","name":"BlockHashUnavailable","inputs":[]},{"type":"error","name":"BlockHeaderMismatch","inputs":[]},{"type":"error","name":"BlockNumberMismatch","inputs":[]},{"type":"error","name":"BondActive","inputs":[]},{"type":"error","name":"BondTransferFailed","inputs":[]},{"type":"error","name":"CancellationRequested","inputs":[]},{"type":"error","name":"ECDSAInvalidSignature","inputs":[]},{"type":"error","name":"ECDSAInvalidSignatureLength","inputs":[{"name":"length","type":"uint256","internalType":"uint256"}]},{"type":"error","name":"ECDSAInvalidSignatureS","inputs":[{"name":"s","type":"bytes32","internalType":"bytes32"}]},{"type":"error","name":"ExecutorAlreadyBonded","inputs":[]},{"type":"error","name":"ExpectedBytes32","inputs":[]},{"type":"error","name":"ExpectedRLPList","inputs":[]},{"type":"error","name":"InvalidAddress","inputs":[]},{"type":"error","name":"InvalidBondSignature","inputs":[]},{"type":"error","name":"InvalidRLP","inputs":[]},{"type":"error","name":"InvalidRLPEncoding","inputs":[]},{"type":"error","name":"InvalidRLPList","inputs":[]},{"type":"error","name":"InvalidReceiptProof","inputs":[]},{"type":"error","name":"InvalidTransferEvent","inputs":[]},{"type":"error","name":"NoWithdrawableFunds","inputs":[]},{"type":"error","name":"NotFunded","inputs":[]},{"type":"error","name":"OnlyBondedExecutor","inputs":[]},{"type":"error","name":"OnlyDeployer","inputs":[]},{"type":"error","name":"ProofBeforeBond","inputs":[]},{"type":"error","name":"RLPOffsetOutOfBounds","inputs":[]},{"type":"error","name":"TargetBlockInFuture","inputs":[]},{"type":"error","name":"TargetBlockTooOld","inputs":[]},{"type":"error","name":"ToAddressMismatch","inputs":[]},{"type":"error","name":"TokenTransferFailed","inputs":[]},{"type":"error","name":"WrongEventSignature","inputs":[]},{"type":"error","name":"WrongTokenContract","inputs":[]},{"type":"error","name":"ZeroAddress","inputs":[]},{"type":"error","name":"ZeroBlindedSigner","inputs":[]},{"type":"error","name":"ZeroBondAmount","inputs":[]},{"type":"error","name":"ZeroRewardAmount","inputs":[]}],"bytecode":{"object":"0x6101408060405260a081612731803803809161001b828561032b565b8339810103126102a65761002e81610362565b9061003b60208201610362565b906040810151608061004f60608401610362565b920151926001600160a01b0383161561031c5760e0526101005260c0523360a05260405160208101907f8b73c3c69bb8fe3d512ecc4cf759cc79239f7b179b0ffacaa9a75d522b39400f82527fa222588f33d25c694dfae6965a4e2410aa5c3f8d5d6c2f0a3100d528225c8a0860408201527fc89efdaa54c0f20c7adf612882df0950f5a951637e0307cdcb4c672f298b8bc660608201524660808201523060a082015260a0815261010260c08261032b565b5190206080526001600160a01b03821691821561030d5761012052801580156101c8575b6040516123ba90816103778239608051818181610ae501526111f2015260a051818181610186015281816105a0015281816106b00152610c85015260c05181818161038a0152610653015260e0518181816105f201526109b90152610100518181816102120152818161070801526109970152610120518181816102a5015281816104ef0152818161077b015281816109db0152818161109b015261112d0152f35b60a0516001600160a01b031633036102fe5760ff60075460081c166102ef576102e05734156102d157805f558060025561010051806001553460065581018091116102bd575f91606460209260405194859384926323b872dd60e01b845233600485015230602485015260448401525af19081156102b2575f91610273575b50156102645761010061ff001960075416176007555f8080610126565b63022e258160e11b5f5260045ffd5b90506020813d6020116102aa575b8161028e6020938361032b565b810103126102a6575180151581036102a6575f610247565b5f80fd5b3d9150610281565b6040513d5f823e3d90fd5b634e487b7160e01b5f52601160045260245ffd5b636edb2d2f60e11b5f5260045ffd5b63ea1083a760e01b5f5260045ffd5b635adf638760e01b5f5260045ffd5b63618bbdd560e01b5f5260045ffd5b63d92e233d60e01b5f5260045ffd5b635f39711760e11b5f5260045ffd5b601f909101601f19168101906001600160401b0382119082101761034e57604052565b634e487b7160e01b5f52604160045260245ffd5b51906001600160a01b03821682036102a65756fe60806040526004361015610011575f80fd5b5f3560e01c8063046f7da2146101745780631aa7c0ec1461016f5780632feef2ec1461016a578063308657d71461016557806333ee5f35146101605780633d2691bc1461015b57806355a373d6146101565780635a4fd645146101515780635c56f7ce1461014c5780636332cd85146101475780636b892b221461014257806381972d001461013d5780638677ab23146101385780638bd03d0a14610133578063a967d9321461012e578063b8740ffb14610129578063ca1d209d14610124578063cb766a561461011f578063d415b3f91461011a578063ede7f6a314610115578063f3a504f2146101105763f698da251461010b575f80fd5b610ace565b610aa9565b61085c565b61083f565b61081b565b61069f565b610682565b61063e565b610621565b6105dd565b61058e565b61045b565b61043e565b6102f0565b6102d4565b610290565b610274565b610257565b610235565b6101fb565b6101d3565b346101cf575f3660031901126101cf577f00000000000000000000000000000000000000000000000000000000000000006001600160a01b031633036101c0576007805460ff19169055005b63618bbdd560e01b5f5260045ffd5b5f80fd5b346101cf575f3660031901126101cf576003546040516001600160a01b039091168152602090f35b346101cf575f3660031901126101cf5760206040517f00000000000000000000000000000000000000000000000000000000000000008152f35b346101cf575f3660031901126101cf57602060ff600754166040519015158152f35b346101cf575f3660031901126101cf576020600454604051908152f35b346101cf575f3660031901126101cf5760206040516101008152f35b346101cf575f3660031901126101cf576040517f00000000000000000000000000000000000000000000000000000000000000006001600160a01b03168152602090f35b346101cf575f3660031901126101cf5760205f54604051908152f35b346101cf5760203660031901126101cf5760043567ffffffffffffffff81116101cf57366023820112156101cf57806004013567ffffffffffffffff81116101cf5736602482840101116101cf576004548015159081610434575b50610427575b60075460ff8160081c16156104185760ff166104095761036f610c01565b6103fa57602461038092013361118a565b6001600160a01b037f000000000000000000000000000000000000000000000000000000000000000081169116036103ec576103ba610c4c565b5f8080806006546103ca5f600655565b335af16103d5610b5f565b50156103dd57005b6383e6cc6b60e01b5f5260045ffd5b62b8406360e61b5f5260045ffd5b63129f78e960e11b5f5260045ffd5b632479328960e01b5f5260045ffd5b636af784dd60e11b5f5260045ffd5b61042f610cb5565b610351565b905042115f61034b565b346101cf575f3660031901126101cf576020600654604051908152f35b346101cf575f3660031901126101cf5761047d600160ff196007541617600755565b610485610c75565b61048d610cb5565b610495610cec565b600654906104b461ff0019600754166007555f6001555f80555f600555565b6104bd5f600655565b801561057f5760405163a9059cbb60e01b815233600482015260248101919091526020816044815f6001600160a01b037f0000000000000000000000000000000000000000000000000000000000000000165af190811561057a575f9161054b575b501561053c578061052c57005b5f80808093335af16103d5610b5f565b63022e258160e11b5f5260045ffd5b61056d915060203d602011610573575b6105658183610b1c565b810190610b8e565b5f61051f565b503d61055b565b610ba6565b6353cd7f7960e01b5f5260045ffd5b346101cf575f3660031901126101cf577f00000000000000000000000000000000000000000000000000000000000000006001600160a01b031633036101c0576007805460ff19166001179055005b346101cf575f3660031901126101cf576040517f00000000000000000000000000000000000000000000000000000000000000006001600160a01b03168152602090f35b346101cf575f3660031901126101cf576020600154604051908152f35b346101cf575f3660031901126101cf576040517f00000000000000000000000000000000000000000000000000000000000000006001600160a01b03168152602090f35b346101cf575f3660031901126101cf576020600554604051908152f35b60203660031901126101cf576004357f00000000000000000000000000000000000000000000000000000000000000006001600160a01b031633036101c05760075460081c60ff1661080c5780156107fd5734156107ee5780610703915f55600255565b61072c7f0000000000000000000000000000000000000000000000000000000000000000600155565b61073534600655565b610776602061074960025460015490610bf4565b6040516323b872dd60e01b8152336004820152306024820152604481019190915291829081906064820190565b03815f7f00000000000000000000000000000000000000000000000000000000000000006001600160a01b03165af190811561057a575f916107cf575b501561053c576107cd61010061ff00196007541617600755565b005b6107e8915060203d602011610573576105658183610b1c565b5f6107b3565b636edb2d2f60e11b5f5260045ffd5b63ea1083a760e01b5f5260045ffd5b635adf638760e01b5f5260045ffd5b346101cf575f3660031901126101cf576020610835610c01565b6040519015158152f35b346101cf575f3660031901126101cf576020600254604051908152f35b346101cf5760403660031901126101cf5760043567ffffffffffffffff81116101cf578060040160a060031983360301126101cf5760243561089e8280610c19565b6007546108b39060081c60ff161590565b1590565b610418576003546108d4906001600160a01b03165b6001600160a01b031690565b3314801590610a98575b610a8957438311610a7a576101006108f68443610d1b565b11610a6b57600554831115610a5c5782408015610a4d57610918368385610d28565b6020815191012003610a3e5761092d91611244565b03610a2f5761094561093f8280610c19565b90610d8c565b9161097f6108af602483019461095b8686610c19565b906109696044870188610c19565b90610977606489018a610c19565b949093610dfc565b610a20576084610995610a05946108af94610c19565b7f0000000000000000000000000000000000000000000000000000000000000000937f0000000000000000000000000000000000000000000000000000000000000000937f0000000000000000000000000000000000000000000000000000000000000000939101359190610e80565b610a11576107cd61101a565b6364fa89e160e11b5f5260045ffd5b637b374dd160e01b5f5260045ffd5b63048a12f560e11b5f5260045ffd5b63ff28378760e01b5f5260045ffd5b63bfc9f0d360e01b5f5260045ffd5b63067d020160e01b5f5260045ffd5b63c42a018560e01b5f5260045ffd5b63058968cf60e41b5f5260045ffd5b6337b5f20360e21b5f5260045ffd5b50610aa46108af610c01565b6108de565b346101cf575f3660031901126101cf57602060ff60075460081c166040519015158152f35b346101cf575f3660031901126101cf5760206040517f00000000000000000000000000000000000000000000000000000000000000008152f35b634e487b7160e01b5f52604160045260245ffd5b90601f8019910116810190811067ffffffffffffffff821117610b3e57604052565b610b08565b67ffffffffffffffff8111610b3e57601f01601f191660200190565b3d15610b89573d90610b7082610b43565b91610b7e6040519384610b1c565b82523d5f602084013e565b606090565b908160209103126101cf575180151581036101cf5790565b6040513d5f823e3d90fd5b634e487b7160e01b5f52601160045260245ffd5b9060018201809211610bd357565b610bb1565b6001019081600111610bd357565b9060158201809211610bd357565b91908201809211610bd357565b6004548015159081610c11575090565b905042111590565b903590601e19813603018212156101cf570180359067ffffffffffffffff82116101cf576020019181360383136101cf57565b336001600160601b0360a01b600354161760035561012c4201804211610bd35760045543600555565b60ff60075460081c1615610418577f00000000000000000000000000000000000000000000000000000000000000006001600160a01b031633036101c057565b610cbd610c01565b610cdd576001600160601b0360a01b600354166003555f6004555f600555565b639cbc1de160e01b5f5260045ffd5b6001546002548101809111610bd35790565b600119810191908211610bd357565b5f19810191908211610bd357565b91908203918211610bd357565b929192610d3482610b43565b91610d426040519384610b1c565b8294818452818301116101cf578281602093845f960137010152565b634e487b7160e01b5f52603260045260245ffd5b9015610d7b5790565b610d5e565b90821015610d7b570190565b90610d978183611300565b905f5b60058110610de75750600560fd1b906001600160f81b031990610dbf90849086610d80565b351603610dd857600181018111610bd357016001013590565b633954003560e11b5f5260045ffd5b91610df56001918386611434565b9201610d9a565b610e12610e1a92939495610e2098973691610d28565b923691610d28565b906115bc565b90565b60ff60f6199116019060ff8211610bd357565b60ff607f199116019060ff8211610bd357565b60ff60bf199116019060ff8211610bd357565b60ff60b6199116019060ff8211610bd357565b60ff166001019060ff8211610bd357565b9594939291905f818881151580610ffe575b610ff0575b610ec0610eba610eac8560c09560ff95610d80565b356001600160f81b03191690565b60f81c90565b1610610fba57808860f860ff610ede610eba610eac88978887610d80565b1610610fe057610f0b610f06610f01610eba610eac86610f1798610f1197610d80565b610e23565b610e6f565b60ff1690565b90610bf4565b81885f5b60038110610fc95750610f0b610eba610eac8560c095610f3a95610d80565b10610fba57808860f8610f58610f0b610eba610eac88978887610d80565b10610fa957610f0b610f06610f01610eba610eac86610f7a98610f1197610d80565b915b5f905b808210610f92575050610e209596611769565b9092610fa1600191848b611434565b930190610f7f565b50610fb49150610bc5565b91610f7c565b631bd5dcf760e31b5f5260045ffd5b92600192610fd692611434565b9101888391610f1b565b50610feb9150610bc5565b610f17565b506001915082905088610e97565b50608060ff611013610eba610eac8686610d72565b1610610e92565b611022611839565b6003546001600160a01b031661105f6001600160601b0360a01b600354166003555f6004555f60055561ff0019600754166007555f6001555f8055565b4662aa36a7036110fb57604051633419e74d60e21b81526001600160a01b0390911660048201526024810191909152602081806044810103815f7f00000000000000000000000000000000000000000000000000000000000000006001600160a01b03165af190811561057a575f916110dc575b505b1561053c57565b6110f5915060203d602011610573576105658183610b1c565b5f6110d3565b60405163a9059cbb60e01b81526001600160a01b0390911660048201526024810191909152602081806044810103815f7f00000000000000000000000000000000000000000000000000000000000000006001600160a01b03165af190811561057a575f9161116b575b506110d5565b611184915060203d602011610573576105658183610b1c565b5f611165565b9161123561123b92610e209460405160208101917f017ab2ce48f3ed2b84d1da9d31a578e8a2f60972b9bfce11127c1725944faa11835260018060a01b03166040820152604081526111dd606082610b1c565b519020604051602081019161190160f01b83527f0000000000000000000000000000000000000000000000000000000000000000602283015260428201526042815261122a606282610b1c565b519020923691610d28565b90611e9c565b90929192611ef4565b61124e8282611300565b915f5b600881106112eb575061126b610eba610eac858486610d80565b925f9260ff851694608086105f1461128557505050505090565b6112969193949550610f0b90610e36565b915f935b8385106112a957505050505090565b90919293946112ba60019160081b90565b6112df610f0b610eba610eac6112d88b6112d38b610bc5565b610bf4565b8789610d80565b1795019392919061129a565b926112f96001918385611434565b9301611251565b5f600360fe1b6001600160f81b031961131c610eac8686610d72565b16106113fc57601f60fb1b6001600160f81b031961133d610eac8686610d72565b161061142b5780610f11610f0b610f06610f01610eba610eac611361978a8a610d80565b905b61a5bd46148015611420575b61137a575b50905090565b5f5b6003811061140b5750600360fe1b6113a861139b610eac858786610d80565b6001600160f81b03191690565b106113fc57601f60fb1b6113c361139b610eac858786610d80565b106113ec57610f0b610f06610f01610eba610eac866113e598610f1197610d80565b805f611374565b506113f79150610bc5565b6113e5565b63c0098bd960e01b5f5260045ffd5b916114196001918584611434565b920161137c565b5061a5bf461461136f565b50600190611363565b91908082101561158f5761144f610eba610eac848487610d80565b9060ff8216608081101561146a57505050610e209150610bc5565b91929160b8811015611492575050610e209250610f0b61148c610f1192610bc5565b92610e36565b90929060c08110156115085750610f0b6114ae91949394610e5c565b915f935f915b8483106114cf57505050610e2092916112d36112d392610bc5565b9091946114de60019160081b90565b6114fe610f0b610eba610eac6114f78b6112d38b610bc5565b8888610d80565b17950191906114b4565b90929060f8111561152e5750610e209250610f0b611528610f1192610bc5565b92610e49565b9291610f0b61153c91610e23565b915f935f915b84831061155d57505050610e2092916112d36112d392610bc5565b90919461156c60019160081b90565b611585610f0b610eba610eac6114f78b6112d38b610bc5565b1795019190611542565b6318d76ae160e11b5f5260045ffd5b805115610d7b5760200190565b908151811015610d7b570160200190565b919390929190600360fe1b6001600160f81b03196115dd610eac8689610d72565b161061175a57601f60fb1b6001600160f81b03196115fe610eac8689610d72565b16106117505761162261161d610f0b610f01610eba610eac888b610d72565b610bd8565b9492905b945f5b82821061163b57505050505050505f90565b6116596116528361164d36878a610d28565b61189e565b9093610bf4565b9682516020840120036116ee57600360fe1b61168861139b61167a8561159e565b516001600160f81b03191690565b106116ee578590846001601f60fb1b6116a661139b61167a8861159e565b1015611732575b6116b78186611a45565b601181036116f957506116c994611bd0565b9491156116ee5784156116e25793915b91959093611629565b50505050505050600190565b505050505050505f90565b9093506002141590506117265784879261171294611a8a565b9491156116ee5784156116e25793916116d9565b50505050505050505f90565b5061174b61161d610f0b610f01610eba61167a8961159e565b6116ad565b6001949290611626565b63ebb47d1d60e01b5f5260045ffd5b91949392948060c060ff611784610eba610eac85888a610d80565b1610610fba5760f860ff61179f610eba610eac85888a610d80565b1610611829575080610f11610f0b610f06610f01610eba610eac6117c497898b610d80565b945b609460ff6117db610eba610eac8a8789610d80565b160361181a576001600160a01b03168286016001013560601c0361180b57611805610e2095610be6565b91611ce5565b63a087f96f60e01b5f5260045ffd5b63e6c4247b60e01b5f5260045ffd5b6118339150610bc5565b946117c6565b5f546001548101809111610bd35790565b6040805190919061185b8382610b1c565b6001815291601f1901366020840137565b9061187682610b43565b6118836040519182610b1c565b8281528092611894601f1991610b43565b0190602036910137565b805182101561158f576118b7610eba61167a84846115ab565b9160ff831660808110156118f0575050506118d061184a565b9060f81b6001600160f81b0319165f1a6118e98261159e565b5390600190565b919392909160b881101561195a5750610f0b61190b91610e36565b906119158261186c565b935f5b83811061192b57505050610e2090610bd8565b8061194761167a6119416001946112d388610bc5565b856115ab565b5f1a61195382896115ab565b5301611918565b60c011156119f857610f0b61196e91610e5c565b5f915f5b8281106119ca57506119838361186c565b945f5b84811061199d57505050906112d3610e2092610bd8565b806119b761167a6119416001946112d3896112d38a610bc5565b5f1a6119c3828a6115ab565b5301611986565b9260019060081b6119f0610f0b610eba61167a6119ea896112d389610bc5565b8b6115ab565b179301611972565b5091611a048382611f70565b92611a0e8461186c565b915f5b858110611a1f575050509190565b80611a3261167a61194160019487610bf4565b5f1a611a3e82876115ab565b5301611a11565b5f92915b8151811015611a7057611a5c8183611f70565b8101809111610bd357600190930192611a49565b5050565b908160011b9180830460021490151715610bd357565b83949291611a98818361189e565b9390611ab76020611aae610eba61167a8561159e565b1615159161209d565b97889115611b595750611acb905187610bf4565b611ad58251611a74565b14611aea575b505050505050505f905f905f90565b86866001928251611b47575b505050611b04575b80611adb565b611b1792611b1191610bf4565b9061189e565b5060208151910120906020815191012014611b355780808080611afe565b611b40915190610bf4565b6001915f90565b611b519350612208565b86865f611af6565b611b6a93949596506108af92612208565b611bc357611b7b92611b1191610bf4565b50908151602081145f14611ba357506020611b9b920151925b5190610bf4565b916001929190565b8015611bb7576020611b9b93012092611b94565b505050505f905f905f90565b50505050505f905f905f90565b91909293611bde8251611a74565b851015611c885750610eba61167a611c0092611bfa8760011c90565b906115ab565b60018416611c7f5760041c600f16915b905f925b60ff81168410611c5f5750611c29925061189e565b5080518015611c5457611b9b9160208203611c4a5760209150015191610bc5565b6020012091610bc5565b5050505f905f905f90565b90916001611c7382610f1160ff9487611f70565b94019392919050611c14565b600f1691611c10565b9290509392935f915b60108310611ccb57611ca3925061189e565b50602081519101209060208151910120145f14611cc257600191905f90565b5f915081908190565b90611cdc81610f1160019385611f70565b92019190611c91565b929190918160c060ff611cff610eba610eac87898b610d80565b1610610fba5760f860ff611d1a610eba610eac87898b610d80565b1610611e8d5780610f11610f0b610f06610f01610eba610eac611d3e978b8d610d80565b7fddf252ad1be2c89b69c2b068fc378daa952ba7f163c4a11628f55a4df523b3ef611d6a8286886122c6565b03611e7e576108c86108c8611d8d611d86611d9494888a611434565b8789611434565b86886122c6565b6001600160a01b03918216911603611e6f57611db1908284611434565b905f91611dc5610eba610eac838588610d80565b60ff811694906080861015611df35750505050505b03611de457600190565b6355e97b0d60e01b5f5260045ffd5b9091929394608081145f14611e0e575050505050505f611dda565b60a010610fba57610f0b611e2491939293610e36565b915f935b838510611e39575050505050611dda565b9091929394611e4a60019160081b90565b611e63610f0b610eba610eac6112d88b6112d38b610bc5565b17950193929190611e28565b634cd4b7b160e01b5f5260045ffd5b6324da545d60e11b5f5260045ffd5b50611e9782610bc5565b611d3e565b8151919060418303611ecc57611ec59250602082015190606060408401519301515f1a90612302565b9192909190565b50505f9160029190565b60041115611ee057565b634e487b7160e01b5f52602160045260245ffd5b611efd81611ed6565b80611f06575050565b611f0f81611ed6565b60018103611f265763f645eedf60e01b5f5260045ffd5b611f2f81611ed6565b60028103611f4a575063fce698f760e01b5f5260045260245ffd5b80611f56600392611ed6565b14611f5e5750565b6335e2f38360e21b5f5260045260245ffd5b90815181101561158f57611f8a610eba61167a83856115ab565b9160ff83166080811015611fa15750505050600190565b60b8811015611fbc57505050610f0b610f06610e2092610e36565b60c0811015612028575091610f0b611fd391610e5c565b905f925f915b838310611ff057505050906112d3610e2092610bd8565b909193611fff60019160081b90565b61201e610f0b610eba61167a6120188a6112d389610bc5565b886115ab565b1794019190611fd9565b60f81115612041575050610f0b610f06610e2092610e49565b91610f0b61204e91610e23565b905f925f915b83831061206b57505050906112d3610e2092610bd8565b90919361207a60019160081b90565b612093610f0b610eba61167a6120188a6112d389610bc5565b1794019190612054565b90815115612206576120b4610eba61167a8461159e565b6010811615612183576120d76120d26120cd8551611a74565b610d0d565b61186c565b9060f81b600f60f81b165f1a6120ec8261159e565b5360015b835181101561217e578061212b61211b612112610eba61167a6001968a6115ab565b60041c600f1690565b60f81b6001600160f81b03191690565b61214461213a6120cd84611a74565b915f1a91856115ab565b5361216b600f61215a610eba61167a858a6115ab565b1660f81b6001600160f81b03191690565b61217761213a83611a74565b53016120f0565b509150565b506121996120d26121948451611a74565b610cfe565b60015b835181101561217e57806121be61211b612112610eba61167a6001968a6115ab565b6121d261213a6121cd84610d0d565b611a74565b536121e8600f61215a610eba61167a858a6115ab565b6121ff61213a6121fa6121cd85610d0d565b610bc5565b530161219c565b565b919091612216825184610bf4565b6122208251611a74565b106122bf575f5b82518110156122b65761224361223d8286610bf4565b60011690565b6122985761226c612112610eba61167a612266612260868a610bf4565b60011c90565b866115ab565b60ff612281610f0b610eba61167a86896115ab565b91160361229057600101612227565b505050505f90565b600f6122b0610eba61167a612266612260868a610bf4565b1661226c565b50505050600190565b5050505f90565b9190600560fd1b906001600160f81b0319906122e490849086610d80565b3516036122f357016001013590565b63f0ff325b60e01b5f5260045ffd5b91907f7fffffffffffffffffffffffffffffff5d576e7357a4501ddfe92f46681b20a08411612379579160209360809260ff5f9560405194855216868401526040830152606082015282805260015afa1561057a575f516001600160a01b0381161561236f57905f905f90565b505f906001905f90565b5050505f916003919056fea26469706673582212202f383fe951cb5c453b8312bb8e90e709919ea9de8dd95167fb9cbadc665aec2164736f6c634300081e0033","linkReferences":{}},"methodIdentifiers":{"MAX_BLOCK_LOOKBACK()":"3d2691bc","blindedSigner()":"a967d932","bond(bytes)":"5c56f7ce","bondPot()":"6332cd85","bondStartBlock()":"b8740ffb","bondedExecutor()":"1aa7c0ec","cancelAndWithdraw()":"6b892b22","cancellationRequest()":"308657d7","collect((bytes,bytes,bytes,bytes,uint256),uint256)":"ede7f6a3","currentPaymentAmount()":"8bd03d0a","currentRewardAmount()":"5a4fd645","domainSeparator()":"f698da25","executionDeadline()":"33ee5f35","expectedAmount()":"2feef2ec","expectedRecipient()":"8677ab23","fund(uint256)":"ca1d209d","funded()":"f3a504f2","is_bonded()":"cb766a56","originalRewardAmount()":"d415b3f9","requestCancellation()":"81972d00","resume()":"046f7da2","tokenContract()":"55a373d6"},"storageLayout":{"storage":[{"astId":40214,"contract":"src/EscrowERC20.sol:EscrowERC20","label":"currentRewardAmount","offset":0,"slot":"0","type":"t_uint256"},{"astId":40216,"contract":"src/EscrowERC20.sol:EscrowERC20","label":"currentPaymentAmount","offset":0,"slot":"1","type":"t_uint256"},{"astId":40218,"contract":"src/EscrowERC20.sol:EscrowERC20","label":"originalRewardAmount","offset":0,"slot":"2","type":"t_uint256"},{"astId":40229,"contract":"src/EscrowERC20.sol:EscrowERC20","label":"bondedExecutor","offset":0,"slot":"3","type":"t_address"},{"astId":40231,"contract":"src/EscrowERC20.sol:EscrowERC20","label":"executionDeadline","offset":0,"slot":"4","type":"t_uint256"},{"astId":40233,"contract":"src/EscrowERC20.sol:EscrowERC20","label":"bondStartBlock","offset":0,"slot":"5","type":"t_uint256"},{"astId":40235,"contract":"src/EscrowERC20.sol:EscrowERC20","label":"bondPot","offset":0,"slot":"6","type":"t_uint256"},{"astId":40237,"contract":"src/EscrowERC20.sol:EscrowERC20","label":"cancellationRequest","offset":0,"slot":"7","type":"t_bool"},{"astId":40239,"contract":"src/EscrowERC20.sol:EscrowERC20","label":"funded","offset":1,"slot":"7","type":"t_bool"}],"types":{"t_address":{"encoding":"inplace","label":"address","numberOfBytes":"20"},"t_bool":{"encoding":"inplace","label":"bool","numberOfBytes":"1"},"t_uint256":{"encoding":"inplace","label":"uint256","numberOfBytes":"32"}}},"id":22}