{"abi":[{"type":"constructor","inputs":[{"name":"_tokenContract","type":"address","internalType":"address"},{"name":"_expectedRecipient","type":"address","internalType":"address"},{"name":"_expectedAmount","type":"uint256","internalType":"uint256"},{"name":"_currentRewardAmount","type":"uint256","internalType":"uint256"},{"name":"_currentPaymentAmount","type":"uint256","internalType":"uint256"}],"stateMutability":"nonpayable"},{"type":"function","name":"MAX_BLOCK_LOOKBACK","inputs":[],"outputs":[{"name":"","type":"uint256","internalType":"uint256"}],"stateMutability":"view"},{"type":"function","name":"bond","inputs":[{"name":"_bondAmount","type":"uint256","internalType":"uint256"}],"outputs":[],"stateMutability":"nonpayable"},{"type":"function","name":"bondAmount","inputs":[],"outputs":[{"name":"","type":"uint256","internalType":"uint256"}],"stateMutability":"view"},{"type":"function","name":"bondedExecutor","inputs":[],"outputs":[{"name":"","type":"address","internalType":"address"}],"stateMutability":"view"},{"type":"function","name":"cancellationRequest","inputs":[],"outputs":[{"name":"","type":"bool","internalType":"bool"}],"stateMutability":"view"},{"type":"function","name":"collect","inputs":[{"name":"proof","type":"tuple","internalType":"struct EscrowERC20.ReceiptProof","components":[{"name":"blockHeader","type":"bytes","internalType":"bytes"},{"name":"receiptRlp","type":"bytes","internalType":"bytes"},{"name":"proofNodes","type":"bytes","internalType":"bytes"},{"name":"receiptPath","type":"bytes","internalType":"bytes"},{"name":"logIndex","type":"uint256","internalType":"uint256"}]},{"name":"targetBlockNumber","type":"uint256","internalType":"uint256"}],"outputs":[],"stateMutability":"nonpayable"},{"type":"function","name":"currentPaymentAmount","inputs":[],"outputs":[{"name":"","type":"uint256","internalType":"uint256"}],"stateMutability":"view"},{"type":"function","name":"currentRewardAmount","inputs":[],"outputs":[{"name":"","type":"uint256","internalType":"uint256"}],"stateMutability":"view"},{"type":"function","name":"executionDeadline","inputs":[],"outputs":[{"name":"","type":"uint256","internalType":"uint256"}],"stateMutability":"view"},{"type":"function","name":"expectedAmount","inputs":[],"outputs":[{"name":"","type":"uint256","internalType":"uint256"}],"stateMutability":"view"},{"type":"function","name":"expectedRecipient","inputs":[],"outputs":[{"name":"","type":"address","internalType":"address"}],"stateMutability":"view"},{"type":"function","name":"fund","inputs":[{"name":"_currentRewardAmount","type":"uint256","internalType":"uint256"},{"name":"_currentPaymentAmount","type":"uint256","internalType":"uint256"}],"outputs":[],"stateMutability":"nonpayable"},{"type":"function","name":"funded","inputs":[],"outputs":[{"name":"","type":"bool","internalType":"bool"}],"stateMutability":"view"},{"type":"function","name":"is_bonded","inputs":[],"outputs":[{"name":"","type":"bool","internalType":"bool"}],"stateMutability":"view"},{"type":"function","name":"originalRewardAmount","inputs":[],"outputs":[{"name":"","type":"uint256","internalType":"uint256"}],"stateMutability":"view"},{"type":"function","name":"requestCancellation","inputs":[],"outputs":[],"stateMutability":"nonpayable"},{"type":"function","name":"resume","inputs":[],"outputs":[],"stateMutability":"nonpayable"},{"type":"function","name":"tokenContract","inputs":[],"outputs":[{"name":"","type":"address","internalType":"address"}],"stateMutability":"view"},{"type":"function","name":"totalBondsDeposited","inputs":[],"outputs":[{"name":"","type":"uint256","internalType":"uint256"}],"stateMutability":"view"},{"type":"function","name":"withdraw","inputs":[],"outputs":[],"stateMutability":"nonpayable"},{"type":"error","name":"AlreadyFunded","inputs":[]},{"type":"error","name":"AmountMismatch","inputs":[]},{"type":"error","name":"BlockHashUnavailable","inputs":[]},{"type":"error","name":"BlockHeaderMismatch","inputs":[]},{"type":"error","name":"BlockNumberMismatch","inputs":[]},{"type":"error","name":"BondActive","inputs":[]},{"type":"error","name":"CancellationRequested","inputs":[]},{"type":"error","name":"ExecutorAlreadyBonded","inputs":[]},{"type":"error","name":"ExpectedBytes32","inputs":[]},{"type":"error","name":"ExpectedRLPList","inputs":[]},{"type":"error","name":"ExpectedStringData","inputs":[]},{"type":"error","name":"ExpectedStringItem","inputs":[]},{"type":"error","name":"InsufficientBond","inputs":[]},{"type":"error","name":"InvalidAddress","inputs":[]},{"type":"error","name":"InvalidRLP","inputs":[]},{"type":"error","name":"InvalidRLPEncoding","inputs":[]},{"type":"error","name":"InvalidRLPList","inputs":[]},{"type":"error","name":"InvalidReceiptProof","inputs":[]},{"type":"error","name":"InvalidTransferEvent","inputs":[]},{"type":"error","name":"NoWithdrawableFunds","inputs":[]},{"type":"error","name":"NotFunded","inputs":[]},{"type":"error","name":"OnlyBondedExecutor","inputs":[]},{"type":"error","name":"OnlyDeployer","inputs":[]},{"type":"error","name":"RLPOffsetOutOfBounds","inputs":[]},{"type":"error","name":"RLPOffsetOutOfBounds","inputs":[]},{"type":"error","name":"TargetBlockInFuture","inputs":[]},{"type":"error","name":"TargetBlockTooOld","inputs":[]},{"type":"error","name":"ToAddressMismatch","inputs":[]},{"type":"error","name":"TokenTransferFailed","inputs":[]},{"type":"error","name":"WrongEventSignature","inputs":[]},{"type":"error","name":"WrongTokenContract","inputs":[]},{"type":"error","name":"ZeroAddress","inputs":[]},{"type":"error","name":"ZeroPaymentAmount","inputs":[]},{"type":"error","name":"ZeroRewardAmount","inputs":[]}],"bytecode":{"object":"0x61010080604052346101c15760a08161256580380380916100208285610231565b8339810103126101c15761003381610268565b9061004060208201610268565b6040820151608060608401519301519160a05260c0523360805260018060a01b0383169283156102225760e0528115801580610219575b6100fc575b6040516122e8908161027d8239608051818181610166015281816103fa015281816105670152610a67015260a05181818161044c015261083a015260c0518181816101f20152610818015260e0518181816102c501528181610380015281816104ee015281816106080152818161085c01528181610f650152610ff70152f35b60ff60075460081c1661020a576101fb5780156101ec57815f55816002558060015581018091116101d8575f91606460209260405194859384926323b872dd60e01b845233600485015230602485015260448401525af19081156101cd575f9161018e575b501561017f5761010061ff001960075416176007555f80808061007c565b63022e258160e11b5f5260045ffd5b90506020813d6020116101c5575b816101a960209383610231565b810103126101c1575180151581036101c1575f610161565b5f80fd5b3d915061019c565b6040513d5f823e3d90fd5b634e487b7160e01b5f52601160045260245ffd5b63932ca0a360e01b5f5260045ffd5b63ea1083a760e01b5f5260045ffd5b635adf638760e01b5f5260045ffd5b50811515610077565b63d92e233d60e01b5f5260045ffd5b601f909101601f19168101906001600160401b0382119082101761025457604052565b634e487b7160e01b5f52604160045260245ffd5b51906001600160a01b03821682036101c15756fe60806040526004361015610011575f80fd5b5f3560e01c8063046f7da2146101545780631aa7c0ec1461014f5780632feef2ec1461014a578063308657d71461014557806333ee5f35146101405780633ccfd60b1461013b5780633d2691bc1461013657806355a373d6146101315780635a4fd6451461012c57806380f323a71461012757806381972d00146101225780638677ab231461011d5780638bd03d0a146101185780639940686e14610113578063a65e2cfd1461010e578063cb766a5614610109578063d415b3f914610104578063ede7f6a3146100ff578063f3a504f2146100fa5763fe03a460146100f5575f80fd5b61094f565b61092a565b6106e7565b6106ca565b6106a6565b61054e565b610498565b61047b565b610437565b6103e8565b6103cb565b6103af565b61036b565b61034f565b610254565b610237565b610215565b6101db565b6101b3565b346101af575f3660031901126101af577f00000000000000000000000000000000000000000000000000000000000000006001600160a01b031633036101a0576007805460ff19169055005b63618bbdd560e01b5f5260045ffd5b5f80fd5b346101af575f3660031901126101af576003546040516001600160a01b039091168152602090f35b346101af575f3660031901126101af5760206040517f00000000000000000000000000000000000000000000000000000000000000008152f35b346101af575f3660031901126101af57602060ff600754166040519015158152f35b346101af575f3660031901126101af576020600454604051908152f35b346101af575f3660031901126101af5761026c610a57565b610274610a97565b61027c610ace565b61029361ff0019600754166007555f6001555f8055565b80156103405760405163a9059cbb60e01b815233600482015260248101919091526020816044815f6001600160a01b037f0000000000000000000000000000000000000000000000000000000000000000165af190811561033b575f9161030c575b50156102fd57005b63022e258160e11b5f5260045ffd5b61032e915060203d602011610334575b6103268183610980565b8101906109a7565b5f6102f5565b503d61031c565b6109bf565b6353cd7f7960e01b5f5260045ffd5b346101af575f3660031901126101af5760206040516101008152f35b346101af575f3660031901126101af576040517f00000000000000000000000000000000000000000000000000000000000000006001600160a01b03168152602090f35b346101af575f3660031901126101af5760205f54604051908152f35b346101af575f3660031901126101af576020600554604051908152f35b346101af575f3660031901126101af577f00000000000000000000000000000000000000000000000000000000000000006001600160a01b031633036101a0576007805460ff19166001179055005b346101af575f3660031901126101af576040517f00000000000000000000000000000000000000000000000000000000000000006001600160a01b03168152602090f35b346101af575f3660031901126101af576020600154604051908152f35b346101af5760203660031901126101af576004356104b4610ae0565b6104bd81610b29565b6040516323b872dd60e01b8152336004820152306024820152604481018290526020816064815f6001600160a01b037f0000000000000000000000000000000000000000000000000000000000000000165af190811561033b575f9161052f575b50156102fd5761052d90610b84565b005b610548915060203d602011610334576103268183610980565b5f61051e565b346101af5760403660031901126101af576004356024357f00000000000000000000000000000000000000000000000000000000000000006001600160a01b031633036101a05760075460081c60ff16610697578115610688578015610679576105bd826105c2935f55600255565b600155565b61060360206105d6600254600154906109ff565b6040516323b872dd60e01b8152336004820152306024820152604481019190915291829081906064820190565b03815f7f00000000000000000000000000000000000000000000000000000000000000006001600160a01b03165af190811561033b575f9161065a575b50156102fd5761052d61010061ff00196007541617600755565b610673915060203d602011610334576103268183610980565b5f610640565b63932ca0a360e01b5f5260045ffd5b63ea1083a760e01b5f5260045ffd5b635adf638760e01b5f5260045ffd5b346101af575f3660031901126101af5760206106c0610a0c565b6040519015158152f35b346101af575f3660031901126101af576020600254604051908152f35b346101af5760403660031901126101af5760043567ffffffffffffffff81116101af578060040160a060031983360301126101af576024356107298280610a24565b60075461073e9060081c60ff161590565b1590565b61091b5760035461075f906001600160a01b03165b6001600160a01b031690565b331480159061090a575b6108fb574383116108ec576101006107818443610bc9565b116108dd57824080156108ce57610799368385610bf2565b60208151910120036108bf576107ae91611072565b036108b0576107c66107c08280610a24565b90610c56565b9161080061073a60248301946107dc8686610a24565b906107ea6044870188610a24565b906107f8606489018a610a24565b949093610cc6565b6108a15760846108166108869461073a94610a24565b7f0000000000000000000000000000000000000000000000000000000000000000937f0000000000000000000000000000000000000000000000000000000000000000937f0000000000000000000000000000000000000000000000000000000000000000939101359190610d4a565b6108925761052d610ee4565b6364fa89e160e11b5f5260045ffd5b637b374dd160e01b5f5260045ffd5b63048a12f560e11b5f5260045ffd5b63ff28378760e01b5f5260045ffd5b63bfc9f0d360e01b5f5260045ffd5b63c42a018560e01b5f5260045ffd5b63058968cf60e41b5f5260045ffd5b6337b5f20360e21b5f5260045ffd5b5061091661073a610a0c565b610769565b636af784dd60e11b5f5260045ffd5b346101af575f3660031901126101af57602060ff60075460081c166040519015158152f35b346101af575f3660031901126101af576020600654604051908152f35b634e487b7160e01b5f52604160045260245ffd5b90601f8019910116810190811067ffffffffffffffff8211176109a257604052565b61096c565b908160209103126101af575180151581036101af5790565b6040513d5f823e3d90fd5b634e487b7160e01b5f52601160045260245ffd5b90600182018092116109ec57565b6109ca565b60010190816001116109ec57565b919082018092116109ec57565b6004548015159081610a1c575090565b905042111590565b903590601e19813603018212156101af570180359067ffffffffffffffff82116101af576020019181360383136101af57565b60ff60075460081c161561091b577f00000000000000000000000000000000000000000000000000000000000000006001600160a01b031633036101a057565b610a9f610a0c565b610abf576001600160601b0360a01b600354166003555f6005555f600455565b639cbc1de160e01b5f5260045ffd5b60015460025481018091116109ec5790565b6004548015159081610b1f575b50610af457565b6005545f548181018091116109ec575f556006549081018091116109ec57600655610b1d610a97565b565b905042115f610aed565b60075460ff8160081c161561091b5760ff16610b7557610b47610a0c565b610b66575f5460011c11610b5757565b63e92c469f60e01b5f5260045ffd5b63129f78e960e11b5f5260045ffd5b632479328960e01b5f5260045ffd5b336001600160601b0360a01b600354161760035561012c42018042116109ec57600455600555565b6001198101919082116109ec57565b5f198101919082116109ec57565b919082039182116109ec57565b67ffffffffffffffff81116109a257601f01601f191660200190565b929192610bfe82610bd6565b91610c0c6040519384610980565b8294818452818301116101af578281602093845f960137010152565b634e487b7160e01b5f52603260045260245ffd5b9015610c455790565b610c28565b90821015610c45570190565b90610c6181836110da565b905f5b60058110610cb15750600560fd1b906001600160f81b031990610c8990849086610c4a565b351603610ca2576001810181116109ec57016001013590565b633954003560e11b5f5260045ffd5b91610cbf600191838661120e565b9201610c64565b610cdc610ce492939495610cea98973691610bf2565b923691610bf2565b9061137d565b90565b60ff60f6199116019060ff82116109ec57565b60ff60bf199116019060ff82116109ec57565b60ff60b6199116019060ff82116109ec57565b60ff607f199116019060ff82116109ec57565b60ff166001019060ff82116109ec57565b9594939291905f818881151580610ec8575b610eba575b610d8a610d84610d768560c09560ff95610c4a565b356001600160f81b03191690565b60f81c90565b1610610e8457808860f860ff610da8610d84610d7688978887610c4a565b1610610eaa57610dd5610dd0610dcb610d84610d7686610de198610ddb97610c4a565b610ced565b610d39565b60ff1690565b906109ff565b81885f5b60038110610e935750610dd5610d84610d768560c095610e0495610c4a565b10610e8457808860f8610e22610dd5610d84610d7688978887610c4a565b10610e7357610dd5610dd0610dcb610d84610d7686610e4498610ddb97610c4a565b915b5f905b808210610e5c575050610cea959661152a565b9092610e6b600191848b61120e565b930190610e49565b50610e7e91506109de565b91610e46565b631bd5dcf760e31b5f5260045ffd5b92600192610ea09261120e565b9101888391610de5565b50610eb591506109de565b610de1565b506001915082905088610d61565b50608060ff610edd610d84610d768686610c3c565b1610610d5c565b610eec6115f1565b6003546001600160a01b0316610f296001600160601b0360a01b600354166003555f6005555f60045561ff0019600754166007555f6001555f8055565b4662aa36a703610fc557604051633419e74d60e21b81526001600160a01b0390911660048201526024810191909152602081806044810103815f7f00000000000000000000000000000000000000000000000000000000000000006001600160a01b03165af190811561033b575f91610fa6575b505b156102fd57565b610fbf915060203d602011610334576103268183610980565b5f610f9d565b60405163a9059cbb60e01b81526001600160a01b0390911660048201526024810191909152602081806044810103815f7f00000000000000000000000000000000000000000000000000000000000000006001600160a01b03165af190811561033b575f91611035575b50610f9f565b61104e915060203d602011610334576103268183610980565b5f61102f565b805115610c455760200190565b908151811015610c45570160200190565b919061107e81846110da565b905f5b600881106110c557506110949293611684565b50905f805b83518210156110c0576001906110af8386611061565b5160f81c9060081b17910190611099565b925050565b916110d3600191838761120e565b9201611081565b5f600360fe1b6001600160f81b03196110f6610d768686610c3c565b16106111d657601f60fb1b6001600160f81b0319611117610d768686610c3c565b16106112055780610ddb610dd5610dd0610dcb610d84610d7661113b978a8a610c4a565b905b61a5bd461480156111fa575b611154575b50905090565b5f5b600381106111e55750600360fe1b611182611175610d76858786610c4a565b6001600160f81b03191690565b106111d657601f60fb1b61119d611175610d76858786610c4a565b106111c657610dd5610dd0610dcb610d84610d76866111bf98610ddb97610c4a565b805f61114e565b506111d191506109de565b6111bf565b63c0098bd960e01b5f5260045ffd5b916111f3600191858461120e565b9201611156565b5061a5bf4614611149565b5060019061113d565b91908082101561136e57611229610d84610d76848487610c4a565b9060ff8216608081101561124457505050610cea91506109de565b91929160b881101561126c575050610cea9250610dd5611266610ddb926109de565b92610d26565b90929060c08110156112e75750610dd561128891949394610d13565b915f935f915b8483106112ae57505050610cea92916112a96112a9926109de565b6109ff565b9091946112bd60019160081b90565b6112dd610dd5610d84610d766112d68b6112a98b6109de565b8888610c4a565b179501919061128e565b90929060f8111561130d5750610cea9250610dd5611307610ddb926109de565b92610d00565b9291610dd561131b91610ced565b915f935f915b84831061133c57505050610cea92916112a96112a9926109de565b90919461134b60019160081b90565b611364610dd5610d84610d766112d68b6112a98b6109de565b1795019190611321565b6318d76ae160e11b5f5260045ffd5b919390929190600360fe1b6001600160f81b031961139e610d768689610c3c565b161061151b57601f60fb1b6001600160f81b03196113bf610d768689610c3c565b1610611511576113e36113de610dd5610dcb610d84610d76888b610c3c565b6109f1565b9492905b945f5b8282106113fc57505050505050505f90565b61141a6114138361140e36878a610bf2565b6117f5565b90936109ff565b9682516020840120036114af57600360fe1b61144961117561143b85611054565b516001600160f81b03191690565b106114af578590846001601f60fb1b61146761117561143b88611054565b10156114f3575b611478818661197c565b601181036114ba575061148a94611b07565b9491156114af5784156114a35793915b919590936113ea565b50505050505050600190565b505050505050505f90565b9093506002141590506114e7578487926114d3946119c1565b9491156114af5784156114a357939161149a565b50505050505050505f90565b5061150c6113de610dd5610dcb610d8461143b89611054565b61146e565b60019492906113e7565b63ebb47d1d60e01b5f5260045ffd5b91949392948060c060ff611545610d84610d7685888a610c4a565b1610610e845760f860ff611560610d84610d7685888a610c4a565b16106115e2575080610ddb610dd5610dd0610dcb610d84610d7661158597898b610c4a565b611590818385611c1c565b969060148151036115d357601401516001600160a01b039182169116036115c457610cea956115be916109ff565b91611c88565b63a087f96f60e01b5f5260045ffd5b63e6c4247b60e01b5f5260045ffd5b6115ec91506109de565b611585565b6005545f5481018091116109ec5760015481018091116109ec5790565b6040805190919061161f8382610980565b6001815291601f1901366020840137565b604080519091906116418382610980565b6014815291601f1901366020840137565b9061165c82610bd6565b6116696040519182610980565b828152809261167a601f1991610bd6565b0190602036910137565b8183101561136e5761169d610d84610d76858585610c4a565b9260ff841660808110156116d757505050506116b761160e565b9060f81b6001600160f81b0319165f1a6116d082611054565b5390600190565b60b881969592939496105f146117455750610dd56116f491610d26565b916116fe83611652565b945f5b8481106117155750505050610cea906109f1565b80611732610d7661172b6001946112a9896109de565b8587610c4a565b5f1a61173e828a611061565b5301611701565b60c011156117e657610dd561175991610d13565b905f925f5b8381106117b7575061176f84611652565b955f5b85811061178a5750505050906112a9610cea926109f1565b806117a4610d7661172b6001946112a98a6112a98b6109de565b5f1a6117b0828b611061565b5301611772565b9360019060081b6117de610dd5610d84610d766117d78a6112a98a6109de565b8c88610c4a565b17940161175e565b636b2e9c5f60e11b5f5260045ffd5b805182101561136e5761180e610d8461143b8484611061565b9160ff83166080811015611827575050506116b761160e565b919392909160b88110156118915750610dd561184291610d26565b9061184c82611652565b935f5b83811061186257505050610cea906109f1565b8061187e61143b6118786001946112a9886109de565b85611061565b5f1a61188a8289611061565b530161184f565b60c0111561192f57610dd56118a591610d13565b5f915f5b82811061190157506118ba83611652565b945f5b8481106118d457505050906112a9610cea926109f1565b806118ee61143b6118786001946112a9896112a98a6109de565b5f1a6118fa828a611061565b53016118bd565b9260019060081b611927610dd5610d8461143b611921896112a9896109de565b8b611061565b1793016118a9565b509161193b8382611ddf565b9261194584611652565b915f5b858110611956575050509190565b8061196961143b611878600194876109ff565b5f1a6119758287611061565b5301611948565b5f92915b81518110156119a7576119938183611ddf565b81018091116109ec57600190930192611980565b5050565b908160011b91808304600214901517156109ec57565b839492916119cf81836117f5565b93906119ee60206119e5610d8461143b85611054565b16151591611f0c565b97889115611a905750611a029051876109ff565b611a0c82516119ab565b14611a21575b505050505050505f905f905f90565b86866001928251611a7e575b505050611a3b575b80611a12565b611a4e92611a48916109ff565b906117f5565b5060208151910120906020815191012014611a6c5780808080611a35565b611a779151906109ff565b6001915f90565b611a889350612075565b86865f611a2d565b611aa1939495965061073a92612075565b611afa57611ab292611a48916109ff565b50908151602081145f14611ada57506020611ad2920151925b51906109ff565b916001929190565b8015611aee576020611ad293012092611acb565b505050505f905f905f90565b50505050505f905f905f90565b91909293611b1582516119ab565b851015611bbf5750610d8461143b611b3792611b318760011c90565b90611061565b60018416611bb65760041c600f16915b905f925b60ff81168410611b965750611b6092506117f5565b5080518015611b8b57611ad29160208203611b8157602091500151916109de565b60200120916109de565b5050505f905f905f90565b90916001611baa82610ddb60ff9487611ddf565b94019392919050611b4b565b600f1691611b47565b9290509392935f915b60108310611c0257611bda92506117f5565b50602081519101209060208151910120145f14611bf957600191905f90565b5f915081908190565b90611c1381610ddb60019385611ddf565b92019190611bc8565b91909182821015610e8457609460ff611c3c610d84610d76868887610c4a565b16036115d357611c4a611630565b925f5b60148110611c5f575050505090601590565b80611c75610d7661172b6001946112a9896109de565b5f1a611c818288611061565b5301611c4d565b91928360c060ff611ca0610d84610d7689888a610c4a565b1610610e845760f860ff611cbb610d84610d7689888a610c4a565b1610611dd05780610ddb610dd5610dd0610dcb610d84610d76611cdf978a8c610c4a565b7fddf252ad1be2c89b69c2b068fc378daa952ba7f163c4a11628f55a4df523b3ef611d0b828587612133565b03611dc157610753610753611d2e611d27611d3594878961120e565b868861120e565b8587612133565b6001600160a01b03918216911603611db257611d55611d5b93828461120e565b9161216f565b50916020835111610e84575f90815b8451831015611d955760019060081b611d8c610dd5610d8461143b878a611061565b17920191611d6a565b9150925003611da357600190565b6355e97b0d60e01b5f5260045ffd5b634cd4b7b160e01b5f5260045ffd5b6324da545d60e11b5f5260045ffd5b50611dda846109de565b611cdf565b90815181101561136e57611df9610d8461143b8385611061565b9160ff83166080811015611e105750505050600190565b60b8811015611e2b57505050610dd5610dd0610cea92610d26565b60c0811015611e97575091610dd5611e4291610d13565b905f925f915b838310611e5f57505050906112a9610cea926109f1565b909193611e6e60019160081b90565b611e8d610dd5610d8461143b611e878a6112a9896109de565b88611061565b1794019190611e48565b60f81115611eb0575050610dd5610dd0610cea92610d00565b91610dd5611ebd91610ced565b905f925f915b838310611eda57505050906112a9610cea926109f1565b909193611ee960019160081b90565b611f02610dd5610d8461143b611e878a6112a9896109de565b1794019190611ec3565b90815115610b1d57611f23610d8461143b84611054565b6010811615611ff257611f46611f41611f3c85516119ab565b610bbb565b611652565b9060f81b600f60f81b165f1a611f5b82611054565b5360015b8351811015611fed5780611f9a611f8a611f81610d8461143b6001968a611061565b60041c600f1690565b60f81b6001600160f81b03191690565b611fb3611fa9611f3c846119ab565b915f1a9185611061565b53611fda600f611fc9610d8461143b858a611061565b1660f81b6001600160f81b03191690565b611fe6611fa9836119ab565b5301611f5f565b509150565b50612008611f4161200384516119ab565b610bac565b60015b8351811015611fed578061202d611f8a611f81610d8461143b6001968a611061565b612041611fa961203c84610bbb565b6119ab565b53612057600f611fc9610d8461143b858a611061565b61206e611fa961206961203c85610bbb565b6109de565b530161200b565b9190916120838251846109ff565b61208d82516119ab565b1061212c575f5b8251811015612123576120b06120aa82866109ff565b60011690565b612105576120d9611f81610d8461143b6120d36120cd868a6109ff565b60011c90565b86611061565b60ff6120ee610dd5610d8461143b8689611061565b9116036120fd57600101612094565b505050505f90565b600f61211d610d8461143b6120d36120cd868a6109ff565b166120d9565b50505050600190565b5050505f90565b9190600560fd1b906001600160f81b03199061215190849086610c4a565b35160361216057016001013590565b63f0ff325b60e01b5f5260045ffd5b81831015610e8457612188610d84610d76858585610c4a565b9260ff841660808110156121a257505050506116b761160e565b60b881969592939496105f146122095750610dd56121bf91610d26565b916121c983611652565b945f5b8481106121e05750505050610cea906109f1565b806121f6610d7661172b6001946112a9896109de565b5f1a612202828a611061565b53016121cc565b60c011156122a357610dd561221d91610d13565b905f925f5b83811061227b575061223384611652565b955f5b85811061224e5750505050906112a9610cea926109f1565b80612268610d7661172b6001946112a98a6112a98b6109de565b5f1a612274828b611061565b5301612236565b9360019060081b61229b610dd5610d84610d766117d78a6112a98a6109de565b179401612222565b6336459a5b60e21b5f5260045ffdfea2646970667358221220f111dda4228930ff7fcf5360c1e823b8ddcd3e1621a6c54215af8789b55a438f64736f6c634300081e0033","linkReferences":{}},"methodIdentifiers":{"MAX_BLOCK_LOOKBACK()":"3d2691bc","bond(uint256)":"9940686e","bondAmount()":"80f323a7","bondedExecutor()":"1aa7c0ec","cancellationRequest()":"308657d7","collect((bytes,bytes,bytes,bytes,uint256),uint256)":"ede7f6a3","currentPaymentAmount()":"8bd03d0a","currentRewardAmount()":"5a4fd645","executionDeadline()":"33ee5f35","expectedAmount()":"2feef2ec","expectedRecipient()":"8677ab23","fund(uint256,uint256)":"a65e2cfd","funded()":"f3a504f2","is_bonded()":"cb766a56","originalRewardAmount()":"d415b3f9","requestCancellation()":"81972d00","resume()":"046f7da2","tokenContract()":"55a373d6","totalBondsDeposited()":"fe03a460","withdraw()":"3ccfd60b"},"id":21}