{"abi":[{"type":"constructor","inputs":[{"name":"_tokenContract","type":"address","internalType":"address"},{"name":"_amount","type":"uint256","internalType":"uint256"},{"name":"_commitment","type":"bytes32","internalType":"bytes32"}],"stateMutability":"nonpayable"},{"type":"function","name":"MAX_BLOCK_LOOKBACK","inputs":[],"outputs":[{"name":"","type":"uint256","internalType":"uint256"}],"stateMutability":"view"},{"type":"function","name":"bond","inputs":[{"name":"_bondAmount","type":"uint256","internalType":"uint256"}],"outputs":[],"stateMutability":"nonpayable"},{"type":"function","name":"bondAmount","inputs":[],"outputs":[{"name":"","type":"uint256","internalType":"uint256"}],"stateMutability":"view"},{"type":"function","name":"bondedExecutor","inputs":[],"outputs":[{"name":"","type":"address","internalType":"address"}],"stateMutability":"view"},{"type":"function","name":"cancelAndWithdraw","inputs":[],"outputs":[],"stateMutability":"nonpayable"},{"type":"function","name":"cancellationRequest","inputs":[],"outputs":[{"name":"","type":"bool","internalType":"bool"}],"stateMutability":"view"},{"type":"function","name":"collect","inputs":[{"name":"proof","type":"tuple","internalType":"struct EscrowERC20.ReceiptProof","components":[{"name":"blockHeader","type":"bytes","internalType":"bytes"},{"name":"receiptRlp","type":"bytes","internalType":"bytes"},{"name":"proofNodes","type":"bytes","internalType":"bytes"},{"name":"receiptPath","type":"bytes","internalType":"bytes"},{"name":"logIndex","type":"uint256","internalType":"uint256"}]},{"name":"targetBlockNumber","type":"uint256","internalType":"uint256"},{"name":"salt","type":"bytes32","internalType":"bytes32"}],"outputs":[],"stateMutability":"nonpayable"},{"type":"function","name":"commitment","inputs":[],"outputs":[{"name":"","type":"bytes32","internalType":"bytes32"}],"stateMutability":"view"},{"type":"function","name":"deposit","inputs":[],"outputs":[{"name":"","type":"uint256","internalType":"uint256"}],"stateMutability":"view"},{"type":"function","name":"executionDeadline","inputs":[],"outputs":[{"name":"","type":"uint256","internalType":"uint256"}],"stateMutability":"view"},{"type":"function","name":"fund","inputs":[{"name":"_amount","type":"uint256","internalType":"uint256"},{"name":"_commitment","type":"bytes32","internalType":"bytes32"}],"outputs":[],"stateMutability":"nonpayable"},{"type":"function","name":"funded","inputs":[],"outputs":[{"name":"","type":"bool","internalType":"bool"}],"stateMutability":"view"},{"type":"function","name":"is_bonded","inputs":[],"outputs":[{"name":"","type":"bool","internalType":"bool"}],"stateMutability":"view"},{"type":"function","name":"originalDeposit","inputs":[],"outputs":[{"name":"","type":"uint256","internalType":"uint256"}],"stateMutability":"view"},{"type":"function","name":"requestCancellation","inputs":[],"outputs":[],"stateMutability":"nonpayable"},{"type":"function","name":"resume","inputs":[],"outputs":[],"stateMutability":"nonpayable"},{"type":"function","name":"tokenContract","inputs":[],"outputs":[{"name":"","type":"address","internalType":"address"}],"stateMutability":"view"},{"type":"function","name":"totalBondsDeposited","inputs":[],"outputs":[{"name":"","type":"uint256","internalType":"uint256"}],"stateMutability":"view"},{"type":"error","name":"AlreadyFunded","inputs":[]},{"type":"error","name":"BlockHashUnavailable","inputs":[]},{"type":"error","name":"BlockHeaderMismatch","inputs":[]},{"type":"error","name":"BlockNumberMismatch","inputs":[]},{"type":"error","name":"BondActive","inputs":[]},{"type":"error","name":"CancellationRequested","inputs":[]},{"type":"error","name":"CommitmentMismatch","inputs":[]},{"type":"error","name":"ExecutorAlreadyBonded","inputs":[]},{"type":"error","name":"ExpectedBytes32","inputs":[]},{"type":"error","name":"ExpectedRLPList","inputs":[]},{"type":"error","name":"InsufficientBond","inputs":[]},{"type":"error","name":"InvalidAddress","inputs":[]},{"type":"error","name":"InvalidRLP","inputs":[]},{"type":"error","name":"InvalidRLPEncoding","inputs":[]},{"type":"error","name":"InvalidRLPList","inputs":[]},{"type":"error","name":"InvalidReceiptProof","inputs":[]},{"type":"error","name":"NoWithdrawableFunds","inputs":[]},{"type":"error","name":"NotFunded","inputs":[]},{"type":"error","name":"OnlyBondedExecutor","inputs":[]},{"type":"error","name":"OnlyDeployer","inputs":[]},{"type":"error","name":"RLPOffsetOutOfBounds","inputs":[]},{"type":"error","name":"TargetBlockInFuture","inputs":[]},{"type":"error","name":"TargetBlockTooOld","inputs":[]},{"type":"error","name":"TokenTransferFailed","inputs":[]},{"type":"error","name":"WrongEventSignature","inputs":[]},{"type":"error","name":"ZeroAddress","inputs":[]},{"type":"error","name":"ZeroAmount","inputs":[]}],"bytecode":{"object":"0x60c0806040523461015f57606081612140803803809161001f8285610194565b83398101031261015f578051906001600160a01b03821680830361015f5760406020830151920151923360805281156101855760a052811580156100b7575b604051611f7490816101cc8239608051818181610146015281816103dd015281816106310152610889015260a051818181610248015281816102ff01528181610470015281816106bf01528181610ebf0152610f510152f35b610176576064825f9460209486558160015560025560405194859384926323b872dd60e01b845233600485015230602485015260448401525af190811561016b575f9161012c575b501561011d5761010061ff001960075416176007555f80808061005e565b63022e258160e11b5f5260045ffd5b90506020813d602011610163575b8161014760209383610194565b8101031261015f5751801515810361015f575f6100ff565b5f80fd5b3d915061013a565b6040513d5f823e3d90fd5b631f2a200560e01b5f5260045ffd5b63d92e233d60e01b5f5260045ffd5b601f909101601f19168101906001600160401b038211908210176101b757604052565b634e487b7160e01b5f52604160045260245ffdfe60806040526004361015610011575f80fd5b5f3560e01c8063046f7da2146101345780631303a4841461012f5780631aa7c0ec1461012a578063308657d71461012557806333ee5f35146101205780633d2691bc1461011b57806355a373d6146101165780636b892b22146101115780637fd0368b1461010c57806380f323a71461010757806381972d00146101025780639940686e146100fd578063b1dd0800146100f8578063c41020eb146100f3578063cb766a56146100ee578063d0e30db0146100e9578063f3a504f2146100e45763fe03a460146100df575f80fd5b6107b3565b61078e565b610772565b61074e565b610618565b6104d0565b61041a565b6103cb565b6103ae565b610391565b610277565b610233565b610217565b6101fa565b6101d8565b6101b0565b610193565b3461018f575f36600319011261018f577f00000000000000000000000000000000000000000000000000000000000000006001600160a01b03163303610180576007805460ff19169055005b63618bbdd560e01b5f5260045ffd5b5f80fd5b3461018f575f36600319011261018f576020600254604051908152f35b3461018f575f36600319011261018f576003546040516001600160a01b039091168152602090f35b3461018f575f36600319011261018f57602060ff600754166040519015158152f35b3461018f575f36600319011261018f576020600454604051908152f35b3461018f575f36600319011261018f5760206040516101008152f35b3461018f575f36600319011261018f576040517f00000000000000000000000000000000000000000000000000000000000000006001600160a01b03168152602090f35b3461018f575f36600319011261018f57610299600160ff196007541617600755565b6102a1610879565b6102a96108c8565b60015480156103825760206102fa916102d361ff0019600754166007555f80555f6001555f600255565b60405163a9059cbb60e01b8152336004820152602481019190915291829081906044820190565b03815f7f00000000000000000000000000000000000000000000000000000000000000006001600160a01b03165af190811561037d575f9161034e575b501561033f57005b63022e258160e11b5f5260045ffd5b610370915060203d602011610376575b61036881836107e4565b81019061080b565b5f610337565b503d61035e565b610823565b6353cd7f7960e01b5f5260045ffd5b3461018f575f36600319011261018f576020600154604051908152f35b3461018f575f36600319011261018f576020600554604051908152f35b3461018f575f36600319011261018f577f00000000000000000000000000000000000000000000000000000000000000006001600160a01b03163303610180576007805460ff19166001179055005b3461018f57602036600319011261018f5760043561043661094f565b61043f81610998565b6040516323b872dd60e01b8152336004820152306024820152604481018290526020816064815f6001600160a01b037f0000000000000000000000000000000000000000000000000000000000000000165af190811561037d575f916104b1575b501561033f576104af906109f4565b005b6104ca915060203d6020116103765761036881836107e4565b5f6104a0565b3461018f57606036600319011261018f5760043567ffffffffffffffff811161018f57806004019060a0600319823603011261018f576044359161052060243561051a838061082e565b90610a98565b61053361052d828061082e565b90610bbc565b9061057161056d6024850193610549858561082e565b90610557604489018761082e565b9061056560648b018961082e565b949093610c2c565b1590565b610609576105d992608461058b6105e7946105969461082e565b919092013591610cb0565b6040516bffffffffffffffffffffffff19606093841b8116602083019081529490931b909216603483015260488201526068810194909452929182906088820190565b03601f1981018352826107e4565b519020600254036105fa576104af610e3a565b635054097b60e01b5f5260045ffd5b637b374dd160e01b5f5260045ffd5b3461018f57604036600319011261018f576004356024357f00000000000000000000000000000000000000000000000000000000000000006001600160a01b031633036101805760ff60075460081c1661073f578115610730578161068d6020926106ba945f5561068883600155565b600255565b6040516323b872dd60e01b8152336004820152306024820152604481019190915291829081906064820190565b03815f7f00000000000000000000000000000000000000000000000000000000000000006001600160a01b03165af190811561037d575f91610711575b501561033f576104af61010061ff00196007541617600755565b61072a915060203d6020116103765761036881836107e4565b5f6106f7565b631f2a200560e01b5f5260045ffd5b635adf638760e01b5f5260045ffd5b3461018f575f36600319011261018f576020610768610861565b6040519015158152f35b3461018f575f36600319011261018f5760205f54604051908152f35b3461018f575f36600319011261018f57602060ff60075460081c166040519015158152f35b3461018f575f36600319011261018f576020600654604051908152f35b634e487b7160e01b5f52604160045260245ffd5b90601f8019910116810190811067ffffffffffffffff82111761080657604052565b6107d0565b9081602091031261018f5751801515810361018f5790565b6040513d5f823e3d90fd5b903590601e198136030182121561018f570180359067ffffffffffffffff821161018f5760200191813603831361018f57565b6004548015159081610871575090565b905042111590565b60ff60075460081c16156108b9577f00000000000000000000000000000000000000000000000000000000000000006001600160a01b0316330361018057565b636af784dd60e11b5f5260045ffd5b6108d0610861565b6108f0576001600160601b0360a01b600354166003555f6005555f600455565b639cbc1de160e01b5f5260045ffd5b634e487b7160e01b5f52601160045260245ffd5b906001820180921161092157565b6108ff565b600101908160011161092157565b906015820180921161092157565b9190820180921161092157565b600454801515908161098e575b5061096357565b6005545f54818101809111610921575f556006549081018091116109215760065561098c6108c8565b565b905042115f61095c565b60075460ff8160081c16156108b95760ff166109e5576109b6610861565b6109d6576101905f5404116109c757565b63e92c469f60e01b5f5260045ffd5b63129f78e960e11b5f5260045ffd5b632479328960e01b5f5260045ffd5b336001600160601b0360a01b600354161760035561012c420180421161092157600455600555565b60011981019190821161092157565b5f1981019190821161092157565b9190820391821161092157565b67ffffffffffffffff811161080657601f01601f191660200190565b929192610a6e82610a46565b91610a7c60405193846107e4565b82948184528183011161018f578281602093845f960137010152565b90610aac61056d60075460ff9060081c1690565b6108b957600354610acd906001600160a01b03165b6001600160a01b031690565b3314801590610b7d575b610b6e57438311610b5f57610100610aef8443610a39565b11610b505782408015610b4157610b07368385610a62565b6020815191012003610b3257610b1c91610fae565b03610b2357565b63048a12f560e11b5f5260045ffd5b63ff28378760e01b5f5260045ffd5b63bfc9f0d360e01b5f5260045ffd5b63c42a018560e01b5f5260045ffd5b63058968cf60e41b5f5260045ffd5b6337b5f20360e21b5f5260045ffd5b50610b8961056d610861565b610ad7565b634e487b7160e01b5f52603260045260245ffd5b9015610bab5790565b610b8e565b90821015610bab570190565b90610bc7818361106a565b905f5b60058110610c175750600560fd1b906001600160f81b031990610bef90849086610bb0565b351603610c085760018101811161092157016001013590565b633954003560e11b5f5260045ffd5b91610c25600191838661119e565b9201610bca565b610c42610c4a92939495610c5098973691610a62565b923691610a62565b90611326565b90565b60ff60f6199116019060ff821161092157565b60ff607f199116019060ff821161092157565b60ff60bf199116019060ff821161092157565b60ff60b6199116019060ff821161092157565b60ff166001019060ff821161092157565b9291905f81151580610e1e575b610e16575b60c060ff610ceb610ce5610cd785878b610bb0565b356001600160f81b03191690565b60f81c90565b1610610de45760f860ff610d06610ce5610cd785878b610bb0565b1610610e085780610d3a610d34610d2f610d2a610ce5610cd7610d4097898d610bb0565b610c53565b610c9f565b60ff1690565b90610942565b5f5b60038110610df3575060c0610d61610d34610ce5610cd785878b610bb0565b10610de45760f8610d7c610d34610ce5610cd785878b610bb0565b10610dd55780610d3a610d34610d2f610d2a610ce5610cd7610d9f97898d610bb0565b915b5f905b808210610dbe575050610db792936114d3565b9192909190565b9092610dcd600191848861119e565b930190610da4565b610dde90610913565b91610da1565b631bd5dcf760e31b5f5260045ffd5b90610e01600191848861119e565b9101610d42565b610e1190610913565b610d40565b506001610cc2565b50608060ff610e33610ce5610cd7868a610ba2565b1610610cbd565b610e42611588565b6003546001600160a01b0316610e836001600160601b0360a01b600354166003555f6005555f60045561ff0019600754166007555f80555f6001555f600255565b4662aa36a703610f1f57604051633419e74d60e21b81526001600160a01b0390911660048201526024810191909152602081806044810103815f7f00000000000000000000000000000000000000000000000000000000000000006001600160a01b03165af190811561037d575f91610f00575b505b1561033f57565b610f19915060203d6020116103765761036881836107e4565b5f610ef7565b60405163a9059cbb60e01b81526001600160a01b0390911660048201526024810191909152602081806044810103815f7f00000000000000000000000000000000000000000000000000000000000000006001600160a01b03165af190811561037d575f91610f8f575b50610ef9565b610fa8915060203d6020116103765761036881836107e4565b5f610f89565b610fb8828261106a565b915f5b600881106110555750610fd5610ce5610cd7858486610bb0565b925f9260ff851694608086105f14610fef57505050505090565b6110009193949550610d3490610c66565b915f935b83851061101357505050505090565b909192939461102460019160081b90565b611049610d34610ce5610cd76110428b61103d8b610913565b610942565b8789610bb0565b17950193929190611004565b92611063600191838561119e565b9301610fbb565b5f600360fe1b6001600160f81b0319611086610cd78686610ba2565b161061116657601f60fb1b6001600160f81b03196110a7610cd78686610ba2565b16106111955780610d3a610d34610d2f610d2a610ce5610cd76110cb978a8a610bb0565b905b61a5bd4614801561118a575b6110e4575b50905090565b5f5b600381106111755750600360fe1b611112611105610cd7858786610bb0565b6001600160f81b03191690565b1061116657601f60fb1b61112d611105610cd7858786610bb0565b1061115657610d34610d2f610d2a610ce5610cd78661114f98610d3a97610bb0565b805f6110de565b506111619150610913565b61114f565b63c0098bd960e01b5f5260045ffd5b91611183600191858461119e565b92016110e6565b5061a5bf46146110d9565b506001906110cd565b9190808210156112f9576111b9610ce5610cd7848487610bb0565b9060ff821660808110156111d457505050610c509150610913565b91929160b88110156111fc575050610c509250610d346111f6610d3a92610913565b92610c66565b90929060c08110156112725750610d3461121891949394610c8c565b915f935f915b84831061123957505050610c50929161103d61103d92610913565b90919461124860019160081b90565b611268610d34610ce5610cd76112618b61103d8b610913565b8888610bb0565b179501919061121e565b90929060f811156112985750610c509250610d34611292610d3a92610913565b92610c79565b9291610d346112a691610c53565b915f935f915b8483106112c757505050610c50929161103d61103d92610913565b9091946112d660019160081b90565b6112ef610d34610ce5610cd76112618b61103d8b610913565b17950191906112ac565b6318d76ae160e11b5f5260045ffd5b805115610bab5760200190565b908151811015610bab570160200190565b919390929190600360fe1b6001600160f81b0319611347610cd78689610ba2565b16106114c457601f60fb1b6001600160f81b0319611368610cd78689610ba2565b16106114ba5761138c611387610d34610d2a610ce5610cd7888b610ba2565b610926565b9492905b945f5b8282106113a557505050505050505f90565b6113c36113bc836113b736878a610a62565b6115ed565b9093610942565b96825160208401200361145857600360fe1b6113f26111056113e485611308565b516001600160f81b03191690565b10611458578590846001601f60fb1b6114106111056113e488611308565b101561149c575b6114218186611794565b6011810361146357506114339461191f565b94911561145857841561144c5793915b91959093611393565b50505050505050600190565b505050505050505f90565b9093506002141590506114905784879261147c946117d9565b94911561145857841561144c579391611443565b50505050505050505f90565b506114b5611387610d34610d2a610ce56113e489611308565b611417565b6001949290611390565b63ebb47d1d60e01b5f5260045ffd5b92918060c060ff6114eb610ce5610cd785888b610bb0565b1610610de45760f860ff611506610ce5610cd785888b610bb0565b1610611578575080610d3a610d34610d2f610d2a610ce5610cd761152b97898c610bb0565b925b609460ff611542610ce5610cd7888787610bb0565b1603611569576115659161155f6001868401013560601c95610934565b91611a34565b9091565b63e6c4247b60e01b5f5260045ffd5b6115829150610913565b9261152d565b6005545f5481018091116109215790565b604080519091906115aa83826107e4565b6001815291601f1901366020840137565b906115c582610a46565b6115d260405191826107e4565b82815280926115e3601f1991610a46565b0190602036910137565b80518210156112f957611606610ce56113e48484611315565b9160ff8316608081101561163f5750505061161f611599565b9060f81b6001600160f81b0319165f1a61163882611308565b5390600190565b919392909160b88110156116a95750610d3461165a91610c66565b90611664826115bb565b935f5b83811061167a57505050610c5090610926565b806116966113e461169060019461103d88610913565b85611315565b5f1a6116a28289611315565b5301611667565b60c0111561174757610d346116bd91610c8c565b5f915f5b82811061171957506116d2836115bb565b945f5b8481106116ec575050509061103d610c5092610926565b806117066113e461169060019461103d8961103d8a610913565b5f1a611712828a611315565b53016116d5565b9260019060081b61173f610d34610ce56113e46117398961103d89610913565b8b611315565b1793016116c1565b50916117538382611bae565b9261175d846115bb565b915f5b85811061176e575050509190565b806117816113e461169060019487610942565b5f1a61178d8287611315565b5301611760565b5f92915b81518110156117bf576117ab8183611bae565b810180911161092157600190930192611798565b5050565b908160011b918083046002149015171561092157565b839492916117e781836115ed565b939061180660206117fd610ce56113e485611308565b16151591611cdb565b978891156118a8575061181a905187610942565b61182482516117c3565b14611839575b505050505050505f905f905f90565b86866001928251611896575b505050611853575b8061182a565b6118669261186091610942565b906115ed565b5060208151910120906020815191012014611884578080808061184d565b61188f915190610942565b6001915f90565b6118a09350611e44565b86865f611845565b6118b9939495965061056d92611e44565b611912576118ca9261186091610942565b50908151602081145f146118f2575060206118ea920151925b5190610942565b916001929190565b80156119065760206118ea930120926118e3565b505050505f905f905f90565b50505050505f905f905f90565b9190929361192d82516117c3565b8510156119d75750610ce56113e461194f926119498760011c90565b90611315565b600184166119ce5760041c600f16915b905f925b60ff811684106119ae575061197892506115ed565b50805180156119a3576118ea91602082036119995760209150015191610913565b6020012091610913565b5050505f905f905f90565b909160016119c282610d3a60ff9487611bae565b94019392919050611963565b600f169161195f565b9290509392935f915b60108310611a1a576119f292506115ed565b50602081519101209060208151910120145f14611a1157600191905f90565b5f915081908190565b90611a2b81610d3a60019385611bae565b920191906119e0565b909291925f908460c060ff611a50610ce5610cd78a878a610bb0565b1610610de45760f860ff611a6b610ce5610cd78a878a610bb0565b1610611b9f5780610d3a610d34610d2f610d2a610ce5610cd7611a8f97898c610bb0565b7fddf252ad1be2c89b69c2b068fc378daa952ba7f163c4a11628f55a4df523b3ef611abb828487611f02565b03611b9057611ae8610ac1610ac1611ae1611ada611af095878a61119e565b868961119e565b8588611f02565b95828561119e565b611b01610ce5610cd7838588610bb0565b60ff811694906080861015611b1857505050505090565b909192939594608081145f14611b3257505f955050505050565b60a010610de457610d34611b4891939293610c66565b915f935b838510611b5a575050505050565b9091929395611b6b60019160081b90565b611b84610d34610ce5610cd76110428c61103d8b610913565b17960193929190611b4c565b6324da545d60e11b5f5260045ffd5b50611ba985610913565b611a8f565b9081518110156112f957611bc8610ce56113e48385611315565b9160ff83166080811015611bdf5750505050600190565b60b8811015611bfa57505050610d34610d2f610c5092610c66565b60c0811015611c66575091610d34611c1191610c8c565b905f925f915b838310611c2e575050509061103d610c5092610926565b909193611c3d60019160081b90565b611c5c610d34610ce56113e4611c568a61103d89610913565b88611315565b1794019190611c17565b60f81115611c7f575050610d34610d2f610c5092610c79565b91610d34611c8c91610c53565b905f925f915b838310611ca9575050509061103d610c5092610926565b909193611cb860019160081b90565b611cd1610d34610ce56113e4611c568a61103d89610913565b1794019190611c92565b9081511561098c57611cf2610ce56113e484611308565b6010811615611dc157611d15611d10611d0b85516117c3565b610a2b565b6115bb565b9060f81b600f60f81b165f1a611d2a82611308565b5360015b8351811015611dbc5780611d69611d59611d50610ce56113e46001968a611315565b60041c600f1690565b60f81b6001600160f81b03191690565b611d82611d78611d0b846117c3565b915f1a9185611315565b53611da9600f611d98610ce56113e4858a611315565b1660f81b6001600160f81b03191690565b611db5611d78836117c3565b5301611d2e565b509150565b50611dd7611d10611dd284516117c3565b610a1c565b60015b8351811015611dbc5780611dfc611d59611d50610ce56113e46001968a611315565b611e10611d78611e0b84610a2b565b6117c3565b53611e26600f611d98610ce56113e4858a611315565b611e3d611d78611e38611e0b85610a2b565b610913565b5301611dda565b919091611e52825184610942565b611e5c82516117c3565b10611efb575f5b8251811015611ef257611e7f611e798286610942565b60011690565b611ed457611ea8611d50610ce56113e4611ea2611e9c868a610942565b60011c90565b86611315565b60ff611ebd610d34610ce56113e48689611315565b911603611ecc57600101611e63565b505050505f90565b600f611eec610ce56113e4611ea2611e9c868a610942565b16611ea8565b50505050600190565b5050505f90565b9190600560fd1b906001600160f81b031990611f2090849086610bb0565b351603611f2f57016001013590565b63f0ff325b60e01b5f5260045ffdfea264697066735822122063822cc15c03fce062227c8f4dcfbcbc9b4c0db5cb6f588ae379910ee65a74cb64736f6c634300081e0033","linkReferences":{}},"methodIdentifiers":{"MAX_BLOCK_LOOKBACK()":"3d2691bc","bond(uint256)":"9940686e","bondAmount()":"80f323a7","bondedExecutor()":"1aa7c0ec","cancelAndWithdraw()":"6b892b22","cancellationRequest()":"308657d7","collect((bytes,bytes,bytes,bytes,uint256),uint256,bytes32)":"b1dd0800","commitment()":"1303a484","deposit()":"d0e30db0","executionDeadline()":"33ee5f35","fund(uint256,bytes32)":"c41020eb","funded()":"f3a504f2","is_bonded()":"cb766a56","originalDeposit()":"7fd0368b","requestCancellation()":"81972d00","resume()":"046f7da2","tokenContract()":"55a373d6","totalBondsDeposited()":"fe03a460"},"id":21}