{"abi":[{"type":"constructor","inputs":[{"name":"_tokenContract","type":"address","internalType":"address"},{"name":"_expectedRecipient","type":"address","internalType":"address"},{"name":"_expectedAmount","type":"uint256","internalType":"uint256"},{"name":"_blindedSigner","type":"address","internalType":"address"},{"name":"_currentRewardAmount","type":"uint256","internalType":"uint256"},{"name":"_currentPaymentAmount","type":"uint256","internalType":"uint256"}],"stateMutability":"payable"},{"type":"function","name":"MAX_BLOCK_LOOKBACK","inputs":[],"outputs":[{"name":"","type":"uint256","internalType":"uint256"}],"stateMutability":"view"},{"type":"function","name":"blindedSigner","inputs":[],"outputs":[{"name":"","type":"address","internalType":"address"}],"stateMutability":"view"},{"type":"function","name":"bond","inputs":[{"name":"bondSig","type":"bytes","internalType":"bytes"}],"outputs":[],"stateMutability":"nonpayable"},{"type":"function","name":"bondPot","inputs":[],"outputs":[{"name":"","type":"uint256","internalType":"uint256"}],"stateMutability":"view"},{"type":"function","name":"bondedExecutor","inputs":[],"outputs":[{"name":"","type":"address","internalType":"address"}],"stateMutability":"view"},{"type":"function","name":"cancelAndWithdraw","inputs":[],"outputs":[],"stateMutability":"nonpayable"},{"type":"function","name":"cancellationRequest","inputs":[],"outputs":[{"name":"","type":"bool","internalType":"bool"}],"stateMutability":"view"},{"type":"function","name":"collect","inputs":[{"name":"proof","type":"tuple","internalType":"struct EscrowERC20.ReceiptProof","components":[{"name":"blockHeader","type":"bytes","internalType":"bytes"},{"name":"receiptRlp","type":"bytes","internalType":"bytes"},{"name":"proofNodes","type":"bytes","internalType":"bytes"},{"name":"receiptPath","type":"bytes","internalType":"bytes"},{"name":"logIndex","type":"uint256","internalType":"uint256"}]},{"name":"targetBlockNumber","type":"uint256","internalType":"uint256"}],"outputs":[],"stateMutability":"nonpayable"},{"type":"function","name":"currentPaymentAmount","inputs":[],"outputs":[{"name":"","type":"uint256","internalType":"uint256"}],"stateMutability":"view"},{"type":"function","name":"currentRewardAmount","inputs":[],"outputs":[{"name":"","type":"uint256","internalType":"uint256"}],"stateMutability":"view"},{"type":"function","name":"domainSeparator","inputs":[],"outputs":[{"name":"","type":"bytes32","internalType":"bytes32"}],"stateMutability":"view"},{"type":"function","name":"executionDeadline","inputs":[],"outputs":[{"name":"","type":"uint256","internalType":"uint256"}],"stateMutability":"view"},{"type":"function","name":"expectedAmount","inputs":[],"outputs":[{"name":"","type":"uint256","internalType":"uint256"}],"stateMutability":"view"},{"type":"function","name":"expectedRecipient","inputs":[],"outputs":[{"name":"","type":"address","internalType":"address"}],"stateMutability":"view"},{"type":"function","name":"fund","inputs":[{"name":"_currentRewardAmount","type":"uint256","internalType":"uint256"},{"name":"_currentPaymentAmount","type":"uint256","internalType":"uint256"}],"outputs":[],"stateMutability":"payable"},{"type":"function","name":"funded","inputs":[],"outputs":[{"name":"","type":"bool","internalType":"bool"}],"stateMutability":"view"},{"type":"function","name":"is_bonded","inputs":[],"outputs":[{"name":"","type":"bool","internalType":"bool"}],"stateMutability":"view"},{"type":"function","name":"originalRewardAmount","inputs":[],"outputs":[{"name":"","type":"uint256","internalType":"uint256"}],"stateMutability":"view"},{"type":"function","name":"requestCancellation","inputs":[],"outputs":[],"stateMutability":"nonpayable"},{"type":"function","name":"resume","inputs":[],"outputs":[],"stateMutability":"nonpayable"},{"type":"function","name":"tokenContract","inputs":[],"outputs":[{"name":"","type":"address","internalType":"address"}],"stateMutability":"view"},{"type":"error","name":"AlreadyFunded","inputs":[]},{"type":"error","name":"AmountMismatch","inputs":[]},{"type":"error","name":"BlockHashUnavailable","inputs":[]},{"type":"error","name":"BlockHeaderMismatch","inputs":[]},{"type":"error","name":"BlockNumberMismatch","inputs":[]},{"type":"error","name":"BondActive","inputs":[]},{"type":"error","name":"BondTransferFailed","inputs":[]},{"type":"error","name":"CancellationRequested","inputs":[]},{"type":"error","name":"ECDSAInvalidSignature","inputs":[]},{"type":"error","name":"ECDSAInvalidSignatureLength","inputs":[{"name":"length","type":"uint256","internalType":"uint256"}]},{"type":"error","name":"ECDSAInvalidSignatureS","inputs":[{"name":"s","type":"bytes32","internalType":"bytes32"}]},{"type":"error","name":"ExecutorAlreadyBonded","inputs":[]},{"type":"error","name":"ExpectedBytes32","inputs":[]},{"type":"error","name":"ExpectedRLPList","inputs":[]},{"type":"error","name":"InvalidAddress","inputs":[]},{"type":"error","name":"InvalidBondSignature","inputs":[]},{"type":"error","name":"InvalidRLP","inputs":[]},{"type":"error","name":"InvalidRLPEncoding","inputs":[]},{"type":"error","name":"InvalidRLPList","inputs":[]},{"type":"error","name":"InvalidReceiptProof","inputs":[]},{"type":"error","name":"InvalidTransferEvent","inputs":[]},{"type":"error","name":"NoWithdrawableFunds","inputs":[]},{"type":"error","name":"NotFunded","inputs":[]},{"type":"error","name":"OnlyBondedExecutor","inputs":[]},{"type":"error","name":"OnlyDeployer","inputs":[]},{"type":"error","name":"RLPOffsetOutOfBounds","inputs":[]},{"type":"error","name":"TargetBlockInFuture","inputs":[]},{"type":"error","name":"TargetBlockTooOld","inputs":[]},{"type":"error","name":"ToAddressMismatch","inputs":[]},{"type":"error","name":"TokenTransferFailed","inputs":[]},{"type":"error","name":"WrongEventSignature","inputs":[]},{"type":"error","name":"WrongTokenContract","inputs":[]},{"type":"error","name":"ZeroAddress","inputs":[]},{"type":"error","name":"ZeroBondAmount","inputs":[]},{"type":"error","name":"ZeroPaymentAmount","inputs":[]},{"type":"error","name":"ZeroRewardAmount","inputs":[]}],"bytecode":{"object":"0x6101408060405260c0816126db803803809161001b828561032c565b83398101031261029e5761002e81610363565b9061003b60208201610363565b604082015161004c60608401610363565b9060a060808501519401519260e0526101005260c0523360a05260405160208101907f8b73c3c69bb8fe3d512ecc4cf759cc79239f7b179b0ffacaa9a75d522b39400f82527fa222588f33d25c694dfae6965a4e2410aa5c3f8d5d6c2f0a3100d528225c8a0860408201527fc89efdaa54c0f20c7adf612882df0950f5a951637e0307cdcb4c672f298b8bc660608201524660808201523060a082015260a081526100f860c08261032c565b5190206080526001600160a01b03831692831561031d57610120528115801580610314575b6101bd575b60405161236390816103788239608051818181610a92015261119b015260a0518181816101760152818161058c0152818161063e0152610c33015260c05181818161037a01526107b2015260e0518181816105de01526109750152610100518181816102020152610953015261012051818181610295015281816104db015281816106ee015281816109970152818161104401526110d60152f35b60a0516001600160a01b031633036103055760ff60065460081c166102f6576102e75780156102d85734156102c957815f5581600255806001553460055581018091116102b5575f91606460209260405194859384926323b872dd60e01b845233600485015230602485015260448401525af19081156102aa575f9161026b575b501561025c5761010061ff001960065416176006555f808080610122565b63022e258160e11b5f5260045ffd5b90506020813d6020116102a2575b816102866020938361032c565b8101031261029e5751801515810361029e575f61023e565b5f80fd5b3d9150610279565b6040513d5f823e3d90fd5b634e487b7160e01b5f52601160045260245ffd5b636edb2d2f60e11b5f5260045ffd5b63932ca0a360e01b5f5260045ffd5b63ea1083a760e01b5f5260045ffd5b635adf638760e01b5f5260045ffd5b63618bbdd560e01b5f5260045ffd5b5081151561011d565b63d92e233d60e01b5f5260045ffd5b601f909101601f19168101906001600160401b0382119082101761034f57604052565b634e487b7160e01b5f52604160045260245ffd5b51906001600160a01b038216820361029e5756fe60806040526004361015610011575f80fd5b5f3560e01c8063046f7da2146101645780631aa7c0ec1461015f5780632feef2ec1461015a578063308657d71461015557806333ee5f35146101505780633d2691bc1461014b57806355a373d6146101465780635a4fd645146101415780635c56f7ce1461013c5780636332cd85146101375780636b892b221461013257806381972d001461012d5780638677ab23146101285780638bd03d0a14610123578063a65e2cfd1461011e578063a967d93214610119578063cb766a5614610114578063d415b3f91461010f578063ede7f6a31461010a578063f3a504f2146101055763f698da2514610100575f80fd5b610a7b565b610a56565b610822565b610805565b6107e1565b61079d565b61062a565b61060d565b6105c9565b61057a565b61044b565b61042e565b6102e0565b6102c4565b610280565b610264565b610247565b610225565b6101eb565b6101c3565b346101bf575f3660031901126101bf577f00000000000000000000000000000000000000000000000000000000000000006001600160a01b031633036101b0576006805460ff19169055005b63618bbdd560e01b5f5260045ffd5b5f80fd5b346101bf575f3660031901126101bf576003546040516001600160a01b039091168152602090f35b346101bf575f3660031901126101bf5760206040517f00000000000000000000000000000000000000000000000000000000000000008152f35b346101bf575f3660031901126101bf57602060ff600654166040519015158152f35b346101bf575f3660031901126101bf576020600454604051908152f35b346101bf575f3660031901126101bf5760206040516101008152f35b346101bf575f3660031901126101bf576040517f00000000000000000000000000000000000000000000000000000000000000006001600160a01b03168152602090f35b346101bf575f3660031901126101bf5760205f54604051908152f35b346101bf5760203660031901126101bf5760043567ffffffffffffffff81116101bf57366023820112156101bf57806004013567ffffffffffffffff81116101bf5736602482840101116101bf576004548015159081610424575b50610417575b60065460ff8160081c16156104085760ff166103f95761035f610bae565b6103ea576024610370920133611133565b6001600160a01b037f000000000000000000000000000000000000000000000000000000000000000081169116036103dc576103aa610bf9565b5f8080806005546103ba5f600555565b335af16103c5610b0c565b50156103cd57005b6383e6cc6b60e01b5f5260045ffd5b62b8406360e61b5f5260045ffd5b63129f78e960e11b5f5260045ffd5b632479328960e01b5f5260045ffd5b636af784dd60e11b5f5260045ffd5b61041f610c63565b610341565b905042115f61033b565b346101bf575f3660031901126101bf576020600554604051908152f35b346101bf575f3660031901126101bf5761046d600160ff196006541617600655565b610475610c23565b61047d610c63565b610485610c94565b600554906104a061ff0019600654166006555f6001555f8055565b6104a95f600555565b801561056b5760405163a9059cbb60e01b815233600482015260248101919091526020816044815f6001600160a01b037f0000000000000000000000000000000000000000000000000000000000000000165af1908115610566575f91610537575b5015610528578061051857005b5f80808093335af16103c5610b0c565b63022e258160e11b5f5260045ffd5b610559915060203d60201161055f575b6105518183610ac9565b810190610b3b565b5f61050b565b503d610547565b610b53565b6353cd7f7960e01b5f5260045ffd5b346101bf575f3660031901126101bf577f00000000000000000000000000000000000000000000000000000000000000006001600160a01b031633036101b0576006805460ff19166001179055005b346101bf575f3660031901126101bf576040517f00000000000000000000000000000000000000000000000000000000000000006001600160a01b03168152602090f35b346101bf575f3660031901126101bf576020600154604051908152f35b60403660031901126101bf576004356024357f00000000000000000000000000000000000000000000000000000000000000006001600160a01b031633036101b05760065460081c60ff1661078e57811561077f5780156107705734156107615761069a8261069f935f55600255565b600155565b6106a834600555565b6106e960206106bc60025460015490610ba1565b6040516323b872dd60e01b8152336004820152306024820152604481019190915291829081906064820190565b03815f7f00000000000000000000000000000000000000000000000000000000000000006001600160a01b03165af1908115610566575f91610742575b50156105285761074061010061ff00196006541617600655565b005b61075b915060203d60201161055f576105518183610ac9565b5f610726565b636edb2d2f60e11b5f5260045ffd5b63932ca0a360e01b5f5260045ffd5b63ea1083a760e01b5f5260045ffd5b635adf638760e01b5f5260045ffd5b346101bf575f3660031901126101bf576040517f00000000000000000000000000000000000000000000000000000000000000006001600160a01b03168152602090f35b346101bf575f3660031901126101bf5760206107fb610bae565b6040519015158152f35b346101bf575f3660031901126101bf576020600254604051908152f35b346101bf5760403660031901126101bf5760043567ffffffffffffffff81116101bf578060040160a060031983360301126101bf576024356108648280610bc6565b6006546108799060081c60ff161590565b1590565b6104085760035461089a906001600160a01b03165b6001600160a01b031690565b3314801590610a45575b610a3657438311610a27576101006108bc8443610cc3565b11610a185782408015610a09576108d4368385610cd0565b60208151910120036109fa576108e9916111ed565b036109eb576109016108fb8280610bc6565b90610d34565b9161093b61087560248301946109178686610bc6565b906109256044870188610bc6565b90610933606489018a610bc6565b949093610da4565b6109dc5760846109516109c19461087594610bc6565b7f0000000000000000000000000000000000000000000000000000000000000000937f0000000000000000000000000000000000000000000000000000000000000000937f0000000000000000000000000000000000000000000000000000000000000000939101359190610e28565b6109cd57610740610fc2565b6364fa89e160e11b5f5260045ffd5b637b374dd160e01b5f5260045ffd5b63048a12f560e11b5f5260045ffd5b63ff28378760e01b5f5260045ffd5b63bfc9f0d360e01b5f5260045ffd5b63c42a018560e01b5f5260045ffd5b63058968cf60e41b5f5260045ffd5b6337b5f20360e21b5f5260045ffd5b50610a51610875610bae565b6108a4565b346101bf575f3660031901126101bf57602060ff60065460081c166040519015158152f35b346101bf575f3660031901126101bf5760206040517f00000000000000000000000000000000000000000000000000000000000000008152f35b634e487b7160e01b5f52604160045260245ffd5b90601f8019910116810190811067ffffffffffffffff821117610aeb57604052565b610ab5565b67ffffffffffffffff8111610aeb57601f01601f191660200190565b3d15610b36573d90610b1d82610af0565b91610b2b6040519384610ac9565b82523d5f602084013e565b606090565b908160209103126101bf575180151581036101bf5790565b6040513d5f823e3d90fd5b634e487b7160e01b5f52601160045260245ffd5b9060018201809211610b8057565b610b5e565b6001019081600111610b8057565b9060158201809211610b8057565b91908201809211610b8057565b6004548015159081610bbe575090565b905042111590565b903590601e19813603018212156101bf570180359067ffffffffffffffff82116101bf576020019181360383136101bf57565b336bffffffffffffffffffffffff60a01b600354161760035561012c4201804211610b8057600455565b60ff60065460081c1615610408577f00000000000000000000000000000000000000000000000000000000000000006001600160a01b031633036101b057565b610c6b610bae565b610c8557600380546001600160a01b03191690555f600455565b639cbc1de160e01b5f5260045ffd5b6001546002548101809111610b805790565b600119810191908211610b8057565b5f19810191908211610b8057565b91908203918211610b8057565b929192610cdc82610af0565b91610cea6040519384610ac9565b8294818452818301116101bf578281602093845f960137010152565b634e487b7160e01b5f52603260045260245ffd5b9015610d235790565b610d06565b90821015610d23570190565b90610d3f81836112a9565b905f5b60058110610d8f5750600560fd1b906001600160f81b031990610d6790849086610d28565b351603610d8057600181018111610b8057016001013590565b633954003560e11b5f5260045ffd5b91610d9d60019183866113dd565b9201610d42565b610dba610dc292939495610dc898973691610cd0565b923691610cd0565b90611565565b90565b60ff60f6199116019060ff8211610b8057565b60ff607f199116019060ff8211610b8057565b60ff60bf199116019060ff8211610b8057565b60ff60b6199116019060ff8211610b8057565b60ff166001019060ff8211610b8057565b9594939291905f818881151580610fa6575b610f98575b610e68610e62610e548560c09560ff95610d28565b356001600160f81b03191690565b60f81c90565b1610610f6257808860f860ff610e86610e62610e5488978887610d28565b1610610f8857610eb3610eae610ea9610e62610e5486610ebf98610eb997610d28565b610dcb565b610e17565b60ff1690565b90610ba1565b81885f5b60038110610f715750610eb3610e62610e548560c095610ee295610d28565b10610f6257808860f8610f00610eb3610e62610e5488978887610d28565b10610f5157610eb3610eae610ea9610e62610e5486610f2298610eb997610d28565b915b5f905b808210610f3a575050610dc89596611712565b9092610f49600191848b6113dd565b930190610f27565b50610f5c9150610b72565b91610f24565b631bd5dcf760e31b5f5260045ffd5b92600192610f7e926113dd565b9101888391610ec3565b50610f939150610b72565b610ebf565b506001915082905088610e3f565b50608060ff610fbb610e62610e548686610d1a565b1610610e3a565b610fca6117e2565b6003546001600160a01b03166110086bffffffffffffffffffffffff60a01b600354166003555f60045561ff0019600654166006555f6001555f8055565b4662aa36a7036110a457604051633419e74d60e21b81526001600160a01b0390911660048201526024810191909152602081806044810103815f7f00000000000000000000000000000000000000000000000000000000000000006001600160a01b03165af1908115610566575f91611085575b505b1561052857565b61109e915060203d60201161055f576105518183610ac9565b5f61107c565b60405163a9059cbb60e01b81526001600160a01b0390911660048201526024810191909152602081806044810103815f7f00000000000000000000000000000000000000000000000000000000000000006001600160a01b03165af1908115610566575f91611114575b5061107e565b61112d915060203d60201161055f576105518183610ac9565b5f61110e565b916111de6111e492610dc89460405160208101917f017ab2ce48f3ed2b84d1da9d31a578e8a2f60972b9bfce11127c1725944faa11835260018060a01b0316604082015260408152611186606082610ac9565b519020604051602081019161190160f01b83527f000000000000000000000000000000000000000000000000000000000000000060228301526042820152604281526111d3606282610ac9565b519020923691610cd0565b90611e45565b90929192611e9d565b6111f782826112a9565b915f5b600881106112945750611214610e62610e54858486610d28565b925f9260ff851694608086105f1461122e57505050505090565b61123f9193949550610eb390610dde565b915f935b83851061125257505050505090565b909192939461126360019160081b90565b611288610eb3610e62610e546112818b61127c8b610b72565b610ba1565b8789610d28565b17950193929190611243565b926112a260019183856113dd565b93016111fa565b5f600360fe1b6001600160f81b03196112c5610e548686610d1a565b16106113a557601f60fb1b6001600160f81b03196112e6610e548686610d1a565b16106113d45780610eb9610eb3610eae610ea9610e62610e5461130a978a8a610d28565b905b61a5bd461480156113c9575b611323575b50905090565b5f5b600381106113b45750600360fe1b611351611344610e54858786610d28565b6001600160f81b03191690565b106113a557601f60fb1b61136c611344610e54858786610d28565b1061139557610eb3610eae610ea9610e62610e548661138e98610eb997610d28565b805f61131d565b506113a09150610b72565b61138e565b63c0098bd960e01b5f5260045ffd5b916113c260019185846113dd565b9201611325565b5061a5bf4614611318565b5060019061130c565b919080821015611538576113f8610e62610e54848487610d28565b9060ff8216608081101561141357505050610dc89150610b72565b91929160b881101561143b575050610dc89250610eb3611435610eb992610b72565b92610dde565b90929060c08110156114b15750610eb361145791949394610e04565b915f935f915b84831061147857505050610dc8929161127c61127c92610b72565b90919461148760019160081b90565b6114a7610eb3610e62610e546114a08b61127c8b610b72565b8888610d28565b179501919061145d565b90929060f811156114d75750610dc89250610eb36114d1610eb992610b72565b92610df1565b9291610eb36114e591610dcb565b915f935f915b84831061150657505050610dc8929161127c61127c92610b72565b90919461151560019160081b90565b61152e610eb3610e62610e546114a08b61127c8b610b72565b17950191906114eb565b6318d76ae160e11b5f5260045ffd5b805115610d235760200190565b908151811015610d23570160200190565b919390929190600360fe1b6001600160f81b0319611586610e548689610d1a565b161061170357601f60fb1b6001600160f81b03196115a7610e548689610d1a565b16106116f9576115cb6115c6610eb3610ea9610e62610e54888b610d1a565b610b85565b9492905b945f5b8282106115e457505050505050505f90565b6116026115fb836115f636878a610cd0565b611847565b9093610ba1565b96825160208401200361169757600360fe1b61163161134461162385611547565b516001600160f81b03191690565b10611697578590846001601f60fb1b61164f61134461162388611547565b10156116db575b61166081866119ee565b601181036116a2575061167294611b79565b94911561169757841561168b5793915b919590936115d2565b50505050505050600190565b505050505050505f90565b9093506002141590506116cf578487926116bb94611a33565b94911561169757841561168b579391611682565b50505050505050505f90565b506116f46115c6610eb3610ea9610e6261162389611547565b611656565b60019492906115cf565b63ebb47d1d60e01b5f5260045ffd5b91949392948060c060ff61172d610e62610e5485888a610d28565b1610610f625760f860ff611748610e62610e5485888a610d28565b16106117d2575080610eb9610eb3610eae610ea9610e62610e5461176d97898b610d28565b945b609460ff611784610e62610e548a8789610d28565b16036117c3576001600160a01b03168286016001013560601c036117b4576117ae610dc895610b93565b91611c8e565b63a087f96f60e01b5f5260045ffd5b63e6c4247b60e01b5f5260045ffd5b6117dc9150610b72565b9461176f565b5f546001548101809111610b805790565b604080519091906118048382610ac9565b6001815291601f1901366020840137565b9061181f82610af0565b61182c6040519182610ac9565b828152809261183d601f1991610af0565b0190602036910137565b805182101561153857611860610e626116238484611554565b9160ff83166080811015611899575050506118796117f3565b9060f81b6001600160f81b0319165f1a61189282611547565b5390600190565b919392909160b88110156119035750610eb36118b491610dde565b906118be82611815565b935f5b8381106118d457505050610dc890610b85565b806118f06116236118ea60019461127c88610b72565b85611554565b5f1a6118fc8289611554565b53016118c1565b60c011156119a157610eb361191791610e04565b5f915f5b828110611973575061192c83611815565b945f5b848110611946575050509061127c610dc892610b85565b806119606116236118ea60019461127c8961127c8a610b72565b5f1a61196c828a611554565b530161192f565b9260019060081b611999610eb3610e626116236119938961127c89610b72565b8b611554565b17930161191b565b50916119ad8382611f19565b926119b784611815565b915f5b8581106119c8575050509190565b806119db6116236118ea60019487610ba1565b5f1a6119e78287611554565b53016119ba565b5f92915b8151811015611a1957611a058183611f19565b8101809111610b80576001909301926119f2565b5050565b908160011b9180830460021490151715610b8057565b83949291611a418183611847565b9390611a606020611a57610e6261162385611547565b16151591612046565b97889115611b025750611a74905187610ba1565b611a7e8251611a1d565b14611a93575b505050505050505f905f905f90565b86866001928251611af0575b505050611aad575b80611a84565b611ac092611aba91610ba1565b90611847565b5060208151910120906020815191012014611ade5780808080611aa7565b611ae9915190610ba1565b6001915f90565b611afa93506121b1565b86865f611a9f565b611b139394959650610875926121b1565b611b6c57611b2492611aba91610ba1565b50908151602081145f14611b4c57506020611b44920151925b5190610ba1565b916001929190565b8015611b60576020611b4493012092611b3d565b505050505f905f905f90565b50505050505f905f905f90565b91909293611b878251611a1d565b851015611c315750610e62611623611ba992611ba38760011c90565b90611554565b60018416611c285760041c600f16915b905f925b60ff81168410611c085750611bd29250611847565b5080518015611bfd57611b449160208203611bf35760209150015191610b72565b6020012091610b72565b5050505f905f905f90565b90916001611c1c82610eb960ff9487611f19565b94019392919050611bbd565b600f1691611bb9565b9290509392935f915b60108310611c7457611c4c9250611847565b50602081519101209060208151910120145f14611c6b57600191905f90565b5f915081908190565b90611c8581610eb960019385611f19565b92019190611c3a565b929190918160c060ff611ca8610e62610e5487898b610d28565b1610610f625760f860ff611cc3610e62610e5487898b610d28565b1610611e365780610eb9610eb3610eae610ea9610e62610e54611ce7978b8d610d28565b7fddf252ad1be2c89b69c2b068fc378daa952ba7f163c4a11628f55a4df523b3ef611d1382868861226f565b03611e275761088e61088e611d36611d2f611d3d94888a6113dd565b87896113dd565b868861226f565b6001600160a01b03918216911603611e1857611d5a9082846113dd565b905f91611d6e610e62610e54838588610d28565b60ff811694906080861015611d9c5750505050505b03611d8d57600190565b6355e97b0d60e01b5f5260045ffd5b9091929394608081145f14611db7575050505050505f611d83565b60a010610f6257610eb3611dcd91939293610dde565b915f935b838510611de2575050505050611d83565b9091929394611df360019160081b90565b611e0c610eb3610e62610e546112818b61127c8b610b72565b17950193929190611dd1565b634cd4b7b160e01b5f5260045ffd5b6324da545d60e11b5f5260045ffd5b50611e4082610b72565b611ce7565b8151919060418303611e7557611e6e9250602082015190606060408401519301515f1a906122ab565b9192909190565b50505f9160029190565b60041115611e8957565b634e487b7160e01b5f52602160045260245ffd5b611ea681611e7f565b80611eaf575050565b611eb881611e7f565b60018103611ecf5763f645eedf60e01b5f5260045ffd5b611ed881611e7f565b60028103611ef3575063fce698f760e01b5f5260045260245ffd5b80611eff600392611e7f565b14611f075750565b6335e2f38360e21b5f5260045260245ffd5b90815181101561153857611f33610e626116238385611554565b9160ff83166080811015611f4a5750505050600190565b60b8811015611f6557505050610eb3610eae610dc892610dde565b60c0811015611fd1575091610eb3611f7c91610e04565b905f925f915b838310611f99575050509061127c610dc892610b85565b909193611fa860019160081b90565b611fc7610eb3610e62611623611fc18a61127c89610b72565b88611554565b1794019190611f82565b60f81115611fea575050610eb3610eae610dc892610df1565b91610eb3611ff791610dcb565b905f925f915b838310612014575050509061127c610dc892610b85565b90919361202360019160081b90565b61203c610eb3610e62611623611fc18a61127c89610b72565b1794019190611ffd565b908151156121af5761205d610e6261162384611547565b601081161561212c5761208061207b6120768551611a1d565b610cb5565b611815565b9060f81b600f60f81b165f1a61209582611547565b5360015b835181101561212757806120d46120c46120bb610e626116236001968a611554565b60041c600f1690565b60f81b6001600160f81b03191690565b6120ed6120e361207684611a1d565b915f1a9185611554565b53612114600f612103610e62611623858a611554565b1660f81b6001600160f81b03191690565b6121206120e383611a1d565b5301612099565b509150565b5061214261207b61213d8451611a1d565b610ca6565b60015b835181101561212757806121676120c46120bb610e626116236001968a611554565b61217b6120e361217684610cb5565b611a1d565b53612191600f612103610e62611623858a611554565b6121a86120e36121a361217685610cb5565b610b72565b5301612145565b565b9190916121bf825184610ba1565b6121c98251611a1d565b10612268575f5b825181101561225f576121ec6121e68286610ba1565b60011690565b612241576122156120bb610e6261162361220f612209868a610ba1565b60011c90565b86611554565b60ff61222a610eb3610e626116238689611554565b911603612239576001016121d0565b505050505f90565b600f612259610e6261162361220f612209868a610ba1565b16612215565b50505050600190565b5050505f90565b9190600560fd1b906001600160f81b03199061228d90849086610d28565b35160361229c57016001013590565b63f0ff325b60e01b5f5260045ffd5b91907f7fffffffffffffffffffffffffffffff5d576e7357a4501ddfe92f46681b20a08411612322579160209360809260ff5f9560405194855216868401526040830152606082015282805260015afa15610566575f516001600160a01b0381161561231857905f905f90565b505f906001905f90565b5050505f916003919056fea264697066735822122093572c3d1958c6ebbd29f0cdbad213d7da8bb7556b984d7b0bfad7d91545611564736f6c634300081e0033","linkReferences":{}},"methodIdentifiers":{"MAX_BLOCK_LOOKBACK()":"3d2691bc","blindedSigner()":"a967d932","bond(bytes)":"5c56f7ce","bondPot()":"6332cd85","bondedExecutor()":"1aa7c0ec","cancelAndWithdraw()":"6b892b22","cancellationRequest()":"308657d7","collect((bytes,bytes,bytes,bytes,uint256),uint256)":"ede7f6a3","currentPaymentAmount()":"8bd03d0a","currentRewardAmount()":"5a4fd645","domainSeparator()":"f698da25","executionDeadline()":"33ee5f35","expectedAmount()":"2feef2ec","expectedRecipient()":"8677ab23","fund(uint256,uint256)":"a65e2cfd","funded()":"f3a504f2","is_bonded()":"cb766a56","originalRewardAmount()":"d415b3f9","requestCancellation()":"81972d00","resume()":"046f7da2","tokenContract()":"55a373d6"},"id":2}