{"abi":[{"type":"constructor","inputs":[{"name":"_tokenContract","type":"address","internalType":"address"},{"name":"_expectedRecipient","type":"address","internalType":"address"},{"name":"_expectedAmount","type":"uint256","internalType":"uint256"},{"name":"_currentRewardAmount","type":"uint256","internalType":"uint256"},{"name":"_currentPaymentAmount","type":"uint256","internalType":"uint256"}],"stateMutability":"nonpayable"},{"type":"function","name":"MAX_BLOCK_LOOKBACK","inputs":[],"outputs":[{"name":"","type":"uint256","internalType":"uint256"}],"stateMutability":"view"},{"type":"function","name":"cancelAndWithdraw","inputs":[],"outputs":[],"stateMutability":"nonpayable"},{"type":"function","name":"collect","inputs":[{"name":"proof","type":"tuple","internalType":"struct EscrowERC20.ReceiptProof","components":[{"name":"blockHeader","type":"bytes","internalType":"bytes"},{"name":"receiptRlp","type":"bytes","internalType":"bytes"},{"name":"proofNodes","type":"bytes","internalType":"bytes"},{"name":"receiptPath","type":"bytes","internalType":"bytes"},{"name":"logIndex","type":"uint256","internalType":"uint256"}]},{"name":"targetBlockNumber","type":"uint256","internalType":"uint256"},{"name":"payoutAddress","type":"address","internalType":"address"},{"name":"executionSig","type":"bytes","internalType":"bytes"}],"outputs":[],"stateMutability":"nonpayable"},{"type":"function","name":"collected","inputs":[],"outputs":[{"name":"","type":"bool","internalType":"bool"}],"stateMutability":"view"},{"type":"function","name":"currentPaymentAmount","inputs":[],"outputs":[{"name":"","type":"uint256","internalType":"uint256"}],"stateMutability":"view"},{"type":"function","name":"currentRewardAmount","inputs":[],"outputs":[{"name":"","type":"uint256","internalType":"uint256"}],"stateMutability":"view"},{"type":"function","name":"domainSeparator","inputs":[],"outputs":[{"name":"","type":"bytes32","internalType":"bytes32"}],"stateMutability":"view"},{"type":"function","name":"expectedAmount","inputs":[],"outputs":[{"name":"","type":"uint256","internalType":"uint256"}],"stateMutability":"view"},{"type":"function","name":"expectedRecipient","inputs":[],"outputs":[{"name":"","type":"address","internalType":"address"}],"stateMutability":"view"},{"type":"function","name":"fund","inputs":[{"name":"_currentRewardAmount","type":"uint256","internalType":"uint256"},{"name":"_currentPaymentAmount","type":"uint256","internalType":"uint256"}],"outputs":[],"stateMutability":"nonpayable"},{"type":"function","name":"funded","inputs":[],"outputs":[{"name":"","type":"bool","internalType":"bool"}],"stateMutability":"view"},{"type":"function","name":"originalRewardAmount","inputs":[],"outputs":[{"name":"","type":"uint256","internalType":"uint256"}],"stateMutability":"view"},{"type":"function","name":"tokenContract","inputs":[],"outputs":[{"name":"","type":"address","internalType":"address"}],"stateMutability":"view"},{"type":"error","name":"AlreadyCollected","inputs":[]},{"type":"error","name":"AlreadyFunded","inputs":[]},{"type":"error","name":"AmountMismatch","inputs":[]},{"type":"error","name":"BlockHashUnavailable","inputs":[]},{"type":"error","name":"BlockHeaderMismatch","inputs":[]},{"type":"error","name":"BlockNumberMismatch","inputs":[]},{"type":"error","name":"ECDSAInvalidSignature","inputs":[]},{"type":"error","name":"ECDSAInvalidSignatureLength","inputs":[{"name":"length","type":"uint256","internalType":"uint256"}]},{"type":"error","name":"ECDSAInvalidSignatureS","inputs":[{"name":"s","type":"bytes32","internalType":"bytes32"}]},{"type":"error","name":"ExpectedBytes32","inputs":[]},{"type":"error","name":"ExpectedRLPList","inputs":[]},{"type":"error","name":"InvalidAddress","inputs":[]},{"type":"error","name":"InvalidRLP","inputs":[]},{"type":"error","name":"InvalidRLPEncoding","inputs":[]},{"type":"error","name":"InvalidRLPList","inputs":[]},{"type":"error","name":"InvalidReceiptProof","inputs":[]},{"type":"error","name":"InvalidTransferEvent","inputs":[]},{"type":"error","name":"NoWithdrawableFunds","inputs":[]},{"type":"error","name":"NotFunded","inputs":[]},{"type":"error","name":"OnlyDeployer","inputs":[]},{"type":"error","name":"RLPOffsetOutOfBounds","inputs":[]},{"type":"error","name":"SignerNotTxSender","inputs":[]},{"type":"error","name":"TargetBlockInFuture","inputs":[]},{"type":"error","name":"TargetBlockTooOld","inputs":[]},{"type":"error","name":"ToAddressMismatch","inputs":[]},{"type":"error","name":"TokenTransferFailed","inputs":[]},{"type":"error","name":"WrongEventSignature","inputs":[]},{"type":"error","name":"WrongTokenContract","inputs":[]},{"type":"error","name":"ZeroAddress","inputs":[]},{"type":"error","name":"ZeroPaymentAmount","inputs":[]},{"type":"error","name":"ZeroRewardAmount","inputs":[]}],"bytecode":{"object":"0x61012080604052346102715760a08161259d803803809161002082856102f0565b8339810103126102715761003381610327565b9061004060208201610327565b6040820151608060608401519301519160c05260e0523360a05260405160208101907f8b73c3c69bb8fe3d512ecc4cf759cc79239f7b179b0ffacaa9a75d522b39400f82527fa222588f33d25c694dfae6965a4e2410aa5c3f8d5d6c2f0a3100d528225c8a0860408201527fc89efdaa54c0f20c7adf612882df0950f5a951637e0307cdcb4c672f298b8bc660608201524660808201523060a082015260a081526100ec60c0826102f0565b5190206080526001600160a01b0383169283156102e1576101005281158015806102d8575b61019f575b604051612261908161033c82396080518181816105830152610f2b015260a05181818161034b01526107e3015260c0518181816102e6015281816107460152610eaf015260e05181818160fb015281816107230152610ed601526101005181818161015301528181610213015281816103e90152818161076801528181610ff701526110890152f35b60a0516001600160a01b031633036102c95760ff600354166102ba576102ab57801561029c57815f5581600255806001558101809111610288575f91606460209260405194859384926323b872dd60e01b845233600485015230602485015260448401525af190811561027d575f9161023e575b501561022f57600160ff1960035416176003555f808080610116565b63022e258160e11b5f5260045ffd5b90506020813d602011610275575b81610259602093836102f0565b8101031261027157518015158103610271575f610213565b5f80fd5b3d915061024c565b6040513d5f823e3d90fd5b634e487b7160e01b5f52601160045260245ffd5b63932ca0a360e01b5f5260045ffd5b63ea1083a760e01b5f5260045ffd5b635adf638760e01b5f5260045ffd5b63618bbdd560e01b5f5260045ffd5b50811515610111565b63d92e233d60e01b5f5260045ffd5b601f909101601f19168101906001600160401b0382119082101761031357604052565b634e487b7160e01b5f52604160045260245ffd5b51906001600160a01b03821682036102715756fe60806040526004361015610011575f80fd5b5f3560e01c80632feef2ec146100e45780633d2691bc146100df57806355a373d6146100da5780635a4fd645146100d55780636b892b22146100d057806384bcefd4146100cb5780638677ab23146100c65780638bd03d0a146100c1578063a65e2cfd146100bc578063d415b3f9146100b7578063ec6b8596146100b2578063f3a504f2146100ad5763f698da25146100a8575f80fd5b61056c565b61054a565b6104b3565b610496565b610332565b610315565b6102d1565b6102ac565b61019e565b610182565b61013e565b610122565b3461011e575f36600319011261011e5760206040517f00000000000000000000000000000000000000000000000000000000000000008152f35b5f80fd5b3461011e575f36600319011261011e5760206040516101008152f35b3461011e575f36600319011261011e576040517f00000000000000000000000000000000000000000000000000000000000000006001600160a01b03168152602090f35b3461011e575f36600319011261011e5760205f54604051908152f35b3461011e575f36600319011261011e5760035460081c60ff1661029d576101c36107d6565b6101cb610822565b6101e160ff19600354166003555f6001555f8055565b801561028e5760405163a9059cbb60e01b815233600482015260248101919091526020816044815f6001600160a01b037f0000000000000000000000000000000000000000000000000000000000000000165af1908115610289575f9161025a575b501561024b57005b63022e258160e11b5f5260045ffd5b61027c915060203d602011610282575b61027481836105ba565b8101906105e1565b5f610243565b503d61026a565b6105f9565b6353cd7f7960e01b5f5260045ffd5b632340e67360e21b5f5260045ffd5b3461011e575f36600319011261011e57602060ff60035460081c166040519015158152f35b3461011e575f36600319011261011e576040517f00000000000000000000000000000000000000000000000000000000000000006001600160a01b03168152602090f35b3461011e575f36600319011261011e576020600154604051908152f35b3461011e57604036600319011261011e576004356024357f00000000000000000000000000000000000000000000000000000000000000006001600160a01b031633036104875760035460ff1661047857811561046957801561045a5761039e826103a3935f55600255565b600155565b6103e460206103b760025460015490610647565b6040516323b872dd60e01b8152336004820152306024820152604481019190915291829081906064820190565b03815f7f00000000000000000000000000000000000000000000000000000000000000006001600160a01b03165af1908115610289575f9161043b575b501561024b57610439600160ff196003541617600355565b005b610454915060203d6020116102825761027481836105ba565b5f610421565b63932ca0a360e01b5f5260045ffd5b63ea1083a760e01b5f5260045ffd5b635adf638760e01b5f5260045ffd5b63618bbdd560e01b5f5260045ffd5b3461011e575f36600319011261011e576020600254604051908152f35b3461011e57608036600319011261011e5760043567ffffffffffffffff811161011e5760a0600319823603011261011e57602435604435916001600160a01b038316830361011e576064359267ffffffffffffffff841161011e573660238501121561011e5783600401359267ffffffffffffffff841161011e57366024858701011161011e576024610439950192600401610687565b3461011e575f36600319011261011e57602060ff600354166040519015158152f35b3461011e575f36600319011261011e5760206040517f00000000000000000000000000000000000000000000000000000000000000008152f35b634e487b7160e01b5f52604160045260245ffd5b90601f8019910116810190811067ffffffffffffffff8211176105dc57604052565b6105a6565b9081602091031261011e5751801515810361011e5790565b6040513d5f823e3d90fd5b634e487b7160e01b5f52601160045260245ffd5b906001820180921161062657565b610604565b906015820180921161062657565b600101908160011161062657565b9190820180921161062657565b903590601e198136030182121561011e570180359067ffffffffffffffff821161011e5760200191813603831361011e57565b9192939061069b60035460ff9060081c1690565b61029d576106b3906106ad8480610654565b906108b0565b6106c66106c08380610654565b90610985565b9361070461070060208501966106dc8887610654565b906106ea6040890189610654565b906106f860608b018b610654565b9490936109f5565b1590565b6107c7578461078d6107196107009786610654565b97906080870135987f0000000000000000000000000000000000000000000000000000000000000000918a7f0000000000000000000000000000000000000000000000000000000000000000927f000000000000000000000000000000000000000000000000000000000000000092610a79565b6107b8576107b6956107a56107ab926107b196610654565b90610c13565b84610e70565b610f97565b565b6364fa89e160e11b5f5260045ffd5b637b374dd160e01b5f5260045ffd5b60ff6003541615610813577f00000000000000000000000000000000000000000000000000000000000000006001600160a01b0316330361048757565b636af784dd60e11b5f5260045ffd5b60015460025481018091116106265790565b60011981019190821161062657565b5f1981019190821161062657565b9190820391821161062657565b67ffffffffffffffff81116105dc57601f01601f191660200190565b9291926108868261085e565b9161089460405193846105ba565b82948184528183011161011e578281602093845f960137010152565b906108c061070060035460ff1690565b61081357438311610948576101006108d88443610851565b11610939578240801561092a576108f036838561087a565b602081519101200361091b57610905916110e6565b0361090c57565b63048a12f560e11b5f5260045ffd5b63ff28378760e01b5f5260045ffd5b63bfc9f0d360e01b5f5260045ffd5b63c42a018560e01b5f5260045ffd5b63058968cf60e41b5f5260045ffd5b634e487b7160e01b5f52603260045260245ffd5b90156109745790565b610957565b90821015610974570190565b9061099081836111a2565b905f5b600581106109e05750600560fd1b906001600160f81b0319906109b890849086610979565b3516036109d15760018101811161062657016001013590565b633954003560e11b5f5260045ffd5b916109ee60019183866112d6565b9201610993565b610a0b610a1392939495610a199897369161087a565b92369161087a565b9061145e565b90565b60ff60f6199116019060ff821161062657565b60ff607f199116019060ff821161062657565b60ff60bf199116019060ff821161062657565b60ff60b6199116019060ff821161062657565b60ff166001019060ff821161062657565b9594939291905f818881151580610bf7575b610be9575b610ab9610ab3610aa58560c09560ff95610979565b356001600160f81b03191690565b60f81c90565b1610610bb357808860f860ff610ad7610ab3610aa588978887610979565b1610610bd957610b04610aff610afa610ab3610aa586610b1098610b0a97610979565b610a1c565b610a68565b60ff1690565b90610647565b81885f5b60038110610bc25750610b04610ab3610aa58560c095610b3395610979565b10610bb357808860f8610b51610b04610ab3610aa588978887610979565b10610ba257610b04610aff610afa610ab3610aa586610b7398610b0a97610979565b915b5f905b808210610b8b575050610a19959661160b565b9092610b9a600191848b6112d6565b930190610b78565b50610bad9150610618565b91610b75565b631bd5dcf760e31b5f5260045ffd5b92600192610bcf926112d6565b9101888391610b14565b50610be49150610618565b610b10565b506001915082905088610a90565b50608060ff610c0c610ab3610aa5868661096b565b1610610a8b565b915f82151580610e54575b610e4c575b60c060ff610c38610ab3610aa585888a610979565b1610610bb35760f860ff610c53610ab3610aa585888a610979565b1610610e3e5780610b0a610b04610aff610afa610ab3610aa5610c77978a8c610979565b5f5b60038110610e29575060c0610c98610b04610ab3610aa585888a610979565b10610bb35760f8610cb3610b04610ab3610aa585888a610979565b10610e1a5780610b0a610b04610aff610afa610ab3610aa5610cd6978a8c610979565b905b5f905b808210610e0357505060c0610cfa610b04610ab3610aa5858789610979565b10610bb35760f8610d15610b04610ab3610aa5858789610979565b10610df55780610b0a610b04610aff610afa610ab3610aa5610d3897898b610979565b609460ff610d4d610ab3610aa5858789610979565b1603610de657610d5c9061062b565b60c0610d72610b04610ab3610aa5858789610979565b10610bb3578282610dc68360f8610d9c610b04610ab3610aa5610dcc99610dcc9b610a199d610979565b10610dd85780610b0a610b04610aff610afa610ab3610aa5610dbf978a8c610979565b82846112d6565b916116cc565b6001600160a01b031690565b610de190610618565b610dbf565b63e6c4247b60e01b5f5260045ffd5b610dfe90610618565b610d38565b9091610e1260019185876112d6565b920190610cdb565b610e2390610618565b90610cd8565b90610e3760019185876112d6565b9101610c79565b610e4790610618565b610c77565b506001610c23565b50608060ff610e69610ab3610aa5878961096b565b1610610c1e565b610f7492610f6e9194929460405160208101917f87ae40aff7e7c4f7553e5328da929b50fa7f4fb802fe188b86d10b1a3ce9bc5d835260018060a01b037f00000000000000000000000000000000000000000000000000000000000000001660408301527f0000000000000000000000000000000000000000000000000000000000000000606083015260018060a01b0316608082015260808152610f1660a0826105ba565b519020604051602081019161190160f01b83527f00000000000000000000000000000000000000000000000000000000000000006022830152604282015260428152610f636062826105ba565b51902092369161087a565b90611d6b565b6001600160a01b03918216911603610f8857565b637bd6876f60e01b5f5260045ffd5b610f9f611708565b90610fbb61010061ffff1960035416176003555f6001555f8055565b4662aa36a70361105757604051633419e74d60e21b81526001600160a01b0390911660048201526024810191909152602081806044810103815f7f00000000000000000000000000000000000000000000000000000000000000006001600160a01b03165af1908115610289575f91611038575b505b1561024b57565b611051915060203d6020116102825761027481836105ba565b5f61102f565b60405163a9059cbb60e01b81526001600160a01b0390911660048201526024810191909152602081806044810103815f7f00000000000000000000000000000000000000000000000000000000000000006001600160a01b03165af1908115610289575f916110c7575b50611031565b6110e0915060203d6020116102825761027481836105ba565b5f6110c1565b6110f082826111a2565b915f5b6008811061118d575061110d610ab3610aa5858486610979565b925f9260ff851694608086105f1461112757505050505090565b6111389193949550610b0490610a2f565b915f935b83851061114b57505050505090565b909192939461115c60019160081b90565b611181610b04610ab3610aa561117a8b6111758b610618565b610647565b8789610979565b1795019392919061113c565b9261119b60019183856112d6565b93016110f3565b5f600360fe1b6001600160f81b03196111be610aa5868661096b565b161061129e57601f60fb1b6001600160f81b03196111df610aa5868661096b565b16106112cd5780610b0a610b04610aff610afa610ab3610aa5611203978a8a610979565b905b61a5bd461480156112c2575b61121c575b50905090565b5f5b600381106112ad5750600360fe1b61124a61123d610aa5858786610979565b6001600160f81b03191690565b1061129e57601f60fb1b61126561123d610aa5858786610979565b1061128e57610b04610aff610afa610ab3610aa58661128798610b0a97610979565b805f611216565b506112999150610618565b611287565b63c0098bd960e01b5f5260045ffd5b916112bb60019185846112d6565b920161121e565b5061a5bf4614611211565b50600190611205565b919080821015611431576112f1610ab3610aa5848487610979565b9060ff8216608081101561130c57505050610a199150610618565b91929160b8811015611334575050610a199250610b0461132e610b0a92610618565b92610a2f565b90929060c08110156113aa5750610b0461135091949394610a55565b915f935f915b84831061137157505050610a19929161117561117592610618565b90919461138060019160081b90565b6113a0610b04610ab3610aa56113998b6111758b610618565b8888610979565b1795019190611356565b90929060f811156113d05750610a199250610b046113ca610b0a92610618565b92610a42565b9291610b046113de91610a1c565b915f935f915b8483106113ff57505050610a19929161117561117592610618565b90919461140e60019160081b90565b611427610b04610ab3610aa56113998b6111758b610618565b17950191906113e4565b6318d76ae160e11b5f5260045ffd5b8051156109745760200190565b908151811015610974570160200190565b919390929190600360fe1b6001600160f81b031961147f610aa5868961096b565b16106115fc57601f60fb1b6001600160f81b03196114a0610aa5868961096b565b16106115f2576114c46114bf610b04610afa610ab3610aa5888b61096b565b610639565b9492905b945f5b8282106114dd57505050505050505f90565b6114fb6114f4836114ef36878a61087a565b61176d565b9093610647565b96825160208401200361159057600360fe1b61152a61123d61151c85611440565b516001600160f81b03191690565b10611590578590846001601f60fb1b61154861123d61151c88611440565b10156115d4575b6115598186611914565b6011810361159b575061156b94611a9f565b9491156115905784156115845793915b919590936114cb565b50505050505050600190565b505050505050505f90565b9093506002141590506115c8578487926115b494611959565b94911561159057841561158457939161157b565b50505050505050505f90565b506115ed6114bf610b04610afa610ab361151c89611440565b61154f565b60019492906114c8565b63ebb47d1d60e01b5f5260045ffd5b91949392948060c060ff611626610ab3610aa585888a610979565b1610610bb35760f860ff611641610ab3610aa585888a610979565b16106116bc575080610b0a610b04610aff610afa610ab3610aa561166697898b610979565b945b609460ff61167d610ab3610aa58a8789610979565b1603610de6576001600160a01b03168286016001013560601c036116ad576116a7610a199561062b565b91611bb4565b63a087f96f60e01b5f5260045ffd5b6116c69150610618565b94611668565b9190600560fd1b906001600160f81b0319906116ea90849086610979565b3516036116f957016001013590565b63f0ff325b60e01b5f5260045ffd5b5f5460015481018091116106265790565b6040805190919061172a83826105ba565b6001815291601f1901366020840137565b906117458261085e565b61175260405191826105ba565b8281528092611763601f199161085e565b0190602036910137565b805182101561143157611786610ab361151c848461144d565b9160ff831660808110156117bf5750505061179f611719565b9060f81b6001600160f81b0319165f1a6117b882611440565b5390600190565b919392909160b88110156118295750610b046117da91610a2f565b906117e48261173b565b935f5b8381106117fa57505050610a1990610639565b8061181661151c61181060019461117588610618565b8561144d565b5f1a611822828961144d565b53016117e7565b60c011156118c757610b0461183d91610a55565b5f915f5b82811061189957506118528361173b565b945f5b84811061186c5750505090611175610a1992610639565b8061188661151c611810600194611175896111758a610618565b5f1a611892828a61144d565b5301611855565b9260019060081b6118bf610b04610ab361151c6118b98961117589610618565b8b61144d565b179301611841565b50916118d38382611d81565b926118dd8461173b565b915f5b8581106118ee575050509190565b8061190161151c61181060019487610647565b5f1a61190d828761144d565b53016118e0565b5f92915b815181101561193f5761192b8183611d81565b810180911161062657600190930192611918565b5050565b908160011b918083046002149015171561062657565b83949291611967818361176d565b9390611986602061197d610ab361151c85611440565b16151591611eae565b97889115611a28575061199a905187610647565b6119a48251611943565b146119b9575b505050505050505f905f905f90565b86866001928251611a16575b5050506119d3575b806119aa565b6119e6926119e091610647565b9061176d565b5060208151910120906020815191012014611a0457808080806119cd565b611a0f915190610647565b6001915f90565b611a209350612017565b86865f6119c5565b611a39939495965061070092612017565b611a9257611a4a926119e091610647565b50908151602081145f14611a7257506020611a6a920151925b5190610647565b916001929190565b8015611a86576020611a6a93012092611a63565b505050505f905f905f90565b50505050505f905f905f90565b91909293611aad8251611943565b851015611b575750610ab361151c611acf92611ac98760011c90565b9061144d565b60018416611b4e5760041c600f16915b905f925b60ff81168410611b2e5750611af8925061176d565b5080518015611b2357611a6a9160208203611b195760209150015191610618565b6020012091610618565b5050505f905f905f90565b90916001611b4282610b0a60ff9487611d81565b94019392919050611ae3565b600f1691611adf565b9290509392935f915b60108310611b9a57611b72925061176d565b50602081519101209060208151910120145f14611b9157600191905f90565b5f915081908190565b90611bab81610b0a60019385611d81565b92019190611b60565b929190918160c060ff611bce610ab3610aa587898b610979565b1610610bb35760f860ff611be9610ab3610aa587898b610979565b1610611d5c5780610b0a610b04610aff610afa610ab3610aa5611c0d978b8d610979565b7fddf252ad1be2c89b69c2b068fc378daa952ba7f163c4a11628f55a4df523b3ef611c398286886116cc565b03611d4d57610dcc610dcc611c5c611c55611c6394888a6112d6565b87896112d6565b86886116cc565b6001600160a01b03918216911603611d3e57611c809082846112d6565b905f91611c94610ab3610aa5838588610979565b60ff811694906080861015611cc25750505050505b03611cb357600190565b6355e97b0d60e01b5f5260045ffd5b9091929394608081145f14611cdd575050505050505f611ca9565b60a010610bb357610b04611cf391939293610a2f565b915f935b838510611d08575050505050611ca9565b9091929394611d1960019160081b90565b611d32610b04610ab3610aa561117a8b6111758b610618565b17950193929190611cf7565b634cd4b7b160e01b5f5260045ffd5b6324da545d60e11b5f5260045ffd5b50611d6682610618565b611c0d565b610a1991611d78916120d5565b9092919261212d565b90815181101561143157611d9b610ab361151c838561144d565b9160ff83166080811015611db25750505050600190565b60b8811015611dcd57505050610b04610aff610a1992610a2f565b60c0811015611e39575091610b04611de491610a55565b905f925f915b838310611e015750505090611175610a1992610639565b909193611e1060019160081b90565b611e2f610b04610ab361151c611e298a61117589610618565b8861144d565b1794019190611dea565b60f81115611e52575050610b04610aff610a1992610a42565b91610b04611e5f91610a1c565b905f925f915b838310611e7c5750505090611175610a1992610639565b909193611e8b60019160081b90565b611ea4610b04610ab361151c611e298a61117589610618565b1794019190611e65565b908151156107b657611ec5610ab361151c84611440565b6010811615611f9457611ee8611ee3611ede8551611943565b610843565b61173b565b9060f81b600f60f81b165f1a611efd82611440565b5360015b8351811015611f8f5780611f3c611f2c611f23610ab361151c6001968a61144d565b60041c600f1690565b60f81b6001600160f81b03191690565b611f55611f4b611ede84611943565b915f1a918561144d565b53611f7c600f611f6b610ab361151c858a61144d565b1660f81b6001600160f81b03191690565b611f88611f4b83611943565b5301611f01565b509150565b50611faa611ee3611fa58451611943565b610834565b60015b8351811015611f8f5780611fcf611f2c611f23610ab361151c6001968a61144d565b611fe3611f4b611fde84610843565b611943565b53611ff9600f611f6b610ab361151c858a61144d565b612010611f4b61200b611fde85610843565b610618565b5301611fad565b919091612025825184610647565b61202f8251611943565b106120ce575f5b82518110156120c55761205261204c8286610647565b60011690565b6120a75761207b611f23610ab361151c61207561206f868a610647565b60011c90565b8661144d565b60ff612090610b04610ab361151c868961144d565b91160361209f57600101612036565b505050505f90565b600f6120bf610ab361151c61207561206f868a610647565b1661207b565b50505050600190565b5050505f90565b8151919060418303612105576120fe9250602082015190606060408401519301515f1a906121a9565b9192909190565b50505f9160029190565b6004111561211957565b634e487b7160e01b5f52602160045260245ffd5b6121368161210f565b8061213f575050565b6121488161210f565b6001810361215f5763f645eedf60e01b5f5260045ffd5b6121688161210f565b60028103612183575063fce698f760e01b5f5260045260245ffd5b8061218f60039261210f565b146121975750565b6335e2f38360e21b5f5260045260245ffd5b91907f7fffffffffffffffffffffffffffffff5d576e7357a4501ddfe92f46681b20a08411612220579160209360809260ff5f9560405194855216868401526040830152606082015282805260015afa15610289575f516001600160a01b0381161561221657905f905f90565b505f906001905f90565b5050505f916003919056fea2646970667358221220ece077278b7238a3d29cfbc49d7cca3709504be546745f822e831c967fe207fb64736f6c634300081e0033","linkReferences":{}},"methodIdentifiers":{"MAX_BLOCK_LOOKBACK()":"3d2691bc","cancelAndWithdraw()":"6b892b22","collect((bytes,bytes,bytes,bytes,uint256),uint256,address,bytes)":"ec6b8596","collected()":"84bcefd4","currentPaymentAmount()":"8bd03d0a","currentRewardAmount()":"5a4fd645","domainSeparator()":"f698da25","expectedAmount()":"2feef2ec","expectedRecipient()":"8677ab23","fund(uint256,uint256)":"a65e2cfd","funded()":"f3a504f2","originalRewardAmount()":"d415b3f9","tokenContract()":"55a373d6"},"id":21}