{"abi":[{"type":"constructor","inputs":[{"name":"_rewardAsset","type":"address","internalType":"address"},{"name":"_expectedTransfers","type":"tuple[]","internalType":"struct EscrowBatch.BatchTransfer[]","components":[{"name":"asset","type":"address","internalType":"address"},{"name":"recipient","type":"address","internalType":"address"},{"name":"amount","type":"uint256","internalType":"uint256"}]},{"name":"_currentRewardAmount","type":"uint256","internalType":"uint256"}],"stateMutability":"payable"},{"type":"function","name":"BID_DURATION","inputs":[],"outputs":[{"name":"","type":"uint256","internalType":"uint256"}],"stateMutability":"view"},{"type":"function","name":"MAX_BLOCK_LOOKBACK","inputs":[],"outputs":[{"name":"","type":"uint256","internalType":"uint256"}],"stateMutability":"view"},{"type":"function","name":"activeBidCount","inputs":[],"outputs":[{"name":"","type":"uint256","internalType":"uint256"}],"stateMutability":"view"},{"type":"function","name":"bid","inputs":[{"name":"transferIndexes","type":"uint256[]","internalType":"uint256[]"},{"name":"_bondAmount","type":"uint256","internalType":"uint256"}],"outputs":[],"stateMutability":"payable"},{"type":"function","name":"bidTransferCount","inputs":[{"name":"bidder","type":"address","internalType":"address"}],"outputs":[{"name":"","type":"uint256","internalType":"uint256"}],"stateMutability":"view"},{"type":"function","name":"bidTransferIndex","inputs":[{"name":"bidder","type":"address","internalType":"address"},{"name":"position","type":"uint256","internalType":"uint256"}],"outputs":[{"name":"","type":"uint256","internalType":"uint256"}],"stateMutability":"view"},{"type":"function","name":"bids","inputs":[{"name":"","type":"address","internalType":"address"}],"outputs":[{"name":"bondAmount","type":"uint256","internalType":"uint256"},{"name":"expiresAt","type":"uint256","internalType":"uint256"},{"name":"startBlock","type":"uint256","internalType":"uint256"}],"stateMutability":"view"},{"type":"function","name":"cancelAndWithdraw","inputs":[],"outputs":[],"stateMutability":"nonpayable"},{"type":"function","name":"cancellationRequest","inputs":[],"outputs":[{"name":"","type":"bool","internalType":"bool"}],"stateMutability":"view"},{"type":"function","name":"collect","inputs":[{"name":"proofs","type":"tuple[]","internalType":"struct EscrowBatch.BatchProof[]","components":[{"name":"receiptProof","type":"tuple","internalType":"struct EscrowBatch.BatchReceiptProof","components":[{"name":"blockHeader","type":"bytes","internalType":"bytes"},{"name":"receiptRlp","type":"bytes","internalType":"bytes"},{"name":"proofNodes","type":"bytes","internalType":"bytes"},{"name":"receiptPath","type":"bytes","internalType":"bytes"},{"name":"targetBlockNumber","type":"uint256","internalType":"uint256"}]},{"name":"transactionRlp","type":"bytes","internalType":"bytes"},{"name":"txProofNodes","type":"bytes","internalType":"bytes"},{"name":"transferIndexes","type":"uint256[]","internalType":"uint256[]"},{"name":"logIndexes","type":"uint256[]","internalType":"uint256[]"}]}],"outputs":[],"stateMutability":"nonpayable"},{"type":"function","name":"completedTransferCount","inputs":[],"outputs":[{"name":"","type":"uint256","internalType":"uint256"}],"stateMutability":"view"},{"type":"function","name":"currentAssetPaymentAmount","inputs":[{"name":"","type":"address","internalType":"address"}],"outputs":[{"name":"","type":"uint256","internalType":"uint256"}],"stateMutability":"view"},{"type":"function","name":"currentRewardAmount","inputs":[],"outputs":[{"name":"","type":"uint256","internalType":"uint256"}],"stateMutability":"view"},{"type":"function","name":"currentTransferAmount","inputs":[],"outputs":[{"name":"","type":"uint256","internalType":"uint256"}],"stateMutability":"view"},{"type":"function","name":"deployerAddress","inputs":[],"outputs":[{"name":"","type":"address","internalType":"address"}],"stateMutability":"view"},{"type":"function","name":"expectedTransferCount","inputs":[],"outputs":[{"name":"","type":"uint256","internalType":"uint256"}],"stateMutability":"view"},{"type":"function","name":"expectedTransfers","inputs":[{"name":"","type":"uint256","internalType":"uint256"}],"outputs":[{"name":"asset","type":"address","internalType":"address"},{"name":"recipient","type":"address","internalType":"address"},{"name":"amount","type":"uint256","internalType":"uint256"}],"stateMutability":"view"},{"type":"function","name":"fund","inputs":[{"name":"_currentRewardAmount","type":"uint256","internalType":"uint256"}],"outputs":[],"stateMutability":"payable"},{"type":"function","name":"funded","inputs":[],"outputs":[{"name":"","type":"bool","internalType":"bool"}],"stateMutability":"view"},{"type":"function","name":"hasBeenFunded","inputs":[],"outputs":[{"name":"","type":"bool","internalType":"bool"}],"stateMutability":"view"},{"type":"function","name":"is_bonded","inputs":[],"outputs":[{"name":"","type":"bool","internalType":"bool"}],"stateMutability":"view"},{"type":"function","name":"originalRewardAmount","inputs":[],"outputs":[{"name":"","type":"uint256","internalType":"uint256"}],"stateMutability":"view"},{"type":"function","name":"paymentAssetAt","inputs":[{"name":"index","type":"uint256","internalType":"uint256"}],"outputs":[{"name":"","type":"address","internalType":"address"}],"stateMutability":"view"},{"type":"function","name":"paymentAssetCount","inputs":[],"outputs":[{"name":"","type":"uint256","internalType":"uint256"}],"stateMutability":"view"},{"type":"function","name":"requestCancellation","inputs":[],"outputs":[],"stateMutability":"nonpayable"},{"type":"function","name":"resume","inputs":[],"outputs":[],"stateMutability":"nonpayable"},{"type":"function","name":"rewardAsset","inputs":[],"outputs":[{"name":"","type":"address","internalType":"address"}],"stateMutability":"view"},{"type":"function","name":"totalAssetPaymentAmount","inputs":[{"name":"","type":"address","internalType":"address"}],"outputs":[{"name":"","type":"uint256","internalType":"uint256"}],"stateMutability":"view"},{"type":"function","name":"totalTransferAmount","inputs":[],"outputs":[{"name":"","type":"uint256","internalType":"uint256"}],"stateMutability":"view"},{"type":"function","name":"transferBidder","inputs":[{"name":"","type":"uint256","internalType":"uint256"}],"outputs":[{"name":"","type":"address","internalType":"address"}],"stateMutability":"view"},{"type":"function","name":"transferCompleted","inputs":[{"name":"","type":"uint256","internalType":"uint256"}],"outputs":[{"name":"","type":"bool","internalType":"bool"}],"stateMutability":"view"},{"type":"error","name":"AlreadyFunded","inputs":[]},{"type":"error","name":"AmountMismatch","inputs":[]},{"type":"error","name":"BidActive","inputs":[]},{"type":"error","name":"BidderHasActiveBid","inputs":[]},{"type":"error","name":"BlockHashUnavailable","inputs":[]},{"type":"error","name":"BlockHeaderMismatch","inputs":[]},{"type":"error","name":"BlockNumberMismatch","inputs":[]},{"type":"error","name":"CancellationRequested","inputs":[]},{"type":"error","name":"DuplicateProofItem","inputs":[]},{"type":"error","name":"ETHTransferFailed","inputs":[]},{"type":"error","name":"EmptyBatch","inputs":[]},{"type":"error","name":"EmptyBid","inputs":[]},{"type":"error","name":"ExpectedBytes32","inputs":[]},{"type":"error","name":"ExpectedRLPList","inputs":[]},{"type":"error","name":"IncorrectNativeAmount","inputs":[]},{"type":"error","name":"InsufficientBond","inputs":[]},{"type":"error","name":"InvalidAddress","inputs":[]},{"type":"error","name":"InvalidRLP","inputs":[]},{"type":"error","name":"InvalidRLPEncoding","inputs":[]},{"type":"error","name":"InvalidRLPList","inputs":[]},{"type":"error","name":"InvalidTransferIndex","inputs":[]},{"type":"error","name":"MalformedProof","inputs":[]},{"type":"error","name":"NotFunded","inputs":[]},{"type":"error","name":"OnlyActiveBidder","inputs":[]},{"type":"error","name":"OnlyDeployer","inputs":[]},{"type":"error","name":"ProofBeforeBid","inputs":[]},{"type":"error","name":"ProofContentMismatch","inputs":[]},{"type":"error","name":"ProofVerificationFailed","inputs":[]},{"type":"error","name":"RLPOffsetOutOfBounds","inputs":[]},{"type":"error","name":"ReceiptStatusNotSuccess","inputs":[]},{"type":"error","name":"RecipientMismatch","inputs":[]},{"type":"error","name":"Reentrancy","inputs":[]},{"type":"error","name":"TargetBlockInFuture","inputs":[]},{"type":"error","name":"TargetBlockTooOld","inputs":[]},{"type":"error","name":"ToAddressMismatch","inputs":[]},{"type":"error","name":"TokenTransferFailed","inputs":[]},{"type":"error","name":"TransferStateConflict","inputs":[]},{"type":"error","name":"UnsupportedTxType","inputs":[]},{"type":"error","name":"WrongEventSignature","inputs":[]},{"type":"error","name":"WrongTokenContract","inputs":[]},{"type":"error","name":"ZeroAddress","inputs":[]},{"type":"error","name":"ZeroPaymentAmount","inputs":[]},{"type":"error","name":"ZeroRewardAmount","inputs":[]}],"bytecode":{"object":"0x60e080604052613f96803803809161001782856104d0565b83398101906060818303126104cc5761002f816104f3565b60208201519091906001600160401b0381116104cc57810183601f820112156104cc578051906001600160401b03821161021a576040519461007760208460051b01876104d0565b828652602060608188019402830101918183116104cc57602001925b82841061046f57868660408701519060016011558251156104605760a052336080525f915f5b815181101561024c5760208160051b8301015190602082019160018060a01b038351161561023d57604081019586511561022e5781516101329190610106906001600160a01b0316610540565b875160018060a01b038451165f52600a60205261012860405f20918254610507565b9055875190610507565b95600554906801000000000000000082101561021a5760018201806005558210156102065760055f52915160039091027f036b6384b5eca791c62761152d0c79bb0604c104a5fb6f4eb0703f3154bb3db0810180546001600160a01b03199081166001600160a01b039485161790915594517f036b6384b5eca791c62761152d0c79bb0604c104a5fb6f4eb0703f3154bb3db182018054909616921691909117909355517f036b6384b5eca791c62761152d0c79bb0604c104a5fb6f4eb0703f3154bb3db2909201919091556001016100b9565b634e487b7160e01b5f52603260045260245ffd5b634e487b7160e01b5f52604160045260245ffd5b63932ca0a360e01b5f5260045ffd5b63d92e233d60e01b5f5260045ffd5b60c0849052828015806104495761043a575f8052600a6020527f13da86008ba1c6922daee3e07db95305ef49ebced9f5467a0b8613fcc6b343e35460a05182906001600160a01b03161561042b575b50340361041c57805f558060025560c0516001555f6003556201010062ffff001960105416176010555f905f5b600d5481101561036a576102db81610528565b60018060a01b0391549060031b1c16805f52600a60205260405f2054815f52600b6020528060405f205560018060a01b0360a051168214610354575b811515918261033e575b505061032f576001016102c8565b63022e258160e11b5f5260045ffd5b61034c9250309033906105bc565b158480610321565b6103619194508390610507565b92600193610317565b50901580610408575b6103e3575b505b6040516138ff90816106978239608051818181610216015281816104e40152818161073001528181610b3d015261101d015260a0518181816102c60152818161057f01528181610bba01528181610f310152611a11015260c0518181816103cd0152610c040152f35b60a0516103fd9190309033906001600160a01b03166105bc565b1561032f5780610378565b5060a0516001600160a01b03161515610373565b6316fe52a960e21b5f5260045ffd5b61043491610507565b8161029b565b63ea1083a760e01b5f5260045ffd5b5050341561037a576316fe52a960e21b5f5260045ffd5b63c2e5347d60e01b5f5260045ffd5b6060848303126104cc576040519060608201906001600160401b0382118383101761021a576060926020926040526104a6876104f3565b81526104b38388016104f3565b8382015260408701516040820152815201930192610093565b5f80fd5b601f909101601f19168101906001600160401b0382119082101761021a57604052565b51906001600160a01b03821682036104cc57565b9190820180921161051457565b634e487b7160e01b5f52601160045260245ffd5b600d5481101561020657600d5f5260205f2001905f90565b6001600160a01b03165f818152600c602052604090205460ff166105b957805f52600c60205260405f20600160ff19825416179055600d546801000000000000000081101561021a578060016105999201600d55610528565b81546001600160a01b0360039290921b91821b191692901b919091179055565b50565b6040516323b872dd60e01b60208201526001600160a01b039283166024820152929091166044830152606480830193909352918152610605916106006084836104d0565b610608565b90565b803b1561069057815f92918360208194519301915af13d15610688573d906001600160401b03821161021a576040519161064c601f8201601f1916602001846104d0565b82523d5f602084013e5b15610680578051801561067957602011610674576020015160011490565b505f90565b5050600190565b602081519101fd5b606090610656565b50505f9056fe60806040526004361015610011575f80fd5b5f3560e01c8063046f7da21461020457806306b5c8f4146101ff5780630ac6702a146101fa5780632b422d2e146101f55780632eb9b55d146101f0578063308657d7146101eb5780633d2691bc146101e65780633dd4d94f146101e157806354794405146101dc5780635a4fd645146101d75780635e00606c146101d257806362ea82db146101cd5780636439034b146101c85780636b892b22146101c35780637d29f54c146101be57806381972d00146101b95780639090a0c7146101b4578063918fb48c146101af57806399ce000f146101aa578063b26ff637146101a5578063b3d584f6146101a0578063ba6a83441461019b578063ca1d209d14610196578063cb6cdf2f14610191578063cb766a561461018c578063d415b3f914610187578063d91eb61514610182578063eeaa4d0e1461017d578063efdee94f14610178578063f3a504f2146101735763f9492b6a1461016e575f80fd5b611071565b61104c565b611008565b610e70565b610e3e565b610e21565b610dfd565b610da3565b610b1d565b610ae5565b610ac8565b610aab565b610a50565b6107bb565b61076d565b61071e565b6106f9565b6104c3565b6104a7565b610458565b610429565b61040d565b6103f0565b6103b6565b61039a565b610378565b61032d565b6102f5565b6102b1565b610279565b3461025f575f36600319011261025f577f00000000000000000000000000000000000000000000000000000000000000006001600160a01b03163303610250576010805460ff19169055005b63618bbdd560e01b5f5260045ffd5b5f80fd5b600435906001600160a01b038216820361025f57565b3461025f57602036600319011261025f576001600160a01b0361029a610263565b165f52600a602052602060405f2054604051908152f35b3461025f575f36600319011261025f576040517f00000000000000000000000000000000000000000000000000000000000000006001600160a01b03168152602090f35b3461025f57602036600319011261025f576001600160a01b03610316610263565b165f526007602052602060405f2054604051908152f35b3461025f57604036600319011261025f57602061036961034b610263565b6001600160a01b03165f9081526007835260409020602435906110be565b90549060031b1c604051908152f35b3461025f575f36600319011261025f57602060ff601054166040519015158152f35b3461025f575f36600319011261025f5760206040516101008152f35b3461025f575f36600319011261025f5760206040517f00000000000000000000000000000000000000000000000000000000000000008152f35b3461025f575f36600319011261025f576020600354604051908152f35b3461025f575f36600319011261025f5760205f54604051908152f35b3461025f57602036600319011261025f576004355f52600f602052602060ff60405f2054166040519015158152f35b3461025f57602036600319011261025f576001600160a01b03610479610263565b165f526006602052606060405f20805490600260018201549101549060405192835260208301526040820152f35b3461025f575f36600319011261025f57602060405161012c8152f35b3461025f575f36600319011261025f576002601154146106ea5760026011557f00000000000000000000000000000000000000000000000000000000000000006001600160a01b03163303610250576010546105279060081c60ff161590565b1590565b6106db5761053d600160ff196010541617601055565b61054561134a565b6004546106cc575f5461055661110e565b6105608151611179565b9161057161ff001960105416601055565b5f805561057d5f600155565b7f0000000000000000000000000000000000000000000000000000000000000000916001600160a01b038316905f805b8251821015610646576105d06105c383856111ab565b516001600160a01b031690565b6001600160a01b0381165f818152600b6020526040902054919391908790871461062b575b50610623600193945f92610609858d6111ab565b526001600160a01b03165f908152600b6020526040902090565b5501906105ad565b6001935061063d610623915f93611211565b915050866105f5565b94925050915f5b83518110156106975780610663600192886111ab565b5161066f575b0161064d565b61069261067f6105c383886111ab565b610689838a6111ab565b519033906113ee565b610669565b508315806106c3575b6106b1575b6106af6001601155565b005b6106bc9133906113ee565b80806106a5565b508015156106a0565b631f19c31760e21b5f5260045ffd5b636af784dd60e11b5f5260045ffd5b63558a1e0360e11b5f5260045ffd5b3461025f575f36600319011261025f57602060ff60105460101c166040519015158152f35b3461025f575f36600319011261025f577f00000000000000000000000000000000000000000000000000000000000000006001600160a01b03163303610250576010805460ff19166001179055005b3461025f575f36600319011261025f576020600154604051908152f35b9181601f8401121561025f5782359167ffffffffffffffff831161025f576020808501948460051b01011161025f57565b3461025f57602036600319011261025f5760043567ffffffffffffffff811161025f576107ec90369060040161078a565b6002601154146106ea57600260115561080361134a565b335f9081526006602052604090209061082561052360105460ff9060081c1690565b6106db5760018201548015908115610a11575b50610a025780156109f357916005549261085184611179565b9361085b81611179565b925f935f935b80851061092857335f908152600760205260409020889088908881540361090e575f5b815481101561091d576108a461089a82846110be565b90549060031b1c90565b906108bb6105236108b584886111ab565b51151590565b61090e576109086108f8836108ea6108dd6001965f52600f60205260405f2090565b805460ff19166001179055565b5f52600e60205260405f2090565b80546001600160a01b0319169055565b01610884565b633bb4ac0360e21b5f5260045ffd5b6106a583543361188a565b9091929394610938868386611233565b60608101610946818361124d565b9050156109f35761095a610960918361124d565b90611283565b3591868310156109e457848a8a61099861098c61097e600198610a2f565b50546001600160a01b031690565b6001600160a01b031690565b6109c3576109b1926109b795926002869301549361176a565b506111d3565b955b0193929190610861565b6109d8926109de95926002869301549361153e565b90611211565b956109b9565b63981bbc4b60e01b5f5260045ffd5b630f4ea0ab60e41b5f5260045ffd5b6374b538d560e01b5f5260045ffd5b905042115f610838565b634e487b7160e01b5f52603260045260245ffd5b600554811015610a4b5760055f52600360205f20910201905f90565b610a1b565b3461025f57602036600319011261025f5760043560055481101561025f57610a7790610a2f565b5080546001820154600290920154604080516001600160a01b03938416815292909316602083015291810191909152606090f35b3461025f575f36600319011261025f576020600d54604051908152f35b3461025f575f36600319011261025f576020600554604051908152f35b3461025f57602036600319011261025f576001600160a01b03610b06610263565b165f52600b602052602060405f2054604051908152f35b602036600319011261025f576004356002601154146106ea5760026011557f00000000000000000000000000000000000000000000000000000000000000006001600160a01b031633036102505760105460ff8160081c168015610d96575b610d875760ff16610d78578015610d69575f8052600a6020527f13da86008ba1c6922daee3e07db95305ef49ebced9f5467a0b8613fcc6b343e354817f000000000000000000000000000000000000000000000000000000000000000060018060a01b0381169283159485610d5a575b503403610d4b57815f55610bff82600255565b610c287f0000000000000000000000000000000000000000000000000000000000000000600155565b610c315f600355565b610c476201000062ff0000196010541617601055565b610c5b61010061ff00196010541617601055565b5f935f5b600d54811015610d0d57610c8a610c758261108e565b905460039190911b1c6001600160a01b031690565b6001600160a01b0381165f818152600a6020908152604080832054600b90925290912081905590878114610cf9575b15159182610cdf575b5050610cd057600101610c5f565b63022e258160e11b5f5260045ffd5b610cf29250906105239130903390611c9c565b5f80610cc2565b975085610d0591611211565b600197610cb9565b5084159081610d42575b50610d26576106af6001601155565b610d37916105239130903390611c9c565b610cd05780806106a5565b90501583610d17565b6316fe52a960e21b5f5260045ffd5b610d6391611211565b82610bec565b63ea1083a760e01b5f5260045ffd5b632479328960e01b5f5260045ffd5b635adf638760e01b5f5260045ffd5b5060ff8160101c16610b7c565b3461025f57602036600319011261025f57600435600d54811015610a4b57600d5f527fd7b6990105719101dabeb77144f2a3385c8033acd3af97e9423a695e81ad1eb501546040516001600160a01b039091168152602090f35b3461025f575f36600319011261025f576020610e1761129c565b6040519015158152f35b3461025f575f36600319011261025f576020600254604051908152f35b3461025f57602036600319011261025f576004355f52600e602052602060018060a01b0360405f205416604051908152f35b604036600319011261025f5760043567ffffffffffffffff811161025f57610e9c90369060040161078a565b90602435916002601154146106ea576002601155610eb861134a565b610ec3838284611a7f565b610ede610ed8610ed38385611ad7565b611bc2565b60011c90565b8310610ff957610eed33611c20565b335f908152600660205260409020838155610f07426111e6565b6001820155600243910155610f25610f206004546111d3565b600455565b5f5b818110610f9957837f00000000000000000000000000000000000000000000000000000000000000006001600160a01b038116610f6f57503403610d4b576106af6001601155565b34610d4b57610f85916105239130903390611c9c565b156106a55763022e258160e11b5f5260045ffd5b80610ff3610faa600193858761128c565b35610fe033610fc1835f52600e60205260405f2090565b80546001600160a01b0319166001600160a01b03909216919091179055565b335f908152600760205260409020611316565b01610f27565b63e92c469f60e01b5f5260045ffd5b3461025f575f36600319011261025f576040517f00000000000000000000000000000000000000000000000000000000000000006001600160a01b03168152602090f35b3461025f575f36600319011261025f57602060ff60105460081c166040519015158152f35b3461025f575f36600319011261025f576020600454604051908152f35b600d54811015610a4b57600d5f5260205f2001905f90565b600954811015610a4b5760095f5260205f2001905f90565b8054821015610a4b575f5260205f2001905f90565b634e487b7160e01b5f52604160045260245ffd5b90601f8019910116810190811067ffffffffffffffff82111761110957604052565b6110d3565b60405190600d548083528260208101600d5f5260205f20925f5b81811061113f57505061113d925003836110e7565b565b84546001600160a01b0316835260019485019487945060209093019201611128565b67ffffffffffffffff81116111095760051b60200190565b9061118382611161565b61119060405191826110e7565b82815280926111a1601f1991611161565b0190602036910137565b8051821015610a4b5760209160051b010190565b634e487b7160e01b5f52601160045260245ffd5b90600182018092116111e157565b6111bf565b9061012c82018092116111e157565b90601582018092116111e157565b60010190816001116111e157565b919082018092116111e157565b903590609e198136030182121561025f570190565b90821015610a4b5761124a9160051b81019061121e565b90565b903590601e198136030182121561025f570180359067ffffffffffffffff821161025f57602001918160051b3603831361025f57565b9015610a4b5790565b9190811015610a4b5760051b0190565b6009545f5b81811015611310577f6e1540171b6c0c960b71a7020d9f60077f6af931a8bbf590da0223dacf75c7af8101546001600160a01b03165f908152600660205260409020600101548015159081611305575b506112fe576001016112a1565b5050600190565b90504211155f6112f1565b50505f90565b8054600160401b81101561110957611333916001820181556110be565b819291549060031b91821b915f19901b1916179055565b5f905b60095482101561139f5760095f527f6e1540171b6c0c960b71a7020d9f60077f6af931a8bbf590da0223dacf75c7af820154611391906001600160a01b0316611cde565b61134d57906001019061134d565b9050565b67ffffffffffffffff811161110957601f01601f191660200190565b3d156113e9573d906113d0826113a3565b916113de60405193846110e7565b82523d5f602084013e565b606090565b9091906001600160a01b03811661142857505f8080939281935af16114116113bf565b501561141957565b63b12d13eb60e01b5f5260045ffd5b4662aa36a70361148257604051633419e74d60e21b60208201526001600160a01b039093166024840152604483019190915261147b919061147682606481015b03601f1981018452836110e7565b6122eb565b15610cd057565b60405163a9059cbb60e01b60208201526001600160a01b03909316602484015260448301919091526114bc91906114768260648101611468565b61147b565b903590601e198136030182121561025f570180359067ffffffffffffffff821161025f5760200191813603831361025f57565b908060209392818452848401375f828201840152601f01601f1916010190565b94939291606092611539926001885260208801526080604088015260808701916114f4565b930152565b9294925f929160608201611552818461124d565b60808501979150611563888661124d565b919050036109f3575f955b611578838661124d565b90508710156116675761159f8461159989611593878a61124d565b9061128c565b35611d3f565b6115ae61098c61097e83610a2f565b156109f3578161165a61165461165f938a8f6116478f988f926116428f9460019c61162d8761161f61160d60806115e88461164d9d61121e565b0135956115936116056115fb868061121e565b60608101906114c1565b97909561124d565b35604051948593602085019788611514565b03601f1981018352826110e7565b519020809661163c8585611211565b90611d79565b611211565b8d6111ab565b52886111ab565b60019052565b6111d3565b96019561156e565b9450975093505093608061167b868061121e565b0135111561173e57611695611690858061121e565b611da4565b5f5b6116a1838661124d565b90508110156117365761171b6105236116c76116c184611593888b61124d565b35610a2f565b506116df6116d5898061121e565b60208101906114c1565b6116f0866115938b8d96959661124d565b82549035906001600160a01b031660018401549092906002906001600160a01b031694015494611e9a565b61172757600101611697565b631851102960e01b5f5260045ffd5b509392505050565b633e36ee4160e11b5f5260045ffd5b60609061124a94925f8252602082015281604082015201916114f4565b9194939060608301600161177e828661124d565b905014801590611849575b6109f3578161159961095a61179e938761124d565b956117a887610a2f565b5080549095906001600160a01b03166109f35761181692611654926118108a9360806117d48a8061121e565b01356117fc6117e66115fb8c8061121e565b919061161f60405193849260208401968761174d565b5190209261180b848383611d79565b6111ab565b526111ab565b6080611822838061121e565b0135111561173e57600182015461113d92906002906001600160a01b03169101549161202e565b50611857608085018561124d565b90501515611789565b5f198101919082116111e157565b6001198101919082116111e157565b919082039182116111e157565b6001600160a01b0381165f9081526007602052604090208054936118b085600354611211565b60055414916118c66118c1876111d3565b611179565b916118d36118c1886111d3565b945f975f955f5b855481101561195f5788999a6118f082886110be565b90546118ff9160031b1c610a2f565b5080549099906001600160a01b03169b60028d9b0154809d8194611923938d612125565b9b61192d91611211565b6001600160a01b039099165f908152600b60205260409020908154906119529161187d565b90556001019998996118da565b509298979093506119b16119ac6119b89397855f14611a7957600154905b8615611a6057506119a461199f6119965f548097611211565b98600354611211565b600355565b60015461187d565b600155565b5f5461187d565b5f556119c3846121ea565b611a3f575b80611a0a575b505f5b8481106119df575050505050565b80611a046119f26105c3600194866111ab565b856119fd84896111ab565b51916113ee565b016119d1565b611a3891947f0000000000000000000000000000000000000000000000000000000000000000908587612125565b925f6119ce565b611a4f61ff001960105416601055565b611a585f600155565b5f80556119c8565b61199f611996611a726119a493611bc2565b8097611211565b8061197d565b50601054600881901c60ff16156106db5760ff16610d785715611ac857335f90815260066020526040902060010154611ab95715610ff957565b63bc63b24b60e01b5f5260045ffd5b63eb5b17ff60e01b5f5260045ffd5b6005545f939291611ae782611179565b5f935b808510611af8575050505050565b9091929395611b0887838661128c565b35858110156109e457611b1e6108b582866111ab565b611b9d57611b3e611b37825f52600f60205260405f2090565b5460ff1690565b61090e57611b6761098c611b5a835f52600e60205260405f2090565b546001600160a01b031690565b61090e576001916002611b8983611b84611654611b92968a6111ab565b610a2f565b50015490611211565b960193929190611aea565b6319e33bcf60e11b5f5260045ffd5b908160011b91808304600214901517156111e157565b80158015611c17575b611c12576001549081811015611c0b575f548181029181830414901517156111e1578115611bf7570490565b634e487b7160e01b5f52601260045260245ffd5b50505f5490565b505f90565b505f5415611bcb565b6001600160a01b0381165f81815260086020526040902054909190611c985760095490600160401b82101561110957611c62826001611c8694016009556110a6565b81546001600160a01b0393841660039290921b91821b9390911b1916919091179055565b600954905f52600860205260405f2055565b5050565b6040516323b872dd60e01b60208201526001600160a01b039283166024820152929091166044830152606482019290925261124a916114768260848101611468565b6001600160a01b0381165f90815260066020526040902060018101548015908115611d34575b5061131057611d149054916121ea565b80611d20575b50600190565b5f549081018091116111e1575f555f611d1a565b90504211155f611d04565b906005548210156109e45781611d54916111ab565b51611b9d575f818152600e60205260409020546001600160a01b0316330361090e5790565b9190915f5b838110611d8b5750505050565b82611d9682846111ab565b5114611b9d57600101611d7e565b611e1b90611dc0611db582806114c1565b608084013591612366565b611e06611dd6611dd083806114c1565b906123fa565b91611e15611de760208301836114c1565b9190611e0d611df960408601866114c1565b96909560608101906114c1565b3691612330565b923691612330565b90612d79565b15611e2257565b631ac2386360e31b5f5260045ffd5b90821015610a4b570190565b60ff60f6199116019060ff82116111e157565b60ff60bf199116019060ff82116111e157565b60ff60b6199116019060ff82116111e157565b60ff607f199116019060ff82116111e157565b60ff166001019060ff82116111e157565b9594939291905f818881151580612012575b612004575b611eda611ed4611ec68560c09560ff95611e31565b356001600160f81b03191690565b60f81c90565b1610611fce57808860f860ff611ef8611ed4611ec688978887611e31565b1610611ff457611f25611f20611f1b611ed4611ec686611f2b986109d897611e31565b611e3d565b611e89565b60ff1690565b81885f5b60038110611fdd5750611f25611ed4611ec68560c095611f4e95611e31565b10611fce57808860f8611f6c611f25611ed4611ec688978887611e31565b10611fbd57611f25611f20611f1b611ed4611ec686611f8e986109d897611e31565b915b5f905b808210611fa657505061124a95966125ea565b9092611fb5600191848b612480565b930190611f93565b50611fc891506111d3565b91611f90565b631bd5dcf760e31b5f5260045ffd5b92600192611fea92612480565b9101888391611f2f565b50611fff91506111d3565b611f2b565b506001915082905088611eb1565b50608060ff612027611ed4611ec68686611283565b1610611eac565b9161205961204561203f858061121e565b806114c1565b6080612051878061121e565b013591612366565b61206f61206961203f858061121e565b906126ba565b916120a9610523602086019461208586886114c1565b9061209360408a018a6114c1565b906120a16115fb8c8061121e565b94909361246a565b611e22576120e86105236120c3611dd061203f888061121e565b6120d06116d5888061121e565b906120936120de8a8061121e565b60408101906114c1565b611e22576121056105236120ff6116d5878061121e565b9061278a565b611e22576121196105239361211f956114c1565b9061284b565b61172757565b9391925f5b848110612166575090839491612145856121579596946111ab565b6001600160a01b0390911690526111ab565b52600181018091116111e15790565b6001600160a01b0361217882886111ab565b51166001600160a01b038316146121915760010161212a565b828193949596506121a292506111ab565b519283018093116111e1576121b6916111ab565b5290565b8054905f8155816121c9575050565b5f5260205f20908101905b8181106121df575050565b5f81556001016121d4565b9060016122078360018060a01b03165f52600660205260405f2090565b01541561139f576001600160a01b0382165f908152600760205260409020915f5b835481101561228b578061224161089a600193876110be565b612256611b5a825f52600e60205260405f2090565b60a084901b849003858116911614612270575b5001612228565b6108f8612285915f52600e60205260405f2090565b5f612269565b506001600160a01b0381165f9081526007602052604090209192506122dd916122b3906121ba565b6001600160a01b0381165f9081526006602052604081208181556001810182905560020155612ab9565b61113d610f20600454611860565b803b1561131057815f92918360208194519301915af16123096113bf565b901561232857805180156112fe57602011611c12576020015160011490565b602081519101fd5b92919261233c826113a3565b9161234a60405193846110e7565b82948184528183011161025f578281602093845f960137010152565b904383116123eb5761010061237b844361187d565b116123dc57824080156123cd57612393368385612330565b60208151910120036123be576123a891612b86565b036123af57565b63048a12f560e11b5f5260045ffd5b63ff28378760e01b5f5260045ffd5b63bfc9f0d360e01b5f5260045ffd5b63c42a018560e01b5f5260045ffd5b63058968cf60e41b5f5260045ffd5b906124058183612c36565b905f5b600581106124555750600560fd1b906001600160f81b03199061242d90849086611e31565b351603612446576001810181116111e157016001013590565b633954003560e11b5f5260045ffd5b916124636001918386612480565b9201612408565b611e0d611e159293949561124a98973691612330565b9190808210156125db5761249b611ed4611ec6848487611e31565b9060ff821660808110156124b65750505061124a91506111d3565b91929160b88110156124de57505061124a9250611f256124d86109d8926111d3565b92611e76565b90929060c08110156125545750611f256124fa91949394611e63565b915f935f915b84831061251b5750505061124a9291611642611642926111d3565b90919461252a60019160081b90565b61254a611f25611ed4611ec66125438b6116428b6111d3565b8888611e31565b1795019190612500565b90929060f8111561257a575061124a9250611f256125746109d8926111d3565b92611e50565b9291611f2561258891611e3d565b915f935f915b8483106125a95750505061124a9291611642611642926111d3565b9091946125b860019160081b90565b6125d1611f25611ed4611ec66125438b6116428b6111d3565b179501919061258e565b6318d76ae160e11b5f5260045ffd5b91949392948060c060ff612605611ed4611ec685888a611e31565b1610611fce5760f860ff612620611ed4611ec685888a611e31565b16106126aa5750806109d8611f25611f20611f1b611ed4611ec661264597898b611e31565b945b609460ff61265c611ed4611ec68a8789611e31565b160361269b576001600160a01b03168286016001013560601c0361268c5761268661124a956111f5565b91612f26565b63a087f96f60e01b5f5260045ffd5b63e6c4247b60e01b5f5260045ffd5b6126b491506111d3565b94612647565b905f600360fe1b6001600160f81b03196126d7611ec68587611283565b161061277b57601f60fb1b6001600160f81b03196126f8611ec68587611283565b161061277257806109d8611f25611f20611f1b611ed4611ec661271c97898b611e31565b905b5f5b6004811061275d5750600560fd1b906001600160f81b03199061274990611ec690859087611e31565b160361244657612758906111d3565b013590565b9161276b6001918386612480565b9201612720565b5060019061271e565b63c0098bd960e01b5f5260045ffd5b5f908215158061282f575b612826575b60c060ff6127af611ed4611ec6868887611e31565b1610611fce57611ed4611ec682858560f860ff6127d9611ed4611ec6839b60019d6128039c611e31565b161061281d57806109d8611f25611f20611f1b611ed4611ec66127fd97898b611e31565b91611e31565b160361280e57600190565b63e9dd8a9d60e01b5f5260045ffd5b6127fd906111d3565b6001915061279a565b50608060ff612844611ed4611ec68786611283565b1610612795565b90916003905f84151580612a36575b6129ee575b60c060ff612874611ed4611ec6858a8a611e31565b1610611fce578060f860ff612893611ed4611ec66128b9968b8b611e31565b16106129e55760ff6128b2611f20611f1b611ed4611ec6868c8c611e31565b1690611211565b915f905b8082106129ce575050609460ff6128db611ed4611ec6868989611e31565b160361269b576001600160a01b03168282016001013560601c036129bf57612902906111f5565b91612914611ed4611ec6858486611e31565b925f9260ff851694608086105f146129455750505050505b0361293657600190565b6355e97b0d60e01b5f5260045ffd5b90919293946080145f1461295e5750505050505f61292c565b611f2561296d91939293611e76565b915f935b83851061298257505050505061292c565b909192939461299360019160081b90565b6129b3611f25611ed4611ec66129ac8b6116428b6111d3565b8789611e31565b17950193929190612971565b63c0ee95bb60e01b5f5260045ffd5b90926129dd6001918787612480565b9301906128bd565b60ff60016128b2565b509050612a01611ed4611ec68585611283565b6001919060ff16808303612a18575060049161285f565b600203612a275760059161285f565b636fc3daa360e11b5f5260045ffd5b50608060ff612a4b611ed4611ec68989611283565b161061285a565b6009548015612aa5575f19810190600954821015610a4b5760095f8190527f6e1540171b6c0c960b71a7020d9f60077f6af931a8bbf590da0223dacf75c7ae90910180546001600160a01b031916905555565b634e487b7160e01b5f52603160045260245ffd5b6001600160a01b0381165f908152600860205260409020548015611c98575f1981018181116111e157600954915f1983018381116111e157808303612b26575b50505050612b235f91612b0a612a52565b6001600160a01b03165f90815260086020526040902090565b55565b92809492931015610a4b57612b7d611c62612b0a612b2395612b757f6e1540171b6c0c960b71a7020d9f60077f6af931a8bbf590da0223dacf75c7ae5f9960098b52015460018060a01b031690565b9283916110a6565b55915f80612af9565b612b908282612c36565b915f5b60088110612c215750612bad611ed4611ec6858486611e31565b925f9260ff851694608086105f14612bc757505050505090565b612bd89193949550611f2590611e76565b915f935b838510612beb57505050505090565b9091929394612bfc60019160081b90565b612c15611f25611ed4611ec66129ac8b6116428b6111d3565b17950193929190612bdc565b92612c2f6001918385612480565b9301612b93565b5f600360fe1b6001600160f81b0319612c52611ec68686611283565b161061277b57601f60fb1b6001600160f81b0319612c73611ec68686611283565b1610612d5257806109d8611f25611f20611f1b611ed4611ec6612c97978a8a611e31565b905b61a5bd46148015612d47575b612cb0575b50905090565b5f5b60038110612d325750600360fe1b612cde612cd1611ec6858786611e31565b6001600160f81b03191690565b1061277b57601f60fb1b612cf9612cd1611ec6858786611e31565b10612d2257611f25611f20611f1b611ed4611ec686612d1b986109d897611e31565b805f612caa565b50612d2d91506111d3565b612d1b565b91612d406001918584612480565b9201612cb2565b5061a5bf4614612ca5565b50600190612c99565b805115610a4b5760200190565b908151811015610a4b570160200190565b919390929190600360fe1b6001600160f81b0319612d9a611ec68689611283565b1610612f1757601f60fb1b6001600160f81b0319612dbb611ec68689611283565b1610612f0d57612ddf612dda611f25611f1b611ed4611ec6888b611283565b611203565b9492905b945f5b828210612df857505050505050505f90565b612e16612e0f83612e0a36878a612330565b613117565b9093611211565b968251602084012003612eab57600360fe1b612e45612cd1612e3785612d5b565b516001600160f81b03191690565b10612eab578590846001601f60fb1b612e63612cd1612e3788612d5b565b1015612eef575b612e7481866132be565b60118103612eb65750612e869461342f565b949115612eab578415612e9f5793915b91959093612de6565b50505050505050600190565b505050505050505f90565b909350600214159050612ee357848792612ecf946132e9565b949115612eab578415612e9f579391612e96565b50505050505050505f90565b50612f08612dda611f25611f1b611ed4612e3789612d5b565b612e6a565b6001949290612de3565b63ebb47d1d60e01b5f5260045ffd5b929190918160c060ff612f40611ed4611ec687898b611e31565b1610611fce5760f860ff612f5b611ed4611ec687898b611e31565b16106130be57806109d8611f25611f20611f1b611ed4611ec6612f7f978b8d611e31565b7fddf252ad1be2c89b69c2b068fc378daa952ba7f163c4a11628f55a4df523b3ef612fab828688613544565b036130af5761098c61098c612fce612fc7612fd594888a612480565b8789612480565b8688613544565b6001600160a01b039182169116036130a057612ff2908284612480565b905f91613006611ed4611ec6838588611e31565b60ff8116949060808610156130245750505050500361293657600190565b9091929394608081145f1461303f575050505050505f61292c565b60a010611fce57611f2561305591939293611e76565b915f935b83851061306a57505050505061292c565b909192939461307b60019160081b90565b613094611f25611ed4611ec66129ac8b6116428b6111d3565b17950193929190613059565b634cd4b7b160e01b5f5260045ffd5b6324da545d60e11b5f5260045ffd5b506130c8826111d3565b612f7f565b604080519091906130de83826110e7565b6001815291601f1901366020840137565b906130f9826113a3565b61310660405191826110e7565b82815280926111a1601f19916113a3565b80518210156125db57613130611ed4612e378484612d68565b9160ff83166080811015613169575050506131496130cd565b9060f81b6001600160f81b0319165f1a61316282612d5b565b5390600190565b919392909160b88110156131d35750611f2561318491611e76565b9061318e826130ef565b935f5b8381106131a45750505061124a90611203565b806131c0612e376131ba600194611642886111d3565b85612d68565b5f1a6131cc8289612d68565b5301613191565b60c0111561327157611f256131e791611e63565b5f915f5b82811061324357506131fc836130ef565b945f5b848110613216575050509061164261124a92611203565b80613230612e376131ba600194611642896116428a6111d3565b5f1a61323c828a612d68565b53016131ff565b9260019060081b613269611f25611ed4612e3761326389611642896111d3565b8b612d68565b1793016131eb565b509161327d8382613580565b92613287846130ef565b915f5b858110613298575050509190565b806132ab612e376131ba60019487611211565b5f1a6132b78287612d68565b530161328a565b5f92915b8151811015611c98576132d58183613580565b81018091116111e1576001909301926132c2565b839492916132f78183613117565b9390613316602061330d611ed4612e3785612d5b565b161515916136ad565b978891156133b8575061332a905187611211565b6133348251611bac565b14613349575b505050505050505f905f905f90565b868660019282516133a6575b505050613363575b8061333a565b6133769261337091611211565b90613117565b5060208151910120906020815191012014613394578080808061335d565b61339f915190611211565b6001915f90565b6133b09350613811565b86865f613355565b6133c9939495965061052392613811565b613422576133da9261337091611211565b50908151602081145f14613402575060206133fa920151925b5190611211565b916001929190565b80156134165760206133fa930120926133f3565b505050505f905f905f90565b50505050505f905f905f90565b9190929361343d8251611bac565b8510156134e75750611ed4612e3761345f926134598760011c90565b90612d68565b600184166134de5760041c600f16915b905f925b60ff811684106134be57506134889250613117565b50805180156134b3576133fa91602082036134a957602091500151916111d3565b60200120916111d3565b5050505f905f905f90565b909160016134d2826109d860ff9487613580565b94019392919050613473565b600f169161346f565b9290509392935f915b6010831061352a576135029250613117565b50602081519101209060208151910120145f1461352157600191905f90565b5f915081908190565b9061353b816109d860019385613580565b920191906134f0565b9190600560fd1b906001600160f81b03199061356290849086611e31565b35160361357157016001013590565b63f0ff325b60e01b5f5260045ffd5b9081518110156125db5761359a611ed4612e378385612d68565b9160ff831660808110156135b15750505050600190565b60b88110156135cc57505050611f25611f2061124a92611e76565b60c0811015613638575091611f256135e391611e63565b905f925f915b838310613600575050509061164261124a92611203565b90919361360f60019160081b90565b61362e611f25611ed4612e376136288a611642896111d3565b88612d68565b17940191906135e9565b60f81115613651575050611f25611f2061124a92611e50565b91611f2561365e91611e3d565b905f925f915b83831061367b575050509061164261124a92611203565b90919361368a60019160081b90565b6136a3611f25611ed4612e376136288a611642896111d3565b1794019190613664565b9081511561113d576136c4611ed4612e3784612d5b565b6010811615613793576136e76136e26136dd8551611bac565b611860565b6130ef565b9060f81b600f60f81b165f1a6136fc82612d5b565b5360015b835181101561378e578061373b61372b613722611ed4612e376001968a612d68565b60041c600f1690565b60f81b6001600160f81b03191690565b61375461374a6136dd84611bac565b915f1a9185612d68565b5361377b600f61376a611ed4612e37858a612d68565b1660f81b6001600160f81b03191690565b61378761374a83611bac565b5301613700565b509150565b506137a96136e26137a48451611bac565b61186e565b60015b835181101561378e57806137ce61372b613722611ed4612e376001968a612d68565b6137e261374a6137dd84611860565b611bac565b536137f8600f61376a611ed4612e37858a612d68565b61380a61374a61165a6137dd85611860565b53016137ac565b91909161381f825184611211565b6138298251611bac565b106138c2575f5b82518110156138b95761384c6138468286611211565b60011690565b61389b5761386f613722611ed4612e37613869610ed8868a611211565b86612d68565b60ff613884611f25611ed4612e378689612d68565b91160361389357600101613830565b505050505f90565b600f6138b3611ed4612e37613869610ed8868a611211565b1661386f565b50505050600190565b5050505f9056fea26469706673582212209483216a493debf6912ea7e08773e09cb0727a1d03459330329b08753ca894b364736f6c634300081e0033","linkReferences":{}},"methodIdentifiers":{"BID_DURATION()":"6439034b","MAX_BLOCK_LOOKBACK()":"3d2691bc","activeBidCount()":"f9492b6a","bid(uint256[],uint256)":"eeaa4d0e","bidTransferCount(address)":"2b422d2e","bidTransferIndex(address,uint256)":"2eb9b55d","bids(address)":"62ea82db","cancelAndWithdraw()":"6b892b22","cancellationRequest()":"308657d7","collect(((bytes,bytes,bytes,bytes,uint256),bytes,bytes,uint256[],uint256[])[])":"918fb48c","completedTransferCount()":"54794405","currentAssetPaymentAmount(address)":"ba6a8344","currentRewardAmount()":"5a4fd645","currentTransferAmount()":"9090a0c7","deployerAddress()":"efdee94f","expectedTransferCount()":"b3d584f6","expectedTransfers(uint256)":"99ce000f","fund(uint256)":"ca1d209d","funded()":"f3a504f2","hasBeenFunded()":"7d29f54c","is_bonded()":"cb766a56","originalRewardAmount()":"d415b3f9","paymentAssetAt(uint256)":"cb6cdf2f","paymentAssetCount()":"b26ff637","requestCancellation()":"81972d00","resume()":"046f7da2","rewardAsset()":"0ac6702a","totalAssetPaymentAmount(address)":"06b5c8f4","totalTransferAmount()":"3dd4d94f","transferBidder(uint256)":"d91eb615","transferCompleted(uint256)":"5e00606c"},"storageLayout":{"storage":[{"astId":40794,"contract":"src/EscrowBatch.sol:EscrowBatch","label":"currentRewardAmount","offset":0,"slot":"0","type":"t_uint256"},{"astId":40796,"contract":"src/EscrowBatch.sol:EscrowBatch","label":"currentTransferAmount","offset":0,"slot":"1","type":"t_uint256"},{"astId":40798,"contract":"src/EscrowBatch.sol:EscrowBatch","label":"originalRewardAmount","offset":0,"slot":"2","type":"t_uint256"},{"astId":40800,"contract":"src/EscrowBatch.sol:EscrowBatch","label":"completedTransferCount","offset":0,"slot":"3","type":"t_uint256"},{"astId":40802,"contract":"src/EscrowBatch.sol:EscrowBatch","label":"activeBidCount","offset":0,"slot":"4","type":"t_uint256"},{"astId":40818,"contract":"src/EscrowBatch.sol:EscrowBatch","label":"expectedTransfers","offset":0,"slot":"5","type":"t_array(t_struct(BatchTransfer)40694_storage)dyn_storage"},{"astId":40823,"contract":"src/EscrowBatch.sol:EscrowBatch","label":"bids","offset":0,"slot":"6","type":"t_mapping(t_address,t_struct(Bid)40728_storage)"},{"astId":40828,"contract":"src/EscrowBatch.sol:EscrowBatch","label":"bidTransferIndexes","offset":0,"slot":"7","type":"t_mapping(t_address,t_array(t_uint256)dyn_storage)"},{"astId":40832,"contract":"src/EscrowBatch.sol:EscrowBatch","label":"bidderPositions","offset":0,"slot":"8","type":"t_mapping(t_address,t_uint256)"},{"astId":40835,"contract":"src/EscrowBatch.sol:EscrowBatch","label":"bidders","offset":0,"slot":"9","type":"t_array(t_address)dyn_storage"},{"astId":40839,"contract":"src/EscrowBatch.sol:EscrowBatch","label":"totalAssetPaymentAmount","offset":0,"slot":"10","type":"t_mapping(t_address,t_uint256)"},{"astId":40843,"contract":"src/EscrowBatch.sol:EscrowBatch","label":"currentAssetPaymentAmount","offset":0,"slot":"11","type":"t_mapping(t_address,t_uint256)"},{"astId":40847,"contract":"src/EscrowBatch.sol:EscrowBatch","label":"knownPaymentAsset","offset":0,"slot":"12","type":"t_mapping(t_address,t_bool)"},{"astId":40850,"contract":"src/EscrowBatch.sol:EscrowBatch","label":"paymentAssets","offset":0,"slot":"13","type":"t_array(t_address)dyn_storage"},{"astId":40854,"contract":"src/EscrowBatch.sol:EscrowBatch","label":"transferBidder","offset":0,"slot":"14","type":"t_mapping(t_uint256,t_address)"},{"astId":40858,"contract":"src/EscrowBatch.sol:EscrowBatch","label":"transferCompleted","offset":0,"slot":"15","type":"t_mapping(t_uint256,t_bool)"},{"astId":40860,"contract":"src/EscrowBatch.sol:EscrowBatch","label":"cancellationRequest","offset":0,"slot":"16","type":"t_bool"},{"astId":40862,"contract":"src/EscrowBatch.sol:EscrowBatch","label":"funded","offset":1,"slot":"16","type":"t_bool"},{"astId":40864,"contract":"src/EscrowBatch.sol:EscrowBatch","label":"hasBeenFunded","offset":2,"slot":"16","type":"t_bool"},{"astId":40867,"contract":"src/EscrowBatch.sol:EscrowBatch","label":"reentrancyStatus","offset":0,"slot":"17","type":"t_uint256"}],"types":{"t_address":{"encoding":"inplace","label":"address","numberOfBytes":"20"},"t_array(t_address)dyn_storage":{"encoding":"dynamic_array","label":"address[]","numberOfBytes":"32","base":"t_address"},"t_array(t_struct(BatchTransfer)40694_storage)dyn_storage":{"encoding":"dynamic_array","label":"struct EscrowBatch.BatchTransfer[]","numberOfBytes":"32","base":"t_struct(BatchTransfer)40694_storage"},"t_array(t_uint256)dyn_storage":{"encoding":"dynamic_array","label":"uint256[]","numberOfBytes":"32","base":"t_uint256"},"t_bool":{"encoding":"inplace","label":"bool","numberOfBytes":"1"},"t_mapping(t_address,t_array(t_uint256)dyn_storage)":{"encoding":"mapping","key":"t_address","label":"mapping(address => uint256[])","numberOfBytes":"32","value":"t_array(t_uint256)dyn_storage"},"t_mapping(t_address,t_bool)":{"encoding":"mapping","key":"t_address","label":"mapping(address => bool)","numberOfBytes":"32","value":"t_bool"},"t_mapping(t_address,t_struct(Bid)40728_storage)":{"encoding":"mapping","key":"t_address","label":"mapping(address => struct EscrowBatch.Bid)","numberOfBytes":"32","value":"t_struct(Bid)40728_storage"},"t_mapping(t_address,t_uint256)":{"encoding":"mapping","key":"t_address","label":"mapping(address => uint256)","numberOfBytes":"32","value":"t_uint256"},"t_mapping(t_uint256,t_address)":{"encoding":"mapping","key":"t_uint256","label":"mapping(uint256 => address)","numberOfBytes":"32","value":"t_address"},"t_mapping(t_uint256,t_bool)":{"encoding":"mapping","key":"t_uint256","label":"mapping(uint256 => bool)","numberOfBytes":"32","value":"t_bool"},"t_struct(BatchTransfer)40694_storage":{"encoding":"inplace","label":"struct EscrowBatch.BatchTransfer","numberOfBytes":"96","members":[{"astId":40689,"contract":"src/EscrowBatch.sol:EscrowBatch","label":"asset","offset":0,"slot":"0","type":"t_address"},{"astId":40691,"contract":"src/EscrowBatch.sol:EscrowBatch","label":"recipient","offset":0,"slot":"1","type":"t_address"},{"astId":40693,"contract":"src/EscrowBatch.sol:EscrowBatch","label":"amount","offset":0,"slot":"2","type":"t_uint256"}]},"t_struct(Bid)40728_storage":{"encoding":"inplace","label":"struct EscrowBatch.Bid","numberOfBytes":"96","members":[{"astId":40723,"contract":"src/EscrowBatch.sol:EscrowBatch","label":"bondAmount","offset":0,"slot":"0","type":"t_uint256"},{"astId":40725,"contract":"src/EscrowBatch.sol:EscrowBatch","label":"expiresAt","offset":0,"slot":"1","type":"t_uint256"},{"astId":40727,"contract":"src/EscrowBatch.sol:EscrowBatch","label":"startBlock","offset":0,"slot":"2","type":"t_uint256"}]},"t_uint256":{"encoding":"inplace","label":"uint256","numberOfBytes":"32"}}},"id":21}