{"abi":[{"type":"constructor","inputs":[{"name":"_rewardAsset","type":"address","internalType":"address"},{"name":"_expectedTransfers","type":"tuple[]","internalType":"struct EscrowBatch.BatchTransfer[]","components":[{"name":"asset","type":"address","internalType":"address"},{"name":"recipient","type":"address","internalType":"address"},{"name":"amount","type":"uint256","internalType":"uint256"}]},{"name":"_currentRewardAmount","type":"uint256","internalType":"uint256"}],"stateMutability":"payable"},{"type":"function","name":"BID_DURATION","inputs":[],"outputs":[{"name":"","type":"uint256","internalType":"uint256"}],"stateMutability":"view"},{"type":"function","name":"MAX_BLOCK_LOOKBACK","inputs":[],"outputs":[{"name":"","type":"uint256","internalType":"uint256"}],"stateMutability":"view"},{"type":"function","name":"activeBidCount","inputs":[],"outputs":[{"name":"","type":"uint256","internalType":"uint256"}],"stateMutability":"view"},{"type":"function","name":"bid","inputs":[{"name":"transferIndexes","type":"uint256[]","internalType":"uint256[]"},{"name":"_bondAmount","type":"uint256","internalType":"uint256"}],"outputs":[],"stateMutability":"payable"},{"type":"function","name":"bidTransferCount","inputs":[{"name":"bidder","type":"address","internalType":"address"}],"outputs":[{"name":"","type":"uint256","internalType":"uint256"}],"stateMutability":"view"},{"type":"function","name":"bidTransferIndex","inputs":[{"name":"bidder","type":"address","internalType":"address"},{"name":"position","type":"uint256","internalType":"uint256"}],"outputs":[{"name":"","type":"uint256","internalType":"uint256"}],"stateMutability":"view"},{"type":"function","name":"bids","inputs":[{"name":"","type":"address","internalType":"address"}],"outputs":[{"name":"bondAmount","type":"uint256","internalType":"uint256"},{"name":"expiresAt","type":"uint256","internalType":"uint256"},{"name":"startBlock","type":"uint256","internalType":"uint256"}],"stateMutability":"view"},{"type":"function","name":"cancelAndWithdraw","inputs":[],"outputs":[],"stateMutability":"nonpayable"},{"type":"function","name":"cancellationRequest","inputs":[],"outputs":[{"name":"","type":"bool","internalType":"bool"}],"stateMutability":"view"},{"type":"function","name":"collect","inputs":[{"name":"proofs","type":"tuple[]","internalType":"struct EscrowBatch.BatchProof[]","components":[{"name":"receiptProof","type":"tuple","internalType":"struct EscrowBatch.BatchReceiptProof","components":[{"name":"blockHeader","type":"bytes","internalType":"bytes"},{"name":"receiptRlp","type":"bytes","internalType":"bytes"},{"name":"proofNodes","type":"bytes","internalType":"bytes"},{"name":"receiptPath","type":"bytes","internalType":"bytes"},{"name":"targetBlockNumber","type":"uint256","internalType":"uint256"}]},{"name":"transactionRlp","type":"bytes","internalType":"bytes"},{"name":"txProofNodes","type":"bytes","internalType":"bytes"},{"name":"transferIndexes","type":"uint256[]","internalType":"uint256[]"},{"name":"logIndexes","type":"uint256[]","internalType":"uint256[]"}]}],"outputs":[],"stateMutability":"nonpayable"},{"type":"function","name":"completedTransferCount","inputs":[],"outputs":[{"name":"","type":"uint256","internalType":"uint256"}],"stateMutability":"view"},{"type":"function","name":"currentAssetPaymentAmount","inputs":[{"name":"","type":"address","internalType":"address"}],"outputs":[{"name":"","type":"uint256","internalType":"uint256"}],"stateMutability":"view"},{"type":"function","name":"currentRewardAmount","inputs":[],"outputs":[{"name":"","type":"uint256","internalType":"uint256"}],"stateMutability":"view"},{"type":"function","name":"currentTransferAmount","inputs":[],"outputs":[{"name":"","type":"uint256","internalType":"uint256"}],"stateMutability":"view"},{"type":"function","name":"deployerAddress","inputs":[],"outputs":[{"name":"","type":"address","internalType":"address"}],"stateMutability":"view"},{"type":"function","name":"expectedTransferCount","inputs":[],"outputs":[{"name":"","type":"uint256","internalType":"uint256"}],"stateMutability":"view"},{"type":"function","name":"expectedTransfers","inputs":[{"name":"","type":"uint256","internalType":"uint256"}],"outputs":[{"name":"asset","type":"address","internalType":"address"},{"name":"recipient","type":"address","internalType":"address"},{"name":"amount","type":"uint256","internalType":"uint256"}],"stateMutability":"view"},{"type":"function","name":"fund","inputs":[{"name":"_currentRewardAmount","type":"uint256","internalType":"uint256"}],"outputs":[],"stateMutability":"payable"},{"type":"function","name":"funded","inputs":[],"outputs":[{"name":"","type":"bool","internalType":"bool"}],"stateMutability":"view"},{"type":"function","name":"hasBeenFunded","inputs":[],"outputs":[{"name":"","type":"bool","internalType":"bool"}],"stateMutability":"view"},{"type":"function","name":"is_bonded","inputs":[],"outputs":[{"name":"","type":"bool","internalType":"bool"}],"stateMutability":"view"},{"type":"function","name":"originalRewardAmount","inputs":[],"outputs":[{"name":"","type":"uint256","internalType":"uint256"}],"stateMutability":"view"},{"type":"function","name":"paymentAssetAt","inputs":[{"name":"index","type":"uint256","internalType":"uint256"}],"outputs":[{"name":"","type":"address","internalType":"address"}],"stateMutability":"view"},{"type":"function","name":"paymentAssetCount","inputs":[],"outputs":[{"name":"","type":"uint256","internalType":"uint256"}],"stateMutability":"view"},{"type":"function","name":"requestCancellation","inputs":[],"outputs":[],"stateMutability":"nonpayable"},{"type":"function","name":"resume","inputs":[],"outputs":[],"stateMutability":"nonpayable"},{"type":"function","name":"rewardAsset","inputs":[],"outputs":[{"name":"","type":"address","internalType":"address"}],"stateMutability":"view"},{"type":"function","name":"totalAssetPaymentAmount","inputs":[{"name":"","type":"address","internalType":"address"}],"outputs":[{"name":"","type":"uint256","internalType":"uint256"}],"stateMutability":"view"},{"type":"function","name":"totalTransferAmount","inputs":[],"outputs":[{"name":"","type":"uint256","internalType":"uint256"}],"stateMutability":"view"},{"type":"function","name":"transferBidder","inputs":[{"name":"","type":"uint256","internalType":"uint256"}],"outputs":[{"name":"","type":"address","internalType":"address"}],"stateMutability":"view"},{"type":"function","name":"transferCompleted","inputs":[{"name":"","type":"uint256","internalType":"uint256"}],"outputs":[{"name":"","type":"bool","internalType":"bool"}],"stateMutability":"view"},{"type":"error","name":"AlreadyFunded","inputs":[]},{"type":"error","name":"AmountMismatch","inputs":[]},{"type":"error","name":"BidActive","inputs":[]},{"type":"error","name":"BidderHasActiveBid","inputs":[]},{"type":"error","name":"BlockHashUnavailable","inputs":[]},{"type":"error","name":"BlockHeaderMismatch","inputs":[]},{"type":"error","name":"BlockNumberMismatch","inputs":[]},{"type":"error","name":"CancellationRequested","inputs":[]},{"type":"error","name":"DuplicateProofItem","inputs":[]},{"type":"error","name":"ETHTransferFailed","inputs":[]},{"type":"error","name":"EmptyBatch","inputs":[]},{"type":"error","name":"EmptyBid","inputs":[]},{"type":"error","name":"ExpectedBytes32","inputs":[]},{"type":"error","name":"ExpectedRLPList","inputs":[]},{"type":"error","name":"IncorrectNativeAmount","inputs":[]},{"type":"error","name":"InsufficientBond","inputs":[]},{"type":"error","name":"InvalidAddress","inputs":[]},{"type":"error","name":"InvalidRLP","inputs":[]},{"type":"error","name":"InvalidRLPEncoding","inputs":[]},{"type":"error","name":"InvalidRLPList","inputs":[]},{"type":"error","name":"InvalidTransferIndex","inputs":[]},{"type":"error","name":"MalformedProof","inputs":[]},{"type":"error","name":"NotFunded","inputs":[]},{"type":"error","name":"OnlyActiveBidder","inputs":[]},{"type":"error","name":"OnlyDeployer","inputs":[]},{"type":"error","name":"ProofBeforeBid","inputs":[]},{"type":"error","name":"ProofContentMismatch","inputs":[]},{"type":"error","name":"ProofVerificationFailed","inputs":[]},{"type":"error","name":"RLPOffsetOutOfBounds","inputs":[]},{"type":"error","name":"ReceiptStatusNotSuccess","inputs":[]},{"type":"error","name":"RecipientMismatch","inputs":[]},{"type":"error","name":"Reentrancy","inputs":[]},{"type":"error","name":"SafeERC20FailedOperation","inputs":[{"name":"token","type":"address","internalType":"address"}]},{"type":"error","name":"TargetBlockInFuture","inputs":[]},{"type":"error","name":"TargetBlockTooOld","inputs":[]},{"type":"error","name":"ToAddressMismatch","inputs":[]},{"type":"error","name":"TransferStateConflict","inputs":[]},{"type":"error","name":"UnsupportedTxType","inputs":[]},{"type":"error","name":"WrongEventSignature","inputs":[]},{"type":"error","name":"WrongTokenContract","inputs":[]},{"type":"error","name":"ZeroAddress","inputs":[]},{"type":"error","name":"ZeroPaymentAmount","inputs":[]},{"type":"error","name":"ZeroRewardAmount","inputs":[]}],"bytecode":{"object":"0x60e0604052613ebe80380380610014816104b0565b9283398101906060818303126104ac5761002d816104d5565b60208201519091906001600160401b0381116104ac57810183601f820112156104ac578051906001600160401b0382116102145761007060208360051b016104b0565b94602060608188868152019402830101918183116104ac57602001925b82841061044f57868660408701519060016011558251156104405760a052336080525f915f5b81518110156102465760208160051b8301015190602082019160018060a01b038351161561023757604081019586511561022857815161012c9190610100906001600160a01b0316610522565b875160018060a01b038451165f52600a60205261012260405f209182546104e9565b90558751906104e9565b9560055490680100000000000000008210156102145760018201806005558210156102005760055f52915160039091027f036b6384b5eca791c62761152d0c79bb0604c104a5fb6f4eb0703f3154bb3db0810180546001600160a01b03199081166001600160a01b039485161790915594517f036b6384b5eca791c62761152d0c79bb0604c104a5fb6f4eb0703f3154bb3db182018054909616921691909117909355517f036b6384b5eca791c62761152d0c79bb0604c104a5fb6f4eb0703f3154bb3db2909201919091556001016100b3565b634e487b7160e01b5f52603260045260245ffd5b634e487b7160e01b5f52604160045260245ffd5b63932ca0a360e01b5f5260045ffd5b63d92e233d60e01b5f5260045ffd5b60c0849052828015806104295761041a575f8052600a6020527f13da86008ba1c6922daee3e07db95305ef49ebced9f5467a0b8613fcc6b343e35460a05182906001600160a01b03161561040b575b5034036103fc57805f558060025560c0516001555f6003556201010062ffff001960105416176010555f5f905b600d5482101561034f576102d58261050a565b60018060a01b0391549060031b1c1691825f52600a60205260405f2054835f52600b6020528060405f20558460018060a01b0360a05116851461033c575b50926001929381610328575b505001906102c2565b610335913090339061059e565b848061031f565b60019350610349916104e9565b84610313565b905015806103e8575b6103c8575b505b60405161388d90816106318239608051818181610216015281816104e40152818161073001528181610b390152610fea015260a0518181816102c60152818161057f01528181610bb501528181610f1001526119bd015260c0518181816103cd0152610c000152f35b60a0516103e29190309033906001600160a01b031661059e565b8061035d565b5060a0516001600160a01b03161515610358565b6316fe52a960e21b5f5260045ffd5b610414916104e9565b81610295565b63ea1083a760e01b5f5260045ffd5b5050341561035f576316fe52a960e21b5f5260045ffd5b63c2e5347d60e01b5f5260045ffd5b6060848303126104ac576040519060608201906001600160401b0382118383101761021457606092602092604052610486876104d5565b81526104938388016104d5565b838201526040870151604082015281520193019261008d565b5f80fd5b6040519190601f01601f191682016001600160401b0381118382101761021457604052565b51906001600160a01b03821682036104ac57565b919082018092116104f657565b634e487b7160e01b5f52601160045260245ffd5b600d5481101561020057600d5f5260205f2001905f90565b6001600160a01b03165f818152600c602052604090205460ff1661059b57805f52600c60205260405f20600160ff19825416179055600d54680100000000000000008110156102145780600161057b9201600d5561050a565b81546001600160a01b0360039290921b91821b191692901b919091179055565b50565b6040516323b872dd60e01b5f9081526001600160a01b039384166004529290931660245260449390935260209060648180865af19060015f511482161561060f575b6040525f606052156105ef5750565b635274afe760e01b5f9081526001600160a01b0391909116600452602490fd5b90600181151661062757823b15153d151616906105e0565b503d5f823e3d90fdfe60806040526004361015610011575f80fd5b5f3560e01c8063046f7da21461020457806306b5c8f4146101ff5780630ac6702a146101fa5780632b422d2e146101f55780632eb9b55d146101f0578063308657d7146101eb5780633d2691bc146101e65780633dd4d94f146101e157806354794405146101dc5780635a4fd645146101d75780635e00606c146101d257806362ea82db146101cd5780636439034b146101c85780636b892b22146101c35780637d29f54c146101be57806381972d00146101b95780639090a0c7146101b4578063918fb48c146101af57806399ce000f146101aa578063b26ff637146101a5578063b3d584f6146101a0578063ba6a83441461019b578063ca1d209d14610196578063cb6cdf2f14610191578063cb766a561461018c578063d415b3f914610187578063d91eb61514610182578063eeaa4d0e1461017d578063efdee94f14610178578063f3a504f2146101735763f9492b6a1461016e575f80fd5b61103e565b611019565b610fd5565b610e4f565b610e1d565b610e00565b610ddc565b610d82565b610b19565b610ae1565b610ac4565b610aa7565b610a50565b6107bb565b61076d565b61071e565b6106f9565b6104c3565b6104a7565b610458565b610429565b61040d565b6103f0565b6103b6565b61039a565b610378565b61032d565b6102f5565b6102b1565b610279565b3461025f575f36600319011261025f577f00000000000000000000000000000000000000000000000000000000000000006001600160a01b03163303610250576010805460ff19169055005b63618bbdd560e01b5f5260045ffd5b5f80fd5b600435906001600160a01b038216820361025f57565b3461025f57602036600319011261025f576001600160a01b0361029a610263565b165f52600a602052602060405f2054604051908152f35b3461025f575f36600319011261025f576040517f00000000000000000000000000000000000000000000000000000000000000006001600160a01b03168152602090f35b3461025f57602036600319011261025f576001600160a01b03610316610263565b165f526007602052602060405f2054604051908152f35b3461025f57604036600319011261025f57602061036961034b610263565b6001600160a01b03165f90815260078352604090206024359061108b565b90549060031b1c604051908152f35b3461025f575f36600319011261025f57602060ff601054166040519015158152f35b3461025f575f36600319011261025f5760206040516101008152f35b3461025f575f36600319011261025f5760206040517f00000000000000000000000000000000000000000000000000000000000000008152f35b3461025f575f36600319011261025f576020600354604051908152f35b3461025f575f36600319011261025f5760205f54604051908152f35b3461025f57602036600319011261025f576004355f52600f602052602060ff60405f2054166040519015158152f35b3461025f57602036600319011261025f576001600160a01b03610479610263565b165f526006602052606060405f20805490600260018201549101549060405192835260208301526040820152f35b3461025f575f36600319011261025f57602060405161012c8152f35b3461025f575f36600319011261025f576002601154146106ea5760026011557f00000000000000000000000000000000000000000000000000000000000000006001600160a01b03163303610250576010546105279060081c60ff161590565b1590565b6106db5761053d600160ff196010541617601055565b610545611317565b6004546106cc575f546105566110db565b6105608151611146565b9161057161ff001960105416601055565b5f805561057d5f600155565b7f0000000000000000000000000000000000000000000000000000000000000000916001600160a01b038316905f805b8251821015610646576105d06105c38385611178565b516001600160a01b031690565b6001600160a01b0381165f818152600b6020526040902054919391908790871461062b575b50610623600193945f92610609858d611178565b526001600160a01b03165f908152600b6020526040902090565b5501906105ad565b6001935061063d610623915f936111de565b915050866105f5565b94925050915f5b8351811015610697578061066360019288611178565b5161066f575b0161064d565b61069261067f6105c38388611178565b610689838a611178565b519033906113bb565b610669565b508315806106c3575b6106b1575b6106af6001601155565b005b6106bc9133906113bb565b80806106a5565b508015156106a0565b631f19c31760e21b5f5260045ffd5b636af784dd60e11b5f5260045ffd5b63558a1e0360e11b5f5260045ffd5b3461025f575f36600319011261025f57602060ff60105460101c166040519015158152f35b3461025f575f36600319011261025f577f00000000000000000000000000000000000000000000000000000000000000006001600160a01b03163303610250576010805460ff19166001179055005b3461025f575f36600319011261025f576020600154604051908152f35b9181601f8401121561025f5782359167ffffffffffffffff831161025f576020808501948460051b01011161025f57565b3461025f57602036600319011261025f5760043567ffffffffffffffff811161025f576107ec90369060040161078a565b6002601154146106ea576002601155610803611317565b335f9081526006602052604090209061082561052360105460ff9060081c1690565b6106db5760018201548015908115610a11575b50610a025780156109f357916005549261085184611146565b9361085b81611146565b925f935f935b80851061092857335f908152600760205260409020889088908881540361090e575f5b815481101561091d576108a461089a828461108b565b90549060031b1c90565b906108bb6105236108b58488611178565b51151590565b61090e576109086108f8836108ea6108dd6001965f52600f60205260405f2090565b805460ff19166001179055565b5f52600e60205260405f2090565b80546001600160a01b0319169055565b01610884565b633bb4ac0360e21b5f5260045ffd5b6106a5835433611836565b9091929394610938868386611200565b60608101610946818361121a565b9050156109f35761095a610960918361121a565b90611250565b3591868310156109e457848a8a61099861098c61097e600198610a2f565b50546001600160a01b031690565b6001600160a01b031690565b6109c3576109b1926109b7959260028693015493611716565b506111a0565b955b0193929190610861565b6109d8926109de9592600286930154936114ea565b906111de565b956109b9565b63981bbc4b60e01b5f5260045ffd5b630f4ea0ab60e41b5f5260045ffd5b6374b538d560e01b5f5260045ffd5b905042115f610838565b634e487b7160e01b5f52603260045260245ffd5b600554811015610a4b5760055f52600360205f20910201905f90565b610a1b565b3461025f57602036600319011261025f5760043560055481101561025f57610a79606091610a2f565b5080546001820154600290920154604080516001600160a01b03938416815293909216602084015290820152f35b3461025f575f36600319011261025f576020600d54604051908152f35b3461025f575f36600319011261025f576020600554604051908152f35b3461025f57602036600319011261025f576001600160a01b03610b02610263565b165f52600b602052602060405f2054604051908152f35b602036600319011261025f576004356002601154146106ea5760026011557f00000000000000000000000000000000000000000000000000000000000000006001600160a01b031633036102505760105460ff8160081c168015610d75575b610d665760ff16610d57578015610d48575f8052600a6020527f13da86008ba1c6922daee3e07db95305ef49ebced9f5467a0b8613fcc6b343e3547f00000000000000000000000000000000000000000000000000000000000000006001600160a01b0316918215918183610d39575b503403610d2a57805f55610bfb81600255565b610c247f0000000000000000000000000000000000000000000000000000000000000000600155565b610c2d5f600355565b610c436201000062ff0000196010541617601055565b610c5761010061ff00196010541617601055565b5f915f5b600d54811015610cf357610c86610c718261105b565b905460039190911b1c6001600160a01b031690565b6001600160a01b03165f818152600a6020908152604080832054600b909252909120819055868214610cda575b906001929181610cc6575b505001610c5b565b610cd39130903390611c48565b5f80610cbe565b60019291955084610cea916111de565b91949091610cb3565b509091159081610d21575b50610d0d576106af6001601155565b610d1a9130903390611c48565b5f806106a5565b9050155f610cfe565b6316fe52a960e21b5f5260045ffd5b610d42916111de565b81610be8565b63ea1083a760e01b5f5260045ffd5b632479328960e01b5f5260045ffd5b635adf638760e01b5f5260045ffd5b5060ff8160101c16610b78565b3461025f57602036600319011261025f57600435600d54811015610a4b57600d5f527fd7b6990105719101dabeb77144f2a3385c8033acd3af97e9423a695e81ad1eb501546040516001600160a01b039091168152602090f35b3461025f575f36600319011261025f576020610df6611269565b6040519015158152f35b3461025f575f36600319011261025f576020600254604051908152f35b3461025f57602036600319011261025f576004355f52600e602052602060018060a01b0360405f205416604051908152f35b604036600319011261025f5760043567ffffffffffffffff811161025f57610e7b90369060040161078a565b90602435916002601154146106ea576002601155610e97611317565b610ea2838284611a2b565b610ebd610eb7610eb28385611a83565b611b6e565b60011c90565b8310610fc657610ecc33611bcc565b335f908152600660205260409020838155610ee6426111b3565b6001820155600243910155610f04610eff6004546111a0565b600455565b5f5b818110610f6657837f00000000000000000000000000000000000000000000000000000000000000006001600160a01b031680610f4e57503403610d2a576106af6001601155565b9034610d2a57610f619130903390611c48565b6106a5565b80610fc0610f776001938587611259565b35610fad33610f8e835f52600e60205260405f2090565b80546001600160a01b0319166001600160a01b03909216919091179055565b335f9081526007602052604090206112e3565b01610f06565b63e92c469f60e01b5f5260045ffd5b3461025f575f36600319011261025f576040517f00000000000000000000000000000000000000000000000000000000000000006001600160a01b03168152602090f35b3461025f575f36600319011261025f57602060ff60105460081c166040519015158152f35b3461025f575f36600319011261025f576020600454604051908152f35b600d54811015610a4b57600d5f5260205f2001905f90565b600954811015610a4b5760095f5260205f2001905f90565b8054821015610a4b575f5260205f2001905f90565b634e487b7160e01b5f52604160045260245ffd5b90601f8019910116810190811067ffffffffffffffff8211176110d657604052565b6110a0565b60405190600d548083528260208101600d5f5260205f20925f5b81811061110c57505061110a925003836110b4565b565b84546001600160a01b03168352600194850194879450602090930192016110f5565b67ffffffffffffffff81116110d65760051b60200190565b906111508261112e565b61115d60405191826110b4565b828152809261116e601f199161112e565b0190602036910137565b8051821015610a4b5760209160051b010190565b634e487b7160e01b5f52601160045260245ffd5b90600182018092116111ae57565b61118c565b9061012c82018092116111ae57565b90601582018092116111ae57565b60010190816001116111ae57565b919082018092116111ae57565b903590609e198136030182121561025f570190565b90821015610a4b576112179160051b8101906111eb565b90565b903590601e198136030182121561025f570180359067ffffffffffffffff821161025f57602001918160051b3603831361025f57565b9015610a4b5790565b9190811015610a4b5760051b0190565b6009545f5b818110156112dd577f6e1540171b6c0c960b71a7020d9f60077f6af931a8bbf590da0223dacf75c7af8101546001600160a01b03165f9081526006602052604090206001015480151590816112d2575b506112cb5760010161126e565b5050600190565b90504211155f6112be565b50505f90565b8054600160401b8110156110d6576113009160018201815561108b565b819291549060031b91821b915f19901b1916179055565b5f905b60095482101561136c5760095f527f6e1540171b6c0c960b71a7020d9f60077f6af931a8bbf590da0223dacf75c7af82015461135e906001600160a01b0316611cb1565b61131a57906001019061131a565b9050565b67ffffffffffffffff81116110d657601f01601f191660200190565b3d156113b6573d9061139d82611370565b916113ab60405193846110b4565b82523d5f602084013e565b606090565b6001600160a01b0316806113f157505f80809381935af16113da61138c565b50156113e257565b63b12d13eb60e01b5f5260045ffd5b916040519163a9059cbb60e01b5f5260018060a01b031660045260245260205f60448180865af160015f511481161561144e575b604091909152156114335750565b635274afe760e01b5f526001600160a01b031660045260245ffd5b6001811516611464573d15833b15151616611425565b503d5f823e3d90fd5b903590601e198136030182121561025f570180359067ffffffffffffffff821161025f5760200191813603831361025f57565b908060209392818452848401375f828201840152601f01601f1916010190565b949392916060926114e5926001885260208801526080604088015260808701916114a0565b930152565b9294925f9291606082016114fe818461121a565b6080850197915061150f888661121a565b919050036109f3575f955b611524838661121a565b90508710156116135761154b846115458961153f878a61121a565b90611259565b35611d12565b61155a61098c61097e83610a2f565b156109f3578161160661160061160b938a8f6115f38f988f926115ee8f9460019c6115d9876115cb6115b96080611594846115f99d6111eb565b01359561153f6115b16115a786806111eb565b606081019061146d565b97909561121a565b356040519485936020850197886114c0565b03601f1981018352826110b4565b51902080966115e885856111de565b90611d4c565b6111de565b8d611178565b5288611178565b60019052565b6111a0565b96019561151a565b9450975093505093608061162786806111eb565b013511156116ea5761164161163c85806111eb565b611d77565b5f5b61164d838661121a565b90508110156116e2576116c761052361167361166d8461153f888b61121a565b35610a2f565b5061168b61168189806111eb565b602081019061146d565b61169c8661153f8b8d96959661121a565b82549035906001600160a01b031660018401549092906002906001600160a01b031694015494611e6d565b6116d357600101611643565b631851102960e01b5f5260045ffd5b509392505050565b633e36ee4160e11b5f5260045ffd5b60609061121794925f8252602082015281604082015201916114a0565b9194939060608301600161172a828661121a565b9050148015906117f5575b6109f3578161154561095a61174a938761121a565b9561175487610a2f565b5080549095906001600160a01b03166109f3576117c292611600926117bc8a9360806117808a806111eb565b01356117a86117926115a78c806111eb565b91906115cb6040519384926020840196876116f9565b519020926117b7848383611d4c565b611178565b52611178565b60806117ce83806111eb565b013511156116ea57600182015461110a92906002906001600160a01b031691015491612001565b50611803608085018561121a565b90501515611735565b5f198101919082116111ae57565b6001198101919082116111ae57565b919082039182116111ae57565b6001600160a01b0381165f90815260076020526040902080549361185c856003546111de565b600554149161187261186d876111a0565b611146565b9161187f61186d886111a0565b945f975f955f5b855481101561190b5788999a61189c828861108b565b90546118ab9160031b1c610a2f565b5080549099906001600160a01b03169b60028d9b0154809d81946118cf938d6120f8565b9b6118d9916111de565b6001600160a01b039099165f908152600b60205260409020908154906118fe91611829565b9055600101999899611886565b5092989790935061195d6119586119649397855f14611a2557600154905b8615611a0c575061195061194b6119425f5480976111de565b986003546111de565b600355565b600154611829565b600155565b5f54611829565b5f5561196f846121bd565b6119eb575b806119b6575b505f5b84811061198b575050505050565b806119b061199e6105c360019486611178565b856119a98489611178565b51916113bb565b0161197d565b6119e491947f00000000000000000000000000000000000000000000000000000000000000009085876120f8565b925f61197a565b6119fb61ff001960105416601055565b611a045f600155565b5f8055611974565b61194b611942611a1e61195093611b6e565b80976111de565b80611929565b50601054600881901c60ff16156106db5760ff16610d575715611a7457335f90815260066020526040902060010154611a655715610fc657565b63bc63b24b60e01b5f5260045ffd5b63eb5b17ff60e01b5f5260045ffd5b6005545f939291611a9382611146565b5f935b808510611aa4575050505050565b9091929395611ab4878386611259565b35858110156109e457611aca6108b58286611178565b611b4957611aea611ae3825f52600f60205260405f2090565b5460ff1690565b61090e57611b1361098c611b06835f52600e60205260405f2090565b546001600160a01b031690565b61090e576001916002611b3583611b30611600611b3e968a611178565b610a2f565b500154906111de565b960193929190611a96565b6319e33bcf60e11b5f5260045ffd5b908160011b91808304600214901517156111ae57565b80158015611bc3575b611bbe576001549081811015611bb7575f548181029181830414901517156111ae578115611ba3570490565b634e487b7160e01b5f52601260045260245ffd5b50505f5490565b505f90565b505f5415611b77565b6001600160a01b0381165f81815260086020526040902054909190611c445760095490600160401b8210156110d657611c0e826001611c329401600955611073565b81546001600160a01b0393841660039290921b91821b9390911b1916919091179055565b600954905f52600860205260405f2055565b5050565b6040516323b872dd60e01b5f9081526001600160a01b039384166004529290931660245260449390935260209060648180865af160015f5114811615611c9b575b6040919091525f606052156114335750565b6001811516611464573d15833b15151616611c89565b6001600160a01b0381165f90815260066020526040902060018101548015908115611d07575b506112dd57611ce79054916121bd565b80611cf3575b50600190565b5f549081018091116111ae575f555f611ced565b90504211155f611cd7565b906005548210156109e45781611d2791611178565b51611b49575f818152600e60205260409020546001600160a01b0316330361090e5790565b9190915f5b838110611d5e5750505050565b82611d698284611178565b5114611b4957600101611d51565b611dee90611d93611d88828061146d565b6080840135916122f4565b611dd9611da9611da3838061146d565b90612388565b91611de8611dba602083018361146d565b9190611de0611dcc604086018661146d565b969095606081019061146d565b36916122be565b9236916122be565b90612d07565b15611df557565b631ac2386360e31b5f5260045ffd5b90821015610a4b570190565b60ff60f6199116019060ff82116111ae57565b60ff60bf199116019060ff82116111ae57565b60ff60b6199116019060ff82116111ae57565b60ff607f199116019060ff82116111ae57565b60ff166001019060ff82116111ae57565b9594939291905f818881151580611fe5575b611fd7575b611ead611ea7611e998560c09560ff95611e04565b356001600160f81b03191690565b60f81c90565b1610611fa157808860f860ff611ecb611ea7611e9988978887611e04565b1610611fc757611ef8611ef3611eee611ea7611e9986611efe986109d897611e04565b611e10565b611e5c565b60ff1690565b81885f5b60038110611fb05750611ef8611ea7611e998560c095611f2195611e04565b10611fa157808860f8611f3f611ef8611ea7611e9988978887611e04565b10611f9057611ef8611ef3611eee611ea7611e9986611f61986109d897611e04565b915b5f905b808210611f795750506112179596612578565b9092611f88600191848b61240e565b930190611f66565b50611f9b91506111a0565b91611f63565b631bd5dcf760e31b5f5260045ffd5b92600192611fbd9261240e565b9101888391611f02565b50611fd291506111a0565b611efe565b506001915082905088611e84565b50608060ff611ffa611ea7611e998686611250565b1610611e7f565b9161202c61201861201285806111eb565b8061146d565b608061202487806111eb565b0135916122f4565b61204261203c61201285806111eb565b90612648565b9161207c6105236020860194612058868861146d565b9061206660408a018a61146d565b906120746115a78c806111eb565b9490936123f8565b611df5576120bb610523612096611da361201288806111eb565b6120a361168188806111eb565b906120666120b18a806111eb565b604081019061146d565b611df5576120d86105236120d261168187806111eb565b90612718565b611df5576120ec610523936120f29561146d565b906127d9565b6116d357565b9391925f5b8481106121395750908394916121188561212a959694611178565b6001600160a01b039091169052611178565b52600181018091116111ae5790565b6001600160a01b0361214b8288611178565b51166001600160a01b03831614612164576001016120fd565b828193949596506121759250611178565b519283018093116111ae5761218991611178565b5290565b8054905f81558161219c575050565b5f5260205f20908101905b8181106121b2575050565b5f81556001016121a7565b9060016121da8360018060a01b03165f52600660205260405f2090565b01541561136c576001600160a01b0382165f908152600760205260409020915f5b835481101561225e578061221461089a6001938761108b565b612229611b06825f52600e60205260405f2090565b60a084901b849003858116911614612243575b50016121fb565b6108f8612258915f52600e60205260405f2090565b5f61223c565b506001600160a01b0381165f9081526007602052604090209192506122b0916122869061218d565b6001600160a01b0381165f9081526006602052604081208181556001810182905560020155612a47565b61110a610eff60045461180c565b9291926122ca82611370565b916122d860405193846110b4565b82948184528183011161025f578281602093845f960137010152565b90438311612379576101006123098443611829565b1161236a578240801561235b576123213683856122be565b602081519101200361234c5761233691612b14565b0361233d57565b63048a12f560e11b5f5260045ffd5b63ff28378760e01b5f5260045ffd5b63bfc9f0d360e01b5f5260045ffd5b63c42a018560e01b5f5260045ffd5b63058968cf60e41b5f5260045ffd5b906123938183612bc4565b905f5b600581106123e35750600560fd1b906001600160f81b0319906123bb90849086611e04565b3516036123d4576001810181116111ae57016001013590565b633954003560e11b5f5260045ffd5b916123f1600191838661240e565b9201612396565b611de0611de892939495611217989736916122be565b91908082101561256957612429611ea7611e99848487611e04565b9060ff821660808110156124445750505061121791506111a0565b91929160b881101561246c5750506112179250611ef86124666109d8926111a0565b92611e49565b90929060c08110156124e25750611ef861248891949394611e36565b915f935f915b8483106124a95750505061121792916115ee6115ee926111a0565b9091946124b860019160081b90565b6124d8611ef8611ea7611e996124d18b6115ee8b6111a0565b8888611e04565b179501919061248e565b90929060f8111561250857506112179250611ef86125026109d8926111a0565b92611e23565b9291611ef861251691611e10565b915f935f915b8483106125375750505061121792916115ee6115ee926111a0565b90919461254660019160081b90565b61255f611ef8611ea7611e996124d18b6115ee8b6111a0565b179501919061251c565b6318d76ae160e11b5f5260045ffd5b91949392948060c060ff612593611ea7611e9985888a611e04565b1610611fa15760f860ff6125ae611ea7611e9985888a611e04565b16106126385750806109d8611ef8611ef3611eee611ea7611e996125d397898b611e04565b945b609460ff6125ea611ea7611e998a8789611e04565b1603612629576001600160a01b03168286016001013560601c0361261a57612614611217956111c2565b91612eb4565b63a087f96f60e01b5f5260045ffd5b63e6c4247b60e01b5f5260045ffd5b61264291506111a0565b946125d5565b905f600360fe1b6001600160f81b0319612665611e998587611250565b161061270957601f60fb1b6001600160f81b0319612686611e998587611250565b161061270057806109d8611ef8611ef3611eee611ea7611e996126aa97898b611e04565b905b5f5b600481106126eb5750600560fd1b906001600160f81b0319906126d790611e9990859087611e04565b16036123d4576126e6906111a0565b013590565b916126f9600191838661240e565b92016126ae565b506001906126ac565b63c0098bd960e01b5f5260045ffd5b5f90821515806127bd575b6127b4575b60c060ff61273d611ea7611e99868887611e04565b1610611fa157611ea7611e9982858560f860ff612767611ea7611e99839b60019d6127919c611e04565b16106127ab57806109d8611ef8611ef3611eee611ea7611e9961278b97898b611e04565b91611e04565b160361279c57600190565b63e9dd8a9d60e01b5f5260045ffd5b61278b906111a0565b60019150612728565b50608060ff6127d2611ea7611e998786611250565b1610612723565b90916003905f841515806129c4575b61297c575b60c060ff612802611ea7611e99858a8a611e04565b1610611fa1578060f860ff612821611ea7611e99612847968b8b611e04565b16106129735760ff612840611ef3611eee611ea7611e99868c8c611e04565b16906111de565b915f905b80821061295c575050609460ff612869611ea7611e99868989611e04565b1603612629576001600160a01b03168282016001013560601c0361294d57612890906111c2565b916128a2611ea7611e99858486611e04565b925f9260ff851694608086105f146128d35750505050505b036128c457600190565b6355e97b0d60e01b5f5260045ffd5b90919293946080145f146128ec5750505050505f6128ba565b611ef86128fb91939293611e49565b915f935b8385106129105750505050506128ba565b909192939461292160019160081b90565b612941611ef8611ea7611e9961293a8b6115ee8b6111a0565b8789611e04565b179501939291906128ff565b63c0ee95bb60e01b5f5260045ffd5b909261296b600191878761240e565b93019061284b565b60ff6001612840565b50905061298f611ea7611e998585611250565b6001919060ff168083036129a657506004916127ed565b6002036129b5576005916127ed565b636fc3daa360e11b5f5260045ffd5b50608060ff6129d9611ea7611e998989611250565b16106127e8565b6009548015612a33575f19810190600954821015610a4b5760095f8190527f6e1540171b6c0c960b71a7020d9f60077f6af931a8bbf590da0223dacf75c7ae90910180546001600160a01b031916905555565b634e487b7160e01b5f52603160045260245ffd5b6001600160a01b0381165f908152600860205260409020548015611c44575f1981018181116111ae57600954915f1983018381116111ae57808303612ab4575b50505050612ab15f91612a986129e0565b6001600160a01b03165f90815260086020526040902090565b55565b92809492931015610a4b57612b0b611c0e612a98612ab195612b037f6e1540171b6c0c960b71a7020d9f60077f6af931a8bbf590da0223dacf75c7ae5f9960098b52015460018060a01b031690565b928391611073565b55915f80612a87565b612b1e8282612bc4565b915f5b60088110612baf5750612b3b611ea7611e99858486611e04565b925f9260ff851694608086105f14612b5557505050505090565b612b669193949550611ef890611e49565b915f935b838510612b7957505050505090565b9091929394612b8a60019160081b90565b612ba3611ef8611ea7611e9961293a8b6115ee8b6111a0565b17950193929190612b6a565b92612bbd600191838561240e565b9301612b21565b5f600360fe1b6001600160f81b0319612be0611e998686611250565b161061270957601f60fb1b6001600160f81b0319612c01611e998686611250565b1610612ce057806109d8611ef8611ef3611eee611ea7611e99612c25978a8a611e04565b905b61a5bd46148015612cd5575b612c3e575b50905090565b5f5b60038110612cc05750600360fe1b612c6c612c5f611e99858786611e04565b6001600160f81b03191690565b1061270957601f60fb1b612c87612c5f611e99858786611e04565b10612cb057611ef8611ef3611eee611ea7611e9986612ca9986109d897611e04565b805f612c38565b50612cbb91506111a0565b612ca9565b91612cce600191858461240e565b9201612c40565b5061a5bf4614612c33565b50600190612c27565b805115610a4b5760200190565b908151811015610a4b570160200190565b919390929190600360fe1b6001600160f81b0319612d28611e998689611250565b1610612ea557601f60fb1b6001600160f81b0319612d49611e998689611250565b1610612e9b57612d6d612d68611ef8611eee611ea7611e99888b611250565b6111d0565b9492905b945f5b828210612d8657505050505050505f90565b612da4612d9d83612d9836878a6122be565b6130a5565b90936111de565b968251602084012003612e3957600360fe1b612dd3612c5f612dc585612ce9565b516001600160f81b03191690565b10612e39578590846001601f60fb1b612df1612c5f612dc588612ce9565b1015612e7d575b612e02818661324c565b60118103612e445750612e14946133bd565b949115612e39578415612e2d5793915b91959093612d74565b50505050505050600190565b505050505050505f90565b909350600214159050612e7157848792612e5d94613277565b949115612e39578415612e2d579391612e24565b50505050505050505f90565b50612e96612d68611ef8611eee611ea7612dc589612ce9565b612df8565b6001949290612d71565b63ebb47d1d60e01b5f5260045ffd5b929190918160c060ff612ece611ea7611e9987898b611e04565b1610611fa15760f860ff612ee9611ea7611e9987898b611e04565b161061304c57806109d8611ef8611ef3611eee611ea7611e99612f0d978b8d611e04565b7fddf252ad1be2c89b69c2b068fc378daa952ba7f163c4a11628f55a4df523b3ef612f398286886134d2565b0361303d5761098c61098c612f5c612f55612f6394888a61240e565b878961240e565b86886134d2565b6001600160a01b0391821691160361302e57612f8090828461240e565b905f91612f94611ea7611e99838588611e04565b60ff811694906080861015612fb2575050505050036128c457600190565b9091929394608081145f14612fcd575050505050505f6128ba565b60a010611fa157611ef8612fe391939293611e49565b915f935b838510612ff85750505050506128ba565b909192939461300960019160081b90565b613022611ef8611ea7611e9961293a8b6115ee8b6111a0565b17950193929190612fe7565b634cd4b7b160e01b5f5260045ffd5b6324da545d60e11b5f5260045ffd5b50613056826111a0565b612f0d565b6040805190919061306c83826110b4565b6001815291601f1901366020840137565b9061308782611370565b61309460405191826110b4565b828152809261116e601f1991611370565b8051821015612569576130be611ea7612dc58484612cf6565b9160ff831660808110156130f7575050506130d761305b565b9060f81b6001600160f81b0319165f1a6130f082612ce9565b5390600190565b919392909160b88110156131615750611ef861311291611e49565b9061311c8261307d565b935f5b83811061313257505050611217906111d0565b8061314e612dc56131486001946115ee886111a0565b85612cf6565b5f1a61315a8289612cf6565b530161311f565b60c011156131ff57611ef861317591611e36565b5f915f5b8281106131d1575061318a8361307d565b945f5b8481106131a457505050906115ee611217926111d0565b806131be612dc56131486001946115ee896115ee8a6111a0565b5f1a6131ca828a612cf6565b530161318d565b9260019060081b6131f7611ef8611ea7612dc56131f1896115ee896111a0565b8b612cf6565b179301613179565b509161320b838261350e565b926132158461307d565b915f5b858110613226575050509190565b80613239612dc5613148600194876111de565b5f1a6132458287612cf6565b5301613218565b5f92915b8151811015611c4457613263818361350e565b81018091116111ae57600190930192613250565b8394929161328581836130a5565b93906132a4602061329b611ea7612dc585612ce9565b1615159161363b565b9788911561334657506132b89051876111de565b6132c28251611b58565b146132d7575b505050505050505f905f905f90565b86866001928251613334575b5050506132f1575b806132c8565b613304926132fe916111de565b906130a5565b506020815191012090602081519101201461332257808080806132eb565b61332d9151906111de565b6001915f90565b61333e935061379f565b86865f6132e3565b61335793949596506105239261379f565b6133b057613368926132fe916111de565b50908151602081145f1461339057506020613388920151925b51906111de565b916001929190565b80156133a457602061338893012092613381565b505050505f905f905f90565b50505050505f905f905f90565b919092936133cb8251611b58565b8510156134755750611ea7612dc56133ed926133e78760011c90565b90612cf6565b6001841661346c5760041c600f16915b905f925b60ff8116841061344c575061341692506130a5565b508051801561344157613388916020820361343757602091500151916111a0565b60200120916111a0565b5050505f905f905f90565b90916001613460826109d860ff948761350e565b94019392919050613401565b600f16916133fd565b9290509392935f915b601083106134b85761349092506130a5565b50602081519101209060208151910120145f146134af57600191905f90565b5f915081908190565b906134c9816109d86001938561350e565b9201919061347e565b9190600560fd1b906001600160f81b0319906134f090849086611e04565b3516036134ff57016001013590565b63f0ff325b60e01b5f5260045ffd5b90815181101561256957613528611ea7612dc58385612cf6565b9160ff8316608081101561353f5750505050600190565b60b881101561355a57505050611ef8611ef361121792611e49565b60c08110156135c6575091611ef861357191611e36565b905f925f915b83831061358e57505050906115ee611217926111d0565b90919361359d60019160081b90565b6135bc611ef8611ea7612dc56135b68a6115ee896111a0565b88612cf6565b1794019190613577565b60f811156135df575050611ef8611ef361121792611e23565b91611ef86135ec91611e10565b905f925f915b83831061360957505050906115ee611217926111d0565b90919361361860019160081b90565b613631611ef8611ea7612dc56135b68a6115ee896111a0565b17940191906135f2565b9081511561110a57613652611ea7612dc584612ce9565b60108116156137215761367561367061366b8551611b58565b61180c565b61307d565b9060f81b600f60f81b165f1a61368a82612ce9565b5360015b835181101561371c57806136c96136b96136b0611ea7612dc56001968a612cf6565b60041c600f1690565b60f81b6001600160f81b03191690565b6136e26136d861366b84611b58565b915f1a9185612cf6565b53613709600f6136f8611ea7612dc5858a612cf6565b1660f81b6001600160f81b03191690565b6137156136d883611b58565b530161368e565b509150565b506137376136706137328451611b58565b61181a565b60015b835181101561371c578061375c6136b96136b0611ea7612dc56001968a612cf6565b6137706136d861376b8461180c565b611b58565b53613786600f6136f8611ea7612dc5858a612cf6565b6137986136d861160661376b8561180c565b530161373a565b9190916137ad8251846111de565b6137b78251611b58565b10613850575f5b8251811015613847576137da6137d482866111de565b60011690565b613829576137fd6136b0611ea7612dc56137f7610eb7868a6111de565b86612cf6565b60ff613812611ef8611ea7612dc58689612cf6565b911603613821576001016137be565b505050505f90565b600f613841611ea7612dc56137f7610eb7868a6111de565b166137fd565b50505050600190565b5050505f9056fea2646970667358221220265d5406e08452d21ff894761ff37acaf2ca7a914c0890de47aeb883dc2d790564736f6c634300081e0033","linkReferences":{}},"methodIdentifiers":{"BID_DURATION()":"6439034b","MAX_BLOCK_LOOKBACK()":"3d2691bc","activeBidCount()":"f9492b6a","bid(uint256[],uint256)":"eeaa4d0e","bidTransferCount(address)":"2b422d2e","bidTransferIndex(address,uint256)":"2eb9b55d","bids(address)":"62ea82db","cancelAndWithdraw()":"6b892b22","cancellationRequest()":"308657d7","collect(((bytes,bytes,bytes,bytes,uint256),bytes,bytes,uint256[],uint256[])[])":"918fb48c","completedTransferCount()":"54794405","currentAssetPaymentAmount(address)":"ba6a8344","currentRewardAmount()":"5a4fd645","currentTransferAmount()":"9090a0c7","deployerAddress()":"efdee94f","expectedTransferCount()":"b3d584f6","expectedTransfers(uint256)":"99ce000f","fund(uint256)":"ca1d209d","funded()":"f3a504f2","hasBeenFunded()":"7d29f54c","is_bonded()":"cb766a56","originalRewardAmount()":"d415b3f9","paymentAssetAt(uint256)":"cb6cdf2f","paymentAssetCount()":"b26ff637","requestCancellation()":"81972d00","resume()":"046f7da2","rewardAsset()":"0ac6702a","totalAssetPaymentAmount(address)":"06b5c8f4","totalTransferAmount()":"3dd4d94f","transferBidder(uint256)":"d91eb615","transferCompleted(uint256)":"5e00606c"},"storageLayout":{"storage":[{"astId":41433,"contract":"src/EscrowBatch.sol:EscrowBatch","label":"currentRewardAmount","offset":0,"slot":"0","type":"t_uint256"},{"astId":41435,"contract":"src/EscrowBatch.sol:EscrowBatch","label":"currentTransferAmount","offset":0,"slot":"1","type":"t_uint256"},{"astId":41437,"contract":"src/EscrowBatch.sol:EscrowBatch","label":"originalRewardAmount","offset":0,"slot":"2","type":"t_uint256"},{"astId":41439,"contract":"src/EscrowBatch.sol:EscrowBatch","label":"completedTransferCount","offset":0,"slot":"3","type":"t_uint256"},{"astId":41441,"contract":"src/EscrowBatch.sol:EscrowBatch","label":"activeBidCount","offset":0,"slot":"4","type":"t_uint256"},{"astId":41457,"contract":"src/EscrowBatch.sol:EscrowBatch","label":"expectedTransfers","offset":0,"slot":"5","type":"t_array(t_struct(BatchTransfer)41335_storage)dyn_storage"},{"astId":41462,"contract":"src/EscrowBatch.sol:EscrowBatch","label":"bids","offset":0,"slot":"6","type":"t_mapping(t_address,t_struct(Bid)41369_storage)"},{"astId":41467,"contract":"src/EscrowBatch.sol:EscrowBatch","label":"bidTransferIndexes","offset":0,"slot":"7","type":"t_mapping(t_address,t_array(t_uint256)dyn_storage)"},{"astId":41471,"contract":"src/EscrowBatch.sol:EscrowBatch","label":"bidderPositions","offset":0,"slot":"8","type":"t_mapping(t_address,t_uint256)"},{"astId":41474,"contract":"src/EscrowBatch.sol:EscrowBatch","label":"bidders","offset":0,"slot":"9","type":"t_array(t_address)dyn_storage"},{"astId":41478,"contract":"src/EscrowBatch.sol:EscrowBatch","label":"totalAssetPaymentAmount","offset":0,"slot":"10","type":"t_mapping(t_address,t_uint256)"},{"astId":41482,"contract":"src/EscrowBatch.sol:EscrowBatch","label":"currentAssetPaymentAmount","offset":0,"slot":"11","type":"t_mapping(t_address,t_uint256)"},{"astId":41486,"contract":"src/EscrowBatch.sol:EscrowBatch","label":"knownPaymentAsset","offset":0,"slot":"12","type":"t_mapping(t_address,t_bool)"},{"astId":41489,"contract":"src/EscrowBatch.sol:EscrowBatch","label":"paymentAssets","offset":0,"slot":"13","type":"t_array(t_address)dyn_storage"},{"astId":41493,"contract":"src/EscrowBatch.sol:EscrowBatch","label":"transferBidder","offset":0,"slot":"14","type":"t_mapping(t_uint256,t_address)"},{"astId":41497,"contract":"src/EscrowBatch.sol:EscrowBatch","label":"transferCompleted","offset":0,"slot":"15","type":"t_mapping(t_uint256,t_bool)"},{"astId":41499,"contract":"src/EscrowBatch.sol:EscrowBatch","label":"cancellationRequest","offset":0,"slot":"16","type":"t_bool"},{"astId":41501,"contract":"src/EscrowBatch.sol:EscrowBatch","label":"funded","offset":1,"slot":"16","type":"t_bool"},{"astId":41503,"contract":"src/EscrowBatch.sol:EscrowBatch","label":"hasBeenFunded","offset":2,"slot":"16","type":"t_bool"},{"astId":41506,"contract":"src/EscrowBatch.sol:EscrowBatch","label":"reentrancyStatus","offset":0,"slot":"17","type":"t_uint256"}],"types":{"t_address":{"encoding":"inplace","label":"address","numberOfBytes":"20"},"t_array(t_address)dyn_storage":{"encoding":"dynamic_array","label":"address[]","numberOfBytes":"32","base":"t_address"},"t_array(t_struct(BatchTransfer)41335_storage)dyn_storage":{"encoding":"dynamic_array","label":"struct EscrowBatch.BatchTransfer[]","numberOfBytes":"32","base":"t_struct(BatchTransfer)41335_storage"},"t_array(t_uint256)dyn_storage":{"encoding":"dynamic_array","label":"uint256[]","numberOfBytes":"32","base":"t_uint256"},"t_bool":{"encoding":"inplace","label":"bool","numberOfBytes":"1"},"t_mapping(t_address,t_array(t_uint256)dyn_storage)":{"encoding":"mapping","key":"t_address","label":"mapping(address => uint256[])","numberOfBytes":"32","value":"t_array(t_uint256)dyn_storage"},"t_mapping(t_address,t_bool)":{"encoding":"mapping","key":"t_address","label":"mapping(address => bool)","numberOfBytes":"32","value":"t_bool"},"t_mapping(t_address,t_struct(Bid)41369_storage)":{"encoding":"mapping","key":"t_address","label":"mapping(address => struct EscrowBatch.Bid)","numberOfBytes":"32","value":"t_struct(Bid)41369_storage"},"t_mapping(t_address,t_uint256)":{"encoding":"mapping","key":"t_address","label":"mapping(address => uint256)","numberOfBytes":"32","value":"t_uint256"},"t_mapping(t_uint256,t_address)":{"encoding":"mapping","key":"t_uint256","label":"mapping(uint256 => address)","numberOfBytes":"32","value":"t_address"},"t_mapping(t_uint256,t_bool)":{"encoding":"mapping","key":"t_uint256","label":"mapping(uint256 => bool)","numberOfBytes":"32","value":"t_bool"},"t_struct(BatchTransfer)41335_storage":{"encoding":"inplace","label":"struct EscrowBatch.BatchTransfer","numberOfBytes":"96","members":[{"astId":41330,"contract":"src/EscrowBatch.sol:EscrowBatch","label":"asset","offset":0,"slot":"0","type":"t_address"},{"astId":41332,"contract":"src/EscrowBatch.sol:EscrowBatch","label":"recipient","offset":0,"slot":"1","type":"t_address"},{"astId":41334,"contract":"src/EscrowBatch.sol:EscrowBatch","label":"amount","offset":0,"slot":"2","type":"t_uint256"}]},"t_struct(Bid)41369_storage":{"encoding":"inplace","label":"struct EscrowBatch.Bid","numberOfBytes":"96","members":[{"astId":41364,"contract":"src/EscrowBatch.sol:EscrowBatch","label":"bondAmount","offset":0,"slot":"0","type":"t_uint256"},{"astId":41366,"contract":"src/EscrowBatch.sol:EscrowBatch","label":"expiresAt","offset":0,"slot":"1","type":"t_uint256"},{"astId":41368,"contract":"src/EscrowBatch.sol:EscrowBatch","label":"startBlock","offset":0,"slot":"2","type":"t_uint256"}]},"t_uint256":{"encoding":"inplace","label":"uint256","numberOfBytes":"32"}}},"id":27}